{
	"contracts/crofunding/crofunding.sol": {
		"crofunding": {
			"abi": [
				{
					"anonymous": false,
					"inputs": [
						{
							"indexed": false,
							"internalType": "uint256",
							"name": "how_much_was_found",
							"type": "uint256"
						},
						{
							"indexed": false,
							"internalType": "uint256",
							"name": "current_funds",
							"type": "uint256"
						},
						{
							"indexed": false,
							"internalType": "uint256",
							"name": "how_much_missing",
							"type": "uint256"
						},
						{
							"indexed": false,
							"internalType": "address",
							"name": "funder",
							"type": "address"
						},
						{
							"indexed": false,
							"internalType": "string",
							"name": "project_id",
							"type": "string"
						}
					],
					"name": "amount_funds",
					"type": "event"
				},
				{
					"anonymous": false,
					"inputs": [
						{
							"indexed": false,
							"internalType": "string",
							"name": "id",
							"type": "string"
						},
						{
							"indexed": false,
							"internalType": "string",
							"name": "name",
							"type": "string"
						},
						{
							"indexed": false,
							"internalType": "string",
							"name": "description",
							"type": "string"
						},
						{
							"indexed": false,
							"internalType": "uint256",
							"name": "funds_reising_goal",
							"type": "uint256"
						}
					],
					"name": "new_project_created",
					"type": "event"
				},
				{
					"anonymous": false,
					"inputs": [
						{
							"indexed": false,
							"internalType": "string",
							"name": "notification_state",
							"type": "string"
						},
						{
							"indexed": false,
							"internalType": "string",
							"name": "project_id",
							"type": "string"
						}
					],
					"name": "project_state",
					"type": "event"
				},
				{
					"inputs": [
						{
							"internalType": "enum crofunding.is_open",
							"name": "new_state",
							"type": "uint8"
						},
						{
							"internalType": "uint256",
							"name": "project_index",
							"type": "uint256"
						}
					],
					"name": "change_project_state",
					"outputs": [],
					"stateMutability": "nonpayable",
					"type": "function"
				},
				{
					"inputs": [
						{
							"internalType": "string",
							"name": "",
							"type": "string"
						},
						{
							"internalType": "uint256",
							"name": "",
							"type": "uint256"
						}
					],
					"name": "contributions",
					"outputs": [
						{
							"internalType": "address",
							"name": "contributor",
							"type": "address"
						},
						{
							"internalType": "uint256",
							"name": "value",
							"type": "uint256"
						}
					],
					"stateMutability": "view",
					"type": "function"
				},
				{
					"inputs": [
						{
							"internalType": "string",
							"name": "id",
							"type": "string"
						},
						{
							"internalType": "string",
							"name": "name",
							"type": "string"
						},
						{
							"internalType": "string",
							"name": "description",
							"type": "string"
						},
						{
							"internalType": "uint256",
							"name": "funds_reising_goal",
							"type": "uint256"
						},
						{
							"internalType": "string",
							"name": "string_state",
							"type": "string"
						}
					],
					"name": "create_project",
					"outputs": [],
					"stateMutability": "nonpayable",
					"type": "function"
				},
				{
					"inputs": [
						{
							"internalType": "uint256",
							"name": "project_index",
							"type": "uint256"
						}
					],
					"name": "fund_project",
					"outputs": [],
					"stateMutability": "payable",
					"type": "function"
				},
				{
					"inputs": [
						{
							"internalType": "uint256",
							"name": "",
							"type": "uint256"
						}
					],
					"name": "new_projects",
					"outputs": [
						{
							"internalType": "string",
							"name": "id",
							"type": "string"
						},
						{
							"internalType": "string",
							"name": "name",
							"type": "string"
						},
						{
							"internalType": "string",
							"name": "description",
							"type": "string"
						},
						{
							"internalType": "address payable",
							"name": "author",
							"type": "address"
						},
						{
							"internalType": "string",
							"name": "string_state",
							"type": "string"
						},
						{
							"internalType": "enum crofunding.is_open",
							"name": "state",
							"type": "uint8"
						},
						{
							"internalType": "uint256",
							"name": "funds",
							"type": "uint256"
						},
						{
							"internalType": "uint256",
							"name": "funds_reising_goal",
							"type": "uint256"
						}
					],
					"stateMutability": "view",
					"type": "function"
				}
			],
			"devdoc": {
				"kind": "dev",
				"methods": {},
				"version": 1
			},
			"evm": {
				"assembly": "    /* \"contracts/crofunding/crofunding.sol\":70:3401  contract crofunding{... */\n  mstore(0x40, 0x80)\n  callvalue\n  dup1\n  iszero\n  tag_1\n  jumpi\n  0x00\n  dup1\n  revert\ntag_1:\n  pop\n  dataSize(sub_0)\n  dup1\n  dataOffset(sub_0)\n  0x00\n  codecopy\n  0x00\n  return\nstop\n\nsub_0: assembly {\n        /* \"contracts/crofunding/crofunding.sol\":70:3401  contract crofunding{... */\n      mstore(0x40, 0x80)\n      jumpi(tag_1, lt(calldatasize, 0x04))\n      shr(0xe0, calldataload(0x00))\n      dup1\n      0x0f23e369\n      eq\n      tag_2\n      jumpi\n      dup1\n      0x65262133\n      eq\n      tag_3\n      jumpi\n      dup1\n      0x7f3fcdd9\n      eq\n      tag_4\n      jumpi\n      dup1\n      0x8ee4fa0a\n      eq\n      tag_5\n      jumpi\n      dup1\n      0xc4168d2e\n      eq\n      tag_6\n      jumpi\n    tag_1:\n      0x00\n      dup1\n      revert\n        /* \"contracts/crofunding/crofunding.sol\":2553:3398  function change_project_state(is_open new_state, uint project_index) public only_author(project_index) {... */\n    tag_2:\n      callvalue\n      dup1\n      iszero\n      tag_7\n      jumpi\n      0x00\n      dup1\n      revert\n    tag_7:\n      pop\n      tag_8\n      0x04\n      dup1\n      calldatasize\n      sub\n      dup2\n      add\n      swap1\n      tag_9\n      swap2\n      swap1\n      tag_10\n      jump\t// in\n    tag_9:\n      tag_11\n      jump\t// in\n    tag_8:\n      stop\n        /* \"contracts/crofunding/crofunding.sol\":1306:1812  function create_project(string calldata id, string calldata name, string calldata description, uint funds_reising_goal, string calldata string_state) public {... */\n    tag_3:\n      callvalue\n      dup1\n      iszero\n      tag_12\n      jumpi\n      0x00\n      dup1\n      revert\n    tag_12:\n      pop\n      tag_13\n      0x04\n      dup1\n      calldatasize\n      sub\n      dup2\n      add\n      swap1\n      tag_14\n      swap2\n      swap1\n      tag_15\n      jump\t// in\n    tag_14:\n      tag_16\n      jump\t// in\n    tag_13:\n      stop\n        /* \"contracts/crofunding/crofunding.sol\":487:542  mapping( string => contribution[]) public contributions */\n    tag_4:\n      callvalue\n      dup1\n      iszero\n      tag_17\n      jumpi\n      0x00\n      dup1\n      revert\n    tag_17:\n      pop\n      tag_18\n      0x04\n      dup1\n      calldatasize\n      sub\n      dup2\n      add\n      swap1\n      tag_19\n      swap2\n      swap1\n      tag_20\n      jump\t// in\n    tag_19:\n      tag_21\n      jump\t// in\n    tag_18:\n      mload(0x40)\n      tag_22\n      swap3\n      swap2\n      swap1\n      tag_23\n      jump\t// in\n    tag_22:\n      mload(0x40)\n      dup1\n      swap2\n      sub\n      swap1\n      return\n        /* \"contracts/crofunding/crofunding.sol\":1821:2547  function fund_project( uint project_index) public payable author_cant_fund(project_index) {... */\n    tag_5:\n      tag_24\n      0x04\n      dup1\n      calldatasize\n      sub\n      dup2\n      add\n      swap1\n      tag_25\n      swap2\n      swap1\n      tag_26\n      jump\t// in\n    tag_25:\n      tag_27\n      jump\t// in\n    tag_24:\n      stop\n        /* \"contracts/crofunding/crofunding.sol\":452:481  project[] public new_projects */\n    tag_6:\n      callvalue\n      dup1\n      iszero\n      tag_28\n      jumpi\n      0x00\n      dup1\n      revert\n    tag_28:\n      pop\n      tag_29\n      0x04\n      dup1\n      calldatasize\n      sub\n      dup2\n      add\n      swap1\n      tag_30\n      swap2\n      swap1\n      tag_26\n      jump\t// in\n    tag_30:\n      tag_31\n      jump\t// in\n    tag_29:\n      mload(0x40)\n      tag_32\n      swap9\n      swap8\n      swap7\n      swap6\n      swap5\n      swap4\n      swap3\n      swap2\n      swap1\n      tag_33\n      jump\t// in\n    tag_32:\n      mload(0x40)\n      dup1\n      swap2\n      sub\n      swap1\n      return\n        /* \"contracts/crofunding/crofunding.sol\":2553:3398  function change_project_state(is_open new_state, uint project_index) public only_author(project_index) {... */\n    tag_11:\n        /* \"contracts/crofunding/crofunding.sol\":2641:2654  project_index */\n      dup1\n        /* \"contracts/crofunding/crofunding.sol\":944:956  new_projects */\n      0x00\n        /* \"contracts/crofunding/crofunding.sol\":957:970  project_index */\n      dup2\n        /* \"contracts/crofunding/crofunding.sol\":944:971  new_projects[project_index] */\n      dup2\n      sload\n      dup2\n      lt\n      tag_35\n      jumpi\n      tag_36\n      tag_37\n      jump\t// in\n    tag_36:\n    tag_35:\n      swap1\n      0x00\n      mstore\n      keccak256(0x00, 0x20)\n      swap1\n      0x08\n      mul\n      add\n        /* \"contracts/crofunding/crofunding.sol\":944:978  new_projects[project_index].author */\n      0x03\n      add\n      0x00\n      swap1\n      sload\n      swap1\n      0x0100\n      exp\n      swap1\n      div\n      0xffffffffffffffffffffffffffffffffffffffff\n      and\n        /* \"contracts/crofunding/crofunding.sol\":930:978  msg.sender == new_projects[project_index].author */\n      0xffffffffffffffffffffffffffffffffffffffff\n      and\n        /* \"contracts/crofunding/crofunding.sol\":930:940  msg.sender */\n      caller\n        /* \"contracts/crofunding/crofunding.sol\":930:978  msg.sender == new_projects[project_index].author */\n      0xffffffffffffffffffffffffffffffffffffffff\n      and\n      eq\n        /* \"contracts/crofunding/crofunding.sol\":909:1065  require(... */\n      tag_39\n      jumpi\n      mload(0x40)\n      0x08c379a000000000000000000000000000000000000000000000000000000000\n      dup2\n      mstore\n      0x04\n      add\n      tag_40\n      swap1\n      tag_41\n      jump\t// in\n    tag_40:\n      mload(0x40)\n      dup1\n      swap2\n      sub\n      swap1\n      revert\n    tag_39:\n        /* \"contracts/crofunding/crofunding.sol\":2666:2704  project memory project_to_change_state */\n      0x00\n        /* \"contracts/crofunding/crofunding.sol\":2707:2719  new_projects */\n      dup1\n        /* \"contracts/crofunding/crofunding.sol\":2720:2733  project_index */\n      dup4\n        /* \"contracts/crofunding/crofunding.sol\":2707:2734  new_projects[project_index] */\n      dup2\n      sload\n      dup2\n      lt\n      tag_43\n      jumpi\n      tag_44\n      tag_37\n      jump\t// in\n    tag_44:\n    tag_43:\n      swap1\n      0x00\n      mstore\n      keccak256(0x00, 0x20)\n      swap1\n      0x08\n      mul\n      add\n        /* \"contracts/crofunding/crofunding.sol\":2666:2734  project memory project_to_change_state = new_projects[project_index] */\n      mload(0x40)\n      dup1\n      0x0100\n      add\n      0x40\n      mstore\n      swap1\n      dup2\n      0x00\n      dup3\n      add\n      dup1\n      sload\n      tag_46\n      swap1\n      tag_47\n      jump\t// in\n    tag_46:\n      dup1\n      0x1f\n      add\n      0x20\n      dup1\n      swap2\n      div\n      mul\n      0x20\n      add\n      mload(0x40)\n      swap1\n      dup2\n      add\n      0x40\n      mstore\n      dup1\n      swap3\n      swap2\n      swap1\n      dup2\n      dup2\n      mstore\n      0x20\n      add\n      dup3\n      dup1\n      sload\n      tag_48\n      swap1\n      tag_47\n      jump\t// in\n    tag_48:\n      dup1\n      iszero\n      tag_49\n      jumpi\n      dup1\n      0x1f\n      lt\n      tag_50\n      jumpi\n      0x0100\n      dup1\n      dup4\n      sload\n      div\n      mul\n      dup4\n      mstore\n      swap2\n      0x20\n      add\n      swap2\n      jump(tag_49)\n    tag_50:\n      dup3\n      add\n      swap2\n      swap1\n      0x00\n      mstore\n      keccak256(0x00, 0x20)\n      swap1\n    tag_51:\n      dup2\n      sload\n      dup2\n      mstore\n      swap1\n      0x01\n      add\n      swap1\n      0x20\n      add\n      dup1\n      dup4\n      gt\n      tag_51\n      jumpi\n      dup3\n      swap1\n      sub\n      0x1f\n      and\n      dup3\n      add\n      swap2\n    tag_49:\n      pop\n      pop\n      pop\n      pop\n      pop\n      dup2\n      mstore\n      0x20\n      add\n      0x01\n      dup3\n      add\n      dup1\n      sload\n      tag_52\n      swap1\n      tag_47\n      jump\t// in\n    tag_52:\n      dup1\n      0x1f\n      add\n      0x20\n      dup1\n      swap2\n      div\n      mul\n      0x20\n      add\n      mload(0x40)\n      swap1\n      dup2\n      add\n      0x40\n      mstore\n      dup1\n      swap3\n      swap2\n      swap1\n      dup2\n      dup2\n      mstore\n      0x20\n      add\n      dup3\n      dup1\n      sload\n      tag_53\n      swap1\n      tag_47\n      jump\t// in\n    tag_53:\n      dup1\n      iszero\n      tag_54\n      jumpi\n      dup1\n      0x1f\n      lt\n      tag_55\n      jumpi\n      0x0100\n      dup1\n      dup4\n      sload\n      div\n      mul\n      dup4\n      mstore\n      swap2\n      0x20\n      add\n      swap2\n      jump(tag_54)\n    tag_55:\n      dup3\n      add\n      swap2\n      swap1\n      0x00\n      mstore\n      keccak256(0x00, 0x20)\n      swap1\n    tag_56:\n      dup2\n      sload\n      dup2\n      mstore\n      swap1\n      0x01\n      add\n      swap1\n      0x20\n      add\n      dup1\n      dup4\n      gt\n      tag_56\n      jumpi\n      dup3\n      swap1\n      sub\n      0x1f\n      and\n      dup3\n      add\n      swap2\n    tag_54:\n      pop\n      pop\n      pop\n      pop\n      pop\n      dup2\n      mstore\n      0x20\n      add\n      0x02\n      dup3\n      add\n      dup1\n      sload\n      tag_57\n      swap1\n      tag_47\n      jump\t// in\n    tag_57:\n      dup1\n      0x1f\n      add\n      0x20\n      dup1\n      swap2\n      div\n      mul\n      0x20\n      add\n      mload(0x40)\n      swap1\n      dup2\n      add\n      0x40\n      mstore\n      dup1\n      swap3\n      swap2\n      swap1\n      dup2\n      dup2\n      mstore\n      0x20\n      add\n      dup3\n      dup1\n      sload\n      tag_58\n      swap1\n      tag_47\n      jump\t// in\n    tag_58:\n      dup1\n      iszero\n      tag_59\n      jumpi\n      dup1\n      0x1f\n      lt\n      tag_60\n      jumpi\n      0x0100\n      dup1\n      dup4\n      sload\n      div\n      mul\n      dup4\n      mstore\n      swap2\n      0x20\n      add\n      swap2\n      jump(tag_59)\n    tag_60:\n      dup3\n      add\n      swap2\n      swap1\n      0x00\n      mstore\n      keccak256(0x00, 0x20)\n      swap1\n    tag_61:\n      dup2\n      sload\n      dup2\n      mstore\n      swap1\n      0x01\n      add\n      swap1\n      0x20\n      add\n      dup1\n      dup4\n      gt\n      tag_61\n      jumpi\n      dup3\n      swap1\n      sub\n      0x1f\n      and\n      dup3\n      add\n      swap2\n    tag_59:\n      pop\n      pop\n      pop\n      pop\n      pop\n      dup2\n      mstore\n      0x20\n      add\n      0x03\n      dup3\n      add\n      0x00\n      swap1\n      sload\n      swap1\n      0x0100\n      exp\n      swap1\n      div\n      0xffffffffffffffffffffffffffffffffffffffff\n      and\n      0xffffffffffffffffffffffffffffffffffffffff\n      and\n      0xffffffffffffffffffffffffffffffffffffffff\n      and\n      dup2\n      mstore\n      0x20\n      add\n      0x04\n      dup3\n      add\n      dup1\n      sload\n      tag_62\n      swap1\n      tag_47\n      jump\t// in\n    tag_62:\n      dup1\n      0x1f\n      add\n      0x20\n      dup1\n      swap2\n      div\n      mul\n      0x20\n      add\n      mload(0x40)\n      swap1\n      dup2\n      add\n      0x40\n      mstore\n      dup1\n      swap3\n      swap2\n      swap1\n      dup2\n      dup2\n      mstore\n      0x20\n      add\n      dup3\n      dup1\n      sload\n      tag_63\n      swap1\n      tag_47\n      jump\t// in\n    tag_63:\n      dup1\n      iszero\n      tag_64\n      jumpi\n      dup1\n      0x1f\n      lt\n      tag_65\n      jumpi\n      0x0100\n      dup1\n      dup4\n      sload\n      div\n      mul\n      dup4\n      mstore\n      swap2\n      0x20\n      add\n      swap2\n      jump(tag_64)\n    tag_65:\n      dup3\n      add\n      swap2\n      swap1\n      0x00\n      mstore\n      keccak256(0x00, 0x20)\n      swap1\n    tag_66:\n      dup2\n      sload\n      dup2\n      mstore\n      swap1\n      0x01\n      add\n      swap1\n      0x20\n      add\n      dup1\n      dup4\n      gt\n      tag_66\n      jumpi\n      dup3\n      swap1\n      sub\n      0x1f\n      and\n      dup3\n      add\n      swap2\n    tag_64:\n      pop\n      pop\n      pop\n      pop\n      pop\n      dup2\n      mstore\n      0x20\n      add\n      0x05\n      dup3\n      add\n      0x00\n      swap1\n      sload\n      swap1\n      0x0100\n      exp\n      swap1\n      div\n      0xff\n      and\n      0x01\n      dup2\n      gt\n      iszero\n      tag_67\n      jumpi\n      tag_68\n      tag_69\n      jump\t// in\n    tag_68:\n    tag_67:\n      0x01\n      dup2\n      gt\n      iszero\n      tag_70\n      jumpi\n      tag_71\n      tag_69\n      jump\t// in\n    tag_71:\n    tag_70:\n      dup2\n      mstore\n      0x20\n      add\n      0x06\n      dup3\n      add\n      sload\n      dup2\n      mstore\n      0x20\n      add\n      0x07\n      dup3\n      add\n      sload\n      dup2\n      mstore\n      pop\n      pop\n      swap1\n      pop\n        /* \"contracts/crofunding/crofunding.sol\":2765:2777  is_open.open */\n      0x00\n        /* \"contracts/crofunding/crofunding.sol\":2752:2777  new_state == is_open.open */\n      0x01\n      dup2\n      gt\n      iszero\n      tag_72\n      jumpi\n      tag_73\n      tag_69\n      jump\t// in\n    tag_73:\n    tag_72:\n        /* \"contracts/crofunding/crofunding.sol\":2752:2761  new_state */\n      dup5\n        /* \"contracts/crofunding/crofunding.sol\":2752:2777  new_state == is_open.open */\n      0x01\n      dup2\n      gt\n      iszero\n      tag_74\n      jumpi\n      tag_75\n      tag_69\n      jump\t// in\n    tag_75:\n    tag_74:\n      eq\n        /* \"contracts/crofunding/crofunding.sol\":2752:2808  new_state == is_open.open || new_state == is_open.closed */\n      dup1\n      tag_76\n      jumpi\n      pop\n        /* \"contracts/crofunding/crofunding.sol\":2794:2808  is_open.closed */\n      0x01\n        /* \"contracts/crofunding/crofunding.sol\":2781:2808  new_state == is_open.closed */\n      dup1\n      dup2\n      gt\n      iszero\n      tag_77\n      jumpi\n      tag_78\n      tag_69\n      jump\t// in\n    tag_78:\n    tag_77:\n        /* \"contracts/crofunding/crofunding.sol\":2781:2790  new_state */\n      dup5\n        /* \"contracts/crofunding/crofunding.sol\":2781:2808  new_state == is_open.closed */\n      0x01\n      dup2\n      gt\n      iszero\n      tag_79\n      jumpi\n      tag_80\n      tag_69\n      jump\t// in\n    tag_80:\n    tag_79:\n      eq\n        /* \"contracts/crofunding/crofunding.sol\":2752:2808  new_state == is_open.open || new_state == is_open.closed */\n    tag_76:\n        /* \"contracts/crofunding/crofunding.sol\":2744:2838  require(new_state == is_open.open || new_state == is_open.closed, \"This state is not defined\") */\n      tag_81\n      jumpi\n      mload(0x40)\n      0x08c379a000000000000000000000000000000000000000000000000000000000\n      dup2\n      mstore\n      0x04\n      add\n      tag_82\n      swap1\n      tag_83\n      jump\t// in\n    tag_82:\n      mload(0x40)\n      dup1\n      swap2\n      sub\n      swap1\n      revert\n    tag_81:\n        /* \"contracts/crofunding/crofunding.sol\":2869:2892  project_to_change_state */\n      dup1\n        /* \"contracts/crofunding/crofunding.sol\":2869:2898  project_to_change_state.state */\n      0xa0\n      add\n      mload\n        /* \"contracts/crofunding/crofunding.sol\":2856:2898  new_state != project_to_change_state.state */\n      0x01\n      dup2\n      gt\n      iszero\n      tag_84\n      jumpi\n      tag_85\n      tag_69\n      jump\t// in\n    tag_85:\n    tag_84:\n        /* \"contracts/crofunding/crofunding.sol\":2856:2865  new_state */\n      dup5\n        /* \"contracts/crofunding/crofunding.sol\":2856:2898  new_state != project_to_change_state.state */\n      0x01\n      dup2\n      gt\n      iszero\n      tag_86\n      jumpi\n      tag_87\n      tag_69\n      jump\t// in\n    tag_87:\n    tag_86:\n      sub\n        /* \"contracts/crofunding/crofunding.sol\":2848:2947  require(new_state != project_to_change_state.state, \"The state that you're trying it's already on\") */\n      tag_88\n      jumpi\n      mload(0x40)\n      0x08c379a000000000000000000000000000000000000000000000000000000000\n      dup2\n      mstore\n      0x04\n      add\n      tag_89\n      swap1\n      tag_90\n      jump\t// in\n    tag_89:\n      mload(0x40)\n      dup1\n      swap2\n      sub\n      swap1\n      revert\n    tag_88:\n        /* \"contracts/crofunding/crofunding.sol\":2998:3007  new_state */\n      dup4\n        /* \"contracts/crofunding/crofunding.sol\":2966:2989  project_to_change_state */\n      dup2\n        /* \"contracts/crofunding/crofunding.sol\":2966:2995  project_to_change_state.state */\n      0xa0\n      add\n        /* \"contracts/crofunding/crofunding.sol\":2966:3007  project_to_change_state.state = new_state */\n      swap1\n      0x01\n      dup2\n      gt\n      iszero\n      tag_91\n      jumpi\n      tag_92\n      tag_69\n      jump\t// in\n    tag_92:\n    tag_91:\n      swap1\n      dup2\n      0x01\n      dup2\n      gt\n      iszero\n      tag_93\n      jumpi\n      tag_94\n      tag_69\n      jump\t// in\n    tag_94:\n    tag_93:\n      dup2\n      mstore\n      pop\n      pop\n        /* \"contracts/crofunding/crofunding.sol\":3042:3054  is_open.open */\n      0x00\n        /* \"contracts/crofunding/crofunding.sol\":3029:3054  new_state == is_open.open */\n      0x01\n      dup2\n      gt\n      iszero\n      tag_95\n      jumpi\n      tag_96\n      tag_69\n      jump\t// in\n    tag_96:\n    tag_95:\n        /* \"contracts/crofunding/crofunding.sol\":3029:3038  new_state */\n      dup5\n        /* \"contracts/crofunding/crofunding.sol\":3029:3054  new_state == is_open.open */\n      0x01\n      dup2\n      gt\n      iszero\n      tag_97\n      jumpi\n      tag_98\n      tag_69\n      jump\t// in\n    tag_98:\n    tag_97:\n      sub\n        /* \"contracts/crofunding/crofunding.sol\":3026:3233  if(new_state == is_open.open){... */\n      tag_99\n      jumpi\n        /* \"contracts/crofunding/crofunding.sol\":3069:3114  project_to_change_state.string_state = \"Open\" */\n      mload(0x40)\n      dup1\n      0x40\n      add\n      0x40\n      mstore\n      dup1\n      0x04\n      dup2\n      mstore\n      0x20\n      add\n      0x4f70656e00000000000000000000000000000000000000000000000000000000\n      dup2\n      mstore\n      pop\n        /* \"contracts/crofunding/crofunding.sol\":3069:3092  project_to_change_state */\n      dup2\n        /* \"contracts/crofunding/crofunding.sol\":3069:3105  project_to_change_state.string_state */\n      0x80\n      add\n        /* \"contracts/crofunding/crofunding.sol\":3069:3114  project_to_change_state.string_state = \"Open\" */\n      dup2\n      swap1\n      mstore\n      pop\n        /* \"contracts/crofunding/crofunding.sol\":3026:3233  if(new_state == is_open.open){... */\n      jump(tag_100)\n    tag_99:\n        /* \"contracts/crofunding/crofunding.sol\":3146:3160  is_open.closed */\n      0x01\n        /* \"contracts/crofunding/crofunding.sol\":3133:3160  new_state == is_open.closed */\n      dup1\n      dup2\n      gt\n      iszero\n      tag_101\n      jumpi\n      tag_102\n      tag_69\n      jump\t// in\n    tag_102:\n    tag_101:\n        /* \"contracts/crofunding/crofunding.sol\":3133:3142  new_state */\n      dup5\n        /* \"contracts/crofunding/crofunding.sol\":3133:3160  new_state == is_open.closed */\n      0x01\n      dup2\n      gt\n      iszero\n      tag_103\n      jumpi\n      tag_104\n      tag_69\n      jump\t// in\n    tag_104:\n    tag_103:\n      sub\n        /* \"contracts/crofunding/crofunding.sol\":3130:3233  if(new_state == is_open.closed){... */\n      tag_105\n      jumpi\n        /* \"contracts/crofunding/crofunding.sol\":3175:3222  project_to_change_state.string_state = \"Closed\" */\n      mload(0x40)\n      dup1\n      0x40\n      add\n      0x40\n      mstore\n      dup1\n      0x06\n      dup2\n      mstore\n      0x20\n      add\n      0x436c6f7365640000000000000000000000000000000000000000000000000000\n      dup2\n      mstore\n      pop\n        /* \"contracts/crofunding/crofunding.sol\":3175:3198  project_to_change_state */\n      dup2\n        /* \"contracts/crofunding/crofunding.sol\":3175:3211  project_to_change_state.string_state */\n      0x80\n      add\n        /* \"contracts/crofunding/crofunding.sol\":3175:3222  project_to_change_state.string_state = \"Closed\" */\n      dup2\n      swap1\n      mstore\n      pop\n        /* \"contracts/crofunding/crofunding.sol\":3130:3233  if(new_state == is_open.closed){... */\n    tag_105:\n        /* \"contracts/crofunding/crofunding.sol\":3026:3233  if(new_state == is_open.open){... */\n    tag_100:\n        /* \"contracts/crofunding/crofunding.sol\":3273:3296  project_to_change_state */\n      dup1\n        /* \"contracts/crofunding/crofunding.sol\":3243:3255  new_projects */\n      0x00\n        /* \"contracts/crofunding/crofunding.sol\":3256:3269  project_index */\n      dup5\n        /* \"contracts/crofunding/crofunding.sol\":3243:3270  new_projects[project_index] */\n      dup2\n      sload\n      dup2\n      lt\n      tag_106\n      jumpi\n      tag_107\n      tag_37\n      jump\t// in\n    tag_107:\n    tag_106:\n      swap1\n      0x00\n      mstore\n      keccak256(0x00, 0x20)\n      swap1\n      0x08\n      mul\n      add\n        /* \"contracts/crofunding/crofunding.sol\":3243:3296  new_projects[project_index] = project_to_change_state */\n      0x00\n      dup3\n      add\n      mload\n      dup2\n      0x00\n      add\n      swap1\n      dup2\n      tag_109\n      swap2\n      swap1\n      tag_110\n      jump\t// in\n    tag_109:\n      pop\n      0x20\n      dup3\n      add\n      mload\n      dup2\n      0x01\n      add\n      swap1\n      dup2\n      tag_111\n      swap2\n      swap1\n      tag_110\n      jump\t// in\n    tag_111:\n      pop\n      0x40\n      dup3\n      add\n      mload\n      dup2\n      0x02\n      add\n      swap1\n      dup2\n      tag_112\n      swap2\n      swap1\n      tag_110\n      jump\t// in\n    tag_112:\n      pop\n      0x60\n      dup3\n      add\n      mload\n      dup2\n      0x03\n      add\n      exp(0x0100, 0x00)\n      dup2\n      sload\n      dup2\n      0xffffffffffffffffffffffffffffffffffffffff\n      mul\n      not\n      and\n      swap1\n      dup4\n      0xffffffffffffffffffffffffffffffffffffffff\n      and\n      mul\n      or\n      swap1\n      sstore\n      pop\n      0x80\n      dup3\n      add\n      mload\n      dup2\n      0x04\n      add\n      swap1\n      dup2\n      tag_113\n      swap2\n      swap1\n      tag_110\n      jump\t// in\n    tag_113:\n      pop\n      0xa0\n      dup3\n      add\n      mload\n      dup2\n      0x05\n      add\n      exp(0x0100, 0x00)\n      dup2\n      sload\n      dup2\n      0xff\n      mul\n      not\n      and\n      swap1\n      dup4\n      0x01\n      dup2\n      gt\n      iszero\n      tag_114\n      jumpi\n      tag_115\n      tag_69\n      jump\t// in\n    tag_115:\n    tag_114:\n      mul\n      or\n      swap1\n      sstore\n      pop\n      0xc0\n      dup3\n      add\n      mload\n      dup2\n      0x06\n      add\n      sstore\n      0xe0\n      dup3\n      add\n      mload\n      dup2\n      0x07\n      add\n      sstore\n      swap1\n      pop\n      pop\n        /* \"contracts/crofunding/crofunding.sol\":3312:3391  project_state(project_to_change_state.string_state, project_to_change_state.id) */\n      0x601279cddc513528cd2f6a4f26dc5031c828e8e5ca18a8b0b88d82eff072021a\n        /* \"contracts/crofunding/crofunding.sol\":3326:3349  project_to_change_state */\n      dup2\n        /* \"contracts/crofunding/crofunding.sol\":3326:3362  project_to_change_state.string_state */\n      0x80\n      add\n      mload\n        /* \"contracts/crofunding/crofunding.sol\":3364:3387  project_to_change_state */\n      dup3\n        /* \"contracts/crofunding/crofunding.sol\":3364:3390  project_to_change_state.id */\n      0x00\n      add\n      mload\n        /* \"contracts/crofunding/crofunding.sol\":3312:3391  project_state(project_to_change_state.string_state, project_to_change_state.id) */\n      mload(0x40)\n      tag_116\n      swap3\n      swap2\n      swap1\n      tag_117\n      jump\t// in\n    tag_116:\n      mload(0x40)\n      dup1\n      swap2\n      sub\n      swap1\n      log1\n        /* \"contracts/crofunding/crofunding.sol\":2656:3398  {... */\n      pop\n        /* \"contracts/crofunding/crofunding.sol\":2553:3398  function change_project_state(is_open new_state, uint project_index) public only_author(project_index) {... */\n      pop\n      pop\n      pop\n      jump\t// out\n        /* \"contracts/crofunding/crofunding.sol\":1306:1812  function create_project(string calldata id, string calldata name, string calldata description, uint funds_reising_goal, string calldata string_state) public {... */\n    tag_16:\n        /* \"contracts/crofunding/crofunding.sol\":1502:1503  0 */\n      0x00\n        /* \"contracts/crofunding/crofunding.sol\":1481:1499  funds_reising_goal */\n      dup4\n        /* \"contracts/crofunding/crofunding.sol\":1481:1503  funds_reising_goal > 0 */\n      gt\n        /* \"contracts/crofunding/crofunding.sol\":1473:1547  require(funds_reising_goal > 0, \"Fundraising goal must be greater than 0\") */\n      tag_119\n      jumpi\n      mload(0x40)\n      0x08c379a000000000000000000000000000000000000000000000000000000000\n      dup2\n      mstore\n      0x04\n      add\n      tag_120\n      swap1\n      tag_121\n      jump\t// in\n    tag_120:\n      mload(0x40)\n      dup1\n      swap2\n      sub\n      swap1\n      revert\n    tag_119:\n        /* \"contracts/crofunding/crofunding.sol\":1557:1583  project memory new_project */\n      0x00\n        /* \"contracts/crofunding/crofunding.sol\":1586:1688  project(id, name, description, payable(msg.sender), string_state, is_open.open, 0, funds_reising_goal) */\n      mload(0x40)\n      dup1\n      0x0100\n      add\n      0x40\n      mstore\n      dup1\n        /* \"contracts/crofunding/crofunding.sol\":1594:1596  id */\n      dup12\n      dup12\n        /* \"contracts/crofunding/crofunding.sol\":1586:1688  project(id, name, description, payable(msg.sender), string_state, is_open.open, 0, funds_reising_goal) */\n      dup1\n      dup1\n      0x1f\n      add\n      0x20\n      dup1\n      swap2\n      div\n      mul\n      0x20\n      add\n      mload(0x40)\n      swap1\n      dup2\n      add\n      0x40\n      mstore\n      dup1\n      swap4\n      swap3\n      swap2\n      swap1\n      dup2\n      dup2\n      mstore\n      0x20\n      add\n      dup4\n      dup4\n      dup1\n      dup3\n      dup5\n      calldatacopy\n      0x00\n      dup2\n      dup5\n      add\n      mstore\n      not(0x1f)\n      0x1f\n      dup3\n      add\n      and\n      swap1\n      pop\n      dup1\n      dup4\n      add\n      swap3\n      pop\n      pop\n      pop\n      pop\n      pop\n      pop\n      pop\n      dup2\n      mstore\n      0x20\n      add\n        /* \"contracts/crofunding/crofunding.sol\":1598:1602  name */\n      dup10\n      dup10\n        /* \"contracts/crofunding/crofunding.sol\":1586:1688  project(id, name, description, payable(msg.sender), string_state, is_open.open, 0, funds_reising_goal) */\n      dup1\n      dup1\n      0x1f\n      add\n      0x20\n      dup1\n      swap2\n      div\n      mul\n      0x20\n      add\n      mload(0x40)\n      swap1\n      dup2\n      add\n      0x40\n      mstore\n      dup1\n      swap4\n      swap3\n      swap2\n      swap1\n      dup2\n      dup2\n      mstore\n      0x20\n      add\n      dup4\n      dup4\n      dup1\n      dup3\n      dup5\n      calldatacopy\n      0x00\n      dup2\n      dup5\n      add\n      mstore\n      not(0x1f)\n      0x1f\n      dup3\n      add\n      and\n      swap1\n      pop\n      dup1\n      dup4\n      add\n      swap3\n      pop\n      pop\n      pop\n      pop\n      pop\n      pop\n      pop\n      dup2\n      mstore\n      0x20\n      add\n        /* \"contracts/crofunding/crofunding.sol\":1604:1615  description */\n      dup8\n      dup8\n        /* \"contracts/crofunding/crofunding.sol\":1586:1688  project(id, name, description, payable(msg.sender), string_state, is_open.open, 0, funds_reising_goal) */\n      dup1\n      dup1\n      0x1f\n      add\n      0x20\n      dup1\n      swap2\n      div\n      mul\n      0x20\n      add\n      mload(0x40)\n      swap1\n      dup2\n      add\n      0x40\n      mstore\n      dup1\n      swap4\n      swap3\n      swap2\n      swap1\n      dup2\n      dup2\n      mstore\n      0x20\n      add\n      dup4\n      dup4\n      dup1\n      dup3\n      dup5\n      calldatacopy\n      0x00\n      dup2\n      dup5\n      add\n      mstore\n      not(0x1f)\n      0x1f\n      dup3\n      add\n      and\n      swap1\n      pop\n      dup1\n      dup4\n      add\n      swap3\n      pop\n      pop\n      pop\n      pop\n      pop\n      pop\n      pop\n      dup2\n      mstore\n      0x20\n      add\n        /* \"contracts/crofunding/crofunding.sol\":1625:1635  msg.sender */\n      caller\n        /* \"contracts/crofunding/crofunding.sol\":1586:1688  project(id, name, description, payable(msg.sender), string_state, is_open.open, 0, funds_reising_goal) */\n      0xffffffffffffffffffffffffffffffffffffffff\n      and\n      dup2\n      mstore\n      0x20\n      add\n        /* \"contracts/crofunding/crofunding.sol\":1638:1650  string_state */\n      dup5\n      dup5\n        /* \"contracts/crofunding/crofunding.sol\":1586:1688  project(id, name, description, payable(msg.sender), string_state, is_open.open, 0, funds_reising_goal) */\n      dup1\n      dup1\n      0x1f\n      add\n      0x20\n      dup1\n      swap2\n      div\n      mul\n      0x20\n      add\n      mload(0x40)\n      swap1\n      dup2\n      add\n      0x40\n      mstore\n      dup1\n      swap4\n      swap3\n      swap2\n      swap1\n      dup2\n      dup2\n      mstore\n      0x20\n      add\n      dup4\n      dup4\n      dup1\n      dup3\n      dup5\n      calldatacopy\n      0x00\n      dup2\n      dup5\n      add\n      mstore\n      not(0x1f)\n      0x1f\n      dup3\n      add\n      and\n      swap1\n      pop\n      dup1\n      dup4\n      add\n      swap3\n      pop\n      pop\n      pop\n      pop\n      pop\n      pop\n      pop\n      dup2\n      mstore\n      0x20\n      add\n        /* \"contracts/crofunding/crofunding.sol\":1652:1664  is_open.open */\n      0x00\n        /* \"contracts/crofunding/crofunding.sol\":1586:1688  project(id, name, description, payable(msg.sender), string_state, is_open.open, 0, funds_reising_goal) */\n      0x01\n      dup2\n      gt\n      iszero\n      tag_122\n      jumpi\n      tag_123\n      tag_69\n      jump\t// in\n    tag_123:\n    tag_122:\n      dup2\n      mstore\n      0x20\n      add\n        /* \"contracts/crofunding/crofunding.sol\":1666:1667  0 */\n      0x00\n        /* \"contracts/crofunding/crofunding.sol\":1586:1688  project(id, name, description, payable(msg.sender), string_state, is_open.open, 0, funds_reising_goal) */\n      dup2\n      mstore\n      0x20\n      add\n        /* \"contracts/crofunding/crofunding.sol\":1669:1687  funds_reising_goal */\n      dup6\n        /* \"contracts/crofunding/crofunding.sol\":1586:1688  project(id, name, description, payable(msg.sender), string_state, is_open.open, 0, funds_reising_goal) */\n      dup2\n      mstore\n      pop\n        /* \"contracts/crofunding/crofunding.sol\":1557:1688  project memory new_project = project(id, name, description, payable(msg.sender), string_state, is_open.open, 0, funds_reising_goal) */\n      swap1\n      pop\n        /* \"contracts/crofunding/crofunding.sol\":1698:1710  new_projects */\n      0x00\n        /* \"contracts/crofunding/crofunding.sol\":1716:1727  new_project */\n      dup2\n        /* \"contracts/crofunding/crofunding.sol\":1698:1728  new_projects.push(new_project) */\n      swap1\n      dup1\n      0x01\n      dup2\n      sload\n      add\n      dup1\n      dup3\n      sstore\n      dup1\n      swap2\n      pop\n      pop\n      0x01\n      swap1\n      sub\n      swap1\n      0x00\n      mstore\n      keccak256(0x00, 0x20)\n      swap1\n      0x08\n      mul\n      add\n      0x00\n      swap1\n      swap2\n      swap1\n      swap2\n      swap1\n      swap2\n      pop\n      0x00\n      dup3\n      add\n      mload\n      dup2\n      0x00\n      add\n      swap1\n      dup2\n      tag_125\n      swap2\n      swap1\n      tag_110\n      jump\t// in\n    tag_125:\n      pop\n      0x20\n      dup3\n      add\n      mload\n      dup2\n      0x01\n      add\n      swap1\n      dup2\n      tag_126\n      swap2\n      swap1\n      tag_110\n      jump\t// in\n    tag_126:\n      pop\n      0x40\n      dup3\n      add\n      mload\n      dup2\n      0x02\n      add\n      swap1\n      dup2\n      tag_127\n      swap2\n      swap1\n      tag_110\n      jump\t// in\n    tag_127:\n      pop\n      0x60\n      dup3\n      add\n      mload\n      dup2\n      0x03\n      add\n      exp(0x0100, 0x00)\n      dup2\n      sload\n      dup2\n      0xffffffffffffffffffffffffffffffffffffffff\n      mul\n      not\n      and\n      swap1\n      dup4\n      0xffffffffffffffffffffffffffffffffffffffff\n      and\n      mul\n      or\n      swap1\n      sstore\n      pop\n      0x80\n      dup3\n      add\n      mload\n      dup2\n      0x04\n      add\n      swap1\n      dup2\n      tag_128\n      swap2\n      swap1\n      tag_110\n      jump\t// in\n    tag_128:\n      pop\n      0xa0\n      dup3\n      add\n      mload\n      dup2\n      0x05\n      add\n      exp(0x0100, 0x00)\n      dup2\n      sload\n      dup2\n      0xff\n      mul\n      not\n      and\n      swap1\n      dup4\n      0x01\n      dup2\n      gt\n      iszero\n      tag_129\n      jumpi\n      tag_130\n      tag_69\n      jump\t// in\n    tag_130:\n    tag_129:\n      mul\n      or\n      swap1\n      sstore\n      pop\n      0xc0\n      dup3\n      add\n      mload\n      dup2\n      0x06\n      add\n      sstore\n      0xe0\n      dup3\n      add\n      mload\n      dup2\n      0x07\n      add\n      sstore\n      pop\n      pop\n        /* \"contracts/crofunding/crofunding.sol\":1743:1805  new_project_created(id, name, description, funds_reising_goal) */\n      0x6d9389e0a378f2609e81065a3e8ccf0da969d91f0799e9b332372e54d8dd1e98\n        /* \"contracts/crofunding/crofunding.sol\":1763:1765  id */\n      dup11\n      dup11\n        /* \"contracts/crofunding/crofunding.sol\":1767:1771  name */\n      dup11\n      dup11\n        /* \"contracts/crofunding/crofunding.sol\":1773:1784  description */\n      dup11\n      dup11\n        /* \"contracts/crofunding/crofunding.sol\":1786:1804  funds_reising_goal */\n      dup11\n        /* \"contracts/crofunding/crofunding.sol\":1743:1805  new_project_created(id, name, description, funds_reising_goal) */\n      mload(0x40)\n      tag_131\n      swap8\n      swap7\n      swap6\n      swap5\n      swap4\n      swap3\n      swap2\n      swap1\n      tag_132\n      jump\t// in\n    tag_131:\n      mload(0x40)\n      dup1\n      swap2\n      sub\n      swap1\n      log1\n        /* \"contracts/crofunding/crofunding.sol\":1463:1812  {... */\n      pop\n        /* \"contracts/crofunding/crofunding.sol\":1306:1812  function create_project(string calldata id, string calldata name, string calldata description, uint funds_reising_goal, string calldata string_state) public {... */\n      pop\n      pop\n      pop\n      pop\n      pop\n      pop\n      pop\n      pop\n      pop\n      jump\t// out\n        /* \"contracts/crofunding/crofunding.sol\":487:542  mapping( string => contribution[]) public contributions */\n    tag_21:\n      0x01\n      dup3\n      dup1\n      mload\n      0x20\n      dup2\n      add\n      dup3\n      add\n      dup1\n      mload\n      dup5\n      dup3\n      mstore\n      0x20\n      dup4\n      add\n      0x20\n      dup6\n      add\n      keccak256\n      dup2\n      dup4\n      mstore\n      dup1\n      swap6\n      pop\n      pop\n      pop\n      pop\n      pop\n      pop\n      dup2\n      dup2\n      sload\n      dup2\n      lt\n      tag_133\n      jumpi\n      0x00\n      dup1\n      revert\n    tag_133:\n      swap1\n      0x00\n      mstore\n      keccak256(0x00, 0x20)\n      swap1\n      0x02\n      mul\n      add\n      0x00\n      swap2\n      pop\n      swap2\n      pop\n      pop\n      dup1\n      0x00\n      add\n      0x00\n      swap1\n      sload\n      swap1\n      0x0100\n      exp\n      swap1\n      div\n      0xffffffffffffffffffffffffffffffffffffffff\n      and\n      swap1\n      dup1\n      0x01\n      add\n      sload\n      swap1\n      pop\n      dup3\n      jump\t// out\n        /* \"contracts/crofunding/crofunding.sol\":1821:2547  function fund_project( uint project_index) public payable author_cant_fund(project_index) {... */\n    tag_27:\n        /* \"contracts/crofunding/crofunding.sol\":1896:1909  project_index */\n      dup1\n        /* \"contracts/crofunding/crofunding.sol\":1204:1214  msg.sender */\n      caller\n        /* \"contracts/crofunding/crofunding.sol\":1166:1214  new_projects[project_index].author != msg.sender */\n      0xffffffffffffffffffffffffffffffffffffffff\n      and\n        /* \"contracts/crofunding/crofunding.sol\":1166:1178  new_projects */\n      0x00\n        /* \"contracts/crofunding/crofunding.sol\":1179:1192  project_index */\n      dup3\n        /* \"contracts/crofunding/crofunding.sol\":1166:1193  new_projects[project_index] */\n      dup2\n      sload\n      dup2\n      lt\n      tag_136\n      jumpi\n      tag_137\n      tag_37\n      jump\t// in\n    tag_137:\n    tag_136:\n      swap1\n      0x00\n      mstore\n      keccak256(0x00, 0x20)\n      swap1\n      0x08\n      mul\n      add\n        /* \"contracts/crofunding/crofunding.sol\":1166:1200  new_projects[project_index].author */\n      0x03\n      add\n      0x00\n      swap1\n      sload\n      swap1\n      0x0100\n      exp\n      swap1\n      div\n      0xffffffffffffffffffffffffffffffffffffffff\n      and\n        /* \"contracts/crofunding/crofunding.sol\":1166:1214  new_projects[project_index].author != msg.sender */\n      0xffffffffffffffffffffffffffffffffffffffff\n      and\n      sub\n        /* \"contracts/crofunding/crofunding.sol\":1145:1282  require(... */\n      tag_139\n      jumpi\n      mload(0x40)\n      0x08c379a000000000000000000000000000000000000000000000000000000000\n      dup2\n      mstore\n      0x04\n      add\n      tag_140\n      swap1\n      tag_141\n      jump\t// in\n    tag_140:\n      mload(0x40)\n      dup1\n      swap2\n      sub\n      swap1\n      revert\n    tag_139:\n        /* \"contracts/crofunding/crofunding.sol\":1921:1951  project memory proyect_to_fund */\n      0x00\n        /* \"contracts/crofunding/crofunding.sol\":1954:1966  new_projects */\n      dup1\n        /* \"contracts/crofunding/crofunding.sol\":1967:1980  project_index */\n      dup4\n        /* \"contracts/crofunding/crofunding.sol\":1954:1981  new_projects[project_index] */\n      dup2\n      sload\n      dup2\n      lt\n      tag_143\n      jumpi\n      tag_144\n      tag_37\n      jump\t// in\n    tag_144:\n    tag_143:\n      swap1\n      0x00\n      mstore\n      keccak256(0x00, 0x20)\n      swap1\n      0x08\n      mul\n      add\n        /* \"contracts/crofunding/crofunding.sol\":1921:1981  project memory proyect_to_fund = new_projects[project_index] */\n      mload(0x40)\n      dup1\n      0x0100\n      add\n      0x40\n      mstore\n      swap1\n      dup2\n      0x00\n      dup3\n      add\n      dup1\n      sload\n      tag_146\n      swap1\n      tag_47\n      jump\t// in\n    tag_146:\n      dup1\n      0x1f\n      add\n      0x20\n      dup1\n      swap2\n      div\n      mul\n      0x20\n      add\n      mload(0x40)\n      swap1\n      dup2\n      add\n      0x40\n      mstore\n      dup1\n      swap3\n      swap2\n      swap1\n      dup2\n      dup2\n      mstore\n      0x20\n      add\n      dup3\n      dup1\n      sload\n      tag_147\n      swap1\n      tag_47\n      jump\t// in\n    tag_147:\n      dup1\n      iszero\n      tag_148\n      jumpi\n      dup1\n      0x1f\n      lt\n      tag_149\n      jumpi\n      0x0100\n      dup1\n      dup4\n      sload\n      div\n      mul\n      dup4\n      mstore\n      swap2\n      0x20\n      add\n      swap2\n      jump(tag_148)\n    tag_149:\n      dup3\n      add\n      swap2\n      swap1\n      0x00\n      mstore\n      keccak256(0x00, 0x20)\n      swap1\n    tag_150:\n      dup2\n      sload\n      dup2\n      mstore\n      swap1\n      0x01\n      add\n      swap1\n      0x20\n      add\n      dup1\n      dup4\n      gt\n      tag_150\n      jumpi\n      dup3\n      swap1\n      sub\n      0x1f\n      and\n      dup3\n      add\n      swap2\n    tag_148:\n      pop\n      pop\n      pop\n      pop\n      pop\n      dup2\n      mstore\n      0x20\n      add\n      0x01\n      dup3\n      add\n      dup1\n      sload\n      tag_151\n      swap1\n      tag_47\n      jump\t// in\n    tag_151:\n      dup1\n      0x1f\n      add\n      0x20\n      dup1\n      swap2\n      div\n      mul\n      0x20\n      add\n      mload(0x40)\n      swap1\n      dup2\n      add\n      0x40\n      mstore\n      dup1\n      swap3\n      swap2\n      swap1\n      dup2\n      dup2\n      mstore\n      0x20\n      add\n      dup3\n      dup1\n      sload\n      tag_152\n      swap1\n      tag_47\n      jump\t// in\n    tag_152:\n      dup1\n      iszero\n      tag_153\n      jumpi\n      dup1\n      0x1f\n      lt\n      tag_154\n      jumpi\n      0x0100\n      dup1\n      dup4\n      sload\n      div\n      mul\n      dup4\n      mstore\n      swap2\n      0x20\n      add\n      swap2\n      jump(tag_153)\n    tag_154:\n      dup3\n      add\n      swap2\n      swap1\n      0x00\n      mstore\n      keccak256(0x00, 0x20)\n      swap1\n    tag_155:\n      dup2\n      sload\n      dup2\n      mstore\n      swap1\n      0x01\n      add\n      swap1\n      0x20\n      add\n      dup1\n      dup4\n      gt\n      tag_155\n      jumpi\n      dup3\n      swap1\n      sub\n      0x1f\n      and\n      dup3\n      add\n      swap2\n    tag_153:\n      pop\n      pop\n      pop\n      pop\n      pop\n      dup2\n      mstore\n      0x20\n      add\n      0x02\n      dup3\n      add\n      dup1\n      sload\n      tag_156\n      swap1\n      tag_47\n      jump\t// in\n    tag_156:\n      dup1\n      0x1f\n      add\n      0x20\n      dup1\n      swap2\n      div\n      mul\n      0x20\n      add\n      mload(0x40)\n      swap1\n      dup2\n      add\n      0x40\n      mstore\n      dup1\n      swap3\n      swap2\n      swap1\n      dup2\n      dup2\n      mstore\n      0x20\n      add\n      dup3\n      dup1\n      sload\n      tag_157\n      swap1\n      tag_47\n      jump\t// in\n    tag_157:\n      dup1\n      iszero\n      tag_158\n      jumpi\n      dup1\n      0x1f\n      lt\n      tag_159\n      jumpi\n      0x0100\n      dup1\n      dup4\n      sload\n      div\n      mul\n      dup4\n      mstore\n      swap2\n      0x20\n      add\n      swap2\n      jump(tag_158)\n    tag_159:\n      dup3\n      add\n      swap2\n      swap1\n      0x00\n      mstore\n      keccak256(0x00, 0x20)\n      swap1\n    tag_160:\n      dup2\n      sload\n      dup2\n      mstore\n      swap1\n      0x01\n      add\n      swap1\n      0x20\n      add\n      dup1\n      dup4\n      gt\n      tag_160\n      jumpi\n      dup3\n      swap1\n      sub\n      0x1f\n      and\n      dup3\n      add\n      swap2\n    tag_158:\n      pop\n      pop\n      pop\n      pop\n      pop\n      dup2\n      mstore\n      0x20\n      add\n      0x03\n      dup3\n      add\n      0x00\n      swap1\n      sload\n      swap1\n      0x0100\n      exp\n      swap1\n      div\n      0xffffffffffffffffffffffffffffffffffffffff\n      and\n      0xffffffffffffffffffffffffffffffffffffffff\n      and\n      0xffffffffffffffffffffffffffffffffffffffff\n      and\n      dup2\n      mstore\n      0x20\n      add\n      0x04\n      dup3\n      add\n      dup1\n      sload\n      tag_161\n      swap1\n      tag_47\n      jump\t// in\n    tag_161:\n      dup1\n      0x1f\n      add\n      0x20\n      dup1\n      swap2\n      div\n      mul\n      0x20\n      add\n      mload(0x40)\n      swap1\n      dup2\n      add\n      0x40\n      mstore\n      dup1\n      swap3\n      swap2\n      swap1\n      dup2\n      dup2\n      mstore\n      0x20\n      add\n      dup3\n      dup1\n      sload\n      tag_162\n      swap1\n      tag_47\n      jump\t// in\n    tag_162:\n      dup1\n      iszero\n      tag_163\n      jumpi\n      dup1\n      0x1f\n      lt\n      tag_164\n      jumpi\n      0x0100\n      dup1\n      dup4\n      sload\n      div\n      mul\n      dup4\n      mstore\n      swap2\n      0x20\n      add\n      swap2\n      jump(tag_163)\n    tag_164:\n      dup3\n      add\n      swap2\n      swap1\n      0x00\n      mstore\n      keccak256(0x00, 0x20)\n      swap1\n    tag_165:\n      dup2\n      sload\n      dup2\n      mstore\n      swap1\n      0x01\n      add\n      swap1\n      0x20\n      add\n      dup1\n      dup4\n      gt\n      tag_165\n      jumpi\n      dup3\n      swap1\n      sub\n      0x1f\n      and\n      dup3\n      add\n      swap2\n    tag_163:\n      pop\n      pop\n      pop\n      pop\n      pop\n      dup2\n      mstore\n      0x20\n      add\n      0x05\n      dup3\n      add\n      0x00\n      swap1\n      sload\n      swap1\n      0x0100\n      exp\n      swap1\n      div\n      0xff\n      and\n      0x01\n      dup2\n      gt\n      iszero\n      tag_166\n      jumpi\n      tag_167\n      tag_69\n      jump\t// in\n    tag_167:\n    tag_166:\n      0x01\n      dup2\n      gt\n      iszero\n      tag_168\n      jumpi\n      tag_169\n      tag_69\n      jump\t// in\n    tag_169:\n    tag_168:\n      dup2\n      mstore\n      0x20\n      add\n      0x06\n      dup3\n      add\n      sload\n      dup2\n      mstore\n      0x20\n      add\n      0x07\n      dup3\n      add\n      sload\n      dup2\n      mstore\n      pop\n      pop\n      swap1\n      pop\n        /* \"contracts/crofunding/crofunding.sol\":2024:2036  is_open.open */\n      0x00\n        /* \"contracts/crofunding/crofunding.sol\":1999:2036  proyect_to_fund.state == is_open.open */\n      0x01\n      dup2\n      gt\n      iszero\n      tag_170\n      jumpi\n      tag_171\n      tag_69\n      jump\t// in\n    tag_171:\n    tag_170:\n        /* \"contracts/crofunding/crofunding.sol\":1999:2014  proyect_to_fund */\n      dup2\n        /* \"contracts/crofunding/crofunding.sol\":1999:2020  proyect_to_fund.state */\n      0xa0\n      add\n      mload\n        /* \"contracts/crofunding/crofunding.sol\":1999:2036  proyect_to_fund.state == is_open.open */\n      0x01\n      dup2\n      gt\n      iszero\n      tag_172\n      jumpi\n      tag_173\n      tag_69\n      jump\t// in\n    tag_173:\n    tag_172:\n      eq\n        /* \"contracts/crofunding/crofunding.sol\":1991:2093  require(proyect_to_fund.state == is_open.open, \"thanks you for trusting us but we closed the proyect\") */\n      tag_174\n      jumpi\n      mload(0x40)\n      0x08c379a000000000000000000000000000000000000000000000000000000000\n      dup2\n      mstore\n      0x04\n      add\n      tag_175\n      swap1\n      tag_176\n      jump\t// in\n    tag_175:\n      mload(0x40)\n      dup1\n      swap2\n      sub\n      swap1\n      revert\n    tag_174:\n        /* \"contracts/crofunding/crofunding.sol\":2123:2124  0 */\n      0x00\n        /* \"contracts/crofunding/crofunding.sol\":2111:2120  msg.value */\n      callvalue\n        /* \"contracts/crofunding/crofunding.sol\":2111:2124  msg.value > 0 */\n      gt\n        /* \"contracts/crofunding/crofunding.sol\":2103:2149  require(msg.value > 0, \"You can't transfer 0\") */\n      tag_177\n      jumpi\n      mload(0x40)\n      0x08c379a000000000000000000000000000000000000000000000000000000000\n      dup2\n      mstore\n      0x04\n      add\n      tag_178\n      swap1\n      tag_179\n      jump\t// in\n    tag_178:\n      mload(0x40)\n      dup1\n      swap2\n      sub\n      swap1\n      revert\n    tag_177:\n        /* \"contracts/crofunding/crofunding.sol\":2159:2174  proyect_to_fund */\n      dup1\n        /* \"contracts/crofunding/crofunding.sol\":2159:2181  proyect_to_fund.author */\n      0x60\n      add\n      mload\n        /* \"contracts/crofunding/crofunding.sol\":2159:2190  proyect_to_fund.author.transfer */\n      0xffffffffffffffffffffffffffffffffffffffff\n      and\n        /* \"contracts/crofunding/crofunding.sol\":2159:2201  proyect_to_fund.author.transfer(msg.value) */\n      0x08fc\n        /* \"contracts/crofunding/crofunding.sol\":2191:2200  msg.value */\n      callvalue\n        /* \"contracts/crofunding/crofunding.sol\":2159:2201  proyect_to_fund.author.transfer(msg.value) */\n      swap1\n      dup2\n      iszero\n      mul\n      swap1\n      mload(0x40)\n      0x00\n      mload(0x40)\n      dup1\n      dup4\n      sub\n      dup2\n      dup6\n      dup9\n      dup9\n      call\n      swap4\n      pop\n      pop\n      pop\n      pop\n      iszero\n      dup1\n      iszero\n      tag_181\n      jumpi\n      returndatasize\n      0x00\n      dup1\n      returndatacopy\n      revert(0x00, returndatasize)\n    tag_181:\n      pop\n        /* \"contracts/crofunding/crofunding.sol\":2236:2245  msg.value */\n      callvalue\n        /* \"contracts/crofunding/crofunding.sol\":2211:2226  proyect_to_fund */\n      dup2\n        /* \"contracts/crofunding/crofunding.sol\":2211:2232  proyect_to_fund.funds */\n      0xc0\n      add\n        /* \"contracts/crofunding/crofunding.sol\":2211:2245  proyect_to_fund.funds += msg.value */\n      dup2\n      dup2\n      mload\n      tag_182\n      swap2\n      swap1\n      tag_183\n      jump\t// in\n    tag_182:\n      swap2\n      pop\n      dup2\n      dup2\n      mstore\n      pop\n      pop\n        /* \"contracts/crofunding/crofunding.sol\":2285:2300  proyect_to_fund */\n      dup1\n        /* \"contracts/crofunding/crofunding.sol\":2255:2267  new_projects */\n      0x00\n        /* \"contracts/crofunding/crofunding.sol\":2268:2281  project_index */\n      dup5\n        /* \"contracts/crofunding/crofunding.sol\":2255:2282  new_projects[project_index] */\n      dup2\n      sload\n      dup2\n      lt\n      tag_184\n      jumpi\n      tag_185\n      tag_37\n      jump\t// in\n    tag_185:\n    tag_184:\n      swap1\n      0x00\n      mstore\n      keccak256(0x00, 0x20)\n      swap1\n      0x08\n      mul\n      add\n        /* \"contracts/crofunding/crofunding.sol\":2255:2300  new_projects[project_index] = proyect_to_fund */\n      0x00\n      dup3\n      add\n      mload\n      dup2\n      0x00\n      add\n      swap1\n      dup2\n      tag_187\n      swap2\n      swap1\n      tag_110\n      jump\t// in\n    tag_187:\n      pop\n      0x20\n      dup3\n      add\n      mload\n      dup2\n      0x01\n      add\n      swap1\n      dup2\n      tag_188\n      swap2\n      swap1\n      tag_110\n      jump\t// in\n    tag_188:\n      pop\n      0x40\n      dup3\n      add\n      mload\n      dup2\n      0x02\n      add\n      swap1\n      dup2\n      tag_189\n      swap2\n      swap1\n      tag_110\n      jump\t// in\n    tag_189:\n      pop\n      0x60\n      dup3\n      add\n      mload\n      dup2\n      0x03\n      add\n      exp(0x0100, 0x00)\n      dup2\n      sload\n      dup2\n      0xffffffffffffffffffffffffffffffffffffffff\n      mul\n      not\n      and\n      swap1\n      dup4\n      0xffffffffffffffffffffffffffffffffffffffff\n      and\n      mul\n      or\n      swap1\n      sstore\n      pop\n      0x80\n      dup3\n      add\n      mload\n      dup2\n      0x04\n      add\n      swap1\n      dup2\n      tag_190\n      swap2\n      swap1\n      tag_110\n      jump\t// in\n    tag_190:\n      pop\n      0xa0\n      dup3\n      add\n      mload\n      dup2\n      0x05\n      add\n      exp(0x0100, 0x00)\n      dup2\n      sload\n      dup2\n      0xff\n      mul\n      not\n      and\n      swap1\n      dup4\n      0x01\n      dup2\n      gt\n      iszero\n      tag_191\n      jumpi\n      tag_192\n      tag_69\n      jump\t// in\n    tag_192:\n    tag_191:\n      mul\n      or\n      swap1\n      sstore\n      pop\n      0xc0\n      dup3\n      add\n      mload\n      dup2\n      0x06\n      add\n      sstore\n      0xe0\n      dup3\n      add\n      mload\n      dup2\n      0x07\n      add\n      sstore\n      swap1\n      pop\n      pop\n        /* \"contracts/crofunding/crofunding.sol\":2311:2324  contributions */\n      0x01\n        /* \"contracts/crofunding/crofunding.sol\":2325:2340  proyect_to_fund */\n      dup2\n        /* \"contracts/crofunding/crofunding.sol\":2325:2343  proyect_to_fund.id */\n      0x00\n      add\n      mload\n        /* \"contracts/crofunding/crofunding.sol\":2311:2344  contributions[proyect_to_fund.id] */\n      mload(0x40)\n      tag_193\n      swap2\n      swap1\n      tag_194\n      jump\t// in\n    tag_193:\n      swap1\n      dup2\n      mstore\n      0x20\n      add\n      mload(0x40)\n      dup1\n      swap2\n      sub\n      swap1\n      keccak256\n        /* \"contracts/crofunding/crofunding.sol\":2350:2385  contribution(msg.sender, msg.value) */\n      mload(0x40)\n      dup1\n      0x40\n      add\n      0x40\n      mstore\n      dup1\n        /* \"contracts/crofunding/crofunding.sol\":2363:2373  msg.sender */\n      caller\n        /* \"contracts/crofunding/crofunding.sol\":2350:2385  contribution(msg.sender, msg.value) */\n      0xffffffffffffffffffffffffffffffffffffffff\n      and\n      dup2\n      mstore\n      0x20\n      add\n        /* \"contracts/crofunding/crofunding.sol\":2375:2384  msg.value */\n      callvalue\n        /* \"contracts/crofunding/crofunding.sol\":2350:2385  contribution(msg.sender, msg.value) */\n      dup2\n      mstore\n      pop\n        /* \"contracts/crofunding/crofunding.sol\":2311:2386  contributions[proyect_to_fund.id].push(contribution(msg.sender, msg.value)) */\n      swap1\n      dup1\n      0x01\n      dup2\n      sload\n      add\n      dup1\n      dup3\n      sstore\n      dup1\n      swap2\n      pop\n      pop\n      0x01\n      swap1\n      sub\n      swap1\n      0x00\n      mstore\n      keccak256(0x00, 0x20)\n      swap1\n      0x02\n      mul\n      add\n      0x00\n      swap1\n      swap2\n      swap1\n      swap2\n      swap1\n      swap2\n      pop\n      0x00\n      dup3\n      add\n      mload\n      dup2\n      0x00\n      add\n      exp(0x0100, 0x00)\n      dup2\n      sload\n      dup2\n      0xffffffffffffffffffffffffffffffffffffffff\n      mul\n      not\n      and\n      swap1\n      dup4\n      0xffffffffffffffffffffffffffffffffffffffff\n      and\n      mul\n      or\n      swap1\n      sstore\n      pop\n      0x20\n      dup3\n      add\n      mload\n      dup2\n      0x01\n      add\n      sstore\n      pop\n      pop\n        /* \"contracts/crofunding/crofunding.sol\":2402:2540  amount_funds(msg.value, proyect_to_fund.funds, proyect_to_fund.funds_reising_goal - proyect_to_fund.funds, msg.sender, proyect_to_fund.id) */\n      0xa0bc8495efb05c87068dd41e513547d65416d9c4b8aa9aa65888b1ae0ea87d53\n        /* \"contracts/crofunding/crofunding.sol\":2415:2424  msg.value */\n      callvalue\n        /* \"contracts/crofunding/crofunding.sol\":2426:2441  proyect_to_fund */\n      dup3\n        /* \"contracts/crofunding/crofunding.sol\":2426:2447  proyect_to_fund.funds */\n      0xc0\n      add\n      mload\n        /* \"contracts/crofunding/crofunding.sol\":2486:2501  proyect_to_fund */\n      dup4\n        /* \"contracts/crofunding/crofunding.sol\":2486:2507  proyect_to_fund.funds */\n      0xc0\n      add\n      mload\n        /* \"contracts/crofunding/crofunding.sol\":2449:2464  proyect_to_fund */\n      dup5\n        /* \"contracts/crofunding/crofunding.sol\":2449:2483  proyect_to_fund.funds_reising_goal */\n      0xe0\n      add\n      mload\n        /* \"contracts/crofunding/crofunding.sol\":2449:2507  proyect_to_fund.funds_reising_goal - proyect_to_fund.funds */\n      tag_196\n      swap2\n      swap1\n      tag_197\n      jump\t// in\n    tag_196:\n        /* \"contracts/crofunding/crofunding.sol\":2509:2519  msg.sender */\n      caller\n        /* \"contracts/crofunding/crofunding.sol\":2521:2536  proyect_to_fund */\n      dup6\n        /* \"contracts/crofunding/crofunding.sol\":2521:2539  proyect_to_fund.id */\n      0x00\n      add\n      mload\n        /* \"contracts/crofunding/crofunding.sol\":2402:2540  amount_funds(msg.value, proyect_to_fund.funds, proyect_to_fund.funds_reising_goal - proyect_to_fund.funds, msg.sender, proyect_to_fund.id) */\n      mload(0x40)\n      tag_198\n      swap6\n      swap5\n      swap4\n      swap3\n      swap2\n      swap1\n      tag_199\n      jump\t// in\n    tag_198:\n      mload(0x40)\n      dup1\n      swap2\n      sub\n      swap1\n      log1\n        /* \"contracts/crofunding/crofunding.sol\":1911:2547  {... */\n      pop\n        /* \"contracts/crofunding/crofunding.sol\":1821:2547  function fund_project( uint project_index) public payable author_cant_fund(project_index) {... */\n      pop\n      pop\n      jump\t// out\n        /* \"contracts/crofunding/crofunding.sol\":452:481  project[] public new_projects */\n    tag_31:\n      0x00\n      dup2\n      dup2\n      sload\n      dup2\n      lt\n      tag_200\n      jumpi\n      0x00\n      dup1\n      revert\n    tag_200:\n      swap1\n      0x00\n      mstore\n      keccak256(0x00, 0x20)\n      swap1\n      0x08\n      mul\n      add\n      0x00\n      swap2\n      pop\n      swap1\n      pop\n      dup1\n      0x00\n      add\n      dup1\n      sload\n      tag_202\n      swap1\n      tag_47\n      jump\t// in\n    tag_202:\n      dup1\n      0x1f\n      add\n      0x20\n      dup1\n      swap2\n      div\n      mul\n      0x20\n      add\n      mload(0x40)\n      swap1\n      dup2\n      add\n      0x40\n      mstore\n      dup1\n      swap3\n      swap2\n      swap1\n      dup2\n      dup2\n      mstore\n      0x20\n      add\n      dup3\n      dup1\n      sload\n      tag_203\n      swap1\n      tag_47\n      jump\t// in\n    tag_203:\n      dup1\n      iszero\n      tag_204\n      jumpi\n      dup1\n      0x1f\n      lt\n      tag_205\n      jumpi\n      0x0100\n      dup1\n      dup4\n      sload\n      div\n      mul\n      dup4\n      mstore\n      swap2\n      0x20\n      add\n      swap2\n      jump(tag_204)\n    tag_205:\n      dup3\n      add\n      swap2\n      swap1\n      0x00\n      mstore\n      keccak256(0x00, 0x20)\n      swap1\n    tag_206:\n      dup2\n      sload\n      dup2\n      mstore\n      swap1\n      0x01\n      add\n      swap1\n      0x20\n      add\n      dup1\n      dup4\n      gt\n      tag_206\n      jumpi\n      dup3\n      swap1\n      sub\n      0x1f\n      and\n      dup3\n      add\n      swap2\n    tag_204:\n      pop\n      pop\n      pop\n      pop\n      pop\n      swap1\n      dup1\n      0x01\n      add\n      dup1\n      sload\n      tag_207\n      swap1\n      tag_47\n      jump\t// in\n    tag_207:\n      dup1\n      0x1f\n      add\n      0x20\n      dup1\n      swap2\n      div\n      mul\n      0x20\n      add\n      mload(0x40)\n      swap1\n      dup2\n      add\n      0x40\n      mstore\n      dup1\n      swap3\n      swap2\n      swap1\n      dup2\n      dup2\n      mstore\n      0x20\n      add\n      dup3\n      dup1\n      sload\n      tag_208\n      swap1\n      tag_47\n      jump\t// in\n    tag_208:\n      dup1\n      iszero\n      tag_209\n      jumpi\n      dup1\n      0x1f\n      lt\n      tag_210\n      jumpi\n      0x0100\n      dup1\n      dup4\n      sload\n      div\n      mul\n      dup4\n      mstore\n      swap2\n      0x20\n      add\n      swap2\n      jump(tag_209)\n    tag_210:\n      dup3\n      add\n      swap2\n      swap1\n      0x00\n      mstore\n      keccak256(0x00, 0x20)\n      swap1\n    tag_211:\n      dup2\n      sload\n      dup2\n      mstore\n      swap1\n      0x01\n      add\n      swap1\n      0x20\n      add\n      dup1\n      dup4\n      gt\n      tag_211\n      jumpi\n      dup3\n      swap1\n      sub\n      0x1f\n      and\n      dup3\n      add\n      swap2\n    tag_209:\n      pop\n      pop\n      pop\n      pop\n      pop\n      swap1\n      dup1\n      0x02\n      add\n      dup1\n      sload\n      tag_212\n      swap1\n      tag_47\n      jump\t// in\n    tag_212:\n      dup1\n      0x1f\n      add\n      0x20\n      dup1\n      swap2\n      div\n      mul\n      0x20\n      add\n      mload(0x40)\n      swap1\n      dup2\n      add\n      0x40\n      mstore\n      dup1\n      swap3\n      swap2\n      swap1\n      dup2\n      dup2\n      mstore\n      0x20\n      add\n      dup3\n      dup1\n      sload\n      tag_213\n      swap1\n      tag_47\n      jump\t// in\n    tag_213:\n      dup1\n      iszero\n      tag_214\n      jumpi\n      dup1\n      0x1f\n      lt\n      tag_215\n      jumpi\n      0x0100\n      dup1\n      dup4\n      sload\n      div\n      mul\n      dup4\n      mstore\n      swap2\n      0x20\n      add\n      swap2\n      jump(tag_214)\n    tag_215:\n      dup3\n      add\n      swap2\n      swap1\n      0x00\n      mstore\n      keccak256(0x00, 0x20)\n      swap1\n    tag_216:\n      dup2\n      sload\n      dup2\n      mstore\n      swap1\n      0x01\n      add\n      swap1\n      0x20\n      add\n      dup1\n      dup4\n      gt\n      tag_216\n      jumpi\n      dup3\n      swap1\n      sub\n      0x1f\n      and\n      dup3\n      add\n      swap2\n    tag_214:\n      pop\n      pop\n      pop\n      pop\n      pop\n      swap1\n      dup1\n      0x03\n      add\n      0x00\n      swap1\n      sload\n      swap1\n      0x0100\n      exp\n      swap1\n      div\n      0xffffffffffffffffffffffffffffffffffffffff\n      and\n      swap1\n      dup1\n      0x04\n      add\n      dup1\n      sload\n      tag_217\n      swap1\n      tag_47\n      jump\t// in\n    tag_217:\n      dup1\n      0x1f\n      add\n      0x20\n      dup1\n      swap2\n      div\n      mul\n      0x20\n      add\n      mload(0x40)\n      swap1\n      dup2\n      add\n      0x40\n      mstore\n      dup1\n      swap3\n      swap2\n      swap1\n      dup2\n      dup2\n      mstore\n      0x20\n      add\n      dup3\n      dup1\n      sload\n      tag_218\n      swap1\n      tag_47\n      jump\t// in\n    tag_218:\n      dup1\n      iszero\n      tag_219\n      jumpi\n      dup1\n      0x1f\n      lt\n      tag_220\n      jumpi\n      0x0100\n      dup1\n      dup4\n      sload\n      div\n      mul\n      dup4\n      mstore\n      swap2\n      0x20\n      add\n      swap2\n      jump(tag_219)\n    tag_220:\n      dup3\n      add\n      swap2\n      swap1\n      0x00\n      mstore\n      keccak256(0x00, 0x20)\n      swap1\n    tag_221:\n      dup2\n      sload\n      dup2\n      mstore\n      swap1\n      0x01\n      add\n      swap1\n      0x20\n      add\n      dup1\n      dup4\n      gt\n      tag_221\n      jumpi\n      dup3\n      swap1\n      sub\n      0x1f\n      and\n      dup3\n      add\n      swap2\n    tag_219:\n      pop\n      pop\n      pop\n      pop\n      pop\n      swap1\n      dup1\n      0x05\n      add\n      0x00\n      swap1\n      sload\n      swap1\n      0x0100\n      exp\n      swap1\n      div\n      0xff\n      and\n      swap1\n      dup1\n      0x06\n      add\n      sload\n      swap1\n      dup1\n      0x07\n      add\n      sload\n      swap1\n      pop\n      dup9\n      jump\t// out\n        /* \"#utility.yul\":7:82   */\n    tag_222:\n        /* \"#utility.yul\":40:46   */\n      0x00\n        /* \"#utility.yul\":73:75   */\n      0x40\n        /* \"#utility.yul\":67:76   */\n      mload\n        /* \"#utility.yul\":57:76   */\n      swap1\n      pop\n        /* \"#utility.yul\":7:82   */\n      swap1\n      jump\t// out\n        /* \"#utility.yul\":88:205   */\n    tag_223:\n        /* \"#utility.yul\":197:198   */\n      0x00\n        /* \"#utility.yul\":194:195   */\n      dup1\n        /* \"#utility.yul\":187:199   */\n      revert\n        /* \"#utility.yul\":211:328   */\n    tag_224:\n        /* \"#utility.yul\":320:321   */\n      0x00\n        /* \"#utility.yul\":317:318   */\n      dup1\n        /* \"#utility.yul\":310:322   */\n      revert\n        /* \"#utility.yul\":334:442   */\n    tag_225:\n        /* \"#utility.yul\":416:417   */\n      0x02\n        /* \"#utility.yul\":409:414   */\n      dup2\n        /* \"#utility.yul\":406:418   */\n      lt\n        /* \"#utility.yul\":396:436   */\n      tag_296\n      jumpi\n        /* \"#utility.yul\":432:433   */\n      0x00\n        /* \"#utility.yul\":429:430   */\n      dup1\n        /* \"#utility.yul\":422:434   */\n      revert\n        /* \"#utility.yul\":396:436   */\n    tag_296:\n        /* \"#utility.yul\":334:442   */\n      pop\n      jump\t// out\n        /* \"#utility.yul\":448:605   */\n    tag_226:\n        /* \"#utility.yul\":503:508   */\n      0x00\n        /* \"#utility.yul\":541:547   */\n      dup2\n        /* \"#utility.yul\":528:548   */\n      calldataload\n        /* \"#utility.yul\":519:548   */\n      swap1\n      pop\n        /* \"#utility.yul\":557:599   */\n      tag_298\n        /* \"#utility.yul\":593:598   */\n      dup2\n        /* \"#utility.yul\":557:599   */\n      tag_225\n      jump\t// in\n    tag_298:\n        /* \"#utility.yul\":448:605   */\n      swap3\n      swap2\n      pop\n      pop\n      jump\t// out\n        /* \"#utility.yul\":611:688   */\n    tag_227:\n        /* \"#utility.yul\":648:655   */\n      0x00\n        /* \"#utility.yul\":677:682   */\n      dup2\n        /* \"#utility.yul\":666:682   */\n      swap1\n      pop\n        /* \"#utility.yul\":611:688   */\n      swap2\n      swap1\n      pop\n      jump\t// out\n        /* \"#utility.yul\":694:816   */\n    tag_228:\n        /* \"#utility.yul\":767:791   */\n      tag_301\n        /* \"#utility.yul\":785:790   */\n      dup2\n        /* \"#utility.yul\":767:791   */\n      tag_227\n      jump\t// in\n    tag_301:\n        /* \"#utility.yul\":760:765   */\n      dup2\n        /* \"#utility.yul\":757:792   */\n      eq\n        /* \"#utility.yul\":747:810   */\n      tag_302\n      jumpi\n        /* \"#utility.yul\":806:807   */\n      0x00\n        /* \"#utility.yul\":803:804   */\n      dup1\n        /* \"#utility.yul\":796:808   */\n      revert\n        /* \"#utility.yul\":747:810   */\n    tag_302:\n        /* \"#utility.yul\":694:816   */\n      pop\n      jump\t// out\n        /* \"#utility.yul\":822:961   */\n    tag_229:\n        /* \"#utility.yul\":868:873   */\n      0x00\n        /* \"#utility.yul\":906:912   */\n      dup2\n        /* \"#utility.yul\":893:913   */\n      calldataload\n        /* \"#utility.yul\":884:913   */\n      swap1\n      pop\n        /* \"#utility.yul\":922:955   */\n      tag_304\n        /* \"#utility.yul\":949:954   */\n      dup2\n        /* \"#utility.yul\":922:955   */\n      tag_228\n      jump\t// in\n    tag_304:\n        /* \"#utility.yul\":822:961   */\n      swap3\n      swap2\n      pop\n      pop\n      jump\t// out\n        /* \"#utility.yul\":967:1459   */\n    tag_10:\n        /* \"#utility.yul\":1044:1050   */\n      0x00\n        /* \"#utility.yul\":1052:1058   */\n      dup1\n        /* \"#utility.yul\":1101:1103   */\n      0x40\n        /* \"#utility.yul\":1089:1098   */\n      dup4\n        /* \"#utility.yul\":1080:1087   */\n      dup6\n        /* \"#utility.yul\":1076:1099   */\n      sub\n        /* \"#utility.yul\":1072:1104   */\n      slt\n        /* \"#utility.yul\":1069:1188   */\n      iszero\n      tag_306\n      jumpi\n        /* \"#utility.yul\":1107:1186   */\n      tag_307\n      tag_223\n      jump\t// in\n    tag_307:\n        /* \"#utility.yul\":1069:1188   */\n    tag_306:\n        /* \"#utility.yul\":1227:1228   */\n      0x00\n        /* \"#utility.yul\":1252:1314   */\n      tag_308\n        /* \"#utility.yul\":1306:1313   */\n      dup6\n        /* \"#utility.yul\":1297:1303   */\n      dup3\n        /* \"#utility.yul\":1286:1295   */\n      dup7\n        /* \"#utility.yul\":1282:1304   */\n      add\n        /* \"#utility.yul\":1252:1314   */\n      tag_226\n      jump\t// in\n    tag_308:\n        /* \"#utility.yul\":1242:1314   */\n      swap3\n      pop\n        /* \"#utility.yul\":1198:1324   */\n      pop\n        /* \"#utility.yul\":1363:1365   */\n      0x20\n        /* \"#utility.yul\":1389:1442   */\n      tag_309\n        /* \"#utility.yul\":1434:1441   */\n      dup6\n        /* \"#utility.yul\":1425:1431   */\n      dup3\n        /* \"#utility.yul\":1414:1423   */\n      dup7\n        /* \"#utility.yul\":1410:1432   */\n      add\n        /* \"#utility.yul\":1389:1442   */\n      tag_229\n      jump\t// in\n    tag_309:\n        /* \"#utility.yul\":1379:1442   */\n      swap2\n      pop\n        /* \"#utility.yul\":1334:1452   */\n      pop\n        /* \"#utility.yul\":967:1459   */\n      swap3\n      pop\n      swap3\n      swap1\n      pop\n      jump\t// out\n        /* \"#utility.yul\":1465:1582   */\n    tag_230:\n        /* \"#utility.yul\":1574:1575   */\n      0x00\n        /* \"#utility.yul\":1571:1572   */\n      dup1\n        /* \"#utility.yul\":1564:1576   */\n      revert\n        /* \"#utility.yul\":1588:1705   */\n    tag_231:\n        /* \"#utility.yul\":1697:1698   */\n      0x00\n        /* \"#utility.yul\":1694:1695   */\n      dup1\n        /* \"#utility.yul\":1687:1699   */\n      revert\n        /* \"#utility.yul\":1711:1828   */\n    tag_232:\n        /* \"#utility.yul\":1820:1821   */\n      0x00\n        /* \"#utility.yul\":1817:1818   */\n      dup1\n        /* \"#utility.yul\":1810:1822   */\n      revert\n        /* \"#utility.yul\":1848:2401   */\n    tag_233:\n        /* \"#utility.yul\":1906:1914   */\n      0x00\n        /* \"#utility.yul\":1916:1922   */\n      dup1\n        /* \"#utility.yul\":1966:1969   */\n      dup4\n        /* \"#utility.yul\":1959:1963   */\n      0x1f\n        /* \"#utility.yul\":1951:1957   */\n      dup5\n        /* \"#utility.yul\":1947:1964   */\n      add\n        /* \"#utility.yul\":1943:1970   */\n      slt\n        /* \"#utility.yul\":1933:2055   */\n      tag_314\n      jumpi\n        /* \"#utility.yul\":1974:2053   */\n      tag_315\n      tag_230\n      jump\t// in\n    tag_315:\n        /* \"#utility.yul\":1933:2055   */\n    tag_314:\n        /* \"#utility.yul\":2087:2093   */\n      dup3\n        /* \"#utility.yul\":2074:2094   */\n      calldataload\n        /* \"#utility.yul\":2064:2094   */\n      swap1\n      pop\n        /* \"#utility.yul\":2117:2135   */\n      0xffffffffffffffff\n        /* \"#utility.yul\":2109:2115   */\n      dup2\n        /* \"#utility.yul\":2106:2136   */\n      gt\n        /* \"#utility.yul\":2103:2220   */\n      iszero\n      tag_316\n      jumpi\n        /* \"#utility.yul\":2139:2218   */\n      tag_317\n      tag_231\n      jump\t// in\n    tag_317:\n        /* \"#utility.yul\":2103:2220   */\n    tag_316:\n        /* \"#utility.yul\":2253:2257   */\n      0x20\n        /* \"#utility.yul\":2245:2251   */\n      dup4\n        /* \"#utility.yul\":2241:2258   */\n      add\n        /* \"#utility.yul\":2229:2258   */\n      swap2\n      pop\n        /* \"#utility.yul\":2307:2310   */\n      dup4\n        /* \"#utility.yul\":2299:2303   */\n      0x01\n        /* \"#utility.yul\":2291:2297   */\n      dup3\n        /* \"#utility.yul\":2287:2304   */\n      mul\n        /* \"#utility.yul\":2277:2285   */\n      dup4\n        /* \"#utility.yul\":2273:2305   */\n      add\n        /* \"#utility.yul\":2270:2311   */\n      gt\n        /* \"#utility.yul\":2267:2395   */\n      iszero\n      tag_318\n      jumpi\n        /* \"#utility.yul\":2314:2393   */\n      tag_319\n      tag_232\n      jump\t// in\n    tag_319:\n        /* \"#utility.yul\":2267:2395   */\n    tag_318:\n        /* \"#utility.yul\":1848:2401   */\n      swap3\n      pop\n      swap3\n      swap1\n      pop\n      jump\t// out\n        /* \"#utility.yul\":2407:4118   */\n    tag_15:\n        /* \"#utility.yul\":2550:2556   */\n      0x00\n        /* \"#utility.yul\":2558:2564   */\n      dup1\n        /* \"#utility.yul\":2566:2572   */\n      0x00\n        /* \"#utility.yul\":2574:2580   */\n      dup1\n        /* \"#utility.yul\":2582:2588   */\n      0x00\n        /* \"#utility.yul\":2590:2596   */\n      dup1\n        /* \"#utility.yul\":2598:2604   */\n      0x00\n        /* \"#utility.yul\":2606:2612   */\n      dup1\n        /* \"#utility.yul\":2614:2620   */\n      0x00\n        /* \"#utility.yul\":2663:2666   */\n      0xa0\n        /* \"#utility.yul\":2651:2660   */\n      dup11\n        /* \"#utility.yul\":2642:2649   */\n      dup13\n        /* \"#utility.yul\":2638:2661   */\n      sub\n        /* \"#utility.yul\":2634:2667   */\n      slt\n        /* \"#utility.yul\":2631:2751   */\n      iszero\n      tag_321\n      jumpi\n        /* \"#utility.yul\":2670:2749   */\n      tag_322\n      tag_223\n      jump\t// in\n    tag_322:\n        /* \"#utility.yul\":2631:2751   */\n    tag_321:\n        /* \"#utility.yul\":2818:2819   */\n      0x00\n        /* \"#utility.yul\":2807:2816   */\n      dup11\n        /* \"#utility.yul\":2803:2820   */\n      add\n        /* \"#utility.yul\":2790:2821   */\n      calldataload\n        /* \"#utility.yul\":2848:2866   */\n      0xffffffffffffffff\n        /* \"#utility.yul\":2840:2846   */\n      dup2\n        /* \"#utility.yul\":2837:2867   */\n      gt\n        /* \"#utility.yul\":2834:2951   */\n      iszero\n      tag_323\n      jumpi\n        /* \"#utility.yul\":2870:2949   */\n      tag_324\n      tag_224\n      jump\t// in\n    tag_324:\n        /* \"#utility.yul\":2834:2951   */\n    tag_323:\n        /* \"#utility.yul\":2983:3048   */\n      tag_325\n        /* \"#utility.yul\":3040:3047   */\n      dup13\n        /* \"#utility.yul\":3031:3037   */\n      dup3\n        /* \"#utility.yul\":3020:3029   */\n      dup14\n        /* \"#utility.yul\":3016:3038   */\n      add\n        /* \"#utility.yul\":2983:3048   */\n      tag_233\n      jump\t// in\n    tag_325:\n        /* \"#utility.yul\":2965:3048   */\n      swap10\n      pop\n      swap10\n      pop\n        /* \"#utility.yul\":2761:3058   */\n      pop\n        /* \"#utility.yul\":3125:3127   */\n      0x20\n        /* \"#utility.yul\":3114:3123   */\n      dup11\n        /* \"#utility.yul\":3110:3128   */\n      add\n        /* \"#utility.yul\":3097:3129   */\n      calldataload\n        /* \"#utility.yul\":3156:3174   */\n      0xffffffffffffffff\n        /* \"#utility.yul\":3148:3154   */\n      dup2\n        /* \"#utility.yul\":3145:3175   */\n      gt\n        /* \"#utility.yul\":3142:3259   */\n      iszero\n      tag_326\n      jumpi\n        /* \"#utility.yul\":3178:3257   */\n      tag_327\n      tag_224\n      jump\t// in\n    tag_327:\n        /* \"#utility.yul\":3142:3259   */\n    tag_326:\n        /* \"#utility.yul\":3291:3356   */\n      tag_328\n        /* \"#utility.yul\":3348:3355   */\n      dup13\n        /* \"#utility.yul\":3339:3345   */\n      dup3\n        /* \"#utility.yul\":3328:3337   */\n      dup14\n        /* \"#utility.yul\":3324:3346   */\n      add\n        /* \"#utility.yul\":3291:3356   */\n      tag_233\n      jump\t// in\n    tag_328:\n        /* \"#utility.yul\":3273:3356   */\n      swap8\n      pop\n      swap8\n      pop\n        /* \"#utility.yul\":3068:3366   */\n      pop\n        /* \"#utility.yul\":3433:3435   */\n      0x40\n        /* \"#utility.yul\":3422:3431   */\n      dup11\n        /* \"#utility.yul\":3418:3436   */\n      add\n        /* \"#utility.yul\":3405:3437   */\n      calldataload\n        /* \"#utility.yul\":3464:3482   */\n      0xffffffffffffffff\n        /* \"#utility.yul\":3456:3462   */\n      dup2\n        /* \"#utility.yul\":3453:3483   */\n      gt\n        /* \"#utility.yul\":3450:3567   */\n      iszero\n      tag_329\n      jumpi\n        /* \"#utility.yul\":3486:3565   */\n      tag_330\n      tag_224\n      jump\t// in\n    tag_330:\n        /* \"#utility.yul\":3450:3567   */\n    tag_329:\n        /* \"#utility.yul\":3599:3664   */\n      tag_331\n        /* \"#utility.yul\":3656:3663   */\n      dup13\n        /* \"#utility.yul\":3647:3653   */\n      dup3\n        /* \"#utility.yul\":3636:3645   */\n      dup14\n        /* \"#utility.yul\":3632:3654   */\n      add\n        /* \"#utility.yul\":3599:3664   */\n      tag_233\n      jump\t// in\n    tag_331:\n        /* \"#utility.yul\":3581:3664   */\n      swap6\n      pop\n      swap6\n      pop\n        /* \"#utility.yul\":3376:3674   */\n      pop\n        /* \"#utility.yul\":3713:3715   */\n      0x60\n        /* \"#utility.yul\":3739:3792   */\n      tag_332\n        /* \"#utility.yul\":3784:3791   */\n      dup13\n        /* \"#utility.yul\":3775:3781   */\n      dup3\n        /* \"#utility.yul\":3764:3773   */\n      dup14\n        /* \"#utility.yul\":3760:3782   */\n      add\n        /* \"#utility.yul\":3739:3792   */\n      tag_229\n      jump\t// in\n    tag_332:\n        /* \"#utility.yul\":3729:3792   */\n      swap4\n      pop\n        /* \"#utility.yul\":3684:3802   */\n      pop\n        /* \"#utility.yul\":3869:3872   */\n      0x80\n        /* \"#utility.yul\":3858:3867   */\n      dup11\n        /* \"#utility.yul\":3854:3873   */\n      add\n        /* \"#utility.yul\":3841:3874   */\n      calldataload\n        /* \"#utility.yul\":3901:3919   */\n      0xffffffffffffffff\n        /* \"#utility.yul\":3893:3899   */\n      dup2\n        /* \"#utility.yul\":3890:3920   */\n      gt\n        /* \"#utility.yul\":3887:4004   */\n      iszero\n      tag_333\n      jumpi\n        /* \"#utility.yul\":3923:4002   */\n      tag_334\n      tag_224\n      jump\t// in\n    tag_334:\n        /* \"#utility.yul\":3887:4004   */\n    tag_333:\n        /* \"#utility.yul\":4036:4101   */\n      tag_335\n        /* \"#utility.yul\":4093:4100   */\n      dup13\n        /* \"#utility.yul\":4084:4090   */\n      dup3\n        /* \"#utility.yul\":4073:4082   */\n      dup14\n        /* \"#utility.yul\":4069:4091   */\n      add\n        /* \"#utility.yul\":4036:4101   */\n      tag_233\n      jump\t// in\n    tag_335:\n        /* \"#utility.yul\":4018:4101   */\n      swap3\n      pop\n      swap3\n      pop\n        /* \"#utility.yul\":3812:4111   */\n      pop\n        /* \"#utility.yul\":2407:4118   */\n      swap3\n      swap6\n      swap9\n      pop\n      swap3\n      swap6\n      swap9\n      pop\n      swap3\n      swap6\n      swap9\n      jump\t// out\n        /* \"#utility.yul\":4124:4241   */\n    tag_234:\n        /* \"#utility.yul\":4233:4234   */\n      0x00\n        /* \"#utility.yul\":4230:4231   */\n      dup1\n        /* \"#utility.yul\":4223:4235   */\n      revert\n        /* \"#utility.yul\":4247:4349   */\n    tag_235:\n        /* \"#utility.yul\":4288:4294   */\n      0x00\n        /* \"#utility.yul\":4339:4341   */\n      0x1f\n        /* \"#utility.yul\":4335:4342   */\n      not\n        /* \"#utility.yul\":4330:4332   */\n      0x1f\n        /* \"#utility.yul\":4323:4328   */\n      dup4\n        /* \"#utility.yul\":4319:4333   */\n      add\n        /* \"#utility.yul\":4315:4343   */\n      and\n        /* \"#utility.yul\":4305:4343   */\n      swap1\n      pop\n        /* \"#utility.yul\":4247:4349   */\n      swap2\n      swap1\n      pop\n      jump\t// out\n        /* \"#utility.yul\":4355:4535   */\n    tag_236:\n        /* \"#utility.yul\":4403:4480   */\n      0x4e487b7100000000000000000000000000000000000000000000000000000000\n        /* \"#utility.yul\":4400:4401   */\n      0x00\n        /* \"#utility.yul\":4393:4481   */\n      mstore\n        /* \"#utility.yul\":4500:4504   */\n      0x41\n        /* \"#utility.yul\":4497:4498   */\n      0x04\n        /* \"#utility.yul\":4490:4505   */\n      mstore\n        /* \"#utility.yul\":4524:4528   */\n      0x24\n        /* \"#utility.yul\":4521:4522   */\n      0x00\n        /* \"#utility.yul\":4514:4529   */\n      revert\n        /* \"#utility.yul\":4541:4822   */\n    tag_237:\n        /* \"#utility.yul\":4624:4651   */\n      tag_340\n        /* \"#utility.yul\":4646:4650   */\n      dup3\n        /* \"#utility.yul\":4624:4651   */\n      tag_235\n      jump\t// in\n    tag_340:\n        /* \"#utility.yul\":4616:4622   */\n      dup2\n        /* \"#utility.yul\":4612:4652   */\n      add\n        /* \"#utility.yul\":4754:4760   */\n      dup2\n        /* \"#utility.yul\":4742:4752   */\n      dup2\n        /* \"#utility.yul\":4739:4761   */\n      lt\n        /* \"#utility.yul\":4718:4736   */\n      0xffffffffffffffff\n        /* \"#utility.yul\":4706:4716   */\n      dup3\n        /* \"#utility.yul\":4703:4737   */\n      gt\n        /* \"#utility.yul\":4700:4762   */\n      or\n        /* \"#utility.yul\":4697:4785   */\n      iszero\n      tag_341\n      jumpi\n        /* \"#utility.yul\":4765:4783   */\n      tag_342\n      tag_236\n      jump\t// in\n    tag_342:\n        /* \"#utility.yul\":4697:4785   */\n    tag_341:\n        /* \"#utility.yul\":4805:4815   */\n      dup1\n        /* \"#utility.yul\":4801:4803   */\n      0x40\n        /* \"#utility.yul\":4794:4816   */\n      mstore\n        /* \"#utility.yul\":4584:4822   */\n      pop\n        /* \"#utility.yul\":4541:4822   */\n      pop\n      pop\n      jump\t// out\n        /* \"#utility.yul\":4828:4957   */\n    tag_238:\n        /* \"#utility.yul\":4862:4868   */\n      0x00\n        /* \"#utility.yul\":4889:4909   */\n      tag_344\n      tag_222\n      jump\t// in\n    tag_344:\n        /* \"#utility.yul\":4879:4909   */\n      swap1\n      pop\n        /* \"#utility.yul\":4918:4951   */\n      tag_345\n        /* \"#utility.yul\":4946:4950   */\n      dup3\n        /* \"#utility.yul\":4938:4944   */\n      dup3\n        /* \"#utility.yul\":4918:4951   */\n      tag_237\n      jump\t// in\n    tag_345:\n        /* \"#utility.yul\":4828:4957   */\n      swap2\n      swap1\n      pop\n      jump\t// out\n        /* \"#utility.yul\":4963:5271   */\n    tag_239:\n        /* \"#utility.yul\":5025:5029   */\n      0x00\n        /* \"#utility.yul\":5115:5133   */\n      0xffffffffffffffff\n        /* \"#utility.yul\":5107:5113   */\n      dup3\n        /* \"#utility.yul\":5104:5134   */\n      gt\n        /* \"#utility.yul\":5101:5157   */\n      iszero\n      tag_347\n      jumpi\n        /* \"#utility.yul\":5137:5155   */\n      tag_348\n      tag_236\n      jump\t// in\n    tag_348:\n        /* \"#utility.yul\":5101:5157   */\n    tag_347:\n        /* \"#utility.yul\":5175:5204   */\n      tag_349\n        /* \"#utility.yul\":5197:5203   */\n      dup3\n        /* \"#utility.yul\":5175:5204   */\n      tag_235\n      jump\t// in\n    tag_349:\n        /* \"#utility.yul\":5167:5204   */\n      swap1\n      pop\n        /* \"#utility.yul\":5259:5263   */\n      0x20\n        /* \"#utility.yul\":5253:5257   */\n      dup2\n        /* \"#utility.yul\":5249:5264   */\n      add\n        /* \"#utility.yul\":5241:5264   */\n      swap1\n      pop\n        /* \"#utility.yul\":4963:5271   */\n      swap2\n      swap1\n      pop\n      jump\t// out\n        /* \"#utility.yul\":5277:5423   */\n    tag_240:\n        /* \"#utility.yul\":5374:5380   */\n      dup3\n        /* \"#utility.yul\":5369:5372   */\n      dup2\n        /* \"#utility.yul\":5364:5367   */\n      dup4\n        /* \"#utility.yul\":5351:5381   */\n      calldatacopy\n        /* \"#utility.yul\":5415:5416   */\n      0x00\n        /* \"#utility.yul\":5406:5412   */\n      dup4\n        /* \"#utility.yul\":5401:5404   */\n      dup4\n        /* \"#utility.yul\":5397:5413   */\n      add\n        /* \"#utility.yul\":5390:5417   */\n      mstore\n        /* \"#utility.yul\":5277:5423   */\n      pop\n      pop\n      pop\n      jump\t// out\n        /* \"#utility.yul\":5429:5854   */\n    tag_241:\n        /* \"#utility.yul\":5507:5512   */\n      0x00\n        /* \"#utility.yul\":5532:5598   */\n      tag_352\n        /* \"#utility.yul\":5548:5597   */\n      tag_353\n        /* \"#utility.yul\":5590:5596   */\n      dup5\n        /* \"#utility.yul\":5548:5597   */\n      tag_239\n      jump\t// in\n    tag_353:\n        /* \"#utility.yul\":5532:5598   */\n      tag_238\n      jump\t// in\n    tag_352:\n        /* \"#utility.yul\":5523:5598   */\n      swap1\n      pop\n        /* \"#utility.yul\":5621:5627   */\n      dup3\n        /* \"#utility.yul\":5614:5619   */\n      dup2\n        /* \"#utility.yul\":5607:5628   */\n      mstore\n        /* \"#utility.yul\":5659:5663   */\n      0x20\n        /* \"#utility.yul\":5652:5657   */\n      dup2\n        /* \"#utility.yul\":5648:5664   */\n      add\n        /* \"#utility.yul\":5697:5700   */\n      dup5\n        /* \"#utility.yul\":5688:5694   */\n      dup5\n        /* \"#utility.yul\":5683:5686   */\n      dup5\n        /* \"#utility.yul\":5679:5695   */\n      add\n        /* \"#utility.yul\":5676:5701   */\n      gt\n        /* \"#utility.yul\":5673:5785   */\n      iszero\n      tag_354\n      jumpi\n        /* \"#utility.yul\":5704:5783   */\n      tag_355\n      tag_234\n      jump\t// in\n    tag_355:\n        /* \"#utility.yul\":5673:5785   */\n    tag_354:\n        /* \"#utility.yul\":5794:5848   */\n      tag_356\n        /* \"#utility.yul\":5841:5847   */\n      dup5\n        /* \"#utility.yul\":5836:5839   */\n      dup3\n        /* \"#utility.yul\":5831:5834   */\n      dup6\n        /* \"#utility.yul\":5794:5848   */\n      tag_240\n      jump\t// in\n    tag_356:\n        /* \"#utility.yul\":5513:5854   */\n      pop\n        /* \"#utility.yul\":5429:5854   */\n      swap4\n      swap3\n      pop\n      pop\n      pop\n      jump\t// out\n        /* \"#utility.yul\":5874:6214   */\n    tag_242:\n        /* \"#utility.yul\":5930:5935   */\n      0x00\n        /* \"#utility.yul\":5979:5982   */\n      dup3\n        /* \"#utility.yul\":5972:5976   */\n      0x1f\n        /* \"#utility.yul\":5964:5970   */\n      dup4\n        /* \"#utility.yul\":5960:5977   */\n      add\n        /* \"#utility.yul\":5956:5983   */\n      slt\n        /* \"#utility.yul\":5946:6068   */\n      tag_358\n      jumpi\n        /* \"#utility.yul\":5987:6066   */\n      tag_359\n      tag_230\n      jump\t// in\n    tag_359:\n        /* \"#utility.yul\":5946:6068   */\n    tag_358:\n        /* \"#utility.yul\":6104:6110   */\n      dup2\n        /* \"#utility.yul\":6091:6111   */\n      calldataload\n        /* \"#utility.yul\":6129:6208   */\n      tag_360\n        /* \"#utility.yul\":6204:6207   */\n      dup5\n        /* \"#utility.yul\":6196:6202   */\n      dup3\n        /* \"#utility.yul\":6189:6193   */\n      0x20\n        /* \"#utility.yul\":6181:6187   */\n      dup7\n        /* \"#utility.yul\":6177:6194   */\n      add\n        /* \"#utility.yul\":6129:6208   */\n      tag_241\n      jump\t// in\n    tag_360:\n        /* \"#utility.yul\":6120:6208   */\n      swap2\n      pop\n        /* \"#utility.yul\":5936:6214   */\n      pop\n        /* \"#utility.yul\":5874:6214   */\n      swap3\n      swap2\n      pop\n      pop\n      jump\t// out\n        /* \"#utility.yul\":6220:6874   */\n    tag_20:\n        /* \"#utility.yul\":6298:6304   */\n      0x00\n        /* \"#utility.yul\":6306:6312   */\n      dup1\n        /* \"#utility.yul\":6355:6357   */\n      0x40\n        /* \"#utility.yul\":6343:6352   */\n      dup4\n        /* \"#utility.yul\":6334:6341   */\n      dup6\n        /* \"#utility.yul\":6330:6353   */\n      sub\n        /* \"#utility.yul\":6326:6358   */\n      slt\n        /* \"#utility.yul\":6323:6442   */\n      iszero\n      tag_362\n      jumpi\n        /* \"#utility.yul\":6361:6440   */\n      tag_363\n      tag_223\n      jump\t// in\n    tag_363:\n        /* \"#utility.yul\":6323:6442   */\n    tag_362:\n        /* \"#utility.yul\":6509:6510   */\n      0x00\n        /* \"#utility.yul\":6498:6507   */\n      dup4\n        /* \"#utility.yul\":6494:6511   */\n      add\n        /* \"#utility.yul\":6481:6512   */\n      calldataload\n        /* \"#utility.yul\":6539:6557   */\n      0xffffffffffffffff\n        /* \"#utility.yul\":6531:6537   */\n      dup2\n        /* \"#utility.yul\":6528:6558   */\n      gt\n        /* \"#utility.yul\":6525:6642   */\n      iszero\n      tag_364\n      jumpi\n        /* \"#utility.yul\":6561:6640   */\n      tag_365\n      tag_224\n      jump\t// in\n    tag_365:\n        /* \"#utility.yul\":6525:6642   */\n    tag_364:\n        /* \"#utility.yul\":6666:6729   */\n      tag_366\n        /* \"#utility.yul\":6721:6728   */\n      dup6\n        /* \"#utility.yul\":6712:6718   */\n      dup3\n        /* \"#utility.yul\":6701:6710   */\n      dup7\n        /* \"#utility.yul\":6697:6719   */\n      add\n        /* \"#utility.yul\":6666:6729   */\n      tag_242\n      jump\t// in\n    tag_366:\n        /* \"#utility.yul\":6656:6729   */\n      swap3\n      pop\n        /* \"#utility.yul\":6452:6739   */\n      pop\n        /* \"#utility.yul\":6778:6780   */\n      0x20\n        /* \"#utility.yul\":6804:6857   */\n      tag_367\n        /* \"#utility.yul\":6849:6856   */\n      dup6\n        /* \"#utility.yul\":6840:6846   */\n      dup3\n        /* \"#utility.yul\":6829:6838   */\n      dup7\n        /* \"#utility.yul\":6825:6847   */\n      add\n        /* \"#utility.yul\":6804:6857   */\n      tag_229\n      jump\t// in\n    tag_367:\n        /* \"#utility.yul\":6794:6857   */\n      swap2\n      pop\n        /* \"#utility.yul\":6749:6867   */\n      pop\n        /* \"#utility.yul\":6220:6874   */\n      swap3\n      pop\n      swap3\n      swap1\n      pop\n      jump\t// out\n        /* \"#utility.yul\":6880:7006   */\n    tag_243:\n        /* \"#utility.yul\":6917:6924   */\n      0x00\n        /* \"#utility.yul\":6957:6999   */\n      0xffffffffffffffffffffffffffffffffffffffff\n        /* \"#utility.yul\":6950:6955   */\n      dup3\n        /* \"#utility.yul\":6946:7000   */\n      and\n        /* \"#utility.yul\":6935:7000   */\n      swap1\n      pop\n        /* \"#utility.yul\":6880:7006   */\n      swap2\n      swap1\n      pop\n      jump\t// out\n        /* \"#utility.yul\":7012:7108   */\n    tag_244:\n        /* \"#utility.yul\":7049:7056   */\n      0x00\n        /* \"#utility.yul\":7078:7102   */\n      tag_370\n        /* \"#utility.yul\":7096:7101   */\n      dup3\n        /* \"#utility.yul\":7078:7102   */\n      tag_243\n      jump\t// in\n    tag_370:\n        /* \"#utility.yul\":7067:7102   */\n      swap1\n      pop\n        /* \"#utility.yul\":7012:7108   */\n      swap2\n      swap1\n      pop\n      jump\t// out\n        /* \"#utility.yul\":7114:7232   */\n    tag_245:\n        /* \"#utility.yul\":7201:7225   */\n      tag_372\n        /* \"#utility.yul\":7219:7224   */\n      dup2\n        /* \"#utility.yul\":7201:7225   */\n      tag_244\n      jump\t// in\n    tag_372:\n        /* \"#utility.yul\":7196:7199   */\n      dup3\n        /* \"#utility.yul\":7189:7226   */\n      mstore\n        /* \"#utility.yul\":7114:7232   */\n      pop\n      pop\n      jump\t// out\n        /* \"#utility.yul\":7238:7356   */\n    tag_246:\n        /* \"#utility.yul\":7325:7349   */\n      tag_374\n        /* \"#utility.yul\":7343:7348   */\n      dup2\n        /* \"#utility.yul\":7325:7349   */\n      tag_227\n      jump\t// in\n    tag_374:\n        /* \"#utility.yul\":7320:7323   */\n      dup3\n        /* \"#utility.yul\":7313:7350   */\n      mstore\n        /* \"#utility.yul\":7238:7356   */\n      pop\n      pop\n      jump\t// out\n        /* \"#utility.yul\":7362:7694   */\n    tag_23:\n        /* \"#utility.yul\":7483:7487   */\n      0x00\n        /* \"#utility.yul\":7521:7523   */\n      0x40\n        /* \"#utility.yul\":7510:7519   */\n      dup3\n        /* \"#utility.yul\":7506:7524   */\n      add\n        /* \"#utility.yul\":7498:7524   */\n      swap1\n      pop\n        /* \"#utility.yul\":7534:7605   */\n      tag_376\n        /* \"#utility.yul\":7602:7603   */\n      0x00\n        /* \"#utility.yul\":7591:7600   */\n      dup4\n        /* \"#utility.yul\":7587:7604   */\n      add\n        /* \"#utility.yul\":7578:7584   */\n      dup6\n        /* \"#utility.yul\":7534:7605   */\n      tag_245\n      jump\t// in\n    tag_376:\n        /* \"#utility.yul\":7615:7687   */\n      tag_377\n        /* \"#utility.yul\":7683:7685   */\n      0x20\n        /* \"#utility.yul\":7672:7681   */\n      dup4\n        /* \"#utility.yul\":7668:7686   */\n      add\n        /* \"#utility.yul\":7659:7665   */\n      dup5\n        /* \"#utility.yul\":7615:7687   */\n      tag_246\n      jump\t// in\n    tag_377:\n        /* \"#utility.yul\":7362:7694   */\n      swap4\n      swap3\n      pop\n      pop\n      pop\n      jump\t// out\n        /* \"#utility.yul\":7700:8029   */\n    tag_26:\n        /* \"#utility.yul\":7759:7765   */\n      0x00\n        /* \"#utility.yul\":7808:7810   */\n      0x20\n        /* \"#utility.yul\":7796:7805   */\n      dup3\n        /* \"#utility.yul\":7787:7794   */\n      dup5\n        /* \"#utility.yul\":7783:7806   */\n      sub\n        /* \"#utility.yul\":7779:7811   */\n      slt\n        /* \"#utility.yul\":7776:7895   */\n      iszero\n      tag_379\n      jumpi\n        /* \"#utility.yul\":7814:7893   */\n      tag_380\n      tag_223\n      jump\t// in\n    tag_380:\n        /* \"#utility.yul\":7776:7895   */\n    tag_379:\n        /* \"#utility.yul\":7934:7935   */\n      0x00\n        /* \"#utility.yul\":7959:8012   */\n      tag_381\n        /* \"#utility.yul\":8004:8011   */\n      dup5\n        /* \"#utility.yul\":7995:8001   */\n      dup3\n        /* \"#utility.yul\":7984:7993   */\n      dup6\n        /* \"#utility.yul\":7980:8002   */\n      add\n        /* \"#utility.yul\":7959:8012   */\n      tag_229\n      jump\t// in\n    tag_381:\n        /* \"#utility.yul\":7949:8012   */\n      swap2\n      pop\n        /* \"#utility.yul\":7905:8022   */\n      pop\n        /* \"#utility.yul\":7700:8029   */\n      swap3\n      swap2\n      pop\n      pop\n      jump\t// out\n        /* \"#utility.yul\":8035:8134   */\n    tag_247:\n        /* \"#utility.yul\":8087:8093   */\n      0x00\n        /* \"#utility.yul\":8121:8126   */\n      dup2\n        /* \"#utility.yul\":8115:8127   */\n      mload\n        /* \"#utility.yul\":8105:8127   */\n      swap1\n      pop\n        /* \"#utility.yul\":8035:8134   */\n      swap2\n      swap1\n      pop\n      jump\t// out\n        /* \"#utility.yul\":8140:8309   */\n    tag_248:\n        /* \"#utility.yul\":8224:8235   */\n      0x00\n        /* \"#utility.yul\":8258:8264   */\n      dup3\n        /* \"#utility.yul\":8253:8256   */\n      dup3\n        /* \"#utility.yul\":8246:8265   */\n      mstore\n        /* \"#utility.yul\":8298:8302   */\n      0x20\n        /* \"#utility.yul\":8293:8296   */\n      dup3\n        /* \"#utility.yul\":8289:8303   */\n      add\n        /* \"#utility.yul\":8274:8303   */\n      swap1\n      pop\n        /* \"#utility.yul\":8140:8309   */\n      swap3\n      swap2\n      pop\n      pop\n      jump\t// out\n        /* \"#utility.yul\":8315:8561   */\n    tag_249:\n        /* \"#utility.yul\":8396:8397   */\n      0x00\n        /* \"#utility.yul\":8406:8519   */\n    tag_385:\n        /* \"#utility.yul\":8420:8426   */\n      dup4\n        /* \"#utility.yul\":8417:8418   */\n      dup2\n        /* \"#utility.yul\":8414:8427   */\n      lt\n        /* \"#utility.yul\":8406:8519   */\n      iszero\n      tag_387\n      jumpi\n        /* \"#utility.yul\":8505:8506   */\n      dup1\n        /* \"#utility.yul\":8500:8503   */\n      dup3\n        /* \"#utility.yul\":8496:8507   */\n      add\n        /* \"#utility.yul\":8490:8508   */\n      mload\n        /* \"#utility.yul\":8486:8487   */\n      dup2\n        /* \"#utility.yul\":8481:8484   */\n      dup5\n        /* \"#utility.yul\":8477:8488   */\n      add\n        /* \"#utility.yul\":8470:8509   */\n      mstore\n        /* \"#utility.yul\":8442:8444   */\n      0x20\n        /* \"#utility.yul\":8439:8440   */\n      dup2\n        /* \"#utility.yul\":8435:8445   */\n      add\n        /* \"#utility.yul\":8430:8445   */\n      swap1\n      pop\n        /* \"#utility.yul\":8406:8519   */\n      jump(tag_385)\n    tag_387:\n        /* \"#utility.yul\":8553:8554   */\n      0x00\n        /* \"#utility.yul\":8544:8550   */\n      dup5\n        /* \"#utility.yul\":8539:8542   */\n      dup5\n        /* \"#utility.yul\":8535:8551   */\n      add\n        /* \"#utility.yul\":8528:8555   */\n      mstore\n        /* \"#utility.yul\":8377:8561   */\n      pop\n        /* \"#utility.yul\":8315:8561   */\n      pop\n      pop\n      pop\n      jump\t// out\n        /* \"#utility.yul\":8567:8944   */\n    tag_250:\n        /* \"#utility.yul\":8655:8658   */\n      0x00\n        /* \"#utility.yul\":8683:8722   */\n      tag_389\n        /* \"#utility.yul\":8716:8721   */\n      dup3\n        /* \"#utility.yul\":8683:8722   */\n      tag_247\n      jump\t// in\n    tag_389:\n        /* \"#utility.yul\":8738:8809   */\n      tag_390\n        /* \"#utility.yul\":8802:8808   */\n      dup2\n        /* \"#utility.yul\":8797:8800   */\n      dup6\n        /* \"#utility.yul\":8738:8809   */\n      tag_248\n      jump\t// in\n    tag_390:\n        /* \"#utility.yul\":8731:8809   */\n      swap4\n      pop\n        /* \"#utility.yul\":8818:8883   */\n      tag_391\n        /* \"#utility.yul\":8876:8882   */\n      dup2\n        /* \"#utility.yul\":8871:8874   */\n      dup6\n        /* \"#utility.yul\":8864:8868   */\n      0x20\n        /* \"#utility.yul\":8857:8862   */\n      dup7\n        /* \"#utility.yul\":8853:8869   */\n      add\n        /* \"#utility.yul\":8818:8883   */\n      tag_249\n      jump\t// in\n    tag_391:\n        /* \"#utility.yul\":8908:8937   */\n      tag_392\n        /* \"#utility.yul\":8930:8936   */\n      dup2\n        /* \"#utility.yul\":8908:8937   */\n      tag_235\n      jump\t// in\n    tag_392:\n        /* \"#utility.yul\":8903:8906   */\n      dup5\n        /* \"#utility.yul\":8899:8938   */\n      add\n        /* \"#utility.yul\":8892:8938   */\n      swap2\n      pop\n        /* \"#utility.yul\":8659:8944   */\n      pop\n        /* \"#utility.yul\":8567:8944   */\n      swap3\n      swap2\n      pop\n      pop\n      jump\t// out\n        /* \"#utility.yul\":8950:9054   */\n    tag_251:\n        /* \"#utility.yul\":8995:9002   */\n      0x00\n        /* \"#utility.yul\":9024:9048   */\n      tag_394\n        /* \"#utility.yul\":9042:9047   */\n      dup3\n        /* \"#utility.yul\":9024:9048   */\n      tag_243\n      jump\t// in\n    tag_394:\n        /* \"#utility.yul\":9013:9048   */\n      swap1\n      pop\n        /* \"#utility.yul\":8950:9054   */\n      swap2\n      swap1\n      pop\n      jump\t// out\n        /* \"#utility.yul\":9060:9202   */\n    tag_252:\n        /* \"#utility.yul\":9163:9195   */\n      tag_396\n        /* \"#utility.yul\":9189:9194   */\n      dup2\n        /* \"#utility.yul\":9163:9195   */\n      tag_251\n      jump\t// in\n    tag_396:\n        /* \"#utility.yul\":9158:9161   */\n      dup3\n        /* \"#utility.yul\":9151:9196   */\n      mstore\n        /* \"#utility.yul\":9060:9202   */\n      pop\n      pop\n      jump\t// out\n        /* \"#utility.yul\":9208:9388   */\n    tag_69:\n        /* \"#utility.yul\":9256:9333   */\n      0x4e487b7100000000000000000000000000000000000000000000000000000000\n        /* \"#utility.yul\":9253:9254   */\n      0x00\n        /* \"#utility.yul\":9246:9334   */\n      mstore\n        /* \"#utility.yul\":9353:9357   */\n      0x21\n        /* \"#utility.yul\":9350:9351   */\n      0x04\n        /* \"#utility.yul\":9343:9358   */\n      mstore\n        /* \"#utility.yul\":9377:9381   */\n      0x24\n        /* \"#utility.yul\":9374:9375   */\n      0x00\n        /* \"#utility.yul\":9367:9382   */\n      revert\n        /* \"#utility.yul\":9394:9508   */\n    tag_253:\n        /* \"#utility.yul\":9476:9477   */\n      0x02\n        /* \"#utility.yul\":9469:9474   */\n      dup2\n        /* \"#utility.yul\":9466:9478   */\n      lt\n        /* \"#utility.yul\":9456:9502   */\n      tag_399\n      jumpi\n        /* \"#utility.yul\":9482:9500   */\n      tag_400\n      tag_69\n      jump\t// in\n    tag_400:\n        /* \"#utility.yul\":9456:9502   */\n    tag_399:\n        /* \"#utility.yul\":9394:9508   */\n      pop\n      jump\t// out\n        /* \"#utility.yul\":9514:9643   */\n    tag_254:\n        /* \"#utility.yul\":9560:9567   */\n      0x00\n        /* \"#utility.yul\":9589:9594   */\n      dup2\n        /* \"#utility.yul\":9578:9594   */\n      swap1\n      pop\n        /* \"#utility.yul\":9595:9637   */\n      tag_402\n        /* \"#utility.yul\":9631:9636   */\n      dup3\n        /* \"#utility.yul\":9595:9637   */\n      tag_253\n      jump\t// in\n    tag_402:\n        /* \"#utility.yul\":9514:9643   */\n      swap2\n      swap1\n      pop\n      jump\t// out\n        /* \"#utility.yul\":9649:9778   */\n    tag_255:\n        /* \"#utility.yul\":9706:9715   */\n      0x00\n        /* \"#utility.yul\":9739:9772   */\n      tag_404\n        /* \"#utility.yul\":9766:9771   */\n      dup3\n        /* \"#utility.yul\":9739:9772   */\n      tag_254\n      jump\t// in\n    tag_404:\n        /* \"#utility.yul\":9726:9772   */\n      swap1\n      pop\n        /* \"#utility.yul\":9649:9778   */\n      swap2\n      swap1\n      pop\n      jump\t// out\n        /* \"#utility.yul\":9784:9929   */\n    tag_256:\n        /* \"#utility.yul\":9878:9922   */\n      tag_406\n        /* \"#utility.yul\":9916:9921   */\n      dup2\n        /* \"#utility.yul\":9878:9922   */\n      tag_255\n      jump\t// in\n    tag_406:\n        /* \"#utility.yul\":9873:9876   */\n      dup3\n        /* \"#utility.yul\":9866:9923   */\n      mstore\n        /* \"#utility.yul\":9784:9929   */\n      pop\n      pop\n      jump\t// out\n        /* \"#utility.yul\":9935:11342   */\n    tag_33:\n        /* \"#utility.yul\":10327:10331   */\n      0x00\n        /* \"#utility.yul\":10365:10368   */\n      0x0100\n        /* \"#utility.yul\":10354:10363   */\n      dup3\n        /* \"#utility.yul\":10350:10369   */\n      add\n        /* \"#utility.yul\":10342:10369   */\n      swap1\n      pop\n        /* \"#utility.yul\":10415:10424   */\n      dup2\n        /* \"#utility.yul\":10409:10413   */\n      dup2\n        /* \"#utility.yul\":10405:10425   */\n      sub\n        /* \"#utility.yul\":10401:10402   */\n      0x00\n        /* \"#utility.yul\":10390:10399   */\n      dup4\n        /* \"#utility.yul\":10386:10403   */\n      add\n        /* \"#utility.yul\":10379:10426   */\n      mstore\n        /* \"#utility.yul\":10443:10521   */\n      tag_408\n        /* \"#utility.yul\":10516:10520   */\n      dup2\n        /* \"#utility.yul\":10507:10513   */\n      dup12\n        /* \"#utility.yul\":10443:10521   */\n      tag_250\n      jump\t// in\n    tag_408:\n        /* \"#utility.yul\":10435:10521   */\n      swap1\n      pop\n        /* \"#utility.yul\":10568:10577   */\n      dup2\n        /* \"#utility.yul\":10562:10566   */\n      dup2\n        /* \"#utility.yul\":10558:10578   */\n      sub\n        /* \"#utility.yul\":10553:10555   */\n      0x20\n        /* \"#utility.yul\":10542:10551   */\n      dup4\n        /* \"#utility.yul\":10538:10556   */\n      add\n        /* \"#utility.yul\":10531:10579   */\n      mstore\n        /* \"#utility.yul\":10596:10674   */\n      tag_409\n        /* \"#utility.yul\":10669:10673   */\n      dup2\n        /* \"#utility.yul\":10660:10666   */\n      dup11\n        /* \"#utility.yul\":10596:10674   */\n      tag_250\n      jump\t// in\n    tag_409:\n        /* \"#utility.yul\":10588:10674   */\n      swap1\n      pop\n        /* \"#utility.yul\":10721:10730   */\n      dup2\n        /* \"#utility.yul\":10715:10719   */\n      dup2\n        /* \"#utility.yul\":10711:10731   */\n      sub\n        /* \"#utility.yul\":10706:10708   */\n      0x40\n        /* \"#utility.yul\":10695:10704   */\n      dup4\n        /* \"#utility.yul\":10691:10709   */\n      add\n        /* \"#utility.yul\":10684:10732   */\n      mstore\n        /* \"#utility.yul\":10749:10827   */\n      tag_410\n        /* \"#utility.yul\":10822:10826   */\n      dup2\n        /* \"#utility.yul\":10813:10819   */\n      dup10\n        /* \"#utility.yul\":10749:10827   */\n      tag_250\n      jump\t// in\n    tag_410:\n        /* \"#utility.yul\":10741:10827   */\n      swap1\n      pop\n        /* \"#utility.yul\":10837:10925   */\n      tag_411\n        /* \"#utility.yul\":10921:10923   */\n      0x60\n        /* \"#utility.yul\":10910:10919   */\n      dup4\n        /* \"#utility.yul\":10906:10924   */\n      add\n        /* \"#utility.yul\":10897:10903   */\n      dup9\n        /* \"#utility.yul\":10837:10925   */\n      tag_252\n      jump\t// in\n    tag_411:\n        /* \"#utility.yul\":10973:10982   */\n      dup2\n        /* \"#utility.yul\":10967:10971   */\n      dup2\n        /* \"#utility.yul\":10963:10983   */\n      sub\n        /* \"#utility.yul\":10957:10960   */\n      0x80\n        /* \"#utility.yul\":10946:10955   */\n      dup4\n        /* \"#utility.yul\":10942:10961   */\n      add\n        /* \"#utility.yul\":10935:10984   */\n      mstore\n        /* \"#utility.yul\":11001:11079   */\n      tag_412\n        /* \"#utility.yul\":11074:11078   */\n      dup2\n        /* \"#utility.yul\":11065:11071   */\n      dup8\n        /* \"#utility.yul\":11001:11079   */\n      tag_250\n      jump\t// in\n    tag_412:\n        /* \"#utility.yul\":10993:11079   */\n      swap1\n      pop\n        /* \"#utility.yul\":11089:11169   */\n      tag_413\n        /* \"#utility.yul\":11164:11167   */\n      0xa0\n        /* \"#utility.yul\":11153:11162   */\n      dup4\n        /* \"#utility.yul\":11149:11168   */\n      add\n        /* \"#utility.yul\":11140:11146   */\n      dup7\n        /* \"#utility.yul\":11089:11169   */\n      tag_256\n      jump\t// in\n    tag_413:\n        /* \"#utility.yul\":11179:11252   */\n      tag_414\n        /* \"#utility.yul\":11247:11250   */\n      0xc0\n        /* \"#utility.yul\":11236:11245   */\n      dup4\n        /* \"#utility.yul\":11232:11251   */\n      add\n        /* \"#utility.yul\":11223:11229   */\n      dup6\n        /* \"#utility.yul\":11179:11252   */\n      tag_246\n      jump\t// in\n    tag_414:\n        /* \"#utility.yul\":11262:11335   */\n      tag_415\n        /* \"#utility.yul\":11330:11333   */\n      0xe0\n        /* \"#utility.yul\":11319:11328   */\n      dup4\n        /* \"#utility.yul\":11315:11334   */\n      add\n        /* \"#utility.yul\":11306:11312   */\n      dup5\n        /* \"#utility.yul\":11262:11335   */\n      tag_246\n      jump\t// in\n    tag_415:\n        /* \"#utility.yul\":9935:11342   */\n      swap10\n      swap9\n      pop\n      pop\n      pop\n      pop\n      pop\n      pop\n      pop\n      pop\n      pop\n      jump\t// out\n        /* \"#utility.yul\":11348:11528   */\n    tag_37:\n        /* \"#utility.yul\":11396:11473   */\n      0x4e487b7100000000000000000000000000000000000000000000000000000000\n        /* \"#utility.yul\":11393:11394   */\n      0x00\n        /* \"#utility.yul\":11386:11474   */\n      mstore\n        /* \"#utility.yul\":11493:11497   */\n      0x32\n        /* \"#utility.yul\":11490:11491   */\n      0x04\n        /* \"#utility.yul\":11483:11498   */\n      mstore\n        /* \"#utility.yul\":11517:11521   */\n      0x24\n        /* \"#utility.yul\":11514:11515   */\n      0x00\n        /* \"#utility.yul\":11507:11522   */\n      revert\n        /* \"#utility.yul\":11534:11781   */\n    tag_257:\n        /* \"#utility.yul\":11674:11708   */\n      0x536f72727920627574206f6e6c792074686520617574686f722063616e206368\n        /* \"#utility.yul\":11670:11671   */\n      0x00\n        /* \"#utility.yul\":11662:11668   */\n      dup3\n        /* \"#utility.yul\":11658:11672   */\n      add\n        /* \"#utility.yul\":11651:11709   */\n      mstore\n        /* \"#utility.yul\":11743:11773   */\n      0x616e676520746865206e616d65206f66207468652070726f6a65637400000000\n        /* \"#utility.yul\":11738:11740   */\n      0x20\n        /* \"#utility.yul\":11730:11736   */\n      dup3\n        /* \"#utility.yul\":11726:11741   */\n      add\n        /* \"#utility.yul\":11719:11774   */\n      mstore\n        /* \"#utility.yul\":11534:11781   */\n      pop\n      jump\t// out\n        /* \"#utility.yul\":11787:12153   */\n    tag_258:\n        /* \"#utility.yul\":11929:11932   */\n      0x00\n        /* \"#utility.yul\":11950:12017   */\n      tag_419\n        /* \"#utility.yul\":12014:12016   */\n      0x3c\n        /* \"#utility.yul\":12009:12012   */\n      dup4\n        /* \"#utility.yul\":11950:12017   */\n      tag_248\n      jump\t// in\n    tag_419:\n        /* \"#utility.yul\":11943:12017   */\n      swap2\n      pop\n        /* \"#utility.yul\":12026:12119   */\n      tag_420\n        /* \"#utility.yul\":12115:12118   */\n      dup3\n        /* \"#utility.yul\":12026:12119   */\n      tag_257\n      jump\t// in\n    tag_420:\n        /* \"#utility.yul\":12144:12146   */\n      0x40\n        /* \"#utility.yul\":12139:12142   */\n      dup3\n        /* \"#utility.yul\":12135:12147   */\n      add\n        /* \"#utility.yul\":12128:12147   */\n      swap1\n      pop\n        /* \"#utility.yul\":11787:12153   */\n      swap2\n      swap1\n      pop\n      jump\t// out\n        /* \"#utility.yul\":12159:12578   */\n    tag_41:\n        /* \"#utility.yul\":12325:12329   */\n      0x00\n        /* \"#utility.yul\":12363:12365   */\n      0x20\n        /* \"#utility.yul\":12352:12361   */\n      dup3\n        /* \"#utility.yul\":12348:12366   */\n      add\n        /* \"#utility.yul\":12340:12366   */\n      swap1\n      pop\n        /* \"#utility.yul\":12412:12421   */\n      dup2\n        /* \"#utility.yul\":12406:12410   */\n      dup2\n        /* \"#utility.yul\":12402:12422   */\n      sub\n        /* \"#utility.yul\":12398:12399   */\n      0x00\n        /* \"#utility.yul\":12387:12396   */\n      dup4\n        /* \"#utility.yul\":12383:12400   */\n      add\n        /* \"#utility.yul\":12376:12423   */\n      mstore\n        /* \"#utility.yul\":12440:12571   */\n      tag_422\n        /* \"#utility.yul\":12566:12570   */\n      dup2\n        /* \"#utility.yul\":12440:12571   */\n      tag_258\n      jump\t// in\n    tag_422:\n        /* \"#utility.yul\":12432:12571   */\n      swap1\n      pop\n        /* \"#utility.yul\":12159:12578   */\n      swap2\n      swap1\n      pop\n      jump\t// out\n        /* \"#utility.yul\":12584:12764   */\n    tag_259:\n        /* \"#utility.yul\":12632:12709   */\n      0x4e487b7100000000000000000000000000000000000000000000000000000000\n        /* \"#utility.yul\":12629:12630   */\n      0x00\n        /* \"#utility.yul\":12622:12710   */\n      mstore\n        /* \"#utility.yul\":12729:12733   */\n      0x22\n        /* \"#utility.yul\":12726:12727   */\n      0x04\n        /* \"#utility.yul\":12719:12734   */\n      mstore\n        /* \"#utility.yul\":12753:12757   */\n      0x24\n        /* \"#utility.yul\":12750:12751   */\n      0x00\n        /* \"#utility.yul\":12743:12758   */\n      revert\n        /* \"#utility.yul\":12770:13090   */\n    tag_47:\n        /* \"#utility.yul\":12814:12820   */\n      0x00\n        /* \"#utility.yul\":12851:12852   */\n      0x02\n        /* \"#utility.yul\":12845:12849   */\n      dup3\n        /* \"#utility.yul\":12841:12853   */\n      div\n        /* \"#utility.yul\":12831:12853   */\n      swap1\n      pop\n        /* \"#utility.yul\":12898:12899   */\n      0x01\n        /* \"#utility.yul\":12892:12896   */\n      dup3\n        /* \"#utility.yul\":12888:12900   */\n      and\n        /* \"#utility.yul\":12919:12937   */\n      dup1\n        /* \"#utility.yul\":12909:12990   */\n      tag_425\n      jumpi\n        /* \"#utility.yul\":12975:12979   */\n      0x7f\n        /* \"#utility.yul\":12967:12973   */\n      dup3\n        /* \"#utility.yul\":12963:12980   */\n      and\n        /* \"#utility.yul\":12953:12980   */\n      swap2\n      pop\n        /* \"#utility.yul\":12909:12990   */\n    tag_425:\n        /* \"#utility.yul\":13037:13039   */\n      0x20\n        /* \"#utility.yul\":13029:13035   */\n      dup3\n        /* \"#utility.yul\":13026:13040   */\n      lt\n        /* \"#utility.yul\":13006:13024   */\n      dup2\n        /* \"#utility.yul\":13003:13041   */\n      sub\n        /* \"#utility.yul\":13000:13084   */\n      tag_426\n      jumpi\n        /* \"#utility.yul\":13056:13074   */\n      tag_427\n      tag_259\n      jump\t// in\n    tag_427:\n        /* \"#utility.yul\":13000:13084   */\n    tag_426:\n        /* \"#utility.yul\":12821:13090   */\n      pop\n        /* \"#utility.yul\":12770:13090   */\n      swap2\n      swap1\n      pop\n      jump\t// out\n        /* \"#utility.yul\":13096:13271   */\n    tag_260:\n        /* \"#utility.yul\":13236:13263   */\n      0x54686973207374617465206973206e6f7420646566696e656400000000000000\n        /* \"#utility.yul\":13232:13233   */\n      0x00\n        /* \"#utility.yul\":13224:13230   */\n      dup3\n        /* \"#utility.yul\":13220:13234   */\n      add\n        /* \"#utility.yul\":13213:13264   */\n      mstore\n        /* \"#utility.yul\":13096:13271   */\n      pop\n      jump\t// out\n        /* \"#utility.yul\":13277:13643   */\n    tag_261:\n        /* \"#utility.yul\":13419:13422   */\n      0x00\n        /* \"#utility.yul\":13440:13507   */\n      tag_430\n        /* \"#utility.yul\":13504:13506   */\n      0x19\n        /* \"#utility.yul\":13499:13502   */\n      dup4\n        /* \"#utility.yul\":13440:13507   */\n      tag_248\n      jump\t// in\n    tag_430:\n        /* \"#utility.yul\":13433:13507   */\n      swap2\n      pop\n        /* \"#utility.yul\":13516:13609   */\n      tag_431\n        /* \"#utility.yul\":13605:13608   */\n      dup3\n        /* \"#utility.yul\":13516:13609   */\n      tag_260\n      jump\t// in\n    tag_431:\n        /* \"#utility.yul\":13634:13636   */\n      0x20\n        /* \"#utility.yul\":13629:13632   */\n      dup3\n        /* \"#utility.yul\":13625:13637   */\n      add\n        /* \"#utility.yul\":13618:13637   */\n      swap1\n      pop\n        /* \"#utility.yul\":13277:13643   */\n      swap2\n      swap1\n      pop\n      jump\t// out\n        /* \"#utility.yul\":13649:14068   */\n    tag_83:\n        /* \"#utility.yul\":13815:13819   */\n      0x00\n        /* \"#utility.yul\":13853:13855   */\n      0x20\n        /* \"#utility.yul\":13842:13851   */\n      dup3\n        /* \"#utility.yul\":13838:13856   */\n      add\n        /* \"#utility.yul\":13830:13856   */\n      swap1\n      pop\n        /* \"#utility.yul\":13902:13911   */\n      dup2\n        /* \"#utility.yul\":13896:13900   */\n      dup2\n        /* \"#utility.yul\":13892:13912   */\n      sub\n        /* \"#utility.yul\":13888:13889   */\n      0x00\n        /* \"#utility.yul\":13877:13886   */\n      dup4\n        /* \"#utility.yul\":13873:13890   */\n      add\n        /* \"#utility.yul\":13866:13913   */\n      mstore\n        /* \"#utility.yul\":13930:14061   */\n      tag_433\n        /* \"#utility.yul\":14056:14060   */\n      dup2\n        /* \"#utility.yul\":13930:14061   */\n      tag_261\n      jump\t// in\n    tag_433:\n        /* \"#utility.yul\":13922:14061   */\n      swap1\n      pop\n        /* \"#utility.yul\":13649:14068   */\n      swap2\n      swap1\n      pop\n      jump\t// out\n        /* \"#utility.yul\":14074:14305   */\n    tag_262:\n        /* \"#utility.yul\":14214:14248   */\n      0x546865207374617465207468617420796f7527726520747279696e6720697427\n        /* \"#utility.yul\":14210:14211   */\n      0x00\n        /* \"#utility.yul\":14202:14208   */\n      dup3\n        /* \"#utility.yul\":14198:14212   */\n      add\n        /* \"#utility.yul\":14191:14249   */\n      mstore\n        /* \"#utility.yul\":14283:14297   */\n      0x7320616c7265616479206f6e0000000000000000000000000000000000000000\n        /* \"#utility.yul\":14278:14280   */\n      0x20\n        /* \"#utility.yul\":14270:14276   */\n      dup3\n        /* \"#utility.yul\":14266:14281   */\n      add\n        /* \"#utility.yul\":14259:14298   */\n      mstore\n        /* \"#utility.yul\":14074:14305   */\n      pop\n      jump\t// out\n        /* \"#utility.yul\":14311:14677   */\n    tag_263:\n        /* \"#utility.yul\":14453:14456   */\n      0x00\n        /* \"#utility.yul\":14474:14541   */\n      tag_436\n        /* \"#utility.yul\":14538:14540   */\n      0x2c\n        /* \"#utility.yul\":14533:14536   */\n      dup4\n        /* \"#utility.yul\":14474:14541   */\n      tag_248\n      jump\t// in\n    tag_436:\n        /* \"#utility.yul\":14467:14541   */\n      swap2\n      pop\n        /* \"#utility.yul\":14550:14643   */\n      tag_437\n        /* \"#utility.yul\":14639:14642   */\n      dup3\n        /* \"#utility.yul\":14550:14643   */\n      tag_262\n      jump\t// in\n    tag_437:\n        /* \"#utility.yul\":14668:14670   */\n      0x40\n        /* \"#utility.yul\":14663:14666   */\n      dup3\n        /* \"#utility.yul\":14659:14671   */\n      add\n        /* \"#utility.yul\":14652:14671   */\n      swap1\n      pop\n        /* \"#utility.yul\":14311:14677   */\n      swap2\n      swap1\n      pop\n      jump\t// out\n        /* \"#utility.yul\":14683:15102   */\n    tag_90:\n        /* \"#utility.yul\":14849:14853   */\n      0x00\n        /* \"#utility.yul\":14887:14889   */\n      0x20\n        /* \"#utility.yul\":14876:14885   */\n      dup3\n        /* \"#utility.yul\":14872:14890   */\n      add\n        /* \"#utility.yul\":14864:14890   */\n      swap1\n      pop\n        /* \"#utility.yul\":14936:14945   */\n      dup2\n        /* \"#utility.yul\":14930:14934   */\n      dup2\n        /* \"#utility.yul\":14926:14946   */\n      sub\n        /* \"#utility.yul\":14922:14923   */\n      0x00\n        /* \"#utility.yul\":14911:14920   */\n      dup4\n        /* \"#utility.yul\":14907:14924   */\n      add\n        /* \"#utility.yul\":14900:14947   */\n      mstore\n        /* \"#utility.yul\":14964:15095   */\n      tag_439\n        /* \"#utility.yul\":15090:15094   */\n      dup2\n        /* \"#utility.yul\":14964:15095   */\n      tag_263\n      jump\t// in\n    tag_439:\n        /* \"#utility.yul\":14956:15095   */\n      swap1\n      pop\n        /* \"#utility.yul\":14683:15102   */\n      swap2\n      swap1\n      pop\n      jump\t// out\n        /* \"#utility.yul\":15108:15249   */\n    tag_264:\n        /* \"#utility.yul\":15157:15161   */\n      0x00\n        /* \"#utility.yul\":15180:15183   */\n      dup2\n        /* \"#utility.yul\":15172:15183   */\n      swap1\n      pop\n        /* \"#utility.yul\":15203:15206   */\n      dup2\n        /* \"#utility.yul\":15200:15201   */\n      0x00\n        /* \"#utility.yul\":15193:15207   */\n      mstore\n        /* \"#utility.yul\":15237:15241   */\n      0x20\n        /* \"#utility.yul\":15234:15235   */\n      0x00\n        /* \"#utility.yul\":15224:15242   */\n      keccak256\n        /* \"#utility.yul\":15216:15242   */\n      swap1\n      pop\n        /* \"#utility.yul\":15108:15249   */\n      swap2\n      swap1\n      pop\n      jump\t// out\n        /* \"#utility.yul\":15255:15348   */\n    tag_265:\n        /* \"#utility.yul\":15292:15298   */\n      0x00\n        /* \"#utility.yul\":15339:15341   */\n      0x20\n        /* \"#utility.yul\":15334:15336   */\n      0x1f\n        /* \"#utility.yul\":15327:15332   */\n      dup4\n        /* \"#utility.yul\":15323:15337   */\n      add\n        /* \"#utility.yul\":15319:15342   */\n      div\n        /* \"#utility.yul\":15309:15342   */\n      swap1\n      pop\n        /* \"#utility.yul\":15255:15348   */\n      swap2\n      swap1\n      pop\n      jump\t// out\n        /* \"#utility.yul\":15354:15461   */\n    tag_266:\n        /* \"#utility.yul\":15398:15406   */\n      0x00\n        /* \"#utility.yul\":15448:15453   */\n      dup3\n        /* \"#utility.yul\":15442:15446   */\n      dup3\n        /* \"#utility.yul\":15438:15454   */\n      shl\n        /* \"#utility.yul\":15417:15454   */\n      swap1\n      pop\n        /* \"#utility.yul\":15354:15461   */\n      swap3\n      swap2\n      pop\n      pop\n      jump\t// out\n        /* \"#utility.yul\":15467:15860   */\n    tag_267:\n        /* \"#utility.yul\":15536:15542   */\n      0x00\n        /* \"#utility.yul\":15586:15587   */\n      0x08\n        /* \"#utility.yul\":15574:15584   */\n      dup4\n        /* \"#utility.yul\":15570:15588   */\n      mul\n        /* \"#utility.yul\":15609:15706   */\n      tag_444\n        /* \"#utility.yul\":15639:15705   */\n      0xffffffffffffffffffffffffffffffffffffffffffffffffffffffffffffffff\n        /* \"#utility.yul\":15628:15637   */\n      dup3\n        /* \"#utility.yul\":15609:15706   */\n      tag_266\n      jump\t// in\n    tag_444:\n        /* \"#utility.yul\":15727:15766   */\n      tag_445\n        /* \"#utility.yul\":15757:15765   */\n      dup7\n        /* \"#utility.yul\":15746:15755   */\n      dup4\n        /* \"#utility.yul\":15727:15766   */\n      tag_266\n      jump\t// in\n    tag_445:\n        /* \"#utility.yul\":15715:15766   */\n      swap6\n      pop\n        /* \"#utility.yul\":15799:15803   */\n      dup1\n        /* \"#utility.yul\":15795:15804   */\n      not\n        /* \"#utility.yul\":15788:15793   */\n      dup5\n        /* \"#utility.yul\":15784:15805   */\n      and\n        /* \"#utility.yul\":15775:15805   */\n      swap4\n      pop\n        /* \"#utility.yul\":15848:15852   */\n      dup1\n        /* \"#utility.yul\":15838:15846   */\n      dup7\n        /* \"#utility.yul\":15834:15853   */\n      and\n        /* \"#utility.yul\":15827:15832   */\n      dup5\n        /* \"#utility.yul\":15824:15854   */\n      or\n        /* \"#utility.yul\":15814:15854   */\n      swap3\n      pop\n        /* \"#utility.yul\":15543:15860   */\n      pop\n      pop\n        /* \"#utility.yul\":15467:15860   */\n      swap4\n      swap3\n      pop\n      pop\n      pop\n      jump\t// out\n        /* \"#utility.yul\":15866:15926   */\n    tag_268:\n        /* \"#utility.yul\":15894:15897   */\n      0x00\n        /* \"#utility.yul\":15915:15920   */\n      dup2\n        /* \"#utility.yul\":15908:15920   */\n      swap1\n      pop\n        /* \"#utility.yul\":15866:15926   */\n      swap2\n      swap1\n      pop\n      jump\t// out\n        /* \"#utility.yul\":15932:16074   */\n    tag_269:\n        /* \"#utility.yul\":15982:15991   */\n      0x00\n        /* \"#utility.yul\":16015:16068   */\n      tag_448\n        /* \"#utility.yul\":16033:16067   */\n      tag_449\n        /* \"#utility.yul\":16042:16066   */\n      tag_450\n        /* \"#utility.yul\":16060:16065   */\n      dup5\n        /* \"#utility.yul\":16042:16066   */\n      tag_227\n      jump\t// in\n    tag_450:\n        /* \"#utility.yul\":16033:16067   */\n      tag_268\n      jump\t// in\n    tag_449:\n        /* \"#utility.yul\":16015:16068   */\n      tag_227\n      jump\t// in\n    tag_448:\n        /* \"#utility.yul\":16002:16068   */\n      swap1\n      pop\n        /* \"#utility.yul\":15932:16074   */\n      swap2\n      swap1\n      pop\n      jump\t// out\n        /* \"#utility.yul\":16080:16155   */\n    tag_270:\n        /* \"#utility.yul\":16123:16126   */\n      0x00\n        /* \"#utility.yul\":16144:16149   */\n      dup2\n        /* \"#utility.yul\":16137:16149   */\n      swap1\n      pop\n        /* \"#utility.yul\":16080:16155   */\n      swap2\n      swap1\n      pop\n      jump\t// out\n        /* \"#utility.yul\":16161:16430   */\n    tag_271:\n        /* \"#utility.yul\":16271:16310   */\n      tag_453\n        /* \"#utility.yul\":16302:16309   */\n      dup4\n        /* \"#utility.yul\":16271:16310   */\n      tag_269\n      jump\t// in\n    tag_453:\n        /* \"#utility.yul\":16332:16423   */\n      tag_454\n        /* \"#utility.yul\":16381:16422   */\n      tag_455\n        /* \"#utility.yul\":16405:16421   */\n      dup3\n        /* \"#utility.yul\":16381:16422   */\n      tag_270\n      jump\t// in\n    tag_455:\n        /* \"#utility.yul\":16373:16379   */\n      dup5\n        /* \"#utility.yul\":16366:16370   */\n      dup5\n        /* \"#utility.yul\":16360:16371   */\n      sload\n        /* \"#utility.yul\":16332:16423   */\n      tag_267\n      jump\t// in\n    tag_454:\n        /* \"#utility.yul\":16326:16330   */\n      dup3\n        /* \"#utility.yul\":16319:16424   */\n      sstore\n        /* \"#utility.yul\":16237:16430   */\n      pop\n        /* \"#utility.yul\":16161:16430   */\n      pop\n      pop\n      pop\n      jump\t// out\n        /* \"#utility.yul\":16436:16509   */\n    tag_272:\n        /* \"#utility.yul\":16481:16484   */\n      0x00\n        /* \"#utility.yul\":16436:16509   */\n      swap1\n      jump\t// out\n        /* \"#utility.yul\":16515:16704   */\n    tag_273:\n        /* \"#utility.yul\":16592:16624   */\n      tag_458\n      tag_272\n      jump\t// in\n    tag_458:\n        /* \"#utility.yul\":16633:16698   */\n      tag_459\n        /* \"#utility.yul\":16691:16697   */\n      dup2\n        /* \"#utility.yul\":16683:16689   */\n      dup5\n        /* \"#utility.yul\":16677:16681   */\n      dup5\n        /* \"#utility.yul\":16633:16698   */\n      tag_271\n      jump\t// in\n    tag_459:\n        /* \"#utility.yul\":16568:16704   */\n      pop\n        /* \"#utility.yul\":16515:16704   */\n      pop\n      pop\n      jump\t// out\n        /* \"#utility.yul\":16710:16896   */\n    tag_274:\n        /* \"#utility.yul\":16770:16890   */\n    tag_461:\n        /* \"#utility.yul\":16787:16790   */\n      dup2\n        /* \"#utility.yul\":16780:16785   */\n      dup2\n        /* \"#utility.yul\":16777:16791   */\n      lt\n        /* \"#utility.yul\":16770:16890   */\n      iszero\n      tag_463\n      jumpi\n        /* \"#utility.yul\":16841:16880   */\n      tag_464\n        /* \"#utility.yul\":16878:16879   */\n      0x00\n        /* \"#utility.yul\":16871:16876   */\n      dup3\n        /* \"#utility.yul\":16841:16880   */\n      tag_273\n      jump\t// in\n    tag_464:\n        /* \"#utility.yul\":16814:16815   */\n      0x01\n        /* \"#utility.yul\":16807:16812   */\n      dup2\n        /* \"#utility.yul\":16803:16816   */\n      add\n        /* \"#utility.yul\":16794:16816   */\n      swap1\n      pop\n        /* \"#utility.yul\":16770:16890   */\n      jump(tag_461)\n    tag_463:\n        /* \"#utility.yul\":16710:16896   */\n      pop\n      pop\n      jump\t// out\n        /* \"#utility.yul\":16902:17445   */\n    tag_275:\n        /* \"#utility.yul\":17003:17005   */\n      0x1f\n        /* \"#utility.yul\":16998:17001   */\n      dup3\n        /* \"#utility.yul\":16995:17006   */\n      gt\n        /* \"#utility.yul\":16992:17438   */\n      iszero\n      tag_466\n      jumpi\n        /* \"#utility.yul\":17037:17075   */\n      tag_467\n        /* \"#utility.yul\":17069:17074   */\n      dup2\n        /* \"#utility.yul\":17037:17075   */\n      tag_264\n      jump\t// in\n    tag_467:\n        /* \"#utility.yul\":17121:17150   */\n      tag_468\n        /* \"#utility.yul\":17139:17149   */\n      dup5\n        /* \"#utility.yul\":17121:17150   */\n      tag_265\n      jump\t// in\n    tag_468:\n        /* \"#utility.yul\":17111:17119   */\n      dup2\n        /* \"#utility.yul\":17107:17151   */\n      add\n        /* \"#utility.yul\":17304:17306   */\n      0x20\n        /* \"#utility.yul\":17292:17302   */\n      dup6\n        /* \"#utility.yul\":17289:17307   */\n      lt\n        /* \"#utility.yul\":17286:17335   */\n      iszero\n      tag_469\n      jumpi\n        /* \"#utility.yul\":17325:17333   */\n      dup2\n        /* \"#utility.yul\":17310:17333   */\n      swap1\n      pop\n        /* \"#utility.yul\":17286:17335   */\n    tag_469:\n        /* \"#utility.yul\":17348:17428   */\n      tag_470\n        /* \"#utility.yul\":17404:17426   */\n      tag_471\n        /* \"#utility.yul\":17422:17425   */\n      dup6\n        /* \"#utility.yul\":17404:17426   */\n      tag_265\n      jump\t// in\n    tag_471:\n        /* \"#utility.yul\":17394:17402   */\n      dup4\n        /* \"#utility.yul\":17390:17427   */\n      add\n        /* \"#utility.yul\":17377:17388   */\n      dup3\n        /* \"#utility.yul\":17348:17428   */\n      tag_274\n      jump\t// in\n    tag_470:\n        /* \"#utility.yul\":17007:17438   */\n      pop\n      pop\n        /* \"#utility.yul\":16992:17438   */\n    tag_466:\n        /* \"#utility.yul\":16902:17445   */\n      pop\n      pop\n      pop\n      jump\t// out\n        /* \"#utility.yul\":17451:17568   */\n    tag_276:\n        /* \"#utility.yul\":17505:17513   */\n      0x00\n        /* \"#utility.yul\":17555:17560   */\n      dup3\n        /* \"#utility.yul\":17549:17553   */\n      dup3\n        /* \"#utility.yul\":17545:17561   */\n      shr\n        /* \"#utility.yul\":17524:17561   */\n      swap1\n      pop\n        /* \"#utility.yul\":17451:17568   */\n      swap3\n      swap2\n      pop\n      pop\n      jump\t// out\n        /* \"#utility.yul\":17574:17743   */\n    tag_277:\n        /* \"#utility.yul\":17618:17624   */\n      0x00\n        /* \"#utility.yul\":17651:17702   */\n      tag_474\n        /* \"#utility.yul\":17699:17700   */\n      0x00\n        /* \"#utility.yul\":17695:17701   */\n      not\n        /* \"#utility.yul\":17687:17692   */\n      dup5\n        /* \"#utility.yul\":17684:17685   */\n      0x08\n        /* \"#utility.yul\":17680:17693   */\n      mul\n        /* \"#utility.yul\":17651:17702   */\n      tag_276\n      jump\t// in\n    tag_474:\n        /* \"#utility.yul\":17647:17703   */\n      not\n        /* \"#utility.yul\":17732:17736   */\n      dup1\n        /* \"#utility.yul\":17726:17730   */\n      dup4\n        /* \"#utility.yul\":17722:17737   */\n      and\n        /* \"#utility.yul\":17712:17737   */\n      swap2\n      pop\n        /* \"#utility.yul\":17625:17743   */\n      pop\n        /* \"#utility.yul\":17574:17743   */\n      swap3\n      swap2\n      pop\n      pop\n      jump\t// out\n        /* \"#utility.yul\":17748:18043   */\n    tag_278:\n        /* \"#utility.yul\":17824:17828   */\n      0x00\n        /* \"#utility.yul\":17970:17999   */\n      tag_476\n        /* \"#utility.yul\":17995:17998   */\n      dup4\n        /* \"#utility.yul\":17989:17993   */\n      dup4\n        /* \"#utility.yul\":17970:17999   */\n      tag_277\n      jump\t// in\n    tag_476:\n        /* \"#utility.yul\":17962:17999   */\n      swap2\n      pop\n        /* \"#utility.yul\":18032:18035   */\n      dup3\n        /* \"#utility.yul\":18029:18030   */\n      0x02\n        /* \"#utility.yul\":18025:18036   */\n      mul\n        /* \"#utility.yul\":18019:18023   */\n      dup3\n        /* \"#utility.yul\":18016:18037   */\n      or\n        /* \"#utility.yul\":18008:18037   */\n      swap1\n      pop\n        /* \"#utility.yul\":17748:18043   */\n      swap3\n      swap2\n      pop\n      pop\n      jump\t// out\n        /* \"#utility.yul\":18048:19443   */\n    tag_110:\n        /* \"#utility.yul\":18165:18202   */\n      tag_478\n        /* \"#utility.yul\":18198:18201   */\n      dup3\n        /* \"#utility.yul\":18165:18202   */\n      tag_247\n      jump\t// in\n    tag_478:\n        /* \"#utility.yul\":18267:18285   */\n      0xffffffffffffffff\n        /* \"#utility.yul\":18259:18265   */\n      dup2\n        /* \"#utility.yul\":18256:18286   */\n      gt\n        /* \"#utility.yul\":18253:18309   */\n      iszero\n      tag_479\n      jumpi\n        /* \"#utility.yul\":18289:18307   */\n      tag_480\n      tag_236\n      jump\t// in\n    tag_480:\n        /* \"#utility.yul\":18253:18309   */\n    tag_479:\n        /* \"#utility.yul\":18333:18371   */\n      tag_481\n        /* \"#utility.yul\":18365:18369   */\n      dup3\n        /* \"#utility.yul\":18359:18370   */\n      sload\n        /* \"#utility.yul\":18333:18371   */\n      tag_47\n      jump\t// in\n    tag_481:\n        /* \"#utility.yul\":18418:18485   */\n      tag_482\n        /* \"#utility.yul\":18478:18484   */\n      dup3\n        /* \"#utility.yul\":18470:18476   */\n      dup3\n        /* \"#utility.yul\":18464:18468   */\n      dup6\n        /* \"#utility.yul\":18418:18485   */\n      tag_275\n      jump\t// in\n    tag_482:\n        /* \"#utility.yul\":18512:18513   */\n      0x00\n        /* \"#utility.yul\":18536:18540   */\n      0x20\n        /* \"#utility.yul\":18523:18540   */\n      swap1\n      pop\n        /* \"#utility.yul\":18568:18570   */\n      0x1f\n        /* \"#utility.yul\":18560:18566   */\n      dup4\n        /* \"#utility.yul\":18557:18571   */\n      gt\n        /* \"#utility.yul\":18585:18586   */\n      0x01\n        /* \"#utility.yul\":18580:19198   */\n      dup2\n      eq\n      tag_484\n      jumpi\n        /* \"#utility.yul\":19242:19243   */\n      0x00\n        /* \"#utility.yul\":19259:19265   */\n      dup5\n        /* \"#utility.yul\":19256:19333   */\n      iszero\n      tag_485\n      jumpi\n        /* \"#utility.yul\":19308:19317   */\n      dup3\n        /* \"#utility.yul\":19303:19306   */\n      dup8\n        /* \"#utility.yul\":19299:19318   */\n      add\n        /* \"#utility.yul\":19293:19319   */\n      mload\n        /* \"#utility.yul\":19284:19319   */\n      swap1\n      pop\n        /* \"#utility.yul\":19256:19333   */\n    tag_485:\n        /* \"#utility.yul\":19359:19426   */\n      tag_486\n        /* \"#utility.yul\":19419:19425   */\n      dup6\n        /* \"#utility.yul\":19412:19417   */\n      dup3\n        /* \"#utility.yul\":19359:19426   */\n      tag_278\n      jump\t// in\n    tag_486:\n        /* \"#utility.yul\":19353:19357   */\n      dup7\n        /* \"#utility.yul\":19346:19427   */\n      sstore\n        /* \"#utility.yul\":19215:19437   */\n      pop\n        /* \"#utility.yul\":18550:19437   */\n      jump(tag_483)\n        /* \"#utility.yul\":18580:19198   */\n    tag_484:\n        /* \"#utility.yul\":18632:18636   */\n      0x1f\n        /* \"#utility.yul\":18628:18637   */\n      not\n        /* \"#utility.yul\":18620:18626   */\n      dup5\n        /* \"#utility.yul\":18616:18638   */\n      and\n        /* \"#utility.yul\":18666:18703   */\n      tag_487\n        /* \"#utility.yul\":18698:18702   */\n      dup7\n        /* \"#utility.yul\":18666:18703   */\n      tag_264\n      jump\t// in\n    tag_487:\n        /* \"#utility.yul\":18725:18726   */\n      0x00\n        /* \"#utility.yul\":18739:18947   */\n    tag_488:\n        /* \"#utility.yul\":18753:18760   */\n      dup3\n        /* \"#utility.yul\":18750:18751   */\n      dup2\n        /* \"#utility.yul\":18747:18761   */\n      lt\n        /* \"#utility.yul\":18739:18947   */\n      iszero\n      tag_490\n      jumpi\n        /* \"#utility.yul\":18832:18841   */\n      dup5\n        /* \"#utility.yul\":18827:18830   */\n      dup10\n        /* \"#utility.yul\":18823:18842   */\n      add\n        /* \"#utility.yul\":18817:18843   */\n      mload\n        /* \"#utility.yul\":18809:18815   */\n      dup3\n        /* \"#utility.yul\":18802:18844   */\n      sstore\n        /* \"#utility.yul\":18883:18884   */\n      0x01\n        /* \"#utility.yul\":18875:18881   */\n      dup3\n        /* \"#utility.yul\":18871:18885   */\n      add\n        /* \"#utility.yul\":18861:18885   */\n      swap2\n      pop\n        /* \"#utility.yul\":18930:18932   */\n      0x20\n        /* \"#utility.yul\":18919:18928   */\n      dup6\n        /* \"#utility.yul\":18915:18933   */\n      add\n        /* \"#utility.yul\":18902:18933   */\n      swap5\n      pop\n        /* \"#utility.yul\":18776:18780   */\n      0x20\n        /* \"#utility.yul\":18773:18774   */\n      dup2\n        /* \"#utility.yul\":18769:18781   */\n      add\n        /* \"#utility.yul\":18764:18781   */\n      swap1\n      pop\n        /* \"#utility.yul\":18739:18947   */\n      jump(tag_488)\n    tag_490:\n        /* \"#utility.yul\":18975:18981   */\n      dup7\n        /* \"#utility.yul\":18966:18973   */\n      dup4\n        /* \"#utility.yul\":18963:18982   */\n      lt\n        /* \"#utility.yul\":18960:19139   */\n      iszero\n      tag_491\n      jumpi\n        /* \"#utility.yul\":19033:19042   */\n      dup5\n        /* \"#utility.yul\":19028:19031   */\n      dup10\n        /* \"#utility.yul\":19024:19043   */\n      add\n        /* \"#utility.yul\":19018:19044   */\n      mload\n        /* \"#utility.yul\":19076:19124   */\n      tag_492\n        /* \"#utility.yul\":19118:19122   */\n      0x1f\n        /* \"#utility.yul\":19110:19116   */\n      dup10\n        /* \"#utility.yul\":19106:19123   */\n      and\n        /* \"#utility.yul\":19095:19104   */\n      dup3\n        /* \"#utility.yul\":19076:19124   */\n      tag_277\n      jump\t// in\n    tag_492:\n        /* \"#utility.yul\":19068:19074   */\n      dup4\n        /* \"#utility.yul\":19061:19125   */\n      sstore\n        /* \"#utility.yul\":18983:19139   */\n      pop\n        /* \"#utility.yul\":18960:19139   */\n    tag_491:\n        /* \"#utility.yul\":19185:19186   */\n      0x01\n        /* \"#utility.yul\":19181:19182   */\n      0x02\n        /* \"#utility.yul\":19173:19179   */\n      dup9\n        /* \"#utility.yul\":19169:19183   */\n      mul\n        /* \"#utility.yul\":19165:19187   */\n      add\n        /* \"#utility.yul\":19159:19163   */\n      dup9\n        /* \"#utility.yul\":19152:19188   */\n      sstore\n        /* \"#utility.yul\":18587:19198   */\n      pop\n      pop\n      pop\n        /* \"#utility.yul\":18550:19437   */\n    tag_483:\n      pop\n        /* \"#utility.yul\":18140:19443   */\n      pop\n      pop\n      pop\n        /* \"#utility.yul\":18048:19443   */\n      pop\n      pop\n      jump\t// out\n        /* \"#utility.yul\":19449:19963   */\n    tag_117:\n        /* \"#utility.yul\":19610:19614   */\n      0x00\n        /* \"#utility.yul\":19648:19650   */\n      0x40\n        /* \"#utility.yul\":19637:19646   */\n      dup3\n        /* \"#utility.yul\":19633:19651   */\n      add\n        /* \"#utility.yul\":19625:19651   */\n      swap1\n      pop\n        /* \"#utility.yul\":19697:19706   */\n      dup2\n        /* \"#utility.yul\":19691:19695   */\n      dup2\n        /* \"#utility.yul\":19687:19707   */\n      sub\n        /* \"#utility.yul\":19683:19684   */\n      0x00\n        /* \"#utility.yul\":19672:19681   */\n      dup4\n        /* \"#utility.yul\":19668:19685   */\n      add\n        /* \"#utility.yul\":19661:19708   */\n      mstore\n        /* \"#utility.yul\":19725:19803   */\n      tag_494\n        /* \"#utility.yul\":19798:19802   */\n      dup2\n        /* \"#utility.yul\":19789:19795   */\n      dup6\n        /* \"#utility.yul\":19725:19803   */\n      tag_250\n      jump\t// in\n    tag_494:\n        /* \"#utility.yul\":19717:19803   */\n      swap1\n      pop\n        /* \"#utility.yul\":19850:19859   */\n      dup2\n        /* \"#utility.yul\":19844:19848   */\n      dup2\n        /* \"#utility.yul\":19840:19860   */\n      sub\n        /* \"#utility.yul\":19835:19837   */\n      0x20\n        /* \"#utility.yul\":19824:19833   */\n      dup4\n        /* \"#utility.yul\":19820:19838   */\n      add\n        /* \"#utility.yul\":19813:19861   */\n      mstore\n        /* \"#utility.yul\":19878:19956   */\n      tag_495\n        /* \"#utility.yul\":19951:19955   */\n      dup2\n        /* \"#utility.yul\":19942:19948   */\n      dup5\n        /* \"#utility.yul\":19878:19956   */\n      tag_250\n      jump\t// in\n    tag_495:\n        /* \"#utility.yul\":19870:19956   */\n      swap1\n      pop\n        /* \"#utility.yul\":19449:19963   */\n      swap4\n      swap3\n      pop\n      pop\n      pop\n      jump\t// out\n        /* \"#utility.yul\":19969:20195   */\n    tag_279:\n        /* \"#utility.yul\":20109:20143   */\n      0x46756e6472616973696e6720676f616c206d7573742062652067726561746572\n        /* \"#utility.yul\":20105:20106   */\n      0x00\n        /* \"#utility.yul\":20097:20103   */\n      dup3\n        /* \"#utility.yul\":20093:20107   */\n      add\n        /* \"#utility.yul\":20086:20144   */\n      mstore\n        /* \"#utility.yul\":20178:20187   */\n      0x207468616e203000000000000000000000000000000000000000000000000000\n        /* \"#utility.yul\":20173:20175   */\n      0x20\n        /* \"#utility.yul\":20165:20171   */\n      dup3\n        /* \"#utility.yul\":20161:20176   */\n      add\n        /* \"#utility.yul\":20154:20188   */\n      mstore\n        /* \"#utility.yul\":19969:20195   */\n      pop\n      jump\t// out\n        /* \"#utility.yul\":20201:20567   */\n    tag_280:\n        /* \"#utility.yul\":20343:20346   */\n      0x00\n        /* \"#utility.yul\":20364:20431   */\n      tag_498\n        /* \"#utility.yul\":20428:20430   */\n      0x27\n        /* \"#utility.yul\":20423:20426   */\n      dup4\n        /* \"#utility.yul\":20364:20431   */\n      tag_248\n      jump\t// in\n    tag_498:\n        /* \"#utility.yul\":20357:20431   */\n      swap2\n      pop\n        /* \"#utility.yul\":20440:20533   */\n      tag_499\n        /* \"#utility.yul\":20529:20532   */\n      dup3\n        /* \"#utility.yul\":20440:20533   */\n      tag_279\n      jump\t// in\n    tag_499:\n        /* \"#utility.yul\":20558:20560   */\n      0x40\n        /* \"#utility.yul\":20553:20556   */\n      dup3\n        /* \"#utility.yul\":20549:20561   */\n      add\n        /* \"#utility.yul\":20542:20561   */\n      swap1\n      pop\n        /* \"#utility.yul\":20201:20567   */\n      swap2\n      swap1\n      pop\n      jump\t// out\n        /* \"#utility.yul\":20573:20992   */\n    tag_121:\n        /* \"#utility.yul\":20739:20743   */\n      0x00\n        /* \"#utility.yul\":20777:20779   */\n      0x20\n        /* \"#utility.yul\":20766:20775   */\n      dup3\n        /* \"#utility.yul\":20762:20780   */\n      add\n        /* \"#utility.yul\":20754:20780   */\n      swap1\n      pop\n        /* \"#utility.yul\":20826:20835   */\n      dup2\n        /* \"#utility.yul\":20820:20824   */\n      dup2\n        /* \"#utility.yul\":20816:20836   */\n      sub\n        /* \"#utility.yul\":20812:20813   */\n      0x00\n        /* \"#utility.yul\":20801:20810   */\n      dup4\n        /* \"#utility.yul\":20797:20814   */\n      add\n        /* \"#utility.yul\":20790:20837   */\n      mstore\n        /* \"#utility.yul\":20854:20985   */\n      tag_501\n        /* \"#utility.yul\":20980:20984   */\n      dup2\n        /* \"#utility.yul\":20854:20985   */\n      tag_280\n      jump\t// in\n    tag_501:\n        /* \"#utility.yul\":20846:20985   */\n      swap1\n      pop\n        /* \"#utility.yul\":20573:20992   */\n      swap2\n      swap1\n      pop\n      jump\t// out\n        /* \"#utility.yul\":21022:21339   */\n    tag_281:\n        /* \"#utility.yul\":21120:21123   */\n      0x00\n        /* \"#utility.yul\":21141:21212   */\n      tag_503\n        /* \"#utility.yul\":21205:21211   */\n      dup4\n        /* \"#utility.yul\":21200:21203   */\n      dup6\n        /* \"#utility.yul\":21141:21212   */\n      tag_248\n      jump\t// in\n    tag_503:\n        /* \"#utility.yul\":21134:21212   */\n      swap4\n      pop\n        /* \"#utility.yul\":21222:21278   */\n      tag_504\n        /* \"#utility.yul\":21271:21277   */\n      dup4\n        /* \"#utility.yul\":21266:21269   */\n      dup6\n        /* \"#utility.yul\":21259:21264   */\n      dup5\n        /* \"#utility.yul\":21222:21278   */\n      tag_240\n      jump\t// in\n    tag_504:\n        /* \"#utility.yul\":21303:21332   */\n      tag_505\n        /* \"#utility.yul\":21325:21331   */\n      dup4\n        /* \"#utility.yul\":21303:21332   */\n      tag_235\n      jump\t// in\n    tag_505:\n        /* \"#utility.yul\":21298:21301   */\n      dup5\n        /* \"#utility.yul\":21294:21333   */\n      add\n        /* \"#utility.yul\":21287:21333   */\n      swap1\n      pop\n        /* \"#utility.yul\":21022:21339   */\n      swap4\n      swap3\n      pop\n      pop\n      pop\n      jump\t// out\n        /* \"#utility.yul\":21345:22231   */\n    tag_132:\n        /* \"#utility.yul\":21612:21616   */\n      0x00\n        /* \"#utility.yul\":21650:21653   */\n      0x80\n        /* \"#utility.yul\":21639:21648   */\n      dup3\n        /* \"#utility.yul\":21635:21654   */\n      add\n        /* \"#utility.yul\":21627:21654   */\n      swap1\n      pop\n        /* \"#utility.yul\":21700:21709   */\n      dup2\n        /* \"#utility.yul\":21694:21698   */\n      dup2\n        /* \"#utility.yul\":21690:21710   */\n      sub\n        /* \"#utility.yul\":21686:21687   */\n      0x00\n        /* \"#utility.yul\":21675:21684   */\n      dup4\n        /* \"#utility.yul\":21671:21688   */\n      add\n        /* \"#utility.yul\":21664:21711   */\n      mstore\n        /* \"#utility.yul\":21728:21816   */\n      tag_507\n        /* \"#utility.yul\":21811:21815   */\n      dup2\n        /* \"#utility.yul\":21802:21808   */\n      dup10\n        /* \"#utility.yul\":21794:21800   */\n      dup12\n        /* \"#utility.yul\":21728:21816   */\n      tag_281\n      jump\t// in\n    tag_507:\n        /* \"#utility.yul\":21720:21816   */\n      swap1\n      pop\n        /* \"#utility.yul\":21863:21872   */\n      dup2\n        /* \"#utility.yul\":21857:21861   */\n      dup2\n        /* \"#utility.yul\":21853:21873   */\n      sub\n        /* \"#utility.yul\":21848:21850   */\n      0x20\n        /* \"#utility.yul\":21837:21846   */\n      dup4\n        /* \"#utility.yul\":21833:21851   */\n      add\n        /* \"#utility.yul\":21826:21874   */\n      mstore\n        /* \"#utility.yul\":21891:21979   */\n      tag_508\n        /* \"#utility.yul\":21974:21978   */\n      dup2\n        /* \"#utility.yul\":21965:21971   */\n      dup8\n        /* \"#utility.yul\":21957:21963   */\n      dup10\n        /* \"#utility.yul\":21891:21979   */\n      tag_281\n      jump\t// in\n    tag_508:\n        /* \"#utility.yul\":21883:21979   */\n      swap1\n      pop\n        /* \"#utility.yul\":22026:22035   */\n      dup2\n        /* \"#utility.yul\":22020:22024   */\n      dup2\n        /* \"#utility.yul\":22016:22036   */\n      sub\n        /* \"#utility.yul\":22011:22013   */\n      0x40\n        /* \"#utility.yul\":22000:22009   */\n      dup4\n        /* \"#utility.yul\":21996:22014   */\n      add\n        /* \"#utility.yul\":21989:22037   */\n      mstore\n        /* \"#utility.yul\":22054:22142   */\n      tag_509\n        /* \"#utility.yul\":22137:22141   */\n      dup2\n        /* \"#utility.yul\":22128:22134   */\n      dup6\n        /* \"#utility.yul\":22120:22126   */\n      dup8\n        /* \"#utility.yul\":22054:22142   */\n      tag_281\n      jump\t// in\n    tag_509:\n        /* \"#utility.yul\":22046:22142   */\n      swap1\n      pop\n        /* \"#utility.yul\":22152:22224   */\n      tag_510\n        /* \"#utility.yul\":22220:22222   */\n      0x60\n        /* \"#utility.yul\":22209:22218   */\n      dup4\n        /* \"#utility.yul\":22205:22223   */\n      add\n        /* \"#utility.yul\":22196:22202   */\n      dup5\n        /* \"#utility.yul\":22152:22224   */\n      tag_246\n      jump\t// in\n    tag_510:\n        /* \"#utility.yul\":21345:22231   */\n      swap9\n      swap8\n      pop\n      pop\n      pop\n      pop\n      pop\n      pop\n      pop\n      pop\n      jump\t// out\n        /* \"#utility.yul\":22237:22464   */\n    tag_282:\n        /* \"#utility.yul\":22377:22411   */\n      0x536f7272792062757420796f752063616e742066756e6420796f7572206f776e\n        /* \"#utility.yul\":22373:22374   */\n      0x00\n        /* \"#utility.yul\":22365:22371   */\n      dup3\n        /* \"#utility.yul\":22361:22375   */\n      add\n        /* \"#utility.yul\":22354:22412   */\n      mstore\n        /* \"#utility.yul\":22446:22456   */\n      0x2070726f6a656374000000000000000000000000000000000000000000000000\n        /* \"#utility.yul\":22441:22443   */\n      0x20\n        /* \"#utility.yul\":22433:22439   */\n      dup3\n        /* \"#utility.yul\":22429:22444   */\n      add\n        /* \"#utility.yul\":22422:22457   */\n      mstore\n        /* \"#utility.yul\":22237:22464   */\n      pop\n      jump\t// out\n        /* \"#utility.yul\":22470:22836   */\n    tag_283:\n        /* \"#utility.yul\":22612:22615   */\n      0x00\n        /* \"#utility.yul\":22633:22700   */\n      tag_513\n        /* \"#utility.yul\":22697:22699   */\n      0x28\n        /* \"#utility.yul\":22692:22695   */\n      dup4\n        /* \"#utility.yul\":22633:22700   */\n      tag_248\n      jump\t// in\n    tag_513:\n        /* \"#utility.yul\":22626:22700   */\n      swap2\n      pop\n        /* \"#utility.yul\":22709:22802   */\n      tag_514\n        /* \"#utility.yul\":22798:22801   */\n      dup3\n        /* \"#utility.yul\":22709:22802   */\n      tag_282\n      jump\t// in\n    tag_514:\n        /* \"#utility.yul\":22827:22829   */\n      0x40\n        /* \"#utility.yul\":22822:22825   */\n      dup3\n        /* \"#utility.yul\":22818:22830   */\n      add\n        /* \"#utility.yul\":22811:22830   */\n      swap1\n      pop\n        /* \"#utility.yul\":22470:22836   */\n      swap2\n      swap1\n      pop\n      jump\t// out\n        /* \"#utility.yul\":22842:23261   */\n    tag_141:\n        /* \"#utility.yul\":23008:23012   */\n      0x00\n        /* \"#utility.yul\":23046:23048   */\n      0x20\n        /* \"#utility.yul\":23035:23044   */\n      dup3\n        /* \"#utility.yul\":23031:23049   */\n      add\n        /* \"#utility.yul\":23023:23049   */\n      swap1\n      pop\n        /* \"#utility.yul\":23095:23104   */\n      dup2\n        /* \"#utility.yul\":23089:23093   */\n      dup2\n        /* \"#utility.yul\":23085:23105   */\n      sub\n        /* \"#utility.yul\":23081:23082   */\n      0x00\n        /* \"#utility.yul\":23070:23079   */\n      dup4\n        /* \"#utility.yul\":23066:23083   */\n      add\n        /* \"#utility.yul\":23059:23106   */\n      mstore\n        /* \"#utility.yul\":23123:23254   */\n      tag_516\n        /* \"#utility.yul\":23249:23253   */\n      dup2\n        /* \"#utility.yul\":23123:23254   */\n      tag_283\n      jump\t// in\n    tag_516:\n        /* \"#utility.yul\":23115:23254   */\n      swap1\n      pop\n        /* \"#utility.yul\":22842:23261   */\n      swap2\n      swap1\n      pop\n      jump\t// out\n        /* \"#utility.yul\":23267:23506   */\n    tag_284:\n        /* \"#utility.yul\":23407:23441   */\n      0x7468616e6b7320796f7520666f72207472757374696e67207573206275742077\n        /* \"#utility.yul\":23403:23404   */\n      0x00\n        /* \"#utility.yul\":23395:23401   */\n      dup3\n        /* \"#utility.yul\":23391:23405   */\n      add\n        /* \"#utility.yul\":23384:23442   */\n      mstore\n        /* \"#utility.yul\":23476:23498   */\n      0x6520636c6f736564207468652070726f79656374000000000000000000000000\n        /* \"#utility.yul\":23471:23473   */\n      0x20\n        /* \"#utility.yul\":23463:23469   */\n      dup3\n        /* \"#utility.yul\":23459:23474   */\n      add\n        /* \"#utility.yul\":23452:23499   */\n      mstore\n        /* \"#utility.yul\":23267:23506   */\n      pop\n      jump\t// out\n        /* \"#utility.yul\":23512:23878   */\n    tag_285:\n        /* \"#utility.yul\":23654:23657   */\n      0x00\n        /* \"#utility.yul\":23675:23742   */\n      tag_519\n        /* \"#utility.yul\":23739:23741   */\n      0x34\n        /* \"#utility.yul\":23734:23737   */\n      dup4\n        /* \"#utility.yul\":23675:23742   */\n      tag_248\n      jump\t// in\n    tag_519:\n        /* \"#utility.yul\":23668:23742   */\n      swap2\n      pop\n        /* \"#utility.yul\":23751:23844   */\n      tag_520\n        /* \"#utility.yul\":23840:23843   */\n      dup3\n        /* \"#utility.yul\":23751:23844   */\n      tag_284\n      jump\t// in\n    tag_520:\n        /* \"#utility.yul\":23869:23871   */\n      0x40\n        /* \"#utility.yul\":23864:23867   */\n      dup3\n        /* \"#utility.yul\":23860:23872   */\n      add\n        /* \"#utility.yul\":23853:23872   */\n      swap1\n      pop\n        /* \"#utility.yul\":23512:23878   */\n      swap2\n      swap1\n      pop\n      jump\t// out\n        /* \"#utility.yul\":23884:24303   */\n    tag_176:\n        /* \"#utility.yul\":24050:24054   */\n      0x00\n        /* \"#utility.yul\":24088:24090   */\n      0x20\n        /* \"#utility.yul\":24077:24086   */\n      dup3\n        /* \"#utility.yul\":24073:24091   */\n      add\n        /* \"#utility.yul\":24065:24091   */\n      swap1\n      pop\n        /* \"#utility.yul\":24137:24146   */\n      dup2\n        /* \"#utility.yul\":24131:24135   */\n      dup2\n        /* \"#utility.yul\":24127:24147   */\n      sub\n        /* \"#utility.yul\":24123:24124   */\n      0x00\n        /* \"#utility.yul\":24112:24121   */\n      dup4\n        /* \"#utility.yul\":24108:24125   */\n      add\n        /* \"#utility.yul\":24101:24148   */\n      mstore\n        /* \"#utility.yul\":24165:24296   */\n      tag_522\n        /* \"#utility.yul\":24291:24295   */\n      dup2\n        /* \"#utility.yul\":24165:24296   */\n      tag_285\n      jump\t// in\n    tag_522:\n        /* \"#utility.yul\":24157:24296   */\n      swap1\n      pop\n        /* \"#utility.yul\":23884:24303   */\n      swap2\n      swap1\n      pop\n      jump\t// out\n        /* \"#utility.yul\":24309:24479   */\n    tag_286:\n        /* \"#utility.yul\":24449:24471   */\n      0x596f752063616e2774207472616e736665722030000000000000000000000000\n        /* \"#utility.yul\":24445:24446   */\n      0x00\n        /* \"#utility.yul\":24437:24443   */\n      dup3\n        /* \"#utility.yul\":24433:24447   */\n      add\n        /* \"#utility.yul\":24426:24472   */\n      mstore\n        /* \"#utility.yul\":24309:24479   */\n      pop\n      jump\t// out\n        /* \"#utility.yul\":24485:24851   */\n    tag_287:\n        /* \"#utility.yul\":24627:24630   */\n      0x00\n        /* \"#utility.yul\":24648:24715   */\n      tag_525\n        /* \"#utility.yul\":24712:24714   */\n      0x14\n        /* \"#utility.yul\":24707:24710   */\n      dup4\n        /* \"#utility.yul\":24648:24715   */\n      tag_248\n      jump\t// in\n    tag_525:\n        /* \"#utility.yul\":24641:24715   */\n      swap2\n      pop\n        /* \"#utility.yul\":24724:24817   */\n      tag_526\n        /* \"#utility.yul\":24813:24816   */\n      dup3\n        /* \"#utility.yul\":24724:24817   */\n      tag_286\n      jump\t// in\n    tag_526:\n        /* \"#utility.yul\":24842:24844   */\n      0x20\n        /* \"#utility.yul\":24837:24840   */\n      dup3\n        /* \"#utility.yul\":24833:24845   */\n      add\n        /* \"#utility.yul\":24826:24845   */\n      swap1\n      pop\n        /* \"#utility.yul\":24485:24851   */\n      swap2\n      swap1\n      pop\n      jump\t// out\n        /* \"#utility.yul\":24857:25276   */\n    tag_179:\n        /* \"#utility.yul\":25023:25027   */\n      0x00\n        /* \"#utility.yul\":25061:25063   */\n      0x20\n        /* \"#utility.yul\":25050:25059   */\n      dup3\n        /* \"#utility.yul\":25046:25064   */\n      add\n        /* \"#utility.yul\":25038:25064   */\n      swap1\n      pop\n        /* \"#utility.yul\":25110:25119   */\n      dup2\n        /* \"#utility.yul\":25104:25108   */\n      dup2\n        /* \"#utility.yul\":25100:25120   */\n      sub\n        /* \"#utility.yul\":25096:25097   */\n      0x00\n        /* \"#utility.yul\":25085:25094   */\n      dup4\n        /* \"#utility.yul\":25081:25098   */\n      add\n        /* \"#utility.yul\":25074:25121   */\n      mstore\n        /* \"#utility.yul\":25138:25269   */\n      tag_528\n        /* \"#utility.yul\":25264:25268   */\n      dup2\n        /* \"#utility.yul\":25138:25269   */\n      tag_287\n      jump\t// in\n    tag_528:\n        /* \"#utility.yul\":25130:25269   */\n      swap1\n      pop\n        /* \"#utility.yul\":24857:25276   */\n      swap2\n      swap1\n      pop\n      jump\t// out\n        /* \"#utility.yul\":25282:25462   */\n    tag_288:\n        /* \"#utility.yul\":25330:25407   */\n      0x4e487b7100000000000000000000000000000000000000000000000000000000\n        /* \"#utility.yul\":25327:25328   */\n      0x00\n        /* \"#utility.yul\":25320:25408   */\n      mstore\n        /* \"#utility.yul\":25427:25431   */\n      0x11\n        /* \"#utility.yul\":25424:25425   */\n      0x04\n        /* \"#utility.yul\":25417:25432   */\n      mstore\n        /* \"#utility.yul\":25451:25455   */\n      0x24\n        /* \"#utility.yul\":25448:25449   */\n      0x00\n        /* \"#utility.yul\":25441:25456   */\n      revert\n        /* \"#utility.yul\":25468:25659   */\n    tag_183:\n        /* \"#utility.yul\":25508:25511   */\n      0x00\n        /* \"#utility.yul\":25527:25547   */\n      tag_531\n        /* \"#utility.yul\":25545:25546   */\n      dup3\n        /* \"#utility.yul\":25527:25547   */\n      tag_227\n      jump\t// in\n    tag_531:\n        /* \"#utility.yul\":25522:25547   */\n      swap2\n      pop\n        /* \"#utility.yul\":25561:25581   */\n      tag_532\n        /* \"#utility.yul\":25579:25580   */\n      dup4\n        /* \"#utility.yul\":25561:25581   */\n      tag_227\n      jump\t// in\n    tag_532:\n        /* \"#utility.yul\":25556:25581   */\n      swap3\n      pop\n        /* \"#utility.yul\":25604:25605   */\n      dup3\n        /* \"#utility.yul\":25601:25602   */\n      dup3\n        /* \"#utility.yul\":25597:25606   */\n      add\n        /* \"#utility.yul\":25590:25606   */\n      swap1\n      pop\n        /* \"#utility.yul\":25625:25628   */\n      dup1\n        /* \"#utility.yul\":25622:25623   */\n      dup3\n        /* \"#utility.yul\":25619:25629   */\n      gt\n        /* \"#utility.yul\":25616:25652   */\n      iszero\n      tag_533\n      jumpi\n        /* \"#utility.yul\":25632:25650   */\n      tag_534\n      tag_288\n      jump\t// in\n    tag_534:\n        /* \"#utility.yul\":25616:25652   */\n    tag_533:\n        /* \"#utility.yul\":25468:25659   */\n      swap3\n      swap2\n      pop\n      pop\n      jump\t// out\n        /* \"#utility.yul\":25665:25813   */\n    tag_289:\n        /* \"#utility.yul\":25767:25778   */\n      0x00\n        /* \"#utility.yul\":25804:25807   */\n      dup2\n        /* \"#utility.yul\":25789:25807   */\n      swap1\n      pop\n        /* \"#utility.yul\":25665:25813   */\n      swap3\n      swap2\n      pop\n      pop\n      jump\t// out\n        /* \"#utility.yul\":25819:26209   */\n    tag_290:\n        /* \"#utility.yul\":25925:25928   */\n      0x00\n        /* \"#utility.yul\":25953:25992   */\n      tag_537\n        /* \"#utility.yul\":25986:25991   */\n      dup3\n        /* \"#utility.yul\":25953:25992   */\n      tag_247\n      jump\t// in\n    tag_537:\n        /* \"#utility.yul\":26008:26097   */\n      tag_538\n        /* \"#utility.yul\":26090:26096   */\n      dup2\n        /* \"#utility.yul\":26085:26088   */\n      dup6\n        /* \"#utility.yul\":26008:26097   */\n      tag_289\n      jump\t// in\n    tag_538:\n        /* \"#utility.yul\":26001:26097   */\n      swap4\n      pop\n        /* \"#utility.yul\":26106:26171   */\n      tag_539\n        /* \"#utility.yul\":26164:26170   */\n      dup2\n        /* \"#utility.yul\":26159:26162   */\n      dup6\n        /* \"#utility.yul\":26152:26156   */\n      0x20\n        /* \"#utility.yul\":26145:26150   */\n      dup7\n        /* \"#utility.yul\":26141:26157   */\n      add\n        /* \"#utility.yul\":26106:26171   */\n      tag_249\n      jump\t// in\n    tag_539:\n        /* \"#utility.yul\":26196:26202   */\n      dup1\n        /* \"#utility.yul\":26191:26194   */\n      dup5\n        /* \"#utility.yul\":26187:26203   */\n      add\n        /* \"#utility.yul\":26180:26203   */\n      swap2\n      pop\n        /* \"#utility.yul\":25929:26209   */\n      pop\n        /* \"#utility.yul\":25819:26209   */\n      swap3\n      swap2\n      pop\n      pop\n      jump\t// out\n        /* \"#utility.yul\":26215:26490   */\n    tag_194:\n        /* \"#utility.yul\":26347:26350   */\n      0x00\n        /* \"#utility.yul\":26369:26464   */\n      tag_541\n        /* \"#utility.yul\":26460:26463   */\n      dup3\n        /* \"#utility.yul\":26451:26457   */\n      dup5\n        /* \"#utility.yul\":26369:26464   */\n      tag_290\n      jump\t// in\n    tag_541:\n        /* \"#utility.yul\":26362:26464   */\n      swap2\n      pop\n        /* \"#utility.yul\":26481:26484   */\n      dup2\n        /* \"#utility.yul\":26474:26484   */\n      swap1\n      pop\n        /* \"#utility.yul\":26215:26490   */\n      swap3\n      swap2\n      pop\n      pop\n      jump\t// out\n        /* \"#utility.yul\":26496:26690   */\n    tag_197:\n        /* \"#utility.yul\":26536:26540   */\n      0x00\n        /* \"#utility.yul\":26556:26576   */\n      tag_543\n        /* \"#utility.yul\":26574:26575   */\n      dup3\n        /* \"#utility.yul\":26556:26576   */\n      tag_227\n      jump\t// in\n    tag_543:\n        /* \"#utility.yul\":26551:26576   */\n      swap2\n      pop\n        /* \"#utility.yul\":26590:26610   */\n      tag_544\n        /* \"#utility.yul\":26608:26609   */\n      dup4\n        /* \"#utility.yul\":26590:26610   */\n      tag_227\n      jump\t// in\n    tag_544:\n        /* \"#utility.yul\":26585:26610   */\n      swap3\n      pop\n        /* \"#utility.yul\":26634:26635   */\n      dup3\n        /* \"#utility.yul\":26631:26632   */\n      dup3\n        /* \"#utility.yul\":26627:26636   */\n      sub\n        /* \"#utility.yul\":26619:26636   */\n      swap1\n      pop\n        /* \"#utility.yul\":26658:26659   */\n      dup2\n        /* \"#utility.yul\":26652:26656   */\n      dup2\n        /* \"#utility.yul\":26649:26660   */\n      gt\n        /* \"#utility.yul\":26646:26683   */\n      iszero\n      tag_545\n      jumpi\n        /* \"#utility.yul\":26663:26681   */\n      tag_546\n      tag_288\n      jump\t// in\n    tag_546:\n        /* \"#utility.yul\":26646:26683   */\n    tag_545:\n        /* \"#utility.yul\":26496:26690   */\n      swap3\n      swap2\n      pop\n      pop\n      jump\t// out\n        /* \"#utility.yul\":26696:27451   */\n    tag_199:\n        /* \"#utility.yul\":26921:26925   */\n      0x00\n        /* \"#utility.yul\":26959:26962   */\n      0xa0\n        /* \"#utility.yul\":26948:26957   */\n      dup3\n        /* \"#utility.yul\":26944:26963   */\n      add\n        /* \"#utility.yul\":26936:26963   */\n      swap1\n      pop\n        /* \"#utility.yul\":26973:27044   */\n      tag_548\n        /* \"#utility.yul\":27041:27042   */\n      0x00\n        /* \"#utility.yul\":27030:27039   */\n      dup4\n        /* \"#utility.yul\":27026:27043   */\n      add\n        /* \"#utility.yul\":27017:27023   */\n      dup9\n        /* \"#utility.yul\":26973:27044   */\n      tag_246\n      jump\t// in\n    tag_548:\n        /* \"#utility.yul\":27054:27126   */\n      tag_549\n        /* \"#utility.yul\":27122:27124   */\n      0x20\n        /* \"#utility.yul\":27111:27120   */\n      dup4\n        /* \"#utility.yul\":27107:27125   */\n      add\n        /* \"#utility.yul\":27098:27104   */\n      dup8\n        /* \"#utility.yul\":27054:27126   */\n      tag_246\n      jump\t// in\n    tag_549:\n        /* \"#utility.yul\":27136:27208   */\n      tag_550\n        /* \"#utility.yul\":27204:27206   */\n      0x40\n        /* \"#utility.yul\":27193:27202   */\n      dup4\n        /* \"#utility.yul\":27189:27207   */\n      add\n        /* \"#utility.yul\":27180:27186   */\n      dup7\n        /* \"#utility.yul\":27136:27208   */\n      tag_246\n      jump\t// in\n    tag_550:\n        /* \"#utility.yul\":27218:27290   */\n      tag_551\n        /* \"#utility.yul\":27286:27288   */\n      0x60\n        /* \"#utility.yul\":27275:27284   */\n      dup4\n        /* \"#utility.yul\":27271:27289   */\n      add\n        /* \"#utility.yul\":27262:27268   */\n      dup6\n        /* \"#utility.yul\":27218:27290   */\n      tag_245\n      jump\t// in\n    tag_551:\n        /* \"#utility.yul\":27338:27347   */\n      dup2\n        /* \"#utility.yul\":27332:27336   */\n      dup2\n        /* \"#utility.yul\":27328:27348   */\n      sub\n        /* \"#utility.yul\":27322:27325   */\n      0x80\n        /* \"#utility.yul\":27311:27320   */\n      dup4\n        /* \"#utility.yul\":27307:27326   */\n      add\n        /* \"#utility.yul\":27300:27349   */\n      mstore\n        /* \"#utility.yul\":27366:27444   */\n      tag_552\n        /* \"#utility.yul\":27439:27443   */\n      dup2\n        /* \"#utility.yul\":27430:27436   */\n      dup5\n        /* \"#utility.yul\":27366:27444   */\n      tag_250\n      jump\t// in\n    tag_552:\n        /* \"#utility.yul\":27358:27444   */\n      swap1\n      pop\n        /* \"#utility.yul\":26696:27451   */\n      swap7\n      swap6\n      pop\n      pop\n      pop\n      pop\n      pop\n      pop\n      jump\t// out\n\n    auxdata: 0xa2646970667358221220b9165853cc9e850fdb679aac6977476638aeb111a9790df6e4533144e54bdc7d64736f6c63430008120033\n}\n",
				"bytecode": {
					"linkReferences": {},
					"object": "608060405234801561001057600080fd5b506124b7806100206000396000f3fe60806040526004361061004a5760003560e01c80630f23e3691461004f57806365262133146100785780637f3fcdd9146100a15780638ee4fa0a146100df578063c4168d2e146100fb575b600080fd5b34801561005b57600080fd5b5061007660048036038101906100719190611625565b61013f565b005b34801561008457600080fd5b5061009f600480360381019061009a91906116ca565b61086a565b005b3480156100ad57600080fd5b506100c860048036038101906100c39190611907565b610b85565b6040516100d69291906119b3565b60405180910390f35b6100f960048036038101906100f491906119dc565b610bfc565b005b34801561010757600080fd5b50610122600480360381019061011d91906119dc565b611311565b604051610136989796959493929190611b20565b60405180910390f35b806000818154811061015457610153611bba565b5b906000526020600020906008020160030160009054906101000a900473ffffffffffffffffffffffffffffffffffffffff1673ffffffffffffffffffffffffffffffffffffffff163373ffffffffffffffffffffffffffffffffffffffff16146101f3576040517f08c379a00000000000000000000000000000000000000000000000000000000081526004016101ea90611c5b565b60405180910390fd5b600080838154811061020857610207611bba565b5b90600052602060002090600802016040518061010001604052908160008201805461023290611caa565b80601f016020809104026020016040519081016040528092919081815260200182805461025e90611caa565b80156102ab5780601f10610280576101008083540402835291602001916102ab565b820191906000526020600020905b81548152906001019060200180831161028e57829003601f168201915b505050505081526020016001820180546102c490611caa565b80601f01602080910402602001604051908101604052809291908181526020018280546102f090611caa565b801561033d5780601f106103125761010080835404028352916020019161033d565b820191906000526020600020905b81548152906001019060200180831161032057829003601f168201915b5050505050815260200160028201805461035690611caa565b80601f016020809104026020016040519081016040528092919081815260200182805461038290611caa565b80156103cf5780601f106103a4576101008083540402835291602001916103cf565b820191906000526020600020905b8154815290600101906020018083116103b257829003601f168201915b505050505081526020016003820160009054906101000a900473ffffffffffffffffffffffffffffffffffffffff1673ffffffffffffffffffffffffffffffffffffffff1673ffffffffffffffffffffffffffffffffffffffff16815260200160048201805461043e90611caa565b80601f016020809104026020016040519081016040528092919081815260200182805461046a90611caa565b80156104b75780601f1061048c576101008083540402835291602001916104b7565b820191906000526020600020905b81548152906001019060200180831161049a57829003601f168201915b505050505081526020016005820160009054906101000a900460ff1660018111156104e5576104e4611aa9565b5b60018111156104f7576104f6611aa9565b5b81526020016006820154815260200160078201548152505090506000600181111561052557610524611aa9565b5b84600181111561053857610537611aa9565b5b1480610567575060018081111561055257610551611aa9565b5b84600181111561056557610564611aa9565b5b145b6105a6576040517f08c379a000000000000000000000000000000000000000000000000000000000815260040161059d90611d27565b60405180910390fd5b8060a0015160018111156105bd576105bc611aa9565b5b8460018111156105d0576105cf611aa9565b5b03610610576040517f08c379a000000000000000000000000000000000000000000000000000000000815260040161060790611db9565b60405180910390fd5b838160a00190600181111561062857610627611aa9565b5b9081600181111561063c5761063b611aa9565b5b815250506000600181111561065457610653611aa9565b5b84600181111561066757610666611aa9565b5b036106af576040518060400160405280600481526020017f4f70656e00000000000000000000000000000000000000000000000000000000815250816080018190525061071a565b6001808111156106c2576106c1611aa9565b5b8460018111156106d5576106d4611aa9565b5b03610719576040518060400160405280600681526020017f436c6f736564000000000000000000000000000000000000000000000000000081525081608001819052505b5b806000848154811061072f5761072e611bba565b5b906000526020600020906008020160008201518160000190816107529190611f85565b5060208201518160010190816107689190611f85565b50604082015181600201908161077e9190611f85565b5060608201518160030160006101000a81548173ffffffffffffffffffffffffffffffffffffffff021916908373ffffffffffffffffffffffffffffffffffffffff16021790555060808201518160040190816107db9190611f85565b5060a08201518160050160006101000a81548160ff0219169083600181111561080757610806611aa9565b5b021790555060c0820151816006015560e082015181600701559050507f601279cddc513528cd2f6a4f26dc5031c828e8e5ca18a8b0b88d82eff072021a8160800151826000015160405161085c929190612057565b60405180910390a150505050565b600083116108ad576040517f08c379a00000000000000000000000000000000000000000000000000000000081526004016108a490612100565b60405180910390fd5b60006040518061010001604052808b8b8080601f016020809104026020016040519081016040528093929190818152602001838380828437600081840152601f19601f82011690508083019250505050505050815260200189898080601f016020809104026020016040519081016040528093929190818152602001838380828437600081840152601f19601f82011690508083019250505050505050815260200187878080601f016020809104026020016040519081016040528093929190818152602001838380828437600081840152601f19601f8201169050808301925050505050505081526020013373ffffffffffffffffffffffffffffffffffffffff16815260200184848080601f016020809104026020016040519081016040528093929190818152602001838380828437600081840152601f19601f82011690508083019250505050505050815260200160006001811115610a1357610a12611aa9565b5b81526020016000815260200185815250905060008190806001815401808255809150506001900390600052602060002090600802016000909190919091506000820151816000019081610a669190611f85565b506020820151816001019081610a7c9190611f85565b506040820151816002019081610a929190611f85565b5060608201518160030160006101000a81548173ffffffffffffffffffffffffffffffffffffffff021916908373ffffffffffffffffffffffffffffffffffffffff1602179055506080820151816004019081610aef9190611f85565b5060a08201518160050160006101000a81548160ff02191690836001811115610b1b57610b1a611aa9565b5b021790555060c0820151816006015560e0820151816007015550507f6d9389e0a378f2609e81065a3e8ccf0da969d91f0799e9b332372e54d8dd1e988a8a8a8a8a8a8a604051610b71979695949392919061214d565b60405180910390a150505050505050505050565b6001828051602081018201805184825260208301602085012081835280955050505050508181548110610bb757600080fd5b9060005260206000209060020201600091509150508060000160009054906101000a900473ffffffffffffffffffffffffffffffffffffffff16908060010154905082565b803373ffffffffffffffffffffffffffffffffffffffff1660008281548110610c2857610c27611bba565b5b906000526020600020906008020160030160009054906101000a900473ffffffffffffffffffffffffffffffffffffffff1673ffffffffffffffffffffffffffffffffffffffff1603610cb0576040517f08c379a0000000000000000000000000000000000000000000000000000000008152600401610ca79061221f565b60405180910390fd5b6000808381548110610cc557610cc4611bba565b5b906000526020600020906008020160405180610100016040529081600082018054610cef90611caa565b80601f0160208091040260200160405190810160405280929190818152602001828054610d1b90611caa565b8015610d685780601f10610d3d57610100808354040283529160200191610d68565b820191906000526020600020905b815481529060010190602001808311610d4b57829003601f168201915b50505050508152602001600182018054610d8190611caa565b80601f0160208091040260200160405190810160405280929190818152602001828054610dad90611caa565b8015610dfa5780601f10610dcf57610100808354040283529160200191610dfa565b820191906000526020600020905b815481529060010190602001808311610ddd57829003601f168201915b50505050508152602001600282018054610e1390611caa565b80601f0160208091040260200160405190810160405280929190818152602001828054610e3f90611caa565b8015610e8c5780601f10610e6157610100808354040283529160200191610e8c565b820191906000526020600020905b815481529060010190602001808311610e6f57829003601f168201915b505050505081526020016003820160009054906101000a900473ffffffffffffffffffffffffffffffffffffffff1673ffffffffffffffffffffffffffffffffffffffff1673ffffffffffffffffffffffffffffffffffffffff168152602001600482018054610efb90611caa565b80601f0160208091040260200160405190810160405280929190818152602001828054610f2790611caa565b8015610f745780601f10610f4957610100808354040283529160200191610f74565b820191906000526020600020905b815481529060010190602001808311610f5757829003601f168201915b505050505081526020016005820160009054906101000a900460ff166001811115610fa257610fa1611aa9565b5b6001811115610fb457610fb3611aa9565b5b815260200160068201548152602001600782015481525050905060006001811115610fe257610fe1611aa9565b5b8160a001516001811115610ff957610ff8611aa9565b5b14611039576040517f08c379a0000000000000000000000000000000000000000000000000000000008152600401611030906122b1565b60405180910390fd5b6000341161107c576040517f08c379a00000000000000000000000000000000000000000000000000000000081526004016110739061231d565b60405180910390fd5b806060015173ffffffffffffffffffffffffffffffffffffffff166108fc349081150290604051600060405180830381858888f193505050501580156110c6573d6000803e3d6000fd5b50348160c0018181516110d9919061236c565b9150818152505080600084815481106110f5576110f4611bba565b5b906000526020600020906008020160008201518160000190816111189190611f85565b50602082015181600101908161112e9190611f85565b5060408201518160020190816111449190611f85565b5060608201518160030160006101000a81548173ffffffffffffffffffffffffffffffffffffffff021916908373ffffffffffffffffffffffffffffffffffffffff16021790555060808201518160040190816111a19190611f85565b5060a08201518160050160006101000a81548160ff021916908360018111156111cd576111cc611aa9565b5b021790555060c0820151816006015560e08201518160070155905050600181600001516040516111fd91906123dc565b908152602001604051809103902060405180604001604052803373ffffffffffffffffffffffffffffffffffffffff16815260200134815250908060018154018082558091505060019003906000526020600020906002020160009091909190915060008201518160000160006101000a81548173ffffffffffffffffffffffffffffffffffffffff021916908373ffffffffffffffffffffffffffffffffffffffff1602179055506020820151816001015550507fa0bc8495efb05c87068dd41e513547d65416d9c4b8aa9aa65888b1ae0ea87d53348260c001518360c001518460e001516112ed91906123f3565b338560000151604051611304959493929190612427565b60405180910390a1505050565b6000818154811061132157600080fd5b906000526020600020906008020160009150905080600001805461134490611caa565b80601f016020809104026020016040519081016040528092919081815260200182805461137090611caa565b80156113bd5780601f10611392576101008083540402835291602001916113bd565b820191906000526020600020905b8154815290600101906020018083116113a057829003601f168201915b5050505050908060010180546113d290611caa565b80601f01602080910402602001604051908101604052809291908181526020018280546113fe90611caa565b801561144b5780601f106114205761010080835404028352916020019161144b565b820191906000526020600020905b81548152906001019060200180831161142e57829003601f168201915b50505050509080600201805461146090611caa565b80601f016020809104026020016040519081016040528092919081815260200182805461148c90611caa565b80156114d95780601f106114ae576101008083540402835291602001916114d9565b820191906000526020600020905b8154815290600101906020018083116114bc57829003601f168201915b5050505050908060030160009054906101000a900473ffffffffffffffffffffffffffffffffffffffff169080600401805461151490611caa565b80601f016020809104026020016040519081016040528092919081815260200182805461154090611caa565b801561158d5780601f106115625761010080835404028352916020019161158d565b820191906000526020600020905b81548152906001019060200180831161157057829003601f168201915b5050505050908060050160009054906101000a900460ff16908060060154908060070154905088565b6000604051905090565b600080fd5b600080fd5b600281106115d757600080fd5b50565b6000813590506115e9816115ca565b92915050565b6000819050919050565b611602816115ef565b811461160d57600080fd5b50565b60008135905061161f816115f9565b92915050565b6000806040838503121561163c5761163b6115c0565b5b600061164a858286016115da565b925050602061165b85828601611610565b9150509250929050565b600080fd5b600080fd5b600080fd5b60008083601f84011261168a57611689611665565b5b8235905067ffffffffffffffff8111156116a7576116a661166a565b5b6020830191508360018202830111156116c3576116c261166f565b5b9250929050565b600080600080600080600080600060a08a8c0312156116ec576116eb6115c0565b5b60008a013567ffffffffffffffff81111561170a576117096115c5565b5b6117168c828d01611674565b995099505060208a013567ffffffffffffffff811115611739576117386115c5565b5b6117458c828d01611674565b975097505060408a013567ffffffffffffffff811115611768576117676115c5565b5b6117748c828d01611674565b955095505060606117878c828d01611610565b93505060808a013567ffffffffffffffff8111156117a8576117a76115c5565b5b6117b48c828d01611674565b92509250509295985092959850929598565b600080fd5b6000601f19601f8301169050919050565b7f4e487b7100000000000000000000000000000000000000000000000000000000600052604160045260246000fd5b611814826117cb565b810181811067ffffffffffffffff82111715611833576118326117dc565b5b80604052505050565b60006118466115b6565b9050611852828261180b565b919050565b600067ffffffffffffffff821115611872576118716117dc565b5b61187b826117cb565b9050602081019050919050565b82818337600083830152505050565b60006118aa6118a584611857565b61183c565b9050828152602081018484840111156118c6576118c56117c6565b5b6118d1848285611888565b509392505050565b600082601f8301126118ee576118ed611665565b5b81356118fe848260208601611897565b91505092915050565b6000806040838503121561191e5761191d6115c0565b5b600083013567ffffffffffffffff81111561193c5761193b6115c5565b5b611948858286016118d9565b925050602061195985828601611610565b9150509250929050565b600073ffffffffffffffffffffffffffffffffffffffff82169050919050565b600061198e82611963565b9050919050565b61199e81611983565b82525050565b6119ad816115ef565b82525050565b60006040820190506119c86000830185611995565b6119d560208301846119a4565b9392505050565b6000602082840312156119f2576119f16115c0565b5b6000611a0084828501611610565b91505092915050565b600081519050919050565b600082825260208201905092915050565b60005b83811015611a43578082015181840152602081019050611a28565b60008484015250505050565b6000611a5a82611a09565b611a648185611a14565b9350611a74818560208601611a25565b611a7d816117cb565b840191505092915050565b6000611a9382611963565b9050919050565b611aa381611a88565b82525050565b7f4e487b7100000000000000000000000000000000000000000000000000000000600052602160045260246000fd5b60028110611ae957611ae8611aa9565b5b50565b6000819050611afa82611ad8565b919050565b6000611b0a82611aec565b9050919050565b611b1a81611aff565b82525050565b6000610100820190508181036000830152611b3b818b611a4f565b90508181036020830152611b4f818a611a4f565b90508181036040830152611b638189611a4f565b9050611b726060830188611a9a565b8181036080830152611b848187611a4f565b9050611b9360a0830186611b11565b611ba060c08301856119a4565b611bad60e08301846119a4565b9998505050505050505050565b7f4e487b7100000000000000000000000000000000000000000000000000000000600052603260045260246000fd5b7f536f72727920627574206f6e6c792074686520617574686f722063616e20636860008201527f616e676520746865206e616d65206f66207468652070726f6a65637400000000602082015250565b6000611c45603c83611a14565b9150611c5082611be9565b604082019050919050565b60006020820190508181036000830152611c7481611c38565b9050919050565b7f4e487b7100000000000000000000000000000000000000000000000000000000600052602260045260246000fd5b60006002820490506001821680611cc257607f821691505b602082108103611cd557611cd4611c7b565b5b50919050565b7f54686973207374617465206973206e6f7420646566696e656400000000000000600082015250565b6000611d11601983611a14565b9150611d1c82611cdb565b602082019050919050565b60006020820190508181036000830152611d4081611d04565b9050919050565b7f546865207374617465207468617420796f7527726520747279696e672069742760008201527f7320616c7265616479206f6e0000000000000000000000000000000000000000602082015250565b6000611da3602c83611a14565b9150611dae82611d47565b604082019050919050565b60006020820190508181036000830152611dd281611d96565b9050919050565b60008190508160005260206000209050919050565b60006020601f8301049050919050565b600082821b905092915050565b600060088302611e3b7fffffffffffffffffffffffffffffffffffffffffffffffffffffffffffffffff82611dfe565b611e458683611dfe565b95508019841693508086168417925050509392505050565b6000819050919050565b6000611e82611e7d611e78846115ef565b611e5d565b6115ef565b9050919050565b6000819050919050565b611e9c83611e67565b611eb0611ea882611e89565b848454611e0b565b825550505050565b600090565b611ec5611eb8565b611ed0818484611e93565b505050565b5b81811015611ef457611ee9600082611ebd565b600181019050611ed6565b5050565b601f821115611f3957611f0a81611dd9565b611f1384611dee565b81016020851015611f22578190505b611f36611f2e85611dee565b830182611ed5565b50505b505050565b600082821c905092915050565b6000611f5c60001984600802611f3e565b1980831691505092915050565b6000611f758383611f4b565b9150826002028217905092915050565b611f8e82611a09565b67ffffffffffffffff811115611fa757611fa66117dc565b5b611fb18254611caa565b611fbc828285611ef8565b600060209050601f831160018114611fef5760008415611fdd578287015190505b611fe78582611f69565b86555061204f565b601f198416611ffd86611dd9565b60005b8281101561202557848901518255600182019150602085019450602081019050612000565b86831015612042578489015161203e601f891682611f4b565b8355505b6001600288020188555050505b505050505050565b600060408201905081810360008301526120718185611a4f565b905081810360208301526120858184611a4f565b90509392505050565b7f46756e6472616973696e6720676f616c206d757374206265206772656174657260008201527f207468616e203000000000000000000000000000000000000000000000000000602082015250565b60006120ea602783611a14565b91506120f58261208e565b604082019050919050565b60006020820190508181036000830152612119816120dd565b9050919050565b600061212c8385611a14565b9350612139838584611888565b612142836117cb565b840190509392505050565b6000608082019050818103600083015261216881898b612120565b9050818103602083015261217d818789612120565b90508181036040830152612192818587612120565b90506121a160608301846119a4565b98975050505050505050565b7f536f7272792062757420796f752063616e742066756e6420796f7572206f776e60008201527f2070726f6a656374000000000000000000000000000000000000000000000000602082015250565b6000612209602883611a14565b9150612214826121ad565b604082019050919050565b60006020820190508181036000830152612238816121fc565b9050919050565b7f7468616e6b7320796f7520666f72207472757374696e6720757320627574207760008201527f6520636c6f736564207468652070726f79656374000000000000000000000000602082015250565b600061229b603483611a14565b91506122a68261223f565b604082019050919050565b600060208201905081810360008301526122ca8161228e565b9050919050565b7f596f752063616e2774207472616e736665722030000000000000000000000000600082015250565b6000612307601483611a14565b9150612312826122d1565b602082019050919050565b60006020820190508181036000830152612336816122fa565b9050919050565b7f4e487b7100000000000000000000000000000000000000000000000000000000600052601160045260246000fd5b6000612377826115ef565b9150612382836115ef565b925082820190508082111561239a5761239961233d565b5b92915050565b600081905092915050565b60006123b682611a09565b6123c081856123a0565b93506123d0818560208601611a25565b80840191505092915050565b60006123e882846123ab565b915081905092915050565b60006123fe826115ef565b9150612409836115ef565b92508282039050818111156124215761242061233d565b5b92915050565b600060a08201905061243c60008301886119a4565b61244960208301876119a4565b61245660408301866119a4565b6124636060830185611995565b81810360808301526124758184611a4f565b9050969550505050505056fea2646970667358221220b9165853cc9e850fdb679aac6977476638aeb111a9790df6e4533144e54bdc7d64736f6c63430008120033",
					"opcodes": "PUSH1 0x80 PUSH1 0x40 MSTORE CALLVALUE DUP1 ISZERO PUSH2 0x10 JUMPI PUSH1 0x0 DUP1 REVERT JUMPDEST POP PUSH2 0x24B7 DUP1 PUSH2 0x20 PUSH1 0x0 CODECOPY PUSH1 0x0 RETURN INVALID PUSH1 0x80 PUSH1 0x40 MSTORE PUSH1 0x4 CALLDATASIZE LT PUSH2 0x4A JUMPI PUSH1 0x0 CALLDATALOAD PUSH1 0xE0 SHR DUP1 PUSH4 0xF23E369 EQ PUSH2 0x4F JUMPI DUP1 PUSH4 0x65262133 EQ PUSH2 0x78 JUMPI DUP1 PUSH4 0x7F3FCDD9 EQ PUSH2 0xA1 JUMPI DUP1 PUSH4 0x8EE4FA0A EQ PUSH2 0xDF JUMPI DUP1 PUSH4 0xC4168D2E EQ PUSH2 0xFB JUMPI JUMPDEST PUSH1 0x0 DUP1 REVERT JUMPDEST CALLVALUE DUP1 ISZERO PUSH2 0x5B JUMPI PUSH1 0x0 DUP1 REVERT JUMPDEST POP PUSH2 0x76 PUSH1 0x4 DUP1 CALLDATASIZE SUB DUP2 ADD SWAP1 PUSH2 0x71 SWAP2 SWAP1 PUSH2 0x1625 JUMP JUMPDEST PUSH2 0x13F JUMP JUMPDEST STOP JUMPDEST CALLVALUE DUP1 ISZERO PUSH2 0x84 JUMPI PUSH1 0x0 DUP1 REVERT JUMPDEST POP PUSH2 0x9F PUSH1 0x4 DUP1 CALLDATASIZE SUB DUP2 ADD SWAP1 PUSH2 0x9A SWAP2 SWAP1 PUSH2 0x16CA JUMP JUMPDEST PUSH2 0x86A JUMP JUMPDEST STOP JUMPDEST CALLVALUE DUP1 ISZERO PUSH2 0xAD JUMPI PUSH1 0x0 DUP1 REVERT JUMPDEST POP PUSH2 0xC8 PUSH1 0x4 DUP1 CALLDATASIZE SUB DUP2 ADD SWAP1 PUSH2 0xC3 SWAP2 SWAP1 PUSH2 0x1907 JUMP JUMPDEST PUSH2 0xB85 JUMP JUMPDEST PUSH1 0x40 MLOAD PUSH2 0xD6 SWAP3 SWAP2 SWAP1 PUSH2 0x19B3 JUMP JUMPDEST PUSH1 0x40 MLOAD DUP1 SWAP2 SUB SWAP1 RETURN JUMPDEST PUSH2 0xF9 PUSH1 0x4 DUP1 CALLDATASIZE SUB DUP2 ADD SWAP1 PUSH2 0xF4 SWAP2 SWAP1 PUSH2 0x19DC JUMP JUMPDEST PUSH2 0xBFC JUMP JUMPDEST STOP JUMPDEST CALLVALUE DUP1 ISZERO PUSH2 0x107 JUMPI PUSH1 0x0 DUP1 REVERT JUMPDEST POP PUSH2 0x122 PUSH1 0x4 DUP1 CALLDATASIZE SUB DUP2 ADD SWAP1 PUSH2 0x11D SWAP2 SWAP1 PUSH2 0x19DC JUMP JUMPDEST PUSH2 0x1311 JUMP JUMPDEST PUSH1 0x40 MLOAD PUSH2 0x136 SWAP9 SWAP8 SWAP7 SWAP6 SWAP5 SWAP4 SWAP3 SWAP2 SWAP1 PUSH2 0x1B20 JUMP JUMPDEST PUSH1 0x40 MLOAD DUP1 SWAP2 SUB SWAP1 RETURN JUMPDEST DUP1 PUSH1 0x0 DUP2 DUP2 SLOAD DUP2 LT PUSH2 0x154 JUMPI PUSH2 0x153 PUSH2 0x1BBA JUMP JUMPDEST JUMPDEST SWAP1 PUSH1 0x0 MSTORE PUSH1 0x20 PUSH1 0x0 KECCAK256 SWAP1 PUSH1 0x8 MUL ADD PUSH1 0x3 ADD PUSH1 0x0 SWAP1 SLOAD SWAP1 PUSH2 0x100 EXP SWAP1 DIV PUSH20 0xFFFFFFFFFFFFFFFFFFFFFFFFFFFFFFFFFFFFFFFF AND PUSH20 0xFFFFFFFFFFFFFFFFFFFFFFFFFFFFFFFFFFFFFFFF AND CALLER PUSH20 0xFFFFFFFFFFFFFFFFFFFFFFFFFFFFFFFFFFFFFFFF AND EQ PUSH2 0x1F3 JUMPI PUSH1 0x40 MLOAD PUSH32 0x8C379A000000000000000000000000000000000000000000000000000000000 DUP2 MSTORE PUSH1 0x4 ADD PUSH2 0x1EA SWAP1 PUSH2 0x1C5B JUMP JUMPDEST PUSH1 0x40 MLOAD DUP1 SWAP2 SUB SWAP1 REVERT JUMPDEST PUSH1 0x0 DUP1 DUP4 DUP2 SLOAD DUP2 LT PUSH2 0x208 JUMPI PUSH2 0x207 PUSH2 0x1BBA JUMP JUMPDEST JUMPDEST SWAP1 PUSH1 0x0 MSTORE PUSH1 0x20 PUSH1 0x0 KECCAK256 SWAP1 PUSH1 0x8 MUL ADD PUSH1 0x40 MLOAD DUP1 PUSH2 0x100 ADD PUSH1 0x40 MSTORE SWAP1 DUP2 PUSH1 0x0 DUP3 ADD DUP1 SLOAD PUSH2 0x232 SWAP1 PUSH2 0x1CAA JUMP JUMPDEST DUP1 PUSH1 0x1F ADD PUSH1 0x20 DUP1 SWAP2 DIV MUL PUSH1 0x20 ADD PUSH1 0x40 MLOAD SWAP1 DUP2 ADD PUSH1 0x40 MSTORE DUP1 SWAP3 SWAP2 SWAP1 DUP2 DUP2 MSTORE PUSH1 0x20 ADD DUP3 DUP1 SLOAD PUSH2 0x25E SWAP1 PUSH2 0x1CAA JUMP JUMPDEST DUP1 ISZERO PUSH2 0x2AB JUMPI DUP1 PUSH1 0x1F LT PUSH2 0x280 JUMPI PUSH2 0x100 DUP1 DUP4 SLOAD DIV MUL DUP4 MSTORE SWAP2 PUSH1 0x20 ADD SWAP2 PUSH2 0x2AB JUMP JUMPDEST DUP3 ADD SWAP2 SWAP1 PUSH1 0x0 MSTORE PUSH1 0x20 PUSH1 0x0 KECCAK256 SWAP1 JUMPDEST DUP2 SLOAD DUP2 MSTORE SWAP1 PUSH1 0x1 ADD SWAP1 PUSH1 0x20 ADD DUP1 DUP4 GT PUSH2 0x28E JUMPI DUP3 SWAP1 SUB PUSH1 0x1F AND DUP3 ADD SWAP2 JUMPDEST POP POP POP POP POP DUP2 MSTORE PUSH1 0x20 ADD PUSH1 0x1 DUP3 ADD DUP1 SLOAD PUSH2 0x2C4 SWAP1 PUSH2 0x1CAA JUMP JUMPDEST DUP1 PUSH1 0x1F ADD PUSH1 0x20 DUP1 SWAP2 DIV MUL PUSH1 0x20 ADD PUSH1 0x40 MLOAD SWAP1 DUP2 ADD PUSH1 0x40 MSTORE DUP1 SWAP3 SWAP2 SWAP1 DUP2 DUP2 MSTORE PUSH1 0x20 ADD DUP3 DUP1 SLOAD PUSH2 0x2F0 SWAP1 PUSH2 0x1CAA JUMP JUMPDEST DUP1 ISZERO PUSH2 0x33D JUMPI DUP1 PUSH1 0x1F LT PUSH2 0x312 JUMPI PUSH2 0x100 DUP1 DUP4 SLOAD DIV MUL DUP4 MSTORE SWAP2 PUSH1 0x20 ADD SWAP2 PUSH2 0x33D JUMP JUMPDEST DUP3 ADD SWAP2 SWAP1 PUSH1 0x0 MSTORE PUSH1 0x20 PUSH1 0x0 KECCAK256 SWAP1 JUMPDEST DUP2 SLOAD DUP2 MSTORE SWAP1 PUSH1 0x1 ADD SWAP1 PUSH1 0x20 ADD DUP1 DUP4 GT PUSH2 0x320 JUMPI DUP3 SWAP1 SUB PUSH1 0x1F AND DUP3 ADD SWAP2 JUMPDEST POP POP POP POP POP DUP2 MSTORE PUSH1 0x20 ADD PUSH1 0x2 DUP3 ADD DUP1 SLOAD PUSH2 0x356 SWAP1 PUSH2 0x1CAA JUMP JUMPDEST DUP1 PUSH1 0x1F ADD PUSH1 0x20 DUP1 SWAP2 DIV MUL PUSH1 0x20 ADD PUSH1 0x40 MLOAD SWAP1 DUP2 ADD PUSH1 0x40 MSTORE DUP1 SWAP3 SWAP2 SWAP1 DUP2 DUP2 MSTORE PUSH1 0x20 ADD DUP3 DUP1 SLOAD PUSH2 0x382 SWAP1 PUSH2 0x1CAA JUMP JUMPDEST DUP1 ISZERO PUSH2 0x3CF JUMPI DUP1 PUSH1 0x1F LT PUSH2 0x3A4 JUMPI PUSH2 0x100 DUP1 DUP4 SLOAD DIV MUL DUP4 MSTORE SWAP2 PUSH1 0x20 ADD SWAP2 PUSH2 0x3CF JUMP JUMPDEST DUP3 ADD SWAP2 SWAP1 PUSH1 0x0 MSTORE PUSH1 0x20 PUSH1 0x0 KECCAK256 SWAP1 JUMPDEST DUP2 SLOAD DUP2 MSTORE SWAP1 PUSH1 0x1 ADD SWAP1 PUSH1 0x20 ADD DUP1 DUP4 GT PUSH2 0x3B2 JUMPI DUP3 SWAP1 SUB PUSH1 0x1F AND DUP3 ADD SWAP2 JUMPDEST POP POP POP POP POP DUP2 MSTORE PUSH1 0x20 ADD PUSH1 0x3 DUP3 ADD PUSH1 0x0 SWAP1 SLOAD SWAP1 PUSH2 0x100 EXP SWAP1 DIV PUSH20 0xFFFFFFFFFFFFFFFFFFFFFFFFFFFFFFFFFFFFFFFF AND PUSH20 0xFFFFFFFFFFFFFFFFFFFFFFFFFFFFFFFFFFFFFFFF AND PUSH20 0xFFFFFFFFFFFFFFFFFFFFFFFFFFFFFFFFFFFFFFFF AND DUP2 MSTORE PUSH1 0x20 ADD PUSH1 0x4 DUP3 ADD DUP1 SLOAD PUSH2 0x43E SWAP1 PUSH2 0x1CAA JUMP JUMPDEST DUP1 PUSH1 0x1F ADD PUSH1 0x20 DUP1 SWAP2 DIV MUL PUSH1 0x20 ADD PUSH1 0x40 MLOAD SWAP1 DUP2 ADD PUSH1 0x40 MSTORE DUP1 SWAP3 SWAP2 SWAP1 DUP2 DUP2 MSTORE PUSH1 0x20 ADD DUP3 DUP1 SLOAD PUSH2 0x46A SWAP1 PUSH2 0x1CAA JUMP JUMPDEST DUP1 ISZERO PUSH2 0x4B7 JUMPI DUP1 PUSH1 0x1F LT PUSH2 0x48C JUMPI PUSH2 0x100 DUP1 DUP4 SLOAD DIV MUL DUP4 MSTORE SWAP2 PUSH1 0x20 ADD SWAP2 PUSH2 0x4B7 JUMP JUMPDEST DUP3 ADD SWAP2 SWAP1 PUSH1 0x0 MSTORE PUSH1 0x20 PUSH1 0x0 KECCAK256 SWAP1 JUMPDEST DUP2 SLOAD DUP2 MSTORE SWAP1 PUSH1 0x1 ADD SWAP1 PUSH1 0x20 ADD DUP1 DUP4 GT PUSH2 0x49A JUMPI DUP3 SWAP1 SUB PUSH1 0x1F AND DUP3 ADD SWAP2 JUMPDEST POP POP POP POP POP DUP2 MSTORE PUSH1 0x20 ADD PUSH1 0x5 DUP3 ADD PUSH1 0x0 SWAP1 SLOAD SWAP1 PUSH2 0x100 EXP SWAP1 DIV PUSH1 0xFF AND PUSH1 0x1 DUP2 GT ISZERO PUSH2 0x4E5 JUMPI PUSH2 0x4E4 PUSH2 0x1AA9 JUMP JUMPDEST JUMPDEST PUSH1 0x1 DUP2 GT ISZERO PUSH2 0x4F7 JUMPI PUSH2 0x4F6 PUSH2 0x1AA9 JUMP JUMPDEST JUMPDEST DUP2 MSTORE PUSH1 0x20 ADD PUSH1 0x6 DUP3 ADD SLOAD DUP2 MSTORE PUSH1 0x20 ADD PUSH1 0x7 DUP3 ADD SLOAD DUP2 MSTORE POP POP SWAP1 POP PUSH1 0x0 PUSH1 0x1 DUP2 GT ISZERO PUSH2 0x525 JUMPI PUSH2 0x524 PUSH2 0x1AA9 JUMP JUMPDEST JUMPDEST DUP5 PUSH1 0x1 DUP2 GT ISZERO PUSH2 0x538 JUMPI PUSH2 0x537 PUSH2 0x1AA9 JUMP JUMPDEST JUMPDEST EQ DUP1 PUSH2 0x567 JUMPI POP PUSH1 0x1 DUP1 DUP2 GT ISZERO PUSH2 0x552 JUMPI PUSH2 0x551 PUSH2 0x1AA9 JUMP JUMPDEST JUMPDEST DUP5 PUSH1 0x1 DUP2 GT ISZERO PUSH2 0x565 JUMPI PUSH2 0x564 PUSH2 0x1AA9 JUMP JUMPDEST JUMPDEST EQ JUMPDEST PUSH2 0x5A6 JUMPI PUSH1 0x40 MLOAD PUSH32 0x8C379A000000000000000000000000000000000000000000000000000000000 DUP2 MSTORE PUSH1 0x4 ADD PUSH2 0x59D SWAP1 PUSH2 0x1D27 JUMP JUMPDEST PUSH1 0x40 MLOAD DUP1 SWAP2 SUB SWAP1 REVERT JUMPDEST DUP1 PUSH1 0xA0 ADD MLOAD PUSH1 0x1 DUP2 GT ISZERO PUSH2 0x5BD JUMPI PUSH2 0x5BC PUSH2 0x1AA9 JUMP JUMPDEST JUMPDEST DUP5 PUSH1 0x1 DUP2 GT ISZERO PUSH2 0x5D0 JUMPI PUSH2 0x5CF PUSH2 0x1AA9 JUMP JUMPDEST JUMPDEST SUB PUSH2 0x610 JUMPI PUSH1 0x40 MLOAD PUSH32 0x8C379A000000000000000000000000000000000000000000000000000000000 DUP2 MSTORE PUSH1 0x4 ADD PUSH2 0x607 SWAP1 PUSH2 0x1DB9 JUMP JUMPDEST PUSH1 0x40 MLOAD DUP1 SWAP2 SUB SWAP1 REVERT JUMPDEST DUP4 DUP2 PUSH1 0xA0 ADD SWAP1 PUSH1 0x1 DUP2 GT ISZERO PUSH2 0x628 JUMPI PUSH2 0x627 PUSH2 0x1AA9 JUMP JUMPDEST JUMPDEST SWAP1 DUP2 PUSH1 0x1 DUP2 GT ISZERO PUSH2 0x63C JUMPI PUSH2 0x63B PUSH2 0x1AA9 JUMP JUMPDEST JUMPDEST DUP2 MSTORE POP POP PUSH1 0x0 PUSH1 0x1 DUP2 GT ISZERO PUSH2 0x654 JUMPI PUSH2 0x653 PUSH2 0x1AA9 JUMP JUMPDEST JUMPDEST DUP5 PUSH1 0x1 DUP2 GT ISZERO PUSH2 0x667 JUMPI PUSH2 0x666 PUSH2 0x1AA9 JUMP JUMPDEST JUMPDEST SUB PUSH2 0x6AF JUMPI PUSH1 0x40 MLOAD DUP1 PUSH1 0x40 ADD PUSH1 0x40 MSTORE DUP1 PUSH1 0x4 DUP2 MSTORE PUSH1 0x20 ADD PUSH32 0x4F70656E00000000000000000000000000000000000000000000000000000000 DUP2 MSTORE POP DUP2 PUSH1 0x80 ADD DUP2 SWAP1 MSTORE POP PUSH2 0x71A JUMP JUMPDEST PUSH1 0x1 DUP1 DUP2 GT ISZERO PUSH2 0x6C2 JUMPI PUSH2 0x6C1 PUSH2 0x1AA9 JUMP JUMPDEST JUMPDEST DUP5 PUSH1 0x1 DUP2 GT ISZERO PUSH2 0x6D5 JUMPI PUSH2 0x6D4 PUSH2 0x1AA9 JUMP JUMPDEST JUMPDEST SUB PUSH2 0x719 JUMPI PUSH1 0x40 MLOAD DUP1 PUSH1 0x40 ADD PUSH1 0x40 MSTORE DUP1 PUSH1 0x6 DUP2 MSTORE PUSH1 0x20 ADD PUSH32 0x436C6F7365640000000000000000000000000000000000000000000000000000 DUP2 MSTORE POP DUP2 PUSH1 0x80 ADD DUP2 SWAP1 MSTORE POP JUMPDEST JUMPDEST DUP1 PUSH1 0x0 DUP5 DUP2 SLOAD DUP2 LT PUSH2 0x72F JUMPI PUSH2 0x72E PUSH2 0x1BBA JUMP JUMPDEST JUMPDEST SWAP1 PUSH1 0x0 MSTORE PUSH1 0x20 PUSH1 0x0 KECCAK256 SWAP1 PUSH1 0x8 MUL ADD PUSH1 0x0 DUP3 ADD MLOAD DUP2 PUSH1 0x0 ADD SWAP1 DUP2 PUSH2 0x752 SWAP2 SWAP1 PUSH2 0x1F85 JUMP JUMPDEST POP PUSH1 0x20 DUP3 ADD MLOAD DUP2 PUSH1 0x1 ADD SWAP1 DUP2 PUSH2 0x768 SWAP2 SWAP1 PUSH2 0x1F85 JUMP JUMPDEST POP PUSH1 0x40 DUP3 ADD MLOAD DUP2 PUSH1 0x2 ADD SWAP1 DUP2 PUSH2 0x77E SWAP2 SWAP1 PUSH2 0x1F85 JUMP JUMPDEST POP PUSH1 0x60 DUP3 ADD MLOAD DUP2 PUSH1 0x3 ADD PUSH1 0x0 PUSH2 0x100 EXP DUP2 SLOAD DUP2 PUSH20 0xFFFFFFFFFFFFFFFFFFFFFFFFFFFFFFFFFFFFFFFF MUL NOT AND SWAP1 DUP4 PUSH20 0xFFFFFFFFFFFFFFFFFFFFFFFFFFFFFFFFFFFFFFFF AND MUL OR SWAP1 SSTORE POP PUSH1 0x80 DUP3 ADD MLOAD DUP2 PUSH1 0x4 ADD SWAP1 DUP2 PUSH2 0x7DB SWAP2 SWAP1 PUSH2 0x1F85 JUMP JUMPDEST POP PUSH1 0xA0 DUP3 ADD MLOAD DUP2 PUSH1 0x5 ADD PUSH1 0x0 PUSH2 0x100 EXP DUP2 SLOAD DUP2 PUSH1 0xFF MUL NOT AND SWAP1 DUP4 PUSH1 0x1 DUP2 GT ISZERO PUSH2 0x807 JUMPI PUSH2 0x806 PUSH2 0x1AA9 JUMP JUMPDEST JUMPDEST MUL OR SWAP1 SSTORE POP PUSH1 0xC0 DUP3 ADD MLOAD DUP2 PUSH1 0x6 ADD SSTORE PUSH1 0xE0 DUP3 ADD MLOAD DUP2 PUSH1 0x7 ADD SSTORE SWAP1 POP POP PUSH32 0x601279CDDC513528CD2F6A4F26DC5031C828E8E5CA18A8B0B88D82EFF072021A DUP2 PUSH1 0x80 ADD MLOAD DUP3 PUSH1 0x0 ADD MLOAD PUSH1 0x40 MLOAD PUSH2 0x85C SWAP3 SWAP2 SWAP1 PUSH2 0x2057 JUMP JUMPDEST PUSH1 0x40 MLOAD DUP1 SWAP2 SUB SWAP1 LOG1 POP POP POP POP JUMP JUMPDEST PUSH1 0x0 DUP4 GT PUSH2 0x8AD JUMPI PUSH1 0x40 MLOAD PUSH32 0x8C379A000000000000000000000000000000000000000000000000000000000 DUP2 MSTORE PUSH1 0x4 ADD PUSH2 0x8A4 SWAP1 PUSH2 0x2100 JUMP JUMPDEST PUSH1 0x40 MLOAD DUP1 SWAP2 SUB SWAP1 REVERT JUMPDEST PUSH1 0x0 PUSH1 0x40 MLOAD DUP1 PUSH2 0x100 ADD PUSH1 0x40 MSTORE DUP1 DUP12 DUP12 DUP1 DUP1 PUSH1 0x1F ADD PUSH1 0x20 DUP1 SWAP2 DIV MUL PUSH1 0x20 ADD PUSH1 0x40 MLOAD SWAP1 DUP2 ADD PUSH1 0x40 MSTORE DUP1 SWAP4 SWAP3 SWAP2 SWAP1 DUP2 DUP2 MSTORE PUSH1 0x20 ADD DUP4 DUP4 DUP1 DUP3 DUP5 CALLDATACOPY PUSH1 0x0 DUP2 DUP5 ADD MSTORE PUSH1 0x1F NOT PUSH1 0x1F DUP3 ADD AND SWAP1 POP DUP1 DUP4 ADD SWAP3 POP POP POP POP POP POP POP DUP2 MSTORE PUSH1 0x20 ADD DUP10 DUP10 DUP1 DUP1 PUSH1 0x1F ADD PUSH1 0x20 DUP1 SWAP2 DIV MUL PUSH1 0x20 ADD PUSH1 0x40 MLOAD SWAP1 DUP2 ADD PUSH1 0x40 MSTORE DUP1 SWAP4 SWAP3 SWAP2 SWAP1 DUP2 DUP2 MSTORE PUSH1 0x20 ADD DUP4 DUP4 DUP1 DUP3 DUP5 CALLDATACOPY PUSH1 0x0 DUP2 DUP5 ADD MSTORE PUSH1 0x1F NOT PUSH1 0x1F DUP3 ADD AND SWAP1 POP DUP1 DUP4 ADD SWAP3 POP POP POP POP POP POP POP DUP2 MSTORE PUSH1 0x20 ADD DUP8 DUP8 DUP1 DUP1 PUSH1 0x1F ADD PUSH1 0x20 DUP1 SWAP2 DIV MUL PUSH1 0x20 ADD PUSH1 0x40 MLOAD SWAP1 DUP2 ADD PUSH1 0x40 MSTORE DUP1 SWAP4 SWAP3 SWAP2 SWAP1 DUP2 DUP2 MSTORE PUSH1 0x20 ADD DUP4 DUP4 DUP1 DUP3 DUP5 CALLDATACOPY PUSH1 0x0 DUP2 DUP5 ADD MSTORE PUSH1 0x1F NOT PUSH1 0x1F DUP3 ADD AND SWAP1 POP DUP1 DUP4 ADD SWAP3 POP POP POP POP POP POP POP DUP2 MSTORE PUSH1 0x20 ADD CALLER PUSH20 0xFFFFFFFFFFFFFFFFFFFFFFFFFFFFFFFFFFFFFFFF AND DUP2 MSTORE PUSH1 0x20 ADD DUP5 DUP5 DUP1 DUP1 PUSH1 0x1F ADD PUSH1 0x20 DUP1 SWAP2 DIV MUL PUSH1 0x20 ADD PUSH1 0x40 MLOAD SWAP1 DUP2 ADD PUSH1 0x40 MSTORE DUP1 SWAP4 SWAP3 SWAP2 SWAP1 DUP2 DUP2 MSTORE PUSH1 0x20 ADD DUP4 DUP4 DUP1 DUP3 DUP5 CALLDATACOPY PUSH1 0x0 DUP2 DUP5 ADD MSTORE PUSH1 0x1F NOT PUSH1 0x1F DUP3 ADD AND SWAP1 POP DUP1 DUP4 ADD SWAP3 POP POP POP POP POP POP POP DUP2 MSTORE PUSH1 0x20 ADD PUSH1 0x0 PUSH1 0x1 DUP2 GT ISZERO PUSH2 0xA13 JUMPI PUSH2 0xA12 PUSH2 0x1AA9 JUMP JUMPDEST JUMPDEST DUP2 MSTORE PUSH1 0x20 ADD PUSH1 0x0 DUP2 MSTORE PUSH1 0x20 ADD DUP6 DUP2 MSTORE POP SWAP1 POP PUSH1 0x0 DUP2 SWAP1 DUP1 PUSH1 0x1 DUP2 SLOAD ADD DUP1 DUP3 SSTORE DUP1 SWAP2 POP POP PUSH1 0x1 SWAP1 SUB SWAP1 PUSH1 0x0 MSTORE PUSH1 0x20 PUSH1 0x0 KECCAK256 SWAP1 PUSH1 0x8 MUL ADD PUSH1 0x0 SWAP1 SWAP2 SWAP1 SWAP2 SWAP1 SWAP2 POP PUSH1 0x0 DUP3 ADD MLOAD DUP2 PUSH1 0x0 ADD SWAP1 DUP2 PUSH2 0xA66 SWAP2 SWAP1 PUSH2 0x1F85 JUMP JUMPDEST POP PUSH1 0x20 DUP3 ADD MLOAD DUP2 PUSH1 0x1 ADD SWAP1 DUP2 PUSH2 0xA7C SWAP2 SWAP1 PUSH2 0x1F85 JUMP JUMPDEST POP PUSH1 0x40 DUP3 ADD MLOAD DUP2 PUSH1 0x2 ADD SWAP1 DUP2 PUSH2 0xA92 SWAP2 SWAP1 PUSH2 0x1F85 JUMP JUMPDEST POP PUSH1 0x60 DUP3 ADD MLOAD DUP2 PUSH1 0x3 ADD PUSH1 0x0 PUSH2 0x100 EXP DUP2 SLOAD DUP2 PUSH20 0xFFFFFFFFFFFFFFFFFFFFFFFFFFFFFFFFFFFFFFFF MUL NOT AND SWAP1 DUP4 PUSH20 0xFFFFFFFFFFFFFFFFFFFFFFFFFFFFFFFFFFFFFFFF AND MUL OR SWAP1 SSTORE POP PUSH1 0x80 DUP3 ADD MLOAD DUP2 PUSH1 0x4 ADD SWAP1 DUP2 PUSH2 0xAEF SWAP2 SWAP1 PUSH2 0x1F85 JUMP JUMPDEST POP PUSH1 0xA0 DUP3 ADD MLOAD DUP2 PUSH1 0x5 ADD PUSH1 0x0 PUSH2 0x100 EXP DUP2 SLOAD DUP2 PUSH1 0xFF MUL NOT AND SWAP1 DUP4 PUSH1 0x1 DUP2 GT ISZERO PUSH2 0xB1B JUMPI PUSH2 0xB1A PUSH2 0x1AA9 JUMP JUMPDEST JUMPDEST MUL OR SWAP1 SSTORE POP PUSH1 0xC0 DUP3 ADD MLOAD DUP2 PUSH1 0x6 ADD SSTORE PUSH1 0xE0 DUP3 ADD MLOAD DUP2 PUSH1 0x7 ADD SSTORE POP POP PUSH32 0x6D9389E0A378F2609E81065A3E8CCF0DA969D91F0799E9B332372E54D8DD1E98 DUP11 DUP11 DUP11 DUP11 DUP11 DUP11 DUP11 PUSH1 0x40 MLOAD PUSH2 0xB71 SWAP8 SWAP7 SWAP6 SWAP5 SWAP4 SWAP3 SWAP2 SWAP1 PUSH2 0x214D JUMP JUMPDEST PUSH1 0x40 MLOAD DUP1 SWAP2 SUB SWAP1 LOG1 POP POP POP POP POP POP POP POP POP POP JUMP JUMPDEST PUSH1 0x1 DUP3 DUP1 MLOAD PUSH1 0x20 DUP2 ADD DUP3 ADD DUP1 MLOAD DUP5 DUP3 MSTORE PUSH1 0x20 DUP4 ADD PUSH1 0x20 DUP6 ADD KECCAK256 DUP2 DUP4 MSTORE DUP1 SWAP6 POP POP POP POP POP POP DUP2 DUP2 SLOAD DUP2 LT PUSH2 0xBB7 JUMPI PUSH1 0x0 DUP1 REVERT JUMPDEST SWAP1 PUSH1 0x0 MSTORE PUSH1 0x20 PUSH1 0x0 KECCAK256 SWAP1 PUSH1 0x2 MUL ADD PUSH1 0x0 SWAP2 POP SWAP2 POP POP DUP1 PUSH1 0x0 ADD PUSH1 0x0 SWAP1 SLOAD SWAP1 PUSH2 0x100 EXP SWAP1 DIV PUSH20 0xFFFFFFFFFFFFFFFFFFFFFFFFFFFFFFFFFFFFFFFF AND SWAP1 DUP1 PUSH1 0x1 ADD SLOAD SWAP1 POP DUP3 JUMP JUMPDEST DUP1 CALLER PUSH20 0xFFFFFFFFFFFFFFFFFFFFFFFFFFFFFFFFFFFFFFFF AND PUSH1 0x0 DUP3 DUP2 SLOAD DUP2 LT PUSH2 0xC28 JUMPI PUSH2 0xC27 PUSH2 0x1BBA JUMP JUMPDEST JUMPDEST SWAP1 PUSH1 0x0 MSTORE PUSH1 0x20 PUSH1 0x0 KECCAK256 SWAP1 PUSH1 0x8 MUL ADD PUSH1 0x3 ADD PUSH1 0x0 SWAP1 SLOAD SWAP1 PUSH2 0x100 EXP SWAP1 DIV PUSH20 0xFFFFFFFFFFFFFFFFFFFFFFFFFFFFFFFFFFFFFFFF AND PUSH20 0xFFFFFFFFFFFFFFFFFFFFFFFFFFFFFFFFFFFFFFFF AND SUB PUSH2 0xCB0 JUMPI PUSH1 0x40 MLOAD PUSH32 0x8C379A000000000000000000000000000000000000000000000000000000000 DUP2 MSTORE PUSH1 0x4 ADD PUSH2 0xCA7 SWAP1 PUSH2 0x221F JUMP JUMPDEST PUSH1 0x40 MLOAD DUP1 SWAP2 SUB SWAP1 REVERT JUMPDEST PUSH1 0x0 DUP1 DUP4 DUP2 SLOAD DUP2 LT PUSH2 0xCC5 JUMPI PUSH2 0xCC4 PUSH2 0x1BBA JUMP JUMPDEST JUMPDEST SWAP1 PUSH1 0x0 MSTORE PUSH1 0x20 PUSH1 0x0 KECCAK256 SWAP1 PUSH1 0x8 MUL ADD PUSH1 0x40 MLOAD DUP1 PUSH2 0x100 ADD PUSH1 0x40 MSTORE SWAP1 DUP2 PUSH1 0x0 DUP3 ADD DUP1 SLOAD PUSH2 0xCEF SWAP1 PUSH2 0x1CAA JUMP JUMPDEST DUP1 PUSH1 0x1F ADD PUSH1 0x20 DUP1 SWAP2 DIV MUL PUSH1 0x20 ADD PUSH1 0x40 MLOAD SWAP1 DUP2 ADD PUSH1 0x40 MSTORE DUP1 SWAP3 SWAP2 SWAP1 DUP2 DUP2 MSTORE PUSH1 0x20 ADD DUP3 DUP1 SLOAD PUSH2 0xD1B SWAP1 PUSH2 0x1CAA JUMP JUMPDEST DUP1 ISZERO PUSH2 0xD68 JUMPI DUP1 PUSH1 0x1F LT PUSH2 0xD3D JUMPI PUSH2 0x100 DUP1 DUP4 SLOAD DIV MUL DUP4 MSTORE SWAP2 PUSH1 0x20 ADD SWAP2 PUSH2 0xD68 JUMP JUMPDEST DUP3 ADD SWAP2 SWAP1 PUSH1 0x0 MSTORE PUSH1 0x20 PUSH1 0x0 KECCAK256 SWAP1 JUMPDEST DUP2 SLOAD DUP2 MSTORE SWAP1 PUSH1 0x1 ADD SWAP1 PUSH1 0x20 ADD DUP1 DUP4 GT PUSH2 0xD4B JUMPI DUP3 SWAP1 SUB PUSH1 0x1F AND DUP3 ADD SWAP2 JUMPDEST POP POP POP POP POP DUP2 MSTORE PUSH1 0x20 ADD PUSH1 0x1 DUP3 ADD DUP1 SLOAD PUSH2 0xD81 SWAP1 PUSH2 0x1CAA JUMP JUMPDEST DUP1 PUSH1 0x1F ADD PUSH1 0x20 DUP1 SWAP2 DIV MUL PUSH1 0x20 ADD PUSH1 0x40 MLOAD SWAP1 DUP2 ADD PUSH1 0x40 MSTORE DUP1 SWAP3 SWAP2 SWAP1 DUP2 DUP2 MSTORE PUSH1 0x20 ADD DUP3 DUP1 SLOAD PUSH2 0xDAD SWAP1 PUSH2 0x1CAA JUMP JUMPDEST DUP1 ISZERO PUSH2 0xDFA JUMPI DUP1 PUSH1 0x1F LT PUSH2 0xDCF JUMPI PUSH2 0x100 DUP1 DUP4 SLOAD DIV MUL DUP4 MSTORE SWAP2 PUSH1 0x20 ADD SWAP2 PUSH2 0xDFA JUMP JUMPDEST DUP3 ADD SWAP2 SWAP1 PUSH1 0x0 MSTORE PUSH1 0x20 PUSH1 0x0 KECCAK256 SWAP1 JUMPDEST DUP2 SLOAD DUP2 MSTORE SWAP1 PUSH1 0x1 ADD SWAP1 PUSH1 0x20 ADD DUP1 DUP4 GT PUSH2 0xDDD JUMPI DUP3 SWAP1 SUB PUSH1 0x1F AND DUP3 ADD SWAP2 JUMPDEST POP POP POP POP POP DUP2 MSTORE PUSH1 0x20 ADD PUSH1 0x2 DUP3 ADD DUP1 SLOAD PUSH2 0xE13 SWAP1 PUSH2 0x1CAA JUMP JUMPDEST DUP1 PUSH1 0x1F ADD PUSH1 0x20 DUP1 SWAP2 DIV MUL PUSH1 0x20 ADD PUSH1 0x40 MLOAD SWAP1 DUP2 ADD PUSH1 0x40 MSTORE DUP1 SWAP3 SWAP2 SWAP1 DUP2 DUP2 MSTORE PUSH1 0x20 ADD DUP3 DUP1 SLOAD PUSH2 0xE3F SWAP1 PUSH2 0x1CAA JUMP JUMPDEST DUP1 ISZERO PUSH2 0xE8C JUMPI DUP1 PUSH1 0x1F LT PUSH2 0xE61 JUMPI PUSH2 0x100 DUP1 DUP4 SLOAD DIV MUL DUP4 MSTORE SWAP2 PUSH1 0x20 ADD SWAP2 PUSH2 0xE8C JUMP JUMPDEST DUP3 ADD SWAP2 SWAP1 PUSH1 0x0 MSTORE PUSH1 0x20 PUSH1 0x0 KECCAK256 SWAP1 JUMPDEST DUP2 SLOAD DUP2 MSTORE SWAP1 PUSH1 0x1 ADD SWAP1 PUSH1 0x20 ADD DUP1 DUP4 GT PUSH2 0xE6F JUMPI DUP3 SWAP1 SUB PUSH1 0x1F AND DUP3 ADD SWAP2 JUMPDEST POP POP POP POP POP DUP2 MSTORE PUSH1 0x20 ADD PUSH1 0x3 DUP3 ADD PUSH1 0x0 SWAP1 SLOAD SWAP1 PUSH2 0x100 EXP SWAP1 DIV PUSH20 0xFFFFFFFFFFFFFFFFFFFFFFFFFFFFFFFFFFFFFFFF AND PUSH20 0xFFFFFFFFFFFFFFFFFFFFFFFFFFFFFFFFFFFFFFFF AND PUSH20 0xFFFFFFFFFFFFFFFFFFFFFFFFFFFFFFFFFFFFFFFF AND DUP2 MSTORE PUSH1 0x20 ADD PUSH1 0x4 DUP3 ADD DUP1 SLOAD PUSH2 0xEFB SWAP1 PUSH2 0x1CAA JUMP JUMPDEST DUP1 PUSH1 0x1F ADD PUSH1 0x20 DUP1 SWAP2 DIV MUL PUSH1 0x20 ADD PUSH1 0x40 MLOAD SWAP1 DUP2 ADD PUSH1 0x40 MSTORE DUP1 SWAP3 SWAP2 SWAP1 DUP2 DUP2 MSTORE PUSH1 0x20 ADD DUP3 DUP1 SLOAD PUSH2 0xF27 SWAP1 PUSH2 0x1CAA JUMP JUMPDEST DUP1 ISZERO PUSH2 0xF74 JUMPI DUP1 PUSH1 0x1F LT PUSH2 0xF49 JUMPI PUSH2 0x100 DUP1 DUP4 SLOAD DIV MUL DUP4 MSTORE SWAP2 PUSH1 0x20 ADD SWAP2 PUSH2 0xF74 JUMP JUMPDEST DUP3 ADD SWAP2 SWAP1 PUSH1 0x0 MSTORE PUSH1 0x20 PUSH1 0x0 KECCAK256 SWAP1 JUMPDEST DUP2 SLOAD DUP2 MSTORE SWAP1 PUSH1 0x1 ADD SWAP1 PUSH1 0x20 ADD DUP1 DUP4 GT PUSH2 0xF57 JUMPI DUP3 SWAP1 SUB PUSH1 0x1F AND DUP3 ADD SWAP2 JUMPDEST POP POP POP POP POP DUP2 MSTORE PUSH1 0x20 ADD PUSH1 0x5 DUP3 ADD PUSH1 0x0 SWAP1 SLOAD SWAP1 PUSH2 0x100 EXP SWAP1 DIV PUSH1 0xFF AND PUSH1 0x1 DUP2 GT ISZERO PUSH2 0xFA2 JUMPI PUSH2 0xFA1 PUSH2 0x1AA9 JUMP JUMPDEST JUMPDEST PUSH1 0x1 DUP2 GT ISZERO PUSH2 0xFB4 JUMPI PUSH2 0xFB3 PUSH2 0x1AA9 JUMP JUMPDEST JUMPDEST DUP2 MSTORE PUSH1 0x20 ADD PUSH1 0x6 DUP3 ADD SLOAD DUP2 MSTORE PUSH1 0x20 ADD PUSH1 0x7 DUP3 ADD SLOAD DUP2 MSTORE POP POP SWAP1 POP PUSH1 0x0 PUSH1 0x1 DUP2 GT ISZERO PUSH2 0xFE2 JUMPI PUSH2 0xFE1 PUSH2 0x1AA9 JUMP JUMPDEST JUMPDEST DUP2 PUSH1 0xA0 ADD MLOAD PUSH1 0x1 DUP2 GT ISZERO PUSH2 0xFF9 JUMPI PUSH2 0xFF8 PUSH2 0x1AA9 JUMP JUMPDEST JUMPDEST EQ PUSH2 0x1039 JUMPI PUSH1 0x40 MLOAD PUSH32 0x8C379A000000000000000000000000000000000000000000000000000000000 DUP2 MSTORE PUSH1 0x4 ADD PUSH2 0x1030 SWAP1 PUSH2 0x22B1 JUMP JUMPDEST PUSH1 0x40 MLOAD DUP1 SWAP2 SUB SWAP1 REVERT JUMPDEST PUSH1 0x0 CALLVALUE GT PUSH2 0x107C JUMPI PUSH1 0x40 MLOAD PUSH32 0x8C379A000000000000000000000000000000000000000000000000000000000 DUP2 MSTORE PUSH1 0x4 ADD PUSH2 0x1073 SWAP1 PUSH2 0x231D JUMP JUMPDEST PUSH1 0x40 MLOAD DUP1 SWAP2 SUB SWAP1 REVERT JUMPDEST DUP1 PUSH1 0x60 ADD MLOAD PUSH20 0xFFFFFFFFFFFFFFFFFFFFFFFFFFFFFFFFFFFFFFFF AND PUSH2 0x8FC CALLVALUE SWAP1 DUP2 ISZERO MUL SWAP1 PUSH1 0x40 MLOAD PUSH1 0x0 PUSH1 0x40 MLOAD DUP1 DUP4 SUB DUP2 DUP6 DUP9 DUP9 CALL SWAP4 POP POP POP POP ISZERO DUP1 ISZERO PUSH2 0x10C6 JUMPI RETURNDATASIZE PUSH1 0x0 DUP1 RETURNDATACOPY RETURNDATASIZE PUSH1 0x0 REVERT JUMPDEST POP CALLVALUE DUP2 PUSH1 0xC0 ADD DUP2 DUP2 MLOAD PUSH2 0x10D9 SWAP2 SWAP1 PUSH2 0x236C JUMP JUMPDEST SWAP2 POP DUP2 DUP2 MSTORE POP POP DUP1 PUSH1 0x0 DUP5 DUP2 SLOAD DUP2 LT PUSH2 0x10F5 JUMPI PUSH2 0x10F4 PUSH2 0x1BBA JUMP JUMPDEST JUMPDEST SWAP1 PUSH1 0x0 MSTORE PUSH1 0x20 PUSH1 0x0 KECCAK256 SWAP1 PUSH1 0x8 MUL ADD PUSH1 0x0 DUP3 ADD MLOAD DUP2 PUSH1 0x0 ADD SWAP1 DUP2 PUSH2 0x1118 SWAP2 SWAP1 PUSH2 0x1F85 JUMP JUMPDEST POP PUSH1 0x20 DUP3 ADD MLOAD DUP2 PUSH1 0x1 ADD SWAP1 DUP2 PUSH2 0x112E SWAP2 SWAP1 PUSH2 0x1F85 JUMP JUMPDEST POP PUSH1 0x40 DUP3 ADD MLOAD DUP2 PUSH1 0x2 ADD SWAP1 DUP2 PUSH2 0x1144 SWAP2 SWAP1 PUSH2 0x1F85 JUMP JUMPDEST POP PUSH1 0x60 DUP3 ADD MLOAD DUP2 PUSH1 0x3 ADD PUSH1 0x0 PUSH2 0x100 EXP DUP2 SLOAD DUP2 PUSH20 0xFFFFFFFFFFFFFFFFFFFFFFFFFFFFFFFFFFFFFFFF MUL NOT AND SWAP1 DUP4 PUSH20 0xFFFFFFFFFFFFFFFFFFFFFFFFFFFFFFFFFFFFFFFF AND MUL OR SWAP1 SSTORE POP PUSH1 0x80 DUP3 ADD MLOAD DUP2 PUSH1 0x4 ADD SWAP1 DUP2 PUSH2 0x11A1 SWAP2 SWAP1 PUSH2 0x1F85 JUMP JUMPDEST POP PUSH1 0xA0 DUP3 ADD MLOAD DUP2 PUSH1 0x5 ADD PUSH1 0x0 PUSH2 0x100 EXP DUP2 SLOAD DUP2 PUSH1 0xFF MUL NOT AND SWAP1 DUP4 PUSH1 0x1 DUP2 GT ISZERO PUSH2 0x11CD JUMPI PUSH2 0x11CC PUSH2 0x1AA9 JUMP JUMPDEST JUMPDEST MUL OR SWAP1 SSTORE POP PUSH1 0xC0 DUP3 ADD MLOAD DUP2 PUSH1 0x6 ADD SSTORE PUSH1 0xE0 DUP3 ADD MLOAD DUP2 PUSH1 0x7 ADD SSTORE SWAP1 POP POP PUSH1 0x1 DUP2 PUSH1 0x0 ADD MLOAD PUSH1 0x40 MLOAD PUSH2 0x11FD SWAP2 SWAP1 PUSH2 0x23DC JUMP JUMPDEST SWAP1 DUP2 MSTORE PUSH1 0x20 ADD PUSH1 0x40 MLOAD DUP1 SWAP2 SUB SWAP1 KECCAK256 PUSH1 0x40 MLOAD DUP1 PUSH1 0x40 ADD PUSH1 0x40 MSTORE DUP1 CALLER PUSH20 0xFFFFFFFFFFFFFFFFFFFFFFFFFFFFFFFFFFFFFFFF AND DUP2 MSTORE PUSH1 0x20 ADD CALLVALUE DUP2 MSTORE POP SWAP1 DUP1 PUSH1 0x1 DUP2 SLOAD ADD DUP1 DUP3 SSTORE DUP1 SWAP2 POP POP PUSH1 0x1 SWAP1 SUB SWAP1 PUSH1 0x0 MSTORE PUSH1 0x20 PUSH1 0x0 KECCAK256 SWAP1 PUSH1 0x2 MUL ADD PUSH1 0x0 SWAP1 SWAP2 SWAP1 SWAP2 SWAP1 SWAP2 POP PUSH1 0x0 DUP3 ADD MLOAD DUP2 PUSH1 0x0 ADD PUSH1 0x0 PUSH2 0x100 EXP DUP2 SLOAD DUP2 PUSH20 0xFFFFFFFFFFFFFFFFFFFFFFFFFFFFFFFFFFFFFFFF MUL NOT AND SWAP1 DUP4 PUSH20 0xFFFFFFFFFFFFFFFFFFFFFFFFFFFFFFFFFFFFFFFF AND MUL OR SWAP1 SSTORE POP PUSH1 0x20 DUP3 ADD MLOAD DUP2 PUSH1 0x1 ADD SSTORE POP POP PUSH32 0xA0BC8495EFB05C87068DD41E513547D65416D9C4B8AA9AA65888B1AE0EA87D53 CALLVALUE DUP3 PUSH1 0xC0 ADD MLOAD DUP4 PUSH1 0xC0 ADD MLOAD DUP5 PUSH1 0xE0 ADD MLOAD PUSH2 0x12ED SWAP2 SWAP1 PUSH2 0x23F3 JUMP JUMPDEST CALLER DUP6 PUSH1 0x0 ADD MLOAD PUSH1 0x40 MLOAD PUSH2 0x1304 SWAP6 SWAP5 SWAP4 SWAP3 SWAP2 SWAP1 PUSH2 0x2427 JUMP JUMPDEST PUSH1 0x40 MLOAD DUP1 SWAP2 SUB SWAP1 LOG1 POP POP POP JUMP JUMPDEST PUSH1 0x0 DUP2 DUP2 SLOAD DUP2 LT PUSH2 0x1321 JUMPI PUSH1 0x0 DUP1 REVERT JUMPDEST SWAP1 PUSH1 0x0 MSTORE PUSH1 0x20 PUSH1 0x0 KECCAK256 SWAP1 PUSH1 0x8 MUL ADD PUSH1 0x0 SWAP2 POP SWAP1 POP DUP1 PUSH1 0x0 ADD DUP1 SLOAD PUSH2 0x1344 SWAP1 PUSH2 0x1CAA JUMP JUMPDEST DUP1 PUSH1 0x1F ADD PUSH1 0x20 DUP1 SWAP2 DIV MUL PUSH1 0x20 ADD PUSH1 0x40 MLOAD SWAP1 DUP2 ADD PUSH1 0x40 MSTORE DUP1 SWAP3 SWAP2 SWAP1 DUP2 DUP2 MSTORE PUSH1 0x20 ADD DUP3 DUP1 SLOAD PUSH2 0x1370 SWAP1 PUSH2 0x1CAA JUMP JUMPDEST DUP1 ISZERO PUSH2 0x13BD JUMPI DUP1 PUSH1 0x1F LT PUSH2 0x1392 JUMPI PUSH2 0x100 DUP1 DUP4 SLOAD DIV MUL DUP4 MSTORE SWAP2 PUSH1 0x20 ADD SWAP2 PUSH2 0x13BD JUMP JUMPDEST DUP3 ADD SWAP2 SWAP1 PUSH1 0x0 MSTORE PUSH1 0x20 PUSH1 0x0 KECCAK256 SWAP1 JUMPDEST DUP2 SLOAD DUP2 MSTORE SWAP1 PUSH1 0x1 ADD SWAP1 PUSH1 0x20 ADD DUP1 DUP4 GT PUSH2 0x13A0 JUMPI DUP3 SWAP1 SUB PUSH1 0x1F AND DUP3 ADD SWAP2 JUMPDEST POP POP POP POP POP SWAP1 DUP1 PUSH1 0x1 ADD DUP1 SLOAD PUSH2 0x13D2 SWAP1 PUSH2 0x1CAA JUMP JUMPDEST DUP1 PUSH1 0x1F ADD PUSH1 0x20 DUP1 SWAP2 DIV MUL PUSH1 0x20 ADD PUSH1 0x40 MLOAD SWAP1 DUP2 ADD PUSH1 0x40 MSTORE DUP1 SWAP3 SWAP2 SWAP1 DUP2 DUP2 MSTORE PUSH1 0x20 ADD DUP3 DUP1 SLOAD PUSH2 0x13FE SWAP1 PUSH2 0x1CAA JUMP JUMPDEST DUP1 ISZERO PUSH2 0x144B JUMPI DUP1 PUSH1 0x1F LT PUSH2 0x1420 JUMPI PUSH2 0x100 DUP1 DUP4 SLOAD DIV MUL DUP4 MSTORE SWAP2 PUSH1 0x20 ADD SWAP2 PUSH2 0x144B JUMP JUMPDEST DUP3 ADD SWAP2 SWAP1 PUSH1 0x0 MSTORE PUSH1 0x20 PUSH1 0x0 KECCAK256 SWAP1 JUMPDEST DUP2 SLOAD DUP2 MSTORE SWAP1 PUSH1 0x1 ADD SWAP1 PUSH1 0x20 ADD DUP1 DUP4 GT PUSH2 0x142E JUMPI DUP3 SWAP1 SUB PUSH1 0x1F AND DUP3 ADD SWAP2 JUMPDEST POP POP POP POP POP SWAP1 DUP1 PUSH1 0x2 ADD DUP1 SLOAD PUSH2 0x1460 SWAP1 PUSH2 0x1CAA JUMP JUMPDEST DUP1 PUSH1 0x1F ADD PUSH1 0x20 DUP1 SWAP2 DIV MUL PUSH1 0x20 ADD PUSH1 0x40 MLOAD SWAP1 DUP2 ADD PUSH1 0x40 MSTORE DUP1 SWAP3 SWAP2 SWAP1 DUP2 DUP2 MSTORE PUSH1 0x20 ADD DUP3 DUP1 SLOAD PUSH2 0x148C SWAP1 PUSH2 0x1CAA JUMP JUMPDEST DUP1 ISZERO PUSH2 0x14D9 JUMPI DUP1 PUSH1 0x1F LT PUSH2 0x14AE JUMPI PUSH2 0x100 DUP1 DUP4 SLOAD DIV MUL DUP4 MSTORE SWAP2 PUSH1 0x20 ADD SWAP2 PUSH2 0x14D9 JUMP JUMPDEST DUP3 ADD SWAP2 SWAP1 PUSH1 0x0 MSTORE PUSH1 0x20 PUSH1 0x0 KECCAK256 SWAP1 JUMPDEST DUP2 SLOAD DUP2 MSTORE SWAP1 PUSH1 0x1 ADD SWAP1 PUSH1 0x20 ADD DUP1 DUP4 GT PUSH2 0x14BC JUMPI DUP3 SWAP1 SUB PUSH1 0x1F AND DUP3 ADD SWAP2 JUMPDEST POP POP POP POP POP SWAP1 DUP1 PUSH1 0x3 ADD PUSH1 0x0 SWAP1 SLOAD SWAP1 PUSH2 0x100 EXP SWAP1 DIV PUSH20 0xFFFFFFFFFFFFFFFFFFFFFFFFFFFFFFFFFFFFFFFF AND SWAP1 DUP1 PUSH1 0x4 ADD DUP1 SLOAD PUSH2 0x1514 SWAP1 PUSH2 0x1CAA JUMP JUMPDEST DUP1 PUSH1 0x1F ADD PUSH1 0x20 DUP1 SWAP2 DIV MUL PUSH1 0x20 ADD PUSH1 0x40 MLOAD SWAP1 DUP2 ADD PUSH1 0x40 MSTORE DUP1 SWAP3 SWAP2 SWAP1 DUP2 DUP2 MSTORE PUSH1 0x20 ADD DUP3 DUP1 SLOAD PUSH2 0x1540 SWAP1 PUSH2 0x1CAA JUMP JUMPDEST DUP1 ISZERO PUSH2 0x158D JUMPI DUP1 PUSH1 0x1F LT PUSH2 0x1562 JUMPI PUSH2 0x100 DUP1 DUP4 SLOAD DIV MUL DUP4 MSTORE SWAP2 PUSH1 0x20 ADD SWAP2 PUSH2 0x158D JUMP JUMPDEST DUP3 ADD SWAP2 SWAP1 PUSH1 0x0 MSTORE PUSH1 0x20 PUSH1 0x0 KECCAK256 SWAP1 JUMPDEST DUP2 SLOAD DUP2 MSTORE SWAP1 PUSH1 0x1 ADD SWAP1 PUSH1 0x20 ADD DUP1 DUP4 GT PUSH2 0x1570 JUMPI DUP3 SWAP1 SUB PUSH1 0x1F AND DUP3 ADD SWAP2 JUMPDEST POP POP POP POP POP SWAP1 DUP1 PUSH1 0x5 ADD PUSH1 0x0 SWAP1 SLOAD SWAP1 PUSH2 0x100 EXP SWAP1 DIV PUSH1 0xFF AND SWAP1 DUP1 PUSH1 0x6 ADD SLOAD SWAP1 DUP1 PUSH1 0x7 ADD SLOAD SWAP1 POP DUP9 JUMP JUMPDEST PUSH1 0x0 PUSH1 0x40 MLOAD SWAP1 POP SWAP1 JUMP JUMPDEST PUSH1 0x0 DUP1 REVERT JUMPDEST PUSH1 0x0 DUP1 REVERT JUMPDEST PUSH1 0x2 DUP2 LT PUSH2 0x15D7 JUMPI PUSH1 0x0 DUP1 REVERT JUMPDEST POP JUMP JUMPDEST PUSH1 0x0 DUP2 CALLDATALOAD SWAP1 POP PUSH2 0x15E9 DUP2 PUSH2 0x15CA JUMP JUMPDEST SWAP3 SWAP2 POP POP JUMP JUMPDEST PUSH1 0x0 DUP2 SWAP1 POP SWAP2 SWAP1 POP JUMP JUMPDEST PUSH2 0x1602 DUP2 PUSH2 0x15EF JUMP JUMPDEST DUP2 EQ PUSH2 0x160D JUMPI PUSH1 0x0 DUP1 REVERT JUMPDEST POP JUMP JUMPDEST PUSH1 0x0 DUP2 CALLDATALOAD SWAP1 POP PUSH2 0x161F DUP2 PUSH2 0x15F9 JUMP JUMPDEST SWAP3 SWAP2 POP POP JUMP JUMPDEST PUSH1 0x0 DUP1 PUSH1 0x40 DUP4 DUP6 SUB SLT ISZERO PUSH2 0x163C JUMPI PUSH2 0x163B PUSH2 0x15C0 JUMP JUMPDEST JUMPDEST PUSH1 0x0 PUSH2 0x164A DUP6 DUP3 DUP7 ADD PUSH2 0x15DA JUMP JUMPDEST SWAP3 POP POP PUSH1 0x20 PUSH2 0x165B DUP6 DUP3 DUP7 ADD PUSH2 0x1610 JUMP JUMPDEST SWAP2 POP POP SWAP3 POP SWAP3 SWAP1 POP JUMP JUMPDEST PUSH1 0x0 DUP1 REVERT JUMPDEST PUSH1 0x0 DUP1 REVERT JUMPDEST PUSH1 0x0 DUP1 REVERT JUMPDEST PUSH1 0x0 DUP1 DUP4 PUSH1 0x1F DUP5 ADD SLT PUSH2 0x168A JUMPI PUSH2 0x1689 PUSH2 0x1665 JUMP JUMPDEST JUMPDEST DUP3 CALLDATALOAD SWAP1 POP PUSH8 0xFFFFFFFFFFFFFFFF DUP2 GT ISZERO PUSH2 0x16A7 JUMPI PUSH2 0x16A6 PUSH2 0x166A JUMP JUMPDEST JUMPDEST PUSH1 0x20 DUP4 ADD SWAP2 POP DUP4 PUSH1 0x1 DUP3 MUL DUP4 ADD GT ISZERO PUSH2 0x16C3 JUMPI PUSH2 0x16C2 PUSH2 0x166F JUMP JUMPDEST JUMPDEST SWAP3 POP SWAP3 SWAP1 POP JUMP JUMPDEST PUSH1 0x0 DUP1 PUSH1 0x0 DUP1 PUSH1 0x0 DUP1 PUSH1 0x0 DUP1 PUSH1 0x0 PUSH1 0xA0 DUP11 DUP13 SUB SLT ISZERO PUSH2 0x16EC JUMPI PUSH2 0x16EB PUSH2 0x15C0 JUMP JUMPDEST JUMPDEST PUSH1 0x0 DUP11 ADD CALLDATALOAD PUSH8 0xFFFFFFFFFFFFFFFF DUP2 GT ISZERO PUSH2 0x170A JUMPI PUSH2 0x1709 PUSH2 0x15C5 JUMP JUMPDEST JUMPDEST PUSH2 0x1716 DUP13 DUP3 DUP14 ADD PUSH2 0x1674 JUMP JUMPDEST SWAP10 POP SWAP10 POP POP PUSH1 0x20 DUP11 ADD CALLDATALOAD PUSH8 0xFFFFFFFFFFFFFFFF DUP2 GT ISZERO PUSH2 0x1739 JUMPI PUSH2 0x1738 PUSH2 0x15C5 JUMP JUMPDEST JUMPDEST PUSH2 0x1745 DUP13 DUP3 DUP14 ADD PUSH2 0x1674 JUMP JUMPDEST SWAP8 POP SWAP8 POP POP PUSH1 0x40 DUP11 ADD CALLDATALOAD PUSH8 0xFFFFFFFFFFFFFFFF DUP2 GT ISZERO PUSH2 0x1768 JUMPI PUSH2 0x1767 PUSH2 0x15C5 JUMP JUMPDEST JUMPDEST PUSH2 0x1774 DUP13 DUP3 DUP14 ADD PUSH2 0x1674 JUMP JUMPDEST SWAP6 POP SWAP6 POP POP PUSH1 0x60 PUSH2 0x1787 DUP13 DUP3 DUP14 ADD PUSH2 0x1610 JUMP JUMPDEST SWAP4 POP POP PUSH1 0x80 DUP11 ADD CALLDATALOAD PUSH8 0xFFFFFFFFFFFFFFFF DUP2 GT ISZERO PUSH2 0x17A8 JUMPI PUSH2 0x17A7 PUSH2 0x15C5 JUMP JUMPDEST JUMPDEST PUSH2 0x17B4 DUP13 DUP3 DUP14 ADD PUSH2 0x1674 JUMP JUMPDEST SWAP3 POP SWAP3 POP POP SWAP3 SWAP6 SWAP9 POP SWAP3 SWAP6 SWAP9 POP SWAP3 SWAP6 SWAP9 JUMP JUMPDEST PUSH1 0x0 DUP1 REVERT JUMPDEST PUSH1 0x0 PUSH1 0x1F NOT PUSH1 0x1F DUP4 ADD AND SWAP1 POP SWAP2 SWAP1 POP JUMP JUMPDEST PUSH32 0x4E487B7100000000000000000000000000000000000000000000000000000000 PUSH1 0x0 MSTORE PUSH1 0x41 PUSH1 0x4 MSTORE PUSH1 0x24 PUSH1 0x0 REVERT JUMPDEST PUSH2 0x1814 DUP3 PUSH2 0x17CB JUMP JUMPDEST DUP2 ADD DUP2 DUP2 LT PUSH8 0xFFFFFFFFFFFFFFFF DUP3 GT OR ISZERO PUSH2 0x1833 JUMPI PUSH2 0x1832 PUSH2 0x17DC JUMP JUMPDEST JUMPDEST DUP1 PUSH1 0x40 MSTORE POP POP POP JUMP JUMPDEST PUSH1 0x0 PUSH2 0x1846 PUSH2 0x15B6 JUMP JUMPDEST SWAP1 POP PUSH2 0x1852 DUP3 DUP3 PUSH2 0x180B JUMP JUMPDEST SWAP2 SWAP1 POP JUMP JUMPDEST PUSH1 0x0 PUSH8 0xFFFFFFFFFFFFFFFF DUP3 GT ISZERO PUSH2 0x1872 JUMPI PUSH2 0x1871 PUSH2 0x17DC JUMP JUMPDEST JUMPDEST PUSH2 0x187B DUP3 PUSH2 0x17CB JUMP JUMPDEST SWAP1 POP PUSH1 0x20 DUP2 ADD SWAP1 POP SWAP2 SWAP1 POP JUMP JUMPDEST DUP3 DUP2 DUP4 CALLDATACOPY PUSH1 0x0 DUP4 DUP4 ADD MSTORE POP POP POP JUMP JUMPDEST PUSH1 0x0 PUSH2 0x18AA PUSH2 0x18A5 DUP5 PUSH2 0x1857 JUMP JUMPDEST PUSH2 0x183C JUMP JUMPDEST SWAP1 POP DUP3 DUP2 MSTORE PUSH1 0x20 DUP2 ADD DUP5 DUP5 DUP5 ADD GT ISZERO PUSH2 0x18C6 JUMPI PUSH2 0x18C5 PUSH2 0x17C6 JUMP JUMPDEST JUMPDEST PUSH2 0x18D1 DUP5 DUP3 DUP6 PUSH2 0x1888 JUMP JUMPDEST POP SWAP4 SWAP3 POP POP POP JUMP JUMPDEST PUSH1 0x0 DUP3 PUSH1 0x1F DUP4 ADD SLT PUSH2 0x18EE JUMPI PUSH2 0x18ED PUSH2 0x1665 JUMP JUMPDEST JUMPDEST DUP2 CALLDATALOAD PUSH2 0x18FE DUP5 DUP3 PUSH1 0x20 DUP7 ADD PUSH2 0x1897 JUMP JUMPDEST SWAP2 POP POP SWAP3 SWAP2 POP POP JUMP JUMPDEST PUSH1 0x0 DUP1 PUSH1 0x40 DUP4 DUP6 SUB SLT ISZERO PUSH2 0x191E JUMPI PUSH2 0x191D PUSH2 0x15C0 JUMP JUMPDEST JUMPDEST PUSH1 0x0 DUP4 ADD CALLDATALOAD PUSH8 0xFFFFFFFFFFFFFFFF DUP2 GT ISZERO PUSH2 0x193C JUMPI PUSH2 0x193B PUSH2 0x15C5 JUMP JUMPDEST JUMPDEST PUSH2 0x1948 DUP6 DUP3 DUP7 ADD PUSH2 0x18D9 JUMP JUMPDEST SWAP3 POP POP PUSH1 0x20 PUSH2 0x1959 DUP6 DUP3 DUP7 ADD PUSH2 0x1610 JUMP JUMPDEST SWAP2 POP POP SWAP3 POP SWAP3 SWAP1 POP JUMP JUMPDEST PUSH1 0x0 PUSH20 0xFFFFFFFFFFFFFFFFFFFFFFFFFFFFFFFFFFFFFFFF DUP3 AND SWAP1 POP SWAP2 SWAP1 POP JUMP JUMPDEST PUSH1 0x0 PUSH2 0x198E DUP3 PUSH2 0x1963 JUMP JUMPDEST SWAP1 POP SWAP2 SWAP1 POP JUMP JUMPDEST PUSH2 0x199E DUP2 PUSH2 0x1983 JUMP JUMPDEST DUP3 MSTORE POP POP JUMP JUMPDEST PUSH2 0x19AD DUP2 PUSH2 0x15EF JUMP JUMPDEST DUP3 MSTORE POP POP JUMP JUMPDEST PUSH1 0x0 PUSH1 0x40 DUP3 ADD SWAP1 POP PUSH2 0x19C8 PUSH1 0x0 DUP4 ADD DUP6 PUSH2 0x1995 JUMP JUMPDEST PUSH2 0x19D5 PUSH1 0x20 DUP4 ADD DUP5 PUSH2 0x19A4 JUMP JUMPDEST SWAP4 SWAP3 POP POP POP JUMP JUMPDEST PUSH1 0x0 PUSH1 0x20 DUP3 DUP5 SUB SLT ISZERO PUSH2 0x19F2 JUMPI PUSH2 0x19F1 PUSH2 0x15C0 JUMP JUMPDEST JUMPDEST PUSH1 0x0 PUSH2 0x1A00 DUP5 DUP3 DUP6 ADD PUSH2 0x1610 JUMP JUMPDEST SWAP2 POP POP SWAP3 SWAP2 POP POP JUMP JUMPDEST PUSH1 0x0 DUP2 MLOAD SWAP1 POP SWAP2 SWAP1 POP JUMP JUMPDEST PUSH1 0x0 DUP3 DUP3 MSTORE PUSH1 0x20 DUP3 ADD SWAP1 POP SWAP3 SWAP2 POP POP JUMP JUMPDEST PUSH1 0x0 JUMPDEST DUP4 DUP2 LT ISZERO PUSH2 0x1A43 JUMPI DUP1 DUP3 ADD MLOAD DUP2 DUP5 ADD MSTORE PUSH1 0x20 DUP2 ADD SWAP1 POP PUSH2 0x1A28 JUMP JUMPDEST PUSH1 0x0 DUP5 DUP5 ADD MSTORE POP POP POP POP JUMP JUMPDEST PUSH1 0x0 PUSH2 0x1A5A DUP3 PUSH2 0x1A09 JUMP JUMPDEST PUSH2 0x1A64 DUP2 DUP6 PUSH2 0x1A14 JUMP JUMPDEST SWAP4 POP PUSH2 0x1A74 DUP2 DUP6 PUSH1 0x20 DUP7 ADD PUSH2 0x1A25 JUMP JUMPDEST PUSH2 0x1A7D DUP2 PUSH2 0x17CB JUMP JUMPDEST DUP5 ADD SWAP2 POP POP SWAP3 SWAP2 POP POP JUMP JUMPDEST PUSH1 0x0 PUSH2 0x1A93 DUP3 PUSH2 0x1963 JUMP JUMPDEST SWAP1 POP SWAP2 SWAP1 POP JUMP JUMPDEST PUSH2 0x1AA3 DUP2 PUSH2 0x1A88 JUMP JUMPDEST DUP3 MSTORE POP POP JUMP JUMPDEST PUSH32 0x4E487B7100000000000000000000000000000000000000000000000000000000 PUSH1 0x0 MSTORE PUSH1 0x21 PUSH1 0x4 MSTORE PUSH1 0x24 PUSH1 0x0 REVERT JUMPDEST PUSH1 0x2 DUP2 LT PUSH2 0x1AE9 JUMPI PUSH2 0x1AE8 PUSH2 0x1AA9 JUMP JUMPDEST JUMPDEST POP JUMP JUMPDEST PUSH1 0x0 DUP2 SWAP1 POP PUSH2 0x1AFA DUP3 PUSH2 0x1AD8 JUMP JUMPDEST SWAP2 SWAP1 POP JUMP JUMPDEST PUSH1 0x0 PUSH2 0x1B0A DUP3 PUSH2 0x1AEC JUMP JUMPDEST SWAP1 POP SWAP2 SWAP1 POP JUMP JUMPDEST PUSH2 0x1B1A DUP2 PUSH2 0x1AFF JUMP JUMPDEST DUP3 MSTORE POP POP JUMP JUMPDEST PUSH1 0x0 PUSH2 0x100 DUP3 ADD SWAP1 POP DUP2 DUP2 SUB PUSH1 0x0 DUP4 ADD MSTORE PUSH2 0x1B3B DUP2 DUP12 PUSH2 0x1A4F JUMP JUMPDEST SWAP1 POP DUP2 DUP2 SUB PUSH1 0x20 DUP4 ADD MSTORE PUSH2 0x1B4F DUP2 DUP11 PUSH2 0x1A4F JUMP JUMPDEST SWAP1 POP DUP2 DUP2 SUB PUSH1 0x40 DUP4 ADD MSTORE PUSH2 0x1B63 DUP2 DUP10 PUSH2 0x1A4F JUMP JUMPDEST SWAP1 POP PUSH2 0x1B72 PUSH1 0x60 DUP4 ADD DUP9 PUSH2 0x1A9A JUMP JUMPDEST DUP2 DUP2 SUB PUSH1 0x80 DUP4 ADD MSTORE PUSH2 0x1B84 DUP2 DUP8 PUSH2 0x1A4F JUMP JUMPDEST SWAP1 POP PUSH2 0x1B93 PUSH1 0xA0 DUP4 ADD DUP7 PUSH2 0x1B11 JUMP JUMPDEST PUSH2 0x1BA0 PUSH1 0xC0 DUP4 ADD DUP6 PUSH2 0x19A4 JUMP JUMPDEST PUSH2 0x1BAD PUSH1 0xE0 DUP4 ADD DUP5 PUSH2 0x19A4 JUMP JUMPDEST SWAP10 SWAP9 POP POP POP POP POP POP POP POP POP JUMP JUMPDEST PUSH32 0x4E487B7100000000000000000000000000000000000000000000000000000000 PUSH1 0x0 MSTORE PUSH1 0x32 PUSH1 0x4 MSTORE PUSH1 0x24 PUSH1 0x0 REVERT JUMPDEST PUSH32 0x536F72727920627574206F6E6C792074686520617574686F722063616E206368 PUSH1 0x0 DUP3 ADD MSTORE PUSH32 0x616E676520746865206E616D65206F66207468652070726F6A65637400000000 PUSH1 0x20 DUP3 ADD MSTORE POP JUMP JUMPDEST PUSH1 0x0 PUSH2 0x1C45 PUSH1 0x3C DUP4 PUSH2 0x1A14 JUMP JUMPDEST SWAP2 POP PUSH2 0x1C50 DUP3 PUSH2 0x1BE9 JUMP JUMPDEST PUSH1 0x40 DUP3 ADD SWAP1 POP SWAP2 SWAP1 POP JUMP JUMPDEST PUSH1 0x0 PUSH1 0x20 DUP3 ADD SWAP1 POP DUP2 DUP2 SUB PUSH1 0x0 DUP4 ADD MSTORE PUSH2 0x1C74 DUP2 PUSH2 0x1C38 JUMP JUMPDEST SWAP1 POP SWAP2 SWAP1 POP JUMP JUMPDEST PUSH32 0x4E487B7100000000000000000000000000000000000000000000000000000000 PUSH1 0x0 MSTORE PUSH1 0x22 PUSH1 0x4 MSTORE PUSH1 0x24 PUSH1 0x0 REVERT JUMPDEST PUSH1 0x0 PUSH1 0x2 DUP3 DIV SWAP1 POP PUSH1 0x1 DUP3 AND DUP1 PUSH2 0x1CC2 JUMPI PUSH1 0x7F DUP3 AND SWAP2 POP JUMPDEST PUSH1 0x20 DUP3 LT DUP2 SUB PUSH2 0x1CD5 JUMPI PUSH2 0x1CD4 PUSH2 0x1C7B JUMP JUMPDEST JUMPDEST POP SWAP2 SWAP1 POP JUMP JUMPDEST PUSH32 0x54686973207374617465206973206E6F7420646566696E656400000000000000 PUSH1 0x0 DUP3 ADD MSTORE POP JUMP JUMPDEST PUSH1 0x0 PUSH2 0x1D11 PUSH1 0x19 DUP4 PUSH2 0x1A14 JUMP JUMPDEST SWAP2 POP PUSH2 0x1D1C DUP3 PUSH2 0x1CDB JUMP JUMPDEST PUSH1 0x20 DUP3 ADD SWAP1 POP SWAP2 SWAP1 POP JUMP JUMPDEST PUSH1 0x0 PUSH1 0x20 DUP3 ADD SWAP1 POP DUP2 DUP2 SUB PUSH1 0x0 DUP4 ADD MSTORE PUSH2 0x1D40 DUP2 PUSH2 0x1D04 JUMP JUMPDEST SWAP1 POP SWAP2 SWAP1 POP JUMP JUMPDEST PUSH32 0x546865207374617465207468617420796F7527726520747279696E6720697427 PUSH1 0x0 DUP3 ADD MSTORE PUSH32 0x7320616C7265616479206F6E0000000000000000000000000000000000000000 PUSH1 0x20 DUP3 ADD MSTORE POP JUMP JUMPDEST PUSH1 0x0 PUSH2 0x1DA3 PUSH1 0x2C DUP4 PUSH2 0x1A14 JUMP JUMPDEST SWAP2 POP PUSH2 0x1DAE DUP3 PUSH2 0x1D47 JUMP JUMPDEST PUSH1 0x40 DUP3 ADD SWAP1 POP SWAP2 SWAP1 POP JUMP JUMPDEST PUSH1 0x0 PUSH1 0x20 DUP3 ADD SWAP1 POP DUP2 DUP2 SUB PUSH1 0x0 DUP4 ADD MSTORE PUSH2 0x1DD2 DUP2 PUSH2 0x1D96 JUMP JUMPDEST SWAP1 POP SWAP2 SWAP1 POP JUMP JUMPDEST PUSH1 0x0 DUP2 SWAP1 POP DUP2 PUSH1 0x0 MSTORE PUSH1 0x20 PUSH1 0x0 KECCAK256 SWAP1 POP SWAP2 SWAP1 POP JUMP JUMPDEST PUSH1 0x0 PUSH1 0x20 PUSH1 0x1F DUP4 ADD DIV SWAP1 POP SWAP2 SWAP1 POP JUMP JUMPDEST PUSH1 0x0 DUP3 DUP3 SHL SWAP1 POP SWAP3 SWAP2 POP POP JUMP JUMPDEST PUSH1 0x0 PUSH1 0x8 DUP4 MUL PUSH2 0x1E3B PUSH32 0xFFFFFFFFFFFFFFFFFFFFFFFFFFFFFFFFFFFFFFFFFFFFFFFFFFFFFFFFFFFFFFFF DUP3 PUSH2 0x1DFE JUMP JUMPDEST PUSH2 0x1E45 DUP7 DUP4 PUSH2 0x1DFE JUMP JUMPDEST SWAP6 POP DUP1 NOT DUP5 AND SWAP4 POP DUP1 DUP7 AND DUP5 OR SWAP3 POP POP POP SWAP4 SWAP3 POP POP POP JUMP JUMPDEST PUSH1 0x0 DUP2 SWAP1 POP SWAP2 SWAP1 POP JUMP JUMPDEST PUSH1 0x0 PUSH2 0x1E82 PUSH2 0x1E7D PUSH2 0x1E78 DUP5 PUSH2 0x15EF JUMP JUMPDEST PUSH2 0x1E5D JUMP JUMPDEST PUSH2 0x15EF JUMP JUMPDEST SWAP1 POP SWAP2 SWAP1 POP JUMP JUMPDEST PUSH1 0x0 DUP2 SWAP1 POP SWAP2 SWAP1 POP JUMP JUMPDEST PUSH2 0x1E9C DUP4 PUSH2 0x1E67 JUMP JUMPDEST PUSH2 0x1EB0 PUSH2 0x1EA8 DUP3 PUSH2 0x1E89 JUMP JUMPDEST DUP5 DUP5 SLOAD PUSH2 0x1E0B JUMP JUMPDEST DUP3 SSTORE POP POP POP POP JUMP JUMPDEST PUSH1 0x0 SWAP1 JUMP JUMPDEST PUSH2 0x1EC5 PUSH2 0x1EB8 JUMP JUMPDEST PUSH2 0x1ED0 DUP2 DUP5 DUP5 PUSH2 0x1E93 JUMP JUMPDEST POP POP POP JUMP JUMPDEST JUMPDEST DUP2 DUP2 LT ISZERO PUSH2 0x1EF4 JUMPI PUSH2 0x1EE9 PUSH1 0x0 DUP3 PUSH2 0x1EBD JUMP JUMPDEST PUSH1 0x1 DUP2 ADD SWAP1 POP PUSH2 0x1ED6 JUMP JUMPDEST POP POP JUMP JUMPDEST PUSH1 0x1F DUP3 GT ISZERO PUSH2 0x1F39 JUMPI PUSH2 0x1F0A DUP2 PUSH2 0x1DD9 JUMP JUMPDEST PUSH2 0x1F13 DUP5 PUSH2 0x1DEE JUMP JUMPDEST DUP2 ADD PUSH1 0x20 DUP6 LT ISZERO PUSH2 0x1F22 JUMPI DUP2 SWAP1 POP JUMPDEST PUSH2 0x1F36 PUSH2 0x1F2E DUP6 PUSH2 0x1DEE JUMP JUMPDEST DUP4 ADD DUP3 PUSH2 0x1ED5 JUMP JUMPDEST POP POP JUMPDEST POP POP POP JUMP JUMPDEST PUSH1 0x0 DUP3 DUP3 SHR SWAP1 POP SWAP3 SWAP2 POP POP JUMP JUMPDEST PUSH1 0x0 PUSH2 0x1F5C PUSH1 0x0 NOT DUP5 PUSH1 0x8 MUL PUSH2 0x1F3E JUMP JUMPDEST NOT DUP1 DUP4 AND SWAP2 POP POP SWAP3 SWAP2 POP POP JUMP JUMPDEST PUSH1 0x0 PUSH2 0x1F75 DUP4 DUP4 PUSH2 0x1F4B JUMP JUMPDEST SWAP2 POP DUP3 PUSH1 0x2 MUL DUP3 OR SWAP1 POP SWAP3 SWAP2 POP POP JUMP JUMPDEST PUSH2 0x1F8E DUP3 PUSH2 0x1A09 JUMP JUMPDEST PUSH8 0xFFFFFFFFFFFFFFFF DUP2 GT ISZERO PUSH2 0x1FA7 JUMPI PUSH2 0x1FA6 PUSH2 0x17DC JUMP JUMPDEST JUMPDEST PUSH2 0x1FB1 DUP3 SLOAD PUSH2 0x1CAA JUMP JUMPDEST PUSH2 0x1FBC DUP3 DUP3 DUP6 PUSH2 0x1EF8 JUMP JUMPDEST PUSH1 0x0 PUSH1 0x20 SWAP1 POP PUSH1 0x1F DUP4 GT PUSH1 0x1 DUP2 EQ PUSH2 0x1FEF JUMPI PUSH1 0x0 DUP5 ISZERO PUSH2 0x1FDD JUMPI DUP3 DUP8 ADD MLOAD SWAP1 POP JUMPDEST PUSH2 0x1FE7 DUP6 DUP3 PUSH2 0x1F69 JUMP JUMPDEST DUP7 SSTORE POP PUSH2 0x204F JUMP JUMPDEST PUSH1 0x1F NOT DUP5 AND PUSH2 0x1FFD DUP7 PUSH2 0x1DD9 JUMP JUMPDEST PUSH1 0x0 JUMPDEST DUP3 DUP2 LT ISZERO PUSH2 0x2025 JUMPI DUP5 DUP10 ADD MLOAD DUP3 SSTORE PUSH1 0x1 DUP3 ADD SWAP2 POP PUSH1 0x20 DUP6 ADD SWAP5 POP PUSH1 0x20 DUP2 ADD SWAP1 POP PUSH2 0x2000 JUMP JUMPDEST DUP7 DUP4 LT ISZERO PUSH2 0x2042 JUMPI DUP5 DUP10 ADD MLOAD PUSH2 0x203E PUSH1 0x1F DUP10 AND DUP3 PUSH2 0x1F4B JUMP JUMPDEST DUP4 SSTORE POP JUMPDEST PUSH1 0x1 PUSH1 0x2 DUP9 MUL ADD DUP9 SSTORE POP POP POP JUMPDEST POP POP POP POP POP POP JUMP JUMPDEST PUSH1 0x0 PUSH1 0x40 DUP3 ADD SWAP1 POP DUP2 DUP2 SUB PUSH1 0x0 DUP4 ADD MSTORE PUSH2 0x2071 DUP2 DUP6 PUSH2 0x1A4F JUMP JUMPDEST SWAP1 POP DUP2 DUP2 SUB PUSH1 0x20 DUP4 ADD MSTORE PUSH2 0x2085 DUP2 DUP5 PUSH2 0x1A4F JUMP JUMPDEST SWAP1 POP SWAP4 SWAP3 POP POP POP JUMP JUMPDEST PUSH32 0x46756E6472616973696E6720676F616C206D7573742062652067726561746572 PUSH1 0x0 DUP3 ADD MSTORE PUSH32 0x207468616E203000000000000000000000000000000000000000000000000000 PUSH1 0x20 DUP3 ADD MSTORE POP JUMP JUMPDEST PUSH1 0x0 PUSH2 0x20EA PUSH1 0x27 DUP4 PUSH2 0x1A14 JUMP JUMPDEST SWAP2 POP PUSH2 0x20F5 DUP3 PUSH2 0x208E JUMP JUMPDEST PUSH1 0x40 DUP3 ADD SWAP1 POP SWAP2 SWAP1 POP JUMP JUMPDEST PUSH1 0x0 PUSH1 0x20 DUP3 ADD SWAP1 POP DUP2 DUP2 SUB PUSH1 0x0 DUP4 ADD MSTORE PUSH2 0x2119 DUP2 PUSH2 0x20DD JUMP JUMPDEST SWAP1 POP SWAP2 SWAP1 POP JUMP JUMPDEST PUSH1 0x0 PUSH2 0x212C DUP4 DUP6 PUSH2 0x1A14 JUMP JUMPDEST SWAP4 POP PUSH2 0x2139 DUP4 DUP6 DUP5 PUSH2 0x1888 JUMP JUMPDEST PUSH2 0x2142 DUP4 PUSH2 0x17CB JUMP JUMPDEST DUP5 ADD SWAP1 POP SWAP4 SWAP3 POP POP POP JUMP JUMPDEST PUSH1 0x0 PUSH1 0x80 DUP3 ADD SWAP1 POP DUP2 DUP2 SUB PUSH1 0x0 DUP4 ADD MSTORE PUSH2 0x2168 DUP2 DUP10 DUP12 PUSH2 0x2120 JUMP JUMPDEST SWAP1 POP DUP2 DUP2 SUB PUSH1 0x20 DUP4 ADD MSTORE PUSH2 0x217D DUP2 DUP8 DUP10 PUSH2 0x2120 JUMP JUMPDEST SWAP1 POP DUP2 DUP2 SUB PUSH1 0x40 DUP4 ADD MSTORE PUSH2 0x2192 DUP2 DUP6 DUP8 PUSH2 0x2120 JUMP JUMPDEST SWAP1 POP PUSH2 0x21A1 PUSH1 0x60 DUP4 ADD DUP5 PUSH2 0x19A4 JUMP JUMPDEST SWAP9 SWAP8 POP POP POP POP POP POP POP POP JUMP JUMPDEST PUSH32 0x536F7272792062757420796F752063616E742066756E6420796F7572206F776E PUSH1 0x0 DUP3 ADD MSTORE PUSH32 0x2070726F6A656374000000000000000000000000000000000000000000000000 PUSH1 0x20 DUP3 ADD MSTORE POP JUMP JUMPDEST PUSH1 0x0 PUSH2 0x2209 PUSH1 0x28 DUP4 PUSH2 0x1A14 JUMP JUMPDEST SWAP2 POP PUSH2 0x2214 DUP3 PUSH2 0x21AD JUMP JUMPDEST PUSH1 0x40 DUP3 ADD SWAP1 POP SWAP2 SWAP1 POP JUMP JUMPDEST PUSH1 0x0 PUSH1 0x20 DUP3 ADD SWAP1 POP DUP2 DUP2 SUB PUSH1 0x0 DUP4 ADD MSTORE PUSH2 0x2238 DUP2 PUSH2 0x21FC JUMP JUMPDEST SWAP1 POP SWAP2 SWAP1 POP JUMP JUMPDEST PUSH32 0x7468616E6B7320796F7520666F72207472757374696E67207573206275742077 PUSH1 0x0 DUP3 ADD MSTORE PUSH32 0x6520636C6F736564207468652070726F79656374000000000000000000000000 PUSH1 0x20 DUP3 ADD MSTORE POP JUMP JUMPDEST PUSH1 0x0 PUSH2 0x229B PUSH1 0x34 DUP4 PUSH2 0x1A14 JUMP JUMPDEST SWAP2 POP PUSH2 0x22A6 DUP3 PUSH2 0x223F JUMP JUMPDEST PUSH1 0x40 DUP3 ADD SWAP1 POP SWAP2 SWAP1 POP JUMP JUMPDEST PUSH1 0x0 PUSH1 0x20 DUP3 ADD SWAP1 POP DUP2 DUP2 SUB PUSH1 0x0 DUP4 ADD MSTORE PUSH2 0x22CA DUP2 PUSH2 0x228E JUMP JUMPDEST SWAP1 POP SWAP2 SWAP1 POP JUMP JUMPDEST PUSH32 0x596F752063616E2774207472616E736665722030000000000000000000000000 PUSH1 0x0 DUP3 ADD MSTORE POP JUMP JUMPDEST PUSH1 0x0 PUSH2 0x2307 PUSH1 0x14 DUP4 PUSH2 0x1A14 JUMP JUMPDEST SWAP2 POP PUSH2 0x2312 DUP3 PUSH2 0x22D1 JUMP JUMPDEST PUSH1 0x20 DUP3 ADD SWAP1 POP SWAP2 SWAP1 POP JUMP JUMPDEST PUSH1 0x0 PUSH1 0x20 DUP3 ADD SWAP1 POP DUP2 DUP2 SUB PUSH1 0x0 DUP4 ADD MSTORE PUSH2 0x2336 DUP2 PUSH2 0x22FA JUMP JUMPDEST SWAP1 POP SWAP2 SWAP1 POP JUMP JUMPDEST PUSH32 0x4E487B7100000000000000000000000000000000000000000000000000000000 PUSH1 0x0 MSTORE PUSH1 0x11 PUSH1 0x4 MSTORE PUSH1 0x24 PUSH1 0x0 REVERT JUMPDEST PUSH1 0x0 PUSH2 0x2377 DUP3 PUSH2 0x15EF JUMP JUMPDEST SWAP2 POP PUSH2 0x2382 DUP4 PUSH2 0x15EF JUMP JUMPDEST SWAP3 POP DUP3 DUP3 ADD SWAP1 POP DUP1 DUP3 GT ISZERO PUSH2 0x239A JUMPI PUSH2 0x2399 PUSH2 0x233D JUMP JUMPDEST JUMPDEST SWAP3 SWAP2 POP POP JUMP JUMPDEST PUSH1 0x0 DUP2 SWAP1 POP SWAP3 SWAP2 POP POP JUMP JUMPDEST PUSH1 0x0 PUSH2 0x23B6 DUP3 PUSH2 0x1A09 JUMP JUMPDEST PUSH2 0x23C0 DUP2 DUP6 PUSH2 0x23A0 JUMP JUMPDEST SWAP4 POP PUSH2 0x23D0 DUP2 DUP6 PUSH1 0x20 DUP7 ADD PUSH2 0x1A25 JUMP JUMPDEST DUP1 DUP5 ADD SWAP2 POP POP SWAP3 SWAP2 POP POP JUMP JUMPDEST PUSH1 0x0 PUSH2 0x23E8 DUP3 DUP5 PUSH2 0x23AB JUMP JUMPDEST SWAP2 POP DUP2 SWAP1 POP SWAP3 SWAP2 POP POP JUMP JUMPDEST PUSH1 0x0 PUSH2 0x23FE DUP3 PUSH2 0x15EF JUMP JUMPDEST SWAP2 POP PUSH2 0x2409 DUP4 PUSH2 0x15EF JUMP JUMPDEST SWAP3 POP DUP3 DUP3 SUB SWAP1 POP DUP2 DUP2 GT ISZERO PUSH2 0x2421 JUMPI PUSH2 0x2420 PUSH2 0x233D JUMP JUMPDEST JUMPDEST SWAP3 SWAP2 POP POP JUMP JUMPDEST PUSH1 0x0 PUSH1 0xA0 DUP3 ADD SWAP1 POP PUSH2 0x243C PUSH1 0x0 DUP4 ADD DUP9 PUSH2 0x19A4 JUMP JUMPDEST PUSH2 0x2449 PUSH1 0x20 DUP4 ADD DUP8 PUSH2 0x19A4 JUMP JUMPDEST PUSH2 0x2456 PUSH1 0x40 DUP4 ADD DUP7 PUSH2 0x19A4 JUMP JUMPDEST PUSH2 0x2463 PUSH1 0x60 DUP4 ADD DUP6 PUSH2 0x1995 JUMP JUMPDEST DUP2 DUP2 SUB PUSH1 0x80 DUP4 ADD MSTORE PUSH2 0x2475 DUP2 DUP5 PUSH2 0x1A4F JUMP JUMPDEST SWAP1 POP SWAP7 SWAP6 POP POP POP POP POP POP JUMP INVALID LOG2 PUSH5 0x6970667358 0x22 SLT KECCAK256 0xB9 AND PC MSTORE8 0xCC SWAP15 DUP6 0xF 0xDB PUSH8 0x9AAC6977476638AE 0xB1 GT 0xA9 PUSH26 0xDF6E4533144E54BDC7D64736F6C634300081200330000000000 "
				},
				"gasEstimates": {
					"creation": {
						"codeDepositCost": "1879800",
						"executionCost": "1983",
						"totalCost": "1881783"
					},
					"external": {
						"change_project_state(uint8,uint256)": "infinite",
						"contributions(string,uint256)": "infinite",
						"create_project(string,string,string,uint256,string)": "infinite",
						"fund_project(uint256)": "infinite",
						"new_projects(uint256)": "infinite"
					}
				},
				"methodIdentifiers": {
					"change_project_state(uint8,uint256)": "0f23e369",
					"contributions(string,uint256)": "7f3fcdd9",
					"create_project(string,string,string,uint256,string)": "65262133",
					"fund_project(uint256)": "8ee4fa0a",
					"new_projects(uint256)": "c4168d2e"
				}
			},
			"storageLayout": {
				"storage": [
					{
						"astId": 31,
						"contract": "contracts/crofunding/crofunding.sol:crofunding",
						"label": "new_projects",
						"offset": 0,
						"slot": "0",
						"type": "t_array(t_struct(project)27_storage)dyn_storage"
					},
					{
						"astId": 37,
						"contract": "contracts/crofunding/crofunding.sol:crofunding",
						"label": "contributions",
						"offset": 0,
						"slot": "1",
						"type": "t_mapping(t_string_memory_ptr,t_array(t_struct(contribution)9_storage)dyn_storage)"
					}
				],
				"types": {
					"t_address": {
						"encoding": "inplace",
						"label": "address",
						"numberOfBytes": "20"
					},
					"t_address_payable": {
						"encoding": "inplace",
						"label": "address payable",
						"numberOfBytes": "20"
					},
					"t_array(t_struct(contribution)9_storage)dyn_storage": {
						"base": "t_struct(contribution)9_storage",
						"encoding": "dynamic_array",
						"label": "struct crofunding.contribution[]",
						"numberOfBytes": "32"
					},
					"t_array(t_struct(project)27_storage)dyn_storage": {
						"base": "t_struct(project)27_storage",
						"encoding": "dynamic_array",
						"label": "struct crofunding.project[]",
						"numberOfBytes": "32"
					},
					"t_enum(is_open)4": {
						"encoding": "inplace",
						"label": "enum crofunding.is_open",
						"numberOfBytes": "1"
					},
					"t_mapping(t_string_memory_ptr,t_array(t_struct(contribution)9_storage)dyn_storage)": {
						"encoding": "mapping",
						"key": "t_string_memory_ptr",
						"label": "mapping(string => struct crofunding.contribution[])",
						"numberOfBytes": "32",
						"value": "t_array(t_struct(contribution)9_storage)dyn_storage"
					},
					"t_string_memory_ptr": {
						"encoding": "bytes",
						"label": "string",
						"numberOfBytes": "32"
					},
					"t_string_storage": {
						"encoding": "bytes",
						"label": "string",
						"numberOfBytes": "32"
					},
					"t_struct(contribution)9_storage": {
						"encoding": "inplace",
						"label": "struct crofunding.contribution",
						"members": [
							{
								"astId": 6,
								"contract": "contracts/crofunding/crofunding.sol:crofunding",
								"label": "contributor",
								"offset": 0,
								"slot": "0",
								"type": "t_address"
							},
							{
								"astId": 8,
								"contract": "contracts/crofunding/crofunding.sol:crofunding",
								"label": "value",
								"offset": 0,
								"slot": "1",
								"type": "t_uint256"
							}
						],
						"numberOfBytes": "64"
					},
					"t_struct(project)27_storage": {
						"encoding": "inplace",
						"label": "struct crofunding.project",
						"members": [
							{
								"astId": 11,
								"contract": "contracts/crofunding/crofunding.sol:crofunding",
								"label": "id",
								"offset": 0,
								"slot": "0",
								"type": "t_string_storage"
							},
							{
								"astId": 13,
								"contract": "contracts/crofunding/crofunding.sol:crofunding",
								"label": "name",
								"offset": 0,
								"slot": "1",
								"type": "t_string_storage"
							},
							{
								"astId": 15,
								"contract": "contracts/crofunding/crofunding.sol:crofunding",
								"label": "description",
								"offset": 0,
								"slot": "2",
								"type": "t_string_storage"
							},
							{
								"astId": 17,
								"contract": "contracts/crofunding/crofunding.sol:crofunding",
								"label": "author",
								"offset": 0,
								"slot": "3",
								"type": "t_address_payable"
							},
							{
								"astId": 19,
								"contract": "contracts/crofunding/crofunding.sol:crofunding",
								"label": "string_state",
								"offset": 0,
								"slot": "4",
								"type": "t_string_storage"
							},
							{
								"astId": 22,
								"contract": "contracts/crofunding/crofunding.sol:crofunding",
								"label": "state",
								"offset": 0,
								"slot": "5",
								"type": "t_enum(is_open)4"
							},
							{
								"astId": 24,
								"contract": "contracts/crofunding/crofunding.sol:crofunding",
								"label": "funds",
								"offset": 0,
								"slot": "6",
								"type": "t_uint256"
							},
							{
								"astId": 26,
								"contract": "contracts/crofunding/crofunding.sol:crofunding",
								"label": "funds_reising_goal",
								"offset": 0,
								"slot": "7",
								"type": "t_uint256"
							}
						],
						"numberOfBytes": "256"
					},
					"t_uint256": {
						"encoding": "inplace",
						"label": "uint256",
						"numberOfBytes": "32"
					}
				}
			},
			"userdoc": {
				"kind": "user",
				"methods": {},
				"version": 1
			}
		}
	}
}