{
	"contracts/supplies/supplies.sol": {
		"supply_chain": {
			"abi": [
				{
					"anonymous": false,
					"inputs": [
						{
							"indexed": false,
							"internalType": "uint256",
							"name": "product_id",
							"type": "uint256"
						},
						{
							"indexed": false,
							"internalType": "enum supply_chain.status",
							"name": "status0",
							"type": "uint8"
						},
						{
							"indexed": false,
							"internalType": "string",
							"name": "metadata",
							"type": "string"
						},
						{
							"indexed": false,
							"internalType": "address",
							"name": "author",
							"type": "address"
						},
						{
							"indexed": false,
							"internalType": "uint256",
							"name": "price",
							"type": "uint256"
						}
					],
					"name": "registered_step",
					"type": "event"
				},
				{
					"inputs": [
						{
							"internalType": "uint256",
							"name": "",
							"type": "uint256"
						},
						{
							"internalType": "uint256",
							"name": "",
							"type": "uint256"
						}
					],
					"name": "products",
					"outputs": [
						{
							"internalType": "enum supply_chain.status",
							"name": "status0",
							"type": "uint8"
						},
						{
							"internalType": "string",
							"name": "metadata",
							"type": "string"
						},
						{
							"internalType": "uint256",
							"name": "price",
							"type": "uint256"
						},
						{
							"internalType": "address",
							"name": "author",
							"type": "address"
						}
					],
					"stateMutability": "view",
					"type": "function"
				},
				{
					"inputs": [
						{
							"internalType": "uint256",
							"name": "product_id",
							"type": "uint256"
						}
					],
					"name": "register_product",
					"outputs": [
						{
							"internalType": "bool",
							"name": "success",
							"type": "bool"
						}
					],
					"stateMutability": "nonpayable",
					"type": "function"
				},
				{
					"inputs": [
						{
							"internalType": "uint256",
							"name": "product_id",
							"type": "uint256"
						},
						{
							"internalType": "string",
							"name": "metadata",
							"type": "string"
						},
						{
							"internalType": "uint256",
							"name": "price",
							"type": "uint256"
						}
					],
					"name": "register_step",
					"outputs": [
						{
							"internalType": "bool",
							"name": "success",
							"type": "bool"
						}
					],
					"stateMutability": "payable",
					"type": "function"
				}
			],
			"devdoc": {
				"kind": "dev",
				"methods": {},
				"version": 1
			},
			"evm": {
				"assembly": "    /* \"contracts/supplies/supplies.sol\":70:2130  contract supply_chain{... */\n  mstore(0x40, 0x80)\n  callvalue\n  dup1\n  iszero\n  tag_1\n  jumpi\n  0x00\n  dup1\n  revert\ntag_1:\n  pop\n  dataSize(sub_0)\n  dup1\n  dataOffset(sub_0)\n  0x00\n  codecopy\n  0x00\n  return\nstop\n\nsub_0: assembly {\n        /* \"contracts/supplies/supplies.sol\":70:2130  contract supply_chain{... */\n      mstore(0x40, 0x80)\n      jumpi(tag_1, lt(calldatasize, 0x04))\n      shr(0xe0, calldataload(0x00))\n      dup1\n      0x2e855eb4\n      eq\n      tag_2\n      jumpi\n      dup1\n      0x643b48e5\n      eq\n      tag_3\n      jumpi\n      dup1\n      0xa590fbdb\n      eq\n      tag_4\n      jumpi\n    tag_1:\n      0x00\n      dup1\n      revert\n        /* \"contracts/supplies/supplies.sol\":827:2123  function register_step(... */\n    tag_2:\n      tag_5\n      0x04\n      dup1\n      calldatasize\n      sub\n      dup2\n      add\n      swap1\n      tag_6\n      swap2\n      swap1\n      tag_7\n      jump\t// in\n    tag_6:\n      tag_8\n      jump\t// in\n    tag_5:\n      mload(0x40)\n      tag_9\n      swap2\n      swap1\n      tag_10\n      jump\t// in\n    tag_9:\n      mload(0x40)\n      dup1\n      swap2\n      sub\n      swap1\n      return\n        /* \"contracts/supplies/supplies.sol\":556:821  function register_product(uint256 product_id) public returns (bool success){... */\n    tag_3:\n      callvalue\n      dup1\n      iszero\n      tag_11\n      jumpi\n      0x00\n      dup1\n      revert\n    tag_11:\n      pop\n      tag_12\n      0x04\n      dup1\n      calldatasize\n      sub\n      dup2\n      add\n      swap1\n      tag_13\n      swap2\n      swap1\n      tag_14\n      jump\t// in\n    tag_13:\n      tag_15\n      jump\t// in\n    tag_12:\n      mload(0x40)\n      tag_16\n      swap2\n      swap1\n      tag_10\n      jump\t// in\n    tag_16:\n      mload(0x40)\n      dup1\n      swap2\n      sub\n      swap1\n      return\n        /* \"contracts/supplies/supplies.sol\":505:548  mapping(uint256 => step[]) public  products */\n    tag_4:\n      callvalue\n      dup1\n      iszero\n      tag_17\n      jumpi\n      0x00\n      dup1\n      revert\n    tag_17:\n      pop\n      tag_18\n      0x04\n      dup1\n      calldatasize\n      sub\n      dup2\n      add\n      swap1\n      tag_19\n      swap2\n      swap1\n      tag_20\n      jump\t// in\n    tag_19:\n      tag_21\n      jump\t// in\n    tag_18:\n      mload(0x40)\n      tag_22\n      swap5\n      swap4\n      swap3\n      swap2\n      swap1\n      tag_23\n      jump\t// in\n    tag_22:\n      mload(0x40)\n      dup1\n      swap2\n      sub\n      swap1\n      return\n        /* \"contracts/supplies/supplies.sol\":827:2123  function register_step(... */\n    tag_8:\n        /* \"contracts/supplies/supplies.sol\":965:977  bool success */\n      0x00\n        /* \"contracts/supplies/supplies.sol\":1026:1027  0 */\n      dup1\n        /* \"contracts/supplies/supplies.sol\":996:1004  products */\n      0x00\n        /* \"contracts/supplies/supplies.sol\":996:1016  products[product_id] */\n      dup1\n        /* \"contracts/supplies/supplies.sol\":1005:1015  product_id */\n      dup8\n        /* \"contracts/supplies/supplies.sol\":996:1016  products[product_id] */\n      dup2\n      mstore\n      0x20\n      add\n      swap1\n      dup2\n      mstore\n      0x20\n      add\n      0x00\n      keccak256\n        /* \"contracts/supplies/supplies.sol\":996:1023  products[product_id].length */\n      dup1\n      sload\n      swap1\n      pop\n        /* \"contracts/supplies/supplies.sol\":996:1027  products[product_id].length > 0 */\n      gt\n        /* \"contracts/supplies/supplies.sol\":988:1058  require(products[product_id].length > 0, \"this product doesn't exist\") */\n      tag_25\n      jumpi\n      mload(0x40)\n      0x08c379a000000000000000000000000000000000000000000000000000000000\n      dup2\n      mstore\n      0x04\n      add\n      tag_26\n      swap1\n      tag_27\n      jump\t// in\n    tag_26:\n      mload(0x40)\n      dup1\n      swap2\n      sub\n      swap1\n      revert\n    tag_25:\n        /* \"contracts/supplies/supplies.sol\":1068:1093  step[] memory steps_array */\n      0x00\n        /* \"contracts/supplies/supplies.sol\":1096:1104  products */\n      dup1\n        /* \"contracts/supplies/supplies.sol\":1096:1116  products[product_id] */\n      0x00\n        /* \"contracts/supplies/supplies.sol\":1105:1115  product_id */\n      dup8\n        /* \"contracts/supplies/supplies.sol\":1096:1116  products[product_id] */\n      dup2\n      mstore\n      0x20\n      add\n      swap1\n      dup2\n      mstore\n      0x20\n      add\n      0x00\n      keccak256\n        /* \"contracts/supplies/supplies.sol\":1068:1116  step[] memory steps_array = products[product_id] */\n      dup1\n      sload\n      dup1\n      0x20\n      mul\n      0x20\n      add\n      mload(0x40)\n      swap1\n      dup2\n      add\n      0x40\n      mstore\n      dup1\n      swap3\n      swap2\n      swap1\n      dup2\n      dup2\n      mstore\n      0x20\n      add\n      0x00\n      swap1\n    tag_28:\n      dup3\n      dup3\n      lt\n      iszero\n      tag_29\n      jumpi\n      dup4\n      dup3\n      swap1\n      0x00\n      mstore\n      keccak256(0x00, 0x20)\n      swap1\n      0x04\n      mul\n      add\n      mload(0x40)\n      dup1\n      0x80\n      add\n      0x40\n      mstore\n      swap1\n      dup2\n      0x00\n      dup3\n      add\n      0x00\n      swap1\n      sload\n      swap1\n      0x0100\n      exp\n      swap1\n      div\n      0xff\n      and\n      0x04\n      dup2\n      gt\n      iszero\n      tag_31\n      jumpi\n      tag_32\n      tag_33\n      jump\t// in\n    tag_32:\n    tag_31:\n      0x04\n      dup2\n      gt\n      iszero\n      tag_34\n      jumpi\n      tag_35\n      tag_33\n      jump\t// in\n    tag_35:\n    tag_34:\n      dup2\n      mstore\n      0x20\n      add\n      0x01\n      dup3\n      add\n      dup1\n      sload\n      tag_36\n      swap1\n      tag_37\n      jump\t// in\n    tag_36:\n      dup1\n      0x1f\n      add\n      0x20\n      dup1\n      swap2\n      div\n      mul\n      0x20\n      add\n      mload(0x40)\n      swap1\n      dup2\n      add\n      0x40\n      mstore\n      dup1\n      swap3\n      swap2\n      swap1\n      dup2\n      dup2\n      mstore\n      0x20\n      add\n      dup3\n      dup1\n      sload\n      tag_38\n      swap1\n      tag_37\n      jump\t// in\n    tag_38:\n      dup1\n      iszero\n      tag_39\n      jumpi\n      dup1\n      0x1f\n      lt\n      tag_40\n      jumpi\n      0x0100\n      dup1\n      dup4\n      sload\n      div\n      mul\n      dup4\n      mstore\n      swap2\n      0x20\n      add\n      swap2\n      jump(tag_39)\n    tag_40:\n      dup3\n      add\n      swap2\n      swap1\n      0x00\n      mstore\n      keccak256(0x00, 0x20)\n      swap1\n    tag_41:\n      dup2\n      sload\n      dup2\n      mstore\n      swap1\n      0x01\n      add\n      swap1\n      0x20\n      add\n      dup1\n      dup4\n      gt\n      tag_41\n      jumpi\n      dup3\n      swap1\n      sub\n      0x1f\n      and\n      dup3\n      add\n      swap2\n    tag_39:\n      pop\n      pop\n      pop\n      pop\n      pop\n      dup2\n      mstore\n      0x20\n      add\n      0x02\n      dup3\n      add\n      sload\n      dup2\n      mstore\n      0x20\n      add\n      0x03\n      dup3\n      add\n      0x00\n      swap1\n      sload\n      swap1\n      0x0100\n      exp\n      swap1\n      div\n      0xffffffffffffffffffffffffffffffffffffffff\n      and\n      0xffffffffffffffffffffffffffffffffffffffff\n      and\n      0xffffffffffffffffffffffffffffffffffffffff\n      and\n      dup2\n      mstore\n      pop\n      pop\n      dup2\n      mstore\n      0x20\n      add\n      swap1\n      0x01\n      add\n      swap1\n      jump(tag_28)\n    tag_29:\n      pop\n      pop\n      pop\n      pop\n      swap1\n      pop\n        /* \"contracts/supplies/supplies.sol\":1126:1148  uint256 current_status */\n      0x00\n        /* \"contracts/supplies/supplies.sol\":1229:1230  1 */\n      0x01\n        /* \"contracts/supplies/supplies.sol\":1172:1183  steps_array */\n      dup3\n        /* \"contracts/supplies/supplies.sol\":1205:1206  1 */\n      0x01\n        /* \"contracts/supplies/supplies.sol\":1184:1195  steps_array */\n      dup5\n        /* \"contracts/supplies/supplies.sol\":1184:1202  steps_array.length */\n      mload\n        /* \"contracts/supplies/supplies.sol\":1184:1206  steps_array.length - 1 */\n      tag_42\n      swap2\n      swap1\n      tag_43\n      jump\t// in\n    tag_42:\n        /* \"contracts/supplies/supplies.sol\":1172:1208  steps_array[steps_array.length - 1 ] */\n      dup2\n      mload\n      dup2\n      lt\n      tag_44\n      jumpi\n      tag_45\n      tag_46\n      jump\t// in\n    tag_45:\n    tag_44:\n      0x20\n      mul\n      0x20\n      add\n      add\n      mload\n        /* \"contracts/supplies/supplies.sol\":1172:1216  steps_array[steps_array.length - 1 ].status0 */\n      0x00\n      add\n      mload\n        /* \"contracts/supplies/supplies.sol\":1151:1226  uint256(... */\n      0x04\n      dup2\n      gt\n      iszero\n      tag_47\n      jumpi\n      tag_48\n      tag_33\n      jump\t// in\n    tag_48:\n    tag_47:\n        /* \"contracts/supplies/supplies.sol\":1151:1230  uint256(... */\n      tag_49\n      swap2\n      swap1\n      tag_50\n      jump\t// in\n    tag_49:\n        /* \"contracts/supplies/supplies.sol\":1126:1230  uint256 current_status = uint256(... */\n      swap1\n      pop\n        /* \"contracts/supplies/supplies.sol\":1270:1286  status.DELIVERED */\n      0x04\n        /* \"contracts/supplies/supplies.sol\":1262:1287  uint256(status.DELIVERED) */\n      dup1\n      dup2\n      gt\n      iszero\n      tag_51\n      jumpi\n      tag_52\n      tag_33\n      jump\t// in\n    tag_52:\n    tag_51:\n        /* \"contracts/supplies/supplies.sol\":1245:1259  current_status */\n      dup2\n        /* \"contracts/supplies/supplies.sol\":1245:1287  current_status > uint256(status.DELIVERED) */\n      gt\n        /* \"contracts/supplies/supplies.sol\":1242:1352  if(current_status > uint256(status.DELIVERED)){... */\n      iszero\n      tag_53\n      jumpi\n        /* \"contracts/supplies/supplies.sol\":1302:1341  revert(\"the product has no more steps\") */\n      mload(0x40)\n      0x08c379a000000000000000000000000000000000000000000000000000000000\n      dup2\n      mstore\n      0x04\n      add\n      tag_54\n      swap1\n      tag_55\n      jump\t// in\n    tag_54:\n      mload(0x40)\n      dup1\n      swap2\n      sub\n      swap1\n      revert\n        /* \"contracts/supplies/supplies.sol\":1242:1352  if(current_status > uint256(status.DELIVERED)){... */\n    tag_53:\n        /* \"contracts/supplies/supplies.sol\":1391:1405  status.PICK_UP */\n      0x02\n        /* \"contracts/supplies/supplies.sol\":1383:1406  uint256(status.PICK_UP) */\n      0x04\n      dup2\n      gt\n      iszero\n      tag_56\n      jumpi\n      tag_57\n      tag_33\n      jump\t// in\n    tag_57:\n    tag_56:\n        /* \"contracts/supplies/supplies.sol\":1365:1379  current_status */\n      dup2\n        /* \"contracts/supplies/supplies.sol\":1365:1406  current_status == uint256(status.PICK_UP) */\n      eq\n        /* \"contracts/supplies/supplies.sol\":1365:1466  current_status == uint256(status.PICK_UP) || ... */\n      dup1\n      tag_58\n      jumpi\n      pop\n        /* \"contracts/supplies/supplies.sol\":1449:1465  status.DELIVERED */\n      0x04\n        /* \"contracts/supplies/supplies.sol\":1441:1466  uint256(status.DELIVERED) */\n      dup1\n      dup2\n      gt\n      iszero\n      tag_59\n      jumpi\n      tag_60\n      tag_33\n      jump\t// in\n    tag_60:\n    tag_59:\n        /* \"contracts/supplies/supplies.sol\":1423:1437  current_status */\n      dup2\n        /* \"contracts/supplies/supplies.sol\":1423:1466  current_status == uint256(status.DELIVERED) */\n      eq\n        /* \"contracts/supplies/supplies.sol\":1365:1466  current_status == uint256(status.PICK_UP) || ... */\n    tag_58:\n        /* \"contracts/supplies/supplies.sol\":1361:1780  if (current_status == uint256(status.PICK_UP) || ... */\n      iszero\n      tag_61\n      jumpi\n        /* \"contracts/supplies/supplies.sol\":1491:1505  uint256 _price */\n      0x00\n        /* \"contracts/supplies/supplies.sol\":1508:1519  steps_array */\n      dup3\n        /* \"contracts/supplies/supplies.sol\":1537:1538  1 */\n      0x01\n        /* \"contracts/supplies/supplies.sol\":1520:1534  current_status */\n      dup4\n        /* \"contracts/supplies/supplies.sol\":1520:1538  current_status - 1 */\n      tag_62\n      swap2\n      swap1\n      tag_43\n      jump\t// in\n    tag_62:\n        /* \"contracts/supplies/supplies.sol\":1508:1539  steps_array[current_status - 1] */\n      dup2\n      mload\n      dup2\n      lt\n      tag_63\n      jumpi\n      tag_64\n      tag_46\n      jump\t// in\n    tag_64:\n    tag_63:\n      0x20\n      mul\n      0x20\n      add\n      add\n      mload\n        /* \"contracts/supplies/supplies.sol\":1508:1545  steps_array[current_status - 1].price */\n      0x40\n      add\n      mload\n        /* \"contracts/supplies/supplies.sol\":1491:1545  uint256 _price = steps_array[current_status - 1].price */\n      swap1\n      pop\n        /* \"contracts/supplies/supplies.sol\":1575:1581  _price */\n      dup1\n        /* \"contracts/supplies/supplies.sol\":1563:1572  msg.value */\n      callvalue\n        /* \"contracts/supplies/supplies.sol\":1563:1581  msg.value < _price */\n      lt\n        /* \"contracts/supplies/supplies.sol\":1560:1652  if(msg.value < _price){... */\n      iszero\n      tag_65\n      jumpi\n        /* \"contracts/supplies/supplies.sol\":1600:1637  revert(\"you need yo pay the service\") */\n      mload(0x40)\n      0x08c379a000000000000000000000000000000000000000000000000000000000\n      dup2\n      mstore\n      0x04\n      add\n      tag_66\n      swap1\n      tag_67\n      jump\t// in\n    tag_66:\n      mload(0x40)\n      dup1\n      swap2\n      sub\n      swap1\n      revert\n        /* \"contracts/supplies/supplies.sol\":1560:1652  if(msg.value < _price){... */\n    tag_65:\n        /* \"contracts/supplies/supplies.sol\":1665:1684  address payable _to */\n      0x00\n        /* \"contracts/supplies/supplies.sol\":1696:1707  steps_array */\n      dup4\n        /* \"contracts/supplies/supplies.sol\":1725:1726  1 */\n      0x01\n        /* \"contracts/supplies/supplies.sol\":1708:1722  current_status */\n      dup5\n        /* \"contracts/supplies/supplies.sol\":1708:1726  current_status - 1 */\n      tag_68\n      swap2\n      swap1\n      tag_43\n      jump\t// in\n    tag_68:\n        /* \"contracts/supplies/supplies.sol\":1696:1727  steps_array[current_status - 1] */\n      dup2\n      mload\n      dup2\n      lt\n      tag_69\n      jumpi\n      tag_70\n      tag_46\n      jump\t// in\n    tag_70:\n    tag_69:\n      0x20\n      mul\n      0x20\n      add\n      add\n      mload\n        /* \"contracts/supplies/supplies.sol\":1696:1734  steps_array[current_status - 1].author */\n      0x60\n      add\n      mload\n        /* \"contracts/supplies/supplies.sol\":1665:1735  address payable _to = payable (steps_array[current_status - 1].author) */\n      swap1\n      pop\n        /* \"contracts/supplies/supplies.sol\":1749:1752  _to */\n      dup1\n        /* \"contracts/supplies/supplies.sol\":1749:1761  _to.transfer */\n      0xffffffffffffffffffffffffffffffffffffffff\n      and\n        /* \"contracts/supplies/supplies.sol\":1749:1769  _to.transfer(_price) */\n      0x08fc\n        /* \"contracts/supplies/supplies.sol\":1762:1768  _price */\n      dup4\n        /* \"contracts/supplies/supplies.sol\":1749:1769  _to.transfer(_price) */\n      swap1\n      dup2\n      iszero\n      mul\n      swap1\n      mload(0x40)\n      0x00\n      mload(0x40)\n      dup1\n      dup4\n      sub\n      dup2\n      dup6\n      dup9\n      dup9\n      call\n      swap4\n      pop\n      pop\n      pop\n      pop\n      iszero\n      dup1\n      iszero\n      tag_72\n      jumpi\n      returndatasize\n      0x00\n      dup1\n      returndatacopy\n      revert(0x00, returndatasize)\n    tag_72:\n      pop\n        /* \"contracts/supplies/supplies.sol\":1477:1780  {... */\n      pop\n      pop\n        /* \"contracts/supplies/supplies.sol\":1361:1780  if (current_status == uint256(status.PICK_UP) || ... */\n    tag_61:\n        /* \"contracts/supplies/supplies.sol\":1792:1809  step memory step0 */\n      0x00\n        /* \"contracts/supplies/supplies.sol\":1812:1928  step( ... */\n      mload(0x40)\n      dup1\n      0x80\n      add\n      0x40\n      mstore\n      dup1\n        /* \"contracts/supplies/supplies.sol\":1838:1852  current_status */\n      dup4\n        /* \"contracts/supplies/supplies.sol\":1831:1853  status(current_status) */\n      0x04\n      dup2\n      gt\n      iszero\n      tag_73\n      jumpi\n      tag_74\n      tag_33\n      jump\t// in\n    tag_74:\n    tag_73:\n        /* \"contracts/supplies/supplies.sol\":1812:1928  step( ... */\n      0x04\n      dup2\n      gt\n      iszero\n      tag_75\n      jumpi\n      tag_76\n      tag_33\n      jump\t// in\n    tag_76:\n    tag_75:\n      dup2\n      mstore\n      0x20\n      add\n        /* \"contracts/supplies/supplies.sol\":1867:1875  metadata */\n      dup9\n      dup9\n        /* \"contracts/supplies/supplies.sol\":1812:1928  step( ... */\n      dup1\n      dup1\n      0x1f\n      add\n      0x20\n      dup1\n      swap2\n      div\n      mul\n      0x20\n      add\n      mload(0x40)\n      swap1\n      dup2\n      add\n      0x40\n      mstore\n      dup1\n      swap4\n      swap3\n      swap2\n      swap1\n      dup2\n      dup2\n      mstore\n      0x20\n      add\n      dup4\n      dup4\n      dup1\n      dup3\n      dup5\n      calldatacopy\n      0x00\n      dup2\n      dup5\n      add\n      mstore\n      not(0x1f)\n      0x1f\n      dup3\n      add\n      and\n      swap1\n      pop\n      dup1\n      dup4\n      add\n      swap3\n      pop\n      pop\n      pop\n      pop\n      pop\n      pop\n      pop\n      dup2\n      mstore\n      0x20\n      add\n        /* \"contracts/supplies/supplies.sol\":1889:1894  price */\n      dup7\n        /* \"contracts/supplies/supplies.sol\":1812:1928  step( ... */\n      dup2\n      mstore\n      0x20\n      add\n        /* \"contracts/supplies/supplies.sol\":1908:1918  msg.sender */\n      caller\n        /* \"contracts/supplies/supplies.sol\":1812:1928  step( ... */\n      0xffffffffffffffffffffffffffffffffffffffff\n      and\n      dup2\n      mstore\n      pop\n        /* \"contracts/supplies/supplies.sol\":1792:1928  step memory step0 = step( ... */\n      swap1\n      pop\n        /* \"contracts/supplies/supplies.sol\":1938:1946  products */\n      0x00\n        /* \"contracts/supplies/supplies.sol\":1938:1958  products[product_id] */\n      dup1\n        /* \"contracts/supplies/supplies.sol\":1947:1957  product_id */\n      dup10\n        /* \"contracts/supplies/supplies.sol\":1938:1958  products[product_id] */\n      dup2\n      mstore\n      0x20\n      add\n      swap1\n      dup2\n      mstore\n      0x20\n      add\n      0x00\n      keccak256\n        /* \"contracts/supplies/supplies.sol\":1964:1969  step0 */\n      dup2\n        /* \"contracts/supplies/supplies.sol\":1938:1970  products[product_id].push(step0) */\n      swap1\n      dup1\n      0x01\n      dup2\n      sload\n      add\n      dup1\n      dup3\n      sstore\n      dup1\n      swap2\n      pop\n      pop\n      0x01\n      swap1\n      sub\n      swap1\n      0x00\n      mstore\n      keccak256(0x00, 0x20)\n      swap1\n      0x04\n      mul\n      add\n      0x00\n      swap1\n      swap2\n      swap1\n      swap2\n      swap1\n      swap2\n      pop\n      0x00\n      dup3\n      add\n      mload\n      dup2\n      0x00\n      add\n      exp(0x0100, 0x00)\n      dup2\n      sload\n      dup2\n      0xff\n      mul\n      not\n      and\n      swap1\n      dup4\n      0x04\n      dup2\n      gt\n      iszero\n      tag_78\n      jumpi\n      tag_79\n      tag_33\n      jump\t// in\n    tag_79:\n    tag_78:\n      mul\n      or\n      swap1\n      sstore\n      pop\n      0x20\n      dup3\n      add\n      mload\n      dup2\n      0x01\n      add\n      swap1\n      dup2\n      tag_80\n      swap2\n      swap1\n      tag_81\n      jump\t// in\n    tag_80:\n      pop\n      0x40\n      dup3\n      add\n      mload\n      dup2\n      0x02\n      add\n      sstore\n      0x60\n      dup3\n      add\n      mload\n      dup2\n      0x03\n      add\n      exp(0x0100, 0x00)\n      dup2\n      sload\n      dup2\n      0xffffffffffffffffffffffffffffffffffffffff\n      mul\n      not\n      and\n      swap1\n      dup4\n      0xffffffffffffffffffffffffffffffffffffffff\n      and\n      mul\n      or\n      swap1\n      sstore\n      pop\n      pop\n      pop\n        /* \"contracts/supplies/supplies.sol\":2003:2083  registered_step(product_id, status(current_status), metadata, msg.sender, price) */\n      0x5af2bfe982689f34f03c39033a8fecf869f42b81b23572f5eff29d1e057ee6db\n        /* \"contracts/supplies/supplies.sol\":2019:2029  product_id */\n      dup9\n        /* \"contracts/supplies/supplies.sol\":2038:2052  current_status */\n      dup4\n        /* \"contracts/supplies/supplies.sol\":2031:2053  status(current_status) */\n      0x04\n      dup2\n      gt\n      iszero\n      tag_82\n      jumpi\n      tag_83\n      tag_33\n      jump\t// in\n    tag_83:\n    tag_82:\n        /* \"contracts/supplies/supplies.sol\":2055:2063  metadata */\n      dup10\n      dup10\n        /* \"contracts/supplies/supplies.sol\":2065:2075  msg.sender */\n      caller\n        /* \"contracts/supplies/supplies.sol\":2077:2082  price */\n      dup11\n        /* \"contracts/supplies/supplies.sol\":2003:2083  registered_step(product_id, status(current_status), metadata, msg.sender, price) */\n      mload(0x40)\n      tag_84\n      swap7\n      swap6\n      swap5\n      swap4\n      swap3\n      swap2\n      swap1\n      tag_85\n      jump\t// in\n    tag_84:\n      mload(0x40)\n      dup1\n      swap2\n      sub\n      swap1\n      log1\n        /* \"contracts/supplies/supplies.sol\":2112:2116  true */\n      0x01\n        /* \"contracts/supplies/supplies.sol\":2102:2116  success = true */\n      swap4\n      pop\n        /* \"contracts/supplies/supplies.sol\":978:2123  {... */\n      pop\n      pop\n      pop\n        /* \"contracts/supplies/supplies.sol\":827:2123  function register_step(... */\n      swap5\n      swap4\n      pop\n      pop\n      pop\n      pop\n      jump\t// out\n        /* \"contracts/supplies/supplies.sol\":556:821  function register_product(uint256 product_id) public returns (bool success){... */\n    tag_15:\n        /* \"contracts/supplies/supplies.sol\":618:630  bool success */\n      0x00\n        /* \"contracts/supplies/supplies.sol\":680:681  0 */\n      dup1\n        /* \"contracts/supplies/supplies.sol\":649:657  products */\n      0x00\n        /* \"contracts/supplies/supplies.sol\":649:669  products[product_id] */\n      dup1\n        /* \"contracts/supplies/supplies.sol\":658:668  product_id */\n      dup5\n        /* \"contracts/supplies/supplies.sol\":649:669  products[product_id] */\n      dup2\n      mstore\n      0x20\n      add\n      swap1\n      dup2\n      mstore\n      0x20\n      add\n      0x00\n      keccak256\n        /* \"contracts/supplies/supplies.sol\":649:676  products[product_id].length */\n      dup1\n      sload\n      swap1\n      pop\n        /* \"contracts/supplies/supplies.sol\":649:681  products[product_id].length == 0 */\n      eq\n        /* \"contracts/supplies/supplies.sol\":641:713  require(products[product_id].length == 0, \"this product already exists\") */\n      tag_87\n      jumpi\n      mload(0x40)\n      0x08c379a000000000000000000000000000000000000000000000000000000000\n      dup2\n      mstore\n      0x04\n      add\n      tag_88\n      swap1\n      tag_89\n      jump\t// in\n    tag_88:\n      mload(0x40)\n      dup1\n      swap2\n      sub\n      swap1\n      revert\n    tag_87:\n        /* \"contracts/supplies/supplies.sol\":723:731  products */\n      0x00\n        /* \"contracts/supplies/supplies.sol\":723:743  products[product_id] */\n      dup1\n        /* \"contracts/supplies/supplies.sol\":732:742  product_id */\n      dup4\n        /* \"contracts/supplies/supplies.sol\":723:743  products[product_id] */\n      dup2\n      mstore\n      0x20\n      add\n      swap1\n      dup2\n      mstore\n      0x20\n      add\n      0x00\n      keccak256\n        /* \"contracts/supplies/supplies.sol\":749:789  step(status.CREATED, \" \", 0, msg.sender) */\n      mload(0x40)\n      dup1\n      0x80\n      add\n      0x40\n      mstore\n      dup1\n        /* \"contracts/supplies/supplies.sol\":754:768  status.CREATED */\n      0x00\n        /* \"contracts/supplies/supplies.sol\":749:789  step(status.CREATED, \" \", 0, msg.sender) */\n      0x04\n      dup2\n      gt\n      iszero\n      tag_90\n      jumpi\n      tag_91\n      tag_33\n      jump\t// in\n    tag_91:\n    tag_90:\n      dup2\n      mstore\n      0x20\n      add\n      mload(0x40)\n      dup1\n      0x40\n      add\n      0x40\n      mstore\n      dup1\n      0x01\n      dup2\n      mstore\n      0x20\n      add\n      0x2000000000000000000000000000000000000000000000000000000000000000\n      dup2\n      mstore\n      pop\n      dup2\n      mstore\n      0x20\n      add\n        /* \"contracts/supplies/supplies.sol\":775:776  0 */\n      0x00\n        /* \"contracts/supplies/supplies.sol\":749:789  step(status.CREATED, \" \", 0, msg.sender) */\n      dup2\n      mstore\n      0x20\n      add\n        /* \"contracts/supplies/supplies.sol\":778:788  msg.sender */\n      caller\n        /* \"contracts/supplies/supplies.sol\":749:789  step(status.CREATED, \" \", 0, msg.sender) */\n      0xffffffffffffffffffffffffffffffffffffffff\n      and\n      dup2\n      mstore\n      pop\n        /* \"contracts/supplies/supplies.sol\":723:790  products[product_id].push(step(status.CREATED, \" \", 0, msg.sender)) */\n      swap1\n      dup1\n      0x01\n      dup2\n      sload\n      add\n      dup1\n      dup3\n      sstore\n      dup1\n      swap2\n      pop\n      pop\n      0x01\n      swap1\n      sub\n      swap1\n      0x00\n      mstore\n      keccak256(0x00, 0x20)\n      swap1\n      0x04\n      mul\n      add\n      0x00\n      swap1\n      swap2\n      swap1\n      swap2\n      swap1\n      swap2\n      pop\n      0x00\n      dup3\n      add\n      mload\n      dup2\n      0x00\n      add\n      exp(0x0100, 0x00)\n      dup2\n      sload\n      dup2\n      0xff\n      mul\n      not\n      and\n      swap1\n      dup4\n      0x04\n      dup2\n      gt\n      iszero\n      tag_93\n      jumpi\n      tag_94\n      tag_33\n      jump\t// in\n    tag_94:\n    tag_93:\n      mul\n      or\n      swap1\n      sstore\n      pop\n      0x20\n      dup3\n      add\n      mload\n      dup2\n      0x01\n      add\n      swap1\n      dup2\n      tag_95\n      swap2\n      swap1\n      tag_81\n      jump\t// in\n    tag_95:\n      pop\n      0x40\n      dup3\n      add\n      mload\n      dup2\n      0x02\n      add\n      sstore\n      0x60\n      dup3\n      add\n      mload\n      dup2\n      0x03\n      add\n      exp(0x0100, 0x00)\n      dup2\n      sload\n      dup2\n      0xffffffffffffffffffffffffffffffffffffffff\n      mul\n      not\n      and\n      swap1\n      dup4\n      0xffffffffffffffffffffffffffffffffffffffff\n      and\n      mul\n      or\n      swap1\n      sstore\n      pop\n      pop\n      pop\n        /* \"contracts/supplies/supplies.sol\":556:821  function register_product(uint256 product_id) public returns (bool success){... */\n      swap2\n      swap1\n      pop\n      jump\t// out\n        /* \"contracts/supplies/supplies.sol\":505:548  mapping(uint256 => step[]) public  products */\n    tag_21:\n      mstore(0x20, 0x00)\n      dup2\n      0x00\n      mstore\n      keccak256(0x00, 0x40)\n      dup2\n      dup2\n      sload\n      dup2\n      lt\n      tag_96\n      jumpi\n      0x00\n      dup1\n      revert\n    tag_96:\n      swap1\n      0x00\n      mstore\n      keccak256(0x00, 0x20)\n      swap1\n      0x04\n      mul\n      add\n      0x00\n      swap2\n      pop\n      swap2\n      pop\n      pop\n      dup1\n      0x00\n      add\n      0x00\n      swap1\n      sload\n      swap1\n      0x0100\n      exp\n      swap1\n      div\n      0xff\n      and\n      swap1\n      dup1\n      0x01\n      add\n      dup1\n      sload\n      tag_98\n      swap1\n      tag_37\n      jump\t// in\n    tag_98:\n      dup1\n      0x1f\n      add\n      0x20\n      dup1\n      swap2\n      div\n      mul\n      0x20\n      add\n      mload(0x40)\n      swap1\n      dup2\n      add\n      0x40\n      mstore\n      dup1\n      swap3\n      swap2\n      swap1\n      dup2\n      dup2\n      mstore\n      0x20\n      add\n      dup3\n      dup1\n      sload\n      tag_99\n      swap1\n      tag_37\n      jump\t// in\n    tag_99:\n      dup1\n      iszero\n      tag_100\n      jumpi\n      dup1\n      0x1f\n      lt\n      tag_101\n      jumpi\n      0x0100\n      dup1\n      dup4\n      sload\n      div\n      mul\n      dup4\n      mstore\n      swap2\n      0x20\n      add\n      swap2\n      jump(tag_100)\n    tag_101:\n      dup3\n      add\n      swap2\n      swap1\n      0x00\n      mstore\n      keccak256(0x00, 0x20)\n      swap1\n    tag_102:\n      dup2\n      sload\n      dup2\n      mstore\n      swap1\n      0x01\n      add\n      swap1\n      0x20\n      add\n      dup1\n      dup4\n      gt\n      tag_102\n      jumpi\n      dup3\n      swap1\n      sub\n      0x1f\n      and\n      dup3\n      add\n      swap2\n    tag_100:\n      pop\n      pop\n      pop\n      pop\n      pop\n      swap1\n      dup1\n      0x02\n      add\n      sload\n      swap1\n      dup1\n      0x03\n      add\n      0x00\n      swap1\n      sload\n      swap1\n      0x0100\n      exp\n      swap1\n      div\n      0xffffffffffffffffffffffffffffffffffffffff\n      and\n      swap1\n      pop\n      dup5\n      jump\t// out\n        /* \"#utility.yul\":88:205   */\n    tag_104:\n        /* \"#utility.yul\":197:198   */\n      0x00\n        /* \"#utility.yul\":194:195   */\n      dup1\n        /* \"#utility.yul\":187:199   */\n      revert\n        /* \"#utility.yul\":211:328   */\n    tag_105:\n        /* \"#utility.yul\":320:321   */\n      0x00\n        /* \"#utility.yul\":317:318   */\n      dup1\n        /* \"#utility.yul\":310:322   */\n      revert\n        /* \"#utility.yul\":334:411   */\n    tag_106:\n        /* \"#utility.yul\":371:378   */\n      0x00\n        /* \"#utility.yul\":400:405   */\n      dup2\n        /* \"#utility.yul\":389:405   */\n      swap1\n      pop\n        /* \"#utility.yul\":334:411   */\n      swap2\n      swap1\n      pop\n      jump\t// out\n        /* \"#utility.yul\":417:539   */\n    tag_107:\n        /* \"#utility.yul\":490:514   */\n      tag_162\n        /* \"#utility.yul\":508:513   */\n      dup2\n        /* \"#utility.yul\":490:514   */\n      tag_106\n      jump\t// in\n    tag_162:\n        /* \"#utility.yul\":483:488   */\n      dup2\n        /* \"#utility.yul\":480:515   */\n      eq\n        /* \"#utility.yul\":470:533   */\n      tag_163\n      jumpi\n        /* \"#utility.yul\":529:530   */\n      0x00\n        /* \"#utility.yul\":526:527   */\n      dup1\n        /* \"#utility.yul\":519:531   */\n      revert\n        /* \"#utility.yul\":470:533   */\n    tag_163:\n        /* \"#utility.yul\":417:539   */\n      pop\n      jump\t// out\n        /* \"#utility.yul\":545:684   */\n    tag_108:\n        /* \"#utility.yul\":591:596   */\n      0x00\n        /* \"#utility.yul\":629:635   */\n      dup2\n        /* \"#utility.yul\":616:636   */\n      calldataload\n        /* \"#utility.yul\":607:636   */\n      swap1\n      pop\n        /* \"#utility.yul\":645:678   */\n      tag_165\n        /* \"#utility.yul\":672:677   */\n      dup2\n        /* \"#utility.yul\":645:678   */\n      tag_107\n      jump\t// in\n    tag_165:\n        /* \"#utility.yul\":545:684   */\n      swap3\n      swap2\n      pop\n      pop\n      jump\t// out\n        /* \"#utility.yul\":690:807   */\n    tag_109:\n        /* \"#utility.yul\":799:800   */\n      0x00\n        /* \"#utility.yul\":796:797   */\n      dup1\n        /* \"#utility.yul\":789:801   */\n      revert\n        /* \"#utility.yul\":813:930   */\n    tag_110:\n        /* \"#utility.yul\":922:923   */\n      0x00\n        /* \"#utility.yul\":919:920   */\n      dup1\n        /* \"#utility.yul\":912:924   */\n      revert\n        /* \"#utility.yul\":936:1053   */\n    tag_111:\n        /* \"#utility.yul\":1045:1046   */\n      0x00\n        /* \"#utility.yul\":1042:1043   */\n      dup1\n        /* \"#utility.yul\":1035:1047   */\n      revert\n        /* \"#utility.yul\":1073:1626   */\n    tag_112:\n        /* \"#utility.yul\":1131:1139   */\n      0x00\n        /* \"#utility.yul\":1141:1147   */\n      dup1\n        /* \"#utility.yul\":1191:1194   */\n      dup4\n        /* \"#utility.yul\":1184:1188   */\n      0x1f\n        /* \"#utility.yul\":1176:1182   */\n      dup5\n        /* \"#utility.yul\":1172:1189   */\n      add\n        /* \"#utility.yul\":1168:1195   */\n      slt\n        /* \"#utility.yul\":1158:1280   */\n      tag_170\n      jumpi\n        /* \"#utility.yul\":1199:1278   */\n      tag_171\n      tag_109\n      jump\t// in\n    tag_171:\n        /* \"#utility.yul\":1158:1280   */\n    tag_170:\n        /* \"#utility.yul\":1312:1318   */\n      dup3\n        /* \"#utility.yul\":1299:1319   */\n      calldataload\n        /* \"#utility.yul\":1289:1319   */\n      swap1\n      pop\n        /* \"#utility.yul\":1342:1360   */\n      0xffffffffffffffff\n        /* \"#utility.yul\":1334:1340   */\n      dup2\n        /* \"#utility.yul\":1331:1361   */\n      gt\n        /* \"#utility.yul\":1328:1445   */\n      iszero\n      tag_172\n      jumpi\n        /* \"#utility.yul\":1364:1443   */\n      tag_173\n      tag_110\n      jump\t// in\n    tag_173:\n        /* \"#utility.yul\":1328:1445   */\n    tag_172:\n        /* \"#utility.yul\":1478:1482   */\n      0x20\n        /* \"#utility.yul\":1470:1476   */\n      dup4\n        /* \"#utility.yul\":1466:1483   */\n      add\n        /* \"#utility.yul\":1454:1483   */\n      swap2\n      pop\n        /* \"#utility.yul\":1532:1535   */\n      dup4\n        /* \"#utility.yul\":1524:1528   */\n      0x01\n        /* \"#utility.yul\":1516:1522   */\n      dup3\n        /* \"#utility.yul\":1512:1529   */\n      mul\n        /* \"#utility.yul\":1502:1510   */\n      dup4\n        /* \"#utility.yul\":1498:1530   */\n      add\n        /* \"#utility.yul\":1495:1536   */\n      gt\n        /* \"#utility.yul\":1492:1620   */\n      iszero\n      tag_174\n      jumpi\n        /* \"#utility.yul\":1539:1618   */\n      tag_175\n      tag_111\n      jump\t// in\n    tag_175:\n        /* \"#utility.yul\":1492:1620   */\n    tag_174:\n        /* \"#utility.yul\":1073:1626   */\n      swap3\n      pop\n      swap3\n      swap1\n      pop\n      jump\t// out\n        /* \"#utility.yul\":1632:2451   */\n    tag_7:\n        /* \"#utility.yul\":1721:1727   */\n      0x00\n        /* \"#utility.yul\":1729:1735   */\n      dup1\n        /* \"#utility.yul\":1737:1743   */\n      0x00\n        /* \"#utility.yul\":1745:1751   */\n      dup1\n        /* \"#utility.yul\":1794:1796   */\n      0x60\n        /* \"#utility.yul\":1782:1791   */\n      dup6\n        /* \"#utility.yul\":1773:1780   */\n      dup8\n        /* \"#utility.yul\":1769:1792   */\n      sub\n        /* \"#utility.yul\":1765:1797   */\n      slt\n        /* \"#utility.yul\":1762:1881   */\n      iszero\n      tag_177\n      jumpi\n        /* \"#utility.yul\":1800:1879   */\n      tag_178\n      tag_104\n      jump\t// in\n    tag_178:\n        /* \"#utility.yul\":1762:1881   */\n    tag_177:\n        /* \"#utility.yul\":1920:1921   */\n      0x00\n        /* \"#utility.yul\":1945:1998   */\n      tag_179\n        /* \"#utility.yul\":1990:1997   */\n      dup8\n        /* \"#utility.yul\":1981:1987   */\n      dup3\n        /* \"#utility.yul\":1970:1979   */\n      dup9\n        /* \"#utility.yul\":1966:1988   */\n      add\n        /* \"#utility.yul\":1945:1998   */\n      tag_108\n      jump\t// in\n    tag_179:\n        /* \"#utility.yul\":1935:1998   */\n      swap5\n      pop\n        /* \"#utility.yul\":1891:2008   */\n      pop\n        /* \"#utility.yul\":2075:2077   */\n      0x20\n        /* \"#utility.yul\":2064:2073   */\n      dup6\n        /* \"#utility.yul\":2060:2078   */\n      add\n        /* \"#utility.yul\":2047:2079   */\n      calldataload\n        /* \"#utility.yul\":2106:2124   */\n      0xffffffffffffffff\n        /* \"#utility.yul\":2098:2104   */\n      dup2\n        /* \"#utility.yul\":2095:2125   */\n      gt\n        /* \"#utility.yul\":2092:2209   */\n      iszero\n      tag_180\n      jumpi\n        /* \"#utility.yul\":2128:2207   */\n      tag_181\n      tag_105\n      jump\t// in\n    tag_181:\n        /* \"#utility.yul\":2092:2209   */\n    tag_180:\n        /* \"#utility.yul\":2241:2306   */\n      tag_182\n        /* \"#utility.yul\":2298:2305   */\n      dup8\n        /* \"#utility.yul\":2289:2295   */\n      dup3\n        /* \"#utility.yul\":2278:2287   */\n      dup9\n        /* \"#utility.yul\":2274:2296   */\n      add\n        /* \"#utility.yul\":2241:2306   */\n      tag_112\n      jump\t// in\n    tag_182:\n        /* \"#utility.yul\":2223:2306   */\n      swap4\n      pop\n      swap4\n      pop\n        /* \"#utility.yul\":2018:2316   */\n      pop\n        /* \"#utility.yul\":2355:2357   */\n      0x40\n        /* \"#utility.yul\":2381:2434   */\n      tag_183\n        /* \"#utility.yul\":2426:2433   */\n      dup8\n        /* \"#utility.yul\":2417:2423   */\n      dup3\n        /* \"#utility.yul\":2406:2415   */\n      dup9\n        /* \"#utility.yul\":2402:2424   */\n      add\n        /* \"#utility.yul\":2381:2434   */\n      tag_108\n      jump\t// in\n    tag_183:\n        /* \"#utility.yul\":2371:2434   */\n      swap2\n      pop\n        /* \"#utility.yul\":2326:2444   */\n      pop\n        /* \"#utility.yul\":1632:2451   */\n      swap3\n      swap6\n      swap2\n      swap5\n      pop\n      swap3\n      pop\n      jump\t// out\n        /* \"#utility.yul\":2457:2547   */\n    tag_113:\n        /* \"#utility.yul\":2491:2498   */\n      0x00\n        /* \"#utility.yul\":2534:2539   */\n      dup2\n        /* \"#utility.yul\":2527:2540   */\n      iszero\n        /* \"#utility.yul\":2520:2541   */\n      iszero\n        /* \"#utility.yul\":2509:2541   */\n      swap1\n      pop\n        /* \"#utility.yul\":2457:2547   */\n      swap2\n      swap1\n      pop\n      jump\t// out\n        /* \"#utility.yul\":2553:2662   */\n    tag_114:\n        /* \"#utility.yul\":2634:2655   */\n      tag_186\n        /* \"#utility.yul\":2649:2654   */\n      dup2\n        /* \"#utility.yul\":2634:2655   */\n      tag_113\n      jump\t// in\n    tag_186:\n        /* \"#utility.yul\":2629:2632   */\n      dup3\n        /* \"#utility.yul\":2622:2656   */\n      mstore\n        /* \"#utility.yul\":2553:2662   */\n      pop\n      pop\n      jump\t// out\n        /* \"#utility.yul\":2668:2878   */\n    tag_10:\n        /* \"#utility.yul\":2755:2759   */\n      0x00\n        /* \"#utility.yul\":2793:2795   */\n      0x20\n        /* \"#utility.yul\":2782:2791   */\n      dup3\n        /* \"#utility.yul\":2778:2796   */\n      add\n        /* \"#utility.yul\":2770:2796   */\n      swap1\n      pop\n        /* \"#utility.yul\":2806:2871   */\n      tag_188\n        /* \"#utility.yul\":2868:2869   */\n      0x00\n        /* \"#utility.yul\":2857:2866   */\n      dup4\n        /* \"#utility.yul\":2853:2870   */\n      add\n        /* \"#utility.yul\":2844:2850   */\n      dup5\n        /* \"#utility.yul\":2806:2871   */\n      tag_114\n      jump\t// in\n    tag_188:\n        /* \"#utility.yul\":2668:2878   */\n      swap3\n      swap2\n      pop\n      pop\n      jump\t// out\n        /* \"#utility.yul\":2884:3213   */\n    tag_14:\n        /* \"#utility.yul\":2943:2949   */\n      0x00\n        /* \"#utility.yul\":2992:2994   */\n      0x20\n        /* \"#utility.yul\":2980:2989   */\n      dup3\n        /* \"#utility.yul\":2971:2978   */\n      dup5\n        /* \"#utility.yul\":2967:2990   */\n      sub\n        /* \"#utility.yul\":2963:2995   */\n      slt\n        /* \"#utility.yul\":2960:3079   */\n      iszero\n      tag_190\n      jumpi\n        /* \"#utility.yul\":2998:3077   */\n      tag_191\n      tag_104\n      jump\t// in\n    tag_191:\n        /* \"#utility.yul\":2960:3079   */\n    tag_190:\n        /* \"#utility.yul\":3118:3119   */\n      0x00\n        /* \"#utility.yul\":3143:3196   */\n      tag_192\n        /* \"#utility.yul\":3188:3195   */\n      dup5\n        /* \"#utility.yul\":3179:3185   */\n      dup3\n        /* \"#utility.yul\":3168:3177   */\n      dup6\n        /* \"#utility.yul\":3164:3186   */\n      add\n        /* \"#utility.yul\":3143:3196   */\n      tag_108\n      jump\t// in\n    tag_192:\n        /* \"#utility.yul\":3133:3196   */\n      swap2\n      pop\n        /* \"#utility.yul\":3089:3206   */\n      pop\n        /* \"#utility.yul\":2884:3213   */\n      swap3\n      swap2\n      pop\n      pop\n      jump\t// out\n        /* \"#utility.yul\":3219:3693   */\n    tag_20:\n        /* \"#utility.yul\":3287:3293   */\n      0x00\n        /* \"#utility.yul\":3295:3301   */\n      dup1\n        /* \"#utility.yul\":3344:3346   */\n      0x40\n        /* \"#utility.yul\":3332:3341   */\n      dup4\n        /* \"#utility.yul\":3323:3330   */\n      dup6\n        /* \"#utility.yul\":3319:3342   */\n      sub\n        /* \"#utility.yul\":3315:3347   */\n      slt\n        /* \"#utility.yul\":3312:3431   */\n      iszero\n      tag_194\n      jumpi\n        /* \"#utility.yul\":3350:3429   */\n      tag_195\n      tag_104\n      jump\t// in\n    tag_195:\n        /* \"#utility.yul\":3312:3431   */\n    tag_194:\n        /* \"#utility.yul\":3470:3471   */\n      0x00\n        /* \"#utility.yul\":3495:3548   */\n      tag_196\n        /* \"#utility.yul\":3540:3547   */\n      dup6\n        /* \"#utility.yul\":3531:3537   */\n      dup3\n        /* \"#utility.yul\":3520:3529   */\n      dup7\n        /* \"#utility.yul\":3516:3538   */\n      add\n        /* \"#utility.yul\":3495:3548   */\n      tag_108\n      jump\t// in\n    tag_196:\n        /* \"#utility.yul\":3485:3548   */\n      swap3\n      pop\n        /* \"#utility.yul\":3441:3558   */\n      pop\n        /* \"#utility.yul\":3597:3599   */\n      0x20\n        /* \"#utility.yul\":3623:3676   */\n      tag_197\n        /* \"#utility.yul\":3668:3675   */\n      dup6\n        /* \"#utility.yul\":3659:3665   */\n      dup3\n        /* \"#utility.yul\":3648:3657   */\n      dup7\n        /* \"#utility.yul\":3644:3666   */\n      add\n        /* \"#utility.yul\":3623:3676   */\n      tag_108\n      jump\t// in\n    tag_197:\n        /* \"#utility.yul\":3613:3676   */\n      swap2\n      pop\n        /* \"#utility.yul\":3568:3686   */\n      pop\n        /* \"#utility.yul\":3219:3693   */\n      swap3\n      pop\n      swap3\n      swap1\n      pop\n      jump\t// out\n        /* \"#utility.yul\":3699:3879   */\n    tag_33:\n        /* \"#utility.yul\":3747:3824   */\n      0x4e487b7100000000000000000000000000000000000000000000000000000000\n        /* \"#utility.yul\":3744:3745   */\n      0x00\n        /* \"#utility.yul\":3737:3825   */\n      mstore\n        /* \"#utility.yul\":3844:3848   */\n      0x21\n        /* \"#utility.yul\":3841:3842   */\n      0x04\n        /* \"#utility.yul\":3834:3849   */\n      mstore\n        /* \"#utility.yul\":3868:3872   */\n      0x24\n        /* \"#utility.yul\":3865:3866   */\n      0x00\n        /* \"#utility.yul\":3858:3873   */\n      revert\n        /* \"#utility.yul\":3885:3998   */\n    tag_115:\n        /* \"#utility.yul\":3966:3967   */\n      0x05\n        /* \"#utility.yul\":3959:3964   */\n      dup2\n        /* \"#utility.yul\":3956:3968   */\n      lt\n        /* \"#utility.yul\":3946:3992   */\n      tag_200\n      jumpi\n        /* \"#utility.yul\":3972:3990   */\n      tag_201\n      tag_33\n      jump\t// in\n    tag_201:\n        /* \"#utility.yul\":3946:3992   */\n    tag_200:\n        /* \"#utility.yul\":3885:3998   */\n      pop\n      jump\t// out\n        /* \"#utility.yul\":4004:4131   */\n    tag_116:\n        /* \"#utility.yul\":4049:4056   */\n      0x00\n        /* \"#utility.yul\":4078:4083   */\n      dup2\n        /* \"#utility.yul\":4067:4083   */\n      swap1\n      pop\n        /* \"#utility.yul\":4084:4125   */\n      tag_203\n        /* \"#utility.yul\":4119:4124   */\n      dup3\n        /* \"#utility.yul\":4084:4125   */\n      tag_115\n      jump\t// in\n    tag_203:\n        /* \"#utility.yul\":4004:4131   */\n      swap2\n      swap1\n      pop\n      jump\t// out\n        /* \"#utility.yul\":4137:4264   */\n    tag_117:\n        /* \"#utility.yul\":4193:4202   */\n      0x00\n        /* \"#utility.yul\":4226:4258   */\n      tag_205\n        /* \"#utility.yul\":4252:4257   */\n      dup3\n        /* \"#utility.yul\":4226:4258   */\n      tag_116\n      jump\t// in\n    tag_205:\n        /* \"#utility.yul\":4213:4258   */\n      swap1\n      pop\n        /* \"#utility.yul\":4137:4264   */\n      swap2\n      swap1\n      pop\n      jump\t// out\n        /* \"#utility.yul\":4270:4413   */\n    tag_118:\n        /* \"#utility.yul\":4363:4406   */\n      tag_207\n        /* \"#utility.yul\":4400:4405   */\n      dup2\n        /* \"#utility.yul\":4363:4406   */\n      tag_117\n      jump\t// in\n    tag_207:\n        /* \"#utility.yul\":4358:4361   */\n      dup3\n        /* \"#utility.yul\":4351:4407   */\n      mstore\n        /* \"#utility.yul\":4270:4413   */\n      pop\n      pop\n      jump\t// out\n        /* \"#utility.yul\":4419:4518   */\n    tag_119:\n        /* \"#utility.yul\":4471:4477   */\n      0x00\n        /* \"#utility.yul\":4505:4510   */\n      dup2\n        /* \"#utility.yul\":4499:4511   */\n      mload\n        /* \"#utility.yul\":4489:4511   */\n      swap1\n      pop\n        /* \"#utility.yul\":4419:4518   */\n      swap2\n      swap1\n      pop\n      jump\t// out\n        /* \"#utility.yul\":4524:4693   */\n    tag_120:\n        /* \"#utility.yul\":4608:4619   */\n      0x00\n        /* \"#utility.yul\":4642:4648   */\n      dup3\n        /* \"#utility.yul\":4637:4640   */\n      dup3\n        /* \"#utility.yul\":4630:4649   */\n      mstore\n        /* \"#utility.yul\":4682:4686   */\n      0x20\n        /* \"#utility.yul\":4677:4680   */\n      dup3\n        /* \"#utility.yul\":4673:4687   */\n      add\n        /* \"#utility.yul\":4658:4687   */\n      swap1\n      pop\n        /* \"#utility.yul\":4524:4693   */\n      swap3\n      swap2\n      pop\n      pop\n      jump\t// out\n        /* \"#utility.yul\":4699:4945   */\n    tag_121:\n        /* \"#utility.yul\":4780:4781   */\n      0x00\n        /* \"#utility.yul\":4790:4903   */\n    tag_211:\n        /* \"#utility.yul\":4804:4810   */\n      dup4\n        /* \"#utility.yul\":4801:4802   */\n      dup2\n        /* \"#utility.yul\":4798:4811   */\n      lt\n        /* \"#utility.yul\":4790:4903   */\n      iszero\n      tag_213\n      jumpi\n        /* \"#utility.yul\":4889:4890   */\n      dup1\n        /* \"#utility.yul\":4884:4887   */\n      dup3\n        /* \"#utility.yul\":4880:4891   */\n      add\n        /* \"#utility.yul\":4874:4892   */\n      mload\n        /* \"#utility.yul\":4870:4871   */\n      dup2\n        /* \"#utility.yul\":4865:4868   */\n      dup5\n        /* \"#utility.yul\":4861:4872   */\n      add\n        /* \"#utility.yul\":4854:4893   */\n      mstore\n        /* \"#utility.yul\":4826:4828   */\n      0x20\n        /* \"#utility.yul\":4823:4824   */\n      dup2\n        /* \"#utility.yul\":4819:4829   */\n      add\n        /* \"#utility.yul\":4814:4829   */\n      swap1\n      pop\n        /* \"#utility.yul\":4790:4903   */\n      jump(tag_211)\n    tag_213:\n        /* \"#utility.yul\":4937:4938   */\n      0x00\n        /* \"#utility.yul\":4928:4934   */\n      dup5\n        /* \"#utility.yul\":4923:4926   */\n      dup5\n        /* \"#utility.yul\":4919:4935   */\n      add\n        /* \"#utility.yul\":4912:4939   */\n      mstore\n        /* \"#utility.yul\":4761:4945   */\n      pop\n        /* \"#utility.yul\":4699:4945   */\n      pop\n      pop\n      pop\n      jump\t// out\n        /* \"#utility.yul\":4951:5053   */\n    tag_122:\n        /* \"#utility.yul\":4992:4998   */\n      0x00\n        /* \"#utility.yul\":5043:5045   */\n      0x1f\n        /* \"#utility.yul\":5039:5046   */\n      not\n        /* \"#utility.yul\":5034:5036   */\n      0x1f\n        /* \"#utility.yul\":5027:5032   */\n      dup4\n        /* \"#utility.yul\":5023:5037   */\n      add\n        /* \"#utility.yul\":5019:5047   */\n      and\n        /* \"#utility.yul\":5009:5047   */\n      swap1\n      pop\n        /* \"#utility.yul\":4951:5053   */\n      swap2\n      swap1\n      pop\n      jump\t// out\n        /* \"#utility.yul\":5059:5436   */\n    tag_123:\n        /* \"#utility.yul\":5147:5150   */\n      0x00\n        /* \"#utility.yul\":5175:5214   */\n      tag_216\n        /* \"#utility.yul\":5208:5213   */\n      dup3\n        /* \"#utility.yul\":5175:5214   */\n      tag_119\n      jump\t// in\n    tag_216:\n        /* \"#utility.yul\":5230:5301   */\n      tag_217\n        /* \"#utility.yul\":5294:5300   */\n      dup2\n        /* \"#utility.yul\":5289:5292   */\n      dup6\n        /* \"#utility.yul\":5230:5301   */\n      tag_120\n      jump\t// in\n    tag_217:\n        /* \"#utility.yul\":5223:5301   */\n      swap4\n      pop\n        /* \"#utility.yul\":5310:5375   */\n      tag_218\n        /* \"#utility.yul\":5368:5374   */\n      dup2\n        /* \"#utility.yul\":5363:5366   */\n      dup6\n        /* \"#utility.yul\":5356:5360   */\n      0x20\n        /* \"#utility.yul\":5349:5354   */\n      dup7\n        /* \"#utility.yul\":5345:5361   */\n      add\n        /* \"#utility.yul\":5310:5375   */\n      tag_121\n      jump\t// in\n    tag_218:\n        /* \"#utility.yul\":5400:5429   */\n      tag_219\n        /* \"#utility.yul\":5422:5428   */\n      dup2\n        /* \"#utility.yul\":5400:5429   */\n      tag_122\n      jump\t// in\n    tag_219:\n        /* \"#utility.yul\":5395:5398   */\n      dup5\n        /* \"#utility.yul\":5391:5430   */\n      add\n        /* \"#utility.yul\":5384:5430   */\n      swap2\n      pop\n        /* \"#utility.yul\":5151:5436   */\n      pop\n        /* \"#utility.yul\":5059:5436   */\n      swap3\n      swap2\n      pop\n      pop\n      jump\t// out\n        /* \"#utility.yul\":5442:5560   */\n    tag_124:\n        /* \"#utility.yul\":5529:5553   */\n      tag_221\n        /* \"#utility.yul\":5547:5552   */\n      dup2\n        /* \"#utility.yul\":5529:5553   */\n      tag_106\n      jump\t// in\n    tag_221:\n        /* \"#utility.yul\":5524:5527   */\n      dup3\n        /* \"#utility.yul\":5517:5554   */\n      mstore\n        /* \"#utility.yul\":5442:5560   */\n      pop\n      pop\n      jump\t// out\n        /* \"#utility.yul\":5566:5692   */\n    tag_125:\n        /* \"#utility.yul\":5603:5610   */\n      0x00\n        /* \"#utility.yul\":5643:5685   */\n      0xffffffffffffffffffffffffffffffffffffffff\n        /* \"#utility.yul\":5636:5641   */\n      dup3\n        /* \"#utility.yul\":5632:5686   */\n      and\n        /* \"#utility.yul\":5621:5686   */\n      swap1\n      pop\n        /* \"#utility.yul\":5566:5692   */\n      swap2\n      swap1\n      pop\n      jump\t// out\n        /* \"#utility.yul\":5698:5794   */\n    tag_126:\n        /* \"#utility.yul\":5735:5742   */\n      0x00\n        /* \"#utility.yul\":5764:5788   */\n      tag_224\n        /* \"#utility.yul\":5782:5787   */\n      dup3\n        /* \"#utility.yul\":5764:5788   */\n      tag_125\n      jump\t// in\n    tag_224:\n        /* \"#utility.yul\":5753:5788   */\n      swap1\n      pop\n        /* \"#utility.yul\":5698:5794   */\n      swap2\n      swap1\n      pop\n      jump\t// out\n        /* \"#utility.yul\":5800:5918   */\n    tag_127:\n        /* \"#utility.yul\":5887:5911   */\n      tag_226\n        /* \"#utility.yul\":5905:5910   */\n      dup2\n        /* \"#utility.yul\":5887:5911   */\n      tag_126\n      jump\t// in\n    tag_226:\n        /* \"#utility.yul\":5882:5885   */\n      dup3\n        /* \"#utility.yul\":5875:5912   */\n      mstore\n        /* \"#utility.yul\":5800:5918   */\n      pop\n      pop\n      jump\t// out\n        /* \"#utility.yul\":5924:6580   */\n    tag_23:\n        /* \"#utility.yul\":6127:6131   */\n      0x00\n        /* \"#utility.yul\":6165:6168   */\n      0x80\n        /* \"#utility.yul\":6154:6163   */\n      dup3\n        /* \"#utility.yul\":6150:6169   */\n      add\n        /* \"#utility.yul\":6142:6169   */\n      swap1\n      pop\n        /* \"#utility.yul\":6179:6256   */\n      tag_228\n        /* \"#utility.yul\":6253:6254   */\n      0x00\n        /* \"#utility.yul\":6242:6251   */\n      dup4\n        /* \"#utility.yul\":6238:6255   */\n      add\n        /* \"#utility.yul\":6229:6235   */\n      dup8\n        /* \"#utility.yul\":6179:6256   */\n      tag_118\n      jump\t// in\n    tag_228:\n        /* \"#utility.yul\":6303:6312   */\n      dup2\n        /* \"#utility.yul\":6297:6301   */\n      dup2\n        /* \"#utility.yul\":6293:6313   */\n      sub\n        /* \"#utility.yul\":6288:6290   */\n      0x20\n        /* \"#utility.yul\":6277:6286   */\n      dup4\n        /* \"#utility.yul\":6273:6291   */\n      add\n        /* \"#utility.yul\":6266:6314   */\n      mstore\n        /* \"#utility.yul\":6331:6409   */\n      tag_229\n        /* \"#utility.yul\":6404:6408   */\n      dup2\n        /* \"#utility.yul\":6395:6401   */\n      dup7\n        /* \"#utility.yul\":6331:6409   */\n      tag_123\n      jump\t// in\n    tag_229:\n        /* \"#utility.yul\":6323:6409   */\n      swap1\n      pop\n        /* \"#utility.yul\":6419:6491   */\n      tag_230\n        /* \"#utility.yul\":6487:6489   */\n      0x40\n        /* \"#utility.yul\":6476:6485   */\n      dup4\n        /* \"#utility.yul\":6472:6490   */\n      add\n        /* \"#utility.yul\":6463:6469   */\n      dup6\n        /* \"#utility.yul\":6419:6491   */\n      tag_124\n      jump\t// in\n    tag_230:\n        /* \"#utility.yul\":6501:6573   */\n      tag_231\n        /* \"#utility.yul\":6569:6571   */\n      0x60\n        /* \"#utility.yul\":6558:6567   */\n      dup4\n        /* \"#utility.yul\":6554:6572   */\n      add\n        /* \"#utility.yul\":6545:6551   */\n      dup5\n        /* \"#utility.yul\":6501:6573   */\n      tag_127\n      jump\t// in\n    tag_231:\n        /* \"#utility.yul\":5924:6580   */\n      swap6\n      swap5\n      pop\n      pop\n      pop\n      pop\n      pop\n      jump\t// out\n        /* \"#utility.yul\":6586:6762   */\n    tag_128:\n        /* \"#utility.yul\":6726:6754   */\n      0x746869732070726f6475637420646f65736e2774206578697374000000000000\n        /* \"#utility.yul\":6722:6723   */\n      0x00\n        /* \"#utility.yul\":6714:6720   */\n      dup3\n        /* \"#utility.yul\":6710:6724   */\n      add\n        /* \"#utility.yul\":6703:6755   */\n      mstore\n        /* \"#utility.yul\":6586:6762   */\n      pop\n      jump\t// out\n        /* \"#utility.yul\":6768:7134   */\n    tag_129:\n        /* \"#utility.yul\":6910:6913   */\n      0x00\n        /* \"#utility.yul\":6931:6998   */\n      tag_234\n        /* \"#utility.yul\":6995:6997   */\n      0x1a\n        /* \"#utility.yul\":6990:6993   */\n      dup4\n        /* \"#utility.yul\":6931:6998   */\n      tag_120\n      jump\t// in\n    tag_234:\n        /* \"#utility.yul\":6924:6998   */\n      swap2\n      pop\n        /* \"#utility.yul\":7007:7100   */\n      tag_235\n        /* \"#utility.yul\":7096:7099   */\n      dup3\n        /* \"#utility.yul\":7007:7100   */\n      tag_128\n      jump\t// in\n    tag_235:\n        /* \"#utility.yul\":7125:7127   */\n      0x20\n        /* \"#utility.yul\":7120:7123   */\n      dup3\n        /* \"#utility.yul\":7116:7128   */\n      add\n        /* \"#utility.yul\":7109:7128   */\n      swap1\n      pop\n        /* \"#utility.yul\":6768:7134   */\n      swap2\n      swap1\n      pop\n      jump\t// out\n        /* \"#utility.yul\":7140:7559   */\n    tag_27:\n        /* \"#utility.yul\":7306:7310   */\n      0x00\n        /* \"#utility.yul\":7344:7346   */\n      0x20\n        /* \"#utility.yul\":7333:7342   */\n      dup3\n        /* \"#utility.yul\":7329:7347   */\n      add\n        /* \"#utility.yul\":7321:7347   */\n      swap1\n      pop\n        /* \"#utility.yul\":7393:7402   */\n      dup2\n        /* \"#utility.yul\":7387:7391   */\n      dup2\n        /* \"#utility.yul\":7383:7403   */\n      sub\n        /* \"#utility.yul\":7379:7380   */\n      0x00\n        /* \"#utility.yul\":7368:7377   */\n      dup4\n        /* \"#utility.yul\":7364:7381   */\n      add\n        /* \"#utility.yul\":7357:7404   */\n      mstore\n        /* \"#utility.yul\":7421:7552   */\n      tag_237\n        /* \"#utility.yul\":7547:7551   */\n      dup2\n        /* \"#utility.yul\":7421:7552   */\n      tag_129\n      jump\t// in\n    tag_237:\n        /* \"#utility.yul\":7413:7552   */\n      swap1\n      pop\n        /* \"#utility.yul\":7140:7559   */\n      swap2\n      swap1\n      pop\n      jump\t// out\n        /* \"#utility.yul\":7565:7745   */\n    tag_130:\n        /* \"#utility.yul\":7613:7690   */\n      0x4e487b7100000000000000000000000000000000000000000000000000000000\n        /* \"#utility.yul\":7610:7611   */\n      0x00\n        /* \"#utility.yul\":7603:7691   */\n      mstore\n        /* \"#utility.yul\":7710:7714   */\n      0x22\n        /* \"#utility.yul\":7707:7708   */\n      0x04\n        /* \"#utility.yul\":7700:7715   */\n      mstore\n        /* \"#utility.yul\":7734:7738   */\n      0x24\n        /* \"#utility.yul\":7731:7732   */\n      0x00\n        /* \"#utility.yul\":7724:7739   */\n      revert\n        /* \"#utility.yul\":7751:8071   */\n    tag_37:\n        /* \"#utility.yul\":7795:7801   */\n      0x00\n        /* \"#utility.yul\":7832:7833   */\n      0x02\n        /* \"#utility.yul\":7826:7830   */\n      dup3\n        /* \"#utility.yul\":7822:7834   */\n      div\n        /* \"#utility.yul\":7812:7834   */\n      swap1\n      pop\n        /* \"#utility.yul\":7879:7880   */\n      0x01\n        /* \"#utility.yul\":7873:7877   */\n      dup3\n        /* \"#utility.yul\":7869:7881   */\n      and\n        /* \"#utility.yul\":7900:7918   */\n      dup1\n        /* \"#utility.yul\":7890:7971   */\n      tag_240\n      jumpi\n        /* \"#utility.yul\":7956:7960   */\n      0x7f\n        /* \"#utility.yul\":7948:7954   */\n      dup3\n        /* \"#utility.yul\":7944:7961   */\n      and\n        /* \"#utility.yul\":7934:7961   */\n      swap2\n      pop\n        /* \"#utility.yul\":7890:7971   */\n    tag_240:\n        /* \"#utility.yul\":8018:8020   */\n      0x20\n        /* \"#utility.yul\":8010:8016   */\n      dup3\n        /* \"#utility.yul\":8007:8021   */\n      lt\n        /* \"#utility.yul\":7987:8005   */\n      dup2\n        /* \"#utility.yul\":7984:8022   */\n      sub\n        /* \"#utility.yul\":7981:8065   */\n      tag_241\n      jumpi\n        /* \"#utility.yul\":8037:8055   */\n      tag_242\n      tag_130\n      jump\t// in\n    tag_242:\n        /* \"#utility.yul\":7981:8065   */\n    tag_241:\n        /* \"#utility.yul\":7802:8071   */\n      pop\n        /* \"#utility.yul\":7751:8071   */\n      swap2\n      swap1\n      pop\n      jump\t// out\n        /* \"#utility.yul\":8077:8257   */\n    tag_131:\n        /* \"#utility.yul\":8125:8202   */\n      0x4e487b7100000000000000000000000000000000000000000000000000000000\n        /* \"#utility.yul\":8122:8123   */\n      0x00\n        /* \"#utility.yul\":8115:8203   */\n      mstore\n        /* \"#utility.yul\":8222:8226   */\n      0x11\n        /* \"#utility.yul\":8219:8220   */\n      0x04\n        /* \"#utility.yul\":8212:8227   */\n      mstore\n        /* \"#utility.yul\":8246:8250   */\n      0x24\n        /* \"#utility.yul\":8243:8244   */\n      0x00\n        /* \"#utility.yul\":8236:8251   */\n      revert\n        /* \"#utility.yul\":8263:8457   */\n    tag_43:\n        /* \"#utility.yul\":8303:8307   */\n      0x00\n        /* \"#utility.yul\":8323:8343   */\n      tag_245\n        /* \"#utility.yul\":8341:8342   */\n      dup3\n        /* \"#utility.yul\":8323:8343   */\n      tag_106\n      jump\t// in\n    tag_245:\n        /* \"#utility.yul\":8318:8343   */\n      swap2\n      pop\n        /* \"#utility.yul\":8357:8377   */\n      tag_246\n        /* \"#utility.yul\":8375:8376   */\n      dup4\n        /* \"#utility.yul\":8357:8377   */\n      tag_106\n      jump\t// in\n    tag_246:\n        /* \"#utility.yul\":8352:8377   */\n      swap3\n      pop\n        /* \"#utility.yul\":8401:8402   */\n      dup3\n        /* \"#utility.yul\":8398:8399   */\n      dup3\n        /* \"#utility.yul\":8394:8403   */\n      sub\n        /* \"#utility.yul\":8386:8403   */\n      swap1\n      pop\n        /* \"#utility.yul\":8425:8426   */\n      dup2\n        /* \"#utility.yul\":8419:8423   */\n      dup2\n        /* \"#utility.yul\":8416:8427   */\n      gt\n        /* \"#utility.yul\":8413:8450   */\n      iszero\n      tag_247\n      jumpi\n        /* \"#utility.yul\":8430:8448   */\n      tag_248\n      tag_131\n      jump\t// in\n    tag_248:\n        /* \"#utility.yul\":8413:8450   */\n    tag_247:\n        /* \"#utility.yul\":8263:8457   */\n      swap3\n      swap2\n      pop\n      pop\n      jump\t// out\n        /* \"#utility.yul\":8463:8643   */\n    tag_46:\n        /* \"#utility.yul\":8511:8588   */\n      0x4e487b7100000000000000000000000000000000000000000000000000000000\n        /* \"#utility.yul\":8508:8509   */\n      0x00\n        /* \"#utility.yul\":8501:8589   */\n      mstore\n        /* \"#utility.yul\":8608:8612   */\n      0x32\n        /* \"#utility.yul\":8605:8606   */\n      0x04\n        /* \"#utility.yul\":8598:8613   */\n      mstore\n        /* \"#utility.yul\":8632:8636   */\n      0x24\n        /* \"#utility.yul\":8629:8630   */\n      0x00\n        /* \"#utility.yul\":8622:8637   */\n      revert\n        /* \"#utility.yul\":8649:8840   */\n    tag_50:\n        /* \"#utility.yul\":8689:8692   */\n      0x00\n        /* \"#utility.yul\":8708:8728   */\n      tag_251\n        /* \"#utility.yul\":8726:8727   */\n      dup3\n        /* \"#utility.yul\":8708:8728   */\n      tag_106\n      jump\t// in\n    tag_251:\n        /* \"#utility.yul\":8703:8728   */\n      swap2\n      pop\n        /* \"#utility.yul\":8742:8762   */\n      tag_252\n        /* \"#utility.yul\":8760:8761   */\n      dup4\n        /* \"#utility.yul\":8742:8762   */\n      tag_106\n      jump\t// in\n    tag_252:\n        /* \"#utility.yul\":8737:8762   */\n      swap3\n      pop\n        /* \"#utility.yul\":8785:8786   */\n      dup3\n        /* \"#utility.yul\":8782:8783   */\n      dup3\n        /* \"#utility.yul\":8778:8787   */\n      add\n        /* \"#utility.yul\":8771:8787   */\n      swap1\n      pop\n        /* \"#utility.yul\":8806:8809   */\n      dup1\n        /* \"#utility.yul\":8803:8804   */\n      dup3\n        /* \"#utility.yul\":8800:8810   */\n      gt\n        /* \"#utility.yul\":8797:8833   */\n      iszero\n      tag_253\n      jumpi\n        /* \"#utility.yul\":8813:8831   */\n      tag_254\n      tag_131\n      jump\t// in\n    tag_254:\n        /* \"#utility.yul\":8797:8833   */\n    tag_253:\n        /* \"#utility.yul\":8649:8840   */\n      swap3\n      swap2\n      pop\n      pop\n      jump\t// out\n        /* \"#utility.yul\":8846:9025   */\n    tag_132:\n        /* \"#utility.yul\":8986:9017   */\n      0x7468652070726f6475637420686173206e6f206d6f7265207374657073000000\n        /* \"#utility.yul\":8982:8983   */\n      0x00\n        /* \"#utility.yul\":8974:8980   */\n      dup3\n        /* \"#utility.yul\":8970:8984   */\n      add\n        /* \"#utility.yul\":8963:9018   */\n      mstore\n        /* \"#utility.yul\":8846:9025   */\n      pop\n      jump\t// out\n        /* \"#utility.yul\":9031:9397   */\n    tag_133:\n        /* \"#utility.yul\":9173:9176   */\n      0x00\n        /* \"#utility.yul\":9194:9261   */\n      tag_257\n        /* \"#utility.yul\":9258:9260   */\n      0x1d\n        /* \"#utility.yul\":9253:9256   */\n      dup4\n        /* \"#utility.yul\":9194:9261   */\n      tag_120\n      jump\t// in\n    tag_257:\n        /* \"#utility.yul\":9187:9261   */\n      swap2\n      pop\n        /* \"#utility.yul\":9270:9363   */\n      tag_258\n        /* \"#utility.yul\":9359:9362   */\n      dup3\n        /* \"#utility.yul\":9270:9363   */\n      tag_132\n      jump\t// in\n    tag_258:\n        /* \"#utility.yul\":9388:9390   */\n      0x20\n        /* \"#utility.yul\":9383:9386   */\n      dup3\n        /* \"#utility.yul\":9379:9391   */\n      add\n        /* \"#utility.yul\":9372:9391   */\n      swap1\n      pop\n        /* \"#utility.yul\":9031:9397   */\n      swap2\n      swap1\n      pop\n      jump\t// out\n        /* \"#utility.yul\":9403:9822   */\n    tag_55:\n        /* \"#utility.yul\":9569:9573   */\n      0x00\n        /* \"#utility.yul\":9607:9609   */\n      0x20\n        /* \"#utility.yul\":9596:9605   */\n      dup3\n        /* \"#utility.yul\":9592:9610   */\n      add\n        /* \"#utility.yul\":9584:9610   */\n      swap1\n      pop\n        /* \"#utility.yul\":9656:9665   */\n      dup2\n        /* \"#utility.yul\":9650:9654   */\n      dup2\n        /* \"#utility.yul\":9646:9666   */\n      sub\n        /* \"#utility.yul\":9642:9643   */\n      0x00\n        /* \"#utility.yul\":9631:9640   */\n      dup4\n        /* \"#utility.yul\":9627:9644   */\n      add\n        /* \"#utility.yul\":9620:9667   */\n      mstore\n        /* \"#utility.yul\":9684:9815   */\n      tag_260\n        /* \"#utility.yul\":9810:9814   */\n      dup2\n        /* \"#utility.yul\":9684:9815   */\n      tag_133\n      jump\t// in\n    tag_260:\n        /* \"#utility.yul\":9676:9815   */\n      swap1\n      pop\n        /* \"#utility.yul\":9403:9822   */\n      swap2\n      swap1\n      pop\n      jump\t// out\n        /* \"#utility.yul\":9828:10005   */\n    tag_134:\n        /* \"#utility.yul\":9968:9997   */\n      0x796f75206e65656420796f207061792074686520736572766963650000000000\n        /* \"#utility.yul\":9964:9965   */\n      0x00\n        /* \"#utility.yul\":9956:9962   */\n      dup3\n        /* \"#utility.yul\":9952:9966   */\n      add\n        /* \"#utility.yul\":9945:9998   */\n      mstore\n        /* \"#utility.yul\":9828:10005   */\n      pop\n      jump\t// out\n        /* \"#utility.yul\":10011:10377   */\n    tag_135:\n        /* \"#utility.yul\":10153:10156   */\n      0x00\n        /* \"#utility.yul\":10174:10241   */\n      tag_263\n        /* \"#utility.yul\":10238:10240   */\n      0x1b\n        /* \"#utility.yul\":10233:10236   */\n      dup4\n        /* \"#utility.yul\":10174:10241   */\n      tag_120\n      jump\t// in\n    tag_263:\n        /* \"#utility.yul\":10167:10241   */\n      swap2\n      pop\n        /* \"#utility.yul\":10250:10343   */\n      tag_264\n        /* \"#utility.yul\":10339:10342   */\n      dup3\n        /* \"#utility.yul\":10250:10343   */\n      tag_134\n      jump\t// in\n    tag_264:\n        /* \"#utility.yul\":10368:10370   */\n      0x20\n        /* \"#utility.yul\":10363:10366   */\n      dup3\n        /* \"#utility.yul\":10359:10371   */\n      add\n        /* \"#utility.yul\":10352:10371   */\n      swap1\n      pop\n        /* \"#utility.yul\":10011:10377   */\n      swap2\n      swap1\n      pop\n      jump\t// out\n        /* \"#utility.yul\":10383:10802   */\n    tag_67:\n        /* \"#utility.yul\":10549:10553   */\n      0x00\n        /* \"#utility.yul\":10587:10589   */\n      0x20\n        /* \"#utility.yul\":10576:10585   */\n      dup3\n        /* \"#utility.yul\":10572:10590   */\n      add\n        /* \"#utility.yul\":10564:10590   */\n      swap1\n      pop\n        /* \"#utility.yul\":10636:10645   */\n      dup2\n        /* \"#utility.yul\":10630:10634   */\n      dup2\n        /* \"#utility.yul\":10626:10646   */\n      sub\n        /* \"#utility.yul\":10622:10623   */\n      0x00\n        /* \"#utility.yul\":10611:10620   */\n      dup4\n        /* \"#utility.yul\":10607:10624   */\n      add\n        /* \"#utility.yul\":10600:10647   */\n      mstore\n        /* \"#utility.yul\":10664:10795   */\n      tag_266\n        /* \"#utility.yul\":10790:10794   */\n      dup2\n        /* \"#utility.yul\":10664:10795   */\n      tag_135\n      jump\t// in\n    tag_266:\n        /* \"#utility.yul\":10656:10795   */\n      swap1\n      pop\n        /* \"#utility.yul\":10383:10802   */\n      swap2\n      swap1\n      pop\n      jump\t// out\n        /* \"#utility.yul\":10808:10988   */\n    tag_136:\n        /* \"#utility.yul\":10856:10933   */\n      0x4e487b7100000000000000000000000000000000000000000000000000000000\n        /* \"#utility.yul\":10853:10854   */\n      0x00\n        /* \"#utility.yul\":10846:10934   */\n      mstore\n        /* \"#utility.yul\":10953:10957   */\n      0x41\n        /* \"#utility.yul\":10950:10951   */\n      0x04\n        /* \"#utility.yul\":10943:10958   */\n      mstore\n        /* \"#utility.yul\":10977:10981   */\n      0x24\n        /* \"#utility.yul\":10974:10975   */\n      0x00\n        /* \"#utility.yul\":10967:10982   */\n      revert\n        /* \"#utility.yul\":10994:11135   */\n    tag_137:\n        /* \"#utility.yul\":11043:11047   */\n      0x00\n        /* \"#utility.yul\":11066:11069   */\n      dup2\n        /* \"#utility.yul\":11058:11069   */\n      swap1\n      pop\n        /* \"#utility.yul\":11089:11092   */\n      dup2\n        /* \"#utility.yul\":11086:11087   */\n      0x00\n        /* \"#utility.yul\":11079:11093   */\n      mstore\n        /* \"#utility.yul\":11123:11127   */\n      0x20\n        /* \"#utility.yul\":11120:11121   */\n      0x00\n        /* \"#utility.yul\":11110:11128   */\n      keccak256\n        /* \"#utility.yul\":11102:11128   */\n      swap1\n      pop\n        /* \"#utility.yul\":10994:11135   */\n      swap2\n      swap1\n      pop\n      jump\t// out\n        /* \"#utility.yul\":11141:11234   */\n    tag_138:\n        /* \"#utility.yul\":11178:11184   */\n      0x00\n        /* \"#utility.yul\":11225:11227   */\n      0x20\n        /* \"#utility.yul\":11220:11222   */\n      0x1f\n        /* \"#utility.yul\":11213:11218   */\n      dup4\n        /* \"#utility.yul\":11209:11223   */\n      add\n        /* \"#utility.yul\":11205:11228   */\n      div\n        /* \"#utility.yul\":11195:11228   */\n      swap1\n      pop\n        /* \"#utility.yul\":11141:11234   */\n      swap2\n      swap1\n      pop\n      jump\t// out\n        /* \"#utility.yul\":11240:11347   */\n    tag_139:\n        /* \"#utility.yul\":11284:11292   */\n      0x00\n        /* \"#utility.yul\":11334:11339   */\n      dup3\n        /* \"#utility.yul\":11328:11332   */\n      dup3\n        /* \"#utility.yul\":11324:11340   */\n      shl\n        /* \"#utility.yul\":11303:11340   */\n      swap1\n      pop\n        /* \"#utility.yul\":11240:11347   */\n      swap3\n      swap2\n      pop\n      pop\n      jump\t// out\n        /* \"#utility.yul\":11353:11746   */\n    tag_140:\n        /* \"#utility.yul\":11422:11428   */\n      0x00\n        /* \"#utility.yul\":11472:11473   */\n      0x08\n        /* \"#utility.yul\":11460:11470   */\n      dup4\n        /* \"#utility.yul\":11456:11474   */\n      mul\n        /* \"#utility.yul\":11495:11592   */\n      tag_272\n        /* \"#utility.yul\":11525:11591   */\n      0xffffffffffffffffffffffffffffffffffffffffffffffffffffffffffffffff\n        /* \"#utility.yul\":11514:11523   */\n      dup3\n        /* \"#utility.yul\":11495:11592   */\n      tag_139\n      jump\t// in\n    tag_272:\n        /* \"#utility.yul\":11613:11652   */\n      tag_273\n        /* \"#utility.yul\":11643:11651   */\n      dup7\n        /* \"#utility.yul\":11632:11641   */\n      dup4\n        /* \"#utility.yul\":11613:11652   */\n      tag_139\n      jump\t// in\n    tag_273:\n        /* \"#utility.yul\":11601:11652   */\n      swap6\n      pop\n        /* \"#utility.yul\":11685:11689   */\n      dup1\n        /* \"#utility.yul\":11681:11690   */\n      not\n        /* \"#utility.yul\":11674:11679   */\n      dup5\n        /* \"#utility.yul\":11670:11691   */\n      and\n        /* \"#utility.yul\":11661:11691   */\n      swap4\n      pop\n        /* \"#utility.yul\":11734:11738   */\n      dup1\n        /* \"#utility.yul\":11724:11732   */\n      dup7\n        /* \"#utility.yul\":11720:11739   */\n      and\n        /* \"#utility.yul\":11713:11718   */\n      dup5\n        /* \"#utility.yul\":11710:11740   */\n      or\n        /* \"#utility.yul\":11700:11740   */\n      swap3\n      pop\n        /* \"#utility.yul\":11429:11746   */\n      pop\n      pop\n        /* \"#utility.yul\":11353:11746   */\n      swap4\n      swap3\n      pop\n      pop\n      pop\n      jump\t// out\n        /* \"#utility.yul\":11752:11812   */\n    tag_141:\n        /* \"#utility.yul\":11780:11783   */\n      0x00\n        /* \"#utility.yul\":11801:11806   */\n      dup2\n        /* \"#utility.yul\":11794:11806   */\n      swap1\n      pop\n        /* \"#utility.yul\":11752:11812   */\n      swap2\n      swap1\n      pop\n      jump\t// out\n        /* \"#utility.yul\":11818:11960   */\n    tag_142:\n        /* \"#utility.yul\":11868:11877   */\n      0x00\n        /* \"#utility.yul\":11901:11954   */\n      tag_276\n        /* \"#utility.yul\":11919:11953   */\n      tag_277\n        /* \"#utility.yul\":11928:11952   */\n      tag_278\n        /* \"#utility.yul\":11946:11951   */\n      dup5\n        /* \"#utility.yul\":11928:11952   */\n      tag_106\n      jump\t// in\n    tag_278:\n        /* \"#utility.yul\":11919:11953   */\n      tag_141\n      jump\t// in\n    tag_277:\n        /* \"#utility.yul\":11901:11954   */\n      tag_106\n      jump\t// in\n    tag_276:\n        /* \"#utility.yul\":11888:11954   */\n      swap1\n      pop\n        /* \"#utility.yul\":11818:11960   */\n      swap2\n      swap1\n      pop\n      jump\t// out\n        /* \"#utility.yul\":11966:12041   */\n    tag_143:\n        /* \"#utility.yul\":12009:12012   */\n      0x00\n        /* \"#utility.yul\":12030:12035   */\n      dup2\n        /* \"#utility.yul\":12023:12035   */\n      swap1\n      pop\n        /* \"#utility.yul\":11966:12041   */\n      swap2\n      swap1\n      pop\n      jump\t// out\n        /* \"#utility.yul\":12047:12316   */\n    tag_144:\n        /* \"#utility.yul\":12157:12196   */\n      tag_281\n        /* \"#utility.yul\":12188:12195   */\n      dup4\n        /* \"#utility.yul\":12157:12196   */\n      tag_142\n      jump\t// in\n    tag_281:\n        /* \"#utility.yul\":12218:12309   */\n      tag_282\n        /* \"#utility.yul\":12267:12308   */\n      tag_283\n        /* \"#utility.yul\":12291:12307   */\n      dup3\n        /* \"#utility.yul\":12267:12308   */\n      tag_143\n      jump\t// in\n    tag_283:\n        /* \"#utility.yul\":12259:12265   */\n      dup5\n        /* \"#utility.yul\":12252:12256   */\n      dup5\n        /* \"#utility.yul\":12246:12257   */\n      sload\n        /* \"#utility.yul\":12218:12309   */\n      tag_140\n      jump\t// in\n    tag_282:\n        /* \"#utility.yul\":12212:12216   */\n      dup3\n        /* \"#utility.yul\":12205:12310   */\n      sstore\n        /* \"#utility.yul\":12123:12316   */\n      pop\n        /* \"#utility.yul\":12047:12316   */\n      pop\n      pop\n      pop\n      jump\t// out\n        /* \"#utility.yul\":12322:12395   */\n    tag_145:\n        /* \"#utility.yul\":12367:12370   */\n      0x00\n        /* \"#utility.yul\":12322:12395   */\n      swap1\n      jump\t// out\n        /* \"#utility.yul\":12401:12590   */\n    tag_146:\n        /* \"#utility.yul\":12478:12510   */\n      tag_286\n      tag_145\n      jump\t// in\n    tag_286:\n        /* \"#utility.yul\":12519:12584   */\n      tag_287\n        /* \"#utility.yul\":12577:12583   */\n      dup2\n        /* \"#utility.yul\":12569:12575   */\n      dup5\n        /* \"#utility.yul\":12563:12567   */\n      dup5\n        /* \"#utility.yul\":12519:12584   */\n      tag_144\n      jump\t// in\n    tag_287:\n        /* \"#utility.yul\":12454:12590   */\n      pop\n        /* \"#utility.yul\":12401:12590   */\n      pop\n      pop\n      jump\t// out\n        /* \"#utility.yul\":12596:12782   */\n    tag_147:\n        /* \"#utility.yul\":12656:12776   */\n    tag_289:\n        /* \"#utility.yul\":12673:12676   */\n      dup2\n        /* \"#utility.yul\":12666:12671   */\n      dup2\n        /* \"#utility.yul\":12663:12677   */\n      lt\n        /* \"#utility.yul\":12656:12776   */\n      iszero\n      tag_291\n      jumpi\n        /* \"#utility.yul\":12727:12766   */\n      tag_292\n        /* \"#utility.yul\":12764:12765   */\n      0x00\n        /* \"#utility.yul\":12757:12762   */\n      dup3\n        /* \"#utility.yul\":12727:12766   */\n      tag_146\n      jump\t// in\n    tag_292:\n        /* \"#utility.yul\":12700:12701   */\n      0x01\n        /* \"#utility.yul\":12693:12698   */\n      dup2\n        /* \"#utility.yul\":12689:12702   */\n      add\n        /* \"#utility.yul\":12680:12702   */\n      swap1\n      pop\n        /* \"#utility.yul\":12656:12776   */\n      jump(tag_289)\n    tag_291:\n        /* \"#utility.yul\":12596:12782   */\n      pop\n      pop\n      jump\t// out\n        /* \"#utility.yul\":12788:13331   */\n    tag_148:\n        /* \"#utility.yul\":12889:12891   */\n      0x1f\n        /* \"#utility.yul\":12884:12887   */\n      dup3\n        /* \"#utility.yul\":12881:12892   */\n      gt\n        /* \"#utility.yul\":12878:13324   */\n      iszero\n      tag_294\n      jumpi\n        /* \"#utility.yul\":12923:12961   */\n      tag_295\n        /* \"#utility.yul\":12955:12960   */\n      dup2\n        /* \"#utility.yul\":12923:12961   */\n      tag_137\n      jump\t// in\n    tag_295:\n        /* \"#utility.yul\":13007:13036   */\n      tag_296\n        /* \"#utility.yul\":13025:13035   */\n      dup5\n        /* \"#utility.yul\":13007:13036   */\n      tag_138\n      jump\t// in\n    tag_296:\n        /* \"#utility.yul\":12997:13005   */\n      dup2\n        /* \"#utility.yul\":12993:13037   */\n      add\n        /* \"#utility.yul\":13190:13192   */\n      0x20\n        /* \"#utility.yul\":13178:13188   */\n      dup6\n        /* \"#utility.yul\":13175:13193   */\n      lt\n        /* \"#utility.yul\":13172:13221   */\n      iszero\n      tag_297\n      jumpi\n        /* \"#utility.yul\":13211:13219   */\n      dup2\n        /* \"#utility.yul\":13196:13219   */\n      swap1\n      pop\n        /* \"#utility.yul\":13172:13221   */\n    tag_297:\n        /* \"#utility.yul\":13234:13314   */\n      tag_298\n        /* \"#utility.yul\":13290:13312   */\n      tag_299\n        /* \"#utility.yul\":13308:13311   */\n      dup6\n        /* \"#utility.yul\":13290:13312   */\n      tag_138\n      jump\t// in\n    tag_299:\n        /* \"#utility.yul\":13280:13288   */\n      dup4\n        /* \"#utility.yul\":13276:13313   */\n      add\n        /* \"#utility.yul\":13263:13274   */\n      dup3\n        /* \"#utility.yul\":13234:13314   */\n      tag_147\n      jump\t// in\n    tag_298:\n        /* \"#utility.yul\":12893:13324   */\n      pop\n      pop\n        /* \"#utility.yul\":12878:13324   */\n    tag_294:\n        /* \"#utility.yul\":12788:13331   */\n      pop\n      pop\n      pop\n      jump\t// out\n        /* \"#utility.yul\":13337:13454   */\n    tag_149:\n        /* \"#utility.yul\":13391:13399   */\n      0x00\n        /* \"#utility.yul\":13441:13446   */\n      dup3\n        /* \"#utility.yul\":13435:13439   */\n      dup3\n        /* \"#utility.yul\":13431:13447   */\n      shr\n        /* \"#utility.yul\":13410:13447   */\n      swap1\n      pop\n        /* \"#utility.yul\":13337:13454   */\n      swap3\n      swap2\n      pop\n      pop\n      jump\t// out\n        /* \"#utility.yul\":13460:13629   */\n    tag_150:\n        /* \"#utility.yul\":13504:13510   */\n      0x00\n        /* \"#utility.yul\":13537:13588   */\n      tag_302\n        /* \"#utility.yul\":13585:13586   */\n      0x00\n        /* \"#utility.yul\":13581:13587   */\n      not\n        /* \"#utility.yul\":13573:13578   */\n      dup5\n        /* \"#utility.yul\":13570:13571   */\n      0x08\n        /* \"#utility.yul\":13566:13579   */\n      mul\n        /* \"#utility.yul\":13537:13588   */\n      tag_149\n      jump\t// in\n    tag_302:\n        /* \"#utility.yul\":13533:13589   */\n      not\n        /* \"#utility.yul\":13618:13622   */\n      dup1\n        /* \"#utility.yul\":13612:13616   */\n      dup4\n        /* \"#utility.yul\":13608:13623   */\n      and\n        /* \"#utility.yul\":13598:13623   */\n      swap2\n      pop\n        /* \"#utility.yul\":13511:13629   */\n      pop\n        /* \"#utility.yul\":13460:13629   */\n      swap3\n      swap2\n      pop\n      pop\n      jump\t// out\n        /* \"#utility.yul\":13634:13929   */\n    tag_151:\n        /* \"#utility.yul\":13710:13714   */\n      0x00\n        /* \"#utility.yul\":13856:13885   */\n      tag_304\n        /* \"#utility.yul\":13881:13884   */\n      dup4\n        /* \"#utility.yul\":13875:13879   */\n      dup4\n        /* \"#utility.yul\":13856:13885   */\n      tag_150\n      jump\t// in\n    tag_304:\n        /* \"#utility.yul\":13848:13885   */\n      swap2\n      pop\n        /* \"#utility.yul\":13918:13921   */\n      dup3\n        /* \"#utility.yul\":13915:13916   */\n      0x02\n        /* \"#utility.yul\":13911:13922   */\n      mul\n        /* \"#utility.yul\":13905:13909   */\n      dup3\n        /* \"#utility.yul\":13902:13923   */\n      or\n        /* \"#utility.yul\":13894:13923   */\n      swap1\n      pop\n        /* \"#utility.yul\":13634:13929   */\n      swap3\n      swap2\n      pop\n      pop\n      jump\t// out\n        /* \"#utility.yul\":13934:15329   */\n    tag_81:\n        /* \"#utility.yul\":14051:14088   */\n      tag_306\n        /* \"#utility.yul\":14084:14087   */\n      dup3\n        /* \"#utility.yul\":14051:14088   */\n      tag_119\n      jump\t// in\n    tag_306:\n        /* \"#utility.yul\":14153:14171   */\n      0xffffffffffffffff\n        /* \"#utility.yul\":14145:14151   */\n      dup2\n        /* \"#utility.yul\":14142:14172   */\n      gt\n        /* \"#utility.yul\":14139:14195   */\n      iszero\n      tag_307\n      jumpi\n        /* \"#utility.yul\":14175:14193   */\n      tag_308\n      tag_136\n      jump\t// in\n    tag_308:\n        /* \"#utility.yul\":14139:14195   */\n    tag_307:\n        /* \"#utility.yul\":14219:14257   */\n      tag_309\n        /* \"#utility.yul\":14251:14255   */\n      dup3\n        /* \"#utility.yul\":14245:14256   */\n      sload\n        /* \"#utility.yul\":14219:14257   */\n      tag_37\n      jump\t// in\n    tag_309:\n        /* \"#utility.yul\":14304:14371   */\n      tag_310\n        /* \"#utility.yul\":14364:14370   */\n      dup3\n        /* \"#utility.yul\":14356:14362   */\n      dup3\n        /* \"#utility.yul\":14350:14354   */\n      dup6\n        /* \"#utility.yul\":14304:14371   */\n      tag_148\n      jump\t// in\n    tag_310:\n        /* \"#utility.yul\":14398:14399   */\n      0x00\n        /* \"#utility.yul\":14422:14426   */\n      0x20\n        /* \"#utility.yul\":14409:14426   */\n      swap1\n      pop\n        /* \"#utility.yul\":14454:14456   */\n      0x1f\n        /* \"#utility.yul\":14446:14452   */\n      dup4\n        /* \"#utility.yul\":14443:14457   */\n      gt\n        /* \"#utility.yul\":14471:14472   */\n      0x01\n        /* \"#utility.yul\":14466:15084   */\n      dup2\n      eq\n      tag_312\n      jumpi\n        /* \"#utility.yul\":15128:15129   */\n      0x00\n        /* \"#utility.yul\":15145:15151   */\n      dup5\n        /* \"#utility.yul\":15142:15219   */\n      iszero\n      tag_313\n      jumpi\n        /* \"#utility.yul\":15194:15203   */\n      dup3\n        /* \"#utility.yul\":15189:15192   */\n      dup8\n        /* \"#utility.yul\":15185:15204   */\n      add\n        /* \"#utility.yul\":15179:15205   */\n      mload\n        /* \"#utility.yul\":15170:15205   */\n      swap1\n      pop\n        /* \"#utility.yul\":15142:15219   */\n    tag_313:\n        /* \"#utility.yul\":15245:15312   */\n      tag_314\n        /* \"#utility.yul\":15305:15311   */\n      dup6\n        /* \"#utility.yul\":15298:15303   */\n      dup3\n        /* \"#utility.yul\":15245:15312   */\n      tag_151\n      jump\t// in\n    tag_314:\n        /* \"#utility.yul\":15239:15243   */\n      dup7\n        /* \"#utility.yul\":15232:15313   */\n      sstore\n        /* \"#utility.yul\":15101:15323   */\n      pop\n        /* \"#utility.yul\":14436:15323   */\n      jump(tag_311)\n        /* \"#utility.yul\":14466:15084   */\n    tag_312:\n        /* \"#utility.yul\":14518:14522   */\n      0x1f\n        /* \"#utility.yul\":14514:14523   */\n      not\n        /* \"#utility.yul\":14506:14512   */\n      dup5\n        /* \"#utility.yul\":14502:14524   */\n      and\n        /* \"#utility.yul\":14552:14589   */\n      tag_315\n        /* \"#utility.yul\":14584:14588   */\n      dup7\n        /* \"#utility.yul\":14552:14589   */\n      tag_137\n      jump\t// in\n    tag_315:\n        /* \"#utility.yul\":14611:14612   */\n      0x00\n        /* \"#utility.yul\":14625:14833   */\n    tag_316:\n        /* \"#utility.yul\":14639:14646   */\n      dup3\n        /* \"#utility.yul\":14636:14637   */\n      dup2\n        /* \"#utility.yul\":14633:14647   */\n      lt\n        /* \"#utility.yul\":14625:14833   */\n      iszero\n      tag_318\n      jumpi\n        /* \"#utility.yul\":14718:14727   */\n      dup5\n        /* \"#utility.yul\":14713:14716   */\n      dup10\n        /* \"#utility.yul\":14709:14728   */\n      add\n        /* \"#utility.yul\":14703:14729   */\n      mload\n        /* \"#utility.yul\":14695:14701   */\n      dup3\n        /* \"#utility.yul\":14688:14730   */\n      sstore\n        /* \"#utility.yul\":14769:14770   */\n      0x01\n        /* \"#utility.yul\":14761:14767   */\n      dup3\n        /* \"#utility.yul\":14757:14771   */\n      add\n        /* \"#utility.yul\":14747:14771   */\n      swap2\n      pop\n        /* \"#utility.yul\":14816:14818   */\n      0x20\n        /* \"#utility.yul\":14805:14814   */\n      dup6\n        /* \"#utility.yul\":14801:14819   */\n      add\n        /* \"#utility.yul\":14788:14819   */\n      swap5\n      pop\n        /* \"#utility.yul\":14662:14666   */\n      0x20\n        /* \"#utility.yul\":14659:14660   */\n      dup2\n        /* \"#utility.yul\":14655:14667   */\n      add\n        /* \"#utility.yul\":14650:14667   */\n      swap1\n      pop\n        /* \"#utility.yul\":14625:14833   */\n      jump(tag_316)\n    tag_318:\n        /* \"#utility.yul\":14861:14867   */\n      dup7\n        /* \"#utility.yul\":14852:14859   */\n      dup4\n        /* \"#utility.yul\":14849:14868   */\n      lt\n        /* \"#utility.yul\":14846:15025   */\n      iszero\n      tag_319\n      jumpi\n        /* \"#utility.yul\":14919:14928   */\n      dup5\n        /* \"#utility.yul\":14914:14917   */\n      dup10\n        /* \"#utility.yul\":14910:14929   */\n      add\n        /* \"#utility.yul\":14904:14930   */\n      mload\n        /* \"#utility.yul\":14962:15010   */\n      tag_320\n        /* \"#utility.yul\":15004:15008   */\n      0x1f\n        /* \"#utility.yul\":14996:15002   */\n      dup10\n        /* \"#utility.yul\":14992:15009   */\n      and\n        /* \"#utility.yul\":14981:14990   */\n      dup3\n        /* \"#utility.yul\":14962:15010   */\n      tag_150\n      jump\t// in\n    tag_320:\n        /* \"#utility.yul\":14954:14960   */\n      dup4\n        /* \"#utility.yul\":14947:15011   */\n      sstore\n        /* \"#utility.yul\":14869:15025   */\n      pop\n        /* \"#utility.yul\":14846:15025   */\n    tag_319:\n        /* \"#utility.yul\":15071:15072   */\n      0x01\n        /* \"#utility.yul\":15067:15068   */\n      0x02\n        /* \"#utility.yul\":15059:15065   */\n      dup9\n        /* \"#utility.yul\":15055:15069   */\n      mul\n        /* \"#utility.yul\":15051:15073   */\n      add\n        /* \"#utility.yul\":15045:15049   */\n      dup9\n        /* \"#utility.yul\":15038:15074   */\n      sstore\n        /* \"#utility.yul\":14473:15084   */\n      pop\n      pop\n      pop\n        /* \"#utility.yul\":14436:15323   */\n    tag_311:\n      pop\n        /* \"#utility.yul\":14026:15329   */\n      pop\n      pop\n      pop\n        /* \"#utility.yul\":13934:15329   */\n      pop\n      pop\n      jump\t// out\n        /* \"#utility.yul\":15335:15481   */\n    tag_152:\n        /* \"#utility.yul\":15432:15438   */\n      dup3\n        /* \"#utility.yul\":15427:15430   */\n      dup2\n        /* \"#utility.yul\":15422:15425   */\n      dup4\n        /* \"#utility.yul\":15409:15439   */\n      calldatacopy\n        /* \"#utility.yul\":15473:15474   */\n      0x00\n        /* \"#utility.yul\":15464:15470   */\n      dup4\n        /* \"#utility.yul\":15459:15462   */\n      dup4\n        /* \"#utility.yul\":15455:15471   */\n      add\n        /* \"#utility.yul\":15448:15475   */\n      mstore\n        /* \"#utility.yul\":15335:15481   */\n      pop\n      pop\n      pop\n      jump\t// out\n        /* \"#utility.yul\":15511:15828   */\n    tag_153:\n        /* \"#utility.yul\":15609:15612   */\n      0x00\n        /* \"#utility.yul\":15630:15701   */\n      tag_323\n        /* \"#utility.yul\":15694:15700   */\n      dup4\n        /* \"#utility.yul\":15689:15692   */\n      dup6\n        /* \"#utility.yul\":15630:15701   */\n      tag_120\n      jump\t// in\n    tag_323:\n        /* \"#utility.yul\":15623:15701   */\n      swap4\n      pop\n        /* \"#utility.yul\":15711:15767   */\n      tag_324\n        /* \"#utility.yul\":15760:15766   */\n      dup4\n        /* \"#utility.yul\":15755:15758   */\n      dup6\n        /* \"#utility.yul\":15748:15753   */\n      dup5\n        /* \"#utility.yul\":15711:15767   */\n      tag_152\n      jump\t// in\n    tag_324:\n        /* \"#utility.yul\":15792:15821   */\n      tag_325\n        /* \"#utility.yul\":15814:15820   */\n      dup4\n        /* \"#utility.yul\":15792:15821   */\n      tag_122\n      jump\t// in\n    tag_325:\n        /* \"#utility.yul\":15787:15790   */\n      dup5\n        /* \"#utility.yul\":15783:15822   */\n      add\n        /* \"#utility.yul\":15776:15822   */\n      swap1\n      pop\n        /* \"#utility.yul\":15511:15828   */\n      swap4\n      swap3\n      pop\n      pop\n      pop\n      jump\t// out\n        /* \"#utility.yul\":15834:16621   */\n    tag_85:\n        /* \"#utility.yul\":16075:16079   */\n      0x00\n        /* \"#utility.yul\":16113:16116   */\n      0xa0\n        /* \"#utility.yul\":16102:16111   */\n      dup3\n        /* \"#utility.yul\":16098:16117   */\n      add\n        /* \"#utility.yul\":16090:16117   */\n      swap1\n      pop\n        /* \"#utility.yul\":16127:16198   */\n      tag_327\n        /* \"#utility.yul\":16195:16196   */\n      0x00\n        /* \"#utility.yul\":16184:16193   */\n      dup4\n        /* \"#utility.yul\":16180:16197   */\n      add\n        /* \"#utility.yul\":16171:16177   */\n      dup10\n        /* \"#utility.yul\":16127:16198   */\n      tag_124\n      jump\t// in\n    tag_327:\n        /* \"#utility.yul\":16208:16286   */\n      tag_328\n        /* \"#utility.yul\":16282:16284   */\n      0x20\n        /* \"#utility.yul\":16271:16280   */\n      dup4\n        /* \"#utility.yul\":16267:16285   */\n      add\n        /* \"#utility.yul\":16258:16264   */\n      dup9\n        /* \"#utility.yul\":16208:16286   */\n      tag_118\n      jump\t// in\n    tag_328:\n        /* \"#utility.yul\":16333:16342   */\n      dup2\n        /* \"#utility.yul\":16327:16331   */\n      dup2\n        /* \"#utility.yul\":16323:16343   */\n      sub\n        /* \"#utility.yul\":16318:16320   */\n      0x40\n        /* \"#utility.yul\":16307:16316   */\n      dup4\n        /* \"#utility.yul\":16303:16321   */\n      add\n        /* \"#utility.yul\":16296:16344   */\n      mstore\n        /* \"#utility.yul\":16361:16449   */\n      tag_329\n        /* \"#utility.yul\":16444:16448   */\n      dup2\n        /* \"#utility.yul\":16435:16441   */\n      dup7\n        /* \"#utility.yul\":16427:16433   */\n      dup9\n        /* \"#utility.yul\":16361:16449   */\n      tag_153\n      jump\t// in\n    tag_329:\n        /* \"#utility.yul\":16353:16449   */\n      swap1\n      pop\n        /* \"#utility.yul\":16459:16531   */\n      tag_330\n        /* \"#utility.yul\":16527:16529   */\n      0x60\n        /* \"#utility.yul\":16516:16525   */\n      dup4\n        /* \"#utility.yul\":16512:16530   */\n      add\n        /* \"#utility.yul\":16503:16509   */\n      dup6\n        /* \"#utility.yul\":16459:16531   */\n      tag_127\n      jump\t// in\n    tag_330:\n        /* \"#utility.yul\":16541:16614   */\n      tag_331\n        /* \"#utility.yul\":16609:16612   */\n      0x80\n        /* \"#utility.yul\":16598:16607   */\n      dup4\n        /* \"#utility.yul\":16594:16613   */\n      add\n        /* \"#utility.yul\":16585:16591   */\n      dup5\n        /* \"#utility.yul\":16541:16614   */\n      tag_124\n      jump\t// in\n    tag_331:\n        /* \"#utility.yul\":15834:16621   */\n      swap8\n      swap7\n      pop\n      pop\n      pop\n      pop\n      pop\n      pop\n      pop\n      jump\t// out\n        /* \"#utility.yul\":16627:16804   */\n    tag_154:\n        /* \"#utility.yul\":16767:16796   */\n      0x746869732070726f6475637420616c7265616479206578697374730000000000\n        /* \"#utility.yul\":16763:16764   */\n      0x00\n        /* \"#utility.yul\":16755:16761   */\n      dup3\n        /* \"#utility.yul\":16751:16765   */\n      add\n        /* \"#utility.yul\":16744:16797   */\n      mstore\n        /* \"#utility.yul\":16627:16804   */\n      pop\n      jump\t// out\n        /* \"#utility.yul\":16810:17176   */\n    tag_155:\n        /* \"#utility.yul\":16952:16955   */\n      0x00\n        /* \"#utility.yul\":16973:17040   */\n      tag_334\n        /* \"#utility.yul\":17037:17039   */\n      0x1b\n        /* \"#utility.yul\":17032:17035   */\n      dup4\n        /* \"#utility.yul\":16973:17040   */\n      tag_120\n      jump\t// in\n    tag_334:\n        /* \"#utility.yul\":16966:17040   */\n      swap2\n      pop\n        /* \"#utility.yul\":17049:17142   */\n      tag_335\n        /* \"#utility.yul\":17138:17141   */\n      dup3\n        /* \"#utility.yul\":17049:17142   */\n      tag_154\n      jump\t// in\n    tag_335:\n        /* \"#utility.yul\":17167:17169   */\n      0x20\n        /* \"#utility.yul\":17162:17165   */\n      dup3\n        /* \"#utility.yul\":17158:17170   */\n      add\n        /* \"#utility.yul\":17151:17170   */\n      swap1\n      pop\n        /* \"#utility.yul\":16810:17176   */\n      swap2\n      swap1\n      pop\n      jump\t// out\n        /* \"#utility.yul\":17182:17601   */\n    tag_89:\n        /* \"#utility.yul\":17348:17352   */\n      0x00\n        /* \"#utility.yul\":17386:17388   */\n      0x20\n        /* \"#utility.yul\":17375:17384   */\n      dup3\n        /* \"#utility.yul\":17371:17389   */\n      add\n        /* \"#utility.yul\":17363:17389   */\n      swap1\n      pop\n        /* \"#utility.yul\":17435:17444   */\n      dup2\n        /* \"#utility.yul\":17429:17433   */\n      dup2\n        /* \"#utility.yul\":17425:17445   */\n      sub\n        /* \"#utility.yul\":17421:17422   */\n      0x00\n        /* \"#utility.yul\":17410:17419   */\n      dup4\n        /* \"#utility.yul\":17406:17423   */\n      add\n        /* \"#utility.yul\":17399:17446   */\n      mstore\n        /* \"#utility.yul\":17463:17594   */\n      tag_337\n        /* \"#utility.yul\":17589:17593   */\n      dup2\n        /* \"#utility.yul\":17463:17594   */\n      tag_155\n      jump\t// in\n    tag_337:\n        /* \"#utility.yul\":17455:17594   */\n      swap1\n      pop\n        /* \"#utility.yul\":17182:17601   */\n      swap2\n      swap1\n      pop\n      jump\t// out\n\n    auxdata: 0xa26469706673582212203bf6099f8013a40a14d2a45a8e9a09cb8732035d009f335e91fdeac451ffe16664736f6c63430008120033\n}\n",
				"bytecode": {
					"linkReferences": {},
					"object": "608060405234801561001057600080fd5b506112db806100206000396000f3fe6080604052600436106100345760003560e01c80632e855eb414610039578063643b48e514610069578063a590fbdb146100a6575b600080fd5b610053600480360381019061004e91906109d0565b6100e6565b6040516100609190610a5f565b60405180910390f35b34801561007557600080fd5b50610090600480360381019061008b9190610a7a565b610677565b60405161009d9190610a5f565b60405180910390f35b3480156100b257600080fd5b506100cd60048036038101906100c89190610aa7565b610829565b6040516100dd9493929190610c3e565b60405180910390f35b600080600080878152602001908152602001600020805490501161013f576040517f08c379a000000000000000000000000000000000000000000000000000000000815260040161013690610cd6565b60405180910390fd5b6000806000878152602001908152602001600020805480602002602001604051908101604052809291908181526020016000905b828210156102d257838290600052602060002090600402016040518060800160405290816000820160009054906101000a900460ff1660048111156101bb576101ba610ae7565b5b60048111156101cd576101cc610ae7565b5b81526020016001820180546101e190610d25565b80601f016020809104026020016040519081016040528092919081815260200182805461020d90610d25565b801561025a5780601f1061022f5761010080835404028352916020019161025a565b820191906000526020600020905b81548152906001019060200180831161023d57829003601f168201915b50505050508152602001600282015481526020016003820160009054906101000a900473ffffffffffffffffffffffffffffffffffffffff1673ffffffffffffffffffffffffffffffffffffffff1673ffffffffffffffffffffffffffffffffffffffff168152505081526020019060010190610173565b5050505090506000600182600184516102eb9190610d85565b815181106102fc576102fb610db9565b5b602002602001015160000151600481111561031a57610319610ae7565b5b6103249190610de8565b905060048081111561033957610338610ae7565b5b81111561037b576040517f08c379a000000000000000000000000000000000000000000000000000000000815260040161037290610e68565b60405180910390fd5b6002600481111561038f5761038e610ae7565b5b8114806103ad57506004808111156103aa576103a9610ae7565b5b81145b1561049d576000826001836103c29190610d85565b815181106103d3576103d2610db9565b5b602002602001015160400151905080341015610424576040517f08c379a000000000000000000000000000000000000000000000000000000000815260040161041b90610ed4565b60405180910390fd5b6000836001846104349190610d85565b8151811061044557610444610db9565b5b60200260200101516060015190508073ffffffffffffffffffffffffffffffffffffffff166108fc839081150290604051600060405180830381858888f19350505050158015610499573d6000803e3d6000fd5b5050505b600060405180608001604052808360048111156104bd576104bc610ae7565b5b60048111156104cf576104ce610ae7565b5b815260200188888080601f016020809104026020016040519081016040528093929190818152602001838380828437600081840152601f19601f8201169050808301925050505050505081526020018681526020013373ffffffffffffffffffffffffffffffffffffffff16815250905060008089815260200190815260200160002081908060018154018082558091505060019003906000526020600020906004020160009091909190915060008201518160000160006101000a81548160ff021916908360048111156105a7576105a6610ae7565b5b021790555060208201518160010190816105c191906110cf565b506040820151816002015560608201518160030160006101000a81548173ffffffffffffffffffffffffffffffffffffffff021916908373ffffffffffffffffffffffffffffffffffffffff16021790555050507f5af2bfe982689f34f03c39033a8fecf869f42b81b23572f5eff29d1e057ee6db8883600481111561064a57610649610ae7565b5b8989338a604051610660969594939291906111dd565b60405180910390a160019350505050949350505050565b60008060008084815260200190815260200160002080549050146106d0576040517f08c379a00000000000000000000000000000000000000000000000000000000081526004016106c790611285565b60405180910390fd5b60008083815260200190815260200160002060405180608001604052806000600481111561070157610700610ae7565b5b81526020016040518060400160405280600181526020017f20000000000000000000000000000000000000000000000000000000000000008152508152602001600081526020013373ffffffffffffffffffffffffffffffffffffffff16815250908060018154018082558091505060019003906000526020600020906004020160009091909190915060008201518160000160006101000a81548160ff021916908360048111156107b6576107b5610ae7565b5b021790555060208201518160010190816107d091906110cf565b506040820151816002015560608201518160030160006101000a81548173ffffffffffffffffffffffffffffffffffffffff021916908373ffffffffffffffffffffffffffffffffffffffff1602179055505050919050565b6000602052816000526040600020818154811061084557600080fd5b9060005260206000209060040201600091509150508060000160009054906101000a900460ff169080600101805461087c90610d25565b80601f01602080910402602001604051908101604052809291908181526020018280546108a890610d25565b80156108f55780601f106108ca576101008083540402835291602001916108f5565b820191906000526020600020905b8154815290600101906020018083116108d857829003601f168201915b5050505050908060020154908060030160009054906101000a900473ffffffffffffffffffffffffffffffffffffffff16905084565b600080fd5b600080fd5b6000819050919050565b61094881610935565b811461095357600080fd5b50565b6000813590506109658161093f565b92915050565b600080fd5b600080fd5b600080fd5b60008083601f8401126109905761098f61096b565b5b8235905067ffffffffffffffff8111156109ad576109ac610970565b5b6020830191508360018202830111156109c9576109c8610975565b5b9250929050565b600080600080606085870312156109ea576109e961092b565b5b60006109f887828801610956565b945050602085013567ffffffffffffffff811115610a1957610a18610930565b5b610a258782880161097a565b93509350506040610a3887828801610956565b91505092959194509250565b60008115159050919050565b610a5981610a44565b82525050565b6000602082019050610a746000830184610a50565b92915050565b600060208284031215610a9057610a8f61092b565b5b6000610a9e84828501610956565b91505092915050565b60008060408385031215610abe57610abd61092b565b5b6000610acc85828601610956565b9250506020610add85828601610956565b9150509250929050565b7f4e487b7100000000000000000000000000000000000000000000000000000000600052602160045260246000fd5b60058110610b2757610b26610ae7565b5b50565b6000819050610b3882610b16565b919050565b6000610b4882610b2a565b9050919050565b610b5881610b3d565b82525050565b600081519050919050565b600082825260208201905092915050565b60005b83811015610b98578082015181840152602081019050610b7d565b60008484015250505050565b6000601f19601f8301169050919050565b6000610bc082610b5e565b610bca8185610b69565b9350610bda818560208601610b7a565b610be381610ba4565b840191505092915050565b610bf781610935565b82525050565b600073ffffffffffffffffffffffffffffffffffffffff82169050919050565b6000610c2882610bfd565b9050919050565b610c3881610c1d565b82525050565b6000608082019050610c536000830187610b4f565b8181036020830152610c658186610bb5565b9050610c746040830185610bee565b610c816060830184610c2f565b95945050505050565b7f746869732070726f6475637420646f65736e2774206578697374000000000000600082015250565b6000610cc0601a83610b69565b9150610ccb82610c8a565b602082019050919050565b60006020820190508181036000830152610cef81610cb3565b9050919050565b7f4e487b7100000000000000000000000000000000000000000000000000000000600052602260045260246000fd5b60006002820490506001821680610d3d57607f821691505b602082108103610d5057610d4f610cf6565b5b50919050565b7f4e487b7100000000000000000000000000000000000000000000000000000000600052601160045260246000fd5b6000610d9082610935565b9150610d9b83610935565b9250828203905081811115610db357610db2610d56565b5b92915050565b7f4e487b7100000000000000000000000000000000000000000000000000000000600052603260045260246000fd5b6000610df382610935565b9150610dfe83610935565b9250828201905080821115610e1657610e15610d56565b5b92915050565b7f7468652070726f6475637420686173206e6f206d6f7265207374657073000000600082015250565b6000610e52601d83610b69565b9150610e5d82610e1c565b602082019050919050565b60006020820190508181036000830152610e8181610e45565b9050919050565b7f796f75206e65656420796f207061792074686520736572766963650000000000600082015250565b6000610ebe601b83610b69565b9150610ec982610e88565b602082019050919050565b60006020820190508181036000830152610eed81610eb1565b9050919050565b7f4e487b7100000000000000000000000000000000000000000000000000000000600052604160045260246000fd5b60008190508160005260206000209050919050565b60006020601f8301049050919050565b600082821b905092915050565b600060088302610f857fffffffffffffffffffffffffffffffffffffffffffffffffffffffffffffffff82610f48565b610f8f8683610f48565b95508019841693508086168417925050509392505050565b6000819050919050565b6000610fcc610fc7610fc284610935565b610fa7565b610935565b9050919050565b6000819050919050565b610fe683610fb1565b610ffa610ff282610fd3565b848454610f55565b825550505050565b600090565b61100f611002565b61101a818484610fdd565b505050565b5b8181101561103e57611033600082611007565b600181019050611020565b5050565b601f8211156110835761105481610f23565b61105d84610f38565b8101602085101561106c578190505b61108061107885610f38565b83018261101f565b50505b505050565b600082821c905092915050565b60006110a660001984600802611088565b1980831691505092915050565b60006110bf8383611095565b9150826002028217905092915050565b6110d882610b5e565b67ffffffffffffffff8111156110f1576110f0610ef4565b5b6110fb8254610d25565b611106828285611042565b600060209050601f8311600181146111395760008415611127578287015190505b61113185826110b3565b865550611199565b601f19841661114786610f23565b60005b8281101561116f5784890151825560018201915060208501945060208101905061114a565b8683101561118c5784890151611188601f891682611095565b8355505b6001600288020188555050505b505050505050565b82818337600083830152505050565b60006111bc8385610b69565b93506111c98385846111a1565b6111d283610ba4565b840190509392505050565b600060a0820190506111f26000830189610bee565b6111ff6020830188610b4f565b81810360408301526112128186886111b0565b90506112216060830185610c2f565b61122e6080830184610bee565b979650505050505050565b7f746869732070726f6475637420616c7265616479206578697374730000000000600082015250565b600061126f601b83610b69565b915061127a82611239565b602082019050919050565b6000602082019050818103600083015261129e81611262565b905091905056fea26469706673582212203bf6099f8013a40a14d2a45a8e9a09cb8732035d009f335e91fdeac451ffe16664736f6c63430008120033",
					"opcodes": "PUSH1 0x80 PUSH1 0x40 MSTORE CALLVALUE DUP1 ISZERO PUSH2 0x10 JUMPI PUSH1 0x0 DUP1 REVERT JUMPDEST POP PUSH2 0x12DB DUP1 PUSH2 0x20 PUSH1 0x0 CODECOPY PUSH1 0x0 RETURN INVALID PUSH1 0x80 PUSH1 0x40 MSTORE PUSH1 0x4 CALLDATASIZE LT PUSH2 0x34 JUMPI PUSH1 0x0 CALLDATALOAD PUSH1 0xE0 SHR DUP1 PUSH4 0x2E855EB4 EQ PUSH2 0x39 JUMPI DUP1 PUSH4 0x643B48E5 EQ PUSH2 0x69 JUMPI DUP1 PUSH4 0xA590FBDB EQ PUSH2 0xA6 JUMPI JUMPDEST PUSH1 0x0 DUP1 REVERT JUMPDEST PUSH2 0x53 PUSH1 0x4 DUP1 CALLDATASIZE SUB DUP2 ADD SWAP1 PUSH2 0x4E SWAP2 SWAP1 PUSH2 0x9D0 JUMP JUMPDEST PUSH2 0xE6 JUMP JUMPDEST PUSH1 0x40 MLOAD PUSH2 0x60 SWAP2 SWAP1 PUSH2 0xA5F JUMP JUMPDEST PUSH1 0x40 MLOAD DUP1 SWAP2 SUB SWAP1 RETURN JUMPDEST CALLVALUE DUP1 ISZERO PUSH2 0x75 JUMPI PUSH1 0x0 DUP1 REVERT JUMPDEST POP PUSH2 0x90 PUSH1 0x4 DUP1 CALLDATASIZE SUB DUP2 ADD SWAP1 PUSH2 0x8B SWAP2 SWAP1 PUSH2 0xA7A JUMP JUMPDEST PUSH2 0x677 JUMP JUMPDEST PUSH1 0x40 MLOAD PUSH2 0x9D SWAP2 SWAP1 PUSH2 0xA5F JUMP JUMPDEST PUSH1 0x40 MLOAD DUP1 SWAP2 SUB SWAP1 RETURN JUMPDEST CALLVALUE DUP1 ISZERO PUSH2 0xB2 JUMPI PUSH1 0x0 DUP1 REVERT JUMPDEST POP PUSH2 0xCD PUSH1 0x4 DUP1 CALLDATASIZE SUB DUP2 ADD SWAP1 PUSH2 0xC8 SWAP2 SWAP1 PUSH2 0xAA7 JUMP JUMPDEST PUSH2 0x829 JUMP JUMPDEST PUSH1 0x40 MLOAD PUSH2 0xDD SWAP5 SWAP4 SWAP3 SWAP2 SWAP1 PUSH2 0xC3E JUMP JUMPDEST PUSH1 0x40 MLOAD DUP1 SWAP2 SUB SWAP1 RETURN JUMPDEST PUSH1 0x0 DUP1 PUSH1 0x0 DUP1 DUP8 DUP2 MSTORE PUSH1 0x20 ADD SWAP1 DUP2 MSTORE PUSH1 0x20 ADD PUSH1 0x0 KECCAK256 DUP1 SLOAD SWAP1 POP GT PUSH2 0x13F JUMPI PUSH1 0x40 MLOAD PUSH32 0x8C379A000000000000000000000000000000000000000000000000000000000 DUP2 MSTORE PUSH1 0x4 ADD PUSH2 0x136 SWAP1 PUSH2 0xCD6 JUMP JUMPDEST PUSH1 0x40 MLOAD DUP1 SWAP2 SUB SWAP1 REVERT JUMPDEST PUSH1 0x0 DUP1 PUSH1 0x0 DUP8 DUP2 MSTORE PUSH1 0x20 ADD SWAP1 DUP2 MSTORE PUSH1 0x20 ADD PUSH1 0x0 KECCAK256 DUP1 SLOAD DUP1 PUSH1 0x20 MUL PUSH1 0x20 ADD PUSH1 0x40 MLOAD SWAP1 DUP2 ADD PUSH1 0x40 MSTORE DUP1 SWAP3 SWAP2 SWAP1 DUP2 DUP2 MSTORE PUSH1 0x20 ADD PUSH1 0x0 SWAP1 JUMPDEST DUP3 DUP3 LT ISZERO PUSH2 0x2D2 JUMPI DUP4 DUP3 SWAP1 PUSH1 0x0 MSTORE PUSH1 0x20 PUSH1 0x0 KECCAK256 SWAP1 PUSH1 0x4 MUL ADD PUSH1 0x40 MLOAD DUP1 PUSH1 0x80 ADD PUSH1 0x40 MSTORE SWAP1 DUP2 PUSH1 0x0 DUP3 ADD PUSH1 0x0 SWAP1 SLOAD SWAP1 PUSH2 0x100 EXP SWAP1 DIV PUSH1 0xFF AND PUSH1 0x4 DUP2 GT ISZERO PUSH2 0x1BB JUMPI PUSH2 0x1BA PUSH2 0xAE7 JUMP JUMPDEST JUMPDEST PUSH1 0x4 DUP2 GT ISZERO PUSH2 0x1CD JUMPI PUSH2 0x1CC PUSH2 0xAE7 JUMP JUMPDEST JUMPDEST DUP2 MSTORE PUSH1 0x20 ADD PUSH1 0x1 DUP3 ADD DUP1 SLOAD PUSH2 0x1E1 SWAP1 PUSH2 0xD25 JUMP JUMPDEST DUP1 PUSH1 0x1F ADD PUSH1 0x20 DUP1 SWAP2 DIV MUL PUSH1 0x20 ADD PUSH1 0x40 MLOAD SWAP1 DUP2 ADD PUSH1 0x40 MSTORE DUP1 SWAP3 SWAP2 SWAP1 DUP2 DUP2 MSTORE PUSH1 0x20 ADD DUP3 DUP1 SLOAD PUSH2 0x20D SWAP1 PUSH2 0xD25 JUMP JUMPDEST DUP1 ISZERO PUSH2 0x25A JUMPI DUP1 PUSH1 0x1F LT PUSH2 0x22F JUMPI PUSH2 0x100 DUP1 DUP4 SLOAD DIV MUL DUP4 MSTORE SWAP2 PUSH1 0x20 ADD SWAP2 PUSH2 0x25A JUMP JUMPDEST DUP3 ADD SWAP2 SWAP1 PUSH1 0x0 MSTORE PUSH1 0x20 PUSH1 0x0 KECCAK256 SWAP1 JUMPDEST DUP2 SLOAD DUP2 MSTORE SWAP1 PUSH1 0x1 ADD SWAP1 PUSH1 0x20 ADD DUP1 DUP4 GT PUSH2 0x23D JUMPI DUP3 SWAP1 SUB PUSH1 0x1F AND DUP3 ADD SWAP2 JUMPDEST POP POP POP POP POP DUP2 MSTORE PUSH1 0x20 ADD PUSH1 0x2 DUP3 ADD SLOAD DUP2 MSTORE PUSH1 0x20 ADD PUSH1 0x3 DUP3 ADD PUSH1 0x0 SWAP1 SLOAD SWAP1 PUSH2 0x100 EXP SWAP1 DIV PUSH20 0xFFFFFFFFFFFFFFFFFFFFFFFFFFFFFFFFFFFFFFFF AND PUSH20 0xFFFFFFFFFFFFFFFFFFFFFFFFFFFFFFFFFFFFFFFF AND PUSH20 0xFFFFFFFFFFFFFFFFFFFFFFFFFFFFFFFFFFFFFFFF AND DUP2 MSTORE POP POP DUP2 MSTORE PUSH1 0x20 ADD SWAP1 PUSH1 0x1 ADD SWAP1 PUSH2 0x173 JUMP JUMPDEST POP POP POP POP SWAP1 POP PUSH1 0x0 PUSH1 0x1 DUP3 PUSH1 0x1 DUP5 MLOAD PUSH2 0x2EB SWAP2 SWAP1 PUSH2 0xD85 JUMP JUMPDEST DUP2 MLOAD DUP2 LT PUSH2 0x2FC JUMPI PUSH2 0x2FB PUSH2 0xDB9 JUMP JUMPDEST JUMPDEST PUSH1 0x20 MUL PUSH1 0x20 ADD ADD MLOAD PUSH1 0x0 ADD MLOAD PUSH1 0x4 DUP2 GT ISZERO PUSH2 0x31A JUMPI PUSH2 0x319 PUSH2 0xAE7 JUMP JUMPDEST JUMPDEST PUSH2 0x324 SWAP2 SWAP1 PUSH2 0xDE8 JUMP JUMPDEST SWAP1 POP PUSH1 0x4 DUP1 DUP2 GT ISZERO PUSH2 0x339 JUMPI PUSH2 0x338 PUSH2 0xAE7 JUMP JUMPDEST JUMPDEST DUP2 GT ISZERO PUSH2 0x37B JUMPI PUSH1 0x40 MLOAD PUSH32 0x8C379A000000000000000000000000000000000000000000000000000000000 DUP2 MSTORE PUSH1 0x4 ADD PUSH2 0x372 SWAP1 PUSH2 0xE68 JUMP JUMPDEST PUSH1 0x40 MLOAD DUP1 SWAP2 SUB SWAP1 REVERT JUMPDEST PUSH1 0x2 PUSH1 0x4 DUP2 GT ISZERO PUSH2 0x38F JUMPI PUSH2 0x38E PUSH2 0xAE7 JUMP JUMPDEST JUMPDEST DUP2 EQ DUP1 PUSH2 0x3AD JUMPI POP PUSH1 0x4 DUP1 DUP2 GT ISZERO PUSH2 0x3AA JUMPI PUSH2 0x3A9 PUSH2 0xAE7 JUMP JUMPDEST JUMPDEST DUP2 EQ JUMPDEST ISZERO PUSH2 0x49D JUMPI PUSH1 0x0 DUP3 PUSH1 0x1 DUP4 PUSH2 0x3C2 SWAP2 SWAP1 PUSH2 0xD85 JUMP JUMPDEST DUP2 MLOAD DUP2 LT PUSH2 0x3D3 JUMPI PUSH2 0x3D2 PUSH2 0xDB9 JUMP JUMPDEST JUMPDEST PUSH1 0x20 MUL PUSH1 0x20 ADD ADD MLOAD PUSH1 0x40 ADD MLOAD SWAP1 POP DUP1 CALLVALUE LT ISZERO PUSH2 0x424 JUMPI PUSH1 0x40 MLOAD PUSH32 0x8C379A000000000000000000000000000000000000000000000000000000000 DUP2 MSTORE PUSH1 0x4 ADD PUSH2 0x41B SWAP1 PUSH2 0xED4 JUMP JUMPDEST PUSH1 0x40 MLOAD DUP1 SWAP2 SUB SWAP1 REVERT JUMPDEST PUSH1 0x0 DUP4 PUSH1 0x1 DUP5 PUSH2 0x434 SWAP2 SWAP1 PUSH2 0xD85 JUMP JUMPDEST DUP2 MLOAD DUP2 LT PUSH2 0x445 JUMPI PUSH2 0x444 PUSH2 0xDB9 JUMP JUMPDEST JUMPDEST PUSH1 0x20 MUL PUSH1 0x20 ADD ADD MLOAD PUSH1 0x60 ADD MLOAD SWAP1 POP DUP1 PUSH20 0xFFFFFFFFFFFFFFFFFFFFFFFFFFFFFFFFFFFFFFFF AND PUSH2 0x8FC DUP4 SWAP1 DUP2 ISZERO MUL SWAP1 PUSH1 0x40 MLOAD PUSH1 0x0 PUSH1 0x40 MLOAD DUP1 DUP4 SUB DUP2 DUP6 DUP9 DUP9 CALL SWAP4 POP POP POP POP ISZERO DUP1 ISZERO PUSH2 0x499 JUMPI RETURNDATASIZE PUSH1 0x0 DUP1 RETURNDATACOPY RETURNDATASIZE PUSH1 0x0 REVERT JUMPDEST POP POP POP JUMPDEST PUSH1 0x0 PUSH1 0x40 MLOAD DUP1 PUSH1 0x80 ADD PUSH1 0x40 MSTORE DUP1 DUP4 PUSH1 0x4 DUP2 GT ISZERO PUSH2 0x4BD JUMPI PUSH2 0x4BC PUSH2 0xAE7 JUMP JUMPDEST JUMPDEST PUSH1 0x4 DUP2 GT ISZERO PUSH2 0x4CF JUMPI PUSH2 0x4CE PUSH2 0xAE7 JUMP JUMPDEST JUMPDEST DUP2 MSTORE PUSH1 0x20 ADD DUP9 DUP9 DUP1 DUP1 PUSH1 0x1F ADD PUSH1 0x20 DUP1 SWAP2 DIV MUL PUSH1 0x20 ADD PUSH1 0x40 MLOAD SWAP1 DUP2 ADD PUSH1 0x40 MSTORE DUP1 SWAP4 SWAP3 SWAP2 SWAP1 DUP2 DUP2 MSTORE PUSH1 0x20 ADD DUP4 DUP4 DUP1 DUP3 DUP5 CALLDATACOPY PUSH1 0x0 DUP2 DUP5 ADD MSTORE PUSH1 0x1F NOT PUSH1 0x1F DUP3 ADD AND SWAP1 POP DUP1 DUP4 ADD SWAP3 POP POP POP POP POP POP POP DUP2 MSTORE PUSH1 0x20 ADD DUP7 DUP2 MSTORE PUSH1 0x20 ADD CALLER PUSH20 0xFFFFFFFFFFFFFFFFFFFFFFFFFFFFFFFFFFFFFFFF AND DUP2 MSTORE POP SWAP1 POP PUSH1 0x0 DUP1 DUP10 DUP2 MSTORE PUSH1 0x20 ADD SWAP1 DUP2 MSTORE PUSH1 0x20 ADD PUSH1 0x0 KECCAK256 DUP2 SWAP1 DUP1 PUSH1 0x1 DUP2 SLOAD ADD DUP1 DUP3 SSTORE DUP1 SWAP2 POP POP PUSH1 0x1 SWAP1 SUB SWAP1 PUSH1 0x0 MSTORE PUSH1 0x20 PUSH1 0x0 KECCAK256 SWAP1 PUSH1 0x4 MUL ADD PUSH1 0x0 SWAP1 SWAP2 SWAP1 SWAP2 SWAP1 SWAP2 POP PUSH1 0x0 DUP3 ADD MLOAD DUP2 PUSH1 0x0 ADD PUSH1 0x0 PUSH2 0x100 EXP DUP2 SLOAD DUP2 PUSH1 0xFF MUL NOT AND SWAP1 DUP4 PUSH1 0x4 DUP2 GT ISZERO PUSH2 0x5A7 JUMPI PUSH2 0x5A6 PUSH2 0xAE7 JUMP JUMPDEST JUMPDEST MUL OR SWAP1 SSTORE POP PUSH1 0x20 DUP3 ADD MLOAD DUP2 PUSH1 0x1 ADD SWAP1 DUP2 PUSH2 0x5C1 SWAP2 SWAP1 PUSH2 0x10CF JUMP JUMPDEST POP PUSH1 0x40 DUP3 ADD MLOAD DUP2 PUSH1 0x2 ADD SSTORE PUSH1 0x60 DUP3 ADD MLOAD DUP2 PUSH1 0x3 ADD PUSH1 0x0 PUSH2 0x100 EXP DUP2 SLOAD DUP2 PUSH20 0xFFFFFFFFFFFFFFFFFFFFFFFFFFFFFFFFFFFFFFFF MUL NOT AND SWAP1 DUP4 PUSH20 0xFFFFFFFFFFFFFFFFFFFFFFFFFFFFFFFFFFFFFFFF AND MUL OR SWAP1 SSTORE POP POP POP PUSH32 0x5AF2BFE982689F34F03C39033A8FECF869F42B81B23572F5EFF29D1E057EE6DB DUP9 DUP4 PUSH1 0x4 DUP2 GT ISZERO PUSH2 0x64A JUMPI PUSH2 0x649 PUSH2 0xAE7 JUMP JUMPDEST JUMPDEST DUP10 DUP10 CALLER DUP11 PUSH1 0x40 MLOAD PUSH2 0x660 SWAP7 SWAP6 SWAP5 SWAP4 SWAP3 SWAP2 SWAP1 PUSH2 0x11DD JUMP JUMPDEST PUSH1 0x40 MLOAD DUP1 SWAP2 SUB SWAP1 LOG1 PUSH1 0x1 SWAP4 POP POP POP POP SWAP5 SWAP4 POP POP POP POP JUMP JUMPDEST PUSH1 0x0 DUP1 PUSH1 0x0 DUP1 DUP5 DUP2 MSTORE PUSH1 0x20 ADD SWAP1 DUP2 MSTORE PUSH1 0x20 ADD PUSH1 0x0 KECCAK256 DUP1 SLOAD SWAP1 POP EQ PUSH2 0x6D0 JUMPI PUSH1 0x40 MLOAD PUSH32 0x8C379A000000000000000000000000000000000000000000000000000000000 DUP2 MSTORE PUSH1 0x4 ADD PUSH2 0x6C7 SWAP1 PUSH2 0x1285 JUMP JUMPDEST PUSH1 0x40 MLOAD DUP1 SWAP2 SUB SWAP1 REVERT JUMPDEST PUSH1 0x0 DUP1 DUP4 DUP2 MSTORE PUSH1 0x20 ADD SWAP1 DUP2 MSTORE PUSH1 0x20 ADD PUSH1 0x0 KECCAK256 PUSH1 0x40 MLOAD DUP1 PUSH1 0x80 ADD PUSH1 0x40 MSTORE DUP1 PUSH1 0x0 PUSH1 0x4 DUP2 GT ISZERO PUSH2 0x701 JUMPI PUSH2 0x700 PUSH2 0xAE7 JUMP JUMPDEST JUMPDEST DUP2 MSTORE PUSH1 0x20 ADD PUSH1 0x40 MLOAD DUP1 PUSH1 0x40 ADD PUSH1 0x40 MSTORE DUP1 PUSH1 0x1 DUP2 MSTORE PUSH1 0x20 ADD PUSH32 0x2000000000000000000000000000000000000000000000000000000000000000 DUP2 MSTORE POP DUP2 MSTORE PUSH1 0x20 ADD PUSH1 0x0 DUP2 MSTORE PUSH1 0x20 ADD CALLER PUSH20 0xFFFFFFFFFFFFFFFFFFFFFFFFFFFFFFFFFFFFFFFF AND DUP2 MSTORE POP SWAP1 DUP1 PUSH1 0x1 DUP2 SLOAD ADD DUP1 DUP3 SSTORE DUP1 SWAP2 POP POP PUSH1 0x1 SWAP1 SUB SWAP1 PUSH1 0x0 MSTORE PUSH1 0x20 PUSH1 0x0 KECCAK256 SWAP1 PUSH1 0x4 MUL ADD PUSH1 0x0 SWAP1 SWAP2 SWAP1 SWAP2 SWAP1 SWAP2 POP PUSH1 0x0 DUP3 ADD MLOAD DUP2 PUSH1 0x0 ADD PUSH1 0x0 PUSH2 0x100 EXP DUP2 SLOAD DUP2 PUSH1 0xFF MUL NOT AND SWAP1 DUP4 PUSH1 0x4 DUP2 GT ISZERO PUSH2 0x7B6 JUMPI PUSH2 0x7B5 PUSH2 0xAE7 JUMP JUMPDEST JUMPDEST MUL OR SWAP1 SSTORE POP PUSH1 0x20 DUP3 ADD MLOAD DUP2 PUSH1 0x1 ADD SWAP1 DUP2 PUSH2 0x7D0 SWAP2 SWAP1 PUSH2 0x10CF JUMP JUMPDEST POP PUSH1 0x40 DUP3 ADD MLOAD DUP2 PUSH1 0x2 ADD SSTORE PUSH1 0x60 DUP3 ADD MLOAD DUP2 PUSH1 0x3 ADD PUSH1 0x0 PUSH2 0x100 EXP DUP2 SLOAD DUP2 PUSH20 0xFFFFFFFFFFFFFFFFFFFFFFFFFFFFFFFFFFFFFFFF MUL NOT AND SWAP1 DUP4 PUSH20 0xFFFFFFFFFFFFFFFFFFFFFFFFFFFFFFFFFFFFFFFF AND MUL OR SWAP1 SSTORE POP POP POP SWAP2 SWAP1 POP JUMP JUMPDEST PUSH1 0x0 PUSH1 0x20 MSTORE DUP2 PUSH1 0x0 MSTORE PUSH1 0x40 PUSH1 0x0 KECCAK256 DUP2 DUP2 SLOAD DUP2 LT PUSH2 0x845 JUMPI PUSH1 0x0 DUP1 REVERT JUMPDEST SWAP1 PUSH1 0x0 MSTORE PUSH1 0x20 PUSH1 0x0 KECCAK256 SWAP1 PUSH1 0x4 MUL ADD PUSH1 0x0 SWAP2 POP SWAP2 POP POP DUP1 PUSH1 0x0 ADD PUSH1 0x0 SWAP1 SLOAD SWAP1 PUSH2 0x100 EXP SWAP1 DIV PUSH1 0xFF AND SWAP1 DUP1 PUSH1 0x1 ADD DUP1 SLOAD PUSH2 0x87C SWAP1 PUSH2 0xD25 JUMP JUMPDEST DUP1 PUSH1 0x1F ADD PUSH1 0x20 DUP1 SWAP2 DIV MUL PUSH1 0x20 ADD PUSH1 0x40 MLOAD SWAP1 DUP2 ADD PUSH1 0x40 MSTORE DUP1 SWAP3 SWAP2 SWAP1 DUP2 DUP2 MSTORE PUSH1 0x20 ADD DUP3 DUP1 SLOAD PUSH2 0x8A8 SWAP1 PUSH2 0xD25 JUMP JUMPDEST DUP1 ISZERO PUSH2 0x8F5 JUMPI DUP1 PUSH1 0x1F LT PUSH2 0x8CA JUMPI PUSH2 0x100 DUP1 DUP4 SLOAD DIV MUL DUP4 MSTORE SWAP2 PUSH1 0x20 ADD SWAP2 PUSH2 0x8F5 JUMP JUMPDEST DUP3 ADD SWAP2 SWAP1 PUSH1 0x0 MSTORE PUSH1 0x20 PUSH1 0x0 KECCAK256 SWAP1 JUMPDEST DUP2 SLOAD DUP2 MSTORE SWAP1 PUSH1 0x1 ADD SWAP1 PUSH1 0x20 ADD DUP1 DUP4 GT PUSH2 0x8D8 JUMPI DUP3 SWAP1 SUB PUSH1 0x1F AND DUP3 ADD SWAP2 JUMPDEST POP POP POP POP POP SWAP1 DUP1 PUSH1 0x2 ADD SLOAD SWAP1 DUP1 PUSH1 0x3 ADD PUSH1 0x0 SWAP1 SLOAD SWAP1 PUSH2 0x100 EXP SWAP1 DIV PUSH20 0xFFFFFFFFFFFFFFFFFFFFFFFFFFFFFFFFFFFFFFFF AND SWAP1 POP DUP5 JUMP JUMPDEST PUSH1 0x0 DUP1 REVERT JUMPDEST PUSH1 0x0 DUP1 REVERT JUMPDEST PUSH1 0x0 DUP2 SWAP1 POP SWAP2 SWAP1 POP JUMP JUMPDEST PUSH2 0x948 DUP2 PUSH2 0x935 JUMP JUMPDEST DUP2 EQ PUSH2 0x953 JUMPI PUSH1 0x0 DUP1 REVERT JUMPDEST POP JUMP JUMPDEST PUSH1 0x0 DUP2 CALLDATALOAD SWAP1 POP PUSH2 0x965 DUP2 PUSH2 0x93F JUMP JUMPDEST SWAP3 SWAP2 POP POP JUMP JUMPDEST PUSH1 0x0 DUP1 REVERT JUMPDEST PUSH1 0x0 DUP1 REVERT JUMPDEST PUSH1 0x0 DUP1 REVERT JUMPDEST PUSH1 0x0 DUP1 DUP4 PUSH1 0x1F DUP5 ADD SLT PUSH2 0x990 JUMPI PUSH2 0x98F PUSH2 0x96B JUMP JUMPDEST JUMPDEST DUP3 CALLDATALOAD SWAP1 POP PUSH8 0xFFFFFFFFFFFFFFFF DUP2 GT ISZERO PUSH2 0x9AD JUMPI PUSH2 0x9AC PUSH2 0x970 JUMP JUMPDEST JUMPDEST PUSH1 0x20 DUP4 ADD SWAP2 POP DUP4 PUSH1 0x1 DUP3 MUL DUP4 ADD GT ISZERO PUSH2 0x9C9 JUMPI PUSH2 0x9C8 PUSH2 0x975 JUMP JUMPDEST JUMPDEST SWAP3 POP SWAP3 SWAP1 POP JUMP JUMPDEST PUSH1 0x0 DUP1 PUSH1 0x0 DUP1 PUSH1 0x60 DUP6 DUP8 SUB SLT ISZERO PUSH2 0x9EA JUMPI PUSH2 0x9E9 PUSH2 0x92B JUMP JUMPDEST JUMPDEST PUSH1 0x0 PUSH2 0x9F8 DUP8 DUP3 DUP9 ADD PUSH2 0x956 JUMP JUMPDEST SWAP5 POP POP PUSH1 0x20 DUP6 ADD CALLDATALOAD PUSH8 0xFFFFFFFFFFFFFFFF DUP2 GT ISZERO PUSH2 0xA19 JUMPI PUSH2 0xA18 PUSH2 0x930 JUMP JUMPDEST JUMPDEST PUSH2 0xA25 DUP8 DUP3 DUP9 ADD PUSH2 0x97A JUMP JUMPDEST SWAP4 POP SWAP4 POP POP PUSH1 0x40 PUSH2 0xA38 DUP8 DUP3 DUP9 ADD PUSH2 0x956 JUMP JUMPDEST SWAP2 POP POP SWAP3 SWAP6 SWAP2 SWAP5 POP SWAP3 POP JUMP JUMPDEST PUSH1 0x0 DUP2 ISZERO ISZERO SWAP1 POP SWAP2 SWAP1 POP JUMP JUMPDEST PUSH2 0xA59 DUP2 PUSH2 0xA44 JUMP JUMPDEST DUP3 MSTORE POP POP JUMP JUMPDEST PUSH1 0x0 PUSH1 0x20 DUP3 ADD SWAP1 POP PUSH2 0xA74 PUSH1 0x0 DUP4 ADD DUP5 PUSH2 0xA50 JUMP JUMPDEST SWAP3 SWAP2 POP POP JUMP JUMPDEST PUSH1 0x0 PUSH1 0x20 DUP3 DUP5 SUB SLT ISZERO PUSH2 0xA90 JUMPI PUSH2 0xA8F PUSH2 0x92B JUMP JUMPDEST JUMPDEST PUSH1 0x0 PUSH2 0xA9E DUP5 DUP3 DUP6 ADD PUSH2 0x956 JUMP JUMPDEST SWAP2 POP POP SWAP3 SWAP2 POP POP JUMP JUMPDEST PUSH1 0x0 DUP1 PUSH1 0x40 DUP4 DUP6 SUB SLT ISZERO PUSH2 0xABE JUMPI PUSH2 0xABD PUSH2 0x92B JUMP JUMPDEST JUMPDEST PUSH1 0x0 PUSH2 0xACC DUP6 DUP3 DUP7 ADD PUSH2 0x956 JUMP JUMPDEST SWAP3 POP POP PUSH1 0x20 PUSH2 0xADD DUP6 DUP3 DUP7 ADD PUSH2 0x956 JUMP JUMPDEST SWAP2 POP POP SWAP3 POP SWAP3 SWAP1 POP JUMP JUMPDEST PUSH32 0x4E487B7100000000000000000000000000000000000000000000000000000000 PUSH1 0x0 MSTORE PUSH1 0x21 PUSH1 0x4 MSTORE PUSH1 0x24 PUSH1 0x0 REVERT JUMPDEST PUSH1 0x5 DUP2 LT PUSH2 0xB27 JUMPI PUSH2 0xB26 PUSH2 0xAE7 JUMP JUMPDEST JUMPDEST POP JUMP JUMPDEST PUSH1 0x0 DUP2 SWAP1 POP PUSH2 0xB38 DUP3 PUSH2 0xB16 JUMP JUMPDEST SWAP2 SWAP1 POP JUMP JUMPDEST PUSH1 0x0 PUSH2 0xB48 DUP3 PUSH2 0xB2A JUMP JUMPDEST SWAP1 POP SWAP2 SWAP1 POP JUMP JUMPDEST PUSH2 0xB58 DUP2 PUSH2 0xB3D JUMP JUMPDEST DUP3 MSTORE POP POP JUMP JUMPDEST PUSH1 0x0 DUP2 MLOAD SWAP1 POP SWAP2 SWAP1 POP JUMP JUMPDEST PUSH1 0x0 DUP3 DUP3 MSTORE PUSH1 0x20 DUP3 ADD SWAP1 POP SWAP3 SWAP2 POP POP JUMP JUMPDEST PUSH1 0x0 JUMPDEST DUP4 DUP2 LT ISZERO PUSH2 0xB98 JUMPI DUP1 DUP3 ADD MLOAD DUP2 DUP5 ADD MSTORE PUSH1 0x20 DUP2 ADD SWAP1 POP PUSH2 0xB7D JUMP JUMPDEST PUSH1 0x0 DUP5 DUP5 ADD MSTORE POP POP POP POP JUMP JUMPDEST PUSH1 0x0 PUSH1 0x1F NOT PUSH1 0x1F DUP4 ADD AND SWAP1 POP SWAP2 SWAP1 POP JUMP JUMPDEST PUSH1 0x0 PUSH2 0xBC0 DUP3 PUSH2 0xB5E JUMP JUMPDEST PUSH2 0xBCA DUP2 DUP6 PUSH2 0xB69 JUMP JUMPDEST SWAP4 POP PUSH2 0xBDA DUP2 DUP6 PUSH1 0x20 DUP7 ADD PUSH2 0xB7A JUMP JUMPDEST PUSH2 0xBE3 DUP2 PUSH2 0xBA4 JUMP JUMPDEST DUP5 ADD SWAP2 POP POP SWAP3 SWAP2 POP POP JUMP JUMPDEST PUSH2 0xBF7 DUP2 PUSH2 0x935 JUMP JUMPDEST DUP3 MSTORE POP POP JUMP JUMPDEST PUSH1 0x0 PUSH20 0xFFFFFFFFFFFFFFFFFFFFFFFFFFFFFFFFFFFFFFFF DUP3 AND SWAP1 POP SWAP2 SWAP1 POP JUMP JUMPDEST PUSH1 0x0 PUSH2 0xC28 DUP3 PUSH2 0xBFD JUMP JUMPDEST SWAP1 POP SWAP2 SWAP1 POP JUMP JUMPDEST PUSH2 0xC38 DUP2 PUSH2 0xC1D JUMP JUMPDEST DUP3 MSTORE POP POP JUMP JUMPDEST PUSH1 0x0 PUSH1 0x80 DUP3 ADD SWAP1 POP PUSH2 0xC53 PUSH1 0x0 DUP4 ADD DUP8 PUSH2 0xB4F JUMP JUMPDEST DUP2 DUP2 SUB PUSH1 0x20 DUP4 ADD MSTORE PUSH2 0xC65 DUP2 DUP7 PUSH2 0xBB5 JUMP JUMPDEST SWAP1 POP PUSH2 0xC74 PUSH1 0x40 DUP4 ADD DUP6 PUSH2 0xBEE JUMP JUMPDEST PUSH2 0xC81 PUSH1 0x60 DUP4 ADD DUP5 PUSH2 0xC2F JUMP JUMPDEST SWAP6 SWAP5 POP POP POP POP POP JUMP JUMPDEST PUSH32 0x746869732070726F6475637420646F65736E2774206578697374000000000000 PUSH1 0x0 DUP3 ADD MSTORE POP JUMP JUMPDEST PUSH1 0x0 PUSH2 0xCC0 PUSH1 0x1A DUP4 PUSH2 0xB69 JUMP JUMPDEST SWAP2 POP PUSH2 0xCCB DUP3 PUSH2 0xC8A JUMP JUMPDEST PUSH1 0x20 DUP3 ADD SWAP1 POP SWAP2 SWAP1 POP JUMP JUMPDEST PUSH1 0x0 PUSH1 0x20 DUP3 ADD SWAP1 POP DUP2 DUP2 SUB PUSH1 0x0 DUP4 ADD MSTORE PUSH2 0xCEF DUP2 PUSH2 0xCB3 JUMP JUMPDEST SWAP1 POP SWAP2 SWAP1 POP JUMP JUMPDEST PUSH32 0x4E487B7100000000000000000000000000000000000000000000000000000000 PUSH1 0x0 MSTORE PUSH1 0x22 PUSH1 0x4 MSTORE PUSH1 0x24 PUSH1 0x0 REVERT JUMPDEST PUSH1 0x0 PUSH1 0x2 DUP3 DIV SWAP1 POP PUSH1 0x1 DUP3 AND DUP1 PUSH2 0xD3D JUMPI PUSH1 0x7F DUP3 AND SWAP2 POP JUMPDEST PUSH1 0x20 DUP3 LT DUP2 SUB PUSH2 0xD50 JUMPI PUSH2 0xD4F PUSH2 0xCF6 JUMP JUMPDEST JUMPDEST POP SWAP2 SWAP1 POP JUMP JUMPDEST PUSH32 0x4E487B7100000000000000000000000000000000000000000000000000000000 PUSH1 0x0 MSTORE PUSH1 0x11 PUSH1 0x4 MSTORE PUSH1 0x24 PUSH1 0x0 REVERT JUMPDEST PUSH1 0x0 PUSH2 0xD90 DUP3 PUSH2 0x935 JUMP JUMPDEST SWAP2 POP PUSH2 0xD9B DUP4 PUSH2 0x935 JUMP JUMPDEST SWAP3 POP DUP3 DUP3 SUB SWAP1 POP DUP2 DUP2 GT ISZERO PUSH2 0xDB3 JUMPI PUSH2 0xDB2 PUSH2 0xD56 JUMP JUMPDEST JUMPDEST SWAP3 SWAP2 POP POP JUMP JUMPDEST PUSH32 0x4E487B7100000000000000000000000000000000000000000000000000000000 PUSH1 0x0 MSTORE PUSH1 0x32 PUSH1 0x4 MSTORE PUSH1 0x24 PUSH1 0x0 REVERT JUMPDEST PUSH1 0x0 PUSH2 0xDF3 DUP3 PUSH2 0x935 JUMP JUMPDEST SWAP2 POP PUSH2 0xDFE DUP4 PUSH2 0x935 JUMP JUMPDEST SWAP3 POP DUP3 DUP3 ADD SWAP1 POP DUP1 DUP3 GT ISZERO PUSH2 0xE16 JUMPI PUSH2 0xE15 PUSH2 0xD56 JUMP JUMPDEST JUMPDEST SWAP3 SWAP2 POP POP JUMP JUMPDEST PUSH32 0x7468652070726F6475637420686173206E6F206D6F7265207374657073000000 PUSH1 0x0 DUP3 ADD MSTORE POP JUMP JUMPDEST PUSH1 0x0 PUSH2 0xE52 PUSH1 0x1D DUP4 PUSH2 0xB69 JUMP JUMPDEST SWAP2 POP PUSH2 0xE5D DUP3 PUSH2 0xE1C JUMP JUMPDEST PUSH1 0x20 DUP3 ADD SWAP1 POP SWAP2 SWAP1 POP JUMP JUMPDEST PUSH1 0x0 PUSH1 0x20 DUP3 ADD SWAP1 POP DUP2 DUP2 SUB PUSH1 0x0 DUP4 ADD MSTORE PUSH2 0xE81 DUP2 PUSH2 0xE45 JUMP JUMPDEST SWAP1 POP SWAP2 SWAP1 POP JUMP JUMPDEST PUSH32 0x796F75206E65656420796F207061792074686520736572766963650000000000 PUSH1 0x0 DUP3 ADD MSTORE POP JUMP JUMPDEST PUSH1 0x0 PUSH2 0xEBE PUSH1 0x1B DUP4 PUSH2 0xB69 JUMP JUMPDEST SWAP2 POP PUSH2 0xEC9 DUP3 PUSH2 0xE88 JUMP JUMPDEST PUSH1 0x20 DUP3 ADD SWAP1 POP SWAP2 SWAP1 POP JUMP JUMPDEST PUSH1 0x0 PUSH1 0x20 DUP3 ADD SWAP1 POP DUP2 DUP2 SUB PUSH1 0x0 DUP4 ADD MSTORE PUSH2 0xEED DUP2 PUSH2 0xEB1 JUMP JUMPDEST SWAP1 POP SWAP2 SWAP1 POP JUMP JUMPDEST PUSH32 0x4E487B7100000000000000000000000000000000000000000000000000000000 PUSH1 0x0 MSTORE PUSH1 0x41 PUSH1 0x4 MSTORE PUSH1 0x24 PUSH1 0x0 REVERT JUMPDEST PUSH1 0x0 DUP2 SWAP1 POP DUP2 PUSH1 0x0 MSTORE PUSH1 0x20 PUSH1 0x0 KECCAK256 SWAP1 POP SWAP2 SWAP1 POP JUMP JUMPDEST PUSH1 0x0 PUSH1 0x20 PUSH1 0x1F DUP4 ADD DIV SWAP1 POP SWAP2 SWAP1 POP JUMP JUMPDEST PUSH1 0x0 DUP3 DUP3 SHL SWAP1 POP SWAP3 SWAP2 POP POP JUMP JUMPDEST PUSH1 0x0 PUSH1 0x8 DUP4 MUL PUSH2 0xF85 PUSH32 0xFFFFFFFFFFFFFFFFFFFFFFFFFFFFFFFFFFFFFFFFFFFFFFFFFFFFFFFFFFFFFFFF DUP3 PUSH2 0xF48 JUMP JUMPDEST PUSH2 0xF8F DUP7 DUP4 PUSH2 0xF48 JUMP JUMPDEST SWAP6 POP DUP1 NOT DUP5 AND SWAP4 POP DUP1 DUP7 AND DUP5 OR SWAP3 POP POP POP SWAP4 SWAP3 POP POP POP JUMP JUMPDEST PUSH1 0x0 DUP2 SWAP1 POP SWAP2 SWAP1 POP JUMP JUMPDEST PUSH1 0x0 PUSH2 0xFCC PUSH2 0xFC7 PUSH2 0xFC2 DUP5 PUSH2 0x935 JUMP JUMPDEST PUSH2 0xFA7 JUMP JUMPDEST PUSH2 0x935 JUMP JUMPDEST SWAP1 POP SWAP2 SWAP1 POP JUMP JUMPDEST PUSH1 0x0 DUP2 SWAP1 POP SWAP2 SWAP1 POP JUMP JUMPDEST PUSH2 0xFE6 DUP4 PUSH2 0xFB1 JUMP JUMPDEST PUSH2 0xFFA PUSH2 0xFF2 DUP3 PUSH2 0xFD3 JUMP JUMPDEST DUP5 DUP5 SLOAD PUSH2 0xF55 JUMP JUMPDEST DUP3 SSTORE POP POP POP POP JUMP JUMPDEST PUSH1 0x0 SWAP1 JUMP JUMPDEST PUSH2 0x100F PUSH2 0x1002 JUMP JUMPDEST PUSH2 0x101A DUP2 DUP5 DUP5 PUSH2 0xFDD JUMP JUMPDEST POP POP POP JUMP JUMPDEST JUMPDEST DUP2 DUP2 LT ISZERO PUSH2 0x103E JUMPI PUSH2 0x1033 PUSH1 0x0 DUP3 PUSH2 0x1007 JUMP JUMPDEST PUSH1 0x1 DUP2 ADD SWAP1 POP PUSH2 0x1020 JUMP JUMPDEST POP POP JUMP JUMPDEST PUSH1 0x1F DUP3 GT ISZERO PUSH2 0x1083 JUMPI PUSH2 0x1054 DUP2 PUSH2 0xF23 JUMP JUMPDEST PUSH2 0x105D DUP5 PUSH2 0xF38 JUMP JUMPDEST DUP2 ADD PUSH1 0x20 DUP6 LT ISZERO PUSH2 0x106C JUMPI DUP2 SWAP1 POP JUMPDEST PUSH2 0x1080 PUSH2 0x1078 DUP6 PUSH2 0xF38 JUMP JUMPDEST DUP4 ADD DUP3 PUSH2 0x101F JUMP JUMPDEST POP POP JUMPDEST POP POP POP JUMP JUMPDEST PUSH1 0x0 DUP3 DUP3 SHR SWAP1 POP SWAP3 SWAP2 POP POP JUMP JUMPDEST PUSH1 0x0 PUSH2 0x10A6 PUSH1 0x0 NOT DUP5 PUSH1 0x8 MUL PUSH2 0x1088 JUMP JUMPDEST NOT DUP1 DUP4 AND SWAP2 POP POP SWAP3 SWAP2 POP POP JUMP JUMPDEST PUSH1 0x0 PUSH2 0x10BF DUP4 DUP4 PUSH2 0x1095 JUMP JUMPDEST SWAP2 POP DUP3 PUSH1 0x2 MUL DUP3 OR SWAP1 POP SWAP3 SWAP2 POP POP JUMP JUMPDEST PUSH2 0x10D8 DUP3 PUSH2 0xB5E JUMP JUMPDEST PUSH8 0xFFFFFFFFFFFFFFFF DUP2 GT ISZERO PUSH2 0x10F1 JUMPI PUSH2 0x10F0 PUSH2 0xEF4 JUMP JUMPDEST JUMPDEST PUSH2 0x10FB DUP3 SLOAD PUSH2 0xD25 JUMP JUMPDEST PUSH2 0x1106 DUP3 DUP3 DUP6 PUSH2 0x1042 JUMP JUMPDEST PUSH1 0x0 PUSH1 0x20 SWAP1 POP PUSH1 0x1F DUP4 GT PUSH1 0x1 DUP2 EQ PUSH2 0x1139 JUMPI PUSH1 0x0 DUP5 ISZERO PUSH2 0x1127 JUMPI DUP3 DUP8 ADD MLOAD SWAP1 POP JUMPDEST PUSH2 0x1131 DUP6 DUP3 PUSH2 0x10B3 JUMP JUMPDEST DUP7 SSTORE POP PUSH2 0x1199 JUMP JUMPDEST PUSH1 0x1F NOT DUP5 AND PUSH2 0x1147 DUP7 PUSH2 0xF23 JUMP JUMPDEST PUSH1 0x0 JUMPDEST DUP3 DUP2 LT ISZERO PUSH2 0x116F JUMPI DUP5 DUP10 ADD MLOAD DUP3 SSTORE PUSH1 0x1 DUP3 ADD SWAP2 POP PUSH1 0x20 DUP6 ADD SWAP5 POP PUSH1 0x20 DUP2 ADD SWAP1 POP PUSH2 0x114A JUMP JUMPDEST DUP7 DUP4 LT ISZERO PUSH2 0x118C JUMPI DUP5 DUP10 ADD MLOAD PUSH2 0x1188 PUSH1 0x1F DUP10 AND DUP3 PUSH2 0x1095 JUMP JUMPDEST DUP4 SSTORE POP JUMPDEST PUSH1 0x1 PUSH1 0x2 DUP9 MUL ADD DUP9 SSTORE POP POP POP JUMPDEST POP POP POP POP POP POP JUMP JUMPDEST DUP3 DUP2 DUP4 CALLDATACOPY PUSH1 0x0 DUP4 DUP4 ADD MSTORE POP POP POP JUMP JUMPDEST PUSH1 0x0 PUSH2 0x11BC DUP4 DUP6 PUSH2 0xB69 JUMP JUMPDEST SWAP4 POP PUSH2 0x11C9 DUP4 DUP6 DUP5 PUSH2 0x11A1 JUMP JUMPDEST PUSH2 0x11D2 DUP4 PUSH2 0xBA4 JUMP JUMPDEST DUP5 ADD SWAP1 POP SWAP4 SWAP3 POP POP POP JUMP JUMPDEST PUSH1 0x0 PUSH1 0xA0 DUP3 ADD SWAP1 POP PUSH2 0x11F2 PUSH1 0x0 DUP4 ADD DUP10 PUSH2 0xBEE JUMP JUMPDEST PUSH2 0x11FF PUSH1 0x20 DUP4 ADD DUP9 PUSH2 0xB4F JUMP JUMPDEST DUP2 DUP2 SUB PUSH1 0x40 DUP4 ADD MSTORE PUSH2 0x1212 DUP2 DUP7 DUP9 PUSH2 0x11B0 JUMP JUMPDEST SWAP1 POP PUSH2 0x1221 PUSH1 0x60 DUP4 ADD DUP6 PUSH2 0xC2F JUMP JUMPDEST PUSH2 0x122E PUSH1 0x80 DUP4 ADD DUP5 PUSH2 0xBEE JUMP JUMPDEST SWAP8 SWAP7 POP POP POP POP POP POP POP JUMP JUMPDEST PUSH32 0x746869732070726F6475637420616C7265616479206578697374730000000000 PUSH1 0x0 DUP3 ADD MSTORE POP JUMP JUMPDEST PUSH1 0x0 PUSH2 0x126F PUSH1 0x1B DUP4 PUSH2 0xB69 JUMP JUMPDEST SWAP2 POP PUSH2 0x127A DUP3 PUSH2 0x1239 JUMP JUMPDEST PUSH1 0x20 DUP3 ADD SWAP1 POP SWAP2 SWAP1 POP JUMP JUMPDEST PUSH1 0x0 PUSH1 0x20 DUP3 ADD SWAP1 POP DUP2 DUP2 SUB PUSH1 0x0 DUP4 ADD MSTORE PUSH2 0x129E DUP2 PUSH2 0x1262 JUMP JUMPDEST SWAP1 POP SWAP2 SWAP1 POP JUMP INVALID LOG2 PUSH5 0x6970667358 0x22 SLT KECCAK256 EXTCODESIZE 0xF6 MULMOD SWAP16 DUP1 SGT LOG4 EXP EQ 0xD2 LOG4 GAS DUP15 SWAP11 MULMOD 0xCB DUP8 ORIGIN SUB 0x5D STOP SWAP16 CALLER 0x5E SWAP2 REVERT 0xEA 0xC4 MLOAD SELFDESTRUCT 0xE1 PUSH7 0x64736F6C634300 ADDMOD SLT STOP CALLER "
				},
				"gasEstimates": {
					"creation": {
						"codeDepositCost": "965400",
						"executionCost": "1001",
						"totalCost": "966401"
					},
					"external": {
						"products(uint256,uint256)": "infinite",
						"register_product(uint256)": "infinite",
						"register_step(uint256,string,uint256)": "infinite"
					}
				},
				"methodIdentifiers": {
					"products(uint256,uint256)": "a590fbdb",
					"register_product(uint256)": "643b48e5",
					"register_step(uint256,string,uint256)": "2e855eb4"
				}
			},
			"storageLayout": {
				"storage": [
					{
						"astId": 36,
						"contract": "contracts/supplies/supplies.sol:supply_chain",
						"label": "products",
						"offset": 0,
						"slot": "0",
						"type": "t_mapping(t_uint256,t_array(t_struct(step)17_storage)dyn_storage)"
					}
				],
				"types": {
					"t_address": {
						"encoding": "inplace",
						"label": "address",
						"numberOfBytes": "20"
					},
					"t_array(t_struct(step)17_storage)dyn_storage": {
						"base": "t_struct(step)17_storage",
						"encoding": "dynamic_array",
						"label": "struct supply_chain.step[]",
						"numberOfBytes": "32"
					},
					"t_enum(status)7": {
						"encoding": "inplace",
						"label": "enum supply_chain.status",
						"numberOfBytes": "1"
					},
					"t_mapping(t_uint256,t_array(t_struct(step)17_storage)dyn_storage)": {
						"encoding": "mapping",
						"key": "t_uint256",
						"label": "mapping(uint256 => struct supply_chain.step[])",
						"numberOfBytes": "32",
						"value": "t_array(t_struct(step)17_storage)dyn_storage"
					},
					"t_string_storage": {
						"encoding": "bytes",
						"label": "string",
						"numberOfBytes": "32"
					},
					"t_struct(step)17_storage": {
						"encoding": "inplace",
						"label": "struct supply_chain.step",
						"members": [
							{
								"astId": 10,
								"contract": "contracts/supplies/supplies.sol:supply_chain",
								"label": "status0",
								"offset": 0,
								"slot": "0",
								"type": "t_enum(status)7"
							},
							{
								"astId": 12,
								"contract": "contracts/supplies/supplies.sol:supply_chain",
								"label": "metadata",
								"offset": 0,
								"slot": "1",
								"type": "t_string_storage"
							},
							{
								"astId": 14,
								"contract": "contracts/supplies/supplies.sol:supply_chain",
								"label": "price",
								"offset": 0,
								"slot": "2",
								"type": "t_uint256"
							},
							{
								"astId": 16,
								"contract": "contracts/supplies/supplies.sol:supply_chain",
								"label": "author",
								"offset": 0,
								"slot": "3",
								"type": "t_address"
							}
						],
						"numberOfBytes": "128"
					},
					"t_uint256": {
						"encoding": "inplace",
						"label": "uint256",
						"numberOfBytes": "32"
					}
				}
			},
			"userdoc": {
				"kind": "user",
				"methods": {},
				"version": 1
			}
		}
	}
}