{
	"data": {
		"bytecode": {
			"linkReferences": {},
			"object": "60806040526040518060400160405280600d81526020017f6a657375732070726f6a65637400000000000000000000000000000000000000815250600190816200004a919062000319565b503480156200005857600080fd5b50336000806101000a81548173ffffffffffffffffffffffffffffffffffffffff021916908373ffffffffffffffffffffffffffffffffffffffff16021790555062000400565b600081519050919050565b7f4e487b7100000000000000000000000000000000000000000000000000000000600052604160045260246000fd5b7f4e487b7100000000000000000000000000000000000000000000000000000000600052602260045260246000fd5b600060028204905060018216806200012157607f821691505b602082108103620001375762000136620000d9565b5b50919050565b60008190508160005260206000209050919050565b60006020601f8301049050919050565b600082821b905092915050565b600060088302620001a17fffffffffffffffffffffffffffffffffffffffffffffffffffffffffffffffff8262000162565b620001ad868362000162565b95508019841693508086168417925050509392505050565b6000819050919050565b6000819050919050565b6000620001fa620001f4620001ee84620001c5565b620001cf565b620001c5565b9050919050565b6000819050919050565b6200021683620001d9565b6200022e620002258262000201565b8484546200016f565b825550505050565b600090565b6200024562000236565b620002528184846200020b565b505050565b5b818110156200027a576200026e6000826200023b565b60018101905062000258565b5050565b601f821115620002c95762000293816200013d565b6200029e8462000152565b81016020851015620002ae578190505b620002c6620002bd8562000152565b83018262000257565b50505b505050565b600082821c905092915050565b6000620002ee60001984600802620002ce565b1980831691505092915050565b6000620003098383620002db565b9150826002028217905092915050565b62000324826200009f565b67ffffffffffffffff81111562000340576200033f620000aa565b5b6200034c825462000108565b620003598282856200027e565b600060209050601f8311600181146200039157600084156200037c578287015190505b620003888582620002fb565b865550620003f8565b601f198416620003a1866200013d565b60005b82811015620003cb57848901518255600182019150602085019450602081019050620003a4565b86831015620003eb5784890151620003e7601f891682620002db565b8355505b6001600288020188555050505b505050505050565b61079880620004106000396000f3fe608060405234801561001057600080fd5b50600436106100365760003560e01c8063539e366c1461003b578063dc9c9f3314610057575b600080fd5b610055600480360381019061005091906102fe565b610075565b005b61005f610116565b60405161006c91906103c6565b60405180910390f35b60008054906101000a900473ffffffffffffffffffffffffffffffffffffffff1673ffffffffffffffffffffffffffffffffffffffff163373ffffffffffffffffffffffffffffffffffffffff1614610103576040517f08c379a00000000000000000000000000000000000000000000000000000000081526004016100fa9061045a565b60405180910390fd5b80600190816101129190610690565b5050565b60018054610123906104a9565b80601f016020809104026020016040519081016040528092919081815260200182805461014f906104a9565b801561019c5780601f106101715761010080835404028352916020019161019c565b820191906000526020600020905b81548152906001019060200180831161017f57829003601f168201915b505050505081565b6000604051905090565b600080fd5b600080fd5b600080fd5b600080fd5b6000601f19601f8301169050919050565b7f4e487b7100000000000000000000000000000000000000000000000000000000600052604160045260246000fd5b61020b826101c2565b810181811067ffffffffffffffff8211171561022a576102296101d3565b5b80604052505050565b600061023d6101a4565b90506102498282610202565b919050565b600067ffffffffffffffff821115610269576102686101d3565b5b610272826101c2565b9050602081019050919050565b82818337600083830152505050565b60006102a161029c8461024e565b610233565b9050828152602081018484840111156102bd576102bc6101bd565b5b6102c884828561027f565b509392505050565b600082601f8301126102e5576102e46101b8565b5b81356102f584826020860161028e565b91505092915050565b600060208284031215610314576103136101ae565b5b600082013567ffffffffffffffff811115610332576103316101b3565b5b61033e848285016102d0565b91505092915050565b600081519050919050565b600082825260208201905092915050565b60005b83811015610381578082015181840152602081019050610366565b60008484015250505050565b600061039882610347565b6103a28185610352565b93506103b2818560208601610363565b6103bb816101c2565b840191505092915050565b600060208201905081810360008301526103e0818461038d565b905092915050565b7f4f6e6c79206d616e6f6c6f2063616e206368616e6765207468652070726f6a6560008201527f6374206e616d6500000000000000000000000000000000000000000000000000602082015250565b6000610444602783610352565b915061044f826103e8565b604082019050919050565b6000602082019050818103600083015261047381610437565b9050919050565b7f4e487b7100000000000000000000000000000000000000000000000000000000600052602260045260246000fd5b600060028204905060018216806104c157607f821691505b6020821081036104d4576104d361047a565b5b50919050565b60008190508160005260206000209050919050565b60006020601f8301049050919050565b600082821b905092915050565b60006008830261053c7fffffffffffffffffffffffffffffffffffffffffffffffffffffffffffffffff826104ff565b61054686836104ff565b95508019841693508086168417925050509392505050565b6000819050919050565b6000819050919050565b600061058d6105886105838461055e565b610568565b61055e565b9050919050565b6000819050919050565b6105a783610572565b6105bb6105b382610594565b84845461050c565b825550505050565b600090565b6105d06105c3565b6105db81848461059e565b505050565b5b818110156105ff576105f46000826105c8565b6001810190506105e1565b5050565b601f82111561064457610615816104da565b61061e846104ef565b8101602085101561062d578190505b610641610639856104ef565b8301826105e0565b50505b505050565b600082821c905092915050565b600061066760001984600802610649565b1980831691505092915050565b60006106808383610656565b9150826002028217905092915050565b61069982610347565b67ffffffffffffffff8111156106b2576106b16101d3565b5b6106bc82546104a9565b6106c7828285610603565b600060209050601f8311600181146106fa57600084156106e8578287015190505b6106f28582610674565b86555061075a565b601f198416610708866104da565b60005b828110156107305784890151825560018201915060208501945060208101905061070b565b8683101561074d5784890151610749601f891682610656565b8355505b6001600288020188555050505b50505050505056fea264697066735822122069eb698c16f2ee555c1958e60f7e9e3bb3e961e8698c6b9111a98972b8abf6f664736f6c63430008120033",
			"opcodes": "PUSH1 0x80 PUSH1 0x40 MSTORE PUSH1 0x40 MLOAD DUP1 PUSH1 0x40 ADD PUSH1 0x40 MSTORE DUP1 PUSH1 0xD DUP2 MSTORE PUSH1 0x20 ADD PUSH32 0x6A657375732070726F6A65637400000000000000000000000000000000000000 DUP2 MSTORE POP PUSH1 0x1 SWAP1 DUP2 PUSH3 0x4A SWAP2 SWAP1 PUSH3 0x319 JUMP JUMPDEST POP CALLVALUE DUP1 ISZERO PUSH3 0x58 JUMPI PUSH1 0x0 DUP1 REVERT JUMPDEST POP CALLER PUSH1 0x0 DUP1 PUSH2 0x100 EXP DUP2 SLOAD DUP2 PUSH20 0xFFFFFFFFFFFFFFFFFFFFFFFFFFFFFFFFFFFFFFFF MUL NOT AND SWAP1 DUP4 PUSH20 0xFFFFFFFFFFFFFFFFFFFFFFFFFFFFFFFFFFFFFFFF AND MUL OR SWAP1 SSTORE POP PUSH3 0x400 JUMP JUMPDEST PUSH1 0x0 DUP2 MLOAD SWAP1 POP SWAP2 SWAP1 POP JUMP JUMPDEST PUSH32 0x4E487B7100000000000000000000000000000000000000000000000000000000 PUSH1 0x0 MSTORE PUSH1 0x41 PUSH1 0x4 MSTORE PUSH1 0x24 PUSH1 0x0 REVERT JUMPDEST PUSH32 0x4E487B7100000000000000000000000000000000000000000000000000000000 PUSH1 0x0 MSTORE PUSH1 0x22 PUSH1 0x4 MSTORE PUSH1 0x24 PUSH1 0x0 REVERT JUMPDEST PUSH1 0x0 PUSH1 0x2 DUP3 DIV SWAP1 POP PUSH1 0x1 DUP3 AND DUP1 PUSH3 0x121 JUMPI PUSH1 0x7F DUP3 AND SWAP2 POP JUMPDEST PUSH1 0x20 DUP3 LT DUP2 SUB PUSH3 0x137 JUMPI PUSH3 0x136 PUSH3 0xD9 JUMP JUMPDEST JUMPDEST POP SWAP2 SWAP1 POP JUMP JUMPDEST PUSH1 0x0 DUP2 SWAP1 POP DUP2 PUSH1 0x0 MSTORE PUSH1 0x20 PUSH1 0x0 KECCAK256 SWAP1 POP SWAP2 SWAP1 POP JUMP JUMPDEST PUSH1 0x0 PUSH1 0x20 PUSH1 0x1F DUP4 ADD DIV SWAP1 POP SWAP2 SWAP1 POP JUMP JUMPDEST PUSH1 0x0 DUP3 DUP3 SHL SWAP1 POP SWAP3 SWAP2 POP POP JUMP JUMPDEST PUSH1 0x0 PUSH1 0x8 DUP4 MUL PUSH3 0x1A1 PUSH32 0xFFFFFFFFFFFFFFFFFFFFFFFFFFFFFFFFFFFFFFFFFFFFFFFFFFFFFFFFFFFFFFFF DUP3 PUSH3 0x162 JUMP JUMPDEST PUSH3 0x1AD DUP7 DUP4 PUSH3 0x162 JUMP JUMPDEST SWAP6 POP DUP1 NOT DUP5 AND SWAP4 POP DUP1 DUP7 AND DUP5 OR SWAP3 POP POP POP SWAP4 SWAP3 POP POP POP JUMP JUMPDEST PUSH1 0x0 DUP2 SWAP1 POP SWAP2 SWAP1 POP JUMP JUMPDEST PUSH1 0x0 DUP2 SWAP1 POP SWAP2 SWAP1 POP JUMP JUMPDEST PUSH1 0x0 PUSH3 0x1FA PUSH3 0x1F4 PUSH3 0x1EE DUP5 PUSH3 0x1C5 JUMP JUMPDEST PUSH3 0x1CF JUMP JUMPDEST PUSH3 0x1C5 JUMP JUMPDEST SWAP1 POP SWAP2 SWAP1 POP JUMP JUMPDEST PUSH1 0x0 DUP2 SWAP1 POP SWAP2 SWAP1 POP JUMP JUMPDEST PUSH3 0x216 DUP4 PUSH3 0x1D9 JUMP JUMPDEST PUSH3 0x22E PUSH3 0x225 DUP3 PUSH3 0x201 JUMP JUMPDEST DUP5 DUP5 SLOAD PUSH3 0x16F JUMP JUMPDEST DUP3 SSTORE POP POP POP POP JUMP JUMPDEST PUSH1 0x0 SWAP1 JUMP JUMPDEST PUSH3 0x245 PUSH3 0x236 JUMP JUMPDEST PUSH3 0x252 DUP2 DUP5 DUP5 PUSH3 0x20B JUMP JUMPDEST POP POP POP JUMP JUMPDEST JUMPDEST DUP2 DUP2 LT ISZERO PUSH3 0x27A JUMPI PUSH3 0x26E PUSH1 0x0 DUP3 PUSH3 0x23B JUMP JUMPDEST PUSH1 0x1 DUP2 ADD SWAP1 POP PUSH3 0x258 JUMP JUMPDEST POP POP JUMP JUMPDEST PUSH1 0x1F DUP3 GT ISZERO PUSH3 0x2C9 JUMPI PUSH3 0x293 DUP2 PUSH3 0x13D JUMP JUMPDEST PUSH3 0x29E DUP5 PUSH3 0x152 JUMP JUMPDEST DUP2 ADD PUSH1 0x20 DUP6 LT ISZERO PUSH3 0x2AE JUMPI DUP2 SWAP1 POP JUMPDEST PUSH3 0x2C6 PUSH3 0x2BD DUP6 PUSH3 0x152 JUMP JUMPDEST DUP4 ADD DUP3 PUSH3 0x257 JUMP JUMPDEST POP POP JUMPDEST POP POP POP JUMP JUMPDEST PUSH1 0x0 DUP3 DUP3 SHR SWAP1 POP SWAP3 SWAP2 POP POP JUMP JUMPDEST PUSH1 0x0 PUSH3 0x2EE PUSH1 0x0 NOT DUP5 PUSH1 0x8 MUL PUSH3 0x2CE JUMP JUMPDEST NOT DUP1 DUP4 AND SWAP2 POP POP SWAP3 SWAP2 POP POP JUMP JUMPDEST PUSH1 0x0 PUSH3 0x309 DUP4 DUP4 PUSH3 0x2DB JUMP JUMPDEST SWAP2 POP DUP3 PUSH1 0x2 MUL DUP3 OR SWAP1 POP SWAP3 SWAP2 POP POP JUMP JUMPDEST PUSH3 0x324 DUP3 PUSH3 0x9F JUMP JUMPDEST PUSH8 0xFFFFFFFFFFFFFFFF DUP2 GT ISZERO PUSH3 0x340 JUMPI PUSH3 0x33F PUSH3 0xAA JUMP JUMPDEST JUMPDEST PUSH3 0x34C DUP3 SLOAD PUSH3 0x108 JUMP JUMPDEST PUSH3 0x359 DUP3 DUP3 DUP6 PUSH3 0x27E JUMP JUMPDEST PUSH1 0x0 PUSH1 0x20 SWAP1 POP PUSH1 0x1F DUP4 GT PUSH1 0x1 DUP2 EQ PUSH3 0x391 JUMPI PUSH1 0x0 DUP5 ISZERO PUSH3 0x37C JUMPI DUP3 DUP8 ADD MLOAD SWAP1 POP JUMPDEST PUSH3 0x388 DUP6 DUP3 PUSH3 0x2FB JUMP JUMPDEST DUP7 SSTORE POP PUSH3 0x3F8 JUMP JUMPDEST PUSH1 0x1F NOT DUP5 AND PUSH3 0x3A1 DUP7 PUSH3 0x13D JUMP JUMPDEST PUSH1 0x0 JUMPDEST DUP3 DUP2 LT ISZERO PUSH3 0x3CB JUMPI DUP5 DUP10 ADD MLOAD DUP3 SSTORE PUSH1 0x1 DUP3 ADD SWAP2 POP PUSH1 0x20 DUP6 ADD SWAP5 POP PUSH1 0x20 DUP2 ADD SWAP1 POP PUSH3 0x3A4 JUMP JUMPDEST DUP7 DUP4 LT ISZERO PUSH3 0x3EB JUMPI DUP5 DUP10 ADD MLOAD PUSH3 0x3E7 PUSH1 0x1F DUP10 AND DUP3 PUSH3 0x2DB JUMP JUMPDEST DUP4 SSTORE POP JUMPDEST PUSH1 0x1 PUSH1 0x2 DUP9 MUL ADD DUP9 SSTORE POP POP POP JUMPDEST POP POP POP POP POP POP JUMP JUMPDEST PUSH2 0x798 DUP1 PUSH3 0x410 PUSH1 0x0 CODECOPY PUSH1 0x0 RETURN INVALID PUSH1 0x80 PUSH1 0x40 MSTORE CALLVALUE DUP1 ISZERO PUSH2 0x10 JUMPI PUSH1 0x0 DUP1 REVERT JUMPDEST POP PUSH1 0x4 CALLDATASIZE LT PUSH2 0x36 JUMPI PUSH1 0x0 CALLDATALOAD PUSH1 0xE0 SHR DUP1 PUSH4 0x539E366C EQ PUSH2 0x3B JUMPI DUP1 PUSH4 0xDC9C9F33 EQ PUSH2 0x57 JUMPI JUMPDEST PUSH1 0x0 DUP1 REVERT JUMPDEST PUSH2 0x55 PUSH1 0x4 DUP1 CALLDATASIZE SUB DUP2 ADD SWAP1 PUSH2 0x50 SWAP2 SWAP1 PUSH2 0x2FE JUMP JUMPDEST PUSH2 0x75 JUMP JUMPDEST STOP JUMPDEST PUSH2 0x5F PUSH2 0x116 JUMP JUMPDEST PUSH1 0x40 MLOAD PUSH2 0x6C SWAP2 SWAP1 PUSH2 0x3C6 JUMP JUMPDEST PUSH1 0x40 MLOAD DUP1 SWAP2 SUB SWAP1 RETURN JUMPDEST PUSH1 0x0 DUP1 SLOAD SWAP1 PUSH2 0x100 EXP SWAP1 DIV PUSH20 0xFFFFFFFFFFFFFFFFFFFFFFFFFFFFFFFFFFFFFFFF AND PUSH20 0xFFFFFFFFFFFFFFFFFFFFFFFFFFFFFFFFFFFFFFFF AND CALLER PUSH20 0xFFFFFFFFFFFFFFFFFFFFFFFFFFFFFFFFFFFFFFFF AND EQ PUSH2 0x103 JUMPI PUSH1 0x40 MLOAD PUSH32 0x8C379A000000000000000000000000000000000000000000000000000000000 DUP2 MSTORE PUSH1 0x4 ADD PUSH2 0xFA SWAP1 PUSH2 0x45A JUMP JUMPDEST PUSH1 0x40 MLOAD DUP1 SWAP2 SUB SWAP1 REVERT JUMPDEST DUP1 PUSH1 0x1 SWAP1 DUP2 PUSH2 0x112 SWAP2 SWAP1 PUSH2 0x690 JUMP JUMPDEST POP POP JUMP JUMPDEST PUSH1 0x1 DUP1 SLOAD PUSH2 0x123 SWAP1 PUSH2 0x4A9 JUMP JUMPDEST DUP1 PUSH1 0x1F ADD PUSH1 0x20 DUP1 SWAP2 DIV MUL PUSH1 0x20 ADD PUSH1 0x40 MLOAD SWAP1 DUP2 ADD PUSH1 0x40 MSTORE DUP1 SWAP3 SWAP2 SWAP1 DUP2 DUP2 MSTORE PUSH1 0x20 ADD DUP3 DUP1 SLOAD PUSH2 0x14F SWAP1 PUSH2 0x4A9 JUMP JUMPDEST DUP1 ISZERO PUSH2 0x19C JUMPI DUP1 PUSH1 0x1F LT PUSH2 0x171 JUMPI PUSH2 0x100 DUP1 DUP4 SLOAD DIV MUL DUP4 MSTORE SWAP2 PUSH1 0x20 ADD SWAP2 PUSH2 0x19C JUMP JUMPDEST DUP3 ADD SWAP2 SWAP1 PUSH1 0x0 MSTORE PUSH1 0x20 PUSH1 0x0 KECCAK256 SWAP1 JUMPDEST DUP2 SLOAD DUP2 MSTORE SWAP1 PUSH1 0x1 ADD SWAP1 PUSH1 0x20 ADD DUP1 DUP4 GT PUSH2 0x17F JUMPI DUP3 SWAP1 SUB PUSH1 0x1F AND DUP3 ADD SWAP2 JUMPDEST POP POP POP POP POP DUP2 JUMP JUMPDEST PUSH1 0x0 PUSH1 0x40 MLOAD SWAP1 POP SWAP1 JUMP JUMPDEST PUSH1 0x0 DUP1 REVERT JUMPDEST PUSH1 0x0 DUP1 REVERT JUMPDEST PUSH1 0x0 DUP1 REVERT JUMPDEST PUSH1 0x0 DUP1 REVERT JUMPDEST PUSH1 0x0 PUSH1 0x1F NOT PUSH1 0x1F DUP4 ADD AND SWAP1 POP SWAP2 SWAP1 POP JUMP JUMPDEST PUSH32 0x4E487B7100000000000000000000000000000000000000000000000000000000 PUSH1 0x0 MSTORE PUSH1 0x41 PUSH1 0x4 MSTORE PUSH1 0x24 PUSH1 0x0 REVERT JUMPDEST PUSH2 0x20B DUP3 PUSH2 0x1C2 JUMP JUMPDEST DUP2 ADD DUP2 DUP2 LT PUSH8 0xFFFFFFFFFFFFFFFF DUP3 GT OR ISZERO PUSH2 0x22A JUMPI PUSH2 0x229 PUSH2 0x1D3 JUMP JUMPDEST JUMPDEST DUP1 PUSH1 0x40 MSTORE POP POP POP JUMP JUMPDEST PUSH1 0x0 PUSH2 0x23D PUSH2 0x1A4 JUMP JUMPDEST SWAP1 POP PUSH2 0x249 DUP3 DUP3 PUSH2 0x202 JUMP JUMPDEST SWAP2 SWAP1 POP JUMP JUMPDEST PUSH1 0x0 PUSH8 0xFFFFFFFFFFFFFFFF DUP3 GT ISZERO PUSH2 0x269 JUMPI PUSH2 0x268 PUSH2 0x1D3 JUMP JUMPDEST JUMPDEST PUSH2 0x272 DUP3 PUSH2 0x1C2 JUMP JUMPDEST SWAP1 POP PUSH1 0x20 DUP2 ADD SWAP1 POP SWAP2 SWAP1 POP JUMP JUMPDEST DUP3 DUP2 DUP4 CALLDATACOPY PUSH1 0x0 DUP4 DUP4 ADD MSTORE POP POP POP JUMP JUMPDEST PUSH1 0x0 PUSH2 0x2A1 PUSH2 0x29C DUP5 PUSH2 0x24E JUMP JUMPDEST PUSH2 0x233 JUMP JUMPDEST SWAP1 POP DUP3 DUP2 MSTORE PUSH1 0x20 DUP2 ADD DUP5 DUP5 DUP5 ADD GT ISZERO PUSH2 0x2BD JUMPI PUSH2 0x2BC PUSH2 0x1BD JUMP JUMPDEST JUMPDEST PUSH2 0x2C8 DUP5 DUP3 DUP6 PUSH2 0x27F JUMP JUMPDEST POP SWAP4 SWAP3 POP POP POP JUMP JUMPDEST PUSH1 0x0 DUP3 PUSH1 0x1F DUP4 ADD SLT PUSH2 0x2E5 JUMPI PUSH2 0x2E4 PUSH2 0x1B8 JUMP JUMPDEST JUMPDEST DUP2 CALLDATALOAD PUSH2 0x2F5 DUP5 DUP3 PUSH1 0x20 DUP7 ADD PUSH2 0x28E JUMP JUMPDEST SWAP2 POP POP SWAP3 SWAP2 POP POP JUMP JUMPDEST PUSH1 0x0 PUSH1 0x20 DUP3 DUP5 SUB SLT ISZERO PUSH2 0x314 JUMPI PUSH2 0x313 PUSH2 0x1AE JUMP JUMPDEST JUMPDEST PUSH1 0x0 DUP3 ADD CALLDATALOAD PUSH8 0xFFFFFFFFFFFFFFFF DUP2 GT ISZERO PUSH2 0x332 JUMPI PUSH2 0x331 PUSH2 0x1B3 JUMP JUMPDEST JUMPDEST PUSH2 0x33E DUP5 DUP3 DUP6 ADD PUSH2 0x2D0 JUMP JUMPDEST SWAP2 POP POP SWAP3 SWAP2 POP POP JUMP JUMPDEST PUSH1 0x0 DUP2 MLOAD SWAP1 POP SWAP2 SWAP1 POP JUMP JUMPDEST PUSH1 0x0 DUP3 DUP3 MSTORE PUSH1 0x20 DUP3 ADD SWAP1 POP SWAP3 SWAP2 POP POP JUMP JUMPDEST PUSH1 0x0 JUMPDEST DUP4 DUP2 LT ISZERO PUSH2 0x381 JUMPI DUP1 DUP3 ADD MLOAD DUP2 DUP5 ADD MSTORE PUSH1 0x20 DUP2 ADD SWAP1 POP PUSH2 0x366 JUMP JUMPDEST PUSH1 0x0 DUP5 DUP5 ADD MSTORE POP POP POP POP JUMP JUMPDEST PUSH1 0x0 PUSH2 0x398 DUP3 PUSH2 0x347 JUMP JUMPDEST PUSH2 0x3A2 DUP2 DUP6 PUSH2 0x352 JUMP JUMPDEST SWAP4 POP PUSH2 0x3B2 DUP2 DUP6 PUSH1 0x20 DUP7 ADD PUSH2 0x363 JUMP JUMPDEST PUSH2 0x3BB DUP2 PUSH2 0x1C2 JUMP JUMPDEST DUP5 ADD SWAP2 POP POP SWAP3 SWAP2 POP POP JUMP JUMPDEST PUSH1 0x0 PUSH1 0x20 DUP3 ADD SWAP1 POP DUP2 DUP2 SUB PUSH1 0x0 DUP4 ADD MSTORE PUSH2 0x3E0 DUP2 DUP5 PUSH2 0x38D JUMP JUMPDEST SWAP1 POP SWAP3 SWAP2 POP POP JUMP JUMPDEST PUSH32 0x4F6E6C79206D616E6F6C6F2063616E206368616E6765207468652070726F6A65 PUSH1 0x0 DUP3 ADD MSTORE PUSH32 0x6374206E616D6500000000000000000000000000000000000000000000000000 PUSH1 0x20 DUP3 ADD MSTORE POP JUMP JUMPDEST PUSH1 0x0 PUSH2 0x444 PUSH1 0x27 DUP4 PUSH2 0x352 JUMP JUMPDEST SWAP2 POP PUSH2 0x44F DUP3 PUSH2 0x3E8 JUMP JUMPDEST PUSH1 0x40 DUP3 ADD SWAP1 POP SWAP2 SWAP1 POP JUMP JUMPDEST PUSH1 0x0 PUSH1 0x20 DUP3 ADD SWAP1 POP DUP2 DUP2 SUB PUSH1 0x0 DUP4 ADD MSTORE PUSH2 0x473 DUP2 PUSH2 0x437 JUMP JUMPDEST SWAP1 POP SWAP2 SWAP1 POP JUMP JUMPDEST PUSH32 0x4E487B7100000000000000000000000000000000000000000000000000000000 PUSH1 0x0 MSTORE PUSH1 0x22 PUSH1 0x4 MSTORE PUSH1 0x24 PUSH1 0x0 REVERT JUMPDEST PUSH1 0x0 PUSH1 0x2 DUP3 DIV SWAP1 POP PUSH1 0x1 DUP3 AND DUP1 PUSH2 0x4C1 JUMPI PUSH1 0x7F DUP3 AND SWAP2 POP JUMPDEST PUSH1 0x20 DUP3 LT DUP2 SUB PUSH2 0x4D4 JUMPI PUSH2 0x4D3 PUSH2 0x47A JUMP JUMPDEST JUMPDEST POP SWAP2 SWAP1 POP JUMP JUMPDEST PUSH1 0x0 DUP2 SWAP1 POP DUP2 PUSH1 0x0 MSTORE PUSH1 0x20 PUSH1 0x0 KECCAK256 SWAP1 POP SWAP2 SWAP1 POP JUMP JUMPDEST PUSH1 0x0 PUSH1 0x20 PUSH1 0x1F DUP4 ADD DIV SWAP1 POP SWAP2 SWAP1 POP JUMP JUMPDEST PUSH1 0x0 DUP3 DUP3 SHL SWAP1 POP SWAP3 SWAP2 POP POP JUMP JUMPDEST PUSH1 0x0 PUSH1 0x8 DUP4 MUL PUSH2 0x53C PUSH32 0xFFFFFFFFFFFFFFFFFFFFFFFFFFFFFFFFFFFFFFFFFFFFFFFFFFFFFFFFFFFFFFFF DUP3 PUSH2 0x4FF JUMP JUMPDEST PUSH2 0x546 DUP7 DUP4 PUSH2 0x4FF JUMP JUMPDEST SWAP6 POP DUP1 NOT DUP5 AND SWAP4 POP DUP1 DUP7 AND DUP5 OR SWAP3 POP POP POP SWAP4 SWAP3 POP POP POP JUMP JUMPDEST PUSH1 0x0 DUP2 SWAP1 POP SWAP2 SWAP1 POP JUMP JUMPDEST PUSH1 0x0 DUP2 SWAP1 POP SWAP2 SWAP1 POP JUMP JUMPDEST PUSH1 0x0 PUSH2 0x58D PUSH2 0x588 PUSH2 0x583 DUP5 PUSH2 0x55E JUMP JUMPDEST PUSH2 0x568 JUMP JUMPDEST PUSH2 0x55E JUMP JUMPDEST SWAP1 POP SWAP2 SWAP1 POP JUMP JUMPDEST PUSH1 0x0 DUP2 SWAP1 POP SWAP2 SWAP1 POP JUMP JUMPDEST PUSH2 0x5A7 DUP4 PUSH2 0x572 JUMP JUMPDEST PUSH2 0x5BB PUSH2 0x5B3 DUP3 PUSH2 0x594 JUMP JUMPDEST DUP5 DUP5 SLOAD PUSH2 0x50C JUMP JUMPDEST DUP3 SSTORE POP POP POP POP JUMP JUMPDEST PUSH1 0x0 SWAP1 JUMP JUMPDEST PUSH2 0x5D0 PUSH2 0x5C3 JUMP JUMPDEST PUSH2 0x5DB DUP2 DUP5 DUP5 PUSH2 0x59E JUMP JUMPDEST POP POP POP JUMP JUMPDEST JUMPDEST DUP2 DUP2 LT ISZERO PUSH2 0x5FF JUMPI PUSH2 0x5F4 PUSH1 0x0 DUP3 PUSH2 0x5C8 JUMP JUMPDEST PUSH1 0x1 DUP2 ADD SWAP1 POP PUSH2 0x5E1 JUMP JUMPDEST POP POP JUMP JUMPDEST PUSH1 0x1F DUP3 GT ISZERO PUSH2 0x644 JUMPI PUSH2 0x615 DUP2 PUSH2 0x4DA JUMP JUMPDEST PUSH2 0x61E DUP5 PUSH2 0x4EF JUMP JUMPDEST DUP2 ADD PUSH1 0x20 DUP6 LT ISZERO PUSH2 0x62D JUMPI DUP2 SWAP1 POP JUMPDEST PUSH2 0x641 PUSH2 0x639 DUP6 PUSH2 0x4EF JUMP JUMPDEST DUP4 ADD DUP3 PUSH2 0x5E0 JUMP JUMPDEST POP POP JUMPDEST POP POP POP JUMP JUMPDEST PUSH1 0x0 DUP3 DUP3 SHR SWAP1 POP SWAP3 SWAP2 POP POP JUMP JUMPDEST PUSH1 0x0 PUSH2 0x667 PUSH1 0x0 NOT DUP5 PUSH1 0x8 MUL PUSH2 0x649 JUMP JUMPDEST NOT DUP1 DUP4 AND SWAP2 POP POP SWAP3 SWAP2 POP POP JUMP JUMPDEST PUSH1 0x0 PUSH2 0x680 DUP4 DUP4 PUSH2 0x656 JUMP JUMPDEST SWAP2 POP DUP3 PUSH1 0x2 MUL DUP3 OR SWAP1 POP SWAP3 SWAP2 POP POP JUMP JUMPDEST PUSH2 0x699 DUP3 PUSH2 0x347 JUMP JUMPDEST PUSH8 0xFFFFFFFFFFFFFFFF DUP2 GT ISZERO PUSH2 0x6B2 JUMPI PUSH2 0x6B1 PUSH2 0x1D3 JUMP JUMPDEST JUMPDEST PUSH2 0x6BC DUP3 SLOAD PUSH2 0x4A9 JUMP JUMPDEST PUSH2 0x6C7 DUP3 DUP3 DUP6 PUSH2 0x603 JUMP JUMPDEST PUSH1 0x0 PUSH1 0x20 SWAP1 POP PUSH1 0x1F DUP4 GT PUSH1 0x1 DUP2 EQ PUSH2 0x6FA JUMPI PUSH1 0x0 DUP5 ISZERO PUSH2 0x6E8 JUMPI DUP3 DUP8 ADD MLOAD SWAP1 POP JUMPDEST PUSH2 0x6F2 DUP6 DUP3 PUSH2 0x674 JUMP JUMPDEST DUP7 SSTORE POP PUSH2 0x75A JUMP JUMPDEST PUSH1 0x1F NOT DUP5 AND PUSH2 0x708 DUP7 PUSH2 0x4DA JUMP JUMPDEST PUSH1 0x0 JUMPDEST DUP3 DUP2 LT ISZERO PUSH2 0x730 JUMPI DUP5 DUP10 ADD MLOAD DUP3 SSTORE PUSH1 0x1 DUP3 ADD SWAP2 POP PUSH1 0x20 DUP6 ADD SWAP5 POP PUSH1 0x20 DUP2 ADD SWAP1 POP PUSH2 0x70B JUMP JUMPDEST DUP7 DUP4 LT ISZERO PUSH2 0x74D JUMPI DUP5 DUP10 ADD MLOAD PUSH2 0x749 PUSH1 0x1F DUP10 AND DUP3 PUSH2 0x656 JUMP JUMPDEST DUP4 SSTORE POP JUMPDEST PUSH1 0x1 PUSH1 0x2 DUP9 MUL ADD DUP9 SSTORE POP POP POP JUMPDEST POP POP POP POP POP POP JUMP INVALID LOG2 PUSH5 0x6970667358 0x22 SLT KECCAK256 PUSH10 0xEB698C16F2EE555C1958 0xE6 0xF PUSH31 0x9E3BB3E961E8698C6B9111A98972B8ABF6F664736F6C634300081200330000 "
		},
		"gasEstimates": {
			"creation": {
				"codeDepositCost": "388800",
				"executionCost": "infinite",
				"totalCost": "infinite"
			},
			"external": {
				"change_project_name(string)": "infinite",
				"project_name()": "infinite"
			}
		},
		"methodIdentifiers": {
			"change_project_name(string)": "539e366c",
			"project_name()": "dc9c9f33"
		}
	},
	"abi": [
		{
			"inputs": [],
			"stateMutability": "nonpayable",
			"type": "constructor"
		},
		{
			"inputs": [
				{
					"internalType": "string",
					"name": "_project_name",
					"type": "string"
				}
			],
			"name": "change_project_name",
			"outputs": [],
			"stateMutability": "nonpayable",
			"type": "function"
		},
		{
			"inputs": [],
			"name": "project_name",
			"outputs": [
				{
					"internalType": "string",
					"name": "",
					"type": "string"
				}
			],
			"stateMutability": "view",
			"type": "function"
		}
	]
}