{
	"contracts/use-cases/my-privacy/my-privacy.sol": {
		"identity": {
			"abi": [
				{
					"inputs": [
						{
							"internalType": "string",
							"name": "name",
							"type": "string"
						},
						{
							"internalType": "string",
							"name": "email",
							"type": "string"
						},
						{
							"internalType": "uint256",
							"name": "salary",
							"type": "uint256"
						},
						{
							"internalType": "string",
							"name": "_address",
							"type": "string"
						}
					],
					"stateMutability": "nonpayable",
					"type": "constructor"
				},
				{
					"inputs": [
						{
							"internalType": "address",
							"name": "user",
							"type": "address"
						},
						{
							"internalType": "enum identity.user_type",
							"name": "user_type0",
							"type": "uint8"
						}
					],
					"name": "user_un_authorized",
					"type": "error"
				},
				{
					"inputs": [],
					"name": "get_basic_info",
					"outputs": [
						{
							"components": [
								{
									"internalType": "string",
									"name": "name",
									"type": "string"
								},
								{
									"internalType": "string",
									"name": "email",
									"type": "string"
								}
							],
							"internalType": "struct identity.basic_info",
							"name": "",
							"type": "tuple"
						}
					],
					"stateMutability": "view",
					"type": "function"
				},
				{
					"inputs": [],
					"name": "get_personal_infor",
					"outputs": [
						{
							"components": [
								{
									"internalType": "uint256",
									"name": "salary",
									"type": "uint256"
								},
								{
									"internalType": "string",
									"name": "_address",
									"type": "string"
								}
							],
							"internalType": "struct identity.personal_info",
							"name": "",
							"type": "tuple"
						}
					],
					"stateMutability": "view",
					"type": "function"
				},
				{
					"inputs": [
						{
							"internalType": "enum identity.user_type",
							"name": "user_type0",
							"type": "uint8"
						},
						{
							"internalType": "address",
							"name": "user",
							"type": "address"
						}
					],
					"name": "register_user",
					"outputs": [],
					"stateMutability": "nonpayable",
					"type": "function"
				}
			],
			"devdoc": {
				"kind": "dev",
				"methods": {},
				"version": 1
			},
			"evm": {
				"assembly": "    /* \"contracts/use-cases/my-privacy/my-privacy.sol\":70:1828  contract identity {... */\n  mstore(0x40, 0x80)\n    /* \"contracts/use-cases/my-privacy/my-privacy.sol\":589:822  constructor(string memory name, string memory email, uint256 salary, string memory _address){... */\n  callvalue\n  dup1\n  iszero\n  tag_1\n  jumpi\n  0x00\n  dup1\n  revert\ntag_1:\n  pop\n  mload(0x40)\n  sub(codesize, bytecodeSize)\n  dup1\n  bytecodeSize\n  dup4\n  codecopy\n  dup2\n  dup2\n  add\n  0x40\n  mstore\n  dup2\n  add\n  swap1\n  tag_2\n  swap2\n  swap1\n  tag_3\n  jump\t// in\ntag_2:\n    /* \"contracts/use-cases/my-privacy/my-privacy.sol\":705:728  basic_info(name, email) */\n  mload(0x40)\n  dup1\n  0x40\n  add\n  0x40\n  mstore\n  dup1\n    /* \"contracts/use-cases/my-privacy/my-privacy.sol\":716:720  name */\n  dup6\n    /* \"contracts/use-cases/my-privacy/my-privacy.sol\":705:728  basic_info(name, email) */\n  dup2\n  mstore\n  0x20\n  add\n    /* \"contracts/use-cases/my-privacy/my-privacy.sol\":722:727  email */\n  dup5\n    /* \"contracts/use-cases/my-privacy/my-privacy.sol\":705:728  basic_info(name, email) */\n  dup2\n  mstore\n  pop\n    /* \"contracts/use-cases/my-privacy/my-privacy.sol\":691:702  basic_info0 */\n  0x00\n    /* \"contracts/use-cases/my-privacy/my-privacy.sol\":691:728  basic_info0 = basic_info(name, email) */\n  dup1\n  dup3\n  add\n  mload\n  dup2\n  0x00\n  add\n  swap1\n  dup2\n  tag_6\n  swap2\n  swap1\n  tag_7\n  jump\t// in\ntag_6:\n  pop\n  0x20\n  dup3\n  add\n  mload\n  dup2\n  0x01\n  add\n  swap1\n  dup2\n  tag_8\n  swap2\n  swap1\n  tag_7\n  jump\t// in\ntag_8:\n  pop\n  swap1\n  pop\n  pop\n    /* \"contracts/use-cases/my-privacy/my-privacy.sol\":755:786  personal_info(salary, _address) */\n  mload(0x40)\n  dup1\n  0x40\n  add\n  0x40\n  mstore\n  dup1\n    /* \"contracts/use-cases/my-privacy/my-privacy.sol\":769:775  salary */\n  dup4\n    /* \"contracts/use-cases/my-privacy/my-privacy.sol\":755:786  personal_info(salary, _address) */\n  dup2\n  mstore\n  0x20\n  add\n    /* \"contracts/use-cases/my-privacy/my-privacy.sol\":777:785  _address */\n  dup3\n    /* \"contracts/use-cases/my-privacy/my-privacy.sol\":755:786  personal_info(salary, _address) */\n  dup2\n  mstore\n  pop\n    /* \"contracts/use-cases/my-privacy/my-privacy.sol\":738:752  personal_info0 */\n  0x02\n    /* \"contracts/use-cases/my-privacy/my-privacy.sol\":738:786  personal_info0 = personal_info(salary, _address) */\n  0x00\n  dup3\n  add\n  mload\n  dup2\n  0x00\n  add\n  sstore\n  0x20\n  dup3\n  add\n  mload\n  dup2\n  0x01\n  add\n  swap1\n  dup2\n  tag_9\n  swap2\n  swap1\n  tag_7\n  jump\t// in\ntag_9:\n  pop\n  swap1\n  pop\n  pop\n    /* \"contracts/use-cases/my-privacy/my-privacy.sol\":805:815  msg.sender */\n  caller\n    /* \"contracts/use-cases/my-privacy/my-privacy.sol\":797:802  owner */\n  0x04\n  0x00\n    /* \"contracts/use-cases/my-privacy/my-privacy.sol\":797:815  owner = msg.sender */\n  0x0100\n  exp\n  dup2\n  sload\n  dup2\n  0xffffffffffffffffffffffffffffffffffffffff\n  mul\n  not\n  and\n  swap1\n  dup4\n  0xffffffffffffffffffffffffffffffffffffffff\n  and\n  mul\n  or\n  swap1\n  sstore\n  pop\n    /* \"contracts/use-cases/my-privacy/my-privacy.sol\":589:822  constructor(string memory name, string memory email, uint256 salary, string memory _address){... */\n  pop\n  pop\n  pop\n  pop\n    /* \"contracts/use-cases/my-privacy/my-privacy.sol\":70:1828  contract identity {... */\n  jump(tag_10)\n    /* \"#utility.yul\":7:82   */\ntag_11:\n    /* \"#utility.yul\":40:46   */\n  0x00\n    /* \"#utility.yul\":73:75   */\n  0x40\n    /* \"#utility.yul\":67:76   */\n  mload\n    /* \"#utility.yul\":57:76   */\n  swap1\n  pop\n    /* \"#utility.yul\":7:82   */\n  swap1\n  jump\t// out\n    /* \"#utility.yul\":88:205   */\ntag_12:\n    /* \"#utility.yul\":197:198   */\n  0x00\n    /* \"#utility.yul\":194:195   */\n  dup1\n    /* \"#utility.yul\":187:199   */\n  revert\n    /* \"#utility.yul\":211:328   */\ntag_13:\n    /* \"#utility.yul\":320:321   */\n  0x00\n    /* \"#utility.yul\":317:318   */\n  dup1\n    /* \"#utility.yul\":310:322   */\n  revert\n    /* \"#utility.yul\":334:451   */\ntag_14:\n    /* \"#utility.yul\":443:444   */\n  0x00\n    /* \"#utility.yul\":440:441   */\n  dup1\n    /* \"#utility.yul\":433:445   */\n  revert\n    /* \"#utility.yul\":457:574   */\ntag_15:\n    /* \"#utility.yul\":566:567   */\n  0x00\n    /* \"#utility.yul\":563:564   */\n  dup1\n    /* \"#utility.yul\":556:568   */\n  revert\n    /* \"#utility.yul\":580:682   */\ntag_16:\n    /* \"#utility.yul\":621:627   */\n  0x00\n    /* \"#utility.yul\":672:674   */\n  0x1f\n    /* \"#utility.yul\":668:675   */\n  not\n    /* \"#utility.yul\":663:665   */\n  0x1f\n    /* \"#utility.yul\":656:661   */\n  dup4\n    /* \"#utility.yul\":652:666   */\n  add\n    /* \"#utility.yul\":648:676   */\n  and\n    /* \"#utility.yul\":638:676   */\n  swap1\n  pop\n    /* \"#utility.yul\":580:682   */\n  swap2\n  swap1\n  pop\n  jump\t// out\n    /* \"#utility.yul\":688:868   */\ntag_17:\n    /* \"#utility.yul\":736:813   */\n  0x4e487b7100000000000000000000000000000000000000000000000000000000\n    /* \"#utility.yul\":733:734   */\n  0x00\n    /* \"#utility.yul\":726:814   */\n  mstore\n    /* \"#utility.yul\":833:837   */\n  0x41\n    /* \"#utility.yul\":830:831   */\n  0x04\n    /* \"#utility.yul\":823:838   */\n  mstore\n    /* \"#utility.yul\":857:861   */\n  0x24\n    /* \"#utility.yul\":854:855   */\n  0x00\n    /* \"#utility.yul\":847:862   */\n  revert\n    /* \"#utility.yul\":874:1155   */\ntag_18:\n    /* \"#utility.yul\":957:984   */\n  tag_54\n    /* \"#utility.yul\":979:983   */\n  dup3\n    /* \"#utility.yul\":957:984   */\n  tag_16\n  jump\t// in\ntag_54:\n    /* \"#utility.yul\":949:955   */\n  dup2\n    /* \"#utility.yul\":945:985   */\n  add\n    /* \"#utility.yul\":1087:1093   */\n  dup2\n    /* \"#utility.yul\":1075:1085   */\n  dup2\n    /* \"#utility.yul\":1072:1094   */\n  lt\n    /* \"#utility.yul\":1051:1069   */\n  0xffffffffffffffff\n    /* \"#utility.yul\":1039:1049   */\n  dup3\n    /* \"#utility.yul\":1036:1070   */\n  gt\n    /* \"#utility.yul\":1033:1095   */\n  or\n    /* \"#utility.yul\":1030:1118   */\n  iszero\n  tag_55\n  jumpi\n    /* \"#utility.yul\":1098:1116   */\n  tag_56\n  tag_17\n  jump\t// in\ntag_56:\n    /* \"#utility.yul\":1030:1118   */\ntag_55:\n    /* \"#utility.yul\":1138:1148   */\n  dup1\n    /* \"#utility.yul\":1134:1136   */\n  0x40\n    /* \"#utility.yul\":1127:1149   */\n  mstore\n    /* \"#utility.yul\":917:1155   */\n  pop\n    /* \"#utility.yul\":874:1155   */\n  pop\n  pop\n  jump\t// out\n    /* \"#utility.yul\":1161:1290   */\ntag_19:\n    /* \"#utility.yul\":1195:1201   */\n  0x00\n    /* \"#utility.yul\":1222:1242   */\n  tag_58\n  tag_11\n  jump\t// in\ntag_58:\n    /* \"#utility.yul\":1212:1242   */\n  swap1\n  pop\n    /* \"#utility.yul\":1251:1284   */\n  tag_59\n    /* \"#utility.yul\":1279:1283   */\n  dup3\n    /* \"#utility.yul\":1271:1277   */\n  dup3\n    /* \"#utility.yul\":1251:1284   */\n  tag_18\n  jump\t// in\ntag_59:\n    /* \"#utility.yul\":1161:1290   */\n  swap2\n  swap1\n  pop\n  jump\t// out\n    /* \"#utility.yul\":1296:1604   */\ntag_20:\n    /* \"#utility.yul\":1358:1362   */\n  0x00\n    /* \"#utility.yul\":1448:1466   */\n  0xffffffffffffffff\n    /* \"#utility.yul\":1440:1446   */\n  dup3\n    /* \"#utility.yul\":1437:1467   */\n  gt\n    /* \"#utility.yul\":1434:1490   */\n  iszero\n  tag_61\n  jumpi\n    /* \"#utility.yul\":1470:1488   */\n  tag_62\n  tag_17\n  jump\t// in\ntag_62:\n    /* \"#utility.yul\":1434:1490   */\ntag_61:\n    /* \"#utility.yul\":1508:1537   */\n  tag_63\n    /* \"#utility.yul\":1530:1536   */\n  dup3\n    /* \"#utility.yul\":1508:1537   */\n  tag_16\n  jump\t// in\ntag_63:\n    /* \"#utility.yul\":1500:1537   */\n  swap1\n  pop\n    /* \"#utility.yul\":1592:1596   */\n  0x20\n    /* \"#utility.yul\":1586:1590   */\n  dup2\n    /* \"#utility.yul\":1582:1597   */\n  add\n    /* \"#utility.yul\":1574:1597   */\n  swap1\n  pop\n    /* \"#utility.yul\":1296:1604   */\n  swap2\n  swap1\n  pop\n  jump\t// out\n    /* \"#utility.yul\":1610:1856   */\ntag_21:\n    /* \"#utility.yul\":1691:1692   */\n  0x00\n    /* \"#utility.yul\":1701:1814   */\ntag_65:\n    /* \"#utility.yul\":1715:1721   */\n  dup4\n    /* \"#utility.yul\":1712:1713   */\n  dup2\n    /* \"#utility.yul\":1709:1722   */\n  lt\n    /* \"#utility.yul\":1701:1814   */\n  iszero\n  tag_67\n  jumpi\n    /* \"#utility.yul\":1800:1801   */\n  dup1\n    /* \"#utility.yul\":1795:1798   */\n  dup3\n    /* \"#utility.yul\":1791:1802   */\n  add\n    /* \"#utility.yul\":1785:1803   */\n  mload\n    /* \"#utility.yul\":1781:1782   */\n  dup2\n    /* \"#utility.yul\":1776:1779   */\n  dup5\n    /* \"#utility.yul\":1772:1783   */\n  add\n    /* \"#utility.yul\":1765:1804   */\n  mstore\n    /* \"#utility.yul\":1737:1739   */\n  0x20\n    /* \"#utility.yul\":1734:1735   */\n  dup2\n    /* \"#utility.yul\":1730:1740   */\n  add\n    /* \"#utility.yul\":1725:1740   */\n  swap1\n  pop\n    /* \"#utility.yul\":1701:1814   */\n  jump(tag_65)\ntag_67:\n    /* \"#utility.yul\":1848:1849   */\n  0x00\n    /* \"#utility.yul\":1839:1845   */\n  dup5\n    /* \"#utility.yul\":1834:1837   */\n  dup5\n    /* \"#utility.yul\":1830:1846   */\n  add\n    /* \"#utility.yul\":1823:1850   */\n  mstore\n    /* \"#utility.yul\":1672:1856   */\n  pop\n    /* \"#utility.yul\":1610:1856   */\n  pop\n  pop\n  pop\n  jump\t// out\n    /* \"#utility.yul\":1862:2296   */\ntag_22:\n    /* \"#utility.yul\":1951:1956   */\n  0x00\n    /* \"#utility.yul\":1976:2042   */\n  tag_69\n    /* \"#utility.yul\":1992:2041   */\n  tag_70\n    /* \"#utility.yul\":2034:2040   */\n  dup5\n    /* \"#utility.yul\":1992:2041   */\n  tag_20\n  jump\t// in\ntag_70:\n    /* \"#utility.yul\":1976:2042   */\n  tag_19\n  jump\t// in\ntag_69:\n    /* \"#utility.yul\":1967:2042   */\n  swap1\n  pop\n    /* \"#utility.yul\":2065:2071   */\n  dup3\n    /* \"#utility.yul\":2058:2063   */\n  dup2\n    /* \"#utility.yul\":2051:2072   */\n  mstore\n    /* \"#utility.yul\":2103:2107   */\n  0x20\n    /* \"#utility.yul\":2096:2101   */\n  dup2\n    /* \"#utility.yul\":2092:2108   */\n  add\n    /* \"#utility.yul\":2141:2144   */\n  dup5\n    /* \"#utility.yul\":2132:2138   */\n  dup5\n    /* \"#utility.yul\":2127:2130   */\n  dup5\n    /* \"#utility.yul\":2123:2139   */\n  add\n    /* \"#utility.yul\":2120:2145   */\n  gt\n    /* \"#utility.yul\":2117:2229   */\n  iszero\n  tag_71\n  jumpi\n    /* \"#utility.yul\":2148:2227   */\n  tag_72\n  tag_15\n  jump\t// in\ntag_72:\n    /* \"#utility.yul\":2117:2229   */\ntag_71:\n    /* \"#utility.yul\":2238:2290   */\n  tag_73\n    /* \"#utility.yul\":2283:2289   */\n  dup5\n    /* \"#utility.yul\":2278:2281   */\n  dup3\n    /* \"#utility.yul\":2273:2276   */\n  dup6\n    /* \"#utility.yul\":2238:2290   */\n  tag_21\n  jump\t// in\ntag_73:\n    /* \"#utility.yul\":1957:2296   */\n  pop\n    /* \"#utility.yul\":1862:2296   */\n  swap4\n  swap3\n  pop\n  pop\n  pop\n  jump\t// out\n    /* \"#utility.yul\":2316:2671   */\ntag_23:\n    /* \"#utility.yul\":2383:2388   */\n  0x00\n    /* \"#utility.yul\":2432:2435   */\n  dup3\n    /* \"#utility.yul\":2425:2429   */\n  0x1f\n    /* \"#utility.yul\":2417:2423   */\n  dup4\n    /* \"#utility.yul\":2413:2430   */\n  add\n    /* \"#utility.yul\":2409:2436   */\n  slt\n    /* \"#utility.yul\":2399:2521   */\n  tag_75\n  jumpi\n    /* \"#utility.yul\":2440:2519   */\n  tag_76\n  tag_14\n  jump\t// in\ntag_76:\n    /* \"#utility.yul\":2399:2521   */\ntag_75:\n    /* \"#utility.yul\":2550:2556   */\n  dup2\n    /* \"#utility.yul\":2544:2557   */\n  mload\n    /* \"#utility.yul\":2575:2665   */\n  tag_77\n    /* \"#utility.yul\":2661:2664   */\n  dup5\n    /* \"#utility.yul\":2653:2659   */\n  dup3\n    /* \"#utility.yul\":2646:2650   */\n  0x20\n    /* \"#utility.yul\":2638:2644   */\n  dup7\n    /* \"#utility.yul\":2634:2651   */\n  add\n    /* \"#utility.yul\":2575:2665   */\n  tag_22\n  jump\t// in\ntag_77:\n    /* \"#utility.yul\":2566:2665   */\n  swap2\n  pop\n    /* \"#utility.yul\":2389:2671   */\n  pop\n    /* \"#utility.yul\":2316:2671   */\n  swap3\n  swap2\n  pop\n  pop\n  jump\t// out\n    /* \"#utility.yul\":2677:2754   */\ntag_24:\n    /* \"#utility.yul\":2714:2721   */\n  0x00\n    /* \"#utility.yul\":2743:2748   */\n  dup2\n    /* \"#utility.yul\":2732:2748   */\n  swap1\n  pop\n    /* \"#utility.yul\":2677:2754   */\n  swap2\n  swap1\n  pop\n  jump\t// out\n    /* \"#utility.yul\":2760:2882   */\ntag_25:\n    /* \"#utility.yul\":2833:2857   */\n  tag_80\n    /* \"#utility.yul\":2851:2856   */\n  dup2\n    /* \"#utility.yul\":2833:2857   */\n  tag_24\n  jump\t// in\ntag_80:\n    /* \"#utility.yul\":2826:2831   */\n  dup2\n    /* \"#utility.yul\":2823:2858   */\n  eq\n    /* \"#utility.yul\":2813:2876   */\n  tag_81\n  jumpi\n    /* \"#utility.yul\":2872:2873   */\n  0x00\n    /* \"#utility.yul\":2869:2870   */\n  dup1\n    /* \"#utility.yul\":2862:2874   */\n  revert\n    /* \"#utility.yul\":2813:2876   */\ntag_81:\n    /* \"#utility.yul\":2760:2882   */\n  pop\n  jump\t// out\n    /* \"#utility.yul\":2888:3031   */\ntag_26:\n    /* \"#utility.yul\":2945:2950   */\n  0x00\n    /* \"#utility.yul\":2976:2982   */\n  dup2\n    /* \"#utility.yul\":2970:2983   */\n  mload\n    /* \"#utility.yul\":2961:2983   */\n  swap1\n  pop\n    /* \"#utility.yul\":2992:3025   */\n  tag_83\n    /* \"#utility.yul\":3019:3024   */\n  dup2\n    /* \"#utility.yul\":2992:3025   */\n  tag_25\n  jump\t// in\ntag_83:\n    /* \"#utility.yul\":2888:3031   */\n  swap3\n  swap2\n  pop\n  pop\n  jump\t// out\n    /* \"#utility.yul\":3037:4376   */\ntag_3:\n    /* \"#utility.yul\":3164:3170   */\n  0x00\n    /* \"#utility.yul\":3172:3178   */\n  dup1\n    /* \"#utility.yul\":3180:3186   */\n  0x00\n    /* \"#utility.yul\":3188:3194   */\n  dup1\n    /* \"#utility.yul\":3237:3240   */\n  0x80\n    /* \"#utility.yul\":3225:3234   */\n  dup6\n    /* \"#utility.yul\":3216:3223   */\n  dup8\n    /* \"#utility.yul\":3212:3235   */\n  sub\n    /* \"#utility.yul\":3208:3241   */\n  slt\n    /* \"#utility.yul\":3205:3325   */\n  iszero\n  tag_85\n  jumpi\n    /* \"#utility.yul\":3244:3323   */\n  tag_86\n  tag_12\n  jump\t// in\ntag_86:\n    /* \"#utility.yul\":3205:3325   */\ntag_85:\n    /* \"#utility.yul\":3385:3386   */\n  0x00\n    /* \"#utility.yul\":3374:3383   */\n  dup6\n    /* \"#utility.yul\":3370:3387   */\n  add\n    /* \"#utility.yul\":3364:3388   */\n  mload\n    /* \"#utility.yul\":3415:3433   */\n  0xffffffffffffffff\n    /* \"#utility.yul\":3407:3413   */\n  dup2\n    /* \"#utility.yul\":3404:3434   */\n  gt\n    /* \"#utility.yul\":3401:3518   */\n  iszero\n  tag_87\n  jumpi\n    /* \"#utility.yul\":3437:3516   */\n  tag_88\n  tag_13\n  jump\t// in\ntag_88:\n    /* \"#utility.yul\":3401:3518   */\ntag_87:\n    /* \"#utility.yul\":3542:3616   */\n  tag_89\n    /* \"#utility.yul\":3608:3615   */\n  dup8\n    /* \"#utility.yul\":3599:3605   */\n  dup3\n    /* \"#utility.yul\":3588:3597   */\n  dup9\n    /* \"#utility.yul\":3584:3606   */\n  add\n    /* \"#utility.yul\":3542:3616   */\n  tag_23\n  jump\t// in\ntag_89:\n    /* \"#utility.yul\":3532:3616   */\n  swap5\n  pop\n    /* \"#utility.yul\":3335:3626   */\n  pop\n    /* \"#utility.yul\":3686:3688   */\n  0x20\n    /* \"#utility.yul\":3675:3684   */\n  dup6\n    /* \"#utility.yul\":3671:3689   */\n  add\n    /* \"#utility.yul\":3665:3690   */\n  mload\n    /* \"#utility.yul\":3717:3735   */\n  0xffffffffffffffff\n    /* \"#utility.yul\":3709:3715   */\n  dup2\n    /* \"#utility.yul\":3706:3736   */\n  gt\n    /* \"#utility.yul\":3703:3820   */\n  iszero\n  tag_90\n  jumpi\n    /* \"#utility.yul\":3739:3818   */\n  tag_91\n  tag_13\n  jump\t// in\ntag_91:\n    /* \"#utility.yul\":3703:3820   */\ntag_90:\n    /* \"#utility.yul\":3844:3918   */\n  tag_92\n    /* \"#utility.yul\":3910:3917   */\n  dup8\n    /* \"#utility.yul\":3901:3907   */\n  dup3\n    /* \"#utility.yul\":3890:3899   */\n  dup9\n    /* \"#utility.yul\":3886:3908   */\n  add\n    /* \"#utility.yul\":3844:3918   */\n  tag_23\n  jump\t// in\ntag_92:\n    /* \"#utility.yul\":3834:3918   */\n  swap4\n  pop\n    /* \"#utility.yul\":3636:3928   */\n  pop\n    /* \"#utility.yul\":3967:3969   */\n  0x40\n    /* \"#utility.yul\":3993:4057   */\n  tag_93\n    /* \"#utility.yul\":4049:4056   */\n  dup8\n    /* \"#utility.yul\":4040:4046   */\n  dup3\n    /* \"#utility.yul\":4029:4038   */\n  dup9\n    /* \"#utility.yul\":4025:4047   */\n  add\n    /* \"#utility.yul\":3993:4057   */\n  tag_26\n  jump\t// in\ntag_93:\n    /* \"#utility.yul\":3983:4057   */\n  swap3\n  pop\n    /* \"#utility.yul\":3938:4067   */\n  pop\n    /* \"#utility.yul\":4127:4129   */\n  0x60\n    /* \"#utility.yul\":4116:4125   */\n  dup6\n    /* \"#utility.yul\":4112:4130   */\n  add\n    /* \"#utility.yul\":4106:4131   */\n  mload\n    /* \"#utility.yul\":4158:4176   */\n  0xffffffffffffffff\n    /* \"#utility.yul\":4150:4156   */\n  dup2\n    /* \"#utility.yul\":4147:4177   */\n  gt\n    /* \"#utility.yul\":4144:4261   */\n  iszero\n  tag_94\n  jumpi\n    /* \"#utility.yul\":4180:4259   */\n  tag_95\n  tag_13\n  jump\t// in\ntag_95:\n    /* \"#utility.yul\":4144:4261   */\ntag_94:\n    /* \"#utility.yul\":4285:4359   */\n  tag_96\n    /* \"#utility.yul\":4351:4358   */\n  dup8\n    /* \"#utility.yul\":4342:4348   */\n  dup3\n    /* \"#utility.yul\":4331:4340   */\n  dup9\n    /* \"#utility.yul\":4327:4349   */\n  add\n    /* \"#utility.yul\":4285:4359   */\n  tag_23\n  jump\t// in\ntag_96:\n    /* \"#utility.yul\":4275:4359   */\n  swap2\n  pop\n    /* \"#utility.yul\":4077:4369   */\n  pop\n    /* \"#utility.yul\":3037:4376   */\n  swap3\n  swap6\n  swap2\n  swap5\n  pop\n  swap3\n  pop\n  jump\t// out\n    /* \"#utility.yul\":4382:4481   */\ntag_27:\n    /* \"#utility.yul\":4434:4440   */\n  0x00\n    /* \"#utility.yul\":4468:4473   */\n  dup2\n    /* \"#utility.yul\":4462:4474   */\n  mload\n    /* \"#utility.yul\":4452:4474   */\n  swap1\n  pop\n    /* \"#utility.yul\":4382:4481   */\n  swap2\n  swap1\n  pop\n  jump\t// out\n    /* \"#utility.yul\":4487:4667   */\ntag_28:\n    /* \"#utility.yul\":4535:4612   */\n  0x4e487b7100000000000000000000000000000000000000000000000000000000\n    /* \"#utility.yul\":4532:4533   */\n  0x00\n    /* \"#utility.yul\":4525:4613   */\n  mstore\n    /* \"#utility.yul\":4632:4636   */\n  0x22\n    /* \"#utility.yul\":4629:4630   */\n  0x04\n    /* \"#utility.yul\":4622:4637   */\n  mstore\n    /* \"#utility.yul\":4656:4660   */\n  0x24\n    /* \"#utility.yul\":4653:4654   */\n  0x00\n    /* \"#utility.yul\":4646:4661   */\n  revert\n    /* \"#utility.yul\":4673:4993   */\ntag_29:\n    /* \"#utility.yul\":4717:4723   */\n  0x00\n    /* \"#utility.yul\":4754:4755   */\n  0x02\n    /* \"#utility.yul\":4748:4752   */\n  dup3\n    /* \"#utility.yul\":4744:4756   */\n  div\n    /* \"#utility.yul\":4734:4756   */\n  swap1\n  pop\n    /* \"#utility.yul\":4801:4802   */\n  0x01\n    /* \"#utility.yul\":4795:4799   */\n  dup3\n    /* \"#utility.yul\":4791:4803   */\n  and\n    /* \"#utility.yul\":4822:4840   */\n  dup1\n    /* \"#utility.yul\":4812:4893   */\n  tag_100\n  jumpi\n    /* \"#utility.yul\":4878:4882   */\n  0x7f\n    /* \"#utility.yul\":4870:4876   */\n  dup3\n    /* \"#utility.yul\":4866:4883   */\n  and\n    /* \"#utility.yul\":4856:4883   */\n  swap2\n  pop\n    /* \"#utility.yul\":4812:4893   */\ntag_100:\n    /* \"#utility.yul\":4940:4942   */\n  0x20\n    /* \"#utility.yul\":4932:4938   */\n  dup3\n    /* \"#utility.yul\":4929:4943   */\n  lt\n    /* \"#utility.yul\":4909:4927   */\n  dup2\n    /* \"#utility.yul\":4906:4944   */\n  sub\n    /* \"#utility.yul\":4903:4987   */\n  tag_101\n  jumpi\n    /* \"#utility.yul\":4959:4977   */\n  tag_102\n  tag_28\n  jump\t// in\ntag_102:\n    /* \"#utility.yul\":4903:4987   */\ntag_101:\n    /* \"#utility.yul\":4724:4993   */\n  pop\n    /* \"#utility.yul\":4673:4993   */\n  swap2\n  swap1\n  pop\n  jump\t// out\n    /* \"#utility.yul\":4999:5140   */\ntag_30:\n    /* \"#utility.yul\":5048:5052   */\n  0x00\n    /* \"#utility.yul\":5071:5074   */\n  dup2\n    /* \"#utility.yul\":5063:5074   */\n  swap1\n  pop\n    /* \"#utility.yul\":5094:5097   */\n  dup2\n    /* \"#utility.yul\":5091:5092   */\n  0x00\n    /* \"#utility.yul\":5084:5098   */\n  mstore\n    /* \"#utility.yul\":5128:5132   */\n  0x20\n    /* \"#utility.yul\":5125:5126   */\n  0x00\n    /* \"#utility.yul\":5115:5133   */\n  keccak256\n    /* \"#utility.yul\":5107:5133   */\n  swap1\n  pop\n    /* \"#utility.yul\":4999:5140   */\n  swap2\n  swap1\n  pop\n  jump\t// out\n    /* \"#utility.yul\":5146:5239   */\ntag_31:\n    /* \"#utility.yul\":5183:5189   */\n  0x00\n    /* \"#utility.yul\":5230:5232   */\n  0x20\n    /* \"#utility.yul\":5225:5227   */\n  0x1f\n    /* \"#utility.yul\":5218:5223   */\n  dup4\n    /* \"#utility.yul\":5214:5228   */\n  add\n    /* \"#utility.yul\":5210:5233   */\n  div\n    /* \"#utility.yul\":5200:5233   */\n  swap1\n  pop\n    /* \"#utility.yul\":5146:5239   */\n  swap2\n  swap1\n  pop\n  jump\t// out\n    /* \"#utility.yul\":5245:5352   */\ntag_32:\n    /* \"#utility.yul\":5289:5297   */\n  0x00\n    /* \"#utility.yul\":5339:5344   */\n  dup3\n    /* \"#utility.yul\":5333:5337   */\n  dup3\n    /* \"#utility.yul\":5329:5345   */\n  shl\n    /* \"#utility.yul\":5308:5345   */\n  swap1\n  pop\n    /* \"#utility.yul\":5245:5352   */\n  swap3\n  swap2\n  pop\n  pop\n  jump\t// out\n    /* \"#utility.yul\":5358:5751   */\ntag_33:\n    /* \"#utility.yul\":5427:5433   */\n  0x00\n    /* \"#utility.yul\":5477:5478   */\n  0x08\n    /* \"#utility.yul\":5465:5475   */\n  dup4\n    /* \"#utility.yul\":5461:5479   */\n  mul\n    /* \"#utility.yul\":5500:5597   */\n  tag_107\n    /* \"#utility.yul\":5530:5596   */\n  0xffffffffffffffffffffffffffffffffffffffffffffffffffffffffffffffff\n    /* \"#utility.yul\":5519:5528   */\n  dup3\n    /* \"#utility.yul\":5500:5597   */\n  tag_32\n  jump\t// in\ntag_107:\n    /* \"#utility.yul\":5618:5657   */\n  tag_108\n    /* \"#utility.yul\":5648:5656   */\n  dup7\n    /* \"#utility.yul\":5637:5646   */\n  dup4\n    /* \"#utility.yul\":5618:5657   */\n  tag_32\n  jump\t// in\ntag_108:\n    /* \"#utility.yul\":5606:5657   */\n  swap6\n  pop\n    /* \"#utility.yul\":5690:5694   */\n  dup1\n    /* \"#utility.yul\":5686:5695   */\n  not\n    /* \"#utility.yul\":5679:5684   */\n  dup5\n    /* \"#utility.yul\":5675:5696   */\n  and\n    /* \"#utility.yul\":5666:5696   */\n  swap4\n  pop\n    /* \"#utility.yul\":5739:5743   */\n  dup1\n    /* \"#utility.yul\":5729:5737   */\n  dup7\n    /* \"#utility.yul\":5725:5744   */\n  and\n    /* \"#utility.yul\":5718:5723   */\n  dup5\n    /* \"#utility.yul\":5715:5745   */\n  or\n    /* \"#utility.yul\":5705:5745   */\n  swap3\n  pop\n    /* \"#utility.yul\":5434:5751   */\n  pop\n  pop\n    /* \"#utility.yul\":5358:5751   */\n  swap4\n  swap3\n  pop\n  pop\n  pop\n  jump\t// out\n    /* \"#utility.yul\":5757:5817   */\ntag_34:\n    /* \"#utility.yul\":5785:5788   */\n  0x00\n    /* \"#utility.yul\":5806:5811   */\n  dup2\n    /* \"#utility.yul\":5799:5811   */\n  swap1\n  pop\n    /* \"#utility.yul\":5757:5817   */\n  swap2\n  swap1\n  pop\n  jump\t// out\n    /* \"#utility.yul\":5823:5965   */\ntag_35:\n    /* \"#utility.yul\":5873:5882   */\n  0x00\n    /* \"#utility.yul\":5906:5959   */\n  tag_111\n    /* \"#utility.yul\":5924:5958   */\n  tag_112\n    /* \"#utility.yul\":5933:5957   */\n  tag_113\n    /* \"#utility.yul\":5951:5956   */\n  dup5\n    /* \"#utility.yul\":5933:5957   */\n  tag_24\n  jump\t// in\ntag_113:\n    /* \"#utility.yul\":5924:5958   */\n  tag_34\n  jump\t// in\ntag_112:\n    /* \"#utility.yul\":5906:5959   */\n  tag_24\n  jump\t// in\ntag_111:\n    /* \"#utility.yul\":5893:5959   */\n  swap1\n  pop\n    /* \"#utility.yul\":5823:5965   */\n  swap2\n  swap1\n  pop\n  jump\t// out\n    /* \"#utility.yul\":5971:6046   */\ntag_36:\n    /* \"#utility.yul\":6014:6017   */\n  0x00\n    /* \"#utility.yul\":6035:6040   */\n  dup2\n    /* \"#utility.yul\":6028:6040   */\n  swap1\n  pop\n    /* \"#utility.yul\":5971:6046   */\n  swap2\n  swap1\n  pop\n  jump\t// out\n    /* \"#utility.yul\":6052:6321   */\ntag_37:\n    /* \"#utility.yul\":6162:6201   */\n  tag_116\n    /* \"#utility.yul\":6193:6200   */\n  dup4\n    /* \"#utility.yul\":6162:6201   */\n  tag_35\n  jump\t// in\ntag_116:\n    /* \"#utility.yul\":6223:6314   */\n  tag_117\n    /* \"#utility.yul\":6272:6313   */\n  tag_118\n    /* \"#utility.yul\":6296:6312   */\n  dup3\n    /* \"#utility.yul\":6272:6313   */\n  tag_36\n  jump\t// in\ntag_118:\n    /* \"#utility.yul\":6264:6270   */\n  dup5\n    /* \"#utility.yul\":6257:6261   */\n  dup5\n    /* \"#utility.yul\":6251:6262   */\n  sload\n    /* \"#utility.yul\":6223:6314   */\n  tag_33\n  jump\t// in\ntag_117:\n    /* \"#utility.yul\":6217:6221   */\n  dup3\n    /* \"#utility.yul\":6210:6315   */\n  sstore\n    /* \"#utility.yul\":6128:6321   */\n  pop\n    /* \"#utility.yul\":6052:6321   */\n  pop\n  pop\n  pop\n  jump\t// out\n    /* \"#utility.yul\":6327:6400   */\ntag_38:\n    /* \"#utility.yul\":6372:6375   */\n  0x00\n    /* \"#utility.yul\":6327:6400   */\n  swap1\n  jump\t// out\n    /* \"#utility.yul\":6406:6595   */\ntag_39:\n    /* \"#utility.yul\":6483:6515   */\n  tag_121\n  tag_38\n  jump\t// in\ntag_121:\n    /* \"#utility.yul\":6524:6589   */\n  tag_122\n    /* \"#utility.yul\":6582:6588   */\n  dup2\n    /* \"#utility.yul\":6574:6580   */\n  dup5\n    /* \"#utility.yul\":6568:6572   */\n  dup5\n    /* \"#utility.yul\":6524:6589   */\n  tag_37\n  jump\t// in\ntag_122:\n    /* \"#utility.yul\":6459:6595   */\n  pop\n    /* \"#utility.yul\":6406:6595   */\n  pop\n  pop\n  jump\t// out\n    /* \"#utility.yul\":6601:6787   */\ntag_40:\n    /* \"#utility.yul\":6661:6781   */\ntag_124:\n    /* \"#utility.yul\":6678:6681   */\n  dup2\n    /* \"#utility.yul\":6671:6676   */\n  dup2\n    /* \"#utility.yul\":6668:6682   */\n  lt\n    /* \"#utility.yul\":6661:6781   */\n  iszero\n  tag_126\n  jumpi\n    /* \"#utility.yul\":6732:6771   */\n  tag_127\n    /* \"#utility.yul\":6769:6770   */\n  0x00\n    /* \"#utility.yul\":6762:6767   */\n  dup3\n    /* \"#utility.yul\":6732:6771   */\n  tag_39\n  jump\t// in\ntag_127:\n    /* \"#utility.yul\":6705:6706   */\n  0x01\n    /* \"#utility.yul\":6698:6703   */\n  dup2\n    /* \"#utility.yul\":6694:6707   */\n  add\n    /* \"#utility.yul\":6685:6707   */\n  swap1\n  pop\n    /* \"#utility.yul\":6661:6781   */\n  jump(tag_124)\ntag_126:\n    /* \"#utility.yul\":6601:6787   */\n  pop\n  pop\n  jump\t// out\n    /* \"#utility.yul\":6793:7336   */\ntag_41:\n    /* \"#utility.yul\":6894:6896   */\n  0x1f\n    /* \"#utility.yul\":6889:6892   */\n  dup3\n    /* \"#utility.yul\":6886:6897   */\n  gt\n    /* \"#utility.yul\":6883:7329   */\n  iszero\n  tag_129\n  jumpi\n    /* \"#utility.yul\":6928:6966   */\n  tag_130\n    /* \"#utility.yul\":6960:6965   */\n  dup2\n    /* \"#utility.yul\":6928:6966   */\n  tag_30\n  jump\t// in\ntag_130:\n    /* \"#utility.yul\":7012:7041   */\n  tag_131\n    /* \"#utility.yul\":7030:7040   */\n  dup5\n    /* \"#utility.yul\":7012:7041   */\n  tag_31\n  jump\t// in\ntag_131:\n    /* \"#utility.yul\":7002:7010   */\n  dup2\n    /* \"#utility.yul\":6998:7042   */\n  add\n    /* \"#utility.yul\":7195:7197   */\n  0x20\n    /* \"#utility.yul\":7183:7193   */\n  dup6\n    /* \"#utility.yul\":7180:7198   */\n  lt\n    /* \"#utility.yul\":7177:7226   */\n  iszero\n  tag_132\n  jumpi\n    /* \"#utility.yul\":7216:7224   */\n  dup2\n    /* \"#utility.yul\":7201:7224   */\n  swap1\n  pop\n    /* \"#utility.yul\":7177:7226   */\ntag_132:\n    /* \"#utility.yul\":7239:7319   */\n  tag_133\n    /* \"#utility.yul\":7295:7317   */\n  tag_134\n    /* \"#utility.yul\":7313:7316   */\n  dup6\n    /* \"#utility.yul\":7295:7317   */\n  tag_31\n  jump\t// in\ntag_134:\n    /* \"#utility.yul\":7285:7293   */\n  dup4\n    /* \"#utility.yul\":7281:7318   */\n  add\n    /* \"#utility.yul\":7268:7279   */\n  dup3\n    /* \"#utility.yul\":7239:7319   */\n  tag_40\n  jump\t// in\ntag_133:\n    /* \"#utility.yul\":6898:7329   */\n  pop\n  pop\n    /* \"#utility.yul\":6883:7329   */\ntag_129:\n    /* \"#utility.yul\":6793:7336   */\n  pop\n  pop\n  pop\n  jump\t// out\n    /* \"#utility.yul\":7342:7459   */\ntag_42:\n    /* \"#utility.yul\":7396:7404   */\n  0x00\n    /* \"#utility.yul\":7446:7451   */\n  dup3\n    /* \"#utility.yul\":7440:7444   */\n  dup3\n    /* \"#utility.yul\":7436:7452   */\n  shr\n    /* \"#utility.yul\":7415:7452   */\n  swap1\n  pop\n    /* \"#utility.yul\":7342:7459   */\n  swap3\n  swap2\n  pop\n  pop\n  jump\t// out\n    /* \"#utility.yul\":7465:7634   */\ntag_43:\n    /* \"#utility.yul\":7509:7515   */\n  0x00\n    /* \"#utility.yul\":7542:7593   */\n  tag_137\n    /* \"#utility.yul\":7590:7591   */\n  0x00\n    /* \"#utility.yul\":7586:7592   */\n  not\n    /* \"#utility.yul\":7578:7583   */\n  dup5\n    /* \"#utility.yul\":7575:7576   */\n  0x08\n    /* \"#utility.yul\":7571:7584   */\n  mul\n    /* \"#utility.yul\":7542:7593   */\n  tag_42\n  jump\t// in\ntag_137:\n    /* \"#utility.yul\":7538:7594   */\n  not\n    /* \"#utility.yul\":7623:7627   */\n  dup1\n    /* \"#utility.yul\":7617:7621   */\n  dup4\n    /* \"#utility.yul\":7613:7628   */\n  and\n    /* \"#utility.yul\":7603:7628   */\n  swap2\n  pop\n    /* \"#utility.yul\":7516:7634   */\n  pop\n    /* \"#utility.yul\":7465:7634   */\n  swap3\n  swap2\n  pop\n  pop\n  jump\t// out\n    /* \"#utility.yul\":7639:7934   */\ntag_44:\n    /* \"#utility.yul\":7715:7719   */\n  0x00\n    /* \"#utility.yul\":7861:7890   */\n  tag_139\n    /* \"#utility.yul\":7886:7889   */\n  dup4\n    /* \"#utility.yul\":7880:7884   */\n  dup4\n    /* \"#utility.yul\":7861:7890   */\n  tag_43\n  jump\t// in\ntag_139:\n    /* \"#utility.yul\":7853:7890   */\n  swap2\n  pop\n    /* \"#utility.yul\":7923:7926   */\n  dup3\n    /* \"#utility.yul\":7920:7921   */\n  0x02\n    /* \"#utility.yul\":7916:7927   */\n  mul\n    /* \"#utility.yul\":7910:7914   */\n  dup3\n    /* \"#utility.yul\":7907:7928   */\n  or\n    /* \"#utility.yul\":7899:7928   */\n  swap1\n  pop\n    /* \"#utility.yul\":7639:7934   */\n  swap3\n  swap2\n  pop\n  pop\n  jump\t// out\n    /* \"#utility.yul\":7939:9334   */\ntag_7:\n    /* \"#utility.yul\":8056:8093   */\n  tag_141\n    /* \"#utility.yul\":8089:8092   */\n  dup3\n    /* \"#utility.yul\":8056:8093   */\n  tag_27\n  jump\t// in\ntag_141:\n    /* \"#utility.yul\":8158:8176   */\n  0xffffffffffffffff\n    /* \"#utility.yul\":8150:8156   */\n  dup2\n    /* \"#utility.yul\":8147:8177   */\n  gt\n    /* \"#utility.yul\":8144:8200   */\n  iszero\n  tag_142\n  jumpi\n    /* \"#utility.yul\":8180:8198   */\n  tag_143\n  tag_17\n  jump\t// in\ntag_143:\n    /* \"#utility.yul\":8144:8200   */\ntag_142:\n    /* \"#utility.yul\":8224:8262   */\n  tag_144\n    /* \"#utility.yul\":8256:8260   */\n  dup3\n    /* \"#utility.yul\":8250:8261   */\n  sload\n    /* \"#utility.yul\":8224:8262   */\n  tag_29\n  jump\t// in\ntag_144:\n    /* \"#utility.yul\":8309:8376   */\n  tag_145\n    /* \"#utility.yul\":8369:8375   */\n  dup3\n    /* \"#utility.yul\":8361:8367   */\n  dup3\n    /* \"#utility.yul\":8355:8359   */\n  dup6\n    /* \"#utility.yul\":8309:8376   */\n  tag_41\n  jump\t// in\ntag_145:\n    /* \"#utility.yul\":8403:8404   */\n  0x00\n    /* \"#utility.yul\":8427:8431   */\n  0x20\n    /* \"#utility.yul\":8414:8431   */\n  swap1\n  pop\n    /* \"#utility.yul\":8459:8461   */\n  0x1f\n    /* \"#utility.yul\":8451:8457   */\n  dup4\n    /* \"#utility.yul\":8448:8462   */\n  gt\n    /* \"#utility.yul\":8476:8477   */\n  0x01\n    /* \"#utility.yul\":8471:9089   */\n  dup2\n  eq\n  tag_147\n  jumpi\n    /* \"#utility.yul\":9133:9134   */\n  0x00\n    /* \"#utility.yul\":9150:9156   */\n  dup5\n    /* \"#utility.yul\":9147:9224   */\n  iszero\n  tag_148\n  jumpi\n    /* \"#utility.yul\":9199:9208   */\n  dup3\n    /* \"#utility.yul\":9194:9197   */\n  dup8\n    /* \"#utility.yul\":9190:9209   */\n  add\n    /* \"#utility.yul\":9184:9210   */\n  mload\n    /* \"#utility.yul\":9175:9210   */\n  swap1\n  pop\n    /* \"#utility.yul\":9147:9224   */\ntag_148:\n    /* \"#utility.yul\":9250:9317   */\n  tag_149\n    /* \"#utility.yul\":9310:9316   */\n  dup6\n    /* \"#utility.yul\":9303:9308   */\n  dup3\n    /* \"#utility.yul\":9250:9317   */\n  tag_44\n  jump\t// in\ntag_149:\n    /* \"#utility.yul\":9244:9248   */\n  dup7\n    /* \"#utility.yul\":9237:9318   */\n  sstore\n    /* \"#utility.yul\":9106:9328   */\n  pop\n    /* \"#utility.yul\":8441:9328   */\n  jump(tag_146)\n    /* \"#utility.yul\":8471:9089   */\ntag_147:\n    /* \"#utility.yul\":8523:8527   */\n  0x1f\n    /* \"#utility.yul\":8519:8528   */\n  not\n    /* \"#utility.yul\":8511:8517   */\n  dup5\n    /* \"#utility.yul\":8507:8529   */\n  and\n    /* \"#utility.yul\":8557:8594   */\n  tag_150\n    /* \"#utility.yul\":8589:8593   */\n  dup7\n    /* \"#utility.yul\":8557:8594   */\n  tag_30\n  jump\t// in\ntag_150:\n    /* \"#utility.yul\":8616:8617   */\n  0x00\n    /* \"#utility.yul\":8630:8838   */\ntag_151:\n    /* \"#utility.yul\":8644:8651   */\n  dup3\n    /* \"#utility.yul\":8641:8642   */\n  dup2\n    /* \"#utility.yul\":8638:8652   */\n  lt\n    /* \"#utility.yul\":8630:8838   */\n  iszero\n  tag_153\n  jumpi\n    /* \"#utility.yul\":8723:8732   */\n  dup5\n    /* \"#utility.yul\":8718:8721   */\n  dup10\n    /* \"#utility.yul\":8714:8733   */\n  add\n    /* \"#utility.yul\":8708:8734   */\n  mload\n    /* \"#utility.yul\":8700:8706   */\n  dup3\n    /* \"#utility.yul\":8693:8735   */\n  sstore\n    /* \"#utility.yul\":8774:8775   */\n  0x01\n    /* \"#utility.yul\":8766:8772   */\n  dup3\n    /* \"#utility.yul\":8762:8776   */\n  add\n    /* \"#utility.yul\":8752:8776   */\n  swap2\n  pop\n    /* \"#utility.yul\":8821:8823   */\n  0x20\n    /* \"#utility.yul\":8810:8819   */\n  dup6\n    /* \"#utility.yul\":8806:8824   */\n  add\n    /* \"#utility.yul\":8793:8824   */\n  swap5\n  pop\n    /* \"#utility.yul\":8667:8671   */\n  0x20\n    /* \"#utility.yul\":8664:8665   */\n  dup2\n    /* \"#utility.yul\":8660:8672   */\n  add\n    /* \"#utility.yul\":8655:8672   */\n  swap1\n  pop\n    /* \"#utility.yul\":8630:8838   */\n  jump(tag_151)\ntag_153:\n    /* \"#utility.yul\":8866:8872   */\n  dup7\n    /* \"#utility.yul\":8857:8864   */\n  dup4\n    /* \"#utility.yul\":8854:8873   */\n  lt\n    /* \"#utility.yul\":8851:9030   */\n  iszero\n  tag_154\n  jumpi\n    /* \"#utility.yul\":8924:8933   */\n  dup5\n    /* \"#utility.yul\":8919:8922   */\n  dup10\n    /* \"#utility.yul\":8915:8934   */\n  add\n    /* \"#utility.yul\":8909:8935   */\n  mload\n    /* \"#utility.yul\":8967:9015   */\n  tag_155\n    /* \"#utility.yul\":9009:9013   */\n  0x1f\n    /* \"#utility.yul\":9001:9007   */\n  dup10\n    /* \"#utility.yul\":8997:9014   */\n  and\n    /* \"#utility.yul\":8986:8995   */\n  dup3\n    /* \"#utility.yul\":8967:9015   */\n  tag_43\n  jump\t// in\ntag_155:\n    /* \"#utility.yul\":8959:8965   */\n  dup4\n    /* \"#utility.yul\":8952:9016   */\n  sstore\n    /* \"#utility.yul\":8874:9030   */\n  pop\n    /* \"#utility.yul\":8851:9030   */\ntag_154:\n    /* \"#utility.yul\":9076:9077   */\n  0x01\n    /* \"#utility.yul\":9072:9073   */\n  0x02\n    /* \"#utility.yul\":9064:9070   */\n  dup9\n    /* \"#utility.yul\":9060:9074   */\n  mul\n    /* \"#utility.yul\":9056:9078   */\n  add\n    /* \"#utility.yul\":9050:9054   */\n  dup9\n    /* \"#utility.yul\":9043:9079   */\n  sstore\n    /* \"#utility.yul\":8478:9089   */\n  pop\n  pop\n  pop\n    /* \"#utility.yul\":8441:9328   */\ntag_146:\n  pop\n    /* \"#utility.yul\":8031:9334   */\n  pop\n  pop\n  pop\n    /* \"#utility.yul\":7939:9334   */\n  pop\n  pop\n  jump\t// out\n    /* \"contracts/use-cases/my-privacy/my-privacy.sol\":70:1828  contract identity {... */\ntag_10:\n  dataSize(sub_0)\n  dup1\n  dataOffset(sub_0)\n  0x00\n  codecopy\n  0x00\n  return\nstop\n\nsub_0: assembly {\n        /* \"contracts/use-cases/my-privacy/my-privacy.sol\":70:1828  contract identity {... */\n      mstore(0x40, 0x80)\n      callvalue\n      dup1\n      iszero\n      tag_1\n      jumpi\n      0x00\n      dup1\n      revert\n    tag_1:\n      pop\n      jumpi(tag_2, lt(calldatasize, 0x04))\n      shr(0xe0, calldataload(0x00))\n      dup1\n      0x13d67e35\n      eq\n      tag_3\n      jumpi\n      dup1\n      0x8cf36edc\n      eq\n      tag_4\n      jumpi\n      dup1\n      0xc4f0d067\n      eq\n      tag_5\n      jumpi\n    tag_2:\n      0x00\n      dup1\n      revert\n        /* \"contracts/use-cases/my-privacy/my-privacy.sol\":1558:1826  function register_user(user_type user_type0, address user) public only_owner{... */\n    tag_3:\n      tag_6\n      0x04\n      dup1\n      calldatasize\n      sub\n      dup2\n      add\n      swap1\n      tag_7\n      swap2\n      swap1\n      tag_8\n      jump\t// in\n    tag_7:\n      tag_9\n      jump\t// in\n    tag_6:\n      stop\n        /* \"contracts/use-cases/my-privacy/my-privacy.sol\":1264:1399  function get_basic_info() public view authorize_user(  user_type.basic) returns ( basic_info memory){... */\n    tag_4:\n      tag_10\n      tag_11\n      jump\t// in\n    tag_10:\n      mload(0x40)\n      tag_12\n      swap2\n      swap1\n      tag_13\n      jump\t// in\n    tag_12:\n      mload(0x40)\n      dup1\n      swap2\n      sub\n      swap1\n      return\n        /* \"contracts/use-cases/my-privacy/my-privacy.sol\":1405:1552  function get_personal_infor() public view authorize_user(  user_type.personal) returns (personal_info memory){... */\n    tag_5:\n      tag_14\n      tag_15\n      jump\t// in\n    tag_14:\n      mload(0x40)\n      tag_16\n      swap2\n      swap1\n      tag_17\n      jump\t// in\n    tag_16:\n      mload(0x40)\n      dup1\n      swap2\n      sub\n      swap1\n      return\n        /* \"contracts/use-cases/my-privacy/my-privacy.sol\":1558:1826  function register_user(user_type user_type0, address user) public only_owner{... */\n    tag_9:\n        /* \"contracts/use-cases/my-privacy/my-privacy.sol\":1200:1205  owner */\n      0x04\n      0x00\n      swap1\n      sload\n      swap1\n      0x0100\n      exp\n      swap1\n      div\n      0xffffffffffffffffffffffffffffffffffffffff\n      and\n        /* \"contracts/use-cases/my-privacy/my-privacy.sol\":1186:1205  msg.sender == owner */\n      0xffffffffffffffffffffffffffffffffffffffff\n      and\n        /* \"contracts/use-cases/my-privacy/my-privacy.sol\":1186:1196  msg.sender */\n      caller\n        /* \"contracts/use-cases/my-privacy/my-privacy.sol\":1186:1205  msg.sender == owner */\n      0xffffffffffffffffffffffffffffffffffffffff\n      and\n      eq\n        /* \"contracts/use-cases/my-privacy/my-privacy.sol\":1178:1240  require(msg.sender == owner, \"Only owner can authorize users\") */\n      tag_19\n      jumpi\n      mload(0x40)\n      0x08c379a000000000000000000000000000000000000000000000000000000000\n      dup2\n      mstore\n      0x04\n      add\n      tag_20\n      swap1\n      tag_21\n      jump\t// in\n    tag_20:\n      mload(0x40)\n      dup1\n      swap2\n      sub\n      swap1\n      revert\n    tag_19:\n        /* \"contracts/use-cases/my-privacy/my-privacy.sol\":1661:1676  user_type.basic */\n      0x00\n        /* \"contracts/use-cases/my-privacy/my-privacy.sol\":1647:1676  user_type0 == user_type.basic */\n      0x01\n      dup2\n      gt\n      iszero\n      tag_23\n      jumpi\n      tag_24\n      tag_25\n      jump\t// in\n    tag_24:\n    tag_23:\n        /* \"contracts/use-cases/my-privacy/my-privacy.sol\":1647:1657  user_type0 */\n      dup3\n        /* \"contracts/use-cases/my-privacy/my-privacy.sol\":1647:1676  user_type0 == user_type.basic */\n      0x01\n      dup2\n      gt\n      iszero\n      tag_26\n      jumpi\n      tag_27\n      tag_25\n      jump\t// in\n    tag_27:\n    tag_26:\n      sub\n        /* \"contracts/use-cases/my-privacy/my-privacy.sol\":1644:1820  if(user_type0 == user_type.basic){... */\n      tag_28\n      jumpi\n        /* \"contracts/use-cases/my-privacy/my-privacy.sol\":1711:1715  true */\n      0x01\n        /* \"contracts/use-cases/my-privacy/my-privacy.sol\":1691:1702  basic_users */\n      0x05\n        /* \"contracts/use-cases/my-privacy/my-privacy.sol\":1691:1708  basic_users[user] */\n      0x00\n        /* \"contracts/use-cases/my-privacy/my-privacy.sol\":1703:1707  user */\n      dup4\n        /* \"contracts/use-cases/my-privacy/my-privacy.sol\":1691:1708  basic_users[user] */\n      0xffffffffffffffffffffffffffffffffffffffff\n      and\n      0xffffffffffffffffffffffffffffffffffffffff\n      and\n      dup2\n      mstore\n      0x20\n      add\n      swap1\n      dup2\n      mstore\n      0x20\n      add\n      0x00\n      keccak256\n      0x00\n        /* \"contracts/use-cases/my-privacy/my-privacy.sol\":1691:1715  basic_users[user] = true */\n      0x0100\n      exp\n      dup2\n      sload\n      dup2\n      0xff\n      mul\n      not\n      and\n      swap1\n      dup4\n      iszero\n      iszero\n      mul\n      or\n      swap1\n      sstore\n      pop\n        /* \"contracts/use-cases/my-privacy/my-privacy.sol\":1644:1820  if(user_type0 == user_type.basic){... */\n      jump(tag_29)\n    tag_28:\n        /* \"contracts/use-cases/my-privacy/my-privacy.sol\":1749:1767  user_type.personal */\n      0x01\n        /* \"contracts/use-cases/my-privacy/my-privacy.sol\":1735:1767  user_type0 == user_type.personal */\n      dup1\n      dup2\n      gt\n      iszero\n      tag_30\n      jumpi\n      tag_31\n      tag_25\n      jump\t// in\n    tag_31:\n    tag_30:\n        /* \"contracts/use-cases/my-privacy/my-privacy.sol\":1735:1745  user_type0 */\n      dup3\n        /* \"contracts/use-cases/my-privacy/my-privacy.sol\":1735:1767  user_type0 == user_type.personal */\n      0x01\n      dup2\n      gt\n      iszero\n      tag_32\n      jumpi\n      tag_33\n      tag_25\n      jump\t// in\n    tag_33:\n    tag_32:\n      sub\n        /* \"contracts/use-cases/my-privacy/my-privacy.sol\":1732:1820  if(user_type0 == user_type.personal){... */\n      tag_34\n      jumpi\n        /* \"contracts/use-cases/my-privacy/my-privacy.sol\":1805:1809  true */\n      0x01\n        /* \"contracts/use-cases/my-privacy/my-privacy.sol\":1782:1796  personal_users */\n      0x06\n        /* \"contracts/use-cases/my-privacy/my-privacy.sol\":1782:1802  personal_users[user] */\n      0x00\n        /* \"contracts/use-cases/my-privacy/my-privacy.sol\":1797:1801  user */\n      dup4\n        /* \"contracts/use-cases/my-privacy/my-privacy.sol\":1782:1802  personal_users[user] */\n      0xffffffffffffffffffffffffffffffffffffffff\n      and\n      0xffffffffffffffffffffffffffffffffffffffff\n      and\n      dup2\n      mstore\n      0x20\n      add\n      swap1\n      dup2\n      mstore\n      0x20\n      add\n      0x00\n      keccak256\n      0x00\n        /* \"contracts/use-cases/my-privacy/my-privacy.sol\":1782:1809  personal_users[user] = true */\n      0x0100\n      exp\n      dup2\n      sload\n      dup2\n      0xff\n      mul\n      not\n      and\n      swap1\n      dup4\n      iszero\n      iszero\n      mul\n      or\n      swap1\n      sstore\n      pop\n        /* \"contracts/use-cases/my-privacy/my-privacy.sol\":1732:1820  if(user_type0 == user_type.personal){... */\n    tag_34:\n        /* \"contracts/use-cases/my-privacy/my-privacy.sol\":1644:1820  if(user_type0 == user_type.basic){... */\n    tag_29:\n        /* \"contracts/use-cases/my-privacy/my-privacy.sol\":1558:1826  function register_user(user_type user_type0, address user) public only_owner{... */\n      pop\n      pop\n      jump\t// out\n        /* \"contracts/use-cases/my-privacy/my-privacy.sol\":1264:1399  function get_basic_info() public view authorize_user(  user_type.basic) returns ( basic_info memory){... */\n    tag_11:\n        /* \"contracts/use-cases/my-privacy/my-privacy.sol\":1346:1363  basic_info memory */\n      tag_35\n      tag_36\n      jump\t// in\n    tag_35:\n        /* \"contracts/use-cases/my-privacy/my-privacy.sol\":1319:1334  user_type.basic */\n      0x00\n        /* \"contracts/use-cases/my-privacy/my-privacy.sol\":901:906  owner */\n      0x04\n      0x00\n      swap1\n      sload\n      swap1\n      0x0100\n      exp\n      swap1\n      div\n      0xffffffffffffffffffffffffffffffffffffffff\n      and\n        /* \"contracts/use-cases/my-privacy/my-privacy.sol\":887:906  msg.sender == owner */\n      0xffffffffffffffffffffffffffffffffffffffff\n      and\n        /* \"contracts/use-cases/my-privacy/my-privacy.sol\":887:897  msg.sender */\n      caller\n        /* \"contracts/use-cases/my-privacy/my-privacy.sol\":887:906  msg.sender == owner */\n      0xffffffffffffffffffffffffffffffffffffffff\n      and\n      eq\n        /* \"contracts/use-cases/my-privacy/my-privacy.sol\":887:936  msg.sender == owner || personal_users[msg.sender] */\n      dup1\n      tag_38\n      jumpi\n      pop\n        /* \"contracts/use-cases/my-privacy/my-privacy.sol\":910:924  personal_users */\n      0x06\n        /* \"contracts/use-cases/my-privacy/my-privacy.sol\":910:936  personal_users[msg.sender] */\n      0x00\n        /* \"contracts/use-cases/my-privacy/my-privacy.sol\":925:935  msg.sender */\n      caller\n        /* \"contracts/use-cases/my-privacy/my-privacy.sol\":910:936  personal_users[msg.sender] */\n      0xffffffffffffffffffffffffffffffffffffffff\n      and\n      0xffffffffffffffffffffffffffffffffffffffff\n      and\n      dup2\n      mstore\n      0x20\n      add\n      swap1\n      dup2\n      mstore\n      0x20\n      add\n      0x00\n      keccak256\n      0x00\n      swap1\n      sload\n      swap1\n      0x0100\n      exp\n      swap1\n      div\n      0xff\n      and\n        /* \"contracts/use-cases/my-privacy/my-privacy.sol\":887:936  msg.sender == owner || personal_users[msg.sender] */\n    tag_38:\n        /* \"contracts/use-cases/my-privacy/my-privacy.sol\":884:1135  if(msg.sender == owner || personal_users[msg.sender]){... */\n      iszero\n      tag_39\n      jumpi\n        /* \"contracts/use-cases/my-privacy/my-privacy.sol\":1381:1392  basic_info0 */\n      0x00\n        /* \"contracts/use-cases/my-privacy/my-privacy.sol\":1374:1392  return basic_info0 */\n      mload(0x40)\n      dup1\n      0x40\n      add\n      0x40\n      mstore\n      swap1\n      dup2\n      0x00\n      dup3\n      add\n      dup1\n      sload\n      tag_41\n      swap1\n      tag_42\n      jump\t// in\n    tag_41:\n      dup1\n      0x1f\n      add\n      0x20\n      dup1\n      swap2\n      div\n      mul\n      0x20\n      add\n      mload(0x40)\n      swap1\n      dup2\n      add\n      0x40\n      mstore\n      dup1\n      swap3\n      swap2\n      swap1\n      dup2\n      dup2\n      mstore\n      0x20\n      add\n      dup3\n      dup1\n      sload\n      tag_43\n      swap1\n      tag_42\n      jump\t// in\n    tag_43:\n      dup1\n      iszero\n      tag_44\n      jumpi\n      dup1\n      0x1f\n      lt\n      tag_45\n      jumpi\n      0x0100\n      dup1\n      dup4\n      sload\n      div\n      mul\n      dup4\n      mstore\n      swap2\n      0x20\n      add\n      swap2\n      jump(tag_44)\n    tag_45:\n      dup3\n      add\n      swap2\n      swap1\n      0x00\n      mstore\n      keccak256(0x00, 0x20)\n      swap1\n    tag_46:\n      dup2\n      sload\n      dup2\n      mstore\n      swap1\n      0x01\n      add\n      swap1\n      0x20\n      add\n      dup1\n      dup4\n      gt\n      tag_46\n      jumpi\n      dup3\n      swap1\n      sub\n      0x1f\n      and\n      dup3\n      add\n      swap2\n    tag_44:\n      pop\n      pop\n      pop\n      pop\n      pop\n      dup2\n      mstore\n      0x20\n      add\n      0x01\n      dup3\n      add\n      dup1\n      sload\n      tag_47\n      swap1\n      tag_42\n      jump\t// in\n    tag_47:\n      dup1\n      0x1f\n      add\n      0x20\n      dup1\n      swap2\n      div\n      mul\n      0x20\n      add\n      mload(0x40)\n      swap1\n      dup2\n      add\n      0x40\n      mstore\n      dup1\n      swap3\n      swap2\n      swap1\n      dup2\n      dup2\n      mstore\n      0x20\n      add\n      dup3\n      dup1\n      sload\n      tag_48\n      swap1\n      tag_42\n      jump\t// in\n    tag_48:\n      dup1\n      iszero\n      tag_49\n      jumpi\n      dup1\n      0x1f\n      lt\n      tag_50\n      jumpi\n      0x0100\n      dup1\n      dup4\n      sload\n      div\n      mul\n      dup4\n      mstore\n      swap2\n      0x20\n      add\n      swap2\n      jump(tag_49)\n    tag_50:\n      dup3\n      add\n      swap2\n      swap1\n      0x00\n      mstore\n      keccak256(0x00, 0x20)\n      swap1\n    tag_51:\n      dup2\n      sload\n      dup2\n      mstore\n      swap1\n      0x01\n      add\n      swap1\n      0x20\n      add\n      dup1\n      dup4\n      gt\n      tag_51\n      jumpi\n      dup3\n      swap1\n      sub\n      0x1f\n      and\n      dup3\n      add\n      swap2\n    tag_49:\n      pop\n      pop\n      pop\n      pop\n      pop\n      dup2\n      mstore\n      pop\n      pop\n      swap2\n      pop\n        /* \"contracts/use-cases/my-privacy/my-privacy.sol\":884:1135  if(msg.sender == owner || personal_users[msg.sender]){... */\n      jump(tag_52)\n    tag_39:\n        /* \"contracts/use-cases/my-privacy/my-privacy.sol\":985:1000  user_type.basic */\n      0x00\n        /* \"contracts/use-cases/my-privacy/my-privacy.sol\":971:1000  user_type0 == user_type.basic */\n      0x01\n      dup2\n      gt\n      iszero\n      tag_53\n      jumpi\n      tag_54\n      tag_25\n      jump\t// in\n    tag_54:\n    tag_53:\n        /* \"contracts/use-cases/my-privacy/my-privacy.sol\":971:981  user_type0 */\n      dup2\n        /* \"contracts/use-cases/my-privacy/my-privacy.sol\":971:1000  user_type0 == user_type.basic */\n      0x01\n      dup2\n      gt\n      iszero\n      tag_55\n      jumpi\n      tag_56\n      tag_25\n      jump\t// in\n    tag_56:\n    tag_55:\n      eq\n        /* \"contracts/use-cases/my-privacy/my-privacy.sol\":971:1027  user_type0 == user_type.basic && basic_users[msg.sender] */\n      dup1\n      iszero\n      tag_57\n      jumpi\n      pop\n        /* \"contracts/use-cases/my-privacy/my-privacy.sol\":1004:1015  basic_users */\n      0x05\n        /* \"contracts/use-cases/my-privacy/my-privacy.sol\":1004:1027  basic_users[msg.sender] */\n      0x00\n        /* \"contracts/use-cases/my-privacy/my-privacy.sol\":1016:1026  msg.sender */\n      caller\n        /* \"contracts/use-cases/my-privacy/my-privacy.sol\":1004:1027  basic_users[msg.sender] */\n      0xffffffffffffffffffffffffffffffffffffffff\n      and\n      0xffffffffffffffffffffffffffffffffffffffff\n      and\n      dup2\n      mstore\n      0x20\n      add\n      swap1\n      dup2\n      mstore\n      0x20\n      add\n      0x00\n      keccak256\n      0x00\n      swap1\n      sload\n      swap1\n      0x0100\n      exp\n      swap1\n      div\n      0xff\n      and\n        /* \"contracts/use-cases/my-privacy/my-privacy.sol\":971:1027  user_type0 == user_type.basic && basic_users[msg.sender] */\n    tag_57:\n        /* \"contracts/use-cases/my-privacy/my-privacy.sol\":968:1135  if(user_type0 == user_type.basic && basic_users[msg.sender]){... */\n      iszero\n      tag_58\n      jumpi\n        /* \"contracts/use-cases/my-privacy/my-privacy.sol\":1381:1392  basic_info0 */\n      0x00\n        /* \"contracts/use-cases/my-privacy/my-privacy.sol\":1374:1392  return basic_info0 */\n      mload(0x40)\n      dup1\n      0x40\n      add\n      0x40\n      mstore\n      swap1\n      dup2\n      0x00\n      dup3\n      add\n      dup1\n      sload\n      tag_60\n      swap1\n      tag_42\n      jump\t// in\n    tag_60:\n      dup1\n      0x1f\n      add\n      0x20\n      dup1\n      swap2\n      div\n      mul\n      0x20\n      add\n      mload(0x40)\n      swap1\n      dup2\n      add\n      0x40\n      mstore\n      dup1\n      swap3\n      swap2\n      swap1\n      dup2\n      dup2\n      mstore\n      0x20\n      add\n      dup3\n      dup1\n      sload\n      tag_61\n      swap1\n      tag_42\n      jump\t// in\n    tag_61:\n      dup1\n      iszero\n      tag_62\n      jumpi\n      dup1\n      0x1f\n      lt\n      tag_63\n      jumpi\n      0x0100\n      dup1\n      dup4\n      sload\n      div\n      mul\n      dup4\n      mstore\n      swap2\n      0x20\n      add\n      swap2\n      jump(tag_62)\n    tag_63:\n      dup3\n      add\n      swap2\n      swap1\n      0x00\n      mstore\n      keccak256(0x00, 0x20)\n      swap1\n    tag_64:\n      dup2\n      sload\n      dup2\n      mstore\n      swap1\n      0x01\n      add\n      swap1\n      0x20\n      add\n      dup1\n      dup4\n      gt\n      tag_64\n      jumpi\n      dup3\n      swap1\n      sub\n      0x1f\n      and\n      dup3\n      add\n      swap2\n    tag_62:\n      pop\n      pop\n      pop\n      pop\n      pop\n      dup2\n      mstore\n      0x20\n      add\n      0x01\n      dup3\n      add\n      dup1\n      sload\n      tag_65\n      swap1\n      tag_42\n      jump\t// in\n    tag_65:\n      dup1\n      0x1f\n      add\n      0x20\n      dup1\n      swap2\n      div\n      mul\n      0x20\n      add\n      mload(0x40)\n      swap1\n      dup2\n      add\n      0x40\n      mstore\n      dup1\n      swap3\n      swap2\n      swap1\n      dup2\n      dup2\n      mstore\n      0x20\n      add\n      dup3\n      dup1\n      sload\n      tag_66\n      swap1\n      tag_42\n      jump\t// in\n    tag_66:\n      dup1\n      iszero\n      tag_67\n      jumpi\n      dup1\n      0x1f\n      lt\n      tag_68\n      jumpi\n      0x0100\n      dup1\n      dup4\n      sload\n      div\n      mul\n      dup4\n      mstore\n      swap2\n      0x20\n      add\n      swap2\n      jump(tag_67)\n    tag_68:\n      dup3\n      add\n      swap2\n      swap1\n      0x00\n      mstore\n      keccak256(0x00, 0x20)\n      swap1\n    tag_69:\n      dup2\n      sload\n      dup2\n      mstore\n      swap1\n      0x01\n      add\n      swap1\n      0x20\n      add\n      dup1\n      dup4\n      gt\n      tag_69\n      jumpi\n      dup3\n      swap1\n      sub\n      0x1f\n      and\n      dup3\n      add\n      swap2\n    tag_67:\n      pop\n      pop\n      pop\n      pop\n      pop\n      dup2\n      mstore\n      pop\n      pop\n      swap2\n      pop\n        /* \"contracts/use-cases/my-privacy/my-privacy.sol\":968:1135  if(user_type0 == user_type.basic && basic_users[msg.sender]){... */\n      jump(tag_70)\n    tag_58:\n        /* \"contracts/use-cases/my-privacy/my-privacy.sol\":1101:1111  msg.sender */\n      caller\n        /* \"contracts/use-cases/my-privacy/my-privacy.sol\":1113:1123  user_type0 */\n      dup2\n        /* \"contracts/use-cases/my-privacy/my-privacy.sol\":1082:1124  user_un_authorized(msg.sender, user_type0) */\n      mload(0x40)\n      0x54e896ee00000000000000000000000000000000000000000000000000000000\n      dup2\n      mstore\n      0x04\n      add\n      tag_71\n      swap3\n      swap2\n      swap1\n      tag_72\n      jump\t// in\n    tag_71:\n      mload(0x40)\n      dup1\n      swap2\n      sub\n      swap1\n      revert\n        /* \"contracts/use-cases/my-privacy/my-privacy.sol\":968:1135  if(user_type0 == user_type.basic && basic_users[msg.sender]){... */\n    tag_70:\n        /* \"contracts/use-cases/my-privacy/my-privacy.sol\":884:1135  if(msg.sender == owner || personal_users[msg.sender]){... */\n    tag_52:\n        /* \"contracts/use-cases/my-privacy/my-privacy.sol\":1264:1399  function get_basic_info() public view authorize_user(  user_type.basic) returns ( basic_info memory){... */\n      pop\n      swap1\n      jump\t// out\n        /* \"contracts/use-cases/my-privacy/my-privacy.sol\":1405:1552  function get_personal_infor() public view authorize_user(  user_type.personal) returns (personal_info memory){... */\n    tag_15:\n        /* \"contracts/use-cases/my-privacy/my-privacy.sol\":1493:1513  personal_info memory */\n      tag_73\n      tag_74\n      jump\t// in\n    tag_73:\n        /* \"contracts/use-cases/my-privacy/my-privacy.sol\":1464:1482  user_type.personal */\n      0x01\n        /* \"contracts/use-cases/my-privacy/my-privacy.sol\":901:906  owner */\n      0x04\n      0x00\n      swap1\n      sload\n      swap1\n      0x0100\n      exp\n      swap1\n      div\n      0xffffffffffffffffffffffffffffffffffffffff\n      and\n        /* \"contracts/use-cases/my-privacy/my-privacy.sol\":887:906  msg.sender == owner */\n      0xffffffffffffffffffffffffffffffffffffffff\n      and\n        /* \"contracts/use-cases/my-privacy/my-privacy.sol\":887:897  msg.sender */\n      caller\n        /* \"contracts/use-cases/my-privacy/my-privacy.sol\":887:906  msg.sender == owner */\n      0xffffffffffffffffffffffffffffffffffffffff\n      and\n      eq\n        /* \"contracts/use-cases/my-privacy/my-privacy.sol\":887:936  msg.sender == owner || personal_users[msg.sender] */\n      dup1\n      tag_76\n      jumpi\n      pop\n        /* \"contracts/use-cases/my-privacy/my-privacy.sol\":910:924  personal_users */\n      0x06\n        /* \"contracts/use-cases/my-privacy/my-privacy.sol\":910:936  personal_users[msg.sender] */\n      0x00\n        /* \"contracts/use-cases/my-privacy/my-privacy.sol\":925:935  msg.sender */\n      caller\n        /* \"contracts/use-cases/my-privacy/my-privacy.sol\":910:936  personal_users[msg.sender] */\n      0xffffffffffffffffffffffffffffffffffffffff\n      and\n      0xffffffffffffffffffffffffffffffffffffffff\n      and\n      dup2\n      mstore\n      0x20\n      add\n      swap1\n      dup2\n      mstore\n      0x20\n      add\n      0x00\n      keccak256\n      0x00\n      swap1\n      sload\n      swap1\n      0x0100\n      exp\n      swap1\n      div\n      0xff\n      and\n        /* \"contracts/use-cases/my-privacy/my-privacy.sol\":887:936  msg.sender == owner || personal_users[msg.sender] */\n    tag_76:\n        /* \"contracts/use-cases/my-privacy/my-privacy.sol\":884:1135  if(msg.sender == owner || personal_users[msg.sender]){... */\n      iszero\n      tag_77\n      jumpi\n        /* \"contracts/use-cases/my-privacy/my-privacy.sol\":1531:1545  personal_info0 */\n      0x02\n        /* \"contracts/use-cases/my-privacy/my-privacy.sol\":1524:1545  return personal_info0 */\n      mload(0x40)\n      dup1\n      0x40\n      add\n      0x40\n      mstore\n      swap1\n      dup2\n      0x00\n      dup3\n      add\n      sload\n      dup2\n      mstore\n      0x20\n      add\n      0x01\n      dup3\n      add\n      dup1\n      sload\n      tag_79\n      swap1\n      tag_42\n      jump\t// in\n    tag_79:\n      dup1\n      0x1f\n      add\n      0x20\n      dup1\n      swap2\n      div\n      mul\n      0x20\n      add\n      mload(0x40)\n      swap1\n      dup2\n      add\n      0x40\n      mstore\n      dup1\n      swap3\n      swap2\n      swap1\n      dup2\n      dup2\n      mstore\n      0x20\n      add\n      dup3\n      dup1\n      sload\n      tag_80\n      swap1\n      tag_42\n      jump\t// in\n    tag_80:\n      dup1\n      iszero\n      tag_81\n      jumpi\n      dup1\n      0x1f\n      lt\n      tag_82\n      jumpi\n      0x0100\n      dup1\n      dup4\n      sload\n      div\n      mul\n      dup4\n      mstore\n      swap2\n      0x20\n      add\n      swap2\n      jump(tag_81)\n    tag_82:\n      dup3\n      add\n      swap2\n      swap1\n      0x00\n      mstore\n      keccak256(0x00, 0x20)\n      swap1\n    tag_83:\n      dup2\n      sload\n      dup2\n      mstore\n      swap1\n      0x01\n      add\n      swap1\n      0x20\n      add\n      dup1\n      dup4\n      gt\n      tag_83\n      jumpi\n      dup3\n      swap1\n      sub\n      0x1f\n      and\n      dup3\n      add\n      swap2\n    tag_81:\n      pop\n      pop\n      pop\n      pop\n      pop\n      dup2\n      mstore\n      pop\n      pop\n      swap2\n      pop\n        /* \"contracts/use-cases/my-privacy/my-privacy.sol\":884:1135  if(msg.sender == owner || personal_users[msg.sender]){... */\n      jump(tag_84)\n    tag_77:\n        /* \"contracts/use-cases/my-privacy/my-privacy.sol\":985:1000  user_type.basic */\n      0x00\n        /* \"contracts/use-cases/my-privacy/my-privacy.sol\":971:1000  user_type0 == user_type.basic */\n      0x01\n      dup2\n      gt\n      iszero\n      tag_85\n      jumpi\n      tag_86\n      tag_25\n      jump\t// in\n    tag_86:\n    tag_85:\n        /* \"contracts/use-cases/my-privacy/my-privacy.sol\":971:981  user_type0 */\n      dup2\n        /* \"contracts/use-cases/my-privacy/my-privacy.sol\":971:1000  user_type0 == user_type.basic */\n      0x01\n      dup2\n      gt\n      iszero\n      tag_87\n      jumpi\n      tag_88\n      tag_25\n      jump\t// in\n    tag_88:\n    tag_87:\n      eq\n        /* \"contracts/use-cases/my-privacy/my-privacy.sol\":971:1027  user_type0 == user_type.basic && basic_users[msg.sender] */\n      dup1\n      iszero\n      tag_89\n      jumpi\n      pop\n        /* \"contracts/use-cases/my-privacy/my-privacy.sol\":1004:1015  basic_users */\n      0x05\n        /* \"contracts/use-cases/my-privacy/my-privacy.sol\":1004:1027  basic_users[msg.sender] */\n      0x00\n        /* \"contracts/use-cases/my-privacy/my-privacy.sol\":1016:1026  msg.sender */\n      caller\n        /* \"contracts/use-cases/my-privacy/my-privacy.sol\":1004:1027  basic_users[msg.sender] */\n      0xffffffffffffffffffffffffffffffffffffffff\n      and\n      0xffffffffffffffffffffffffffffffffffffffff\n      and\n      dup2\n      mstore\n      0x20\n      add\n      swap1\n      dup2\n      mstore\n      0x20\n      add\n      0x00\n      keccak256\n      0x00\n      swap1\n      sload\n      swap1\n      0x0100\n      exp\n      swap1\n      div\n      0xff\n      and\n        /* \"contracts/use-cases/my-privacy/my-privacy.sol\":971:1027  user_type0 == user_type.basic && basic_users[msg.sender] */\n    tag_89:\n        /* \"contracts/use-cases/my-privacy/my-privacy.sol\":968:1135  if(user_type0 == user_type.basic && basic_users[msg.sender]){... */\n      iszero\n      tag_90\n      jumpi\n        /* \"contracts/use-cases/my-privacy/my-privacy.sol\":1531:1545  personal_info0 */\n      0x02\n        /* \"contracts/use-cases/my-privacy/my-privacy.sol\":1524:1545  return personal_info0 */\n      mload(0x40)\n      dup1\n      0x40\n      add\n      0x40\n      mstore\n      swap1\n      dup2\n      0x00\n      dup3\n      add\n      sload\n      dup2\n      mstore\n      0x20\n      add\n      0x01\n      dup3\n      add\n      dup1\n      sload\n      tag_92\n      swap1\n      tag_42\n      jump\t// in\n    tag_92:\n      dup1\n      0x1f\n      add\n      0x20\n      dup1\n      swap2\n      div\n      mul\n      0x20\n      add\n      mload(0x40)\n      swap1\n      dup2\n      add\n      0x40\n      mstore\n      dup1\n      swap3\n      swap2\n      swap1\n      dup2\n      dup2\n      mstore\n      0x20\n      add\n      dup3\n      dup1\n      sload\n      tag_93\n      swap1\n      tag_42\n      jump\t// in\n    tag_93:\n      dup1\n      iszero\n      tag_94\n      jumpi\n      dup1\n      0x1f\n      lt\n      tag_95\n      jumpi\n      0x0100\n      dup1\n      dup4\n      sload\n      div\n      mul\n      dup4\n      mstore\n      swap2\n      0x20\n      add\n      swap2\n      jump(tag_94)\n    tag_95:\n      dup3\n      add\n      swap2\n      swap1\n      0x00\n      mstore\n      keccak256(0x00, 0x20)\n      swap1\n    tag_96:\n      dup2\n      sload\n      dup2\n      mstore\n      swap1\n      0x01\n      add\n      swap1\n      0x20\n      add\n      dup1\n      dup4\n      gt\n      tag_96\n      jumpi\n      dup3\n      swap1\n      sub\n      0x1f\n      and\n      dup3\n      add\n      swap2\n    tag_94:\n      pop\n      pop\n      pop\n      pop\n      pop\n      dup2\n      mstore\n      pop\n      pop\n      swap2\n      pop\n        /* \"contracts/use-cases/my-privacy/my-privacy.sol\":968:1135  if(user_type0 == user_type.basic && basic_users[msg.sender]){... */\n      jump(tag_97)\n    tag_90:\n        /* \"contracts/use-cases/my-privacy/my-privacy.sol\":1101:1111  msg.sender */\n      caller\n        /* \"contracts/use-cases/my-privacy/my-privacy.sol\":1113:1123  user_type0 */\n      dup2\n        /* \"contracts/use-cases/my-privacy/my-privacy.sol\":1082:1124  user_un_authorized(msg.sender, user_type0) */\n      mload(0x40)\n      0x54e896ee00000000000000000000000000000000000000000000000000000000\n      dup2\n      mstore\n      0x04\n      add\n      tag_98\n      swap3\n      swap2\n      swap1\n      tag_72\n      jump\t// in\n    tag_98:\n      mload(0x40)\n      dup1\n      swap2\n      sub\n      swap1\n      revert\n        /* \"contracts/use-cases/my-privacy/my-privacy.sol\":968:1135  if(user_type0 == user_type.basic && basic_users[msg.sender]){... */\n    tag_97:\n        /* \"contracts/use-cases/my-privacy/my-privacy.sol\":884:1135  if(msg.sender == owner || personal_users[msg.sender]){... */\n    tag_84:\n        /* \"contracts/use-cases/my-privacy/my-privacy.sol\":1405:1552  function get_personal_infor() public view authorize_user(  user_type.personal) returns (personal_info memory){... */\n      pop\n      swap1\n      jump\t// out\n    tag_36:\n      mload(0x40)\n      dup1\n      0x40\n      add\n      0x40\n      mstore\n      dup1\n      0x60\n      dup2\n      mstore\n      0x20\n      add\n      0x60\n      dup2\n      mstore\n      pop\n      swap1\n      jump\t// out\n    tag_74:\n      mload(0x40)\n      dup1\n      0x40\n      add\n      0x40\n      mstore\n      dup1\n      0x00\n      dup2\n      mstore\n      0x20\n      add\n      0x60\n      dup2\n      mstore\n      pop\n      swap1\n      jump\t// out\n        /* \"#utility.yul\":88:205   */\n    tag_100:\n        /* \"#utility.yul\":197:198   */\n      0x00\n        /* \"#utility.yul\":194:195   */\n      dup1\n        /* \"#utility.yul\":187:199   */\n      revert\n        /* \"#utility.yul\":334:445   */\n    tag_102:\n        /* \"#utility.yul\":419:420   */\n      0x02\n        /* \"#utility.yul\":412:417   */\n      dup2\n        /* \"#utility.yul\":409:421   */\n      lt\n        /* \"#utility.yul\":399:439   */\n      tag_131\n      jumpi\n        /* \"#utility.yul\":435:436   */\n      0x00\n        /* \"#utility.yul\":432:433   */\n      dup1\n        /* \"#utility.yul\":425:437   */\n      revert\n        /* \"#utility.yul\":399:439   */\n    tag_131:\n        /* \"#utility.yul\":334:445   */\n      pop\n      jump\t// out\n        /* \"#utility.yul\":451:614   */\n    tag_103:\n        /* \"#utility.yul\":509:514   */\n      0x00\n        /* \"#utility.yul\":547:553   */\n      dup2\n        /* \"#utility.yul\":534:554   */\n      calldataload\n        /* \"#utility.yul\":525:554   */\n      swap1\n      pop\n        /* \"#utility.yul\":563:608   */\n      tag_133\n        /* \"#utility.yul\":602:607   */\n      dup2\n        /* \"#utility.yul\":563:608   */\n      tag_102\n      jump\t// in\n    tag_133:\n        /* \"#utility.yul\":451:614   */\n      swap3\n      swap2\n      pop\n      pop\n      jump\t// out\n        /* \"#utility.yul\":620:746   */\n    tag_104:\n        /* \"#utility.yul\":657:664   */\n      0x00\n        /* \"#utility.yul\":697:739   */\n      0xffffffffffffffffffffffffffffffffffffffff\n        /* \"#utility.yul\":690:695   */\n      dup3\n        /* \"#utility.yul\":686:740   */\n      and\n        /* \"#utility.yul\":675:740   */\n      swap1\n      pop\n        /* \"#utility.yul\":620:746   */\n      swap2\n      swap1\n      pop\n      jump\t// out\n        /* \"#utility.yul\":752:848   */\n    tag_105:\n        /* \"#utility.yul\":789:796   */\n      0x00\n        /* \"#utility.yul\":818:842   */\n      tag_136\n        /* \"#utility.yul\":836:841   */\n      dup3\n        /* \"#utility.yul\":818:842   */\n      tag_104\n      jump\t// in\n    tag_136:\n        /* \"#utility.yul\":807:842   */\n      swap1\n      pop\n        /* \"#utility.yul\":752:848   */\n      swap2\n      swap1\n      pop\n      jump\t// out\n        /* \"#utility.yul\":854:976   */\n    tag_106:\n        /* \"#utility.yul\":927:951   */\n      tag_138\n        /* \"#utility.yul\":945:950   */\n      dup2\n        /* \"#utility.yul\":927:951   */\n      tag_105\n      jump\t// in\n    tag_138:\n        /* \"#utility.yul\":920:925   */\n      dup2\n        /* \"#utility.yul\":917:952   */\n      eq\n        /* \"#utility.yul\":907:970   */\n      tag_139\n      jumpi\n        /* \"#utility.yul\":966:967   */\n      0x00\n        /* \"#utility.yul\":963:964   */\n      dup1\n        /* \"#utility.yul\":956:968   */\n      revert\n        /* \"#utility.yul\":907:970   */\n    tag_139:\n        /* \"#utility.yul\":854:976   */\n      pop\n      jump\t// out\n        /* \"#utility.yul\":982:1121   */\n    tag_107:\n        /* \"#utility.yul\":1028:1033   */\n      0x00\n        /* \"#utility.yul\":1066:1072   */\n      dup2\n        /* \"#utility.yul\":1053:1073   */\n      calldataload\n        /* \"#utility.yul\":1044:1073   */\n      swap1\n      pop\n        /* \"#utility.yul\":1082:1115   */\n      tag_141\n        /* \"#utility.yul\":1109:1114   */\n      dup2\n        /* \"#utility.yul\":1082:1115   */\n      tag_106\n      jump\t// in\n    tag_141:\n        /* \"#utility.yul\":982:1121   */\n      swap3\n      swap2\n      pop\n      pop\n      jump\t// out\n        /* \"#utility.yul\":1127:1625   */\n    tag_8:\n        /* \"#utility.yul\":1207:1213   */\n      0x00\n        /* \"#utility.yul\":1215:1221   */\n      dup1\n        /* \"#utility.yul\":1264:1266   */\n      0x40\n        /* \"#utility.yul\":1252:1261   */\n      dup4\n        /* \"#utility.yul\":1243:1250   */\n      dup6\n        /* \"#utility.yul\":1239:1262   */\n      sub\n        /* \"#utility.yul\":1235:1267   */\n      slt\n        /* \"#utility.yul\":1232:1351   */\n      iszero\n      tag_143\n      jumpi\n        /* \"#utility.yul\":1270:1349   */\n      tag_144\n      tag_100\n      jump\t// in\n    tag_144:\n        /* \"#utility.yul\":1232:1351   */\n    tag_143:\n        /* \"#utility.yul\":1390:1391   */\n      0x00\n        /* \"#utility.yul\":1415:1480   */\n      tag_145\n        /* \"#utility.yul\":1472:1479   */\n      dup6\n        /* \"#utility.yul\":1463:1469   */\n      dup3\n        /* \"#utility.yul\":1452:1461   */\n      dup7\n        /* \"#utility.yul\":1448:1470   */\n      add\n        /* \"#utility.yul\":1415:1480   */\n      tag_103\n      jump\t// in\n    tag_145:\n        /* \"#utility.yul\":1405:1480   */\n      swap3\n      pop\n        /* \"#utility.yul\":1361:1490   */\n      pop\n        /* \"#utility.yul\":1529:1531   */\n      0x20\n        /* \"#utility.yul\":1555:1608   */\n      tag_146\n        /* \"#utility.yul\":1600:1607   */\n      dup6\n        /* \"#utility.yul\":1591:1597   */\n      dup3\n        /* \"#utility.yul\":1580:1589   */\n      dup7\n        /* \"#utility.yul\":1576:1598   */\n      add\n        /* \"#utility.yul\":1555:1608   */\n      tag_107\n      jump\t// in\n    tag_146:\n        /* \"#utility.yul\":1545:1608   */\n      swap2\n      pop\n        /* \"#utility.yul\":1500:1618   */\n      pop\n        /* \"#utility.yul\":1127:1625   */\n      swap3\n      pop\n      swap3\n      swap1\n      pop\n      jump\t// out\n        /* \"#utility.yul\":1631:1730   */\n    tag_108:\n        /* \"#utility.yul\":1683:1689   */\n      0x00\n        /* \"#utility.yul\":1717:1722   */\n      dup2\n        /* \"#utility.yul\":1711:1723   */\n      mload\n        /* \"#utility.yul\":1701:1723   */\n      swap1\n      pop\n        /* \"#utility.yul\":1631:1730   */\n      swap2\n      swap1\n      pop\n      jump\t// out\n        /* \"#utility.yul\":1736:1895   */\n    tag_109:\n        /* \"#utility.yul\":1810:1821   */\n      0x00\n        /* \"#utility.yul\":1844:1850   */\n      dup3\n        /* \"#utility.yul\":1839:1842   */\n      dup3\n        /* \"#utility.yul\":1832:1851   */\n      mstore\n        /* \"#utility.yul\":1884:1888   */\n      0x20\n        /* \"#utility.yul\":1879:1882   */\n      dup3\n        /* \"#utility.yul\":1875:1889   */\n      add\n        /* \"#utility.yul\":1860:1889   */\n      swap1\n      pop\n        /* \"#utility.yul\":1736:1895   */\n      swap3\n      swap2\n      pop\n      pop\n      jump\t// out\n        /* \"#utility.yul\":1901:2147   */\n    tag_110:\n        /* \"#utility.yul\":1982:1983   */\n      0x00\n        /* \"#utility.yul\":1992:2105   */\n    tag_150:\n        /* \"#utility.yul\":2006:2012   */\n      dup4\n        /* \"#utility.yul\":2003:2004   */\n      dup2\n        /* \"#utility.yul\":2000:2013   */\n      lt\n        /* \"#utility.yul\":1992:2105   */\n      iszero\n      tag_152\n      jumpi\n        /* \"#utility.yul\":2091:2092   */\n      dup1\n        /* \"#utility.yul\":2086:2089   */\n      dup3\n        /* \"#utility.yul\":2082:2093   */\n      add\n        /* \"#utility.yul\":2076:2094   */\n      mload\n        /* \"#utility.yul\":2072:2073   */\n      dup2\n        /* \"#utility.yul\":2067:2070   */\n      dup5\n        /* \"#utility.yul\":2063:2074   */\n      add\n        /* \"#utility.yul\":2056:2095   */\n      mstore\n        /* \"#utility.yul\":2028:2030   */\n      0x20\n        /* \"#utility.yul\":2025:2026   */\n      dup2\n        /* \"#utility.yul\":2021:2031   */\n      add\n        /* \"#utility.yul\":2016:2031   */\n      swap1\n      pop\n        /* \"#utility.yul\":1992:2105   */\n      jump(tag_150)\n    tag_152:\n        /* \"#utility.yul\":2139:2140   */\n      0x00\n        /* \"#utility.yul\":2130:2136   */\n      dup5\n        /* \"#utility.yul\":2125:2128   */\n      dup5\n        /* \"#utility.yul\":2121:2137   */\n      add\n        /* \"#utility.yul\":2114:2141   */\n      mstore\n        /* \"#utility.yul\":1963:2147   */\n      pop\n        /* \"#utility.yul\":1901:2147   */\n      pop\n      pop\n      pop\n      jump\t// out\n        /* \"#utility.yul\":2153:2255   */\n    tag_111:\n        /* \"#utility.yul\":2194:2200   */\n      0x00\n        /* \"#utility.yul\":2245:2247   */\n      0x1f\n        /* \"#utility.yul\":2241:2248   */\n      not\n        /* \"#utility.yul\":2236:2238   */\n      0x1f\n        /* \"#utility.yul\":2229:2234   */\n      dup4\n        /* \"#utility.yul\":2225:2239   */\n      add\n        /* \"#utility.yul\":2221:2249   */\n      and\n        /* \"#utility.yul\":2211:2249   */\n      swap1\n      pop\n        /* \"#utility.yul\":2153:2255   */\n      swap2\n      swap1\n      pop\n      jump\t// out\n        /* \"#utility.yul\":2261:2618   */\n    tag_112:\n        /* \"#utility.yul\":2339:2342   */\n      0x00\n        /* \"#utility.yul\":2367:2406   */\n      tag_155\n        /* \"#utility.yul\":2400:2405   */\n      dup3\n        /* \"#utility.yul\":2367:2406   */\n      tag_108\n      jump\t// in\n    tag_155:\n        /* \"#utility.yul\":2422:2483   */\n      tag_156\n        /* \"#utility.yul\":2476:2482   */\n      dup2\n        /* \"#utility.yul\":2471:2474   */\n      dup6\n        /* \"#utility.yul\":2422:2483   */\n      tag_109\n      jump\t// in\n    tag_156:\n        /* \"#utility.yul\":2415:2483   */\n      swap4\n      pop\n        /* \"#utility.yul\":2492:2557   */\n      tag_157\n        /* \"#utility.yul\":2550:2556   */\n      dup2\n        /* \"#utility.yul\":2545:2548   */\n      dup6\n        /* \"#utility.yul\":2538:2542   */\n      0x20\n        /* \"#utility.yul\":2531:2536   */\n      dup7\n        /* \"#utility.yul\":2527:2543   */\n      add\n        /* \"#utility.yul\":2492:2557   */\n      tag_110\n      jump\t// in\n    tag_157:\n        /* \"#utility.yul\":2582:2611   */\n      tag_158\n        /* \"#utility.yul\":2604:2610   */\n      dup2\n        /* \"#utility.yul\":2582:2611   */\n      tag_111\n      jump\t// in\n    tag_158:\n        /* \"#utility.yul\":2577:2580   */\n      dup5\n        /* \"#utility.yul\":2573:2612   */\n      add\n        /* \"#utility.yul\":2566:2612   */\n      swap2\n      pop\n        /* \"#utility.yul\":2343:2618   */\n      pop\n        /* \"#utility.yul\":2261:2618   */\n      swap3\n      swap2\n      pop\n      pop\n      jump\t// out\n        /* \"#utility.yul\":2688:3366   */\n    tag_113:\n        /* \"#utility.yul\":2807:2810   */\n      0x00\n        /* \"#utility.yul\":2843:2847   */\n      0x40\n        /* \"#utility.yul\":2838:2841   */\n      dup4\n        /* \"#utility.yul\":2834:2848   */\n      add\n        /* \"#utility.yul\":2930:2934   */\n      0x00\n        /* \"#utility.yul\":2923:2928   */\n      dup4\n        /* \"#utility.yul\":2919:2935   */\n      add\n        /* \"#utility.yul\":2913:2936   */\n      mload\n        /* \"#utility.yul\":2983:2986   */\n      dup5\n        /* \"#utility.yul\":2977:2981   */\n      dup3\n        /* \"#utility.yul\":2973:2987   */\n      sub\n        /* \"#utility.yul\":2966:2970   */\n      0x00\n        /* \"#utility.yul\":2961:2964   */\n      dup7\n        /* \"#utility.yul\":2957:2971   */\n      add\n        /* \"#utility.yul\":2950:2988   */\n      mstore\n        /* \"#utility.yul\":3009:3082   */\n      tag_160\n        /* \"#utility.yul\":3077:3081   */\n      dup3\n        /* \"#utility.yul\":3063:3075   */\n      dup3\n        /* \"#utility.yul\":3009:3082   */\n      tag_112\n      jump\t// in\n    tag_160:\n        /* \"#utility.yul\":3001:3082   */\n      swap2\n      pop\n        /* \"#utility.yul\":2858:3093   */\n      pop\n        /* \"#utility.yul\":3176:3180   */\n      0x20\n        /* \"#utility.yul\":3169:3174   */\n      dup4\n        /* \"#utility.yul\":3165:3181   */\n      add\n        /* \"#utility.yul\":3159:3182   */\n      mload\n        /* \"#utility.yul\":3229:3232   */\n      dup5\n        /* \"#utility.yul\":3223:3227   */\n      dup3\n        /* \"#utility.yul\":3219:3233   */\n      sub\n        /* \"#utility.yul\":3212:3216   */\n      0x20\n        /* \"#utility.yul\":3207:3210   */\n      dup7\n        /* \"#utility.yul\":3203:3217   */\n      add\n        /* \"#utility.yul\":3196:3234   */\n      mstore\n        /* \"#utility.yul\":3255:3328   */\n      tag_161\n        /* \"#utility.yul\":3323:3327   */\n      dup3\n        /* \"#utility.yul\":3309:3321   */\n      dup3\n        /* \"#utility.yul\":3255:3328   */\n      tag_112\n      jump\t// in\n    tag_161:\n        /* \"#utility.yul\":3247:3328   */\n      swap2\n      pop\n        /* \"#utility.yul\":3103:3339   */\n      pop\n        /* \"#utility.yul\":3356:3360   */\n      dup1\n        /* \"#utility.yul\":3349:3360   */\n      swap2\n      pop\n        /* \"#utility.yul\":2812:3366   */\n      pop\n        /* \"#utility.yul\":2688:3366   */\n      swap3\n      swap2\n      pop\n      pop\n      jump\t// out\n        /* \"#utility.yul\":3372:3745   */\n    tag_13:\n        /* \"#utility.yul\":3515:3519   */\n      0x00\n        /* \"#utility.yul\":3553:3555   */\n      0x20\n        /* \"#utility.yul\":3542:3551   */\n      dup3\n        /* \"#utility.yul\":3538:3556   */\n      add\n        /* \"#utility.yul\":3530:3556   */\n      swap1\n      pop\n        /* \"#utility.yul\":3602:3611   */\n      dup2\n        /* \"#utility.yul\":3596:3600   */\n      dup2\n        /* \"#utility.yul\":3592:3612   */\n      sub\n        /* \"#utility.yul\":3588:3589   */\n      0x00\n        /* \"#utility.yul\":3577:3586   */\n      dup4\n        /* \"#utility.yul\":3573:3590   */\n      add\n        /* \"#utility.yul\":3566:3613   */\n      mstore\n        /* \"#utility.yul\":3630:3738   */\n      tag_163\n        /* \"#utility.yul\":3733:3737   */\n      dup2\n        /* \"#utility.yul\":3724:3730   */\n      dup5\n        /* \"#utility.yul\":3630:3738   */\n      tag_113\n      jump\t// in\n    tag_163:\n        /* \"#utility.yul\":3622:3738   */\n      swap1\n      pop\n        /* \"#utility.yul\":3372:3745   */\n      swap3\n      swap2\n      pop\n      pop\n      jump\t// out\n        /* \"#utility.yul\":3751:3828   */\n    tag_114:\n        /* \"#utility.yul\":3788:3795   */\n      0x00\n        /* \"#utility.yul\":3817:3822   */\n      dup2\n        /* \"#utility.yul\":3806:3822   */\n      swap1\n      pop\n        /* \"#utility.yul\":3751:3828   */\n      swap2\n      swap1\n      pop\n      jump\t// out\n        /* \"#utility.yul\":3834:3942   */\n    tag_115:\n        /* \"#utility.yul\":3911:3935   */\n      tag_166\n        /* \"#utility.yul\":3929:3934   */\n      dup2\n        /* \"#utility.yul\":3911:3935   */\n      tag_114\n      jump\t// in\n    tag_166:\n        /* \"#utility.yul\":3906:3909   */\n      dup3\n        /* \"#utility.yul\":3899:3936   */\n      mstore\n        /* \"#utility.yul\":3834:3942   */\n      pop\n      pop\n      jump\t// out\n        /* \"#utility.yul\":4018:4638   */\n    tag_116:\n        /* \"#utility.yul\":4145:4148   */\n      0x00\n        /* \"#utility.yul\":4181:4185   */\n      0x40\n        /* \"#utility.yul\":4176:4179   */\n      dup4\n        /* \"#utility.yul\":4172:4186   */\n      add\n        /* \"#utility.yul\":4270:4274   */\n      0x00\n        /* \"#utility.yul\":4263:4268   */\n      dup4\n        /* \"#utility.yul\":4259:4275   */\n      add\n        /* \"#utility.yul\":4253:4276   */\n      mload\n        /* \"#utility.yul\":4289:4352   */\n      tag_168\n        /* \"#utility.yul\":4346:4350   */\n      0x00\n        /* \"#utility.yul\":4341:4344   */\n      dup7\n        /* \"#utility.yul\":4337:4351   */\n      add\n        /* \"#utility.yul\":4323:4335   */\n      dup3\n        /* \"#utility.yul\":4289:4352   */\n      tag_115\n      jump\t// in\n    tag_168:\n        /* \"#utility.yul\":4196:4362   */\n      pop\n        /* \"#utility.yul\":4448:4452   */\n      0x20\n        /* \"#utility.yul\":4441:4446   */\n      dup4\n        /* \"#utility.yul\":4437:4453   */\n      add\n        /* \"#utility.yul\":4431:4454   */\n      mload\n        /* \"#utility.yul\":4501:4504   */\n      dup5\n        /* \"#utility.yul\":4495:4499   */\n      dup3\n        /* \"#utility.yul\":4491:4505   */\n      sub\n        /* \"#utility.yul\":4484:4488   */\n      0x20\n        /* \"#utility.yul\":4479:4482   */\n      dup7\n        /* \"#utility.yul\":4475:4489   */\n      add\n        /* \"#utility.yul\":4468:4506   */\n      mstore\n        /* \"#utility.yul\":4527:4600   */\n      tag_169\n        /* \"#utility.yul\":4595:4599   */\n      dup3\n        /* \"#utility.yul\":4581:4593   */\n      dup3\n        /* \"#utility.yul\":4527:4600   */\n      tag_112\n      jump\t// in\n    tag_169:\n        /* \"#utility.yul\":4519:4600   */\n      swap2\n      pop\n        /* \"#utility.yul\":4372:4611   */\n      pop\n        /* \"#utility.yul\":4628:4632   */\n      dup1\n        /* \"#utility.yul\":4621:4632   */\n      swap2\n      pop\n        /* \"#utility.yul\":4150:4638   */\n      pop\n        /* \"#utility.yul\":4018:4638   */\n      swap3\n      swap2\n      pop\n      pop\n      jump\t// out\n        /* \"#utility.yul\":4644:5033   */\n    tag_17:\n        /* \"#utility.yul\":4795:4799   */\n      0x00\n        /* \"#utility.yul\":4833:4835   */\n      0x20\n        /* \"#utility.yul\":4822:4831   */\n      dup3\n        /* \"#utility.yul\":4818:4836   */\n      add\n        /* \"#utility.yul\":4810:4836   */\n      swap1\n      pop\n        /* \"#utility.yul\":4882:4891   */\n      dup2\n        /* \"#utility.yul\":4876:4880   */\n      dup2\n        /* \"#utility.yul\":4872:4892   */\n      sub\n        /* \"#utility.yul\":4868:4869   */\n      0x00\n        /* \"#utility.yul\":4857:4866   */\n      dup4\n        /* \"#utility.yul\":4853:4870   */\n      add\n        /* \"#utility.yul\":4846:4893   */\n      mstore\n        /* \"#utility.yul\":4910:5026   */\n      tag_171\n        /* \"#utility.yul\":5021:5025   */\n      dup2\n        /* \"#utility.yul\":5012:5018   */\n      dup5\n        /* \"#utility.yul\":4910:5026   */\n      tag_116\n      jump\t// in\n    tag_171:\n        /* \"#utility.yul\":4902:5026   */\n      swap1\n      pop\n        /* \"#utility.yul\":4644:5033   */\n      swap3\n      swap2\n      pop\n      pop\n      jump\t// out\n        /* \"#utility.yul\":5039:5208   */\n    tag_117:\n        /* \"#utility.yul\":5123:5134   */\n      0x00\n        /* \"#utility.yul\":5157:5163   */\n      dup3\n        /* \"#utility.yul\":5152:5155   */\n      dup3\n        /* \"#utility.yul\":5145:5164   */\n      mstore\n        /* \"#utility.yul\":5197:5201   */\n      0x20\n        /* \"#utility.yul\":5192:5195   */\n      dup3\n        /* \"#utility.yul\":5188:5202   */\n      add\n        /* \"#utility.yul\":5173:5202   */\n      swap1\n      pop\n        /* \"#utility.yul\":5039:5208   */\n      swap3\n      swap2\n      pop\n      pop\n      jump\t// out\n        /* \"#utility.yul\":5214:5394   */\n    tag_118:\n        /* \"#utility.yul\":5354:5386   */\n      0x4f6e6c79206f776e65722063616e20617574686f72697a652075736572730000\n        /* \"#utility.yul\":5350:5351   */\n      0x00\n        /* \"#utility.yul\":5342:5348   */\n      dup3\n        /* \"#utility.yul\":5338:5352   */\n      add\n        /* \"#utility.yul\":5331:5387   */\n      mstore\n        /* \"#utility.yul\":5214:5394   */\n      pop\n      jump\t// out\n        /* \"#utility.yul\":5400:5766   */\n    tag_119:\n        /* \"#utility.yul\":5542:5545   */\n      0x00\n        /* \"#utility.yul\":5563:5630   */\n      tag_175\n        /* \"#utility.yul\":5627:5629   */\n      0x1e\n        /* \"#utility.yul\":5622:5625   */\n      dup4\n        /* \"#utility.yul\":5563:5630   */\n      tag_117\n      jump\t// in\n    tag_175:\n        /* \"#utility.yul\":5556:5630   */\n      swap2\n      pop\n        /* \"#utility.yul\":5639:5732   */\n      tag_176\n        /* \"#utility.yul\":5728:5731   */\n      dup3\n        /* \"#utility.yul\":5639:5732   */\n      tag_118\n      jump\t// in\n    tag_176:\n        /* \"#utility.yul\":5757:5759   */\n      0x20\n        /* \"#utility.yul\":5752:5755   */\n      dup3\n        /* \"#utility.yul\":5748:5760   */\n      add\n        /* \"#utility.yul\":5741:5760   */\n      swap1\n      pop\n        /* \"#utility.yul\":5400:5766   */\n      swap2\n      swap1\n      pop\n      jump\t// out\n        /* \"#utility.yul\":5772:6191   */\n    tag_21:\n        /* \"#utility.yul\":5938:5942   */\n      0x00\n        /* \"#utility.yul\":5976:5978   */\n      0x20\n        /* \"#utility.yul\":5965:5974   */\n      dup3\n        /* \"#utility.yul\":5961:5979   */\n      add\n        /* \"#utility.yul\":5953:5979   */\n      swap1\n      pop\n        /* \"#utility.yul\":6025:6034   */\n      dup2\n        /* \"#utility.yul\":6019:6023   */\n      dup2\n        /* \"#utility.yul\":6015:6035   */\n      sub\n        /* \"#utility.yul\":6011:6012   */\n      0x00\n        /* \"#utility.yul\":6000:6009   */\n      dup4\n        /* \"#utility.yul\":5996:6013   */\n      add\n        /* \"#utility.yul\":5989:6036   */\n      mstore\n        /* \"#utility.yul\":6053:6184   */\n      tag_178\n        /* \"#utility.yul\":6179:6183   */\n      dup2\n        /* \"#utility.yul\":6053:6184   */\n      tag_119\n      jump\t// in\n    tag_178:\n        /* \"#utility.yul\":6045:6184   */\n      swap1\n      pop\n        /* \"#utility.yul\":5772:6191   */\n      swap2\n      swap1\n      pop\n      jump\t// out\n        /* \"#utility.yul\":6197:6377   */\n    tag_25:\n        /* \"#utility.yul\":6245:6322   */\n      0x4e487b7100000000000000000000000000000000000000000000000000000000\n        /* \"#utility.yul\":6242:6243   */\n      0x00\n        /* \"#utility.yul\":6235:6323   */\n      mstore\n        /* \"#utility.yul\":6342:6346   */\n      0x21\n        /* \"#utility.yul\":6339:6340   */\n      0x04\n        /* \"#utility.yul\":6332:6347   */\n      mstore\n        /* \"#utility.yul\":6366:6370   */\n      0x24\n        /* \"#utility.yul\":6363:6364   */\n      0x00\n        /* \"#utility.yul\":6356:6371   */\n      revert\n        /* \"#utility.yul\":6383:6563   */\n    tag_120:\n        /* \"#utility.yul\":6431:6508   */\n      0x4e487b7100000000000000000000000000000000000000000000000000000000\n        /* \"#utility.yul\":6428:6429   */\n      0x00\n        /* \"#utility.yul\":6421:6509   */\n      mstore\n        /* \"#utility.yul\":6528:6532   */\n      0x22\n        /* \"#utility.yul\":6525:6526   */\n      0x04\n        /* \"#utility.yul\":6518:6533   */\n      mstore\n        /* \"#utility.yul\":6552:6556   */\n      0x24\n        /* \"#utility.yul\":6549:6550   */\n      0x00\n        /* \"#utility.yul\":6542:6557   */\n      revert\n        /* \"#utility.yul\":6569:6889   */\n    tag_42:\n        /* \"#utility.yul\":6613:6619   */\n      0x00\n        /* \"#utility.yul\":6650:6651   */\n      0x02\n        /* \"#utility.yul\":6644:6648   */\n      dup3\n        /* \"#utility.yul\":6640:6652   */\n      div\n        /* \"#utility.yul\":6630:6652   */\n      swap1\n      pop\n        /* \"#utility.yul\":6697:6698   */\n      0x01\n        /* \"#utility.yul\":6691:6695   */\n      dup3\n        /* \"#utility.yul\":6687:6699   */\n      and\n        /* \"#utility.yul\":6718:6736   */\n      dup1\n        /* \"#utility.yul\":6708:6789   */\n      tag_182\n      jumpi\n        /* \"#utility.yul\":6774:6778   */\n      0x7f\n        /* \"#utility.yul\":6766:6772   */\n      dup3\n        /* \"#utility.yul\":6762:6779   */\n      and\n        /* \"#utility.yul\":6752:6779   */\n      swap2\n      pop\n        /* \"#utility.yul\":6708:6789   */\n    tag_182:\n        /* \"#utility.yul\":6836:6838   */\n      0x20\n        /* \"#utility.yul\":6828:6834   */\n      dup3\n        /* \"#utility.yul\":6825:6839   */\n      lt\n        /* \"#utility.yul\":6805:6823   */\n      dup2\n        /* \"#utility.yul\":6802:6840   */\n      sub\n        /* \"#utility.yul\":6799:6883   */\n      tag_183\n      jumpi\n        /* \"#utility.yul\":6855:6873   */\n      tag_184\n      tag_120\n      jump\t// in\n    tag_184:\n        /* \"#utility.yul\":6799:6883   */\n    tag_183:\n        /* \"#utility.yul\":6620:6889   */\n      pop\n        /* \"#utility.yul\":6569:6889   */\n      swap2\n      swap1\n      pop\n      jump\t// out\n        /* \"#utility.yul\":6895:7013   */\n    tag_121:\n        /* \"#utility.yul\":6982:7006   */\n      tag_186\n        /* \"#utility.yul\":7000:7005   */\n      dup2\n        /* \"#utility.yul\":6982:7006   */\n      tag_105\n      jump\t// in\n    tag_186:\n        /* \"#utility.yul\":6977:6980   */\n      dup3\n        /* \"#utility.yul\":6970:7007   */\n      mstore\n        /* \"#utility.yul\":6895:7013   */\n      pop\n      pop\n      jump\t// out\n        /* \"#utility.yul\":7019:7136   */\n    tag_122:\n        /* \"#utility.yul\":7104:7105   */\n      0x02\n        /* \"#utility.yul\":7097:7102   */\n      dup2\n        /* \"#utility.yul\":7094:7106   */\n      lt\n        /* \"#utility.yul\":7084:7130   */\n      tag_188\n      jumpi\n        /* \"#utility.yul\":7110:7128   */\n      tag_189\n      tag_25\n      jump\t// in\n    tag_189:\n        /* \"#utility.yul\":7084:7130   */\n    tag_188:\n        /* \"#utility.yul\":7019:7136   */\n      pop\n      jump\t// out\n        /* \"#utility.yul\":7142:7277   */\n    tag_123:\n        /* \"#utility.yul\":7191:7198   */\n      0x00\n        /* \"#utility.yul\":7220:7225   */\n      dup2\n        /* \"#utility.yul\":7209:7225   */\n      swap1\n      pop\n        /* \"#utility.yul\":7226:7271   */\n      tag_191\n        /* \"#utility.yul\":7265:7270   */\n      dup3\n        /* \"#utility.yul\":7226:7271   */\n      tag_122\n      jump\t// in\n    tag_191:\n        /* \"#utility.yul\":7142:7277   */\n      swap2\n      swap1\n      pop\n      jump\t// out\n        /* \"#utility.yul\":7283:7418   */\n    tag_124:\n        /* \"#utility.yul\":7343:7352   */\n      0x00\n        /* \"#utility.yul\":7376:7412   */\n      tag_193\n        /* \"#utility.yul\":7406:7411   */\n      dup3\n        /* \"#utility.yul\":7376:7412   */\n      tag_123\n      jump\t// in\n    tag_193:\n        /* \"#utility.yul\":7363:7412   */\n      swap1\n      pop\n        /* \"#utility.yul\":7283:7418   */\n      swap2\n      swap1\n      pop\n      jump\t// out\n        /* \"#utility.yul\":7424:7575   */\n    tag_125:\n        /* \"#utility.yul\":7521:7568   */\n      tag_195\n        /* \"#utility.yul\":7562:7567   */\n      dup2\n        /* \"#utility.yul\":7521:7568   */\n      tag_124\n      jump\t// in\n    tag_195:\n        /* \"#utility.yul\":7516:7519   */\n      dup3\n        /* \"#utility.yul\":7509:7569   */\n      mstore\n        /* \"#utility.yul\":7424:7575   */\n      pop\n      pop\n      jump\t// out\n        /* \"#utility.yul\":7581:7933   */\n    tag_72:\n        /* \"#utility.yul\":7712:7716   */\n      0x00\n        /* \"#utility.yul\":7750:7752   */\n      0x40\n        /* \"#utility.yul\":7739:7748   */\n      dup3\n        /* \"#utility.yul\":7735:7753   */\n      add\n        /* \"#utility.yul\":7727:7753   */\n      swap1\n      pop\n        /* \"#utility.yul\":7763:7834   */\n      tag_197\n        /* \"#utility.yul\":7831:7832   */\n      0x00\n        /* \"#utility.yul\":7820:7829   */\n      dup4\n        /* \"#utility.yul\":7816:7833   */\n      add\n        /* \"#utility.yul\":7807:7813   */\n      dup6\n        /* \"#utility.yul\":7763:7834   */\n      tag_121\n      jump\t// in\n    tag_197:\n        /* \"#utility.yul\":7844:7926   */\n      tag_198\n        /* \"#utility.yul\":7922:7924   */\n      0x20\n        /* \"#utility.yul\":7911:7920   */\n      dup4\n        /* \"#utility.yul\":7907:7925   */\n      add\n        /* \"#utility.yul\":7898:7904   */\n      dup5\n        /* \"#utility.yul\":7844:7926   */\n      tag_125\n      jump\t// in\n    tag_198:\n        /* \"#utility.yul\":7581:7933   */\n      swap4\n      swap3\n      pop\n      pop\n      pop\n      jump\t// out\n\n    auxdata: 0xa2646970667358221220d9d8e2a9a743013e80451202820423759b1de7763d71f1efc2b15fb9f82e562864736f6c63430008120033\n}\n",
				"bytecode": {
					"linkReferences": {},
					"object": "60806040523480156200001157600080fd5b506040516200140c3803806200140c8339818101604052810190620000379190620002d5565b604051806040016040528085815260200184815250600080820151816000019081620000649190620005e5565b5060208201518160010190816200007c9190620005e5565b509050506040518060400160405280838152602001828152506002600082015181600001556020820151816001019081620000b89190620005e5565b5090505033600460006101000a81548173ffffffffffffffffffffffffffffffffffffffff021916908373ffffffffffffffffffffffffffffffffffffffff16021790555050505050620006cc565b6000604051905090565b600080fd5b600080fd5b600080fd5b600080fd5b6000601f19601f8301169050919050565b7f4e487b7100000000000000000000000000000000000000000000000000000000600052604160045260246000fd5b620001708262000125565b810181811067ffffffffffffffff8211171562000192576200019162000136565b5b80604052505050565b6000620001a762000107565b9050620001b5828262000165565b919050565b600067ffffffffffffffff821115620001d857620001d762000136565b5b620001e38262000125565b9050602081019050919050565b60005b8381101562000210578082015181840152602081019050620001f3565b60008484015250505050565b6000620002336200022d84620001ba565b6200019b565b90508281526020810184848401111562000252576200025162000120565b5b6200025f848285620001f0565b509392505050565b600082601f8301126200027f576200027e6200011b565b5b8151620002918482602086016200021c565b91505092915050565b6000819050919050565b620002af816200029a565b8114620002bb57600080fd5b50565b600081519050620002cf81620002a4565b92915050565b60008060008060808587031215620002f257620002f162000111565b5b600085015167ffffffffffffffff81111562000313576200031262000116565b5b620003218782880162000267565b945050602085015167ffffffffffffffff81111562000345576200034462000116565b5b620003538782880162000267565b93505060406200036687828801620002be565b925050606085015167ffffffffffffffff8111156200038a576200038962000116565b5b620003988782880162000267565b91505092959194509250565b600081519050919050565b7f4e487b7100000000000000000000000000000000000000000000000000000000600052602260045260246000fd5b60006002820490506001821680620003f757607f821691505b6020821081036200040d576200040c620003af565b5b50919050565b60008190508160005260206000209050919050565b60006020601f8301049050919050565b600082821b905092915050565b600060088302620004777fffffffffffffffffffffffffffffffffffffffffffffffffffffffffffffffff8262000438565b62000483868362000438565b95508019841693508086168417925050509392505050565b6000819050919050565b6000620004c6620004c0620004ba846200029a565b6200049b565b6200029a565b9050919050565b6000819050919050565b620004e283620004a5565b620004fa620004f182620004cd565b84845462000445565b825550505050565b600090565b6200051162000502565b6200051e818484620004d7565b505050565b5b8181101562000546576200053a60008262000507565b60018101905062000524565b5050565b601f82111562000595576200055f8162000413565b6200056a8462000428565b810160208510156200057a578190505b62000592620005898562000428565b83018262000523565b50505b505050565b600082821c905092915050565b6000620005ba600019846008026200059a565b1980831691505092915050565b6000620005d58383620005a7565b9150826002028217905092915050565b620005f082620003a4565b67ffffffffffffffff8111156200060c576200060b62000136565b5b620006188254620003de565b620006258282856200054a565b600060209050601f8311600181146200065d576000841562000648578287015190505b620006548582620005c7565b865550620006c4565b601f1984166200066d8662000413565b60005b82811015620006975784890151825560018201915060208501945060208101905062000670565b86831015620006b75784890151620006b3601f891682620005a7565b8355505b6001600288020188555050505b505050505050565b610d3080620006dc6000396000f3fe608060405234801561001057600080fd5b50600436106100415760003560e01c806313d67e35146100465780638cf36edc14610062578063c4f0d06714610080575b600080fd5b610060600480360381019061005b91906109c0565b61009e565b005b61006a610240565b6040516100779190610ad4565b60405180910390f35b61008861062a565b6040516100959190610b4c565b60405180910390f35b600460009054906101000a900473ffffffffffffffffffffffffffffffffffffffff1673ffffffffffffffffffffffffffffffffffffffff163373ffffffffffffffffffffffffffffffffffffffff161461012e576040517f08c379a000000000000000000000000000000000000000000000000000000000815260040161012590610bcb565b60405180910390fd5b6000600181111561014257610141610beb565b5b82600181111561015557610154610beb565b5b036101b7576001600560008373ffffffffffffffffffffffffffffffffffffffff1673ffffffffffffffffffffffffffffffffffffffff16815260200190815260200160002060006101000a81548160ff02191690831515021790555061023c565b6001808111156101ca576101c9610beb565b5b8260018111156101dd576101dc610beb565b5b0361023b576001600660008373ffffffffffffffffffffffffffffffffffffffff1673ffffffffffffffffffffffffffffffffffffffff16815260200190815260200160002060006101000a81548160ff0219169083151502179055505b5b5050565b610248610904565b6000600460009054906101000a900473ffffffffffffffffffffffffffffffffffffffff1673ffffffffffffffffffffffffffffffffffffffff163373ffffffffffffffffffffffffffffffffffffffff1614806102ef5750600660003373ffffffffffffffffffffffffffffffffffffffff1673ffffffffffffffffffffffffffffffffffffffff16815260200190815260200160002060009054906101000a900460ff165b1561042c57600060405180604001604052908160008201805461031190610c49565b80601f016020809104026020016040519081016040528092919081815260200182805461033d90610c49565b801561038a5780601f1061035f5761010080835404028352916020019161038a565b820191906000526020600020905b81548152906001019060200180831161036d57829003601f168201915b505050505081526020016001820180546103a390610c49565b80601f01602080910402602001604051908101604052809291908181526020018280546103cf90610c49565b801561041c5780601f106103f15761010080835404028352916020019161041c565b820191906000526020600020905b8154815290600101906020018083116103ff57829003601f168201915b5050505050815250509150610626565b600060018111156104405761043f610beb565b5b81600181111561045357610452610beb565b5b1480156104a95750600560003373ffffffffffffffffffffffffffffffffffffffff1673ffffffffffffffffffffffffffffffffffffffff16815260200190815260200160002060009054906101000a900460ff165b156105e65760006040518060400160405290816000820180546104cb90610c49565b80601f01602080910402602001604051908101604052809291908181526020018280546104f790610c49565b80156105445780601f1061051957610100808354040283529160200191610544565b820191906000526020600020905b81548152906001019060200180831161052757829003601f168201915b5050505050815260200160018201805461055d90610c49565b80601f016020809104026020016040519081016040528092919081815260200182805461058990610c49565b80156105d65780601f106105ab576101008083540402835291602001916105d6565b820191906000526020600020905b8154815290600101906020018083116105b957829003601f168201915b5050505050815250509150610625565b33816040517f54e896ee00000000000000000000000000000000000000000000000000000000815260040161061c929190610cd1565b60405180910390fd5b5b5090565b61063261091e565b6001600460009054906101000a900473ffffffffffffffffffffffffffffffffffffffff1673ffffffffffffffffffffffffffffffffffffffff163373ffffffffffffffffffffffffffffffffffffffff1614806106d95750600660003373ffffffffffffffffffffffffffffffffffffffff1673ffffffffffffffffffffffffffffffffffffffff16815260200190815260200160002060009054906101000a900460ff165b1561078e5760026040518060400160405290816000820154815260200160018201805461070590610c49565b80601f016020809104026020016040519081016040528092919081815260200182805461073190610c49565b801561077e5780601f106107535761010080835404028352916020019161077e565b820191906000526020600020905b81548152906001019060200180831161076157829003601f168201915b5050505050815250509150610900565b600060018111156107a2576107a1610beb565b5b8160018111156107b5576107b4610beb565b5b14801561080b5750600560003373ffffffffffffffffffffffffffffffffffffffff1673ffffffffffffffffffffffffffffffffffffffff16815260200190815260200160002060009054906101000a900460ff165b156108c05760026040518060400160405290816000820154815260200160018201805461083790610c49565b80601f016020809104026020016040519081016040528092919081815260200182805461086390610c49565b80156108b05780601f10610885576101008083540402835291602001916108b0565b820191906000526020600020905b81548152906001019060200180831161089357829003601f168201915b50505050508152505091506108ff565b33816040517f54e896ee0000000000000000000000000000000000000000000000000000000081526004016108f6929190610cd1565b60405180910390fd5b5b5090565b604051806040016040528060608152602001606081525090565b604051806040016040528060008152602001606081525090565b600080fd5b6002811061094a57600080fd5b50565b60008135905061095c8161093d565b92915050565b600073ffffffffffffffffffffffffffffffffffffffff82169050919050565b600061098d82610962565b9050919050565b61099d81610982565b81146109a857600080fd5b50565b6000813590506109ba81610994565b92915050565b600080604083850312156109d7576109d6610938565b5b60006109e58582860161094d565b92505060206109f6858286016109ab565b9150509250929050565b600081519050919050565b600082825260208201905092915050565b60005b83811015610a3a578082015181840152602081019050610a1f565b60008484015250505050565b6000601f19601f8301169050919050565b6000610a6282610a00565b610a6c8185610a0b565b9350610a7c818560208601610a1c565b610a8581610a46565b840191505092915050565b60006040830160008301518482036000860152610aad8282610a57565b91505060208301518482036020860152610ac78282610a57565b9150508091505092915050565b60006020820190508181036000830152610aee8184610a90565b905092915050565b6000819050919050565b610b0981610af6565b82525050565b6000604083016000830151610b276000860182610b00565b5060208301518482036020860152610b3f8282610a57565b9150508091505092915050565b60006020820190508181036000830152610b668184610b0f565b905092915050565b600082825260208201905092915050565b7f4f6e6c79206f776e65722063616e20617574686f72697a652075736572730000600082015250565b6000610bb5601e83610b6e565b9150610bc082610b7f565b602082019050919050565b60006020820190508181036000830152610be481610ba8565b9050919050565b7f4e487b7100000000000000000000000000000000000000000000000000000000600052602160045260246000fd5b7f4e487b7100000000000000000000000000000000000000000000000000000000600052602260045260246000fd5b60006002820490506001821680610c6157607f821691505b602082108103610c7457610c73610c1a565b5b50919050565b610c8381610982565b82525050565b60028110610c9a57610c99610beb565b5b50565b6000819050610cab82610c89565b919050565b6000610cbb82610c9d565b9050919050565b610ccb81610cb0565b82525050565b6000604082019050610ce66000830185610c7a565b610cf36020830184610cc2565b939250505056fea2646970667358221220d9d8e2a9a743013e80451202820423759b1de7763d71f1efc2b15fb9f82e562864736f6c63430008120033",
					"opcodes": "PUSH1 0x80 PUSH1 0x40 MSTORE CALLVALUE DUP1 ISZERO PUSH3 0x11 JUMPI PUSH1 0x0 DUP1 REVERT JUMPDEST POP PUSH1 0x40 MLOAD PUSH3 0x140C CODESIZE SUB DUP1 PUSH3 0x140C DUP4 CODECOPY DUP2 DUP2 ADD PUSH1 0x40 MSTORE DUP2 ADD SWAP1 PUSH3 0x37 SWAP2 SWAP1 PUSH3 0x2D5 JUMP JUMPDEST PUSH1 0x40 MLOAD DUP1 PUSH1 0x40 ADD PUSH1 0x40 MSTORE DUP1 DUP6 DUP2 MSTORE PUSH1 0x20 ADD DUP5 DUP2 MSTORE POP PUSH1 0x0 DUP1 DUP3 ADD MLOAD DUP2 PUSH1 0x0 ADD SWAP1 DUP2 PUSH3 0x64 SWAP2 SWAP1 PUSH3 0x5E5 JUMP JUMPDEST POP PUSH1 0x20 DUP3 ADD MLOAD DUP2 PUSH1 0x1 ADD SWAP1 DUP2 PUSH3 0x7C SWAP2 SWAP1 PUSH3 0x5E5 JUMP JUMPDEST POP SWAP1 POP POP PUSH1 0x40 MLOAD DUP1 PUSH1 0x40 ADD PUSH1 0x40 MSTORE DUP1 DUP4 DUP2 MSTORE PUSH1 0x20 ADD DUP3 DUP2 MSTORE POP PUSH1 0x2 PUSH1 0x0 DUP3 ADD MLOAD DUP2 PUSH1 0x0 ADD SSTORE PUSH1 0x20 DUP3 ADD MLOAD DUP2 PUSH1 0x1 ADD SWAP1 DUP2 PUSH3 0xB8 SWAP2 SWAP1 PUSH3 0x5E5 JUMP JUMPDEST POP SWAP1 POP POP CALLER PUSH1 0x4 PUSH1 0x0 PUSH2 0x100 EXP DUP2 SLOAD DUP2 PUSH20 0xFFFFFFFFFFFFFFFFFFFFFFFFFFFFFFFFFFFFFFFF MUL NOT AND SWAP1 DUP4 PUSH20 0xFFFFFFFFFFFFFFFFFFFFFFFFFFFFFFFFFFFFFFFF AND MUL OR SWAP1 SSTORE POP POP POP POP POP PUSH3 0x6CC JUMP JUMPDEST PUSH1 0x0 PUSH1 0x40 MLOAD SWAP1 POP SWAP1 JUMP JUMPDEST PUSH1 0x0 DUP1 REVERT JUMPDEST PUSH1 0x0 DUP1 REVERT JUMPDEST PUSH1 0x0 DUP1 REVERT JUMPDEST PUSH1 0x0 DUP1 REVERT JUMPDEST PUSH1 0x0 PUSH1 0x1F NOT PUSH1 0x1F DUP4 ADD AND SWAP1 POP SWAP2 SWAP1 POP JUMP JUMPDEST PUSH32 0x4E487B7100000000000000000000000000000000000000000000000000000000 PUSH1 0x0 MSTORE PUSH1 0x41 PUSH1 0x4 MSTORE PUSH1 0x24 PUSH1 0x0 REVERT JUMPDEST PUSH3 0x170 DUP3 PUSH3 0x125 JUMP JUMPDEST DUP2 ADD DUP2 DUP2 LT PUSH8 0xFFFFFFFFFFFFFFFF DUP3 GT OR ISZERO PUSH3 0x192 JUMPI PUSH3 0x191 PUSH3 0x136 JUMP JUMPDEST JUMPDEST DUP1 PUSH1 0x40 MSTORE POP POP POP JUMP JUMPDEST PUSH1 0x0 PUSH3 0x1A7 PUSH3 0x107 JUMP JUMPDEST SWAP1 POP PUSH3 0x1B5 DUP3 DUP3 PUSH3 0x165 JUMP JUMPDEST SWAP2 SWAP1 POP JUMP JUMPDEST PUSH1 0x0 PUSH8 0xFFFFFFFFFFFFFFFF DUP3 GT ISZERO PUSH3 0x1D8 JUMPI PUSH3 0x1D7 PUSH3 0x136 JUMP JUMPDEST JUMPDEST PUSH3 0x1E3 DUP3 PUSH3 0x125 JUMP JUMPDEST SWAP1 POP PUSH1 0x20 DUP2 ADD SWAP1 POP SWAP2 SWAP1 POP JUMP JUMPDEST PUSH1 0x0 JUMPDEST DUP4 DUP2 LT ISZERO PUSH3 0x210 JUMPI DUP1 DUP3 ADD MLOAD DUP2 DUP5 ADD MSTORE PUSH1 0x20 DUP2 ADD SWAP1 POP PUSH3 0x1F3 JUMP JUMPDEST PUSH1 0x0 DUP5 DUP5 ADD MSTORE POP POP POP POP JUMP JUMPDEST PUSH1 0x0 PUSH3 0x233 PUSH3 0x22D DUP5 PUSH3 0x1BA JUMP JUMPDEST PUSH3 0x19B JUMP JUMPDEST SWAP1 POP DUP3 DUP2 MSTORE PUSH1 0x20 DUP2 ADD DUP5 DUP5 DUP5 ADD GT ISZERO PUSH3 0x252 JUMPI PUSH3 0x251 PUSH3 0x120 JUMP JUMPDEST JUMPDEST PUSH3 0x25F DUP5 DUP3 DUP6 PUSH3 0x1F0 JUMP JUMPDEST POP SWAP4 SWAP3 POP POP POP JUMP JUMPDEST PUSH1 0x0 DUP3 PUSH1 0x1F DUP4 ADD SLT PUSH3 0x27F JUMPI PUSH3 0x27E PUSH3 0x11B JUMP JUMPDEST JUMPDEST DUP2 MLOAD PUSH3 0x291 DUP5 DUP3 PUSH1 0x20 DUP7 ADD PUSH3 0x21C JUMP JUMPDEST SWAP2 POP POP SWAP3 SWAP2 POP POP JUMP JUMPDEST PUSH1 0x0 DUP2 SWAP1 POP SWAP2 SWAP1 POP JUMP JUMPDEST PUSH3 0x2AF DUP2 PUSH3 0x29A JUMP JUMPDEST DUP2 EQ PUSH3 0x2BB JUMPI PUSH1 0x0 DUP1 REVERT JUMPDEST POP JUMP JUMPDEST PUSH1 0x0 DUP2 MLOAD SWAP1 POP PUSH3 0x2CF DUP2 PUSH3 0x2A4 JUMP JUMPDEST SWAP3 SWAP2 POP POP JUMP JUMPDEST PUSH1 0x0 DUP1 PUSH1 0x0 DUP1 PUSH1 0x80 DUP6 DUP8 SUB SLT ISZERO PUSH3 0x2F2 JUMPI PUSH3 0x2F1 PUSH3 0x111 JUMP JUMPDEST JUMPDEST PUSH1 0x0 DUP6 ADD MLOAD PUSH8 0xFFFFFFFFFFFFFFFF DUP2 GT ISZERO PUSH3 0x313 JUMPI PUSH3 0x312 PUSH3 0x116 JUMP JUMPDEST JUMPDEST PUSH3 0x321 DUP8 DUP3 DUP9 ADD PUSH3 0x267 JUMP JUMPDEST SWAP5 POP POP PUSH1 0x20 DUP6 ADD MLOAD PUSH8 0xFFFFFFFFFFFFFFFF DUP2 GT ISZERO PUSH3 0x345 JUMPI PUSH3 0x344 PUSH3 0x116 JUMP JUMPDEST JUMPDEST PUSH3 0x353 DUP8 DUP3 DUP9 ADD PUSH3 0x267 JUMP JUMPDEST SWAP4 POP POP PUSH1 0x40 PUSH3 0x366 DUP8 DUP3 DUP9 ADD PUSH3 0x2BE JUMP JUMPDEST SWAP3 POP POP PUSH1 0x60 DUP6 ADD MLOAD PUSH8 0xFFFFFFFFFFFFFFFF DUP2 GT ISZERO PUSH3 0x38A JUMPI PUSH3 0x389 PUSH3 0x116 JUMP JUMPDEST JUMPDEST PUSH3 0x398 DUP8 DUP3 DUP9 ADD PUSH3 0x267 JUMP JUMPDEST SWAP2 POP POP SWAP3 SWAP6 SWAP2 SWAP5 POP SWAP3 POP JUMP JUMPDEST PUSH1 0x0 DUP2 MLOAD SWAP1 POP SWAP2 SWAP1 POP JUMP JUMPDEST PUSH32 0x4E487B7100000000000000000000000000000000000000000000000000000000 PUSH1 0x0 MSTORE PUSH1 0x22 PUSH1 0x4 MSTORE PUSH1 0x24 PUSH1 0x0 REVERT JUMPDEST PUSH1 0x0 PUSH1 0x2 DUP3 DIV SWAP1 POP PUSH1 0x1 DUP3 AND DUP1 PUSH3 0x3F7 JUMPI PUSH1 0x7F DUP3 AND SWAP2 POP JUMPDEST PUSH1 0x20 DUP3 LT DUP2 SUB PUSH3 0x40D JUMPI PUSH3 0x40C PUSH3 0x3AF JUMP JUMPDEST JUMPDEST POP SWAP2 SWAP1 POP JUMP JUMPDEST PUSH1 0x0 DUP2 SWAP1 POP DUP2 PUSH1 0x0 MSTORE PUSH1 0x20 PUSH1 0x0 KECCAK256 SWAP1 POP SWAP2 SWAP1 POP JUMP JUMPDEST PUSH1 0x0 PUSH1 0x20 PUSH1 0x1F DUP4 ADD DIV SWAP1 POP SWAP2 SWAP1 POP JUMP JUMPDEST PUSH1 0x0 DUP3 DUP3 SHL SWAP1 POP SWAP3 SWAP2 POP POP JUMP JUMPDEST PUSH1 0x0 PUSH1 0x8 DUP4 MUL PUSH3 0x477 PUSH32 0xFFFFFFFFFFFFFFFFFFFFFFFFFFFFFFFFFFFFFFFFFFFFFFFFFFFFFFFFFFFFFFFF DUP3 PUSH3 0x438 JUMP JUMPDEST PUSH3 0x483 DUP7 DUP4 PUSH3 0x438 JUMP JUMPDEST SWAP6 POP DUP1 NOT DUP5 AND SWAP4 POP DUP1 DUP7 AND DUP5 OR SWAP3 POP POP POP SWAP4 SWAP3 POP POP POP JUMP JUMPDEST PUSH1 0x0 DUP2 SWAP1 POP SWAP2 SWAP1 POP JUMP JUMPDEST PUSH1 0x0 PUSH3 0x4C6 PUSH3 0x4C0 PUSH3 0x4BA DUP5 PUSH3 0x29A JUMP JUMPDEST PUSH3 0x49B JUMP JUMPDEST PUSH3 0x29A JUMP JUMPDEST SWAP1 POP SWAP2 SWAP1 POP JUMP JUMPDEST PUSH1 0x0 DUP2 SWAP1 POP SWAP2 SWAP1 POP JUMP JUMPDEST PUSH3 0x4E2 DUP4 PUSH3 0x4A5 JUMP JUMPDEST PUSH3 0x4FA PUSH3 0x4F1 DUP3 PUSH3 0x4CD JUMP JUMPDEST DUP5 DUP5 SLOAD PUSH3 0x445 JUMP JUMPDEST DUP3 SSTORE POP POP POP POP JUMP JUMPDEST PUSH1 0x0 SWAP1 JUMP JUMPDEST PUSH3 0x511 PUSH3 0x502 JUMP JUMPDEST PUSH3 0x51E DUP2 DUP5 DUP5 PUSH3 0x4D7 JUMP JUMPDEST POP POP POP JUMP JUMPDEST JUMPDEST DUP2 DUP2 LT ISZERO PUSH3 0x546 JUMPI PUSH3 0x53A PUSH1 0x0 DUP3 PUSH3 0x507 JUMP JUMPDEST PUSH1 0x1 DUP2 ADD SWAP1 POP PUSH3 0x524 JUMP JUMPDEST POP POP JUMP JUMPDEST PUSH1 0x1F DUP3 GT ISZERO PUSH3 0x595 JUMPI PUSH3 0x55F DUP2 PUSH3 0x413 JUMP JUMPDEST PUSH3 0x56A DUP5 PUSH3 0x428 JUMP JUMPDEST DUP2 ADD PUSH1 0x20 DUP6 LT ISZERO PUSH3 0x57A JUMPI DUP2 SWAP1 POP JUMPDEST PUSH3 0x592 PUSH3 0x589 DUP6 PUSH3 0x428 JUMP JUMPDEST DUP4 ADD DUP3 PUSH3 0x523 JUMP JUMPDEST POP POP JUMPDEST POP POP POP JUMP JUMPDEST PUSH1 0x0 DUP3 DUP3 SHR SWAP1 POP SWAP3 SWAP2 POP POP JUMP JUMPDEST PUSH1 0x0 PUSH3 0x5BA PUSH1 0x0 NOT DUP5 PUSH1 0x8 MUL PUSH3 0x59A JUMP JUMPDEST NOT DUP1 DUP4 AND SWAP2 POP POP SWAP3 SWAP2 POP POP JUMP JUMPDEST PUSH1 0x0 PUSH3 0x5D5 DUP4 DUP4 PUSH3 0x5A7 JUMP JUMPDEST SWAP2 POP DUP3 PUSH1 0x2 MUL DUP3 OR SWAP1 POP SWAP3 SWAP2 POP POP JUMP JUMPDEST PUSH3 0x5F0 DUP3 PUSH3 0x3A4 JUMP JUMPDEST PUSH8 0xFFFFFFFFFFFFFFFF DUP2 GT ISZERO PUSH3 0x60C JUMPI PUSH3 0x60B PUSH3 0x136 JUMP JUMPDEST JUMPDEST PUSH3 0x618 DUP3 SLOAD PUSH3 0x3DE JUMP JUMPDEST PUSH3 0x625 DUP3 DUP3 DUP6 PUSH3 0x54A JUMP JUMPDEST PUSH1 0x0 PUSH1 0x20 SWAP1 POP PUSH1 0x1F DUP4 GT PUSH1 0x1 DUP2 EQ PUSH3 0x65D JUMPI PUSH1 0x0 DUP5 ISZERO PUSH3 0x648 JUMPI DUP3 DUP8 ADD MLOAD SWAP1 POP JUMPDEST PUSH3 0x654 DUP6 DUP3 PUSH3 0x5C7 JUMP JUMPDEST DUP7 SSTORE POP PUSH3 0x6C4 JUMP JUMPDEST PUSH1 0x1F NOT DUP5 AND PUSH3 0x66D DUP7 PUSH3 0x413 JUMP JUMPDEST PUSH1 0x0 JUMPDEST DUP3 DUP2 LT ISZERO PUSH3 0x697 JUMPI DUP5 DUP10 ADD MLOAD DUP3 SSTORE PUSH1 0x1 DUP3 ADD SWAP2 POP PUSH1 0x20 DUP6 ADD SWAP5 POP PUSH1 0x20 DUP2 ADD SWAP1 POP PUSH3 0x670 JUMP JUMPDEST DUP7 DUP4 LT ISZERO PUSH3 0x6B7 JUMPI DUP5 DUP10 ADD MLOAD PUSH3 0x6B3 PUSH1 0x1F DUP10 AND DUP3 PUSH3 0x5A7 JUMP JUMPDEST DUP4 SSTORE POP JUMPDEST PUSH1 0x1 PUSH1 0x2 DUP9 MUL ADD DUP9 SSTORE POP POP POP JUMPDEST POP POP POP POP POP POP JUMP JUMPDEST PUSH2 0xD30 DUP1 PUSH3 0x6DC PUSH1 0x0 CODECOPY PUSH1 0x0 RETURN INVALID PUSH1 0x80 PUSH1 0x40 MSTORE CALLVALUE DUP1 ISZERO PUSH2 0x10 JUMPI PUSH1 0x0 DUP1 REVERT JUMPDEST POP PUSH1 0x4 CALLDATASIZE LT PUSH2 0x41 JUMPI PUSH1 0x0 CALLDATALOAD PUSH1 0xE0 SHR DUP1 PUSH4 0x13D67E35 EQ PUSH2 0x46 JUMPI DUP1 PUSH4 0x8CF36EDC EQ PUSH2 0x62 JUMPI DUP1 PUSH4 0xC4F0D067 EQ PUSH2 0x80 JUMPI JUMPDEST PUSH1 0x0 DUP1 REVERT JUMPDEST PUSH2 0x60 PUSH1 0x4 DUP1 CALLDATASIZE SUB DUP2 ADD SWAP1 PUSH2 0x5B SWAP2 SWAP1 PUSH2 0x9C0 JUMP JUMPDEST PUSH2 0x9E JUMP JUMPDEST STOP JUMPDEST PUSH2 0x6A PUSH2 0x240 JUMP JUMPDEST PUSH1 0x40 MLOAD PUSH2 0x77 SWAP2 SWAP1 PUSH2 0xAD4 JUMP JUMPDEST PUSH1 0x40 MLOAD DUP1 SWAP2 SUB SWAP1 RETURN JUMPDEST PUSH2 0x88 PUSH2 0x62A JUMP JUMPDEST PUSH1 0x40 MLOAD PUSH2 0x95 SWAP2 SWAP1 PUSH2 0xB4C JUMP JUMPDEST PUSH1 0x40 MLOAD DUP1 SWAP2 SUB SWAP1 RETURN JUMPDEST PUSH1 0x4 PUSH1 0x0 SWAP1 SLOAD SWAP1 PUSH2 0x100 EXP SWAP1 DIV PUSH20 0xFFFFFFFFFFFFFFFFFFFFFFFFFFFFFFFFFFFFFFFF AND PUSH20 0xFFFFFFFFFFFFFFFFFFFFFFFFFFFFFFFFFFFFFFFF AND CALLER PUSH20 0xFFFFFFFFFFFFFFFFFFFFFFFFFFFFFFFFFFFFFFFF AND EQ PUSH2 0x12E JUMPI PUSH1 0x40 MLOAD PUSH32 0x8C379A000000000000000000000000000000000000000000000000000000000 DUP2 MSTORE PUSH1 0x4 ADD PUSH2 0x125 SWAP1 PUSH2 0xBCB JUMP JUMPDEST PUSH1 0x40 MLOAD DUP1 SWAP2 SUB SWAP1 REVERT JUMPDEST PUSH1 0x0 PUSH1 0x1 DUP2 GT ISZERO PUSH2 0x142 JUMPI PUSH2 0x141 PUSH2 0xBEB JUMP JUMPDEST JUMPDEST DUP3 PUSH1 0x1 DUP2 GT ISZERO PUSH2 0x155 JUMPI PUSH2 0x154 PUSH2 0xBEB JUMP JUMPDEST JUMPDEST SUB PUSH2 0x1B7 JUMPI PUSH1 0x1 PUSH1 0x5 PUSH1 0x0 DUP4 PUSH20 0xFFFFFFFFFFFFFFFFFFFFFFFFFFFFFFFFFFFFFFFF AND PUSH20 0xFFFFFFFFFFFFFFFFFFFFFFFFFFFFFFFFFFFFFFFF AND DUP2 MSTORE PUSH1 0x20 ADD SWAP1 DUP2 MSTORE PUSH1 0x20 ADD PUSH1 0x0 KECCAK256 PUSH1 0x0 PUSH2 0x100 EXP DUP2 SLOAD DUP2 PUSH1 0xFF MUL NOT AND SWAP1 DUP4 ISZERO ISZERO MUL OR SWAP1 SSTORE POP PUSH2 0x23C JUMP JUMPDEST PUSH1 0x1 DUP1 DUP2 GT ISZERO PUSH2 0x1CA JUMPI PUSH2 0x1C9 PUSH2 0xBEB JUMP JUMPDEST JUMPDEST DUP3 PUSH1 0x1 DUP2 GT ISZERO PUSH2 0x1DD JUMPI PUSH2 0x1DC PUSH2 0xBEB JUMP JUMPDEST JUMPDEST SUB PUSH2 0x23B JUMPI PUSH1 0x1 PUSH1 0x6 PUSH1 0x0 DUP4 PUSH20 0xFFFFFFFFFFFFFFFFFFFFFFFFFFFFFFFFFFFFFFFF AND PUSH20 0xFFFFFFFFFFFFFFFFFFFFFFFFFFFFFFFFFFFFFFFF AND DUP2 MSTORE PUSH1 0x20 ADD SWAP1 DUP2 MSTORE PUSH1 0x20 ADD PUSH1 0x0 KECCAK256 PUSH1 0x0 PUSH2 0x100 EXP DUP2 SLOAD DUP2 PUSH1 0xFF MUL NOT AND SWAP1 DUP4 ISZERO ISZERO MUL OR SWAP1 SSTORE POP JUMPDEST JUMPDEST POP POP JUMP JUMPDEST PUSH2 0x248 PUSH2 0x904 JUMP JUMPDEST PUSH1 0x0 PUSH1 0x4 PUSH1 0x0 SWAP1 SLOAD SWAP1 PUSH2 0x100 EXP SWAP1 DIV PUSH20 0xFFFFFFFFFFFFFFFFFFFFFFFFFFFFFFFFFFFFFFFF AND PUSH20 0xFFFFFFFFFFFFFFFFFFFFFFFFFFFFFFFFFFFFFFFF AND CALLER PUSH20 0xFFFFFFFFFFFFFFFFFFFFFFFFFFFFFFFFFFFFFFFF AND EQ DUP1 PUSH2 0x2EF JUMPI POP PUSH1 0x6 PUSH1 0x0 CALLER PUSH20 0xFFFFFFFFFFFFFFFFFFFFFFFFFFFFFFFFFFFFFFFF AND PUSH20 0xFFFFFFFFFFFFFFFFFFFFFFFFFFFFFFFFFFFFFFFF AND DUP2 MSTORE PUSH1 0x20 ADD SWAP1 DUP2 MSTORE PUSH1 0x20 ADD PUSH1 0x0 KECCAK256 PUSH1 0x0 SWAP1 SLOAD SWAP1 PUSH2 0x100 EXP SWAP1 DIV PUSH1 0xFF AND JUMPDEST ISZERO PUSH2 0x42C JUMPI PUSH1 0x0 PUSH1 0x40 MLOAD DUP1 PUSH1 0x40 ADD PUSH1 0x40 MSTORE SWAP1 DUP2 PUSH1 0x0 DUP3 ADD DUP1 SLOAD PUSH2 0x311 SWAP1 PUSH2 0xC49 JUMP JUMPDEST DUP1 PUSH1 0x1F ADD PUSH1 0x20 DUP1 SWAP2 DIV MUL PUSH1 0x20 ADD PUSH1 0x40 MLOAD SWAP1 DUP2 ADD PUSH1 0x40 MSTORE DUP1 SWAP3 SWAP2 SWAP1 DUP2 DUP2 MSTORE PUSH1 0x20 ADD DUP3 DUP1 SLOAD PUSH2 0x33D SWAP1 PUSH2 0xC49 JUMP JUMPDEST DUP1 ISZERO PUSH2 0x38A JUMPI DUP1 PUSH1 0x1F LT PUSH2 0x35F JUMPI PUSH2 0x100 DUP1 DUP4 SLOAD DIV MUL DUP4 MSTORE SWAP2 PUSH1 0x20 ADD SWAP2 PUSH2 0x38A JUMP JUMPDEST DUP3 ADD SWAP2 SWAP1 PUSH1 0x0 MSTORE PUSH1 0x20 PUSH1 0x0 KECCAK256 SWAP1 JUMPDEST DUP2 SLOAD DUP2 MSTORE SWAP1 PUSH1 0x1 ADD SWAP1 PUSH1 0x20 ADD DUP1 DUP4 GT PUSH2 0x36D JUMPI DUP3 SWAP1 SUB PUSH1 0x1F AND DUP3 ADD SWAP2 JUMPDEST POP POP POP POP POP DUP2 MSTORE PUSH1 0x20 ADD PUSH1 0x1 DUP3 ADD DUP1 SLOAD PUSH2 0x3A3 SWAP1 PUSH2 0xC49 JUMP JUMPDEST DUP1 PUSH1 0x1F ADD PUSH1 0x20 DUP1 SWAP2 DIV MUL PUSH1 0x20 ADD PUSH1 0x40 MLOAD SWAP1 DUP2 ADD PUSH1 0x40 MSTORE DUP1 SWAP3 SWAP2 SWAP1 DUP2 DUP2 MSTORE PUSH1 0x20 ADD DUP3 DUP1 SLOAD PUSH2 0x3CF SWAP1 PUSH2 0xC49 JUMP JUMPDEST DUP1 ISZERO PUSH2 0x41C JUMPI DUP1 PUSH1 0x1F LT PUSH2 0x3F1 JUMPI PUSH2 0x100 DUP1 DUP4 SLOAD DIV MUL DUP4 MSTORE SWAP2 PUSH1 0x20 ADD SWAP2 PUSH2 0x41C JUMP JUMPDEST DUP3 ADD SWAP2 SWAP1 PUSH1 0x0 MSTORE PUSH1 0x20 PUSH1 0x0 KECCAK256 SWAP1 JUMPDEST DUP2 SLOAD DUP2 MSTORE SWAP1 PUSH1 0x1 ADD SWAP1 PUSH1 0x20 ADD DUP1 DUP4 GT PUSH2 0x3FF JUMPI DUP3 SWAP1 SUB PUSH1 0x1F AND DUP3 ADD SWAP2 JUMPDEST POP POP POP POP POP DUP2 MSTORE POP POP SWAP2 POP PUSH2 0x626 JUMP JUMPDEST PUSH1 0x0 PUSH1 0x1 DUP2 GT ISZERO PUSH2 0x440 JUMPI PUSH2 0x43F PUSH2 0xBEB JUMP JUMPDEST JUMPDEST DUP2 PUSH1 0x1 DUP2 GT ISZERO PUSH2 0x453 JUMPI PUSH2 0x452 PUSH2 0xBEB JUMP JUMPDEST JUMPDEST EQ DUP1 ISZERO PUSH2 0x4A9 JUMPI POP PUSH1 0x5 PUSH1 0x0 CALLER PUSH20 0xFFFFFFFFFFFFFFFFFFFFFFFFFFFFFFFFFFFFFFFF AND PUSH20 0xFFFFFFFFFFFFFFFFFFFFFFFFFFFFFFFFFFFFFFFF AND DUP2 MSTORE PUSH1 0x20 ADD SWAP1 DUP2 MSTORE PUSH1 0x20 ADD PUSH1 0x0 KECCAK256 PUSH1 0x0 SWAP1 SLOAD SWAP1 PUSH2 0x100 EXP SWAP1 DIV PUSH1 0xFF AND JUMPDEST ISZERO PUSH2 0x5E6 JUMPI PUSH1 0x0 PUSH1 0x40 MLOAD DUP1 PUSH1 0x40 ADD PUSH1 0x40 MSTORE SWAP1 DUP2 PUSH1 0x0 DUP3 ADD DUP1 SLOAD PUSH2 0x4CB SWAP1 PUSH2 0xC49 JUMP JUMPDEST DUP1 PUSH1 0x1F ADD PUSH1 0x20 DUP1 SWAP2 DIV MUL PUSH1 0x20 ADD PUSH1 0x40 MLOAD SWAP1 DUP2 ADD PUSH1 0x40 MSTORE DUP1 SWAP3 SWAP2 SWAP1 DUP2 DUP2 MSTORE PUSH1 0x20 ADD DUP3 DUP1 SLOAD PUSH2 0x4F7 SWAP1 PUSH2 0xC49 JUMP JUMPDEST DUP1 ISZERO PUSH2 0x544 JUMPI DUP1 PUSH1 0x1F LT PUSH2 0x519 JUMPI PUSH2 0x100 DUP1 DUP4 SLOAD DIV MUL DUP4 MSTORE SWAP2 PUSH1 0x20 ADD SWAP2 PUSH2 0x544 JUMP JUMPDEST DUP3 ADD SWAP2 SWAP1 PUSH1 0x0 MSTORE PUSH1 0x20 PUSH1 0x0 KECCAK256 SWAP1 JUMPDEST DUP2 SLOAD DUP2 MSTORE SWAP1 PUSH1 0x1 ADD SWAP1 PUSH1 0x20 ADD DUP1 DUP4 GT PUSH2 0x527 JUMPI DUP3 SWAP1 SUB PUSH1 0x1F AND DUP3 ADD SWAP2 JUMPDEST POP POP POP POP POP DUP2 MSTORE PUSH1 0x20 ADD PUSH1 0x1 DUP3 ADD DUP1 SLOAD PUSH2 0x55D SWAP1 PUSH2 0xC49 JUMP JUMPDEST DUP1 PUSH1 0x1F ADD PUSH1 0x20 DUP1 SWAP2 DIV MUL PUSH1 0x20 ADD PUSH1 0x40 MLOAD SWAP1 DUP2 ADD PUSH1 0x40 MSTORE DUP1 SWAP3 SWAP2 SWAP1 DUP2 DUP2 MSTORE PUSH1 0x20 ADD DUP3 DUP1 SLOAD PUSH2 0x589 SWAP1 PUSH2 0xC49 JUMP JUMPDEST DUP1 ISZERO PUSH2 0x5D6 JUMPI DUP1 PUSH1 0x1F LT PUSH2 0x5AB JUMPI PUSH2 0x100 DUP1 DUP4 SLOAD DIV MUL DUP4 MSTORE SWAP2 PUSH1 0x20 ADD SWAP2 PUSH2 0x5D6 JUMP JUMPDEST DUP3 ADD SWAP2 SWAP1 PUSH1 0x0 MSTORE PUSH1 0x20 PUSH1 0x0 KECCAK256 SWAP1 JUMPDEST DUP2 SLOAD DUP2 MSTORE SWAP1 PUSH1 0x1 ADD SWAP1 PUSH1 0x20 ADD DUP1 DUP4 GT PUSH2 0x5B9 JUMPI DUP3 SWAP1 SUB PUSH1 0x1F AND DUP3 ADD SWAP2 JUMPDEST POP POP POP POP POP DUP2 MSTORE POP POP SWAP2 POP PUSH2 0x625 JUMP JUMPDEST CALLER DUP2 PUSH1 0x40 MLOAD PUSH32 0x54E896EE00000000000000000000000000000000000000000000000000000000 DUP2 MSTORE PUSH1 0x4 ADD PUSH2 0x61C SWAP3 SWAP2 SWAP1 PUSH2 0xCD1 JUMP JUMPDEST PUSH1 0x40 MLOAD DUP1 SWAP2 SUB SWAP1 REVERT JUMPDEST JUMPDEST POP SWAP1 JUMP JUMPDEST PUSH2 0x632 PUSH2 0x91E JUMP JUMPDEST PUSH1 0x1 PUSH1 0x4 PUSH1 0x0 SWAP1 SLOAD SWAP1 PUSH2 0x100 EXP SWAP1 DIV PUSH20 0xFFFFFFFFFFFFFFFFFFFFFFFFFFFFFFFFFFFFFFFF AND PUSH20 0xFFFFFFFFFFFFFFFFFFFFFFFFFFFFFFFFFFFFFFFF AND CALLER PUSH20 0xFFFFFFFFFFFFFFFFFFFFFFFFFFFFFFFFFFFFFFFF AND EQ DUP1 PUSH2 0x6D9 JUMPI POP PUSH1 0x6 PUSH1 0x0 CALLER PUSH20 0xFFFFFFFFFFFFFFFFFFFFFFFFFFFFFFFFFFFFFFFF AND PUSH20 0xFFFFFFFFFFFFFFFFFFFFFFFFFFFFFFFFFFFFFFFF AND DUP2 MSTORE PUSH1 0x20 ADD SWAP1 DUP2 MSTORE PUSH1 0x20 ADD PUSH1 0x0 KECCAK256 PUSH1 0x0 SWAP1 SLOAD SWAP1 PUSH2 0x100 EXP SWAP1 DIV PUSH1 0xFF AND JUMPDEST ISZERO PUSH2 0x78E JUMPI PUSH1 0x2 PUSH1 0x40 MLOAD DUP1 PUSH1 0x40 ADD PUSH1 0x40 MSTORE SWAP1 DUP2 PUSH1 0x0 DUP3 ADD SLOAD DUP2 MSTORE PUSH1 0x20 ADD PUSH1 0x1 DUP3 ADD DUP1 SLOAD PUSH2 0x705 SWAP1 PUSH2 0xC49 JUMP JUMPDEST DUP1 PUSH1 0x1F ADD PUSH1 0x20 DUP1 SWAP2 DIV MUL PUSH1 0x20 ADD PUSH1 0x40 MLOAD SWAP1 DUP2 ADD PUSH1 0x40 MSTORE DUP1 SWAP3 SWAP2 SWAP1 DUP2 DUP2 MSTORE PUSH1 0x20 ADD DUP3 DUP1 SLOAD PUSH2 0x731 SWAP1 PUSH2 0xC49 JUMP JUMPDEST DUP1 ISZERO PUSH2 0x77E JUMPI DUP1 PUSH1 0x1F LT PUSH2 0x753 JUMPI PUSH2 0x100 DUP1 DUP4 SLOAD DIV MUL DUP4 MSTORE SWAP2 PUSH1 0x20 ADD SWAP2 PUSH2 0x77E JUMP JUMPDEST DUP3 ADD SWAP2 SWAP1 PUSH1 0x0 MSTORE PUSH1 0x20 PUSH1 0x0 KECCAK256 SWAP1 JUMPDEST DUP2 SLOAD DUP2 MSTORE SWAP1 PUSH1 0x1 ADD SWAP1 PUSH1 0x20 ADD DUP1 DUP4 GT PUSH2 0x761 JUMPI DUP3 SWAP1 SUB PUSH1 0x1F AND DUP3 ADD SWAP2 JUMPDEST POP POP POP POP POP DUP2 MSTORE POP POP SWAP2 POP PUSH2 0x900 JUMP JUMPDEST PUSH1 0x0 PUSH1 0x1 DUP2 GT ISZERO PUSH2 0x7A2 JUMPI PUSH2 0x7A1 PUSH2 0xBEB JUMP JUMPDEST JUMPDEST DUP2 PUSH1 0x1 DUP2 GT ISZERO PUSH2 0x7B5 JUMPI PUSH2 0x7B4 PUSH2 0xBEB JUMP JUMPDEST JUMPDEST EQ DUP1 ISZERO PUSH2 0x80B JUMPI POP PUSH1 0x5 PUSH1 0x0 CALLER PUSH20 0xFFFFFFFFFFFFFFFFFFFFFFFFFFFFFFFFFFFFFFFF AND PUSH20 0xFFFFFFFFFFFFFFFFFFFFFFFFFFFFFFFFFFFFFFFF AND DUP2 MSTORE PUSH1 0x20 ADD SWAP1 DUP2 MSTORE PUSH1 0x20 ADD PUSH1 0x0 KECCAK256 PUSH1 0x0 SWAP1 SLOAD SWAP1 PUSH2 0x100 EXP SWAP1 DIV PUSH1 0xFF AND JUMPDEST ISZERO PUSH2 0x8C0 JUMPI PUSH1 0x2 PUSH1 0x40 MLOAD DUP1 PUSH1 0x40 ADD PUSH1 0x40 MSTORE SWAP1 DUP2 PUSH1 0x0 DUP3 ADD SLOAD DUP2 MSTORE PUSH1 0x20 ADD PUSH1 0x1 DUP3 ADD DUP1 SLOAD PUSH2 0x837 SWAP1 PUSH2 0xC49 JUMP JUMPDEST DUP1 PUSH1 0x1F ADD PUSH1 0x20 DUP1 SWAP2 DIV MUL PUSH1 0x20 ADD PUSH1 0x40 MLOAD SWAP1 DUP2 ADD PUSH1 0x40 MSTORE DUP1 SWAP3 SWAP2 SWAP1 DUP2 DUP2 MSTORE PUSH1 0x20 ADD DUP3 DUP1 SLOAD PUSH2 0x863 SWAP1 PUSH2 0xC49 JUMP JUMPDEST DUP1 ISZERO PUSH2 0x8B0 JUMPI DUP1 PUSH1 0x1F LT PUSH2 0x885 JUMPI PUSH2 0x100 DUP1 DUP4 SLOAD DIV MUL DUP4 MSTORE SWAP2 PUSH1 0x20 ADD SWAP2 PUSH2 0x8B0 JUMP JUMPDEST DUP3 ADD SWAP2 SWAP1 PUSH1 0x0 MSTORE PUSH1 0x20 PUSH1 0x0 KECCAK256 SWAP1 JUMPDEST DUP2 SLOAD DUP2 MSTORE SWAP1 PUSH1 0x1 ADD SWAP1 PUSH1 0x20 ADD DUP1 DUP4 GT PUSH2 0x893 JUMPI DUP3 SWAP1 SUB PUSH1 0x1F AND DUP3 ADD SWAP2 JUMPDEST POP POP POP POP POP DUP2 MSTORE POP POP SWAP2 POP PUSH2 0x8FF JUMP JUMPDEST CALLER DUP2 PUSH1 0x40 MLOAD PUSH32 0x54E896EE00000000000000000000000000000000000000000000000000000000 DUP2 MSTORE PUSH1 0x4 ADD PUSH2 0x8F6 SWAP3 SWAP2 SWAP1 PUSH2 0xCD1 JUMP JUMPDEST PUSH1 0x40 MLOAD DUP1 SWAP2 SUB SWAP1 REVERT JUMPDEST JUMPDEST POP SWAP1 JUMP JUMPDEST PUSH1 0x40 MLOAD DUP1 PUSH1 0x40 ADD PUSH1 0x40 MSTORE DUP1 PUSH1 0x60 DUP2 MSTORE PUSH1 0x20 ADD PUSH1 0x60 DUP2 MSTORE POP SWAP1 JUMP JUMPDEST PUSH1 0x40 MLOAD DUP1 PUSH1 0x40 ADD PUSH1 0x40 MSTORE DUP1 PUSH1 0x0 DUP2 MSTORE PUSH1 0x20 ADD PUSH1 0x60 DUP2 MSTORE POP SWAP1 JUMP JUMPDEST PUSH1 0x0 DUP1 REVERT JUMPDEST PUSH1 0x2 DUP2 LT PUSH2 0x94A JUMPI PUSH1 0x0 DUP1 REVERT JUMPDEST POP JUMP JUMPDEST PUSH1 0x0 DUP2 CALLDATALOAD SWAP1 POP PUSH2 0x95C DUP2 PUSH2 0x93D JUMP JUMPDEST SWAP3 SWAP2 POP POP JUMP JUMPDEST PUSH1 0x0 PUSH20 0xFFFFFFFFFFFFFFFFFFFFFFFFFFFFFFFFFFFFFFFF DUP3 AND SWAP1 POP SWAP2 SWAP1 POP JUMP JUMPDEST PUSH1 0x0 PUSH2 0x98D DUP3 PUSH2 0x962 JUMP JUMPDEST SWAP1 POP SWAP2 SWAP1 POP JUMP JUMPDEST PUSH2 0x99D DUP2 PUSH2 0x982 JUMP JUMPDEST DUP2 EQ PUSH2 0x9A8 JUMPI PUSH1 0x0 DUP1 REVERT JUMPDEST POP JUMP JUMPDEST PUSH1 0x0 DUP2 CALLDATALOAD SWAP1 POP PUSH2 0x9BA DUP2 PUSH2 0x994 JUMP JUMPDEST SWAP3 SWAP2 POP POP JUMP JUMPDEST PUSH1 0x0 DUP1 PUSH1 0x40 DUP4 DUP6 SUB SLT ISZERO PUSH2 0x9D7 JUMPI PUSH2 0x9D6 PUSH2 0x938 JUMP JUMPDEST JUMPDEST PUSH1 0x0 PUSH2 0x9E5 DUP6 DUP3 DUP7 ADD PUSH2 0x94D JUMP JUMPDEST SWAP3 POP POP PUSH1 0x20 PUSH2 0x9F6 DUP6 DUP3 DUP7 ADD PUSH2 0x9AB JUMP JUMPDEST SWAP2 POP POP SWAP3 POP SWAP3 SWAP1 POP JUMP JUMPDEST PUSH1 0x0 DUP2 MLOAD SWAP1 POP SWAP2 SWAP1 POP JUMP JUMPDEST PUSH1 0x0 DUP3 DUP3 MSTORE PUSH1 0x20 DUP3 ADD SWAP1 POP SWAP3 SWAP2 POP POP JUMP JUMPDEST PUSH1 0x0 JUMPDEST DUP4 DUP2 LT ISZERO PUSH2 0xA3A JUMPI DUP1 DUP3 ADD MLOAD DUP2 DUP5 ADD MSTORE PUSH1 0x20 DUP2 ADD SWAP1 POP PUSH2 0xA1F JUMP JUMPDEST PUSH1 0x0 DUP5 DUP5 ADD MSTORE POP POP POP POP JUMP JUMPDEST PUSH1 0x0 PUSH1 0x1F NOT PUSH1 0x1F DUP4 ADD AND SWAP1 POP SWAP2 SWAP1 POP JUMP JUMPDEST PUSH1 0x0 PUSH2 0xA62 DUP3 PUSH2 0xA00 JUMP JUMPDEST PUSH2 0xA6C DUP2 DUP6 PUSH2 0xA0B JUMP JUMPDEST SWAP4 POP PUSH2 0xA7C DUP2 DUP6 PUSH1 0x20 DUP7 ADD PUSH2 0xA1C JUMP JUMPDEST PUSH2 0xA85 DUP2 PUSH2 0xA46 JUMP JUMPDEST DUP5 ADD SWAP2 POP POP SWAP3 SWAP2 POP POP JUMP JUMPDEST PUSH1 0x0 PUSH1 0x40 DUP4 ADD PUSH1 0x0 DUP4 ADD MLOAD DUP5 DUP3 SUB PUSH1 0x0 DUP7 ADD MSTORE PUSH2 0xAAD DUP3 DUP3 PUSH2 0xA57 JUMP JUMPDEST SWAP2 POP POP PUSH1 0x20 DUP4 ADD MLOAD DUP5 DUP3 SUB PUSH1 0x20 DUP7 ADD MSTORE PUSH2 0xAC7 DUP3 DUP3 PUSH2 0xA57 JUMP JUMPDEST SWAP2 POP POP DUP1 SWAP2 POP POP SWAP3 SWAP2 POP POP JUMP JUMPDEST PUSH1 0x0 PUSH1 0x20 DUP3 ADD SWAP1 POP DUP2 DUP2 SUB PUSH1 0x0 DUP4 ADD MSTORE PUSH2 0xAEE DUP2 DUP5 PUSH2 0xA90 JUMP JUMPDEST SWAP1 POP SWAP3 SWAP2 POP POP JUMP JUMPDEST PUSH1 0x0 DUP2 SWAP1 POP SWAP2 SWAP1 POP JUMP JUMPDEST PUSH2 0xB09 DUP2 PUSH2 0xAF6 JUMP JUMPDEST DUP3 MSTORE POP POP JUMP JUMPDEST PUSH1 0x0 PUSH1 0x40 DUP4 ADD PUSH1 0x0 DUP4 ADD MLOAD PUSH2 0xB27 PUSH1 0x0 DUP7 ADD DUP3 PUSH2 0xB00 JUMP JUMPDEST POP PUSH1 0x20 DUP4 ADD MLOAD DUP5 DUP3 SUB PUSH1 0x20 DUP7 ADD MSTORE PUSH2 0xB3F DUP3 DUP3 PUSH2 0xA57 JUMP JUMPDEST SWAP2 POP POP DUP1 SWAP2 POP POP SWAP3 SWAP2 POP POP JUMP JUMPDEST PUSH1 0x0 PUSH1 0x20 DUP3 ADD SWAP1 POP DUP2 DUP2 SUB PUSH1 0x0 DUP4 ADD MSTORE PUSH2 0xB66 DUP2 DUP5 PUSH2 0xB0F JUMP JUMPDEST SWAP1 POP SWAP3 SWAP2 POP POP JUMP JUMPDEST PUSH1 0x0 DUP3 DUP3 MSTORE PUSH1 0x20 DUP3 ADD SWAP1 POP SWAP3 SWAP2 POP POP JUMP JUMPDEST PUSH32 0x4F6E6C79206F776E65722063616E20617574686F72697A652075736572730000 PUSH1 0x0 DUP3 ADD MSTORE POP JUMP JUMPDEST PUSH1 0x0 PUSH2 0xBB5 PUSH1 0x1E DUP4 PUSH2 0xB6E JUMP JUMPDEST SWAP2 POP PUSH2 0xBC0 DUP3 PUSH2 0xB7F JUMP JUMPDEST PUSH1 0x20 DUP3 ADD SWAP1 POP SWAP2 SWAP1 POP JUMP JUMPDEST PUSH1 0x0 PUSH1 0x20 DUP3 ADD SWAP1 POP DUP2 DUP2 SUB PUSH1 0x0 DUP4 ADD MSTORE PUSH2 0xBE4 DUP2 PUSH2 0xBA8 JUMP JUMPDEST SWAP1 POP SWAP2 SWAP1 POP JUMP JUMPDEST PUSH32 0x4E487B7100000000000000000000000000000000000000000000000000000000 PUSH1 0x0 MSTORE PUSH1 0x21 PUSH1 0x4 MSTORE PUSH1 0x24 PUSH1 0x0 REVERT JUMPDEST PUSH32 0x4E487B7100000000000000000000000000000000000000000000000000000000 PUSH1 0x0 MSTORE PUSH1 0x22 PUSH1 0x4 MSTORE PUSH1 0x24 PUSH1 0x0 REVERT JUMPDEST PUSH1 0x0 PUSH1 0x2 DUP3 DIV SWAP1 POP PUSH1 0x1 DUP3 AND DUP1 PUSH2 0xC61 JUMPI PUSH1 0x7F DUP3 AND SWAP2 POP JUMPDEST PUSH1 0x20 DUP3 LT DUP2 SUB PUSH2 0xC74 JUMPI PUSH2 0xC73 PUSH2 0xC1A JUMP JUMPDEST JUMPDEST POP SWAP2 SWAP1 POP JUMP JUMPDEST PUSH2 0xC83 DUP2 PUSH2 0x982 JUMP JUMPDEST DUP3 MSTORE POP POP JUMP JUMPDEST PUSH1 0x2 DUP2 LT PUSH2 0xC9A JUMPI PUSH2 0xC99 PUSH2 0xBEB JUMP JUMPDEST JUMPDEST POP JUMP JUMPDEST PUSH1 0x0 DUP2 SWAP1 POP PUSH2 0xCAB DUP3 PUSH2 0xC89 JUMP JUMPDEST SWAP2 SWAP1 POP JUMP JUMPDEST PUSH1 0x0 PUSH2 0xCBB DUP3 PUSH2 0xC9D JUMP JUMPDEST SWAP1 POP SWAP2 SWAP1 POP JUMP JUMPDEST PUSH2 0xCCB DUP2 PUSH2 0xCB0 JUMP JUMPDEST DUP3 MSTORE POP POP JUMP JUMPDEST PUSH1 0x0 PUSH1 0x40 DUP3 ADD SWAP1 POP PUSH2 0xCE6 PUSH1 0x0 DUP4 ADD DUP6 PUSH2 0xC7A JUMP JUMPDEST PUSH2 0xCF3 PUSH1 0x20 DUP4 ADD DUP5 PUSH2 0xCC2 JUMP JUMPDEST SWAP4 SWAP3 POP POP POP JUMP INVALID LOG2 PUSH5 0x6970667358 0x22 SLT KECCAK256 0xD9 0xD8 0xE2 0xA9 0xA7 NUMBER ADD RETURNDATACOPY DUP1 GASLIMIT SLT MUL DUP3 DIV 0x23 PUSH22 0x9B1DE7763D71F1EFC2B15FB9F82E562864736F6C6343 STOP ADDMOD SLT STOP CALLER "
				},
				"gasEstimates": {
					"creation": {
						"codeDepositCost": "675200",
						"executionCost": "infinite",
						"totalCost": "infinite"
					},
					"external": {
						"get_basic_info()": "infinite",
						"get_personal_infor()": "infinite",
						"register_user(uint8,address)": "27241"
					}
				},
				"methodIdentifiers": {
					"get_basic_info()": "8cf36edc",
					"get_personal_infor()": "c4f0d067",
					"register_user(uint8,address)": "13d67e35"
				}
			},
			"storageLayout": {
				"storage": [
					{
						"astId": 24,
						"contract": "contracts/use-cases/my-privacy/my-privacy.sol:identity",
						"label": "basic_info0",
						"offset": 0,
						"slot": "0",
						"type": "t_struct(basic_info)6_storage"
					},
					{
						"astId": 27,
						"contract": "contracts/use-cases/my-privacy/my-privacy.sol:identity",
						"label": "personal_info0",
						"offset": 0,
						"slot": "2",
						"type": "t_struct(personal_info)11_storage"
					},
					{
						"astId": 29,
						"contract": "contracts/use-cases/my-privacy/my-privacy.sol:identity",
						"label": "owner",
						"offset": 0,
						"slot": "4",
						"type": "t_address"
					},
					{
						"astId": 33,
						"contract": "contracts/use-cases/my-privacy/my-privacy.sol:identity",
						"label": "basic_users",
						"offset": 0,
						"slot": "5",
						"type": "t_mapping(t_address,t_bool)"
					},
					{
						"astId": 37,
						"contract": "contracts/use-cases/my-privacy/my-privacy.sol:identity",
						"label": "personal_users",
						"offset": 0,
						"slot": "6",
						"type": "t_mapping(t_address,t_bool)"
					}
				],
				"types": {
					"t_address": {
						"encoding": "inplace",
						"label": "address",
						"numberOfBytes": "20"
					},
					"t_bool": {
						"encoding": "inplace",
						"label": "bool",
						"numberOfBytes": "1"
					},
					"t_mapping(t_address,t_bool)": {
						"encoding": "mapping",
						"key": "t_address",
						"label": "mapping(address => bool)",
						"numberOfBytes": "32",
						"value": "t_bool"
					},
					"t_string_storage": {
						"encoding": "bytes",
						"label": "string",
						"numberOfBytes": "32"
					},
					"t_struct(basic_info)6_storage": {
						"encoding": "inplace",
						"label": "struct identity.basic_info",
						"members": [
							{
								"astId": 3,
								"contract": "contracts/use-cases/my-privacy/my-privacy.sol:identity",
								"label": "name",
								"offset": 0,
								"slot": "0",
								"type": "t_string_storage"
							},
							{
								"astId": 5,
								"contract": "contracts/use-cases/my-privacy/my-privacy.sol:identity",
								"label": "email",
								"offset": 0,
								"slot": "1",
								"type": "t_string_storage"
							}
						],
						"numberOfBytes": "64"
					},
					"t_struct(personal_info)11_storage": {
						"encoding": "inplace",
						"label": "struct identity.personal_info",
						"members": [
							{
								"astId": 8,
								"contract": "contracts/use-cases/my-privacy/my-privacy.sol:identity",
								"label": "salary",
								"offset": 0,
								"slot": "0",
								"type": "t_uint256"
							},
							{
								"astId": 10,
								"contract": "contracts/use-cases/my-privacy/my-privacy.sol:identity",
								"label": "_address",
								"offset": 0,
								"slot": "1",
								"type": "t_string_storage"
							}
						],
						"numberOfBytes": "64"
					},
					"t_uint256": {
						"encoding": "inplace",
						"label": "uint256",
						"numberOfBytes": "32"
					}
				}
			},
			"userdoc": {
				"kind": "user",
				"methods": {},
				"version": 1
			}
		}
	}
}