{
	"contracts/emun types/emun_types.sol": {
		"Enum": {
			"abi": [
				{
					"inputs": [
						{
							"internalType": "enum Enum.state",
							"name": "new_state",
							"type": "uint8"
						}
					],
					"name": "change_state",
					"outputs": [],
					"stateMutability": "nonpayable",
					"type": "function"
				},
				{
					"inputs": [],
					"name": "state_act",
					"outputs": [
						{
							"internalType": "enum Enum.state",
							"name": "",
							"type": "uint8"
						}
					],
					"stateMutability": "view",
					"type": "function"
				}
			],
			"devdoc": {
				"kind": "dev",
				"methods": {},
				"version": 1
			},
			"evm": {
				"assembly": "    /* \"contracts/emun types/emun_types.sol\":70:259  contract Enum {... */\n  mstore(0x40, 0x80)\n    /* \"contracts/emun types/emun_types.sol\":152:166  state.inactive */\n  0x01\n    /* \"contracts/emun types/emun_types.sol\":127:166  state public state_act = state.inactive */\n  0x00\n  dup1\n  0x0100\n  exp\n  dup2\n  sload\n  dup2\n  0xff\n  mul\n  not\n  and\n  swap1\n  dup4\n  0x01\n  dup2\n  gt\n  iszero\n  tag_1\n  jumpi\n  tag_2\n  tag_3\n  jump\t// in\ntag_2:\ntag_1:\n  mul\n  or\n  swap1\n  sstore\n  pop\n    /* \"contracts/emun types/emun_types.sol\":70:259  contract Enum {... */\n  callvalue\n  dup1\n  iszero\n  tag_4\n  jumpi\n  0x00\n  dup1\n  revert\ntag_4:\n  pop\n  jump(tag_5)\n    /* \"#utility.yul\":7:187   */\ntag_3:\n    /* \"#utility.yul\":55:132   */\n  0x4e487b7100000000000000000000000000000000000000000000000000000000\n    /* \"#utility.yul\":52:53   */\n  0x00\n    /* \"#utility.yul\":45:133   */\n  mstore\n    /* \"#utility.yul\":152:156   */\n  0x21\n    /* \"#utility.yul\":149:150   */\n  0x04\n    /* \"#utility.yul\":142:157   */\n  mstore\n    /* \"#utility.yul\":176:180   */\n  0x24\n    /* \"#utility.yul\":173:174   */\n  0x00\n    /* \"#utility.yul\":166:181   */\n  revert\n    /* \"contracts/emun types/emun_types.sol\":70:259  contract Enum {... */\ntag_5:\n  dataSize(sub_0)\n  dup1\n  dataOffset(sub_0)\n  0x00\n  codecopy\n  0x00\n  return\nstop\n\nsub_0: assembly {\n        /* \"contracts/emun types/emun_types.sol\":70:259  contract Enum {... */\n      mstore(0x40, 0x80)\n      callvalue\n      dup1\n      iszero\n      tag_1\n      jumpi\n      0x00\n      dup1\n      revert\n    tag_1:\n      pop\n      jumpi(tag_2, lt(calldatasize, 0x04))\n      shr(0xe0, calldataload(0x00))\n      dup1\n      0x3a2bf466\n      eq\n      tag_3\n      jumpi\n      dup1\n      0xbd9e641e\n      eq\n      tag_4\n      jumpi\n    tag_2:\n      0x00\n      dup1\n      revert\n        /* \"contracts/emun types/emun_types.sol\":173:257  function change_state(state new_state) public {... */\n    tag_3:\n      tag_5\n      0x04\n      dup1\n      calldatasize\n      sub\n      dup2\n      add\n      swap1\n      tag_6\n      swap2\n      swap1\n      tag_7\n      jump\t// in\n    tag_6:\n      tag_8\n      jump\t// in\n    tag_5:\n      stop\n        /* \"contracts/emun types/emun_types.sol\":127:166  state public state_act = state.inactive */\n    tag_4:\n      tag_9\n      tag_10\n      jump\t// in\n    tag_9:\n      mload(0x40)\n      tag_11\n      swap2\n      swap1\n      tag_12\n      jump\t// in\n    tag_11:\n      mload(0x40)\n      dup1\n      swap2\n      sub\n      swap1\n      return\n        /* \"contracts/emun types/emun_types.sol\":173:257  function change_state(state new_state) public {... */\n    tag_8:\n        /* \"contracts/emun types/emun_types.sol\":241:250  new_state */\n      dup1\n        /* \"contracts/emun types/emun_types.sol\":229:238  state_act */\n      0x00\n      dup1\n        /* \"contracts/emun types/emun_types.sol\":229:250  state_act = new_state */\n      0x0100\n      exp\n      dup2\n      sload\n      dup2\n      0xff\n      mul\n      not\n      and\n      swap1\n      dup4\n      0x01\n      dup2\n      gt\n      iszero\n      tag_14\n      jumpi\n      tag_15\n      tag_16\n      jump\t// in\n    tag_15:\n    tag_14:\n      mul\n      or\n      swap1\n      sstore\n      pop\n        /* \"contracts/emun types/emun_types.sol\":173:257  function change_state(state new_state) public {... */\n      pop\n      jump\t// out\n        /* \"contracts/emun types/emun_types.sol\":127:166  state public state_act = state.inactive */\n    tag_10:\n      0x00\n      dup1\n      sload\n      swap1\n      0x0100\n      exp\n      swap1\n      div\n      0xff\n      and\n      dup2\n      jump\t// out\n        /* \"#utility.yul\":88:205   */\n    tag_18:\n        /* \"#utility.yul\":197:198   */\n      0x00\n        /* \"#utility.yul\":194:195   */\n      dup1\n        /* \"#utility.yul\":187:199   */\n      revert\n        /* \"#utility.yul\":334:440   */\n    tag_20:\n        /* \"#utility.yul\":414:415   */\n      0x02\n        /* \"#utility.yul\":407:412   */\n      dup2\n        /* \"#utility.yul\":404:416   */\n      lt\n        /* \"#utility.yul\":394:434   */\n      tag_31\n      jumpi\n        /* \"#utility.yul\":430:431   */\n      0x00\n        /* \"#utility.yul\":427:428   */\n      dup1\n        /* \"#utility.yul\":420:432   */\n      revert\n        /* \"#utility.yul\":394:434   */\n    tag_31:\n        /* \"#utility.yul\":334:440   */\n      pop\n      jump\t// out\n        /* \"#utility.yul\":446:599   */\n    tag_21:\n        /* \"#utility.yul\":499:504   */\n      0x00\n        /* \"#utility.yul\":537:543   */\n      dup2\n        /* \"#utility.yul\":524:544   */\n      calldataload\n        /* \"#utility.yul\":515:544   */\n      swap1\n      pop\n        /* \"#utility.yul\":553:593   */\n      tag_33\n        /* \"#utility.yul\":587:592   */\n      dup2\n        /* \"#utility.yul\":553:593   */\n      tag_20\n      jump\t// in\n    tag_33:\n        /* \"#utility.yul\":446:599   */\n      swap3\n      swap2\n      pop\n      pop\n      jump\t// out\n        /* \"#utility.yul\":605:948   */\n    tag_7:\n        /* \"#utility.yul\":671:677   */\n      0x00\n        /* \"#utility.yul\":720:722   */\n      0x20\n        /* \"#utility.yul\":708:717   */\n      dup3\n        /* \"#utility.yul\":699:706   */\n      dup5\n        /* \"#utility.yul\":695:718   */\n      sub\n        /* \"#utility.yul\":691:723   */\n      slt\n        /* \"#utility.yul\":688:807   */\n      iszero\n      tag_35\n      jumpi\n        /* \"#utility.yul\":726:805   */\n      tag_36\n      tag_18\n      jump\t// in\n    tag_36:\n        /* \"#utility.yul\":688:807   */\n    tag_35:\n        /* \"#utility.yul\":846:847   */\n      0x00\n        /* \"#utility.yul\":871:931   */\n      tag_37\n        /* \"#utility.yul\":923:930   */\n      dup5\n        /* \"#utility.yul\":914:920   */\n      dup3\n        /* \"#utility.yul\":903:912   */\n      dup6\n        /* \"#utility.yul\":899:921   */\n      add\n        /* \"#utility.yul\":871:931   */\n      tag_21\n      jump\t// in\n    tag_37:\n        /* \"#utility.yul\":861:931   */\n      swap2\n      pop\n        /* \"#utility.yul\":817:941   */\n      pop\n        /* \"#utility.yul\":605:948   */\n      swap3\n      swap2\n      pop\n      pop\n      jump\t// out\n        /* \"#utility.yul\":954:1134   */\n    tag_16:\n        /* \"#utility.yul\":1002:1079   */\n      0x4e487b7100000000000000000000000000000000000000000000000000000000\n        /* \"#utility.yul\":999:1000   */\n      0x00\n        /* \"#utility.yul\":992:1080   */\n      mstore\n        /* \"#utility.yul\":1099:1103   */\n      0x21\n        /* \"#utility.yul\":1096:1097   */\n      0x04\n        /* \"#utility.yul\":1089:1104   */\n      mstore\n        /* \"#utility.yul\":1123:1127   */\n      0x24\n        /* \"#utility.yul\":1120:1121   */\n      0x00\n        /* \"#utility.yul\":1113:1128   */\n      revert\n        /* \"#utility.yul\":1140:1252   */\n    tag_22:\n        /* \"#utility.yul\":1220:1221   */\n      0x02\n        /* \"#utility.yul\":1213:1218   */\n      dup2\n        /* \"#utility.yul\":1210:1222   */\n      lt\n        /* \"#utility.yul\":1200:1246   */\n      tag_40\n      jumpi\n        /* \"#utility.yul\":1226:1244   */\n      tag_41\n      tag_16\n      jump\t// in\n    tag_41:\n        /* \"#utility.yul\":1200:1246   */\n    tag_40:\n        /* \"#utility.yul\":1140:1252   */\n      pop\n      jump\t// out\n        /* \"#utility.yul\":1258:1383   */\n    tag_23:\n        /* \"#utility.yul\":1302:1309   */\n      0x00\n        /* \"#utility.yul\":1331:1336   */\n      dup2\n        /* \"#utility.yul\":1320:1336   */\n      swap1\n      pop\n        /* \"#utility.yul\":1337:1377   */\n      tag_43\n        /* \"#utility.yul\":1371:1376   */\n      dup3\n        /* \"#utility.yul\":1337:1377   */\n      tag_22\n      jump\t// in\n    tag_43:\n        /* \"#utility.yul\":1258:1383   */\n      swap2\n      swap1\n      pop\n      jump\t// out\n        /* \"#utility.yul\":1389:1514   */\n    tag_24:\n        /* \"#utility.yul\":1444:1453   */\n      0x00\n        /* \"#utility.yul\":1477:1508   */\n      tag_45\n        /* \"#utility.yul\":1502:1507   */\n      dup3\n        /* \"#utility.yul\":1477:1508   */\n      tag_23\n      jump\t// in\n    tag_45:\n        /* \"#utility.yul\":1464:1508   */\n      swap1\n      pop\n        /* \"#utility.yul\":1389:1514   */\n      swap2\n      swap1\n      pop\n      jump\t// out\n        /* \"#utility.yul\":1520:1661   */\n    tag_25:\n        /* \"#utility.yul\":1612:1654   */\n      tag_47\n        /* \"#utility.yul\":1648:1653   */\n      dup2\n        /* \"#utility.yul\":1612:1654   */\n      tag_24\n      jump\t// in\n    tag_47:\n        /* \"#utility.yul\":1607:1610   */\n      dup3\n        /* \"#utility.yul\":1600:1655   */\n      mstore\n        /* \"#utility.yul\":1520:1661   */\n      pop\n      pop\n      jump\t// out\n        /* \"#utility.yul\":1667:1899   */\n    tag_12:\n        /* \"#utility.yul\":1765:1769   */\n      0x00\n        /* \"#utility.yul\":1803:1805   */\n      0x20\n        /* \"#utility.yul\":1792:1801   */\n      dup3\n        /* \"#utility.yul\":1788:1806   */\n      add\n        /* \"#utility.yul\":1780:1806   */\n      swap1\n      pop\n        /* \"#utility.yul\":1816:1892   */\n      tag_49\n        /* \"#utility.yul\":1889:1890   */\n      0x00\n        /* \"#utility.yul\":1878:1887   */\n      dup4\n        /* \"#utility.yul\":1874:1891   */\n      add\n        /* \"#utility.yul\":1865:1871   */\n      dup5\n        /* \"#utility.yul\":1816:1892   */\n      tag_25\n      jump\t// in\n    tag_49:\n        /* \"#utility.yul\":1667:1899   */\n      swap3\n      swap2\n      pop\n      pop\n      jump\t// out\n\n    auxdata: 0xa264697066735822122005b48d18edc1d8f4cf4baf2b7b7ad210fb3aa395f301df460e93cf67f4f2045d64736f6c63430008120033\n}\n",
				"bytecode": {
					"linkReferences": {},
					"object": "608060405260016000806101000a81548160ff0219169083600181111561002957610028610040565b5b021790555034801561003a57600080fd5b5061006f565b7f4e487b7100000000000000000000000000000000000000000000000000000000600052602160045260246000fd5b6101d18061007e6000396000f3fe608060405234801561001057600080fd5b50600436106100365760003560e01c80633a2bf4661461003b578063bd9e641e14610057575b600080fd5b610055600480360381019061005091906100dc565b610075565b005b61005f6100a1565b60405161006c9190610180565b60405180910390f35b806000806101000a81548160ff0219169083600181111561009957610098610109565b5b021790555050565b60008054906101000a900460ff1681565b600080fd5b600281106100c457600080fd5b50565b6000813590506100d6816100b7565b92915050565b6000602082840312156100f2576100f16100b2565b5b6000610100848285016100c7565b91505092915050565b7f4e487b7100000000000000000000000000000000000000000000000000000000600052602160045260246000fd5b6002811061014957610148610109565b5b50565b600081905061015a82610138565b919050565b600061016a8261014c565b9050919050565b61017a8161015f565b82525050565b60006020820190506101956000830184610171565b9291505056fea264697066735822122005b48d18edc1d8f4cf4baf2b7b7ad210fb3aa395f301df460e93cf67f4f2045d64736f6c63430008120033",
					"opcodes": "PUSH1 0x80 PUSH1 0x40 MSTORE PUSH1 0x1 PUSH1 0x0 DUP1 PUSH2 0x100 EXP DUP2 SLOAD DUP2 PUSH1 0xFF MUL NOT AND SWAP1 DUP4 PUSH1 0x1 DUP2 GT ISZERO PUSH2 0x29 JUMPI PUSH2 0x28 PUSH2 0x40 JUMP JUMPDEST JUMPDEST MUL OR SWAP1 SSTORE POP CALLVALUE DUP1 ISZERO PUSH2 0x3A JUMPI PUSH1 0x0 DUP1 REVERT JUMPDEST POP PUSH2 0x6F JUMP JUMPDEST PUSH32 0x4E487B7100000000000000000000000000000000000000000000000000000000 PUSH1 0x0 MSTORE PUSH1 0x21 PUSH1 0x4 MSTORE PUSH1 0x24 PUSH1 0x0 REVERT JUMPDEST PUSH2 0x1D1 DUP1 PUSH2 0x7E PUSH1 0x0 CODECOPY PUSH1 0x0 RETURN INVALID PUSH1 0x80 PUSH1 0x40 MSTORE CALLVALUE DUP1 ISZERO PUSH2 0x10 JUMPI PUSH1 0x0 DUP1 REVERT JUMPDEST POP PUSH1 0x4 CALLDATASIZE LT PUSH2 0x36 JUMPI PUSH1 0x0 CALLDATALOAD PUSH1 0xE0 SHR DUP1 PUSH4 0x3A2BF466 EQ PUSH2 0x3B JUMPI DUP1 PUSH4 0xBD9E641E EQ PUSH2 0x57 JUMPI JUMPDEST PUSH1 0x0 DUP1 REVERT JUMPDEST PUSH2 0x55 PUSH1 0x4 DUP1 CALLDATASIZE SUB DUP2 ADD SWAP1 PUSH2 0x50 SWAP2 SWAP1 PUSH2 0xDC JUMP JUMPDEST PUSH2 0x75 JUMP JUMPDEST STOP JUMPDEST PUSH2 0x5F PUSH2 0xA1 JUMP JUMPDEST PUSH1 0x40 MLOAD PUSH2 0x6C SWAP2 SWAP1 PUSH2 0x180 JUMP JUMPDEST PUSH1 0x40 MLOAD DUP1 SWAP2 SUB SWAP1 RETURN JUMPDEST DUP1 PUSH1 0x0 DUP1 PUSH2 0x100 EXP DUP2 SLOAD DUP2 PUSH1 0xFF MUL NOT AND SWAP1 DUP4 PUSH1 0x1 DUP2 GT ISZERO PUSH2 0x99 JUMPI PUSH2 0x98 PUSH2 0x109 JUMP JUMPDEST JUMPDEST MUL OR SWAP1 SSTORE POP POP JUMP JUMPDEST PUSH1 0x0 DUP1 SLOAD SWAP1 PUSH2 0x100 EXP SWAP1 DIV PUSH1 0xFF AND DUP2 JUMP JUMPDEST PUSH1 0x0 DUP1 REVERT JUMPDEST PUSH1 0x2 DUP2 LT PUSH2 0xC4 JUMPI PUSH1 0x0 DUP1 REVERT JUMPDEST POP JUMP JUMPDEST PUSH1 0x0 DUP2 CALLDATALOAD SWAP1 POP PUSH2 0xD6 DUP2 PUSH2 0xB7 JUMP JUMPDEST SWAP3 SWAP2 POP POP JUMP JUMPDEST PUSH1 0x0 PUSH1 0x20 DUP3 DUP5 SUB SLT ISZERO PUSH2 0xF2 JUMPI PUSH2 0xF1 PUSH2 0xB2 JUMP JUMPDEST JUMPDEST PUSH1 0x0 PUSH2 0x100 DUP5 DUP3 DUP6 ADD PUSH2 0xC7 JUMP JUMPDEST SWAP2 POP POP SWAP3 SWAP2 POP POP JUMP JUMPDEST PUSH32 0x4E487B7100000000000000000000000000000000000000000000000000000000 PUSH1 0x0 MSTORE PUSH1 0x21 PUSH1 0x4 MSTORE PUSH1 0x24 PUSH1 0x0 REVERT JUMPDEST PUSH1 0x2 DUP2 LT PUSH2 0x149 JUMPI PUSH2 0x148 PUSH2 0x109 JUMP JUMPDEST JUMPDEST POP JUMP JUMPDEST PUSH1 0x0 DUP2 SWAP1 POP PUSH2 0x15A DUP3 PUSH2 0x138 JUMP JUMPDEST SWAP2 SWAP1 POP JUMP JUMPDEST PUSH1 0x0 PUSH2 0x16A DUP3 PUSH2 0x14C JUMP JUMPDEST SWAP1 POP SWAP2 SWAP1 POP JUMP JUMPDEST PUSH2 0x17A DUP2 PUSH2 0x15F JUMP JUMPDEST DUP3 MSTORE POP POP JUMP JUMPDEST PUSH1 0x0 PUSH1 0x20 DUP3 ADD SWAP1 POP PUSH2 0x195 PUSH1 0x0 DUP4 ADD DUP5 PUSH2 0x171 JUMP JUMPDEST SWAP3 SWAP2 POP POP JUMP INVALID LOG2 PUSH5 0x6970667358 0x22 SLT KECCAK256 SDIV 0xB4 DUP14 XOR 0xED 0xC1 0xD8 DELEGATECALL 0xCF 0x4B 0xAF 0x2B PUSH28 0x7AD210FB3AA395F301DF460E93CF67F4F2045D64736F6C6343000812 STOP CALLER "
				},
				"gasEstimates": {
					"creation": {
						"codeDepositCost": "93000",
						"executionCost": "24440",
						"totalCost": "117440"
					},
					"external": {
						"change_state(uint8)": "24628",
						"state_act()": "2557"
					}
				},
				"methodIdentifiers": {
					"change_state(uint8)": "3a2bf466",
					"state_act()": "bd9e641e"
				}
			},
			"storageLayout": {
				"storage": [
					{
						"astId": 9,
						"contract": "contracts/emun types/emun_types.sol:Enum",
						"label": "state_act",
						"offset": 0,
						"slot": "0",
						"type": "t_enum(state)4"
					}
				],
				"types": {
					"t_enum(state)4": {
						"encoding": "inplace",
						"label": "enum Enum.state",
						"numberOfBytes": "1"
					}
				}
			},
			"userdoc": {
				"kind": "user",
				"methods": {},
				"version": 1
			}
		}
	}
}