{
	"contracts/use-cases/authentication_with_privacy_access/mix_contract.sol": {
		"authenticate": {
			"abi": [
				{
					"inputs": [
						{
							"internalType": "string",
							"name": "name",
							"type": "string"
						},
						{
							"internalType": "string",
							"name": "email",
							"type": "string"
						},
						{
							"internalType": "uint256",
							"name": "salary",
							"type": "uint256"
						},
						{
							"internalType": "string",
							"name": "_address",
							"type": "string"
						}
					],
					"stateMutability": "nonpayable",
					"type": "constructor"
				},
				{
					"inputs": [
						{
							"internalType": "address",
							"name": "user",
							"type": "address"
						},
						{
							"internalType": "enum authenticate.user_type",
							"name": "user_type0",
							"type": "uint8"
						}
					],
					"name": "user_un_authorized",
					"type": "error"
				},
				{
					"inputs": [],
					"name": "authenticator",
					"outputs": [],
					"stateMutability": "nonpayable",
					"type": "function"
				},
				{
					"inputs": [],
					"name": "get_basic_info",
					"outputs": [
						{
							"components": [
								{
									"internalType": "string",
									"name": "name",
									"type": "string"
								},
								{
									"internalType": "string",
									"name": "email",
									"type": "string"
								}
							],
							"internalType": "struct authenticate.basic_info",
							"name": "",
							"type": "tuple"
						}
					],
					"stateMutability": "view",
					"type": "function"
				},
				{
					"inputs": [],
					"name": "get_personal_infor",
					"outputs": [
						{
							"components": [
								{
									"internalType": "uint256",
									"name": "salary",
									"type": "uint256"
								},
								{
									"internalType": "string",
									"name": "_address",
									"type": "string"
								}
							],
							"internalType": "struct authenticate.personal_info",
							"name": "",
							"type": "tuple"
						}
					],
					"stateMutability": "view",
					"type": "function"
				},
				{
					"inputs": [
						{
							"internalType": "enum authenticate.user_type",
							"name": "user_type0",
							"type": "uint8"
						},
						{
							"internalType": "address",
							"name": "user",
							"type": "address"
						}
					],
					"name": "register_user",
					"outputs": [],
					"stateMutability": "nonpayable",
					"type": "function"
				},
				{
					"inputs": [
						{
							"internalType": "address",
							"name": "",
							"type": "address"
						}
					],
					"name": "users",
					"outputs": [
						{
							"internalType": "bool",
							"name": "",
							"type": "bool"
						}
					],
					"stateMutability": "view",
					"type": "function"
				}
			],
			"devdoc": {
				"kind": "dev",
				"methods": {},
				"version": 1
			},
			"evm": {
				"assembly": "    /* \"contracts/use-cases/authentication_with_privacy_access/mix_contract.sol\":70:1959  contract authenticate {... */\n  mstore(0x40, 0x80)\n    /* \"contracts/use-cases/authentication_with_privacy_access/mix_contract.sol\":641:874  constructor(string memory name, string memory email, uint256 salary, string memory _address){... */\n  callvalue\n  dup1\n  iszero\n  tag_1\n  jumpi\n  0x00\n  dup1\n  revert\ntag_1:\n  pop\n  mload(0x40)\n  sub(codesize, bytecodeSize)\n  dup1\n  bytecodeSize\n  dup4\n  codecopy\n  dup2\n  dup2\n  add\n  0x40\n  mstore\n  dup2\n  add\n  swap1\n  tag_2\n  swap2\n  swap1\n  tag_3\n  jump\t// in\ntag_2:\n    /* \"contracts/use-cases/authentication_with_privacy_access/mix_contract.sol\":757:780  basic_info(name, email) */\n  mload(0x40)\n  dup1\n  0x40\n  add\n  0x40\n  mstore\n  dup1\n    /* \"contracts/use-cases/authentication_with_privacy_access/mix_contract.sol\":768:772  name */\n  dup6\n    /* \"contracts/use-cases/authentication_with_privacy_access/mix_contract.sol\":757:780  basic_info(name, email) */\n  dup2\n  mstore\n  0x20\n  add\n    /* \"contracts/use-cases/authentication_with_privacy_access/mix_contract.sol\":774:779  email */\n  dup5\n    /* \"contracts/use-cases/authentication_with_privacy_access/mix_contract.sol\":757:780  basic_info(name, email) */\n  dup2\n  mstore\n  pop\n    /* \"contracts/use-cases/authentication_with_privacy_access/mix_contract.sol\":743:754  basic_info0 */\n  0x00\n    /* \"contracts/use-cases/authentication_with_privacy_access/mix_contract.sol\":743:780  basic_info0 = basic_info(name, email) */\n  dup1\n  dup3\n  add\n  mload\n  dup2\n  0x00\n  add\n  swap1\n  dup2\n  tag_6\n  swap2\n  swap1\n  tag_7\n  jump\t// in\ntag_6:\n  pop\n  0x20\n  dup3\n  add\n  mload\n  dup2\n  0x01\n  add\n  swap1\n  dup2\n  tag_8\n  swap2\n  swap1\n  tag_7\n  jump\t// in\ntag_8:\n  pop\n  swap1\n  pop\n  pop\n    /* \"contracts/use-cases/authentication_with_privacy_access/mix_contract.sol\":807:838  personal_info(salary, _address) */\n  mload(0x40)\n  dup1\n  0x40\n  add\n  0x40\n  mstore\n  dup1\n    /* \"contracts/use-cases/authentication_with_privacy_access/mix_contract.sol\":821:827  salary */\n  dup4\n    /* \"contracts/use-cases/authentication_with_privacy_access/mix_contract.sol\":807:838  personal_info(salary, _address) */\n  dup2\n  mstore\n  0x20\n  add\n    /* \"contracts/use-cases/authentication_with_privacy_access/mix_contract.sol\":829:837  _address */\n  dup3\n    /* \"contracts/use-cases/authentication_with_privacy_access/mix_contract.sol\":807:838  personal_info(salary, _address) */\n  dup2\n  mstore\n  pop\n    /* \"contracts/use-cases/authentication_with_privacy_access/mix_contract.sol\":790:804  personal_info0 */\n  0x02\n    /* \"contracts/use-cases/authentication_with_privacy_access/mix_contract.sol\":790:838  personal_info0 = personal_info(salary, _address) */\n  0x00\n  dup3\n  add\n  mload\n  dup2\n  0x00\n  add\n  sstore\n  0x20\n  dup3\n  add\n  mload\n  dup2\n  0x01\n  add\n  swap1\n  dup2\n  tag_9\n  swap2\n  swap1\n  tag_7\n  jump\t// in\ntag_9:\n  pop\n  swap1\n  pop\n  pop\n    /* \"contracts/use-cases/authentication_with_privacy_access/mix_contract.sol\":857:867  msg.sender */\n  caller\n    /* \"contracts/use-cases/authentication_with_privacy_access/mix_contract.sol\":849:854  owner */\n  0x04\n  0x00\n    /* \"contracts/use-cases/authentication_with_privacy_access/mix_contract.sol\":849:867  owner = msg.sender */\n  0x0100\n  exp\n  dup2\n  sload\n  dup2\n  0xffffffffffffffffffffffffffffffffffffffff\n  mul\n  not\n  and\n  swap1\n  dup4\n  0xffffffffffffffffffffffffffffffffffffffff\n  and\n  mul\n  or\n  swap1\n  sstore\n  pop\n    /* \"contracts/use-cases/authentication_with_privacy_access/mix_contract.sol\":641:874  constructor(string memory name, string memory email, uint256 salary, string memory _address){... */\n  pop\n  pop\n  pop\n  pop\n    /* \"contracts/use-cases/authentication_with_privacy_access/mix_contract.sol\":70:1959  contract authenticate {... */\n  jump(tag_10)\n    /* \"#utility.yul\":7:82   */\ntag_11:\n    /* \"#utility.yul\":40:46   */\n  0x00\n    /* \"#utility.yul\":73:75   */\n  0x40\n    /* \"#utility.yul\":67:76   */\n  mload\n    /* \"#utility.yul\":57:76   */\n  swap1\n  pop\n    /* \"#utility.yul\":7:82   */\n  swap1\n  jump\t// out\n    /* \"#utility.yul\":88:205   */\ntag_12:\n    /* \"#utility.yul\":197:198   */\n  0x00\n    /* \"#utility.yul\":194:195   */\n  dup1\n    /* \"#utility.yul\":187:199   */\n  revert\n    /* \"#utility.yul\":211:328   */\ntag_13:\n    /* \"#utility.yul\":320:321   */\n  0x00\n    /* \"#utility.yul\":317:318   */\n  dup1\n    /* \"#utility.yul\":310:322   */\n  revert\n    /* \"#utility.yul\":334:451   */\ntag_14:\n    /* \"#utility.yul\":443:444   */\n  0x00\n    /* \"#utility.yul\":440:441   */\n  dup1\n    /* \"#utility.yul\":433:445   */\n  revert\n    /* \"#utility.yul\":457:574   */\ntag_15:\n    /* \"#utility.yul\":566:567   */\n  0x00\n    /* \"#utility.yul\":563:564   */\n  dup1\n    /* \"#utility.yul\":556:568   */\n  revert\n    /* \"#utility.yul\":580:682   */\ntag_16:\n    /* \"#utility.yul\":621:627   */\n  0x00\n    /* \"#utility.yul\":672:674   */\n  0x1f\n    /* \"#utility.yul\":668:675   */\n  not\n    /* \"#utility.yul\":663:665   */\n  0x1f\n    /* \"#utility.yul\":656:661   */\n  dup4\n    /* \"#utility.yul\":652:666   */\n  add\n    /* \"#utility.yul\":648:676   */\n  and\n    /* \"#utility.yul\":638:676   */\n  swap1\n  pop\n    /* \"#utility.yul\":580:682   */\n  swap2\n  swap1\n  pop\n  jump\t// out\n    /* \"#utility.yul\":688:868   */\ntag_17:\n    /* \"#utility.yul\":736:813   */\n  0x4e487b7100000000000000000000000000000000000000000000000000000000\n    /* \"#utility.yul\":733:734   */\n  0x00\n    /* \"#utility.yul\":726:814   */\n  mstore\n    /* \"#utility.yul\":833:837   */\n  0x41\n    /* \"#utility.yul\":830:831   */\n  0x04\n    /* \"#utility.yul\":823:838   */\n  mstore\n    /* \"#utility.yul\":857:861   */\n  0x24\n    /* \"#utility.yul\":854:855   */\n  0x00\n    /* \"#utility.yul\":847:862   */\n  revert\n    /* \"#utility.yul\":874:1155   */\ntag_18:\n    /* \"#utility.yul\":957:984   */\n  tag_54\n    /* \"#utility.yul\":979:983   */\n  dup3\n    /* \"#utility.yul\":957:984   */\n  tag_16\n  jump\t// in\ntag_54:\n    /* \"#utility.yul\":949:955   */\n  dup2\n    /* \"#utility.yul\":945:985   */\n  add\n    /* \"#utility.yul\":1087:1093   */\n  dup2\n    /* \"#utility.yul\":1075:1085   */\n  dup2\n    /* \"#utility.yul\":1072:1094   */\n  lt\n    /* \"#utility.yul\":1051:1069   */\n  0xffffffffffffffff\n    /* \"#utility.yul\":1039:1049   */\n  dup3\n    /* \"#utility.yul\":1036:1070   */\n  gt\n    /* \"#utility.yul\":1033:1095   */\n  or\n    /* \"#utility.yul\":1030:1118   */\n  iszero\n  tag_55\n  jumpi\n    /* \"#utility.yul\":1098:1116   */\n  tag_56\n  tag_17\n  jump\t// in\ntag_56:\n    /* \"#utility.yul\":1030:1118   */\ntag_55:\n    /* \"#utility.yul\":1138:1148   */\n  dup1\n    /* \"#utility.yul\":1134:1136   */\n  0x40\n    /* \"#utility.yul\":1127:1149   */\n  mstore\n    /* \"#utility.yul\":917:1155   */\n  pop\n    /* \"#utility.yul\":874:1155   */\n  pop\n  pop\n  jump\t// out\n    /* \"#utility.yul\":1161:1290   */\ntag_19:\n    /* \"#utility.yul\":1195:1201   */\n  0x00\n    /* \"#utility.yul\":1222:1242   */\n  tag_58\n  tag_11\n  jump\t// in\ntag_58:\n    /* \"#utility.yul\":1212:1242   */\n  swap1\n  pop\n    /* \"#utility.yul\":1251:1284   */\n  tag_59\n    /* \"#utility.yul\":1279:1283   */\n  dup3\n    /* \"#utility.yul\":1271:1277   */\n  dup3\n    /* \"#utility.yul\":1251:1284   */\n  tag_18\n  jump\t// in\ntag_59:\n    /* \"#utility.yul\":1161:1290   */\n  swap2\n  swap1\n  pop\n  jump\t// out\n    /* \"#utility.yul\":1296:1604   */\ntag_20:\n    /* \"#utility.yul\":1358:1362   */\n  0x00\n    /* \"#utility.yul\":1448:1466   */\n  0xffffffffffffffff\n    /* \"#utility.yul\":1440:1446   */\n  dup3\n    /* \"#utility.yul\":1437:1467   */\n  gt\n    /* \"#utility.yul\":1434:1490   */\n  iszero\n  tag_61\n  jumpi\n    /* \"#utility.yul\":1470:1488   */\n  tag_62\n  tag_17\n  jump\t// in\ntag_62:\n    /* \"#utility.yul\":1434:1490   */\ntag_61:\n    /* \"#utility.yul\":1508:1537   */\n  tag_63\n    /* \"#utility.yul\":1530:1536   */\n  dup3\n    /* \"#utility.yul\":1508:1537   */\n  tag_16\n  jump\t// in\ntag_63:\n    /* \"#utility.yul\":1500:1537   */\n  swap1\n  pop\n    /* \"#utility.yul\":1592:1596   */\n  0x20\n    /* \"#utility.yul\":1586:1590   */\n  dup2\n    /* \"#utility.yul\":1582:1597   */\n  add\n    /* \"#utility.yul\":1574:1597   */\n  swap1\n  pop\n    /* \"#utility.yul\":1296:1604   */\n  swap2\n  swap1\n  pop\n  jump\t// out\n    /* \"#utility.yul\":1610:1856   */\ntag_21:\n    /* \"#utility.yul\":1691:1692   */\n  0x00\n    /* \"#utility.yul\":1701:1814   */\ntag_65:\n    /* \"#utility.yul\":1715:1721   */\n  dup4\n    /* \"#utility.yul\":1712:1713   */\n  dup2\n    /* \"#utility.yul\":1709:1722   */\n  lt\n    /* \"#utility.yul\":1701:1814   */\n  iszero\n  tag_67\n  jumpi\n    /* \"#utility.yul\":1800:1801   */\n  dup1\n    /* \"#utility.yul\":1795:1798   */\n  dup3\n    /* \"#utility.yul\":1791:1802   */\n  add\n    /* \"#utility.yul\":1785:1803   */\n  mload\n    /* \"#utility.yul\":1781:1782   */\n  dup2\n    /* \"#utility.yul\":1776:1779   */\n  dup5\n    /* \"#utility.yul\":1772:1783   */\n  add\n    /* \"#utility.yul\":1765:1804   */\n  mstore\n    /* \"#utility.yul\":1737:1739   */\n  0x20\n    /* \"#utility.yul\":1734:1735   */\n  dup2\n    /* \"#utility.yul\":1730:1740   */\n  add\n    /* \"#utility.yul\":1725:1740   */\n  swap1\n  pop\n    /* \"#utility.yul\":1701:1814   */\n  jump(tag_65)\ntag_67:\n    /* \"#utility.yul\":1848:1849   */\n  0x00\n    /* \"#utility.yul\":1839:1845   */\n  dup5\n    /* \"#utility.yul\":1834:1837   */\n  dup5\n    /* \"#utility.yul\":1830:1846   */\n  add\n    /* \"#utility.yul\":1823:1850   */\n  mstore\n    /* \"#utility.yul\":1672:1856   */\n  pop\n    /* \"#utility.yul\":1610:1856   */\n  pop\n  pop\n  pop\n  jump\t// out\n    /* \"#utility.yul\":1862:2296   */\ntag_22:\n    /* \"#utility.yul\":1951:1956   */\n  0x00\n    /* \"#utility.yul\":1976:2042   */\n  tag_69\n    /* \"#utility.yul\":1992:2041   */\n  tag_70\n    /* \"#utility.yul\":2034:2040   */\n  dup5\n    /* \"#utility.yul\":1992:2041   */\n  tag_20\n  jump\t// in\ntag_70:\n    /* \"#utility.yul\":1976:2042   */\n  tag_19\n  jump\t// in\ntag_69:\n    /* \"#utility.yul\":1967:2042   */\n  swap1\n  pop\n    /* \"#utility.yul\":2065:2071   */\n  dup3\n    /* \"#utility.yul\":2058:2063   */\n  dup2\n    /* \"#utility.yul\":2051:2072   */\n  mstore\n    /* \"#utility.yul\":2103:2107   */\n  0x20\n    /* \"#utility.yul\":2096:2101   */\n  dup2\n    /* \"#utility.yul\":2092:2108   */\n  add\n    /* \"#utility.yul\":2141:2144   */\n  dup5\n    /* \"#utility.yul\":2132:2138   */\n  dup5\n    /* \"#utility.yul\":2127:2130   */\n  dup5\n    /* \"#utility.yul\":2123:2139   */\n  add\n    /* \"#utility.yul\":2120:2145   */\n  gt\n    /* \"#utility.yul\":2117:2229   */\n  iszero\n  tag_71\n  jumpi\n    /* \"#utility.yul\":2148:2227   */\n  tag_72\n  tag_15\n  jump\t// in\ntag_72:\n    /* \"#utility.yul\":2117:2229   */\ntag_71:\n    /* \"#utility.yul\":2238:2290   */\n  tag_73\n    /* \"#utility.yul\":2283:2289   */\n  dup5\n    /* \"#utility.yul\":2278:2281   */\n  dup3\n    /* \"#utility.yul\":2273:2276   */\n  dup6\n    /* \"#utility.yul\":2238:2290   */\n  tag_21\n  jump\t// in\ntag_73:\n    /* \"#utility.yul\":1957:2296   */\n  pop\n    /* \"#utility.yul\":1862:2296   */\n  swap4\n  swap3\n  pop\n  pop\n  pop\n  jump\t// out\n    /* \"#utility.yul\":2316:2671   */\ntag_23:\n    /* \"#utility.yul\":2383:2388   */\n  0x00\n    /* \"#utility.yul\":2432:2435   */\n  dup3\n    /* \"#utility.yul\":2425:2429   */\n  0x1f\n    /* \"#utility.yul\":2417:2423   */\n  dup4\n    /* \"#utility.yul\":2413:2430   */\n  add\n    /* \"#utility.yul\":2409:2436   */\n  slt\n    /* \"#utility.yul\":2399:2521   */\n  tag_75\n  jumpi\n    /* \"#utility.yul\":2440:2519   */\n  tag_76\n  tag_14\n  jump\t// in\ntag_76:\n    /* \"#utility.yul\":2399:2521   */\ntag_75:\n    /* \"#utility.yul\":2550:2556   */\n  dup2\n    /* \"#utility.yul\":2544:2557   */\n  mload\n    /* \"#utility.yul\":2575:2665   */\n  tag_77\n    /* \"#utility.yul\":2661:2664   */\n  dup5\n    /* \"#utility.yul\":2653:2659   */\n  dup3\n    /* \"#utility.yul\":2646:2650   */\n  0x20\n    /* \"#utility.yul\":2638:2644   */\n  dup7\n    /* \"#utility.yul\":2634:2651   */\n  add\n    /* \"#utility.yul\":2575:2665   */\n  tag_22\n  jump\t// in\ntag_77:\n    /* \"#utility.yul\":2566:2665   */\n  swap2\n  pop\n    /* \"#utility.yul\":2389:2671   */\n  pop\n    /* \"#utility.yul\":2316:2671   */\n  swap3\n  swap2\n  pop\n  pop\n  jump\t// out\n    /* \"#utility.yul\":2677:2754   */\ntag_24:\n    /* \"#utility.yul\":2714:2721   */\n  0x00\n    /* \"#utility.yul\":2743:2748   */\n  dup2\n    /* \"#utility.yul\":2732:2748   */\n  swap1\n  pop\n    /* \"#utility.yul\":2677:2754   */\n  swap2\n  swap1\n  pop\n  jump\t// out\n    /* \"#utility.yul\":2760:2882   */\ntag_25:\n    /* \"#utility.yul\":2833:2857   */\n  tag_80\n    /* \"#utility.yul\":2851:2856   */\n  dup2\n    /* \"#utility.yul\":2833:2857   */\n  tag_24\n  jump\t// in\ntag_80:\n    /* \"#utility.yul\":2826:2831   */\n  dup2\n    /* \"#utility.yul\":2823:2858   */\n  eq\n    /* \"#utility.yul\":2813:2876   */\n  tag_81\n  jumpi\n    /* \"#utility.yul\":2872:2873   */\n  0x00\n    /* \"#utility.yul\":2869:2870   */\n  dup1\n    /* \"#utility.yul\":2862:2874   */\n  revert\n    /* \"#utility.yul\":2813:2876   */\ntag_81:\n    /* \"#utility.yul\":2760:2882   */\n  pop\n  jump\t// out\n    /* \"#utility.yul\":2888:3031   */\ntag_26:\n    /* \"#utility.yul\":2945:2950   */\n  0x00\n    /* \"#utility.yul\":2976:2982   */\n  dup2\n    /* \"#utility.yul\":2970:2983   */\n  mload\n    /* \"#utility.yul\":2961:2983   */\n  swap1\n  pop\n    /* \"#utility.yul\":2992:3025   */\n  tag_83\n    /* \"#utility.yul\":3019:3024   */\n  dup2\n    /* \"#utility.yul\":2992:3025   */\n  tag_25\n  jump\t// in\ntag_83:\n    /* \"#utility.yul\":2888:3031   */\n  swap3\n  swap2\n  pop\n  pop\n  jump\t// out\n    /* \"#utility.yul\":3037:4376   */\ntag_3:\n    /* \"#utility.yul\":3164:3170   */\n  0x00\n    /* \"#utility.yul\":3172:3178   */\n  dup1\n    /* \"#utility.yul\":3180:3186   */\n  0x00\n    /* \"#utility.yul\":3188:3194   */\n  dup1\n    /* \"#utility.yul\":3237:3240   */\n  0x80\n    /* \"#utility.yul\":3225:3234   */\n  dup6\n    /* \"#utility.yul\":3216:3223   */\n  dup8\n    /* \"#utility.yul\":3212:3235   */\n  sub\n    /* \"#utility.yul\":3208:3241   */\n  slt\n    /* \"#utility.yul\":3205:3325   */\n  iszero\n  tag_85\n  jumpi\n    /* \"#utility.yul\":3244:3323   */\n  tag_86\n  tag_12\n  jump\t// in\ntag_86:\n    /* \"#utility.yul\":3205:3325   */\ntag_85:\n    /* \"#utility.yul\":3385:3386   */\n  0x00\n    /* \"#utility.yul\":3374:3383   */\n  dup6\n    /* \"#utility.yul\":3370:3387   */\n  add\n    /* \"#utility.yul\":3364:3388   */\n  mload\n    /* \"#utility.yul\":3415:3433   */\n  0xffffffffffffffff\n    /* \"#utility.yul\":3407:3413   */\n  dup2\n    /* \"#utility.yul\":3404:3434   */\n  gt\n    /* \"#utility.yul\":3401:3518   */\n  iszero\n  tag_87\n  jumpi\n    /* \"#utility.yul\":3437:3516   */\n  tag_88\n  tag_13\n  jump\t// in\ntag_88:\n    /* \"#utility.yul\":3401:3518   */\ntag_87:\n    /* \"#utility.yul\":3542:3616   */\n  tag_89\n    /* \"#utility.yul\":3608:3615   */\n  dup8\n    /* \"#utility.yul\":3599:3605   */\n  dup3\n    /* \"#utility.yul\":3588:3597   */\n  dup9\n    /* \"#utility.yul\":3584:3606   */\n  add\n    /* \"#utility.yul\":3542:3616   */\n  tag_23\n  jump\t// in\ntag_89:\n    /* \"#utility.yul\":3532:3616   */\n  swap5\n  pop\n    /* \"#utility.yul\":3335:3626   */\n  pop\n    /* \"#utility.yul\":3686:3688   */\n  0x20\n    /* \"#utility.yul\":3675:3684   */\n  dup6\n    /* \"#utility.yul\":3671:3689   */\n  add\n    /* \"#utility.yul\":3665:3690   */\n  mload\n    /* \"#utility.yul\":3717:3735   */\n  0xffffffffffffffff\n    /* \"#utility.yul\":3709:3715   */\n  dup2\n    /* \"#utility.yul\":3706:3736   */\n  gt\n    /* \"#utility.yul\":3703:3820   */\n  iszero\n  tag_90\n  jumpi\n    /* \"#utility.yul\":3739:3818   */\n  tag_91\n  tag_13\n  jump\t// in\ntag_91:\n    /* \"#utility.yul\":3703:3820   */\ntag_90:\n    /* \"#utility.yul\":3844:3918   */\n  tag_92\n    /* \"#utility.yul\":3910:3917   */\n  dup8\n    /* \"#utility.yul\":3901:3907   */\n  dup3\n    /* \"#utility.yul\":3890:3899   */\n  dup9\n    /* \"#utility.yul\":3886:3908   */\n  add\n    /* \"#utility.yul\":3844:3918   */\n  tag_23\n  jump\t// in\ntag_92:\n    /* \"#utility.yul\":3834:3918   */\n  swap4\n  pop\n    /* \"#utility.yul\":3636:3928   */\n  pop\n    /* \"#utility.yul\":3967:3969   */\n  0x40\n    /* \"#utility.yul\":3993:4057   */\n  tag_93\n    /* \"#utility.yul\":4049:4056   */\n  dup8\n    /* \"#utility.yul\":4040:4046   */\n  dup3\n    /* \"#utility.yul\":4029:4038   */\n  dup9\n    /* \"#utility.yul\":4025:4047   */\n  add\n    /* \"#utility.yul\":3993:4057   */\n  tag_26\n  jump\t// in\ntag_93:\n    /* \"#utility.yul\":3983:4057   */\n  swap3\n  pop\n    /* \"#utility.yul\":3938:4067   */\n  pop\n    /* \"#utility.yul\":4127:4129   */\n  0x60\n    /* \"#utility.yul\":4116:4125   */\n  dup6\n    /* \"#utility.yul\":4112:4130   */\n  add\n    /* \"#utility.yul\":4106:4131   */\n  mload\n    /* \"#utility.yul\":4158:4176   */\n  0xffffffffffffffff\n    /* \"#utility.yul\":4150:4156   */\n  dup2\n    /* \"#utility.yul\":4147:4177   */\n  gt\n    /* \"#utility.yul\":4144:4261   */\n  iszero\n  tag_94\n  jumpi\n    /* \"#utility.yul\":4180:4259   */\n  tag_95\n  tag_13\n  jump\t// in\ntag_95:\n    /* \"#utility.yul\":4144:4261   */\ntag_94:\n    /* \"#utility.yul\":4285:4359   */\n  tag_96\n    /* \"#utility.yul\":4351:4358   */\n  dup8\n    /* \"#utility.yul\":4342:4348   */\n  dup3\n    /* \"#utility.yul\":4331:4340   */\n  dup9\n    /* \"#utility.yul\":4327:4349   */\n  add\n    /* \"#utility.yul\":4285:4359   */\n  tag_23\n  jump\t// in\ntag_96:\n    /* \"#utility.yul\":4275:4359   */\n  swap2\n  pop\n    /* \"#utility.yul\":4077:4369   */\n  pop\n    /* \"#utility.yul\":3037:4376   */\n  swap3\n  swap6\n  swap2\n  swap5\n  pop\n  swap3\n  pop\n  jump\t// out\n    /* \"#utility.yul\":4382:4481   */\ntag_27:\n    /* \"#utility.yul\":4434:4440   */\n  0x00\n    /* \"#utility.yul\":4468:4473   */\n  dup2\n    /* \"#utility.yul\":4462:4474   */\n  mload\n    /* \"#utility.yul\":4452:4474   */\n  swap1\n  pop\n    /* \"#utility.yul\":4382:4481   */\n  swap2\n  swap1\n  pop\n  jump\t// out\n    /* \"#utility.yul\":4487:4667   */\ntag_28:\n    /* \"#utility.yul\":4535:4612   */\n  0x4e487b7100000000000000000000000000000000000000000000000000000000\n    /* \"#utility.yul\":4532:4533   */\n  0x00\n    /* \"#utility.yul\":4525:4613   */\n  mstore\n    /* \"#utility.yul\":4632:4636   */\n  0x22\n    /* \"#utility.yul\":4629:4630   */\n  0x04\n    /* \"#utility.yul\":4622:4637   */\n  mstore\n    /* \"#utility.yul\":4656:4660   */\n  0x24\n    /* \"#utility.yul\":4653:4654   */\n  0x00\n    /* \"#utility.yul\":4646:4661   */\n  revert\n    /* \"#utility.yul\":4673:4993   */\ntag_29:\n    /* \"#utility.yul\":4717:4723   */\n  0x00\n    /* \"#utility.yul\":4754:4755   */\n  0x02\n    /* \"#utility.yul\":4748:4752   */\n  dup3\n    /* \"#utility.yul\":4744:4756   */\n  div\n    /* \"#utility.yul\":4734:4756   */\n  swap1\n  pop\n    /* \"#utility.yul\":4801:4802   */\n  0x01\n    /* \"#utility.yul\":4795:4799   */\n  dup3\n    /* \"#utility.yul\":4791:4803   */\n  and\n    /* \"#utility.yul\":4822:4840   */\n  dup1\n    /* \"#utility.yul\":4812:4893   */\n  tag_100\n  jumpi\n    /* \"#utility.yul\":4878:4882   */\n  0x7f\n    /* \"#utility.yul\":4870:4876   */\n  dup3\n    /* \"#utility.yul\":4866:4883   */\n  and\n    /* \"#utility.yul\":4856:4883   */\n  swap2\n  pop\n    /* \"#utility.yul\":4812:4893   */\ntag_100:\n    /* \"#utility.yul\":4940:4942   */\n  0x20\n    /* \"#utility.yul\":4932:4938   */\n  dup3\n    /* \"#utility.yul\":4929:4943   */\n  lt\n    /* \"#utility.yul\":4909:4927   */\n  dup2\n    /* \"#utility.yul\":4906:4944   */\n  sub\n    /* \"#utility.yul\":4903:4987   */\n  tag_101\n  jumpi\n    /* \"#utility.yul\":4959:4977   */\n  tag_102\n  tag_28\n  jump\t// in\ntag_102:\n    /* \"#utility.yul\":4903:4987   */\ntag_101:\n    /* \"#utility.yul\":4724:4993   */\n  pop\n    /* \"#utility.yul\":4673:4993   */\n  swap2\n  swap1\n  pop\n  jump\t// out\n    /* \"#utility.yul\":4999:5140   */\ntag_30:\n    /* \"#utility.yul\":5048:5052   */\n  0x00\n    /* \"#utility.yul\":5071:5074   */\n  dup2\n    /* \"#utility.yul\":5063:5074   */\n  swap1\n  pop\n    /* \"#utility.yul\":5094:5097   */\n  dup2\n    /* \"#utility.yul\":5091:5092   */\n  0x00\n    /* \"#utility.yul\":5084:5098   */\n  mstore\n    /* \"#utility.yul\":5128:5132   */\n  0x20\n    /* \"#utility.yul\":5125:5126   */\n  0x00\n    /* \"#utility.yul\":5115:5133   */\n  keccak256\n    /* \"#utility.yul\":5107:5133   */\n  swap1\n  pop\n    /* \"#utility.yul\":4999:5140   */\n  swap2\n  swap1\n  pop\n  jump\t// out\n    /* \"#utility.yul\":5146:5239   */\ntag_31:\n    /* \"#utility.yul\":5183:5189   */\n  0x00\n    /* \"#utility.yul\":5230:5232   */\n  0x20\n    /* \"#utility.yul\":5225:5227   */\n  0x1f\n    /* \"#utility.yul\":5218:5223   */\n  dup4\n    /* \"#utility.yul\":5214:5228   */\n  add\n    /* \"#utility.yul\":5210:5233   */\n  div\n    /* \"#utility.yul\":5200:5233   */\n  swap1\n  pop\n    /* \"#utility.yul\":5146:5239   */\n  swap2\n  swap1\n  pop\n  jump\t// out\n    /* \"#utility.yul\":5245:5352   */\ntag_32:\n    /* \"#utility.yul\":5289:5297   */\n  0x00\n    /* \"#utility.yul\":5339:5344   */\n  dup3\n    /* \"#utility.yul\":5333:5337   */\n  dup3\n    /* \"#utility.yul\":5329:5345   */\n  shl\n    /* \"#utility.yul\":5308:5345   */\n  swap1\n  pop\n    /* \"#utility.yul\":5245:5352   */\n  swap3\n  swap2\n  pop\n  pop\n  jump\t// out\n    /* \"#utility.yul\":5358:5751   */\ntag_33:\n    /* \"#utility.yul\":5427:5433   */\n  0x00\n    /* \"#utility.yul\":5477:5478   */\n  0x08\n    /* \"#utility.yul\":5465:5475   */\n  dup4\n    /* \"#utility.yul\":5461:5479   */\n  mul\n    /* \"#utility.yul\":5500:5597   */\n  tag_107\n    /* \"#utility.yul\":5530:5596   */\n  0xffffffffffffffffffffffffffffffffffffffffffffffffffffffffffffffff\n    /* \"#utility.yul\":5519:5528   */\n  dup3\n    /* \"#utility.yul\":5500:5597   */\n  tag_32\n  jump\t// in\ntag_107:\n    /* \"#utility.yul\":5618:5657   */\n  tag_108\n    /* \"#utility.yul\":5648:5656   */\n  dup7\n    /* \"#utility.yul\":5637:5646   */\n  dup4\n    /* \"#utility.yul\":5618:5657   */\n  tag_32\n  jump\t// in\ntag_108:\n    /* \"#utility.yul\":5606:5657   */\n  swap6\n  pop\n    /* \"#utility.yul\":5690:5694   */\n  dup1\n    /* \"#utility.yul\":5686:5695   */\n  not\n    /* \"#utility.yul\":5679:5684   */\n  dup5\n    /* \"#utility.yul\":5675:5696   */\n  and\n    /* \"#utility.yul\":5666:5696   */\n  swap4\n  pop\n    /* \"#utility.yul\":5739:5743   */\n  dup1\n    /* \"#utility.yul\":5729:5737   */\n  dup7\n    /* \"#utility.yul\":5725:5744   */\n  and\n    /* \"#utility.yul\":5718:5723   */\n  dup5\n    /* \"#utility.yul\":5715:5745   */\n  or\n    /* \"#utility.yul\":5705:5745   */\n  swap3\n  pop\n    /* \"#utility.yul\":5434:5751   */\n  pop\n  pop\n    /* \"#utility.yul\":5358:5751   */\n  swap4\n  swap3\n  pop\n  pop\n  pop\n  jump\t// out\n    /* \"#utility.yul\":5757:5817   */\ntag_34:\n    /* \"#utility.yul\":5785:5788   */\n  0x00\n    /* \"#utility.yul\":5806:5811   */\n  dup2\n    /* \"#utility.yul\":5799:5811   */\n  swap1\n  pop\n    /* \"#utility.yul\":5757:5817   */\n  swap2\n  swap1\n  pop\n  jump\t// out\n    /* \"#utility.yul\":5823:5965   */\ntag_35:\n    /* \"#utility.yul\":5873:5882   */\n  0x00\n    /* \"#utility.yul\":5906:5959   */\n  tag_111\n    /* \"#utility.yul\":5924:5958   */\n  tag_112\n    /* \"#utility.yul\":5933:5957   */\n  tag_113\n    /* \"#utility.yul\":5951:5956   */\n  dup5\n    /* \"#utility.yul\":5933:5957   */\n  tag_24\n  jump\t// in\ntag_113:\n    /* \"#utility.yul\":5924:5958   */\n  tag_34\n  jump\t// in\ntag_112:\n    /* \"#utility.yul\":5906:5959   */\n  tag_24\n  jump\t// in\ntag_111:\n    /* \"#utility.yul\":5893:5959   */\n  swap1\n  pop\n    /* \"#utility.yul\":5823:5965   */\n  swap2\n  swap1\n  pop\n  jump\t// out\n    /* \"#utility.yul\":5971:6046   */\ntag_36:\n    /* \"#utility.yul\":6014:6017   */\n  0x00\n    /* \"#utility.yul\":6035:6040   */\n  dup2\n    /* \"#utility.yul\":6028:6040   */\n  swap1\n  pop\n    /* \"#utility.yul\":5971:6046   */\n  swap2\n  swap1\n  pop\n  jump\t// out\n    /* \"#utility.yul\":6052:6321   */\ntag_37:\n    /* \"#utility.yul\":6162:6201   */\n  tag_116\n    /* \"#utility.yul\":6193:6200   */\n  dup4\n    /* \"#utility.yul\":6162:6201   */\n  tag_35\n  jump\t// in\ntag_116:\n    /* \"#utility.yul\":6223:6314   */\n  tag_117\n    /* \"#utility.yul\":6272:6313   */\n  tag_118\n    /* \"#utility.yul\":6296:6312   */\n  dup3\n    /* \"#utility.yul\":6272:6313   */\n  tag_36\n  jump\t// in\ntag_118:\n    /* \"#utility.yul\":6264:6270   */\n  dup5\n    /* \"#utility.yul\":6257:6261   */\n  dup5\n    /* \"#utility.yul\":6251:6262   */\n  sload\n    /* \"#utility.yul\":6223:6314   */\n  tag_33\n  jump\t// in\ntag_117:\n    /* \"#utility.yul\":6217:6221   */\n  dup3\n    /* \"#utility.yul\":6210:6315   */\n  sstore\n    /* \"#utility.yul\":6128:6321   */\n  pop\n    /* \"#utility.yul\":6052:6321   */\n  pop\n  pop\n  pop\n  jump\t// out\n    /* \"#utility.yul\":6327:6400   */\ntag_38:\n    /* \"#utility.yul\":6372:6375   */\n  0x00\n    /* \"#utility.yul\":6327:6400   */\n  swap1\n  jump\t// out\n    /* \"#utility.yul\":6406:6595   */\ntag_39:\n    /* \"#utility.yul\":6483:6515   */\n  tag_121\n  tag_38\n  jump\t// in\ntag_121:\n    /* \"#utility.yul\":6524:6589   */\n  tag_122\n    /* \"#utility.yul\":6582:6588   */\n  dup2\n    /* \"#utility.yul\":6574:6580   */\n  dup5\n    /* \"#utility.yul\":6568:6572   */\n  dup5\n    /* \"#utility.yul\":6524:6589   */\n  tag_37\n  jump\t// in\ntag_122:\n    /* \"#utility.yul\":6459:6595   */\n  pop\n    /* \"#utility.yul\":6406:6595   */\n  pop\n  pop\n  jump\t// out\n    /* \"#utility.yul\":6601:6787   */\ntag_40:\n    /* \"#utility.yul\":6661:6781   */\ntag_124:\n    /* \"#utility.yul\":6678:6681   */\n  dup2\n    /* \"#utility.yul\":6671:6676   */\n  dup2\n    /* \"#utility.yul\":6668:6682   */\n  lt\n    /* \"#utility.yul\":6661:6781   */\n  iszero\n  tag_126\n  jumpi\n    /* \"#utility.yul\":6732:6771   */\n  tag_127\n    /* \"#utility.yul\":6769:6770   */\n  0x00\n    /* \"#utility.yul\":6762:6767   */\n  dup3\n    /* \"#utility.yul\":6732:6771   */\n  tag_39\n  jump\t// in\ntag_127:\n    /* \"#utility.yul\":6705:6706   */\n  0x01\n    /* \"#utility.yul\":6698:6703   */\n  dup2\n    /* \"#utility.yul\":6694:6707   */\n  add\n    /* \"#utility.yul\":6685:6707   */\n  swap1\n  pop\n    /* \"#utility.yul\":6661:6781   */\n  jump(tag_124)\ntag_126:\n    /* \"#utility.yul\":6601:6787   */\n  pop\n  pop\n  jump\t// out\n    /* \"#utility.yul\":6793:7336   */\ntag_41:\n    /* \"#utility.yul\":6894:6896   */\n  0x1f\n    /* \"#utility.yul\":6889:6892   */\n  dup3\n    /* \"#utility.yul\":6886:6897   */\n  gt\n    /* \"#utility.yul\":6883:7329   */\n  iszero\n  tag_129\n  jumpi\n    /* \"#utility.yul\":6928:6966   */\n  tag_130\n    /* \"#utility.yul\":6960:6965   */\n  dup2\n    /* \"#utility.yul\":6928:6966   */\n  tag_30\n  jump\t// in\ntag_130:\n    /* \"#utility.yul\":7012:7041   */\n  tag_131\n    /* \"#utility.yul\":7030:7040   */\n  dup5\n    /* \"#utility.yul\":7012:7041   */\n  tag_31\n  jump\t// in\ntag_131:\n    /* \"#utility.yul\":7002:7010   */\n  dup2\n    /* \"#utility.yul\":6998:7042   */\n  add\n    /* \"#utility.yul\":7195:7197   */\n  0x20\n    /* \"#utility.yul\":7183:7193   */\n  dup6\n    /* \"#utility.yul\":7180:7198   */\n  lt\n    /* \"#utility.yul\":7177:7226   */\n  iszero\n  tag_132\n  jumpi\n    /* \"#utility.yul\":7216:7224   */\n  dup2\n    /* \"#utility.yul\":7201:7224   */\n  swap1\n  pop\n    /* \"#utility.yul\":7177:7226   */\ntag_132:\n    /* \"#utility.yul\":7239:7319   */\n  tag_133\n    /* \"#utility.yul\":7295:7317   */\n  tag_134\n    /* \"#utility.yul\":7313:7316   */\n  dup6\n    /* \"#utility.yul\":7295:7317   */\n  tag_31\n  jump\t// in\ntag_134:\n    /* \"#utility.yul\":7285:7293   */\n  dup4\n    /* \"#utility.yul\":7281:7318   */\n  add\n    /* \"#utility.yul\":7268:7279   */\n  dup3\n    /* \"#utility.yul\":7239:7319   */\n  tag_40\n  jump\t// in\ntag_133:\n    /* \"#utility.yul\":6898:7329   */\n  pop\n  pop\n    /* \"#utility.yul\":6883:7329   */\ntag_129:\n    /* \"#utility.yul\":6793:7336   */\n  pop\n  pop\n  pop\n  jump\t// out\n    /* \"#utility.yul\":7342:7459   */\ntag_42:\n    /* \"#utility.yul\":7396:7404   */\n  0x00\n    /* \"#utility.yul\":7446:7451   */\n  dup3\n    /* \"#utility.yul\":7440:7444   */\n  dup3\n    /* \"#utility.yul\":7436:7452   */\n  shr\n    /* \"#utility.yul\":7415:7452   */\n  swap1\n  pop\n    /* \"#utility.yul\":7342:7459   */\n  swap3\n  swap2\n  pop\n  pop\n  jump\t// out\n    /* \"#utility.yul\":7465:7634   */\ntag_43:\n    /* \"#utility.yul\":7509:7515   */\n  0x00\n    /* \"#utility.yul\":7542:7593   */\n  tag_137\n    /* \"#utility.yul\":7590:7591   */\n  0x00\n    /* \"#utility.yul\":7586:7592   */\n  not\n    /* \"#utility.yul\":7578:7583   */\n  dup5\n    /* \"#utility.yul\":7575:7576   */\n  0x08\n    /* \"#utility.yul\":7571:7584   */\n  mul\n    /* \"#utility.yul\":7542:7593   */\n  tag_42\n  jump\t// in\ntag_137:\n    /* \"#utility.yul\":7538:7594   */\n  not\n    /* \"#utility.yul\":7623:7627   */\n  dup1\n    /* \"#utility.yul\":7617:7621   */\n  dup4\n    /* \"#utility.yul\":7613:7628   */\n  and\n    /* \"#utility.yul\":7603:7628   */\n  swap2\n  pop\n    /* \"#utility.yul\":7516:7634   */\n  pop\n    /* \"#utility.yul\":7465:7634   */\n  swap3\n  swap2\n  pop\n  pop\n  jump\t// out\n    /* \"#utility.yul\":7639:7934   */\ntag_44:\n    /* \"#utility.yul\":7715:7719   */\n  0x00\n    /* \"#utility.yul\":7861:7890   */\n  tag_139\n    /* \"#utility.yul\":7886:7889   */\n  dup4\n    /* \"#utility.yul\":7880:7884   */\n  dup4\n    /* \"#utility.yul\":7861:7890   */\n  tag_43\n  jump\t// in\ntag_139:\n    /* \"#utility.yul\":7853:7890   */\n  swap2\n  pop\n    /* \"#utility.yul\":7923:7926   */\n  dup3\n    /* \"#utility.yul\":7920:7921   */\n  0x02\n    /* \"#utility.yul\":7916:7927   */\n  mul\n    /* \"#utility.yul\":7910:7914   */\n  dup3\n    /* \"#utility.yul\":7907:7928   */\n  or\n    /* \"#utility.yul\":7899:7928   */\n  swap1\n  pop\n    /* \"#utility.yul\":7639:7934   */\n  swap3\n  swap2\n  pop\n  pop\n  jump\t// out\n    /* \"#utility.yul\":7939:9334   */\ntag_7:\n    /* \"#utility.yul\":8056:8093   */\n  tag_141\n    /* \"#utility.yul\":8089:8092   */\n  dup3\n    /* \"#utility.yul\":8056:8093   */\n  tag_27\n  jump\t// in\ntag_141:\n    /* \"#utility.yul\":8158:8176   */\n  0xffffffffffffffff\n    /* \"#utility.yul\":8150:8156   */\n  dup2\n    /* \"#utility.yul\":8147:8177   */\n  gt\n    /* \"#utility.yul\":8144:8200   */\n  iszero\n  tag_142\n  jumpi\n    /* \"#utility.yul\":8180:8198   */\n  tag_143\n  tag_17\n  jump\t// in\ntag_143:\n    /* \"#utility.yul\":8144:8200   */\ntag_142:\n    /* \"#utility.yul\":8224:8262   */\n  tag_144\n    /* \"#utility.yul\":8256:8260   */\n  dup3\n    /* \"#utility.yul\":8250:8261   */\n  sload\n    /* \"#utility.yul\":8224:8262   */\n  tag_29\n  jump\t// in\ntag_144:\n    /* \"#utility.yul\":8309:8376   */\n  tag_145\n    /* \"#utility.yul\":8369:8375   */\n  dup3\n    /* \"#utility.yul\":8361:8367   */\n  dup3\n    /* \"#utility.yul\":8355:8359   */\n  dup6\n    /* \"#utility.yul\":8309:8376   */\n  tag_41\n  jump\t// in\ntag_145:\n    /* \"#utility.yul\":8403:8404   */\n  0x00\n    /* \"#utility.yul\":8427:8431   */\n  0x20\n    /* \"#utility.yul\":8414:8431   */\n  swap1\n  pop\n    /* \"#utility.yul\":8459:8461   */\n  0x1f\n    /* \"#utility.yul\":8451:8457   */\n  dup4\n    /* \"#utility.yul\":8448:8462   */\n  gt\n    /* \"#utility.yul\":8476:8477   */\n  0x01\n    /* \"#utility.yul\":8471:9089   */\n  dup2\n  eq\n  tag_147\n  jumpi\n    /* \"#utility.yul\":9133:9134   */\n  0x00\n    /* \"#utility.yul\":9150:9156   */\n  dup5\n    /* \"#utility.yul\":9147:9224   */\n  iszero\n  tag_148\n  jumpi\n    /* \"#utility.yul\":9199:9208   */\n  dup3\n    /* \"#utility.yul\":9194:9197   */\n  dup8\n    /* \"#utility.yul\":9190:9209   */\n  add\n    /* \"#utility.yul\":9184:9210   */\n  mload\n    /* \"#utility.yul\":9175:9210   */\n  swap1\n  pop\n    /* \"#utility.yul\":9147:9224   */\ntag_148:\n    /* \"#utility.yul\":9250:9317   */\n  tag_149\n    /* \"#utility.yul\":9310:9316   */\n  dup6\n    /* \"#utility.yul\":9303:9308   */\n  dup3\n    /* \"#utility.yul\":9250:9317   */\n  tag_44\n  jump\t// in\ntag_149:\n    /* \"#utility.yul\":9244:9248   */\n  dup7\n    /* \"#utility.yul\":9237:9318   */\n  sstore\n    /* \"#utility.yul\":9106:9328   */\n  pop\n    /* \"#utility.yul\":8441:9328   */\n  jump(tag_146)\n    /* \"#utility.yul\":8471:9089   */\ntag_147:\n    /* \"#utility.yul\":8523:8527   */\n  0x1f\n    /* \"#utility.yul\":8519:8528   */\n  not\n    /* \"#utility.yul\":8511:8517   */\n  dup5\n    /* \"#utility.yul\":8507:8529   */\n  and\n    /* \"#utility.yul\":8557:8594   */\n  tag_150\n    /* \"#utility.yul\":8589:8593   */\n  dup7\n    /* \"#utility.yul\":8557:8594   */\n  tag_30\n  jump\t// in\ntag_150:\n    /* \"#utility.yul\":8616:8617   */\n  0x00\n    /* \"#utility.yul\":8630:8838   */\ntag_151:\n    /* \"#utility.yul\":8644:8651   */\n  dup3\n    /* \"#utility.yul\":8641:8642   */\n  dup2\n    /* \"#utility.yul\":8638:8652   */\n  lt\n    /* \"#utility.yul\":8630:8838   */\n  iszero\n  tag_153\n  jumpi\n    /* \"#utility.yul\":8723:8732   */\n  dup5\n    /* \"#utility.yul\":8718:8721   */\n  dup10\n    /* \"#utility.yul\":8714:8733   */\n  add\n    /* \"#utility.yul\":8708:8734   */\n  mload\n    /* \"#utility.yul\":8700:8706   */\n  dup3\n    /* \"#utility.yul\":8693:8735   */\n  sstore\n    /* \"#utility.yul\":8774:8775   */\n  0x01\n    /* \"#utility.yul\":8766:8772   */\n  dup3\n    /* \"#utility.yul\":8762:8776   */\n  add\n    /* \"#utility.yul\":8752:8776   */\n  swap2\n  pop\n    /* \"#utility.yul\":8821:8823   */\n  0x20\n    /* \"#utility.yul\":8810:8819   */\n  dup6\n    /* \"#utility.yul\":8806:8824   */\n  add\n    /* \"#utility.yul\":8793:8824   */\n  swap5\n  pop\n    /* \"#utility.yul\":8667:8671   */\n  0x20\n    /* \"#utility.yul\":8664:8665   */\n  dup2\n    /* \"#utility.yul\":8660:8672   */\n  add\n    /* \"#utility.yul\":8655:8672   */\n  swap1\n  pop\n    /* \"#utility.yul\":8630:8838   */\n  jump(tag_151)\ntag_153:\n    /* \"#utility.yul\":8866:8872   */\n  dup7\n    /* \"#utility.yul\":8857:8864   */\n  dup4\n    /* \"#utility.yul\":8854:8873   */\n  lt\n    /* \"#utility.yul\":8851:9030   */\n  iszero\n  tag_154\n  jumpi\n    /* \"#utility.yul\":8924:8933   */\n  dup5\n    /* \"#utility.yul\":8919:8922   */\n  dup10\n    /* \"#utility.yul\":8915:8934   */\n  add\n    /* \"#utility.yul\":8909:8935   */\n  mload\n    /* \"#utility.yul\":8967:9015   */\n  tag_155\n    /* \"#utility.yul\":9009:9013   */\n  0x1f\n    /* \"#utility.yul\":9001:9007   */\n  dup10\n    /* \"#utility.yul\":8997:9014   */\n  and\n    /* \"#utility.yul\":8986:8995   */\n  dup3\n    /* \"#utility.yul\":8967:9015   */\n  tag_43\n  jump\t// in\ntag_155:\n    /* \"#utility.yul\":8959:8965   */\n  dup4\n    /* \"#utility.yul\":8952:9016   */\n  sstore\n    /* \"#utility.yul\":8874:9030   */\n  pop\n    /* \"#utility.yul\":8851:9030   */\ntag_154:\n    /* \"#utility.yul\":9076:9077   */\n  0x01\n    /* \"#utility.yul\":9072:9073   */\n  0x02\n    /* \"#utility.yul\":9064:9070   */\n  dup9\n    /* \"#utility.yul\":9060:9074   */\n  mul\n    /* \"#utility.yul\":9056:9078   */\n  add\n    /* \"#utility.yul\":9050:9054   */\n  dup9\n    /* \"#utility.yul\":9043:9079   */\n  sstore\n    /* \"#utility.yul\":8478:9089   */\n  pop\n  pop\n  pop\n    /* \"#utility.yul\":8441:9328   */\ntag_146:\n  pop\n    /* \"#utility.yul\":8031:9334   */\n  pop\n  pop\n  pop\n    /* \"#utility.yul\":7939:9334   */\n  pop\n  pop\n  jump\t// out\n    /* \"contracts/use-cases/authentication_with_privacy_access/mix_contract.sol\":70:1959  contract authenticate {... */\ntag_10:\n  dataSize(sub_0)\n  dup1\n  dataOffset(sub_0)\n  0x00\n  codecopy\n  0x00\n  return\nstop\n\nsub_0: assembly {\n        /* \"contracts/use-cases/authentication_with_privacy_access/mix_contract.sol\":70:1959  contract authenticate {... */\n      mstore(0x40, 0x80)\n      callvalue\n      dup1\n      iszero\n      tag_1\n      jumpi\n      0x00\n      dup1\n      revert\n    tag_1:\n      pop\n      jumpi(tag_2, lt(calldatasize, 0x04))\n      shr(0xe0, calldataload(0x00))\n      dup1\n      0x13d67e35\n      eq\n      tag_3\n      jumpi\n      dup1\n      0x2335c76b\n      eq\n      tag_4\n      jumpi\n      dup1\n      0x8cf36edc\n      eq\n      tag_5\n      jumpi\n      dup1\n      0xa87430ba\n      eq\n      tag_6\n      jumpi\n      dup1\n      0xc4f0d067\n      eq\n      tag_7\n      jumpi\n    tag_2:\n      0x00\n      dup1\n      revert\n        /* \"contracts/use-cases/authentication_with_privacy_access/mix_contract.sol\":1689:1957  function register_user(user_type user_type0, address user) public only_owner{... */\n    tag_3:\n      tag_8\n      0x04\n      dup1\n      calldatasize\n      sub\n      dup2\n      add\n      swap1\n      tag_9\n      swap2\n      swap1\n      tag_10\n      jump\t// in\n    tag_9:\n      tag_11\n      jump\t// in\n    tag_8:\n      stop\n        /* \"contracts/use-cases/authentication_with_privacy_access/mix_contract.sol\":1316:1389  function authenticator() public {... */\n    tag_4:\n      tag_12\n      tag_13\n      jump\t// in\n    tag_12:\n      stop\n        /* \"contracts/use-cases/authentication_with_privacy_access/mix_contract.sol\":1395:1530  function get_basic_info() public view authorize_user(  user_type.basic) returns ( basic_info memory){... */\n    tag_5:\n      tag_14\n      tag_15\n      jump\t// in\n    tag_14:\n      mload(0x40)\n      tag_16\n      swap2\n      swap1\n      tag_17\n      jump\t// in\n    tag_16:\n      mload(0x40)\n      dup1\n      swap2\n      sub\n      swap1\n      return\n        /* \"contracts/use-cases/authentication_with_privacy_access/mix_contract.sol\":424:462  mapping( address => bool) public users */\n    tag_6:\n      tag_18\n      0x04\n      dup1\n      calldatasize\n      sub\n      dup2\n      add\n      swap1\n      tag_19\n      swap2\n      swap1\n      tag_20\n      jump\t// in\n    tag_19:\n      tag_21\n      jump\t// in\n    tag_18:\n      mload(0x40)\n      tag_22\n      swap2\n      swap1\n      tag_23\n      jump\t// in\n    tag_22:\n      mload(0x40)\n      dup1\n      swap2\n      sub\n      swap1\n      return\n        /* \"contracts/use-cases/authentication_with_privacy_access/mix_contract.sol\":1536:1683  function get_personal_infor() public view authorize_user(  user_type.personal) returns (personal_info memory){... */\n    tag_7:\n      tag_24\n      tag_25\n      jump\t// in\n    tag_24:\n      mload(0x40)\n      tag_26\n      swap2\n      swap1\n      tag_27\n      jump\t// in\n    tag_26:\n      mload(0x40)\n      dup1\n      swap2\n      sub\n      swap1\n      return\n        /* \"contracts/use-cases/authentication_with_privacy_access/mix_contract.sol\":1689:1957  function register_user(user_type user_type0, address user) public only_owner{... */\n    tag_11:\n        /* \"contracts/use-cases/authentication_with_privacy_access/mix_contract.sol\":1252:1257  owner */\n      0x04\n      0x00\n      swap1\n      sload\n      swap1\n      0x0100\n      exp\n      swap1\n      div\n      0xffffffffffffffffffffffffffffffffffffffff\n      and\n        /* \"contracts/use-cases/authentication_with_privacy_access/mix_contract.sol\":1238:1257  msg.sender == owner */\n      0xffffffffffffffffffffffffffffffffffffffff\n      and\n        /* \"contracts/use-cases/authentication_with_privacy_access/mix_contract.sol\":1238:1248  msg.sender */\n      caller\n        /* \"contracts/use-cases/authentication_with_privacy_access/mix_contract.sol\":1238:1257  msg.sender == owner */\n      0xffffffffffffffffffffffffffffffffffffffff\n      and\n      eq\n        /* \"contracts/use-cases/authentication_with_privacy_access/mix_contract.sol\":1230:1292  require(msg.sender == owner, \"Only owner can authorize users\") */\n      tag_29\n      jumpi\n      mload(0x40)\n      0x08c379a000000000000000000000000000000000000000000000000000000000\n      dup2\n      mstore\n      0x04\n      add\n      tag_30\n      swap1\n      tag_31\n      jump\t// in\n    tag_30:\n      mload(0x40)\n      dup1\n      swap2\n      sub\n      swap1\n      revert\n    tag_29:\n        /* \"contracts/use-cases/authentication_with_privacy_access/mix_contract.sol\":1792:1807  user_type.basic */\n      0x00\n        /* \"contracts/use-cases/authentication_with_privacy_access/mix_contract.sol\":1778:1807  user_type0 == user_type.basic */\n      0x01\n      dup2\n      gt\n      iszero\n      tag_33\n      jumpi\n      tag_34\n      tag_35\n      jump\t// in\n    tag_34:\n    tag_33:\n        /* \"contracts/use-cases/authentication_with_privacy_access/mix_contract.sol\":1778:1788  user_type0 */\n      dup3\n        /* \"contracts/use-cases/authentication_with_privacy_access/mix_contract.sol\":1778:1807  user_type0 == user_type.basic */\n      0x01\n      dup2\n      gt\n      iszero\n      tag_36\n      jumpi\n      tag_37\n      tag_35\n      jump\t// in\n    tag_37:\n    tag_36:\n      sub\n        /* \"contracts/use-cases/authentication_with_privacy_access/mix_contract.sol\":1775:1951  if(user_type0 == user_type.basic){... */\n      tag_38\n      jumpi\n        /* \"contracts/use-cases/authentication_with_privacy_access/mix_contract.sol\":1842:1846  true */\n      0x01\n        /* \"contracts/use-cases/authentication_with_privacy_access/mix_contract.sol\":1822:1833  basic_users */\n      0x06\n        /* \"contracts/use-cases/authentication_with_privacy_access/mix_contract.sol\":1822:1839  basic_users[user] */\n      0x00\n        /* \"contracts/use-cases/authentication_with_privacy_access/mix_contract.sol\":1834:1838  user */\n      dup4\n        /* \"contracts/use-cases/authentication_with_privacy_access/mix_contract.sol\":1822:1839  basic_users[user] */\n      0xffffffffffffffffffffffffffffffffffffffff\n      and\n      0xffffffffffffffffffffffffffffffffffffffff\n      and\n      dup2\n      mstore\n      0x20\n      add\n      swap1\n      dup2\n      mstore\n      0x20\n      add\n      0x00\n      keccak256\n      0x00\n        /* \"contracts/use-cases/authentication_with_privacy_access/mix_contract.sol\":1822:1846  basic_users[user] = true */\n      0x0100\n      exp\n      dup2\n      sload\n      dup2\n      0xff\n      mul\n      not\n      and\n      swap1\n      dup4\n      iszero\n      iszero\n      mul\n      or\n      swap1\n      sstore\n      pop\n        /* \"contracts/use-cases/authentication_with_privacy_access/mix_contract.sol\":1775:1951  if(user_type0 == user_type.basic){... */\n      jump(tag_39)\n    tag_38:\n        /* \"contracts/use-cases/authentication_with_privacy_access/mix_contract.sol\":1880:1898  user_type.personal */\n      0x01\n        /* \"contracts/use-cases/authentication_with_privacy_access/mix_contract.sol\":1866:1898  user_type0 == user_type.personal */\n      dup1\n      dup2\n      gt\n      iszero\n      tag_40\n      jumpi\n      tag_41\n      tag_35\n      jump\t// in\n    tag_41:\n    tag_40:\n        /* \"contracts/use-cases/authentication_with_privacy_access/mix_contract.sol\":1866:1876  user_type0 */\n      dup3\n        /* \"contracts/use-cases/authentication_with_privacy_access/mix_contract.sol\":1866:1898  user_type0 == user_type.personal */\n      0x01\n      dup2\n      gt\n      iszero\n      tag_42\n      jumpi\n      tag_43\n      tag_35\n      jump\t// in\n    tag_43:\n    tag_42:\n      sub\n        /* \"contracts/use-cases/authentication_with_privacy_access/mix_contract.sol\":1863:1951  if(user_type0 == user_type.personal){... */\n      tag_44\n      jumpi\n        /* \"contracts/use-cases/authentication_with_privacy_access/mix_contract.sol\":1936:1940  true */\n      0x01\n        /* \"contracts/use-cases/authentication_with_privacy_access/mix_contract.sol\":1913:1927  personal_users */\n      0x07\n        /* \"contracts/use-cases/authentication_with_privacy_access/mix_contract.sol\":1913:1933  personal_users[user] */\n      0x00\n        /* \"contracts/use-cases/authentication_with_privacy_access/mix_contract.sol\":1928:1932  user */\n      dup4\n        /* \"contracts/use-cases/authentication_with_privacy_access/mix_contract.sol\":1913:1933  personal_users[user] */\n      0xffffffffffffffffffffffffffffffffffffffff\n      and\n      0xffffffffffffffffffffffffffffffffffffffff\n      and\n      dup2\n      mstore\n      0x20\n      add\n      swap1\n      dup2\n      mstore\n      0x20\n      add\n      0x00\n      keccak256\n      0x00\n        /* \"contracts/use-cases/authentication_with_privacy_access/mix_contract.sol\":1913:1940  personal_users[user] = true */\n      0x0100\n      exp\n      dup2\n      sload\n      dup2\n      0xff\n      mul\n      not\n      and\n      swap1\n      dup4\n      iszero\n      iszero\n      mul\n      or\n      swap1\n      sstore\n      pop\n        /* \"contracts/use-cases/authentication_with_privacy_access/mix_contract.sol\":1863:1951  if(user_type0 == user_type.personal){... */\n    tag_44:\n        /* \"contracts/use-cases/authentication_with_privacy_access/mix_contract.sol\":1775:1951  if(user_type0 == user_type.basic){... */\n    tag_39:\n        /* \"contracts/use-cases/authentication_with_privacy_access/mix_contract.sol\":1689:1957  function register_user(user_type user_type0, address user) public only_owner{... */\n      pop\n      pop\n      jump\t// out\n        /* \"contracts/use-cases/authentication_with_privacy_access/mix_contract.sol\":1316:1389  function authenticator() public {... */\n    tag_13:\n        /* \"contracts/use-cases/authentication_with_privacy_access/mix_contract.sol\":1378:1382  true */\n      0x01\n        /* \"contracts/use-cases/authentication_with_privacy_access/mix_contract.sol\":1358:1363  users */\n      0x05\n        /* \"contracts/use-cases/authentication_with_privacy_access/mix_contract.sol\":1358:1375  users[msg.sender] */\n      0x00\n        /* \"contracts/use-cases/authentication_with_privacy_access/mix_contract.sol\":1364:1374  msg.sender */\n      caller\n        /* \"contracts/use-cases/authentication_with_privacy_access/mix_contract.sol\":1358:1375  users[msg.sender] */\n      0xffffffffffffffffffffffffffffffffffffffff\n      and\n      0xffffffffffffffffffffffffffffffffffffffff\n      and\n      dup2\n      mstore\n      0x20\n      add\n      swap1\n      dup2\n      mstore\n      0x20\n      add\n      0x00\n      keccak256\n      0x00\n        /* \"contracts/use-cases/authentication_with_privacy_access/mix_contract.sol\":1358:1382  users[msg.sender] = true */\n      0x0100\n      exp\n      dup2\n      sload\n      dup2\n      0xff\n      mul\n      not\n      and\n      swap1\n      dup4\n      iszero\n      iszero\n      mul\n      or\n      swap1\n      sstore\n      pop\n        /* \"contracts/use-cases/authentication_with_privacy_access/mix_contract.sol\":1316:1389  function authenticator() public {... */\n      jump\t// out\n        /* \"contracts/use-cases/authentication_with_privacy_access/mix_contract.sol\":1395:1530  function get_basic_info() public view authorize_user(  user_type.basic) returns ( basic_info memory){... */\n    tag_15:\n        /* \"contracts/use-cases/authentication_with_privacy_access/mix_contract.sol\":1477:1494  basic_info memory */\n      tag_46\n      tag_47\n      jump\t// in\n    tag_46:\n        /* \"contracts/use-cases/authentication_with_privacy_access/mix_contract.sol\":1450:1465  user_type.basic */\n      0x00\n        /* \"contracts/use-cases/authentication_with_privacy_access/mix_contract.sol\":953:958  owner */\n      0x04\n      0x00\n      swap1\n      sload\n      swap1\n      0x0100\n      exp\n      swap1\n      div\n      0xffffffffffffffffffffffffffffffffffffffff\n      and\n        /* \"contracts/use-cases/authentication_with_privacy_access/mix_contract.sol\":939:958  msg.sender == owner */\n      0xffffffffffffffffffffffffffffffffffffffff\n      and\n        /* \"contracts/use-cases/authentication_with_privacy_access/mix_contract.sol\":939:949  msg.sender */\n      caller\n        /* \"contracts/use-cases/authentication_with_privacy_access/mix_contract.sol\":939:958  msg.sender == owner */\n      0xffffffffffffffffffffffffffffffffffffffff\n      and\n      eq\n        /* \"contracts/use-cases/authentication_with_privacy_access/mix_contract.sol\":939:988  msg.sender == owner || personal_users[msg.sender] */\n      dup1\n      tag_49\n      jumpi\n      pop\n        /* \"contracts/use-cases/authentication_with_privacy_access/mix_contract.sol\":962:976  personal_users */\n      0x07\n        /* \"contracts/use-cases/authentication_with_privacy_access/mix_contract.sol\":962:988  personal_users[msg.sender] */\n      0x00\n        /* \"contracts/use-cases/authentication_with_privacy_access/mix_contract.sol\":977:987  msg.sender */\n      caller\n        /* \"contracts/use-cases/authentication_with_privacy_access/mix_contract.sol\":962:988  personal_users[msg.sender] */\n      0xffffffffffffffffffffffffffffffffffffffff\n      and\n      0xffffffffffffffffffffffffffffffffffffffff\n      and\n      dup2\n      mstore\n      0x20\n      add\n      swap1\n      dup2\n      mstore\n      0x20\n      add\n      0x00\n      keccak256\n      0x00\n      swap1\n      sload\n      swap1\n      0x0100\n      exp\n      swap1\n      div\n      0xff\n      and\n        /* \"contracts/use-cases/authentication_with_privacy_access/mix_contract.sol\":939:988  msg.sender == owner || personal_users[msg.sender] */\n    tag_49:\n        /* \"contracts/use-cases/authentication_with_privacy_access/mix_contract.sol\":936:1187  if(msg.sender == owner || personal_users[msg.sender]){... */\n      iszero\n      tag_50\n      jumpi\n        /* \"contracts/use-cases/authentication_with_privacy_access/mix_contract.sol\":1512:1523  basic_info0 */\n      0x00\n        /* \"contracts/use-cases/authentication_with_privacy_access/mix_contract.sol\":1505:1523  return basic_info0 */\n      mload(0x40)\n      dup1\n      0x40\n      add\n      0x40\n      mstore\n      swap1\n      dup2\n      0x00\n      dup3\n      add\n      dup1\n      sload\n      tag_52\n      swap1\n      tag_53\n      jump\t// in\n    tag_52:\n      dup1\n      0x1f\n      add\n      0x20\n      dup1\n      swap2\n      div\n      mul\n      0x20\n      add\n      mload(0x40)\n      swap1\n      dup2\n      add\n      0x40\n      mstore\n      dup1\n      swap3\n      swap2\n      swap1\n      dup2\n      dup2\n      mstore\n      0x20\n      add\n      dup3\n      dup1\n      sload\n      tag_54\n      swap1\n      tag_53\n      jump\t// in\n    tag_54:\n      dup1\n      iszero\n      tag_55\n      jumpi\n      dup1\n      0x1f\n      lt\n      tag_56\n      jumpi\n      0x0100\n      dup1\n      dup4\n      sload\n      div\n      mul\n      dup4\n      mstore\n      swap2\n      0x20\n      add\n      swap2\n      jump(tag_55)\n    tag_56:\n      dup3\n      add\n      swap2\n      swap1\n      0x00\n      mstore\n      keccak256(0x00, 0x20)\n      swap1\n    tag_57:\n      dup2\n      sload\n      dup2\n      mstore\n      swap1\n      0x01\n      add\n      swap1\n      0x20\n      add\n      dup1\n      dup4\n      gt\n      tag_57\n      jumpi\n      dup3\n      swap1\n      sub\n      0x1f\n      and\n      dup3\n      add\n      swap2\n    tag_55:\n      pop\n      pop\n      pop\n      pop\n      pop\n      dup2\n      mstore\n      0x20\n      add\n      0x01\n      dup3\n      add\n      dup1\n      sload\n      tag_58\n      swap1\n      tag_53\n      jump\t// in\n    tag_58:\n      dup1\n      0x1f\n      add\n      0x20\n      dup1\n      swap2\n      div\n      mul\n      0x20\n      add\n      mload(0x40)\n      swap1\n      dup2\n      add\n      0x40\n      mstore\n      dup1\n      swap3\n      swap2\n      swap1\n      dup2\n      dup2\n      mstore\n      0x20\n      add\n      dup3\n      dup1\n      sload\n      tag_59\n      swap1\n      tag_53\n      jump\t// in\n    tag_59:\n      dup1\n      iszero\n      tag_60\n      jumpi\n      dup1\n      0x1f\n      lt\n      tag_61\n      jumpi\n      0x0100\n      dup1\n      dup4\n      sload\n      div\n      mul\n      dup4\n      mstore\n      swap2\n      0x20\n      add\n      swap2\n      jump(tag_60)\n    tag_61:\n      dup3\n      add\n      swap2\n      swap1\n      0x00\n      mstore\n      keccak256(0x00, 0x20)\n      swap1\n    tag_62:\n      dup2\n      sload\n      dup2\n      mstore\n      swap1\n      0x01\n      add\n      swap1\n      0x20\n      add\n      dup1\n      dup4\n      gt\n      tag_62\n      jumpi\n      dup3\n      swap1\n      sub\n      0x1f\n      and\n      dup3\n      add\n      swap2\n    tag_60:\n      pop\n      pop\n      pop\n      pop\n      pop\n      dup2\n      mstore\n      pop\n      pop\n      swap2\n      pop\n        /* \"contracts/use-cases/authentication_with_privacy_access/mix_contract.sol\":936:1187  if(msg.sender == owner || personal_users[msg.sender]){... */\n      jump(tag_63)\n    tag_50:\n        /* \"contracts/use-cases/authentication_with_privacy_access/mix_contract.sol\":1037:1052  user_type.basic */\n      0x00\n        /* \"contracts/use-cases/authentication_with_privacy_access/mix_contract.sol\":1023:1052  user_type0 == user_type.basic */\n      0x01\n      dup2\n      gt\n      iszero\n      tag_64\n      jumpi\n      tag_65\n      tag_35\n      jump\t// in\n    tag_65:\n    tag_64:\n        /* \"contracts/use-cases/authentication_with_privacy_access/mix_contract.sol\":1023:1033  user_type0 */\n      dup2\n        /* \"contracts/use-cases/authentication_with_privacy_access/mix_contract.sol\":1023:1052  user_type0 == user_type.basic */\n      0x01\n      dup2\n      gt\n      iszero\n      tag_66\n      jumpi\n      tag_67\n      tag_35\n      jump\t// in\n    tag_67:\n    tag_66:\n      eq\n        /* \"contracts/use-cases/authentication_with_privacy_access/mix_contract.sol\":1023:1079  user_type0 == user_type.basic && basic_users[msg.sender] */\n      dup1\n      iszero\n      tag_68\n      jumpi\n      pop\n        /* \"contracts/use-cases/authentication_with_privacy_access/mix_contract.sol\":1056:1067  basic_users */\n      0x06\n        /* \"contracts/use-cases/authentication_with_privacy_access/mix_contract.sol\":1056:1079  basic_users[msg.sender] */\n      0x00\n        /* \"contracts/use-cases/authentication_with_privacy_access/mix_contract.sol\":1068:1078  msg.sender */\n      caller\n        /* \"contracts/use-cases/authentication_with_privacy_access/mix_contract.sol\":1056:1079  basic_users[msg.sender] */\n      0xffffffffffffffffffffffffffffffffffffffff\n      and\n      0xffffffffffffffffffffffffffffffffffffffff\n      and\n      dup2\n      mstore\n      0x20\n      add\n      swap1\n      dup2\n      mstore\n      0x20\n      add\n      0x00\n      keccak256\n      0x00\n      swap1\n      sload\n      swap1\n      0x0100\n      exp\n      swap1\n      div\n      0xff\n      and\n        /* \"contracts/use-cases/authentication_with_privacy_access/mix_contract.sol\":1023:1079  user_type0 == user_type.basic && basic_users[msg.sender] */\n    tag_68:\n        /* \"contracts/use-cases/authentication_with_privacy_access/mix_contract.sol\":1020:1187  if(user_type0 == user_type.basic && basic_users[msg.sender]){... */\n      iszero\n      tag_69\n      jumpi\n        /* \"contracts/use-cases/authentication_with_privacy_access/mix_contract.sol\":1512:1523  basic_info0 */\n      0x00\n        /* \"contracts/use-cases/authentication_with_privacy_access/mix_contract.sol\":1505:1523  return basic_info0 */\n      mload(0x40)\n      dup1\n      0x40\n      add\n      0x40\n      mstore\n      swap1\n      dup2\n      0x00\n      dup3\n      add\n      dup1\n      sload\n      tag_71\n      swap1\n      tag_53\n      jump\t// in\n    tag_71:\n      dup1\n      0x1f\n      add\n      0x20\n      dup1\n      swap2\n      div\n      mul\n      0x20\n      add\n      mload(0x40)\n      swap1\n      dup2\n      add\n      0x40\n      mstore\n      dup1\n      swap3\n      swap2\n      swap1\n      dup2\n      dup2\n      mstore\n      0x20\n      add\n      dup3\n      dup1\n      sload\n      tag_72\n      swap1\n      tag_53\n      jump\t// in\n    tag_72:\n      dup1\n      iszero\n      tag_73\n      jumpi\n      dup1\n      0x1f\n      lt\n      tag_74\n      jumpi\n      0x0100\n      dup1\n      dup4\n      sload\n      div\n      mul\n      dup4\n      mstore\n      swap2\n      0x20\n      add\n      swap2\n      jump(tag_73)\n    tag_74:\n      dup3\n      add\n      swap2\n      swap1\n      0x00\n      mstore\n      keccak256(0x00, 0x20)\n      swap1\n    tag_75:\n      dup2\n      sload\n      dup2\n      mstore\n      swap1\n      0x01\n      add\n      swap1\n      0x20\n      add\n      dup1\n      dup4\n      gt\n      tag_75\n      jumpi\n      dup3\n      swap1\n      sub\n      0x1f\n      and\n      dup3\n      add\n      swap2\n    tag_73:\n      pop\n      pop\n      pop\n      pop\n      pop\n      dup2\n      mstore\n      0x20\n      add\n      0x01\n      dup3\n      add\n      dup1\n      sload\n      tag_76\n      swap1\n      tag_53\n      jump\t// in\n    tag_76:\n      dup1\n      0x1f\n      add\n      0x20\n      dup1\n      swap2\n      div\n      mul\n      0x20\n      add\n      mload(0x40)\n      swap1\n      dup2\n      add\n      0x40\n      mstore\n      dup1\n      swap3\n      swap2\n      swap1\n      dup2\n      dup2\n      mstore\n      0x20\n      add\n      dup3\n      dup1\n      sload\n      tag_77\n      swap1\n      tag_53\n      jump\t// in\n    tag_77:\n      dup1\n      iszero\n      tag_78\n      jumpi\n      dup1\n      0x1f\n      lt\n      tag_79\n      jumpi\n      0x0100\n      dup1\n      dup4\n      sload\n      div\n      mul\n      dup4\n      mstore\n      swap2\n      0x20\n      add\n      swap2\n      jump(tag_78)\n    tag_79:\n      dup3\n      add\n      swap2\n      swap1\n      0x00\n      mstore\n      keccak256(0x00, 0x20)\n      swap1\n    tag_80:\n      dup2\n      sload\n      dup2\n      mstore\n      swap1\n      0x01\n      add\n      swap1\n      0x20\n      add\n      dup1\n      dup4\n      gt\n      tag_80\n      jumpi\n      dup3\n      swap1\n      sub\n      0x1f\n      and\n      dup3\n      add\n      swap2\n    tag_78:\n      pop\n      pop\n      pop\n      pop\n      pop\n      dup2\n      mstore\n      pop\n      pop\n      swap2\n      pop\n        /* \"contracts/use-cases/authentication_with_privacy_access/mix_contract.sol\":1020:1187  if(user_type0 == user_type.basic && basic_users[msg.sender]){... */\n      jump(tag_81)\n    tag_69:\n        /* \"contracts/use-cases/authentication_with_privacy_access/mix_contract.sol\":1153:1163  msg.sender */\n      caller\n        /* \"contracts/use-cases/authentication_with_privacy_access/mix_contract.sol\":1165:1175  user_type0 */\n      dup2\n        /* \"contracts/use-cases/authentication_with_privacy_access/mix_contract.sol\":1134:1176  user_un_authorized(msg.sender, user_type0) */\n      mload(0x40)\n      0x54e896ee00000000000000000000000000000000000000000000000000000000\n      dup2\n      mstore\n      0x04\n      add\n      tag_82\n      swap3\n      swap2\n      swap1\n      tag_83\n      jump\t// in\n    tag_82:\n      mload(0x40)\n      dup1\n      swap2\n      sub\n      swap1\n      revert\n        /* \"contracts/use-cases/authentication_with_privacy_access/mix_contract.sol\":1020:1187  if(user_type0 == user_type.basic && basic_users[msg.sender]){... */\n    tag_81:\n        /* \"contracts/use-cases/authentication_with_privacy_access/mix_contract.sol\":936:1187  if(msg.sender == owner || personal_users[msg.sender]){... */\n    tag_63:\n        /* \"contracts/use-cases/authentication_with_privacy_access/mix_contract.sol\":1395:1530  function get_basic_info() public view authorize_user(  user_type.basic) returns ( basic_info memory){... */\n      pop\n      swap1\n      jump\t// out\n        /* \"contracts/use-cases/authentication_with_privacy_access/mix_contract.sol\":424:462  mapping( address => bool) public users */\n    tag_21:\n      mstore(0x20, 0x05)\n      dup1\n      0x00\n      mstore\n      keccak256(0x00, 0x40)\n      0x00\n      swap2\n      pop\n      sload\n      swap1\n      0x0100\n      exp\n      swap1\n      div\n      0xff\n      and\n      dup2\n      jump\t// out\n        /* \"contracts/use-cases/authentication_with_privacy_access/mix_contract.sol\":1536:1683  function get_personal_infor() public view authorize_user(  user_type.personal) returns (personal_info memory){... */\n    tag_25:\n        /* \"contracts/use-cases/authentication_with_privacy_access/mix_contract.sol\":1624:1644  personal_info memory */\n      tag_84\n      tag_85\n      jump\t// in\n    tag_84:\n        /* \"contracts/use-cases/authentication_with_privacy_access/mix_contract.sol\":1595:1613  user_type.personal */\n      0x01\n        /* \"contracts/use-cases/authentication_with_privacy_access/mix_contract.sol\":953:958  owner */\n      0x04\n      0x00\n      swap1\n      sload\n      swap1\n      0x0100\n      exp\n      swap1\n      div\n      0xffffffffffffffffffffffffffffffffffffffff\n      and\n        /* \"contracts/use-cases/authentication_with_privacy_access/mix_contract.sol\":939:958  msg.sender == owner */\n      0xffffffffffffffffffffffffffffffffffffffff\n      and\n        /* \"contracts/use-cases/authentication_with_privacy_access/mix_contract.sol\":939:949  msg.sender */\n      caller\n        /* \"contracts/use-cases/authentication_with_privacy_access/mix_contract.sol\":939:958  msg.sender == owner */\n      0xffffffffffffffffffffffffffffffffffffffff\n      and\n      eq\n        /* \"contracts/use-cases/authentication_with_privacy_access/mix_contract.sol\":939:988  msg.sender == owner || personal_users[msg.sender] */\n      dup1\n      tag_87\n      jumpi\n      pop\n        /* \"contracts/use-cases/authentication_with_privacy_access/mix_contract.sol\":962:976  personal_users */\n      0x07\n        /* \"contracts/use-cases/authentication_with_privacy_access/mix_contract.sol\":962:988  personal_users[msg.sender] */\n      0x00\n        /* \"contracts/use-cases/authentication_with_privacy_access/mix_contract.sol\":977:987  msg.sender */\n      caller\n        /* \"contracts/use-cases/authentication_with_privacy_access/mix_contract.sol\":962:988  personal_users[msg.sender] */\n      0xffffffffffffffffffffffffffffffffffffffff\n      and\n      0xffffffffffffffffffffffffffffffffffffffff\n      and\n      dup2\n      mstore\n      0x20\n      add\n      swap1\n      dup2\n      mstore\n      0x20\n      add\n      0x00\n      keccak256\n      0x00\n      swap1\n      sload\n      swap1\n      0x0100\n      exp\n      swap1\n      div\n      0xff\n      and\n        /* \"contracts/use-cases/authentication_with_privacy_access/mix_contract.sol\":939:988  msg.sender == owner || personal_users[msg.sender] */\n    tag_87:\n        /* \"contracts/use-cases/authentication_with_privacy_access/mix_contract.sol\":936:1187  if(msg.sender == owner || personal_users[msg.sender]){... */\n      iszero\n      tag_88\n      jumpi\n        /* \"contracts/use-cases/authentication_with_privacy_access/mix_contract.sol\":1662:1676  personal_info0 */\n      0x02\n        /* \"contracts/use-cases/authentication_with_privacy_access/mix_contract.sol\":1655:1676  return personal_info0 */\n      mload(0x40)\n      dup1\n      0x40\n      add\n      0x40\n      mstore\n      swap1\n      dup2\n      0x00\n      dup3\n      add\n      sload\n      dup2\n      mstore\n      0x20\n      add\n      0x01\n      dup3\n      add\n      dup1\n      sload\n      tag_90\n      swap1\n      tag_53\n      jump\t// in\n    tag_90:\n      dup1\n      0x1f\n      add\n      0x20\n      dup1\n      swap2\n      div\n      mul\n      0x20\n      add\n      mload(0x40)\n      swap1\n      dup2\n      add\n      0x40\n      mstore\n      dup1\n      swap3\n      swap2\n      swap1\n      dup2\n      dup2\n      mstore\n      0x20\n      add\n      dup3\n      dup1\n      sload\n      tag_91\n      swap1\n      tag_53\n      jump\t// in\n    tag_91:\n      dup1\n      iszero\n      tag_92\n      jumpi\n      dup1\n      0x1f\n      lt\n      tag_93\n      jumpi\n      0x0100\n      dup1\n      dup4\n      sload\n      div\n      mul\n      dup4\n      mstore\n      swap2\n      0x20\n      add\n      swap2\n      jump(tag_92)\n    tag_93:\n      dup3\n      add\n      swap2\n      swap1\n      0x00\n      mstore\n      keccak256(0x00, 0x20)\n      swap1\n    tag_94:\n      dup2\n      sload\n      dup2\n      mstore\n      swap1\n      0x01\n      add\n      swap1\n      0x20\n      add\n      dup1\n      dup4\n      gt\n      tag_94\n      jumpi\n      dup3\n      swap1\n      sub\n      0x1f\n      and\n      dup3\n      add\n      swap2\n    tag_92:\n      pop\n      pop\n      pop\n      pop\n      pop\n      dup2\n      mstore\n      pop\n      pop\n      swap2\n      pop\n        /* \"contracts/use-cases/authentication_with_privacy_access/mix_contract.sol\":936:1187  if(msg.sender == owner || personal_users[msg.sender]){... */\n      jump(tag_95)\n    tag_88:\n        /* \"contracts/use-cases/authentication_with_privacy_access/mix_contract.sol\":1037:1052  user_type.basic */\n      0x00\n        /* \"contracts/use-cases/authentication_with_privacy_access/mix_contract.sol\":1023:1052  user_type0 == user_type.basic */\n      0x01\n      dup2\n      gt\n      iszero\n      tag_96\n      jumpi\n      tag_97\n      tag_35\n      jump\t// in\n    tag_97:\n    tag_96:\n        /* \"contracts/use-cases/authentication_with_privacy_access/mix_contract.sol\":1023:1033  user_type0 */\n      dup2\n        /* \"contracts/use-cases/authentication_with_privacy_access/mix_contract.sol\":1023:1052  user_type0 == user_type.basic */\n      0x01\n      dup2\n      gt\n      iszero\n      tag_98\n      jumpi\n      tag_99\n      tag_35\n      jump\t// in\n    tag_99:\n    tag_98:\n      eq\n        /* \"contracts/use-cases/authentication_with_privacy_access/mix_contract.sol\":1023:1079  user_type0 == user_type.basic && basic_users[msg.sender] */\n      dup1\n      iszero\n      tag_100\n      jumpi\n      pop\n        /* \"contracts/use-cases/authentication_with_privacy_access/mix_contract.sol\":1056:1067  basic_users */\n      0x06\n        /* \"contracts/use-cases/authentication_with_privacy_access/mix_contract.sol\":1056:1079  basic_users[msg.sender] */\n      0x00\n        /* \"contracts/use-cases/authentication_with_privacy_access/mix_contract.sol\":1068:1078  msg.sender */\n      caller\n        /* \"contracts/use-cases/authentication_with_privacy_access/mix_contract.sol\":1056:1079  basic_users[msg.sender] */\n      0xffffffffffffffffffffffffffffffffffffffff\n      and\n      0xffffffffffffffffffffffffffffffffffffffff\n      and\n      dup2\n      mstore\n      0x20\n      add\n      swap1\n      dup2\n      mstore\n      0x20\n      add\n      0x00\n      keccak256\n      0x00\n      swap1\n      sload\n      swap1\n      0x0100\n      exp\n      swap1\n      div\n      0xff\n      and\n        /* \"contracts/use-cases/authentication_with_privacy_access/mix_contract.sol\":1023:1079  user_type0 == user_type.basic && basic_users[msg.sender] */\n    tag_100:\n        /* \"contracts/use-cases/authentication_with_privacy_access/mix_contract.sol\":1020:1187  if(user_type0 == user_type.basic && basic_users[msg.sender]){... */\n      iszero\n      tag_101\n      jumpi\n        /* \"contracts/use-cases/authentication_with_privacy_access/mix_contract.sol\":1662:1676  personal_info0 */\n      0x02\n        /* \"contracts/use-cases/authentication_with_privacy_access/mix_contract.sol\":1655:1676  return personal_info0 */\n      mload(0x40)\n      dup1\n      0x40\n      add\n      0x40\n      mstore\n      swap1\n      dup2\n      0x00\n      dup3\n      add\n      sload\n      dup2\n      mstore\n      0x20\n      add\n      0x01\n      dup3\n      add\n      dup1\n      sload\n      tag_103\n      swap1\n      tag_53\n      jump\t// in\n    tag_103:\n      dup1\n      0x1f\n      add\n      0x20\n      dup1\n      swap2\n      div\n      mul\n      0x20\n      add\n      mload(0x40)\n      swap1\n      dup2\n      add\n      0x40\n      mstore\n      dup1\n      swap3\n      swap2\n      swap1\n      dup2\n      dup2\n      mstore\n      0x20\n      add\n      dup3\n      dup1\n      sload\n      tag_104\n      swap1\n      tag_53\n      jump\t// in\n    tag_104:\n      dup1\n      iszero\n      tag_105\n      jumpi\n      dup1\n      0x1f\n      lt\n      tag_106\n      jumpi\n      0x0100\n      dup1\n      dup4\n      sload\n      div\n      mul\n      dup4\n      mstore\n      swap2\n      0x20\n      add\n      swap2\n      jump(tag_105)\n    tag_106:\n      dup3\n      add\n      swap2\n      swap1\n      0x00\n      mstore\n      keccak256(0x00, 0x20)\n      swap1\n    tag_107:\n      dup2\n      sload\n      dup2\n      mstore\n      swap1\n      0x01\n      add\n      swap1\n      0x20\n      add\n      dup1\n      dup4\n      gt\n      tag_107\n      jumpi\n      dup3\n      swap1\n      sub\n      0x1f\n      and\n      dup3\n      add\n      swap2\n    tag_105:\n      pop\n      pop\n      pop\n      pop\n      pop\n      dup2\n      mstore\n      pop\n      pop\n      swap2\n      pop\n        /* \"contracts/use-cases/authentication_with_privacy_access/mix_contract.sol\":1020:1187  if(user_type0 == user_type.basic && basic_users[msg.sender]){... */\n      jump(tag_108)\n    tag_101:\n        /* \"contracts/use-cases/authentication_with_privacy_access/mix_contract.sol\":1153:1163  msg.sender */\n      caller\n        /* \"contracts/use-cases/authentication_with_privacy_access/mix_contract.sol\":1165:1175  user_type0 */\n      dup2\n        /* \"contracts/use-cases/authentication_with_privacy_access/mix_contract.sol\":1134:1176  user_un_authorized(msg.sender, user_type0) */\n      mload(0x40)\n      0x54e896ee00000000000000000000000000000000000000000000000000000000\n      dup2\n      mstore\n      0x04\n      add\n      tag_109\n      swap3\n      swap2\n      swap1\n      tag_83\n      jump\t// in\n    tag_109:\n      mload(0x40)\n      dup1\n      swap2\n      sub\n      swap1\n      revert\n        /* \"contracts/use-cases/authentication_with_privacy_access/mix_contract.sol\":1020:1187  if(user_type0 == user_type.basic && basic_users[msg.sender]){... */\n    tag_108:\n        /* \"contracts/use-cases/authentication_with_privacy_access/mix_contract.sol\":936:1187  if(msg.sender == owner || personal_users[msg.sender]){... */\n    tag_95:\n        /* \"contracts/use-cases/authentication_with_privacy_access/mix_contract.sol\":1536:1683  function get_personal_infor() public view authorize_user(  user_type.personal) returns (personal_info memory){... */\n      pop\n      swap1\n      jump\t// out\n    tag_47:\n      mload(0x40)\n      dup1\n      0x40\n      add\n      0x40\n      mstore\n      dup1\n      0x60\n      dup2\n      mstore\n      0x20\n      add\n      0x60\n      dup2\n      mstore\n      pop\n      swap1\n      jump\t// out\n    tag_85:\n      mload(0x40)\n      dup1\n      0x40\n      add\n      0x40\n      mstore\n      dup1\n      0x00\n      dup2\n      mstore\n      0x20\n      add\n      0x60\n      dup2\n      mstore\n      pop\n      swap1\n      jump\t// out\n        /* \"#utility.yul\":88:205   */\n    tag_111:\n        /* \"#utility.yul\":197:198   */\n      0x00\n        /* \"#utility.yul\":194:195   */\n      dup1\n        /* \"#utility.yul\":187:199   */\n      revert\n        /* \"#utility.yul\":334:445   */\n    tag_113:\n        /* \"#utility.yul\":419:420   */\n      0x02\n        /* \"#utility.yul\":412:417   */\n      dup2\n        /* \"#utility.yul\":409:421   */\n      lt\n        /* \"#utility.yul\":399:439   */\n      tag_144\n      jumpi\n        /* \"#utility.yul\":435:436   */\n      0x00\n        /* \"#utility.yul\":432:433   */\n      dup1\n        /* \"#utility.yul\":425:437   */\n      revert\n        /* \"#utility.yul\":399:439   */\n    tag_144:\n        /* \"#utility.yul\":334:445   */\n      pop\n      jump\t// out\n        /* \"#utility.yul\":451:614   */\n    tag_114:\n        /* \"#utility.yul\":509:514   */\n      0x00\n        /* \"#utility.yul\":547:553   */\n      dup2\n        /* \"#utility.yul\":534:554   */\n      calldataload\n        /* \"#utility.yul\":525:554   */\n      swap1\n      pop\n        /* \"#utility.yul\":563:608   */\n      tag_146\n        /* \"#utility.yul\":602:607   */\n      dup2\n        /* \"#utility.yul\":563:608   */\n      tag_113\n      jump\t// in\n    tag_146:\n        /* \"#utility.yul\":451:614   */\n      swap3\n      swap2\n      pop\n      pop\n      jump\t// out\n        /* \"#utility.yul\":620:746   */\n    tag_115:\n        /* \"#utility.yul\":657:664   */\n      0x00\n        /* \"#utility.yul\":697:739   */\n      0xffffffffffffffffffffffffffffffffffffffff\n        /* \"#utility.yul\":690:695   */\n      dup3\n        /* \"#utility.yul\":686:740   */\n      and\n        /* \"#utility.yul\":675:740   */\n      swap1\n      pop\n        /* \"#utility.yul\":620:746   */\n      swap2\n      swap1\n      pop\n      jump\t// out\n        /* \"#utility.yul\":752:848   */\n    tag_116:\n        /* \"#utility.yul\":789:796   */\n      0x00\n        /* \"#utility.yul\":818:842   */\n      tag_149\n        /* \"#utility.yul\":836:841   */\n      dup3\n        /* \"#utility.yul\":818:842   */\n      tag_115\n      jump\t// in\n    tag_149:\n        /* \"#utility.yul\":807:842   */\n      swap1\n      pop\n        /* \"#utility.yul\":752:848   */\n      swap2\n      swap1\n      pop\n      jump\t// out\n        /* \"#utility.yul\":854:976   */\n    tag_117:\n        /* \"#utility.yul\":927:951   */\n      tag_151\n        /* \"#utility.yul\":945:950   */\n      dup2\n        /* \"#utility.yul\":927:951   */\n      tag_116\n      jump\t// in\n    tag_151:\n        /* \"#utility.yul\":920:925   */\n      dup2\n        /* \"#utility.yul\":917:952   */\n      eq\n        /* \"#utility.yul\":907:970   */\n      tag_152\n      jumpi\n        /* \"#utility.yul\":966:967   */\n      0x00\n        /* \"#utility.yul\":963:964   */\n      dup1\n        /* \"#utility.yul\":956:968   */\n      revert\n        /* \"#utility.yul\":907:970   */\n    tag_152:\n        /* \"#utility.yul\":854:976   */\n      pop\n      jump\t// out\n        /* \"#utility.yul\":982:1121   */\n    tag_118:\n        /* \"#utility.yul\":1028:1033   */\n      0x00\n        /* \"#utility.yul\":1066:1072   */\n      dup2\n        /* \"#utility.yul\":1053:1073   */\n      calldataload\n        /* \"#utility.yul\":1044:1073   */\n      swap1\n      pop\n        /* \"#utility.yul\":1082:1115   */\n      tag_154\n        /* \"#utility.yul\":1109:1114   */\n      dup2\n        /* \"#utility.yul\":1082:1115   */\n      tag_117\n      jump\t// in\n    tag_154:\n        /* \"#utility.yul\":982:1121   */\n      swap3\n      swap2\n      pop\n      pop\n      jump\t// out\n        /* \"#utility.yul\":1127:1625   */\n    tag_10:\n        /* \"#utility.yul\":1207:1213   */\n      0x00\n        /* \"#utility.yul\":1215:1221   */\n      dup1\n        /* \"#utility.yul\":1264:1266   */\n      0x40\n        /* \"#utility.yul\":1252:1261   */\n      dup4\n        /* \"#utility.yul\":1243:1250   */\n      dup6\n        /* \"#utility.yul\":1239:1262   */\n      sub\n        /* \"#utility.yul\":1235:1267   */\n      slt\n        /* \"#utility.yul\":1232:1351   */\n      iszero\n      tag_156\n      jumpi\n        /* \"#utility.yul\":1270:1349   */\n      tag_157\n      tag_111\n      jump\t// in\n    tag_157:\n        /* \"#utility.yul\":1232:1351   */\n    tag_156:\n        /* \"#utility.yul\":1390:1391   */\n      0x00\n        /* \"#utility.yul\":1415:1480   */\n      tag_158\n        /* \"#utility.yul\":1472:1479   */\n      dup6\n        /* \"#utility.yul\":1463:1469   */\n      dup3\n        /* \"#utility.yul\":1452:1461   */\n      dup7\n        /* \"#utility.yul\":1448:1470   */\n      add\n        /* \"#utility.yul\":1415:1480   */\n      tag_114\n      jump\t// in\n    tag_158:\n        /* \"#utility.yul\":1405:1480   */\n      swap3\n      pop\n        /* \"#utility.yul\":1361:1490   */\n      pop\n        /* \"#utility.yul\":1529:1531   */\n      0x20\n        /* \"#utility.yul\":1555:1608   */\n      tag_159\n        /* \"#utility.yul\":1600:1607   */\n      dup6\n        /* \"#utility.yul\":1591:1597   */\n      dup3\n        /* \"#utility.yul\":1580:1589   */\n      dup7\n        /* \"#utility.yul\":1576:1598   */\n      add\n        /* \"#utility.yul\":1555:1608   */\n      tag_118\n      jump\t// in\n    tag_159:\n        /* \"#utility.yul\":1545:1608   */\n      swap2\n      pop\n        /* \"#utility.yul\":1500:1618   */\n      pop\n        /* \"#utility.yul\":1127:1625   */\n      swap3\n      pop\n      swap3\n      swap1\n      pop\n      jump\t// out\n        /* \"#utility.yul\":1631:1730   */\n    tag_119:\n        /* \"#utility.yul\":1683:1689   */\n      0x00\n        /* \"#utility.yul\":1717:1722   */\n      dup2\n        /* \"#utility.yul\":1711:1723   */\n      mload\n        /* \"#utility.yul\":1701:1723   */\n      swap1\n      pop\n        /* \"#utility.yul\":1631:1730   */\n      swap2\n      swap1\n      pop\n      jump\t// out\n        /* \"#utility.yul\":1736:1895   */\n    tag_120:\n        /* \"#utility.yul\":1810:1821   */\n      0x00\n        /* \"#utility.yul\":1844:1850   */\n      dup3\n        /* \"#utility.yul\":1839:1842   */\n      dup3\n        /* \"#utility.yul\":1832:1851   */\n      mstore\n        /* \"#utility.yul\":1884:1888   */\n      0x20\n        /* \"#utility.yul\":1879:1882   */\n      dup3\n        /* \"#utility.yul\":1875:1889   */\n      add\n        /* \"#utility.yul\":1860:1889   */\n      swap1\n      pop\n        /* \"#utility.yul\":1736:1895   */\n      swap3\n      swap2\n      pop\n      pop\n      jump\t// out\n        /* \"#utility.yul\":1901:2147   */\n    tag_121:\n        /* \"#utility.yul\":1982:1983   */\n      0x00\n        /* \"#utility.yul\":1992:2105   */\n    tag_163:\n        /* \"#utility.yul\":2006:2012   */\n      dup4\n        /* \"#utility.yul\":2003:2004   */\n      dup2\n        /* \"#utility.yul\":2000:2013   */\n      lt\n        /* \"#utility.yul\":1992:2105   */\n      iszero\n      tag_165\n      jumpi\n        /* \"#utility.yul\":2091:2092   */\n      dup1\n        /* \"#utility.yul\":2086:2089   */\n      dup3\n        /* \"#utility.yul\":2082:2093   */\n      add\n        /* \"#utility.yul\":2076:2094   */\n      mload\n        /* \"#utility.yul\":2072:2073   */\n      dup2\n        /* \"#utility.yul\":2067:2070   */\n      dup5\n        /* \"#utility.yul\":2063:2074   */\n      add\n        /* \"#utility.yul\":2056:2095   */\n      mstore\n        /* \"#utility.yul\":2028:2030   */\n      0x20\n        /* \"#utility.yul\":2025:2026   */\n      dup2\n        /* \"#utility.yul\":2021:2031   */\n      add\n        /* \"#utility.yul\":2016:2031   */\n      swap1\n      pop\n        /* \"#utility.yul\":1992:2105   */\n      jump(tag_163)\n    tag_165:\n        /* \"#utility.yul\":2139:2140   */\n      0x00\n        /* \"#utility.yul\":2130:2136   */\n      dup5\n        /* \"#utility.yul\":2125:2128   */\n      dup5\n        /* \"#utility.yul\":2121:2137   */\n      add\n        /* \"#utility.yul\":2114:2141   */\n      mstore\n        /* \"#utility.yul\":1963:2147   */\n      pop\n        /* \"#utility.yul\":1901:2147   */\n      pop\n      pop\n      pop\n      jump\t// out\n        /* \"#utility.yul\":2153:2255   */\n    tag_122:\n        /* \"#utility.yul\":2194:2200   */\n      0x00\n        /* \"#utility.yul\":2245:2247   */\n      0x1f\n        /* \"#utility.yul\":2241:2248   */\n      not\n        /* \"#utility.yul\":2236:2238   */\n      0x1f\n        /* \"#utility.yul\":2229:2234   */\n      dup4\n        /* \"#utility.yul\":2225:2239   */\n      add\n        /* \"#utility.yul\":2221:2249   */\n      and\n        /* \"#utility.yul\":2211:2249   */\n      swap1\n      pop\n        /* \"#utility.yul\":2153:2255   */\n      swap2\n      swap1\n      pop\n      jump\t// out\n        /* \"#utility.yul\":2261:2618   */\n    tag_123:\n        /* \"#utility.yul\":2339:2342   */\n      0x00\n        /* \"#utility.yul\":2367:2406   */\n      tag_168\n        /* \"#utility.yul\":2400:2405   */\n      dup3\n        /* \"#utility.yul\":2367:2406   */\n      tag_119\n      jump\t// in\n    tag_168:\n        /* \"#utility.yul\":2422:2483   */\n      tag_169\n        /* \"#utility.yul\":2476:2482   */\n      dup2\n        /* \"#utility.yul\":2471:2474   */\n      dup6\n        /* \"#utility.yul\":2422:2483   */\n      tag_120\n      jump\t// in\n    tag_169:\n        /* \"#utility.yul\":2415:2483   */\n      swap4\n      pop\n        /* \"#utility.yul\":2492:2557   */\n      tag_170\n        /* \"#utility.yul\":2550:2556   */\n      dup2\n        /* \"#utility.yul\":2545:2548   */\n      dup6\n        /* \"#utility.yul\":2538:2542   */\n      0x20\n        /* \"#utility.yul\":2531:2536   */\n      dup7\n        /* \"#utility.yul\":2527:2543   */\n      add\n        /* \"#utility.yul\":2492:2557   */\n      tag_121\n      jump\t// in\n    tag_170:\n        /* \"#utility.yul\":2582:2611   */\n      tag_171\n        /* \"#utility.yul\":2604:2610   */\n      dup2\n        /* \"#utility.yul\":2582:2611   */\n      tag_122\n      jump\t// in\n    tag_171:\n        /* \"#utility.yul\":2577:2580   */\n      dup5\n        /* \"#utility.yul\":2573:2612   */\n      add\n        /* \"#utility.yul\":2566:2612   */\n      swap2\n      pop\n        /* \"#utility.yul\":2343:2618   */\n      pop\n        /* \"#utility.yul\":2261:2618   */\n      swap3\n      swap2\n      pop\n      pop\n      jump\t// out\n        /* \"#utility.yul\":2696:3374   */\n    tag_124:\n        /* \"#utility.yul\":2815:2818   */\n      0x00\n        /* \"#utility.yul\":2851:2855   */\n      0x40\n        /* \"#utility.yul\":2846:2849   */\n      dup4\n        /* \"#utility.yul\":2842:2856   */\n      add\n        /* \"#utility.yul\":2938:2942   */\n      0x00\n        /* \"#utility.yul\":2931:2936   */\n      dup4\n        /* \"#utility.yul\":2927:2943   */\n      add\n        /* \"#utility.yul\":2921:2944   */\n      mload\n        /* \"#utility.yul\":2991:2994   */\n      dup5\n        /* \"#utility.yul\":2985:2989   */\n      dup3\n        /* \"#utility.yul\":2981:2995   */\n      sub\n        /* \"#utility.yul\":2974:2978   */\n      0x00\n        /* \"#utility.yul\":2969:2972   */\n      dup7\n        /* \"#utility.yul\":2965:2979   */\n      add\n        /* \"#utility.yul\":2958:2996   */\n      mstore\n        /* \"#utility.yul\":3017:3090   */\n      tag_173\n        /* \"#utility.yul\":3085:3089   */\n      dup3\n        /* \"#utility.yul\":3071:3083   */\n      dup3\n        /* \"#utility.yul\":3017:3090   */\n      tag_123\n      jump\t// in\n    tag_173:\n        /* \"#utility.yul\":3009:3090   */\n      swap2\n      pop\n        /* \"#utility.yul\":2866:3101   */\n      pop\n        /* \"#utility.yul\":3184:3188   */\n      0x20\n        /* \"#utility.yul\":3177:3182   */\n      dup4\n        /* \"#utility.yul\":3173:3189   */\n      add\n        /* \"#utility.yul\":3167:3190   */\n      mload\n        /* \"#utility.yul\":3237:3240   */\n      dup5\n        /* \"#utility.yul\":3231:3235   */\n      dup3\n        /* \"#utility.yul\":3227:3241   */\n      sub\n        /* \"#utility.yul\":3220:3224   */\n      0x20\n        /* \"#utility.yul\":3215:3218   */\n      dup7\n        /* \"#utility.yul\":3211:3225   */\n      add\n        /* \"#utility.yul\":3204:3242   */\n      mstore\n        /* \"#utility.yul\":3263:3336   */\n      tag_174\n        /* \"#utility.yul\":3331:3335   */\n      dup3\n        /* \"#utility.yul\":3317:3329   */\n      dup3\n        /* \"#utility.yul\":3263:3336   */\n      tag_123\n      jump\t// in\n    tag_174:\n        /* \"#utility.yul\":3255:3336   */\n      swap2\n      pop\n        /* \"#utility.yul\":3111:3347   */\n      pop\n        /* \"#utility.yul\":3364:3368   */\n      dup1\n        /* \"#utility.yul\":3357:3368   */\n      swap2\n      pop\n        /* \"#utility.yul\":2820:3374   */\n      pop\n        /* \"#utility.yul\":2696:3374   */\n      swap3\n      swap2\n      pop\n      pop\n      jump\t// out\n        /* \"#utility.yul\":3380:3753   */\n    tag_17:\n        /* \"#utility.yul\":3523:3527   */\n      0x00\n        /* \"#utility.yul\":3561:3563   */\n      0x20\n        /* \"#utility.yul\":3550:3559   */\n      dup3\n        /* \"#utility.yul\":3546:3564   */\n      add\n        /* \"#utility.yul\":3538:3564   */\n      swap1\n      pop\n        /* \"#utility.yul\":3610:3619   */\n      dup2\n        /* \"#utility.yul\":3604:3608   */\n      dup2\n        /* \"#utility.yul\":3600:3620   */\n      sub\n        /* \"#utility.yul\":3596:3597   */\n      0x00\n        /* \"#utility.yul\":3585:3594   */\n      dup4\n        /* \"#utility.yul\":3581:3598   */\n      add\n        /* \"#utility.yul\":3574:3621   */\n      mstore\n        /* \"#utility.yul\":3638:3746   */\n      tag_176\n        /* \"#utility.yul\":3741:3745   */\n      dup2\n        /* \"#utility.yul\":3732:3738   */\n      dup5\n        /* \"#utility.yul\":3638:3746   */\n      tag_124\n      jump\t// in\n    tag_176:\n        /* \"#utility.yul\":3630:3746   */\n      swap1\n      pop\n        /* \"#utility.yul\":3380:3753   */\n      swap3\n      swap2\n      pop\n      pop\n      jump\t// out\n        /* \"#utility.yul\":3759:4088   */\n    tag_20:\n        /* \"#utility.yul\":3818:3824   */\n      0x00\n        /* \"#utility.yul\":3867:3869   */\n      0x20\n        /* \"#utility.yul\":3855:3864   */\n      dup3\n        /* \"#utility.yul\":3846:3853   */\n      dup5\n        /* \"#utility.yul\":3842:3865   */\n      sub\n        /* \"#utility.yul\":3838:3870   */\n      slt\n        /* \"#utility.yul\":3835:3954   */\n      iszero\n      tag_178\n      jumpi\n        /* \"#utility.yul\":3873:3952   */\n      tag_179\n      tag_111\n      jump\t// in\n    tag_179:\n        /* \"#utility.yul\":3835:3954   */\n    tag_178:\n        /* \"#utility.yul\":3993:3994   */\n      0x00\n        /* \"#utility.yul\":4018:4071   */\n      tag_180\n        /* \"#utility.yul\":4063:4070   */\n      dup5\n        /* \"#utility.yul\":4054:4060   */\n      dup3\n        /* \"#utility.yul\":4043:4052   */\n      dup6\n        /* \"#utility.yul\":4039:4061   */\n      add\n        /* \"#utility.yul\":4018:4071   */\n      tag_118\n      jump\t// in\n    tag_180:\n        /* \"#utility.yul\":4008:4071   */\n      swap2\n      pop\n        /* \"#utility.yul\":3964:4081   */\n      pop\n        /* \"#utility.yul\":3759:4088   */\n      swap3\n      swap2\n      pop\n      pop\n      jump\t// out\n        /* \"#utility.yul\":4094:4184   */\n    tag_125:\n        /* \"#utility.yul\":4128:4135   */\n      0x00\n        /* \"#utility.yul\":4171:4176   */\n      dup2\n        /* \"#utility.yul\":4164:4177   */\n      iszero\n        /* \"#utility.yul\":4157:4178   */\n      iszero\n        /* \"#utility.yul\":4146:4178   */\n      swap1\n      pop\n        /* \"#utility.yul\":4094:4184   */\n      swap2\n      swap1\n      pop\n      jump\t// out\n        /* \"#utility.yul\":4190:4299   */\n    tag_126:\n        /* \"#utility.yul\":4271:4292   */\n      tag_183\n        /* \"#utility.yul\":4286:4291   */\n      dup2\n        /* \"#utility.yul\":4271:4292   */\n      tag_125\n      jump\t// in\n    tag_183:\n        /* \"#utility.yul\":4266:4269   */\n      dup3\n        /* \"#utility.yul\":4259:4293   */\n      mstore\n        /* \"#utility.yul\":4190:4299   */\n      pop\n      pop\n      jump\t// out\n        /* \"#utility.yul\":4305:4515   */\n    tag_23:\n        /* \"#utility.yul\":4392:4396   */\n      0x00\n        /* \"#utility.yul\":4430:4432   */\n      0x20\n        /* \"#utility.yul\":4419:4428   */\n      dup3\n        /* \"#utility.yul\":4415:4433   */\n      add\n        /* \"#utility.yul\":4407:4433   */\n      swap1\n      pop\n        /* \"#utility.yul\":4443:4508   */\n      tag_185\n        /* \"#utility.yul\":4505:4506   */\n      0x00\n        /* \"#utility.yul\":4494:4503   */\n      dup4\n        /* \"#utility.yul\":4490:4507   */\n      add\n        /* \"#utility.yul\":4481:4487   */\n      dup5\n        /* \"#utility.yul\":4443:4508   */\n      tag_126\n      jump\t// in\n    tag_185:\n        /* \"#utility.yul\":4305:4515   */\n      swap3\n      swap2\n      pop\n      pop\n      jump\t// out\n        /* \"#utility.yul\":4521:4598   */\n    tag_127:\n        /* \"#utility.yul\":4558:4565   */\n      0x00\n        /* \"#utility.yul\":4587:4592   */\n      dup2\n        /* \"#utility.yul\":4576:4592   */\n      swap1\n      pop\n        /* \"#utility.yul\":4521:4598   */\n      swap2\n      swap1\n      pop\n      jump\t// out\n        /* \"#utility.yul\":4604:4712   */\n    tag_128:\n        /* \"#utility.yul\":4681:4705   */\n      tag_188\n        /* \"#utility.yul\":4699:4704   */\n      dup2\n        /* \"#utility.yul\":4681:4705   */\n      tag_127\n      jump\t// in\n    tag_188:\n        /* \"#utility.yul\":4676:4679   */\n      dup3\n        /* \"#utility.yul\":4669:4706   */\n      mstore\n        /* \"#utility.yul\":4604:4712   */\n      pop\n      pop\n      jump\t// out\n        /* \"#utility.yul\":4796:5416   */\n    tag_129:\n        /* \"#utility.yul\":4923:4926   */\n      0x00\n        /* \"#utility.yul\":4959:4963   */\n      0x40\n        /* \"#utility.yul\":4954:4957   */\n      dup4\n        /* \"#utility.yul\":4950:4964   */\n      add\n        /* \"#utility.yul\":5048:5052   */\n      0x00\n        /* \"#utility.yul\":5041:5046   */\n      dup4\n        /* \"#utility.yul\":5037:5053   */\n      add\n        /* \"#utility.yul\":5031:5054   */\n      mload\n        /* \"#utility.yul\":5067:5130   */\n      tag_190\n        /* \"#utility.yul\":5124:5128   */\n      0x00\n        /* \"#utility.yul\":5119:5122   */\n      dup7\n        /* \"#utility.yul\":5115:5129   */\n      add\n        /* \"#utility.yul\":5101:5113   */\n      dup3\n        /* \"#utility.yul\":5067:5130   */\n      tag_128\n      jump\t// in\n    tag_190:\n        /* \"#utility.yul\":4974:5140   */\n      pop\n        /* \"#utility.yul\":5226:5230   */\n      0x20\n        /* \"#utility.yul\":5219:5224   */\n      dup4\n        /* \"#utility.yul\":5215:5231   */\n      add\n        /* \"#utility.yul\":5209:5232   */\n      mload\n        /* \"#utility.yul\":5279:5282   */\n      dup5\n        /* \"#utility.yul\":5273:5277   */\n      dup3\n        /* \"#utility.yul\":5269:5283   */\n      sub\n        /* \"#utility.yul\":5262:5266   */\n      0x20\n        /* \"#utility.yul\":5257:5260   */\n      dup7\n        /* \"#utility.yul\":5253:5267   */\n      add\n        /* \"#utility.yul\":5246:5284   */\n      mstore\n        /* \"#utility.yul\":5305:5378   */\n      tag_191\n        /* \"#utility.yul\":5373:5377   */\n      dup3\n        /* \"#utility.yul\":5359:5371   */\n      dup3\n        /* \"#utility.yul\":5305:5378   */\n      tag_123\n      jump\t// in\n    tag_191:\n        /* \"#utility.yul\":5297:5378   */\n      swap2\n      pop\n        /* \"#utility.yul\":5150:5389   */\n      pop\n        /* \"#utility.yul\":5406:5410   */\n      dup1\n        /* \"#utility.yul\":5399:5410   */\n      swap2\n      pop\n        /* \"#utility.yul\":4928:5416   */\n      pop\n        /* \"#utility.yul\":4796:5416   */\n      swap3\n      swap2\n      pop\n      pop\n      jump\t// out\n        /* \"#utility.yul\":5422:5811   */\n    tag_27:\n        /* \"#utility.yul\":5573:5577   */\n      0x00\n        /* \"#utility.yul\":5611:5613   */\n      0x20\n        /* \"#utility.yul\":5600:5609   */\n      dup3\n        /* \"#utility.yul\":5596:5614   */\n      add\n        /* \"#utility.yul\":5588:5614   */\n      swap1\n      pop\n        /* \"#utility.yul\":5660:5669   */\n      dup2\n        /* \"#utility.yul\":5654:5658   */\n      dup2\n        /* \"#utility.yul\":5650:5670   */\n      sub\n        /* \"#utility.yul\":5646:5647   */\n      0x00\n        /* \"#utility.yul\":5635:5644   */\n      dup4\n        /* \"#utility.yul\":5631:5648   */\n      add\n        /* \"#utility.yul\":5624:5671   */\n      mstore\n        /* \"#utility.yul\":5688:5804   */\n      tag_193\n        /* \"#utility.yul\":5799:5803   */\n      dup2\n        /* \"#utility.yul\":5790:5796   */\n      dup5\n        /* \"#utility.yul\":5688:5804   */\n      tag_129\n      jump\t// in\n    tag_193:\n        /* \"#utility.yul\":5680:5804   */\n      swap1\n      pop\n        /* \"#utility.yul\":5422:5811   */\n      swap3\n      swap2\n      pop\n      pop\n      jump\t// out\n        /* \"#utility.yul\":5817:5986   */\n    tag_130:\n        /* \"#utility.yul\":5901:5912   */\n      0x00\n        /* \"#utility.yul\":5935:5941   */\n      dup3\n        /* \"#utility.yul\":5930:5933   */\n      dup3\n        /* \"#utility.yul\":5923:5942   */\n      mstore\n        /* \"#utility.yul\":5975:5979   */\n      0x20\n        /* \"#utility.yul\":5970:5973   */\n      dup3\n        /* \"#utility.yul\":5966:5980   */\n      add\n        /* \"#utility.yul\":5951:5980   */\n      swap1\n      pop\n        /* \"#utility.yul\":5817:5986   */\n      swap3\n      swap2\n      pop\n      pop\n      jump\t// out\n        /* \"#utility.yul\":5992:6172   */\n    tag_131:\n        /* \"#utility.yul\":6132:6164   */\n      0x4f6e6c79206f776e65722063616e20617574686f72697a652075736572730000\n        /* \"#utility.yul\":6128:6129   */\n      0x00\n        /* \"#utility.yul\":6120:6126   */\n      dup3\n        /* \"#utility.yul\":6116:6130   */\n      add\n        /* \"#utility.yul\":6109:6165   */\n      mstore\n        /* \"#utility.yul\":5992:6172   */\n      pop\n      jump\t// out\n        /* \"#utility.yul\":6178:6544   */\n    tag_132:\n        /* \"#utility.yul\":6320:6323   */\n      0x00\n        /* \"#utility.yul\":6341:6408   */\n      tag_197\n        /* \"#utility.yul\":6405:6407   */\n      0x1e\n        /* \"#utility.yul\":6400:6403   */\n      dup4\n        /* \"#utility.yul\":6341:6408   */\n      tag_130\n      jump\t// in\n    tag_197:\n        /* \"#utility.yul\":6334:6408   */\n      swap2\n      pop\n        /* \"#utility.yul\":6417:6510   */\n      tag_198\n        /* \"#utility.yul\":6506:6509   */\n      dup3\n        /* \"#utility.yul\":6417:6510   */\n      tag_131\n      jump\t// in\n    tag_198:\n        /* \"#utility.yul\":6535:6537   */\n      0x20\n        /* \"#utility.yul\":6530:6533   */\n      dup3\n        /* \"#utility.yul\":6526:6538   */\n      add\n        /* \"#utility.yul\":6519:6538   */\n      swap1\n      pop\n        /* \"#utility.yul\":6178:6544   */\n      swap2\n      swap1\n      pop\n      jump\t// out\n        /* \"#utility.yul\":6550:6969   */\n    tag_31:\n        /* \"#utility.yul\":6716:6720   */\n      0x00\n        /* \"#utility.yul\":6754:6756   */\n      0x20\n        /* \"#utility.yul\":6743:6752   */\n      dup3\n        /* \"#utility.yul\":6739:6757   */\n      add\n        /* \"#utility.yul\":6731:6757   */\n      swap1\n      pop\n        /* \"#utility.yul\":6803:6812   */\n      dup2\n        /* \"#utility.yul\":6797:6801   */\n      dup2\n        /* \"#utility.yul\":6793:6813   */\n      sub\n        /* \"#utility.yul\":6789:6790   */\n      0x00\n        /* \"#utility.yul\":6778:6787   */\n      dup4\n        /* \"#utility.yul\":6774:6791   */\n      add\n        /* \"#utility.yul\":6767:6814   */\n      mstore\n        /* \"#utility.yul\":6831:6962   */\n      tag_200\n        /* \"#utility.yul\":6957:6961   */\n      dup2\n        /* \"#utility.yul\":6831:6962   */\n      tag_132\n      jump\t// in\n    tag_200:\n        /* \"#utility.yul\":6823:6962   */\n      swap1\n      pop\n        /* \"#utility.yul\":6550:6969   */\n      swap2\n      swap1\n      pop\n      jump\t// out\n        /* \"#utility.yul\":6975:7155   */\n    tag_35:\n        /* \"#utility.yul\":7023:7100   */\n      0x4e487b7100000000000000000000000000000000000000000000000000000000\n        /* \"#utility.yul\":7020:7021   */\n      0x00\n        /* \"#utility.yul\":7013:7101   */\n      mstore\n        /* \"#utility.yul\":7120:7124   */\n      0x21\n        /* \"#utility.yul\":7117:7118   */\n      0x04\n        /* \"#utility.yul\":7110:7125   */\n      mstore\n        /* \"#utility.yul\":7144:7148   */\n      0x24\n        /* \"#utility.yul\":7141:7142   */\n      0x00\n        /* \"#utility.yul\":7134:7149   */\n      revert\n        /* \"#utility.yul\":7161:7341   */\n    tag_133:\n        /* \"#utility.yul\":7209:7286   */\n      0x4e487b7100000000000000000000000000000000000000000000000000000000\n        /* \"#utility.yul\":7206:7207   */\n      0x00\n        /* \"#utility.yul\":7199:7287   */\n      mstore\n        /* \"#utility.yul\":7306:7310   */\n      0x22\n        /* \"#utility.yul\":7303:7304   */\n      0x04\n        /* \"#utility.yul\":7296:7311   */\n      mstore\n        /* \"#utility.yul\":7330:7334   */\n      0x24\n        /* \"#utility.yul\":7327:7328   */\n      0x00\n        /* \"#utility.yul\":7320:7335   */\n      revert\n        /* \"#utility.yul\":7347:7667   */\n    tag_53:\n        /* \"#utility.yul\":7391:7397   */\n      0x00\n        /* \"#utility.yul\":7428:7429   */\n      0x02\n        /* \"#utility.yul\":7422:7426   */\n      dup3\n        /* \"#utility.yul\":7418:7430   */\n      div\n        /* \"#utility.yul\":7408:7430   */\n      swap1\n      pop\n        /* \"#utility.yul\":7475:7476   */\n      0x01\n        /* \"#utility.yul\":7469:7473   */\n      dup3\n        /* \"#utility.yul\":7465:7477   */\n      and\n        /* \"#utility.yul\":7496:7514   */\n      dup1\n        /* \"#utility.yul\":7486:7567   */\n      tag_204\n      jumpi\n        /* \"#utility.yul\":7552:7556   */\n      0x7f\n        /* \"#utility.yul\":7544:7550   */\n      dup3\n        /* \"#utility.yul\":7540:7557   */\n      and\n        /* \"#utility.yul\":7530:7557   */\n      swap2\n      pop\n        /* \"#utility.yul\":7486:7567   */\n    tag_204:\n        /* \"#utility.yul\":7614:7616   */\n      0x20\n        /* \"#utility.yul\":7606:7612   */\n      dup3\n        /* \"#utility.yul\":7603:7617   */\n      lt\n        /* \"#utility.yul\":7583:7601   */\n      dup2\n        /* \"#utility.yul\":7580:7618   */\n      sub\n        /* \"#utility.yul\":7577:7661   */\n      tag_205\n      jumpi\n        /* \"#utility.yul\":7633:7651   */\n      tag_206\n      tag_133\n      jump\t// in\n    tag_206:\n        /* \"#utility.yul\":7577:7661   */\n    tag_205:\n        /* \"#utility.yul\":7398:7667   */\n      pop\n        /* \"#utility.yul\":7347:7667   */\n      swap2\n      swap1\n      pop\n      jump\t// out\n        /* \"#utility.yul\":7673:7791   */\n    tag_134:\n        /* \"#utility.yul\":7760:7784   */\n      tag_208\n        /* \"#utility.yul\":7778:7783   */\n      dup2\n        /* \"#utility.yul\":7760:7784   */\n      tag_116\n      jump\t// in\n    tag_208:\n        /* \"#utility.yul\":7755:7758   */\n      dup3\n        /* \"#utility.yul\":7748:7785   */\n      mstore\n        /* \"#utility.yul\":7673:7791   */\n      pop\n      pop\n      jump\t// out\n        /* \"#utility.yul\":7797:7914   */\n    tag_135:\n        /* \"#utility.yul\":7882:7883   */\n      0x02\n        /* \"#utility.yul\":7875:7880   */\n      dup2\n        /* \"#utility.yul\":7872:7884   */\n      lt\n        /* \"#utility.yul\":7862:7908   */\n      tag_210\n      jumpi\n        /* \"#utility.yul\":7888:7906   */\n      tag_211\n      tag_35\n      jump\t// in\n    tag_211:\n        /* \"#utility.yul\":7862:7908   */\n    tag_210:\n        /* \"#utility.yul\":7797:7914   */\n      pop\n      jump\t// out\n        /* \"#utility.yul\":7920:8055   */\n    tag_136:\n        /* \"#utility.yul\":7969:7976   */\n      0x00\n        /* \"#utility.yul\":7998:8003   */\n      dup2\n        /* \"#utility.yul\":7987:8003   */\n      swap1\n      pop\n        /* \"#utility.yul\":8004:8049   */\n      tag_213\n        /* \"#utility.yul\":8043:8048   */\n      dup3\n        /* \"#utility.yul\":8004:8049   */\n      tag_135\n      jump\t// in\n    tag_213:\n        /* \"#utility.yul\":7920:8055   */\n      swap2\n      swap1\n      pop\n      jump\t// out\n        /* \"#utility.yul\":8061:8196   */\n    tag_137:\n        /* \"#utility.yul\":8121:8130   */\n      0x00\n        /* \"#utility.yul\":8154:8190   */\n      tag_215\n        /* \"#utility.yul\":8184:8189   */\n      dup3\n        /* \"#utility.yul\":8154:8190   */\n      tag_136\n      jump\t// in\n    tag_215:\n        /* \"#utility.yul\":8141:8190   */\n      swap1\n      pop\n        /* \"#utility.yul\":8061:8196   */\n      swap2\n      swap1\n      pop\n      jump\t// out\n        /* \"#utility.yul\":8202:8353   */\n    tag_138:\n        /* \"#utility.yul\":8299:8346   */\n      tag_217\n        /* \"#utility.yul\":8340:8345   */\n      dup2\n        /* \"#utility.yul\":8299:8346   */\n      tag_137\n      jump\t// in\n    tag_217:\n        /* \"#utility.yul\":8294:8297   */\n      dup3\n        /* \"#utility.yul\":8287:8347   */\n      mstore\n        /* \"#utility.yul\":8202:8353   */\n      pop\n      pop\n      jump\t// out\n        /* \"#utility.yul\":8359:8711   */\n    tag_83:\n        /* \"#utility.yul\":8490:8494   */\n      0x00\n        /* \"#utility.yul\":8528:8530   */\n      0x40\n        /* \"#utility.yul\":8517:8526   */\n      dup3\n        /* \"#utility.yul\":8513:8531   */\n      add\n        /* \"#utility.yul\":8505:8531   */\n      swap1\n      pop\n        /* \"#utility.yul\":8541:8612   */\n      tag_219\n        /* \"#utility.yul\":8609:8610   */\n      0x00\n        /* \"#utility.yul\":8598:8607   */\n      dup4\n        /* \"#utility.yul\":8594:8611   */\n      add\n        /* \"#utility.yul\":8585:8591   */\n      dup6\n        /* \"#utility.yul\":8541:8612   */\n      tag_134\n      jump\t// in\n    tag_219:\n        /* \"#utility.yul\":8622:8704   */\n      tag_220\n        /* \"#utility.yul\":8700:8702   */\n      0x20\n        /* \"#utility.yul\":8689:8698   */\n      dup4\n        /* \"#utility.yul\":8685:8703   */\n      add\n        /* \"#utility.yul\":8676:8682   */\n      dup5\n        /* \"#utility.yul\":8622:8704   */\n      tag_138\n      jump\t// in\n    tag_220:\n        /* \"#utility.yul\":8359:8711   */\n      swap4\n      swap3\n      pop\n      pop\n      pop\n      jump\t// out\n\n    auxdata: 0xa2646970667358221220abc3fe996ad6fe6bbd9b06c66b30cbbe0ce4954c2c25c67dfa6ebd2319bc02b064736f6c63430008120033\n}\n",
				"bytecode": {
					"linkReferences": {},
					"object": "60806040523480156200001157600080fd5b5060405162001539380380620015398339818101604052810190620000379190620002d5565b604051806040016040528085815260200184815250600080820151816000019081620000649190620005e5565b5060208201518160010190816200007c9190620005e5565b509050506040518060400160405280838152602001828152506002600082015181600001556020820151816001019081620000b89190620005e5565b5090505033600460006101000a81548173ffffffffffffffffffffffffffffffffffffffff021916908373ffffffffffffffffffffffffffffffffffffffff16021790555050505050620006cc565b6000604051905090565b600080fd5b600080fd5b600080fd5b600080fd5b6000601f19601f8301169050919050565b7f4e487b7100000000000000000000000000000000000000000000000000000000600052604160045260246000fd5b620001708262000125565b810181811067ffffffffffffffff8211171562000192576200019162000136565b5b80604052505050565b6000620001a762000107565b9050620001b5828262000165565b919050565b600067ffffffffffffffff821115620001d857620001d762000136565b5b620001e38262000125565b9050602081019050919050565b60005b8381101562000210578082015181840152602081019050620001f3565b60008484015250505050565b6000620002336200022d84620001ba565b6200019b565b90508281526020810184848401111562000252576200025162000120565b5b6200025f848285620001f0565b509392505050565b600082601f8301126200027f576200027e6200011b565b5b8151620002918482602086016200021c565b91505092915050565b6000819050919050565b620002af816200029a565b8114620002bb57600080fd5b50565b600081519050620002cf81620002a4565b92915050565b60008060008060808587031215620002f257620002f162000111565b5b600085015167ffffffffffffffff81111562000313576200031262000116565b5b620003218782880162000267565b945050602085015167ffffffffffffffff81111562000345576200034462000116565b5b620003538782880162000267565b93505060406200036687828801620002be565b925050606085015167ffffffffffffffff8111156200038a576200038962000116565b5b620003988782880162000267565b91505092959194509250565b600081519050919050565b7f4e487b7100000000000000000000000000000000000000000000000000000000600052602260045260246000fd5b60006002820490506001821680620003f757607f821691505b6020821081036200040d576200040c620003af565b5b50919050565b60008190508160005260206000209050919050565b60006020601f8301049050919050565b600082821b905092915050565b600060088302620004777fffffffffffffffffffffffffffffffffffffffffffffffffffffffffffffffff8262000438565b62000483868362000438565b95508019841693508086168417925050509392505050565b6000819050919050565b6000620004c6620004c0620004ba846200029a565b6200049b565b6200029a565b9050919050565b6000819050919050565b620004e283620004a5565b620004fa620004f182620004cd565b84845462000445565b825550505050565b600090565b6200051162000502565b6200051e818484620004d7565b505050565b5b8181101562000546576200053a60008262000507565b60018101905062000524565b5050565b601f82111562000595576200055f8162000413565b6200056a8462000428565b810160208510156200057a578190505b62000592620005898562000428565b83018262000523565b50505b505050565b600082821c905092915050565b6000620005ba600019846008026200059a565b1980831691505092915050565b6000620005d58383620005a7565b9150826002028217905092915050565b620005f082620003a4565b67ffffffffffffffff8111156200060c576200060b62000136565b5b620006188254620003de565b620006258282856200054a565b600060209050601f8311600181146200065d576000841562000648578287015190505b620006548582620005c7565b865550620006c4565b601f1984166200066d8662000413565b60005b82811015620006975784890151825560018201915060208501945060208101905062000670565b86831015620006b75784890151620006b3601f891682620005a7565b8355505b6001600288020188555050505b505050505050565b610e5d80620006dc6000396000f3fe608060405234801561001057600080fd5b50600436106100575760003560e01c806313d67e351461005c5780632335c76b146100785780638cf36edc14610082578063a87430ba146100a0578063c4f0d067146100d0575b600080fd5b61007660048036038101906100719190610a8a565b6100ee565b005b610080610290565b005b61008a6102ea565b6040516100979190610b9e565b60405180910390f35b6100ba60048036038101906100b59190610bc0565b6106d4565b6040516100c79190610c08565b60405180910390f35b6100d86106f4565b6040516100e59190610c79565b60405180910390f35b600460009054906101000a900473ffffffffffffffffffffffffffffffffffffffff1673ffffffffffffffffffffffffffffffffffffffff163373ffffffffffffffffffffffffffffffffffffffff161461017e576040517f08c379a000000000000000000000000000000000000000000000000000000000815260040161017590610cf8565b60405180910390fd5b6000600181111561019257610191610d18565b5b8260018111156101a5576101a4610d18565b5b03610207576001600660008373ffffffffffffffffffffffffffffffffffffffff1673ffffffffffffffffffffffffffffffffffffffff16815260200190815260200160002060006101000a81548160ff02191690831515021790555061028c565b60018081111561021a57610219610d18565b5b82600181111561022d5761022c610d18565b5b0361028b576001600760008373ffffffffffffffffffffffffffffffffffffffff1673ffffffffffffffffffffffffffffffffffffffff16815260200190815260200160002060006101000a81548160ff0219169083151502179055505b5b5050565b6001600560003373ffffffffffffffffffffffffffffffffffffffff1673ffffffffffffffffffffffffffffffffffffffff16815260200190815260200160002060006101000a81548160ff021916908315150217905550565b6102f26109ce565b6000600460009054906101000a900473ffffffffffffffffffffffffffffffffffffffff1673ffffffffffffffffffffffffffffffffffffffff163373ffffffffffffffffffffffffffffffffffffffff1614806103995750600760003373ffffffffffffffffffffffffffffffffffffffff1673ffffffffffffffffffffffffffffffffffffffff16815260200190815260200160002060009054906101000a900460ff165b156104d65760006040518060400160405290816000820180546103bb90610d76565b80601f01602080910402602001604051908101604052809291908181526020018280546103e790610d76565b80156104345780601f1061040957610100808354040283529160200191610434565b820191906000526020600020905b81548152906001019060200180831161041757829003601f168201915b5050505050815260200160018201805461044d90610d76565b80601f016020809104026020016040519081016040528092919081815260200182805461047990610d76565b80156104c65780601f1061049b576101008083540402835291602001916104c6565b820191906000526020600020905b8154815290600101906020018083116104a957829003601f168201915b50505050508152505091506106d0565b600060018111156104ea576104e9610d18565b5b8160018111156104fd576104fc610d18565b5b1480156105535750600660003373ffffffffffffffffffffffffffffffffffffffff1673ffffffffffffffffffffffffffffffffffffffff16815260200190815260200160002060009054906101000a900460ff165b1561069057600060405180604001604052908160008201805461057590610d76565b80601f01602080910402602001604051908101604052809291908181526020018280546105a190610d76565b80156105ee5780601f106105c3576101008083540402835291602001916105ee565b820191906000526020600020905b8154815290600101906020018083116105d157829003601f168201915b5050505050815260200160018201805461060790610d76565b80601f016020809104026020016040519081016040528092919081815260200182805461063390610d76565b80156106805780601f1061065557610100808354040283529160200191610680565b820191906000526020600020905b81548152906001019060200180831161066357829003601f168201915b50505050508152505091506106cf565b33816040517f54e896ee0000000000000000000000000000000000000000000000000000000081526004016106c6929190610dfe565b60405180910390fd5b5b5090565b60056020528060005260406000206000915054906101000a900460ff1681565b6106fc6109e8565b6001600460009054906101000a900473ffffffffffffffffffffffffffffffffffffffff1673ffffffffffffffffffffffffffffffffffffffff163373ffffffffffffffffffffffffffffffffffffffff1614806107a35750600760003373ffffffffffffffffffffffffffffffffffffffff1673ffffffffffffffffffffffffffffffffffffffff16815260200190815260200160002060009054906101000a900460ff165b15610858576002604051806040016040529081600082015481526020016001820180546107cf90610d76565b80601f01602080910402602001604051908101604052809291908181526020018280546107fb90610d76565b80156108485780601f1061081d57610100808354040283529160200191610848565b820191906000526020600020905b81548152906001019060200180831161082b57829003601f168201915b50505050508152505091506109ca565b6000600181111561086c5761086b610d18565b5b81600181111561087f5761087e610d18565b5b1480156108d55750600660003373ffffffffffffffffffffffffffffffffffffffff1673ffffffffffffffffffffffffffffffffffffffff16815260200190815260200160002060009054906101000a900460ff165b1561098a5760026040518060400160405290816000820154815260200160018201805461090190610d76565b80601f016020809104026020016040519081016040528092919081815260200182805461092d90610d76565b801561097a5780601f1061094f5761010080835404028352916020019161097a565b820191906000526020600020905b81548152906001019060200180831161095d57829003601f168201915b50505050508152505091506109c9565b33816040517f54e896ee0000000000000000000000000000000000000000000000000000000081526004016109c0929190610dfe565b60405180910390fd5b5b5090565b604051806040016040528060608152602001606081525090565b604051806040016040528060008152602001606081525090565b600080fd5b60028110610a1457600080fd5b50565b600081359050610a2681610a07565b92915050565b600073ffffffffffffffffffffffffffffffffffffffff82169050919050565b6000610a5782610a2c565b9050919050565b610a6781610a4c565b8114610a7257600080fd5b50565b600081359050610a8481610a5e565b92915050565b60008060408385031215610aa157610aa0610a02565b5b6000610aaf85828601610a17565b9250506020610ac085828601610a75565b9150509250929050565b600081519050919050565b600082825260208201905092915050565b60005b83811015610b04578082015181840152602081019050610ae9565b60008484015250505050565b6000601f19601f8301169050919050565b6000610b2c82610aca565b610b368185610ad5565b9350610b46818560208601610ae6565b610b4f81610b10565b840191505092915050565b60006040830160008301518482036000860152610b778282610b21565b91505060208301518482036020860152610b918282610b21565b9150508091505092915050565b60006020820190508181036000830152610bb88184610b5a565b905092915050565b600060208284031215610bd657610bd5610a02565b5b6000610be484828501610a75565b91505092915050565b60008115159050919050565b610c0281610bed565b82525050565b6000602082019050610c1d6000830184610bf9565b92915050565b6000819050919050565b610c3681610c23565b82525050565b6000604083016000830151610c546000860182610c2d565b5060208301518482036020860152610c6c8282610b21565b9150508091505092915050565b60006020820190508181036000830152610c938184610c3c565b905092915050565b600082825260208201905092915050565b7f4f6e6c79206f776e65722063616e20617574686f72697a652075736572730000600082015250565b6000610ce2601e83610c9b565b9150610ced82610cac565b602082019050919050565b60006020820190508181036000830152610d1181610cd5565b9050919050565b7f4e487b7100000000000000000000000000000000000000000000000000000000600052602160045260246000fd5b7f4e487b7100000000000000000000000000000000000000000000000000000000600052602260045260246000fd5b60006002820490506001821680610d8e57607f821691505b602082108103610da157610da0610d47565b5b50919050565b610db081610a4c565b82525050565b60028110610dc757610dc6610d18565b5b50565b6000819050610dd882610db6565b919050565b6000610de882610dca565b9050919050565b610df881610ddd565b82525050565b6000604082019050610e136000830185610da7565b610e206020830184610def565b939250505056fea2646970667358221220abc3fe996ad6fe6bbd9b06c66b30cbbe0ce4954c2c25c67dfa6ebd2319bc02b064736f6c63430008120033",
					"opcodes": "PUSH1 0x80 PUSH1 0x40 MSTORE CALLVALUE DUP1 ISZERO PUSH3 0x11 JUMPI PUSH1 0x0 DUP1 REVERT JUMPDEST POP PUSH1 0x40 MLOAD PUSH3 0x1539 CODESIZE SUB DUP1 PUSH3 0x1539 DUP4 CODECOPY DUP2 DUP2 ADD PUSH1 0x40 MSTORE DUP2 ADD SWAP1 PUSH3 0x37 SWAP2 SWAP1 PUSH3 0x2D5 JUMP JUMPDEST PUSH1 0x40 MLOAD DUP1 PUSH1 0x40 ADD PUSH1 0x40 MSTORE DUP1 DUP6 DUP2 MSTORE PUSH1 0x20 ADD DUP5 DUP2 MSTORE POP PUSH1 0x0 DUP1 DUP3 ADD MLOAD DUP2 PUSH1 0x0 ADD SWAP1 DUP2 PUSH3 0x64 SWAP2 SWAP1 PUSH3 0x5E5 JUMP JUMPDEST POP PUSH1 0x20 DUP3 ADD MLOAD DUP2 PUSH1 0x1 ADD SWAP1 DUP2 PUSH3 0x7C SWAP2 SWAP1 PUSH3 0x5E5 JUMP JUMPDEST POP SWAP1 POP POP PUSH1 0x40 MLOAD DUP1 PUSH1 0x40 ADD PUSH1 0x40 MSTORE DUP1 DUP4 DUP2 MSTORE PUSH1 0x20 ADD DUP3 DUP2 MSTORE POP PUSH1 0x2 PUSH1 0x0 DUP3 ADD MLOAD DUP2 PUSH1 0x0 ADD SSTORE PUSH1 0x20 DUP3 ADD MLOAD DUP2 PUSH1 0x1 ADD SWAP1 DUP2 PUSH3 0xB8 SWAP2 SWAP1 PUSH3 0x5E5 JUMP JUMPDEST POP SWAP1 POP POP CALLER PUSH1 0x4 PUSH1 0x0 PUSH2 0x100 EXP DUP2 SLOAD DUP2 PUSH20 0xFFFFFFFFFFFFFFFFFFFFFFFFFFFFFFFFFFFFFFFF MUL NOT AND SWAP1 DUP4 PUSH20 0xFFFFFFFFFFFFFFFFFFFFFFFFFFFFFFFFFFFFFFFF AND MUL OR SWAP1 SSTORE POP POP POP POP POP PUSH3 0x6CC JUMP JUMPDEST PUSH1 0x0 PUSH1 0x40 MLOAD SWAP1 POP SWAP1 JUMP JUMPDEST PUSH1 0x0 DUP1 REVERT JUMPDEST PUSH1 0x0 DUP1 REVERT JUMPDEST PUSH1 0x0 DUP1 REVERT JUMPDEST PUSH1 0x0 DUP1 REVERT JUMPDEST PUSH1 0x0 PUSH1 0x1F NOT PUSH1 0x1F DUP4 ADD AND SWAP1 POP SWAP2 SWAP1 POP JUMP JUMPDEST PUSH32 0x4E487B7100000000000000000000000000000000000000000000000000000000 PUSH1 0x0 MSTORE PUSH1 0x41 PUSH1 0x4 MSTORE PUSH1 0x24 PUSH1 0x0 REVERT JUMPDEST PUSH3 0x170 DUP3 PUSH3 0x125 JUMP JUMPDEST DUP2 ADD DUP2 DUP2 LT PUSH8 0xFFFFFFFFFFFFFFFF DUP3 GT OR ISZERO PUSH3 0x192 JUMPI PUSH3 0x191 PUSH3 0x136 JUMP JUMPDEST JUMPDEST DUP1 PUSH1 0x40 MSTORE POP POP POP JUMP JUMPDEST PUSH1 0x0 PUSH3 0x1A7 PUSH3 0x107 JUMP JUMPDEST SWAP1 POP PUSH3 0x1B5 DUP3 DUP3 PUSH3 0x165 JUMP JUMPDEST SWAP2 SWAP1 POP JUMP JUMPDEST PUSH1 0x0 PUSH8 0xFFFFFFFFFFFFFFFF DUP3 GT ISZERO PUSH3 0x1D8 JUMPI PUSH3 0x1D7 PUSH3 0x136 JUMP JUMPDEST JUMPDEST PUSH3 0x1E3 DUP3 PUSH3 0x125 JUMP JUMPDEST SWAP1 POP PUSH1 0x20 DUP2 ADD SWAP1 POP SWAP2 SWAP1 POP JUMP JUMPDEST PUSH1 0x0 JUMPDEST DUP4 DUP2 LT ISZERO PUSH3 0x210 JUMPI DUP1 DUP3 ADD MLOAD DUP2 DUP5 ADD MSTORE PUSH1 0x20 DUP2 ADD SWAP1 POP PUSH3 0x1F3 JUMP JUMPDEST PUSH1 0x0 DUP5 DUP5 ADD MSTORE POP POP POP POP JUMP JUMPDEST PUSH1 0x0 PUSH3 0x233 PUSH3 0x22D DUP5 PUSH3 0x1BA JUMP JUMPDEST PUSH3 0x19B JUMP JUMPDEST SWAP1 POP DUP3 DUP2 MSTORE PUSH1 0x20 DUP2 ADD DUP5 DUP5 DUP5 ADD GT ISZERO PUSH3 0x252 JUMPI PUSH3 0x251 PUSH3 0x120 JUMP JUMPDEST JUMPDEST PUSH3 0x25F DUP5 DUP3 DUP6 PUSH3 0x1F0 JUMP JUMPDEST POP SWAP4 SWAP3 POP POP POP JUMP JUMPDEST PUSH1 0x0 DUP3 PUSH1 0x1F DUP4 ADD SLT PUSH3 0x27F JUMPI PUSH3 0x27E PUSH3 0x11B JUMP JUMPDEST JUMPDEST DUP2 MLOAD PUSH3 0x291 DUP5 DUP3 PUSH1 0x20 DUP7 ADD PUSH3 0x21C JUMP JUMPDEST SWAP2 POP POP SWAP3 SWAP2 POP POP JUMP JUMPDEST PUSH1 0x0 DUP2 SWAP1 POP SWAP2 SWAP1 POP JUMP JUMPDEST PUSH3 0x2AF DUP2 PUSH3 0x29A JUMP JUMPDEST DUP2 EQ PUSH3 0x2BB JUMPI PUSH1 0x0 DUP1 REVERT JUMPDEST POP JUMP JUMPDEST PUSH1 0x0 DUP2 MLOAD SWAP1 POP PUSH3 0x2CF DUP2 PUSH3 0x2A4 JUMP JUMPDEST SWAP3 SWAP2 POP POP JUMP JUMPDEST PUSH1 0x0 DUP1 PUSH1 0x0 DUP1 PUSH1 0x80 DUP6 DUP8 SUB SLT ISZERO PUSH3 0x2F2 JUMPI PUSH3 0x2F1 PUSH3 0x111 JUMP JUMPDEST JUMPDEST PUSH1 0x0 DUP6 ADD MLOAD PUSH8 0xFFFFFFFFFFFFFFFF DUP2 GT ISZERO PUSH3 0x313 JUMPI PUSH3 0x312 PUSH3 0x116 JUMP JUMPDEST JUMPDEST PUSH3 0x321 DUP8 DUP3 DUP9 ADD PUSH3 0x267 JUMP JUMPDEST SWAP5 POP POP PUSH1 0x20 DUP6 ADD MLOAD PUSH8 0xFFFFFFFFFFFFFFFF DUP2 GT ISZERO PUSH3 0x345 JUMPI PUSH3 0x344 PUSH3 0x116 JUMP JUMPDEST JUMPDEST PUSH3 0x353 DUP8 DUP3 DUP9 ADD PUSH3 0x267 JUMP JUMPDEST SWAP4 POP POP PUSH1 0x40 PUSH3 0x366 DUP8 DUP3 DUP9 ADD PUSH3 0x2BE JUMP JUMPDEST SWAP3 POP POP PUSH1 0x60 DUP6 ADD MLOAD PUSH8 0xFFFFFFFFFFFFFFFF DUP2 GT ISZERO PUSH3 0x38A JUMPI PUSH3 0x389 PUSH3 0x116 JUMP JUMPDEST JUMPDEST PUSH3 0x398 DUP8 DUP3 DUP9 ADD PUSH3 0x267 JUMP JUMPDEST SWAP2 POP POP SWAP3 SWAP6 SWAP2 SWAP5 POP SWAP3 POP JUMP JUMPDEST PUSH1 0x0 DUP2 MLOAD SWAP1 POP SWAP2 SWAP1 POP JUMP JUMPDEST PUSH32 0x4E487B7100000000000000000000000000000000000000000000000000000000 PUSH1 0x0 MSTORE PUSH1 0x22 PUSH1 0x4 MSTORE PUSH1 0x24 PUSH1 0x0 REVERT JUMPDEST PUSH1 0x0 PUSH1 0x2 DUP3 DIV SWAP1 POP PUSH1 0x1 DUP3 AND DUP1 PUSH3 0x3F7 JUMPI PUSH1 0x7F DUP3 AND SWAP2 POP JUMPDEST PUSH1 0x20 DUP3 LT DUP2 SUB PUSH3 0x40D JUMPI PUSH3 0x40C PUSH3 0x3AF JUMP JUMPDEST JUMPDEST POP SWAP2 SWAP1 POP JUMP JUMPDEST PUSH1 0x0 DUP2 SWAP1 POP DUP2 PUSH1 0x0 MSTORE PUSH1 0x20 PUSH1 0x0 KECCAK256 SWAP1 POP SWAP2 SWAP1 POP JUMP JUMPDEST PUSH1 0x0 PUSH1 0x20 PUSH1 0x1F DUP4 ADD DIV SWAP1 POP SWAP2 SWAP1 POP JUMP JUMPDEST PUSH1 0x0 DUP3 DUP3 SHL SWAP1 POP SWAP3 SWAP2 POP POP JUMP JUMPDEST PUSH1 0x0 PUSH1 0x8 DUP4 MUL PUSH3 0x477 PUSH32 0xFFFFFFFFFFFFFFFFFFFFFFFFFFFFFFFFFFFFFFFFFFFFFFFFFFFFFFFFFFFFFFFF DUP3 PUSH3 0x438 JUMP JUMPDEST PUSH3 0x483 DUP7 DUP4 PUSH3 0x438 JUMP JUMPDEST SWAP6 POP DUP1 NOT DUP5 AND SWAP4 POP DUP1 DUP7 AND DUP5 OR SWAP3 POP POP POP SWAP4 SWAP3 POP POP POP JUMP JUMPDEST PUSH1 0x0 DUP2 SWAP1 POP SWAP2 SWAP1 POP JUMP JUMPDEST PUSH1 0x0 PUSH3 0x4C6 PUSH3 0x4C0 PUSH3 0x4BA DUP5 PUSH3 0x29A JUMP JUMPDEST PUSH3 0x49B JUMP JUMPDEST PUSH3 0x29A JUMP JUMPDEST SWAP1 POP SWAP2 SWAP1 POP JUMP JUMPDEST PUSH1 0x0 DUP2 SWAP1 POP SWAP2 SWAP1 POP JUMP JUMPDEST PUSH3 0x4E2 DUP4 PUSH3 0x4A5 JUMP JUMPDEST PUSH3 0x4FA PUSH3 0x4F1 DUP3 PUSH3 0x4CD JUMP JUMPDEST DUP5 DUP5 SLOAD PUSH3 0x445 JUMP JUMPDEST DUP3 SSTORE POP POP POP POP JUMP JUMPDEST PUSH1 0x0 SWAP1 JUMP JUMPDEST PUSH3 0x511 PUSH3 0x502 JUMP JUMPDEST PUSH3 0x51E DUP2 DUP5 DUP5 PUSH3 0x4D7 JUMP JUMPDEST POP POP POP JUMP JUMPDEST JUMPDEST DUP2 DUP2 LT ISZERO PUSH3 0x546 JUMPI PUSH3 0x53A PUSH1 0x0 DUP3 PUSH3 0x507 JUMP JUMPDEST PUSH1 0x1 DUP2 ADD SWAP1 POP PUSH3 0x524 JUMP JUMPDEST POP POP JUMP JUMPDEST PUSH1 0x1F DUP3 GT ISZERO PUSH3 0x595 JUMPI PUSH3 0x55F DUP2 PUSH3 0x413 JUMP JUMPDEST PUSH3 0x56A DUP5 PUSH3 0x428 JUMP JUMPDEST DUP2 ADD PUSH1 0x20 DUP6 LT ISZERO PUSH3 0x57A JUMPI DUP2 SWAP1 POP JUMPDEST PUSH3 0x592 PUSH3 0x589 DUP6 PUSH3 0x428 JUMP JUMPDEST DUP4 ADD DUP3 PUSH3 0x523 JUMP JUMPDEST POP POP JUMPDEST POP POP POP JUMP JUMPDEST PUSH1 0x0 DUP3 DUP3 SHR SWAP1 POP SWAP3 SWAP2 POP POP JUMP JUMPDEST PUSH1 0x0 PUSH3 0x5BA PUSH1 0x0 NOT DUP5 PUSH1 0x8 MUL PUSH3 0x59A JUMP JUMPDEST NOT DUP1 DUP4 AND SWAP2 POP POP SWAP3 SWAP2 POP POP JUMP JUMPDEST PUSH1 0x0 PUSH3 0x5D5 DUP4 DUP4 PUSH3 0x5A7 JUMP JUMPDEST SWAP2 POP DUP3 PUSH1 0x2 MUL DUP3 OR SWAP1 POP SWAP3 SWAP2 POP POP JUMP JUMPDEST PUSH3 0x5F0 DUP3 PUSH3 0x3A4 JUMP JUMPDEST PUSH8 0xFFFFFFFFFFFFFFFF DUP2 GT ISZERO PUSH3 0x60C JUMPI PUSH3 0x60B PUSH3 0x136 JUMP JUMPDEST JUMPDEST PUSH3 0x618 DUP3 SLOAD PUSH3 0x3DE JUMP JUMPDEST PUSH3 0x625 DUP3 DUP3 DUP6 PUSH3 0x54A JUMP JUMPDEST PUSH1 0x0 PUSH1 0x20 SWAP1 POP PUSH1 0x1F DUP4 GT PUSH1 0x1 DUP2 EQ PUSH3 0x65D JUMPI PUSH1 0x0 DUP5 ISZERO PUSH3 0x648 JUMPI DUP3 DUP8 ADD MLOAD SWAP1 POP JUMPDEST PUSH3 0x654 DUP6 DUP3 PUSH3 0x5C7 JUMP JUMPDEST DUP7 SSTORE POP PUSH3 0x6C4 JUMP JUMPDEST PUSH1 0x1F NOT DUP5 AND PUSH3 0x66D DUP7 PUSH3 0x413 JUMP JUMPDEST PUSH1 0x0 JUMPDEST DUP3 DUP2 LT ISZERO PUSH3 0x697 JUMPI DUP5 DUP10 ADD MLOAD DUP3 SSTORE PUSH1 0x1 DUP3 ADD SWAP2 POP PUSH1 0x20 DUP6 ADD SWAP5 POP PUSH1 0x20 DUP2 ADD SWAP1 POP PUSH3 0x670 JUMP JUMPDEST DUP7 DUP4 LT ISZERO PUSH3 0x6B7 JUMPI DUP5 DUP10 ADD MLOAD PUSH3 0x6B3 PUSH1 0x1F DUP10 AND DUP3 PUSH3 0x5A7 JUMP JUMPDEST DUP4 SSTORE POP JUMPDEST PUSH1 0x1 PUSH1 0x2 DUP9 MUL ADD DUP9 SSTORE POP POP POP JUMPDEST POP POP POP POP POP POP JUMP JUMPDEST PUSH2 0xE5D DUP1 PUSH3 0x6DC PUSH1 0x0 CODECOPY PUSH1 0x0 RETURN INVALID PUSH1 0x80 PUSH1 0x40 MSTORE CALLVALUE DUP1 ISZERO PUSH2 0x10 JUMPI PUSH1 0x0 DUP1 REVERT JUMPDEST POP PUSH1 0x4 CALLDATASIZE LT PUSH2 0x57 JUMPI PUSH1 0x0 CALLDATALOAD PUSH1 0xE0 SHR DUP1 PUSH4 0x13D67E35 EQ PUSH2 0x5C JUMPI DUP1 PUSH4 0x2335C76B EQ PUSH2 0x78 JUMPI DUP1 PUSH4 0x8CF36EDC EQ PUSH2 0x82 JUMPI DUP1 PUSH4 0xA87430BA EQ PUSH2 0xA0 JUMPI DUP1 PUSH4 0xC4F0D067 EQ PUSH2 0xD0 JUMPI JUMPDEST PUSH1 0x0 DUP1 REVERT JUMPDEST PUSH2 0x76 PUSH1 0x4 DUP1 CALLDATASIZE SUB DUP2 ADD SWAP1 PUSH2 0x71 SWAP2 SWAP1 PUSH2 0xA8A JUMP JUMPDEST PUSH2 0xEE JUMP JUMPDEST STOP JUMPDEST PUSH2 0x80 PUSH2 0x290 JUMP JUMPDEST STOP JUMPDEST PUSH2 0x8A PUSH2 0x2EA JUMP JUMPDEST PUSH1 0x40 MLOAD PUSH2 0x97 SWAP2 SWAP1 PUSH2 0xB9E JUMP JUMPDEST PUSH1 0x40 MLOAD DUP1 SWAP2 SUB SWAP1 RETURN JUMPDEST PUSH2 0xBA PUSH1 0x4 DUP1 CALLDATASIZE SUB DUP2 ADD SWAP1 PUSH2 0xB5 SWAP2 SWAP1 PUSH2 0xBC0 JUMP JUMPDEST PUSH2 0x6D4 JUMP JUMPDEST PUSH1 0x40 MLOAD PUSH2 0xC7 SWAP2 SWAP1 PUSH2 0xC08 JUMP JUMPDEST PUSH1 0x40 MLOAD DUP1 SWAP2 SUB SWAP1 RETURN JUMPDEST PUSH2 0xD8 PUSH2 0x6F4 JUMP JUMPDEST PUSH1 0x40 MLOAD PUSH2 0xE5 SWAP2 SWAP1 PUSH2 0xC79 JUMP JUMPDEST PUSH1 0x40 MLOAD DUP1 SWAP2 SUB SWAP1 RETURN JUMPDEST PUSH1 0x4 PUSH1 0x0 SWAP1 SLOAD SWAP1 PUSH2 0x100 EXP SWAP1 DIV PUSH20 0xFFFFFFFFFFFFFFFFFFFFFFFFFFFFFFFFFFFFFFFF AND PUSH20 0xFFFFFFFFFFFFFFFFFFFFFFFFFFFFFFFFFFFFFFFF AND CALLER PUSH20 0xFFFFFFFFFFFFFFFFFFFFFFFFFFFFFFFFFFFFFFFF AND EQ PUSH2 0x17E JUMPI PUSH1 0x40 MLOAD PUSH32 0x8C379A000000000000000000000000000000000000000000000000000000000 DUP2 MSTORE PUSH1 0x4 ADD PUSH2 0x175 SWAP1 PUSH2 0xCF8 JUMP JUMPDEST PUSH1 0x40 MLOAD DUP1 SWAP2 SUB SWAP1 REVERT JUMPDEST PUSH1 0x0 PUSH1 0x1 DUP2 GT ISZERO PUSH2 0x192 JUMPI PUSH2 0x191 PUSH2 0xD18 JUMP JUMPDEST JUMPDEST DUP3 PUSH1 0x1 DUP2 GT ISZERO PUSH2 0x1A5 JUMPI PUSH2 0x1A4 PUSH2 0xD18 JUMP JUMPDEST JUMPDEST SUB PUSH2 0x207 JUMPI PUSH1 0x1 PUSH1 0x6 PUSH1 0x0 DUP4 PUSH20 0xFFFFFFFFFFFFFFFFFFFFFFFFFFFFFFFFFFFFFFFF AND PUSH20 0xFFFFFFFFFFFFFFFFFFFFFFFFFFFFFFFFFFFFFFFF AND DUP2 MSTORE PUSH1 0x20 ADD SWAP1 DUP2 MSTORE PUSH1 0x20 ADD PUSH1 0x0 KECCAK256 PUSH1 0x0 PUSH2 0x100 EXP DUP2 SLOAD DUP2 PUSH1 0xFF MUL NOT AND SWAP1 DUP4 ISZERO ISZERO MUL OR SWAP1 SSTORE POP PUSH2 0x28C JUMP JUMPDEST PUSH1 0x1 DUP1 DUP2 GT ISZERO PUSH2 0x21A JUMPI PUSH2 0x219 PUSH2 0xD18 JUMP JUMPDEST JUMPDEST DUP3 PUSH1 0x1 DUP2 GT ISZERO PUSH2 0x22D JUMPI PUSH2 0x22C PUSH2 0xD18 JUMP JUMPDEST JUMPDEST SUB PUSH2 0x28B JUMPI PUSH1 0x1 PUSH1 0x7 PUSH1 0x0 DUP4 PUSH20 0xFFFFFFFFFFFFFFFFFFFFFFFFFFFFFFFFFFFFFFFF AND PUSH20 0xFFFFFFFFFFFFFFFFFFFFFFFFFFFFFFFFFFFFFFFF AND DUP2 MSTORE PUSH1 0x20 ADD SWAP1 DUP2 MSTORE PUSH1 0x20 ADD PUSH1 0x0 KECCAK256 PUSH1 0x0 PUSH2 0x100 EXP DUP2 SLOAD DUP2 PUSH1 0xFF MUL NOT AND SWAP1 DUP4 ISZERO ISZERO MUL OR SWAP1 SSTORE POP JUMPDEST JUMPDEST POP POP JUMP JUMPDEST PUSH1 0x1 PUSH1 0x5 PUSH1 0x0 CALLER PUSH20 0xFFFFFFFFFFFFFFFFFFFFFFFFFFFFFFFFFFFFFFFF AND PUSH20 0xFFFFFFFFFFFFFFFFFFFFFFFFFFFFFFFFFFFFFFFF AND DUP2 MSTORE PUSH1 0x20 ADD SWAP1 DUP2 MSTORE PUSH1 0x20 ADD PUSH1 0x0 KECCAK256 PUSH1 0x0 PUSH2 0x100 EXP DUP2 SLOAD DUP2 PUSH1 0xFF MUL NOT AND SWAP1 DUP4 ISZERO ISZERO MUL OR SWAP1 SSTORE POP JUMP JUMPDEST PUSH2 0x2F2 PUSH2 0x9CE JUMP JUMPDEST PUSH1 0x0 PUSH1 0x4 PUSH1 0x0 SWAP1 SLOAD SWAP1 PUSH2 0x100 EXP SWAP1 DIV PUSH20 0xFFFFFFFFFFFFFFFFFFFFFFFFFFFFFFFFFFFFFFFF AND PUSH20 0xFFFFFFFFFFFFFFFFFFFFFFFFFFFFFFFFFFFFFFFF AND CALLER PUSH20 0xFFFFFFFFFFFFFFFFFFFFFFFFFFFFFFFFFFFFFFFF AND EQ DUP1 PUSH2 0x399 JUMPI POP PUSH1 0x7 PUSH1 0x0 CALLER PUSH20 0xFFFFFFFFFFFFFFFFFFFFFFFFFFFFFFFFFFFFFFFF AND PUSH20 0xFFFFFFFFFFFFFFFFFFFFFFFFFFFFFFFFFFFFFFFF AND DUP2 MSTORE PUSH1 0x20 ADD SWAP1 DUP2 MSTORE PUSH1 0x20 ADD PUSH1 0x0 KECCAK256 PUSH1 0x0 SWAP1 SLOAD SWAP1 PUSH2 0x100 EXP SWAP1 DIV PUSH1 0xFF AND JUMPDEST ISZERO PUSH2 0x4D6 JUMPI PUSH1 0x0 PUSH1 0x40 MLOAD DUP1 PUSH1 0x40 ADD PUSH1 0x40 MSTORE SWAP1 DUP2 PUSH1 0x0 DUP3 ADD DUP1 SLOAD PUSH2 0x3BB SWAP1 PUSH2 0xD76 JUMP JUMPDEST DUP1 PUSH1 0x1F ADD PUSH1 0x20 DUP1 SWAP2 DIV MUL PUSH1 0x20 ADD PUSH1 0x40 MLOAD SWAP1 DUP2 ADD PUSH1 0x40 MSTORE DUP1 SWAP3 SWAP2 SWAP1 DUP2 DUP2 MSTORE PUSH1 0x20 ADD DUP3 DUP1 SLOAD PUSH2 0x3E7 SWAP1 PUSH2 0xD76 JUMP JUMPDEST DUP1 ISZERO PUSH2 0x434 JUMPI DUP1 PUSH1 0x1F LT PUSH2 0x409 JUMPI PUSH2 0x100 DUP1 DUP4 SLOAD DIV MUL DUP4 MSTORE SWAP2 PUSH1 0x20 ADD SWAP2 PUSH2 0x434 JUMP JUMPDEST DUP3 ADD SWAP2 SWAP1 PUSH1 0x0 MSTORE PUSH1 0x20 PUSH1 0x0 KECCAK256 SWAP1 JUMPDEST DUP2 SLOAD DUP2 MSTORE SWAP1 PUSH1 0x1 ADD SWAP1 PUSH1 0x20 ADD DUP1 DUP4 GT PUSH2 0x417 JUMPI DUP3 SWAP1 SUB PUSH1 0x1F AND DUP3 ADD SWAP2 JUMPDEST POP POP POP POP POP DUP2 MSTORE PUSH1 0x20 ADD PUSH1 0x1 DUP3 ADD DUP1 SLOAD PUSH2 0x44D SWAP1 PUSH2 0xD76 JUMP JUMPDEST DUP1 PUSH1 0x1F ADD PUSH1 0x20 DUP1 SWAP2 DIV MUL PUSH1 0x20 ADD PUSH1 0x40 MLOAD SWAP1 DUP2 ADD PUSH1 0x40 MSTORE DUP1 SWAP3 SWAP2 SWAP1 DUP2 DUP2 MSTORE PUSH1 0x20 ADD DUP3 DUP1 SLOAD PUSH2 0x479 SWAP1 PUSH2 0xD76 JUMP JUMPDEST DUP1 ISZERO PUSH2 0x4C6 JUMPI DUP1 PUSH1 0x1F LT PUSH2 0x49B JUMPI PUSH2 0x100 DUP1 DUP4 SLOAD DIV MUL DUP4 MSTORE SWAP2 PUSH1 0x20 ADD SWAP2 PUSH2 0x4C6 JUMP JUMPDEST DUP3 ADD SWAP2 SWAP1 PUSH1 0x0 MSTORE PUSH1 0x20 PUSH1 0x0 KECCAK256 SWAP1 JUMPDEST DUP2 SLOAD DUP2 MSTORE SWAP1 PUSH1 0x1 ADD SWAP1 PUSH1 0x20 ADD DUP1 DUP4 GT PUSH2 0x4A9 JUMPI DUP3 SWAP1 SUB PUSH1 0x1F AND DUP3 ADD SWAP2 JUMPDEST POP POP POP POP POP DUP2 MSTORE POP POP SWAP2 POP PUSH2 0x6D0 JUMP JUMPDEST PUSH1 0x0 PUSH1 0x1 DUP2 GT ISZERO PUSH2 0x4EA JUMPI PUSH2 0x4E9 PUSH2 0xD18 JUMP JUMPDEST JUMPDEST DUP2 PUSH1 0x1 DUP2 GT ISZERO PUSH2 0x4FD JUMPI PUSH2 0x4FC PUSH2 0xD18 JUMP JUMPDEST JUMPDEST EQ DUP1 ISZERO PUSH2 0x553 JUMPI POP PUSH1 0x6 PUSH1 0x0 CALLER PUSH20 0xFFFFFFFFFFFFFFFFFFFFFFFFFFFFFFFFFFFFFFFF AND PUSH20 0xFFFFFFFFFFFFFFFFFFFFFFFFFFFFFFFFFFFFFFFF AND DUP2 MSTORE PUSH1 0x20 ADD SWAP1 DUP2 MSTORE PUSH1 0x20 ADD PUSH1 0x0 KECCAK256 PUSH1 0x0 SWAP1 SLOAD SWAP1 PUSH2 0x100 EXP SWAP1 DIV PUSH1 0xFF AND JUMPDEST ISZERO PUSH2 0x690 JUMPI PUSH1 0x0 PUSH1 0x40 MLOAD DUP1 PUSH1 0x40 ADD PUSH1 0x40 MSTORE SWAP1 DUP2 PUSH1 0x0 DUP3 ADD DUP1 SLOAD PUSH2 0x575 SWAP1 PUSH2 0xD76 JUMP JUMPDEST DUP1 PUSH1 0x1F ADD PUSH1 0x20 DUP1 SWAP2 DIV MUL PUSH1 0x20 ADD PUSH1 0x40 MLOAD SWAP1 DUP2 ADD PUSH1 0x40 MSTORE DUP1 SWAP3 SWAP2 SWAP1 DUP2 DUP2 MSTORE PUSH1 0x20 ADD DUP3 DUP1 SLOAD PUSH2 0x5A1 SWAP1 PUSH2 0xD76 JUMP JUMPDEST DUP1 ISZERO PUSH2 0x5EE JUMPI DUP1 PUSH1 0x1F LT PUSH2 0x5C3 JUMPI PUSH2 0x100 DUP1 DUP4 SLOAD DIV MUL DUP4 MSTORE SWAP2 PUSH1 0x20 ADD SWAP2 PUSH2 0x5EE JUMP JUMPDEST DUP3 ADD SWAP2 SWAP1 PUSH1 0x0 MSTORE PUSH1 0x20 PUSH1 0x0 KECCAK256 SWAP1 JUMPDEST DUP2 SLOAD DUP2 MSTORE SWAP1 PUSH1 0x1 ADD SWAP1 PUSH1 0x20 ADD DUP1 DUP4 GT PUSH2 0x5D1 JUMPI DUP3 SWAP1 SUB PUSH1 0x1F AND DUP3 ADD SWAP2 JUMPDEST POP POP POP POP POP DUP2 MSTORE PUSH1 0x20 ADD PUSH1 0x1 DUP3 ADD DUP1 SLOAD PUSH2 0x607 SWAP1 PUSH2 0xD76 JUMP JUMPDEST DUP1 PUSH1 0x1F ADD PUSH1 0x20 DUP1 SWAP2 DIV MUL PUSH1 0x20 ADD PUSH1 0x40 MLOAD SWAP1 DUP2 ADD PUSH1 0x40 MSTORE DUP1 SWAP3 SWAP2 SWAP1 DUP2 DUP2 MSTORE PUSH1 0x20 ADD DUP3 DUP1 SLOAD PUSH2 0x633 SWAP1 PUSH2 0xD76 JUMP JUMPDEST DUP1 ISZERO PUSH2 0x680 JUMPI DUP1 PUSH1 0x1F LT PUSH2 0x655 JUMPI PUSH2 0x100 DUP1 DUP4 SLOAD DIV MUL DUP4 MSTORE SWAP2 PUSH1 0x20 ADD SWAP2 PUSH2 0x680 JUMP JUMPDEST DUP3 ADD SWAP2 SWAP1 PUSH1 0x0 MSTORE PUSH1 0x20 PUSH1 0x0 KECCAK256 SWAP1 JUMPDEST DUP2 SLOAD DUP2 MSTORE SWAP1 PUSH1 0x1 ADD SWAP1 PUSH1 0x20 ADD DUP1 DUP4 GT PUSH2 0x663 JUMPI DUP3 SWAP1 SUB PUSH1 0x1F AND DUP3 ADD SWAP2 JUMPDEST POP POP POP POP POP DUP2 MSTORE POP POP SWAP2 POP PUSH2 0x6CF JUMP JUMPDEST CALLER DUP2 PUSH1 0x40 MLOAD PUSH32 0x54E896EE00000000000000000000000000000000000000000000000000000000 DUP2 MSTORE PUSH1 0x4 ADD PUSH2 0x6C6 SWAP3 SWAP2 SWAP1 PUSH2 0xDFE JUMP JUMPDEST PUSH1 0x40 MLOAD DUP1 SWAP2 SUB SWAP1 REVERT JUMPDEST JUMPDEST POP SWAP1 JUMP JUMPDEST PUSH1 0x5 PUSH1 0x20 MSTORE DUP1 PUSH1 0x0 MSTORE PUSH1 0x40 PUSH1 0x0 KECCAK256 PUSH1 0x0 SWAP2 POP SLOAD SWAP1 PUSH2 0x100 EXP SWAP1 DIV PUSH1 0xFF AND DUP2 JUMP JUMPDEST PUSH2 0x6FC PUSH2 0x9E8 JUMP JUMPDEST PUSH1 0x1 PUSH1 0x4 PUSH1 0x0 SWAP1 SLOAD SWAP1 PUSH2 0x100 EXP SWAP1 DIV PUSH20 0xFFFFFFFFFFFFFFFFFFFFFFFFFFFFFFFFFFFFFFFF AND PUSH20 0xFFFFFFFFFFFFFFFFFFFFFFFFFFFFFFFFFFFFFFFF AND CALLER PUSH20 0xFFFFFFFFFFFFFFFFFFFFFFFFFFFFFFFFFFFFFFFF AND EQ DUP1 PUSH2 0x7A3 JUMPI POP PUSH1 0x7 PUSH1 0x0 CALLER PUSH20 0xFFFFFFFFFFFFFFFFFFFFFFFFFFFFFFFFFFFFFFFF AND PUSH20 0xFFFFFFFFFFFFFFFFFFFFFFFFFFFFFFFFFFFFFFFF AND DUP2 MSTORE PUSH1 0x20 ADD SWAP1 DUP2 MSTORE PUSH1 0x20 ADD PUSH1 0x0 KECCAK256 PUSH1 0x0 SWAP1 SLOAD SWAP1 PUSH2 0x100 EXP SWAP1 DIV PUSH1 0xFF AND JUMPDEST ISZERO PUSH2 0x858 JUMPI PUSH1 0x2 PUSH1 0x40 MLOAD DUP1 PUSH1 0x40 ADD PUSH1 0x40 MSTORE SWAP1 DUP2 PUSH1 0x0 DUP3 ADD SLOAD DUP2 MSTORE PUSH1 0x20 ADD PUSH1 0x1 DUP3 ADD DUP1 SLOAD PUSH2 0x7CF SWAP1 PUSH2 0xD76 JUMP JUMPDEST DUP1 PUSH1 0x1F ADD PUSH1 0x20 DUP1 SWAP2 DIV MUL PUSH1 0x20 ADD PUSH1 0x40 MLOAD SWAP1 DUP2 ADD PUSH1 0x40 MSTORE DUP1 SWAP3 SWAP2 SWAP1 DUP2 DUP2 MSTORE PUSH1 0x20 ADD DUP3 DUP1 SLOAD PUSH2 0x7FB SWAP1 PUSH2 0xD76 JUMP JUMPDEST DUP1 ISZERO PUSH2 0x848 JUMPI DUP1 PUSH1 0x1F LT PUSH2 0x81D JUMPI PUSH2 0x100 DUP1 DUP4 SLOAD DIV MUL DUP4 MSTORE SWAP2 PUSH1 0x20 ADD SWAP2 PUSH2 0x848 JUMP JUMPDEST DUP3 ADD SWAP2 SWAP1 PUSH1 0x0 MSTORE PUSH1 0x20 PUSH1 0x0 KECCAK256 SWAP1 JUMPDEST DUP2 SLOAD DUP2 MSTORE SWAP1 PUSH1 0x1 ADD SWAP1 PUSH1 0x20 ADD DUP1 DUP4 GT PUSH2 0x82B JUMPI DUP3 SWAP1 SUB PUSH1 0x1F AND DUP3 ADD SWAP2 JUMPDEST POP POP POP POP POP DUP2 MSTORE POP POP SWAP2 POP PUSH2 0x9CA JUMP JUMPDEST PUSH1 0x0 PUSH1 0x1 DUP2 GT ISZERO PUSH2 0x86C JUMPI PUSH2 0x86B PUSH2 0xD18 JUMP JUMPDEST JUMPDEST DUP2 PUSH1 0x1 DUP2 GT ISZERO PUSH2 0x87F JUMPI PUSH2 0x87E PUSH2 0xD18 JUMP JUMPDEST JUMPDEST EQ DUP1 ISZERO PUSH2 0x8D5 JUMPI POP PUSH1 0x6 PUSH1 0x0 CALLER PUSH20 0xFFFFFFFFFFFFFFFFFFFFFFFFFFFFFFFFFFFFFFFF AND PUSH20 0xFFFFFFFFFFFFFFFFFFFFFFFFFFFFFFFFFFFFFFFF AND DUP2 MSTORE PUSH1 0x20 ADD SWAP1 DUP2 MSTORE PUSH1 0x20 ADD PUSH1 0x0 KECCAK256 PUSH1 0x0 SWAP1 SLOAD SWAP1 PUSH2 0x100 EXP SWAP1 DIV PUSH1 0xFF AND JUMPDEST ISZERO PUSH2 0x98A JUMPI PUSH1 0x2 PUSH1 0x40 MLOAD DUP1 PUSH1 0x40 ADD PUSH1 0x40 MSTORE SWAP1 DUP2 PUSH1 0x0 DUP3 ADD SLOAD DUP2 MSTORE PUSH1 0x20 ADD PUSH1 0x1 DUP3 ADD DUP1 SLOAD PUSH2 0x901 SWAP1 PUSH2 0xD76 JUMP JUMPDEST DUP1 PUSH1 0x1F ADD PUSH1 0x20 DUP1 SWAP2 DIV MUL PUSH1 0x20 ADD PUSH1 0x40 MLOAD SWAP1 DUP2 ADD PUSH1 0x40 MSTORE DUP1 SWAP3 SWAP2 SWAP1 DUP2 DUP2 MSTORE PUSH1 0x20 ADD DUP3 DUP1 SLOAD PUSH2 0x92D SWAP1 PUSH2 0xD76 JUMP JUMPDEST DUP1 ISZERO PUSH2 0x97A JUMPI DUP1 PUSH1 0x1F LT PUSH2 0x94F JUMPI PUSH2 0x100 DUP1 DUP4 SLOAD DIV MUL DUP4 MSTORE SWAP2 PUSH1 0x20 ADD SWAP2 PUSH2 0x97A JUMP JUMPDEST DUP3 ADD SWAP2 SWAP1 PUSH1 0x0 MSTORE PUSH1 0x20 PUSH1 0x0 KECCAK256 SWAP1 JUMPDEST DUP2 SLOAD DUP2 MSTORE SWAP1 PUSH1 0x1 ADD SWAP1 PUSH1 0x20 ADD DUP1 DUP4 GT PUSH2 0x95D JUMPI DUP3 SWAP1 SUB PUSH1 0x1F AND DUP3 ADD SWAP2 JUMPDEST POP POP POP POP POP DUP2 MSTORE POP POP SWAP2 POP PUSH2 0x9C9 JUMP JUMPDEST CALLER DUP2 PUSH1 0x40 MLOAD PUSH32 0x54E896EE00000000000000000000000000000000000000000000000000000000 DUP2 MSTORE PUSH1 0x4 ADD PUSH2 0x9C0 SWAP3 SWAP2 SWAP1 PUSH2 0xDFE JUMP JUMPDEST PUSH1 0x40 MLOAD DUP1 SWAP2 SUB SWAP1 REVERT JUMPDEST JUMPDEST POP SWAP1 JUMP JUMPDEST PUSH1 0x40 MLOAD DUP1 PUSH1 0x40 ADD PUSH1 0x40 MSTORE DUP1 PUSH1 0x60 DUP2 MSTORE PUSH1 0x20 ADD PUSH1 0x60 DUP2 MSTORE POP SWAP1 JUMP JUMPDEST PUSH1 0x40 MLOAD DUP1 PUSH1 0x40 ADD PUSH1 0x40 MSTORE DUP1 PUSH1 0x0 DUP2 MSTORE PUSH1 0x20 ADD PUSH1 0x60 DUP2 MSTORE POP SWAP1 JUMP JUMPDEST PUSH1 0x0 DUP1 REVERT JUMPDEST PUSH1 0x2 DUP2 LT PUSH2 0xA14 JUMPI PUSH1 0x0 DUP1 REVERT JUMPDEST POP JUMP JUMPDEST PUSH1 0x0 DUP2 CALLDATALOAD SWAP1 POP PUSH2 0xA26 DUP2 PUSH2 0xA07 JUMP JUMPDEST SWAP3 SWAP2 POP POP JUMP JUMPDEST PUSH1 0x0 PUSH20 0xFFFFFFFFFFFFFFFFFFFFFFFFFFFFFFFFFFFFFFFF DUP3 AND SWAP1 POP SWAP2 SWAP1 POP JUMP JUMPDEST PUSH1 0x0 PUSH2 0xA57 DUP3 PUSH2 0xA2C JUMP JUMPDEST SWAP1 POP SWAP2 SWAP1 POP JUMP JUMPDEST PUSH2 0xA67 DUP2 PUSH2 0xA4C JUMP JUMPDEST DUP2 EQ PUSH2 0xA72 JUMPI PUSH1 0x0 DUP1 REVERT JUMPDEST POP JUMP JUMPDEST PUSH1 0x0 DUP2 CALLDATALOAD SWAP1 POP PUSH2 0xA84 DUP2 PUSH2 0xA5E JUMP JUMPDEST SWAP3 SWAP2 POP POP JUMP JUMPDEST PUSH1 0x0 DUP1 PUSH1 0x40 DUP4 DUP6 SUB SLT ISZERO PUSH2 0xAA1 JUMPI PUSH2 0xAA0 PUSH2 0xA02 JUMP JUMPDEST JUMPDEST PUSH1 0x0 PUSH2 0xAAF DUP6 DUP3 DUP7 ADD PUSH2 0xA17 JUMP JUMPDEST SWAP3 POP POP PUSH1 0x20 PUSH2 0xAC0 DUP6 DUP3 DUP7 ADD PUSH2 0xA75 JUMP JUMPDEST SWAP2 POP POP SWAP3 POP SWAP3 SWAP1 POP JUMP JUMPDEST PUSH1 0x0 DUP2 MLOAD SWAP1 POP SWAP2 SWAP1 POP JUMP JUMPDEST PUSH1 0x0 DUP3 DUP3 MSTORE PUSH1 0x20 DUP3 ADD SWAP1 POP SWAP3 SWAP2 POP POP JUMP JUMPDEST PUSH1 0x0 JUMPDEST DUP4 DUP2 LT ISZERO PUSH2 0xB04 JUMPI DUP1 DUP3 ADD MLOAD DUP2 DUP5 ADD MSTORE PUSH1 0x20 DUP2 ADD SWAP1 POP PUSH2 0xAE9 JUMP JUMPDEST PUSH1 0x0 DUP5 DUP5 ADD MSTORE POP POP POP POP JUMP JUMPDEST PUSH1 0x0 PUSH1 0x1F NOT PUSH1 0x1F DUP4 ADD AND SWAP1 POP SWAP2 SWAP1 POP JUMP JUMPDEST PUSH1 0x0 PUSH2 0xB2C DUP3 PUSH2 0xACA JUMP JUMPDEST PUSH2 0xB36 DUP2 DUP6 PUSH2 0xAD5 JUMP JUMPDEST SWAP4 POP PUSH2 0xB46 DUP2 DUP6 PUSH1 0x20 DUP7 ADD PUSH2 0xAE6 JUMP JUMPDEST PUSH2 0xB4F DUP2 PUSH2 0xB10 JUMP JUMPDEST DUP5 ADD SWAP2 POP POP SWAP3 SWAP2 POP POP JUMP JUMPDEST PUSH1 0x0 PUSH1 0x40 DUP4 ADD PUSH1 0x0 DUP4 ADD MLOAD DUP5 DUP3 SUB PUSH1 0x0 DUP7 ADD MSTORE PUSH2 0xB77 DUP3 DUP3 PUSH2 0xB21 JUMP JUMPDEST SWAP2 POP POP PUSH1 0x20 DUP4 ADD MLOAD DUP5 DUP3 SUB PUSH1 0x20 DUP7 ADD MSTORE PUSH2 0xB91 DUP3 DUP3 PUSH2 0xB21 JUMP JUMPDEST SWAP2 POP POP DUP1 SWAP2 POP POP SWAP3 SWAP2 POP POP JUMP JUMPDEST PUSH1 0x0 PUSH1 0x20 DUP3 ADD SWAP1 POP DUP2 DUP2 SUB PUSH1 0x0 DUP4 ADD MSTORE PUSH2 0xBB8 DUP2 DUP5 PUSH2 0xB5A JUMP JUMPDEST SWAP1 POP SWAP3 SWAP2 POP POP JUMP JUMPDEST PUSH1 0x0 PUSH1 0x20 DUP3 DUP5 SUB SLT ISZERO PUSH2 0xBD6 JUMPI PUSH2 0xBD5 PUSH2 0xA02 JUMP JUMPDEST JUMPDEST PUSH1 0x0 PUSH2 0xBE4 DUP5 DUP3 DUP6 ADD PUSH2 0xA75 JUMP JUMPDEST SWAP2 POP POP SWAP3 SWAP2 POP POP JUMP JUMPDEST PUSH1 0x0 DUP2 ISZERO ISZERO SWAP1 POP SWAP2 SWAP1 POP JUMP JUMPDEST PUSH2 0xC02 DUP2 PUSH2 0xBED JUMP JUMPDEST DUP3 MSTORE POP POP JUMP JUMPDEST PUSH1 0x0 PUSH1 0x20 DUP3 ADD SWAP1 POP PUSH2 0xC1D PUSH1 0x0 DUP4 ADD DUP5 PUSH2 0xBF9 JUMP JUMPDEST SWAP3 SWAP2 POP POP JUMP JUMPDEST PUSH1 0x0 DUP2 SWAP1 POP SWAP2 SWAP1 POP JUMP JUMPDEST PUSH2 0xC36 DUP2 PUSH2 0xC23 JUMP JUMPDEST DUP3 MSTORE POP POP JUMP JUMPDEST PUSH1 0x0 PUSH1 0x40 DUP4 ADD PUSH1 0x0 DUP4 ADD MLOAD PUSH2 0xC54 PUSH1 0x0 DUP7 ADD DUP3 PUSH2 0xC2D JUMP JUMPDEST POP PUSH1 0x20 DUP4 ADD MLOAD DUP5 DUP3 SUB PUSH1 0x20 DUP7 ADD MSTORE PUSH2 0xC6C DUP3 DUP3 PUSH2 0xB21 JUMP JUMPDEST SWAP2 POP POP DUP1 SWAP2 POP POP SWAP3 SWAP2 POP POP JUMP JUMPDEST PUSH1 0x0 PUSH1 0x20 DUP3 ADD SWAP1 POP DUP2 DUP2 SUB PUSH1 0x0 DUP4 ADD MSTORE PUSH2 0xC93 DUP2 DUP5 PUSH2 0xC3C JUMP JUMPDEST SWAP1 POP SWAP3 SWAP2 POP POP JUMP JUMPDEST PUSH1 0x0 DUP3 DUP3 MSTORE PUSH1 0x20 DUP3 ADD SWAP1 POP SWAP3 SWAP2 POP POP JUMP JUMPDEST PUSH32 0x4F6E6C79206F776E65722063616E20617574686F72697A652075736572730000 PUSH1 0x0 DUP3 ADD MSTORE POP JUMP JUMPDEST PUSH1 0x0 PUSH2 0xCE2 PUSH1 0x1E DUP4 PUSH2 0xC9B JUMP JUMPDEST SWAP2 POP PUSH2 0xCED DUP3 PUSH2 0xCAC JUMP JUMPDEST PUSH1 0x20 DUP3 ADD SWAP1 POP SWAP2 SWAP1 POP JUMP JUMPDEST PUSH1 0x0 PUSH1 0x20 DUP3 ADD SWAP1 POP DUP2 DUP2 SUB PUSH1 0x0 DUP4 ADD MSTORE PUSH2 0xD11 DUP2 PUSH2 0xCD5 JUMP JUMPDEST SWAP1 POP SWAP2 SWAP1 POP JUMP JUMPDEST PUSH32 0x4E487B7100000000000000000000000000000000000000000000000000000000 PUSH1 0x0 MSTORE PUSH1 0x21 PUSH1 0x4 MSTORE PUSH1 0x24 PUSH1 0x0 REVERT JUMPDEST PUSH32 0x4E487B7100000000000000000000000000000000000000000000000000000000 PUSH1 0x0 MSTORE PUSH1 0x22 PUSH1 0x4 MSTORE PUSH1 0x24 PUSH1 0x0 REVERT JUMPDEST PUSH1 0x0 PUSH1 0x2 DUP3 DIV SWAP1 POP PUSH1 0x1 DUP3 AND DUP1 PUSH2 0xD8E JUMPI PUSH1 0x7F DUP3 AND SWAP2 POP JUMPDEST PUSH1 0x20 DUP3 LT DUP2 SUB PUSH2 0xDA1 JUMPI PUSH2 0xDA0 PUSH2 0xD47 JUMP JUMPDEST JUMPDEST POP SWAP2 SWAP1 POP JUMP JUMPDEST PUSH2 0xDB0 DUP2 PUSH2 0xA4C JUMP JUMPDEST DUP3 MSTORE POP POP JUMP JUMPDEST PUSH1 0x2 DUP2 LT PUSH2 0xDC7 JUMPI PUSH2 0xDC6 PUSH2 0xD18 JUMP JUMPDEST JUMPDEST POP JUMP JUMPDEST PUSH1 0x0 DUP2 SWAP1 POP PUSH2 0xDD8 DUP3 PUSH2 0xDB6 JUMP JUMPDEST SWAP2 SWAP1 POP JUMP JUMPDEST PUSH1 0x0 PUSH2 0xDE8 DUP3 PUSH2 0xDCA JUMP JUMPDEST SWAP1 POP SWAP2 SWAP1 POP JUMP JUMPDEST PUSH2 0xDF8 DUP2 PUSH2 0xDDD JUMP JUMPDEST DUP3 MSTORE POP POP JUMP JUMPDEST PUSH1 0x0 PUSH1 0x40 DUP3 ADD SWAP1 POP PUSH2 0xE13 PUSH1 0x0 DUP4 ADD DUP6 PUSH2 0xDA7 JUMP JUMPDEST PUSH2 0xE20 PUSH1 0x20 DUP4 ADD DUP5 PUSH2 0xDEF JUMP JUMPDEST SWAP4 SWAP3 POP POP POP JUMP INVALID LOG2 PUSH5 0x6970667358 0x22 SLT KECCAK256 0xAB 0xC3 INVALID SWAP10 PUSH11 0xD6FE6BBD9B06C66B30CBBE 0xC 0xE4 SWAP6 0x4C 0x2C 0x25 0xC6 PUSH30 0xFA6EBD2319BC02B064736F6C634300081200330000000000000000000000 "
				},
				"gasEstimates": {
					"creation": {
						"codeDepositCost": "735400",
						"executionCost": "infinite",
						"totalCost": "infinite"
					},
					"external": {
						"authenticator()": "24500",
						"get_basic_info()": "infinite",
						"get_personal_infor()": "infinite",
						"register_user(uint8,address)": "27241",
						"users(address)": "2889"
					}
				},
				"methodIdentifiers": {
					"authenticator()": "2335c76b",
					"get_basic_info()": "8cf36edc",
					"get_personal_infor()": "c4f0d067",
					"register_user(uint8,address)": "13d67e35",
					"users(address)": "a87430ba"
				}
			},
			"storageLayout": {
				"storage": [
					{
						"astId": 17,
						"contract": "contracts/use-cases/authentication_with_privacy_access/mix_contract.sol:authenticate",
						"label": "basic_info0",
						"offset": 0,
						"slot": "0",
						"type": "t_struct(basic_info)6_storage"
					},
					{
						"astId": 20,
						"contract": "contracts/use-cases/authentication_with_privacy_access/mix_contract.sol:authenticate",
						"label": "personal_info0",
						"offset": 0,
						"slot": "2",
						"type": "t_struct(personal_info)11_storage"
					},
					{
						"astId": 22,
						"contract": "contracts/use-cases/authentication_with_privacy_access/mix_contract.sol:authenticate",
						"label": "owner",
						"offset": 0,
						"slot": "4",
						"type": "t_address"
					},
					{
						"astId": 26,
						"contract": "contracts/use-cases/authentication_with_privacy_access/mix_contract.sol:authenticate",
						"label": "users",
						"offset": 0,
						"slot": "5",
						"type": "t_mapping(t_address,t_bool)"
					},
					{
						"astId": 30,
						"contract": "contracts/use-cases/authentication_with_privacy_access/mix_contract.sol:authenticate",
						"label": "basic_users",
						"offset": 0,
						"slot": "6",
						"type": "t_mapping(t_address,t_bool)"
					},
					{
						"astId": 34,
						"contract": "contracts/use-cases/authentication_with_privacy_access/mix_contract.sol:authenticate",
						"label": "personal_users",
						"offset": 0,
						"slot": "7",
						"type": "t_mapping(t_address,t_bool)"
					}
				],
				"types": {
					"t_address": {
						"encoding": "inplace",
						"label": "address",
						"numberOfBytes": "20"
					},
					"t_bool": {
						"encoding": "inplace",
						"label": "bool",
						"numberOfBytes": "1"
					},
					"t_mapping(t_address,t_bool)": {
						"encoding": "mapping",
						"key": "t_address",
						"label": "mapping(address => bool)",
						"numberOfBytes": "32",
						"value": "t_bool"
					},
					"t_string_storage": {
						"encoding": "bytes",
						"label": "string",
						"numberOfBytes": "32"
					},
					"t_struct(basic_info)6_storage": {
						"encoding": "inplace",
						"label": "struct authenticate.basic_info",
						"members": [
							{
								"astId": 3,
								"contract": "contracts/use-cases/authentication_with_privacy_access/mix_contract.sol:authenticate",
								"label": "name",
								"offset": 0,
								"slot": "0",
								"type": "t_string_storage"
							},
							{
								"astId": 5,
								"contract": "contracts/use-cases/authentication_with_privacy_access/mix_contract.sol:authenticate",
								"label": "email",
								"offset": 0,
								"slot": "1",
								"type": "t_string_storage"
							}
						],
						"numberOfBytes": "64"
					},
					"t_struct(personal_info)11_storage": {
						"encoding": "inplace",
						"label": "struct authenticate.personal_info",
						"members": [
							{
								"astId": 8,
								"contract": "contracts/use-cases/authentication_with_privacy_access/mix_contract.sol:authenticate",
								"label": "salary",
								"offset": 0,
								"slot": "0",
								"type": "t_uint256"
							},
							{
								"astId": 10,
								"contract": "contracts/use-cases/authentication_with_privacy_access/mix_contract.sol:authenticate",
								"label": "_address",
								"offset": 0,
								"slot": "1",
								"type": "t_string_storage"
							}
						],
						"numberOfBytes": "64"
					},
					"t_uint256": {
						"encoding": "inplace",
						"label": "uint256",
						"numberOfBytes": "32"
					}
				}
			},
			"userdoc": {
				"kind": "user",
				"methods": {},
				"version": 1
			}
		}
	}
}